S01100002E2E2F50726F746575732E73313966
S32D0000C000000000205DC2000011C3000017C300001DC3000023C3000029C3000000000000000000000000000073
S32D0000C028000000002FC3000035C30000000000003BC3000041C3000089FB000095FB0000A1FB0000ADFB0000A6
S32D0000C050B9FB0000C5FB0000D1FB0000DDFB0000E9FB0000F5FB000001FC00000DFC000019FC000025FC00009A
S32D0000C07831FC00003DFC000049FC000055FC000061FC00006DFC000079FC000085FC000091FC00009DFC0000BC
S32D0000C0A0A9FC0000B5FC0000C1FC0000CDFC0000D9FC0000E5FC0000F1FC0000FDFC000009FD000015FD0000E2
S32D0000C0C821FD00002DFD000039FD000045FD000051FD00005DFD000069FD000075FD000081FD00008DFD000002
S32D0000C0F099FD000049470100A5FD0000B1FD0000BDFD0000C9FD0000D5FD0000E1FD0000EDFD0000F9FD00009B
S32D0000C11805FE000011FE00001DFE000029FE000035FE000041FE00004DFE000059FE000065FE000071FE0000BF
S32D0000C1407DFE000089FE000095FE0000A1FE000085250100ADFE0000B9FE0000C5FE0000D1FE0000DDFE000023
S32D0000C168E9FE0000F5FE000001FF00000DFF000019FF000025FF000031FF00003DFF000049FF000055FF00007F
S32D0000C19061FF00006DFF000079FF00009D22010065210100012201000DF900003D23010085FF000091FF000057
S32D0000C1B89DFF00008C42060000000020C81700008C4206000000FF1F00000000C8170020D81A00000000FF1FE9
S32D0000C1E00000000080B489B000AFF860B9607A60BB68FB61FB68BB6100237B617A697B689A420BD2BA69131DFB
S32D0000C208BB61FB69191DF96112681A607B6904337B61EFE700BF2437BD4680BC704780B485B000AF786039609E
S32D0000C2307B68FB600023BB60BA683B689A4208D2FB681A1DFA6000221A60BB680433BB60F2E700BF1437BD46FE
S32D0000C25880BC704780B586B000AF72B6234B4CF220521A80214B4DF628121A80204B4FF4E9721A801F4B7B615F
S32D0000C2807B691F4A934214D27B691A1D7A611B683B617B691A1D7A611B68FB607B691A1D7A611B68BB60BA68E9
S32D0000C2A8F9683869FFF79AFFE6E77B69134A93420ED27B691A1D7A611B68FB607B691A1D7A611B68BB60B9688B
S32D0000C2D0F868FFF7A8FFECE70B4B7B600B4A7B681A603DF06BF962B603F0D8FB00F0C8F8FEE700BF0E20054057
S32D0000C2F800200540BCC10000D4C10000E4C1000008ED00E000C0000080B400AFFEE780B400AFFEE780B400AFF4
S32D0000C320FEE780B400AFFEE780B400AFFEE780B400AFFEE780B400AFFEE780B400AFFEE780B400AFFEE780B426
S32D0000C34800AFFEE7FFFFFFFFFFFFFFFFFFFFFFFFFFFFFFFFFFFFFFFFFFFFFFFFFFFFFFFFFFFFFFFFFFFFFFFF57
S32D0000C370FFFFFFFFFFFFFFFFFFFFFFFFFFFFFFFFFFFFFFFFFFFFFFFFFFFFFFFFFFFFFFFFFFFFFFFFFFFFFFFFC7
S32D0000C398FFFFFFFFFFFFFFFFFFFFFFFFFFFFFFFFFFFFFFFFFFFFFFFFFFFFFFFFFFFFFFFFFFFFFFFFFFFFFFFF9F
S32D0000C3C0FFFFFFFFFFFFFFFFFFFFFFFFFFFFFFFFFFFFFFFFFFFFFFFFFFFFFFFFFFFFFFFFFFFFFFFFFFFFFFFF77
S32D0000C3E8FFFFFFFFFFFFFFFFFFFFFFFFFFFFFFFFFFFFFFFFFFFFFFFFFFFFFFFFFFFFFFFFFFFFFFFFFEFFFFFF50
S32D0000C44010B5054C237833B9044B13B10448AFF300800123237010BDC817002000000000542F060008B5034B99
S32D0000C4681BB103490348AFF3008008BD00000000CC170020542F060090B5ADF54B7D06AF4FF00003C7F89032A9
S32D0000C4904FF00003C7F894324FF00003C7F898320021944806F0D5FD002300229249914806F03EFED7F890128B
S32D0000C4B80F2300228D4806F06FFE1E2300228D498A4806F031FED7F894122D230022874806F062FE3C2300220D
S32D0000C4E08749844806F024FED7F898124B230022804806F055FE834BC7F80833002387F80733012387F80633E0
S32D0000C508032387F80533002387F80433022387F80333042387F8023397F8064397F8042397F8071307F5CC702B
S32D0000C530D7F80833039397F80233029397F80533019397F803330093234602F0FDFE07F5C673184601F089FFCF
S32D0000C55807F5287307F5CC721146184600F046FA07F5287207F527731146184600F08BFA07F5277207F5C673DF
S32D0000C5801146184601F07EFF07F52773184600F09AFA07F52873184600F046FA002387F80F3307F52F731846ED
S32D0000C5A808F0C6FB07F52F7207F529735449184626F0E0F807F5297207F584700423002100F050FD07F52973EA
S32D0000C5D0184625F083FD07F52F73184608F0AEFB07F53673184608F0A7FB07F5367207F530734649184626F0CA
S32D0000C5F8C1F807F5307207F1940004230F2100F031FD07F53073184625F064FD07F53673184608F08FFB07F5C9
S32D0000C6203D73184608F088FB07F53D7207F537733749184626F0A2F807F53771381D002305934FF07E53049329
S32D0000C648324B039300230293042301934FF0000300932F4B1E2201F019F807F53773184625F038FD07F53D73B3
S32D0000C670184608F063FB1F4807F0B6F807F5C27207F5C47319461B4806F026FE034683F00103DBB2002B20D035
S32D0000C69807F58473184600F005FE07F19403184600F000FE07F58473184600F051FF0346002B02D0002387F8DC
S32D0000C6C00F3307F19403184600F046FF0346002BD4D0012387F80F33D0E707F5BE7207F5C0731946034806F039
S32D0000C6E8F7FD0346002B15D0F3E700BFC81A0020049F05001C9F0500349F05000000C0404C9F0500589F050010
S32D0000C710609F0500000080BF0000C842D7F89012D7F89422D7F8983207F5CC7002F0CAFE9C4806F0A4FC9C4BCC
S32D0000C738C7F8FC324FF00001D7F8FC023AF0E0F9034618463AF0C0FC034600229549934806F0EAFC07F5CC730E
S32D0000C760184602F0DFFF04469149D7F8FC023AF0CBF9034618463AF0ABFC034600222146884806F00DFD8B49B0
S32D0000C788D7F8FC023AF0BCF9034618463AF09CFC034600228649814806F0C6FC07F5CC73184602F0C8FF044617
S32D0000C7B08249D7F8FC023AF0A7F9034618463AF087FC034600222146764806F0E9FC7C49D7F8FC023AF098F9ED
S32D0000C7D8034618463AF078FC0346002277496F4806F0A2FC07F5CC73184602F0B2FF04467349D7F8FC023AF03F
S32D0000C80083F9034618463AF063FC034600222146644806F0C5FC6D49D7F8FC023AF074F9034618463AF054FCEE
S32D0000C8280346002268495D4806F07EFC07F54473A3F5C4731C686549D7F8FC023AF060F9034618463AF040FCA0
S32D0000C850034600222146534806F0A2FC5E49D7F8FC023AF051F9034618463AF031FC034600225A494B4806F03C
S32D0000C8785BFC07F54473A3F5C6731B6883F000445549D7F8FC023AF03BF9034618463AF01BFC034600222146FA
S32D0000C8A0404806F07DFC97F80F33002B05D007F5C673184601F0F8FD3DE73B1D184600F0D7FF3B1D184601F0E2
S32D0000C8C855FAC7F8F80207F5C27207F5C4731946324806F0FDFC0346002B58D007F54473A3F5C4731B68184610
S32D0000C8F039F07AFD4FF000023A4B39F015FC02460B46104619464FF00002374B39F0EEFE02460B461046194606
S32D0000C9183AF0A0F80346C7F8903207F54473A3F5C6731B68184639F05BFD4FF000022D4B39F0F6FB02460B4613
S32D0000C940104619464FF00002294B39F0CFFE02460B46104619463AF081F80346C7F894323B1D184601F09AFA6F
S32D0000C9680346002B03D0D7F8F832C7F89832D7F89012D7F89422D7F8983207F5CC7002F09DFD07F5CC731846EC
S32D0000C99002F0B0FDCFE607F5CC73184602F0ACFEC9E600BFC81A00200000A0416C9F0500000070410000F041AD
S32D0000C9B8789F05000000344200007042889F0500000096420000B442989F05000000D24200000743A09F050035
S32D0000C9E000001643000064400000744000005E4000006E40B0B582B000AF78603960386800F083F805464820B7
S32D0000CA0808F0C6F803461C462946204601F01AFB2146786800F08FF878680837BD46B0BD90B585B000AF786076
S32D0000CA307B68184600F092F8F860FB681B68002B0CD0786800F097F80446F86800F0A0F803461B6819462046B6
S32D0000CA5800F0A4F8FB6800221A607B6818461437BD4690BD80B584B000AFF860B9607A60FB68B9687A68184622
S32D0000CA8000F0B8F8FB6818461037BD4680BDB0B582B000AF786039607C68386800F093F80546386800F067F8B0
S32D0000CAA80346184600F098F803461A4629462046FFF7D8FF7B6818460837BD46B0BD90B585B000AF78607B681A
S32D0000CAD0184600F0A5F8F860FB681B68002B0CD0786800F0AAF80446F86800F0B3F803461B681946204600F0D0
S32D0000CAF8B7F8FB6800221A607B6818461437BD4690BD80B483B000AF78607B6818460C37BD4680BC704780B5E9
S32D0000CB2082B000AF786039607B683A681146184600F0ABF87B6818460837BD4680BD80B582B000AF7860396081
S32D0000CB487B6839681846FFF7E6FF7B6818460837BD4680BD80B582B000AF78607B68184600F0A3F803461846E1
S32D0000CB700837BD4680BD80B582B000AF78607B68184600F0A3F8034618460837BD4680BD80B483B000AF78604A
S32D0000CB987B6818460C37BD4680BC704780B582B000AF786039603B68002B04D01A68143212681846904700BF96
S32D0000CBC00837BD4680BD80B582B000AF78607B68184600F088F8034618460837BD4680BD80B483B000AF786015
S32D0000CBE87B6818460C37BD4680BC704790B585B000AFF860B9607A60FC687868FFF7ECFF024607F10803194662
S32D0000CC10204600F07DF8FB6818461437BD4690BD80B582B000AF78607B68184600F089F8034618460837BD4646
S32D0000CC3880BD80B582B000AF78607B68184600F089F8034618460837BD4680BD80B483B000AF78607B6818469C
S32D0000CC600C37BD4680BC704780B582B000AF786039603B68002B04D01A68143212681846904700BF0837BD46CC
S32D0000CC8880BD80B582B000AF786039607B68184600F07AF87868FFF75DFF02463B6813607B6818460837BD4604
S32D0000CCB080BD80B582B000AF78607B68184600F081F8034618460837BD4680BD80B582B000AF78607B6818462C
S32D0000CCD800F080F8034618460837BD4680BD80B584B000AF78607868FFF734FF03461B68FB607868FFF72EFF7D
S32D0000CD00034600221A60FB6818461037BD4680BDB0B584B000AFF860B9607A60FC68B86800F068F80546786846
S32D0000CD28FFF75AFF03461A462946204600F068F8FB6818461037BD46B0BD80B582B000AF78607B68184600F029
S32D0000CD5077F8034618460837BD4680BD80B582B000AF78607B68184600F076F8034618460837BD4680BD80B538
S32D0000CD7882B000AF78607B68184600F075F8034618460837BD4680BD80B582B000AF78607B68184600F07EF87B
S32D0000CDA07B6818460837BD4680BD80B582B000AF78607B68184600F081F8034618460837BD4680BD80B582B080
S32D0000CDC800AF78607868FFF7ECFF034618460837BD4680BD80B582B000AF7860786800F07FF8034618460837B4
S32D0000CDF0BD4680BD80B483B000AF78607B6818460C37BD4680BC704790B585B000AFF860B9607A607868FFF723
S32D0000CE18E3FE03461946F86800F06EF8FC68B868FFF7E4FF03461946204600F077F8FB6818461437BD4690BD87
S32D0000CE4080B582B000AF78607868FFF794FF034618460837BD4680BD80B582B000AF7860786800F070F80346D8
S32D0000CE6818460837BD4680BD80B483B000AF78607B6818460C37BD4680BC704780B582B000AF7860786800F099
S32D0000CE9066F8034618460837BD4680BD80B582B000AF7860786800F064F87B68184600F06CF87B6818460837C1
S32D0000CEB8BD4680BD80B483B000AF78607B6818460C37BD4680BC704780B582B000AF7860786800F063F8034642
S32D0000CEE018460837BD4680BD80B582B000AF78607868FFF7EDFF034618460837BD4680BD80B582B000AF786083
S32D0000CF0839603868FFF768FE03461946786800F04FF87B6818460837BD4680BD80B582B000AF786039603868C0
S32D0000CF30FFF760FF03461A687B681A607B6818460837BD4680BD80B582B000AF78607868FFF798FF0346184694
S32D0000CF580837BD4680BD80B483B000AF78607B6818460C37BD4680BC704780B582B000AF7860786800F02EF8E0
S32D0000CF807B6818460837BD4680BD80B483B000AF78607B6800221A607B6818460C37BD4680BC704780B483B075
S32D0000CFA800AF78607B6818460C37BD4680BC704780B582B000AF786039603868FFF70CFE03461946786800F0BB
S32D0000CFD00FF87B6818460837BD4680BD80B483B000AF78607B6818460C37BD4680BC704780B483B000AF786016
S32D0000CFF839607B6818460C37BD4680BC7047000080B582B000AF786039607B68012B0CD13B684FF6FF72934257
S32D0000D02007D1064808F066F8054A0649034807F02DFD00BF0837BD4680BD00BFE41700200000002015510100BD
S32D0000D04880B500AF4FF6FF710120FFF7D9FF80BD80B400AF024B1846BD4680BC704700BFFFFF7F7F2DE9B043AD
S32D0000D07084B000AFF860B9607A603B60FB684FF4A0721A60FB68F0225A60FB686FF07F429A60FB68494ADA60BB
S32D0000D098FB68494A1A61FB6800225A61FB68474A9A62FB68002283F82D20FB685C33184625F008F8FB681B6831
S32D0000D0C0184639F06FF94FF000024FF0804339F00DFB02460B4614461D46786825F050F80346184639F05EF925
S32D0000D0E84FF000024FF0804339F0FCFA02460B4690469946324805F007FC0346184639F05DF902460B464046B3
S32D0000D110494639F0C1F902460B462046294639F003F802460B461046194639F097FC0246FB685A63B86839F032
S32D0000D1389BFD0246FB689A63786825F01DF804461F4805F0E1FB034604FB03F3184639F087FD0246FB685A654A
S32D0000D160194805F0DFFB0346184639F081FD0246FB689A65FB685C337968184624F0BAFFFB6800221A76FB6803
S32D0000D18800225A76FB68002283F82C20FB68002283F82D203A68FB68DA613A68FB685A62FB68DA69FB681A6367
S32D0000D1B0FB6818461037BD46BDE8B0836666660021212100E22B8A00C81A0020F0B58BB002AF78607B681B6B6E
S32D0000D1D81946334805F095FF7B685C6B304805F093FB0346184639F03FFD03461946204639F084FC03461846B7
S32D0000D20039F066FF05467B689B6B184639F060FF06467B685C6D244805F07AFB03465B00184639F025FD0346F4
S32D0000D2281946204639F06CFC0346184639F04CFF04467B689B6D184639F046FF034600932346324629461648DC
S32D0000D25006F015FC7B6803F15C0207F108031146184625F045FA7B685B6B184639F030FF04467B689B6B4FF097
S32D0000D2788141184639F044FC0346184639F024FF034607F108012246054805F070FF07F10803184624F01EFF17
S32D0000D2A000BF2437BD46F0BDC81A0020B0B584B000AF78607B685B7E002B00F046810023FB730023BB737B6811
S32D0000D2C803F13C017B6840331A46924806F000F87B68DC6B7B685D6B8E4805F015FB0346184639F0C1FC034603
S32D0000D2F01946284639F006FC03461946204639F0BDFE0346002B44D07B68DC6B7B685A6B7B685B6D194610466C
S32D0000D31839F0F6FB03461D467E4805F0F5FA0346184639F0A1FC03461946284639F0E8FB03464FF07E51184633
S32D0000D34039F0E0FB03461946204639F08DFE0346002B1ED07B681A6C7B689B6B1946104639F08CFE0346002B69
S32D0000D36813D07B681C6C7B689A6B7B689B6D1946104639F0C5FB03461946204639F070FE0346002B01D00122CB
S32D0000D39000E000227B6883F82C207B6803F13C017B6840331A465D4805F096FF034683F00103DBB2002B6ED113
S32D0000D3B87B6803F144017B6848331A46554805F087FF0346002B62D07B68DC6B7B685D6B504805F0A3FA034667
S32D0000D3E0184639F045FC03461946284639F08AFB03461946204639F041FE0346002B27D07B68DC6B7B685A6BE0
S32D0000D4087B685B6D1946104639F07AFB03461D46404805F079FA0346184639F025FC03461946284639F06CFBC5
S32D0000D43003464FF07E51184639F064FB03461946204639F011FE0346002B01D0012300E00023FB737B681A6C08
S32D0000D4587B689B6B1946104639F00CFE0346002B13D07B681C6C7B689A6B7B689B6D1946104639F045FB0346D9
S32D0000D4801946204639F0F0FD0346002B01D0012300E00023BB73FB7B002B19D0BB7B002B16D07B685B69002B66
S32D0000D4A803D17B6801225A6106E07B685B69012B02D17B6802225A617B681A6A7B681A637B6801221A763CE0FA
S32D0000D4D07B685B69022B03D17B6803225A6106E07B685B69032B02D17B6800225A617B6893F82C30002B13D09D
S32D0000D4F87B689A6A7B681A637B6893F82D3083F00103DBB2002B0FD07B68012283F82D200AE000BFC81A00206D
S32D0000D5207B68DA697B681A637B68002283F82D207B6800221A76FFF78FFD02467B68DA63FFF78AFD02467B6863
S32D0000D5481A647868FFF73EFE00BF1037BD46B0BD80B485B000AF78600023FB737B685B69012B04D17B6802227F
S32D0000D5705A610123FB73FB7B18461437BD4680BC704780B483B000AF786039607A683B68134018460C37BD4628
S32D0000D59880BC704780B483B000AF786039607A683B68134318460C37BD4680BC704780B483B000AF78607B68A8
S32D0000D5C0DB4318460C37BD4680BC704780B582B000AF786039607B681B6839681846FFF7DDFF02467B681A6025
S32D0000D5E87B6818460837BD4680BD80B582B000AF786039607B681B6839681846FFF7BDFF02467B681A607B682F
S32D0000D61018460837BD4680BD90B587B000AFF860B9607A60FB68DB687B61FB6803F10C047868FFF7C0FF0346D2
S32D0000D63819462046FFF7D9FFFB6803F10C047968B868FFF79AFF034619462046FFF7BAFF7B6918461C37BD46E5
S32D0000D66090BD80B582B000AF78604FF4827204217868FFF7D1FF7B6818460837BD4680BD80B483B000AF7860B1
S32D0000D6887B6818460C37BD4680BC7047B0B584B000AFF860B9607A603B60FB684FF4A0721A60FB68F0225A606B
S32D0000D6B0FB686FF07F429A60FB686A4ADA60FB681C33184624F002FDFB683433184624F0FDFCFB68644A1A6695
S32D0000D6D8FB684FF081425A66FB68624AC3F88420FB68002283F88920FB680022C3F88C20FB681B68184638F090
S32D0000D70051FE4FF000024FF0804338F0EFFF02460B4614461D46386838F066FE4FF000024FF0804338F0E2FF85
S32D0000D72802460B462046294638F0FAFC02460B461046194639F08EF90246FB689A66786839F092FA0246FB685E
S32D0000D750DA66FB689B6E184638F046FE04460D46386838F041FE4FF000024FF0804338F0BDFF02460B4620466B
S32D0000D778294638F0D7FC02460B461046194639F069F90246FB689A65FB68DB6E184638F027FE04460D46FB683F
S32D0000D7A05B6E184638F020FE4FF000024FF0804338F09CFF02460B462046294638F0B6FC02460B461046194652
S32D0000D7C839F048F90246FB68DA65FB683A68C3F88020FB683A6A9A61FB687A6A1A61FB68BA6A5A61FB683A6B71
S32D0000D7F0DA64FB68FA6A1A65FB6897F8342083F85420F86A38F0F0FD04460D46F96A386B39F078F903461846F7
S32D0000D81838F0E6FD4FF000024FF0804338F062FF02460B462046294638F07CFC02460B461046194639F00EF97F
S32D0000D8400246FB689A61FB683433B968184624F051FCFB68002283F88820FB6818461037BD46B0BD6666660018
S32D0000D8680000C0400000A04090B585B000AF78600023FB730023BB737B689B691946786800F034FA7B6803F1B4
S32D0000D89070017B6874331A469B4805F01DFD034683F00103DBB2002B5ED17B6803F178017B687C331A46944858
S32D0000D8B805F00EFD0346002B52D07B681B6F184639F002FC04467B685B6F184639F0FCFB03461A462146786855
S32D0000D8E000F054FA0346FB737B681A6F7B689B6E1946104639F0C2FB0346002B32D07B681C6F7B689A6E7B6880
S32D0000D908D3F880301946104639F0FAF803461946204639F0A5FB0346002B1FD07B685A6F7B68DB6E19461046DF
S32D0000D93039F0A4FB0346002B14D07B685C6F7B68DA6E7B68D3F884301946104639F0DCF803461946204639F085
S32D0000D95887FB0346002B01D0012300E00023BB73FB7B002B17D07B68D3F88C30002B04D17B680122C3F88C2026
S32D0000D98020E07B68D3F88C30012B1BD17B680222C3F88C207B68012283F8882012E07B68D3F88C30022B04D102
S32D0000D9A87B680322C3F88C2008E07B68D3F88C30032B03D17B680022C3F88C20BB7B002B03D07B681A6F7B689F
S32D0000D9D09A657B6803F178017B687C331A464A4805F07AFC03461A467B6883F889207B6893F88830002B37D0E3
S32D0000D9F87B6893F88930002B32D07B681A6F7B689A657B689C6D7B689A6E7B68D3F880301946104639F074F8E0
S32D0000DA2003461946204639F029FB0346002B0CD07B689A6E7B68D3F880301946104639F063F803461A467B681F
S32D0000DA489A657B689A6D7B689B6E1946104639F007FB0346002B03D07B689A6E7B689A657B6893F8893083F04D
S32D0000DA700103DBB2002B03D07B68002283F888207B689A6D7B689B6E1946104639F03AF803461A467B68D3F894
S32D0000DA9880301946104639F0EFF90346BB607B68DA6C7B681B6D1946104639F027F80346B968184639F02CF9DF
S32D0000DAC003461A467B681B6D1946104639F01CF803461A467B689A614FF07E51B86839F0AFFA0346002B08D05F
S32D0000DAE87B6893F85430002B03D07B684FF0FF429A61786800F006F800BF1437BD4690BDC81A0020F0B591B0B2
S32D0000DB1002AF78607B685B691946754805F0F5FA7B689B6E184639F0D3FA04467B68DB6E184639F0CDFA054668
S32D0000DB387B68D3F88030184639F0C6FA06467B68D3F88430184639F0BFFA0346009333462A462146644805F05F
S32D0000DB608EFF7B681B691946614805F0CEFA7B68996D7B68DA6D7B68186E7B685B6E009303465B4806F0DEF86B
S32D0000DB887B6803F11C0207F108031146184624F0ABFD7B689A6E7B68D3F880301946104638F0AEFF03464FF0AB
S32D0000DBB08241184638F0A8FF0346184639F088FA06467B68DB6D184638F00EFC04460D467B685B6E184638F02F
S32D0000DBD807FC4FF000024FF0804338F083FD02460B462046294638F09BFA02460B46104619464FF000024FF038
S32D0000DC00804338F091FA02460B461046194638F0DDFE034607F108013246354805F0ABFA07F10803184624F0E1
S32D0000DC2859FA7B6803F1340207F120031146184624F05AFD7B689C6E7B683433184624F09BFA0546284804F046
S32D0000DC505FFE034605FB03F3184639F005F803461946204638F04EFF03464FF08241184638F048FF0346184644
S32D0000DC7839F02AFA06467B68DB6D184638F0B0FB04460D467B685B6E184638F0A9FB4FF000024FF0804338F0AB
S32D0000DCA025FD02460B462046294638F03DFA02460B46104619464FF000024FF0804338F033FA02460B46104692
S32D0000DCC8194638F07FFE034607F120013246064805F04DFA07F12003184624F0FBF900BF3C37BD46F0BD00BFA4
S32D0000DCF0C81A002090B5BDB000AF7860396007F10803184623F04CFE07F1080308331849184623F015F804460D
S32D0000DD180220FFF7B1FC03461946204623F096F803463968184623F043F97B6803F11C0407F1D80307F1080206
S32D0000DD401146184623F094FE07F1D8031946204624F0D6F907F1D803184624F0BFF907F10803184623F0CCFAA9
S32D0000DD6800BFF437BD4690BD63D6000080B483B000AF78607B689B6918460C37BD4680BC704700002DE9B043A5
S32D0000DD908AB000AFF860B9607A60B86838F068FF0246FB689B6D1946104638F0ABFE0346184638F019FB02461E
S32D0000DDB80B46C7E90823786838F056FF0246FB68DB6D1946104638F099FE0346184638F007FB02460B46C7E933
S32D0000DDE00623D7E90823D7E9080138F055FB02460B4614461D46FB681A6EFB681B6E1946104638F089FF0346E5
S32D0000DE08184638F0EDFA02460B462046294638F069FC02460B4614461D46D7E90623D7E9060138F035FB0246DE
S32D0000DE300B4690469946FB685A6EFB685B6E1946104638F069FF0346184638F0CDFA02460B464046494638F0B6
S32D0000DE5849FC02460B462046294638F063F902460B46C7E9042301231C464FF00002084BD7E9040138F088FD69
S32D0000DE800346002B01D100231C46E3B218462837BD46BDE8B08300BF0000F03F80B483B000AF78607B6893F832
S32D0000DEA8883018460C37BD4680BC704780B582B000AF786039607B68012B0CD13B684FF6FF72934207D1064836
S32D0000DED007F010F9054A0649034806F0D7FD00BF0837BD4680BD00BFE8170020000000201551010080B500AFEA
S32D0000DEF84FF6FF710120FFF7D9FF80BD80B483B000AF78607B68D3E90023104619460C37BD4680BC704780B548
S32D0000DF2084B000AF786000F01FF802460B46C7E9022307F108031946786800F004F878681037BD4680BD80B4DA
S32D0000DF4883B000AF786039603B68D3E900237968C1E900237B6818460C37BD4680BC704780B400AF4FF000028A
S32D0000DF704FF0000310461946BD4680BC704780B588B000AFC7E90201C7E9002307F11803184608F0F5FE07F1A0
S32D0000DF98100307F1080207F11801184600F0E6F83A4607F110031146184600F0FEF8034618462037BD4680BDA5
S32D0000DFC080B582B000AF786039603B461946786800F018F978680837BD4680BD80B582B000AF7860064A7B686B
S32D0000DFE81A607B680433184624F06CF87B6818460837BD4680BD00BFDC9F050080B582B000AF7860064A7B6881
S32D0000E0101A607B680433184624F060F87B6818460837BD4680BD00BFDC9F050080B582B000AF78607868FFF7C1
S32D0000E038E5FF1C21786806F0A9FD7B6818460837BD4680BD90B587B000AFF860B960FB681846FFF7BFFF184AEA
S32D0000E060FB681A60FB68BA68DA61FB682033184600F0DBF8FB6803F12C0407F11403184606F05AFE07F11403CD
S32D0000E0881A460E49204624F075FB07F11403184606F050FEFC683B46184608F06DFED7E90023C4E90823FB6854
S32D0000E0B0002283F82820FB6818461C37BD4690BDBC9F0500A89F050080B584B000AF78607B68D8694FF00003F7
S32D0000E0D8114A4FF0000101F0F1F97B68DB69184601F004FA07F1080340F6B8311846FFF763FF7968D7E9022392
S32D0000E100D1E90801FFF73BFF0346002B03D07B68012283F8282000BF1037BD4680BD00BFCDCC4C3F80B483B05E
S32D0000E12800AF78607B6893F8283018460C37BD4680BC704780B483B000AF78607B68012283F8282000BF0C372C
S32D0000E150BD4680BC704780B582B000AF786039603B682C331946786824F0C2FA78680837BD4680BD80B588B047
S32D0000E17800AFF860B9607A6007F11003B968184600F05CF807F118037968184600F056F8FB6807F1180207F1B4
S32D0000E1A01001184600F05EF800BFF8682037BD4680BDB0B586B000AF786039607B68D3E90023C7E9022307F19C
S32D0000E1C808031846FFF79AFE04460D4607F110033968184600F072F807F110031846FFF78DFE02460B469442D8
S32D0000E1F075EB0303B4BF01230023DBB218461837BD46B0BD80B483B000AF7860396039680968C8170A46034626
S32D0000E2187968C1E900237B6818460C37BD4680BC704780B582B000AF78607B681846FFF772FE7B68184608379B
S32D0000E240BD4680BD80B483B000AF7860396079683B68D3E90023C1E9002378680C37BD4680BC70472DE9B04397
S32D0000E2688AB000AFF860B9607A60BB68D3E90023C7E9062307F118031846FFF73FFE04460D467B68D3E9002376
S32D0000E290C7E9082307F120031846FFF733FE02460B46B4EB020865EB0309C7E9048907F110031946F868FFF74A
S32D0000E2B846FEF8682837BD46BDE8B08380B584B000AF7860396007F108033968184600F00FF807F10803184677
S32D0000E2E0FFF710FE02460B467968C1E900237B6818461037BD4680BD80B582B000AF786039607B683968184694
S32D0000E30800F012F800BF78680837BD4680BD80B483B000AF78607B68D3E90023104619460C37BD4680BC704731
S32D0000E3302DE9B04F88B000AF786139613869FFF7EAFF02460B464FF0000A4FF0000B4FEA431B4BEAD26B4FEA62
S32D0000E358421A52465B46141A63EB01054FF000024FF000036B0243EAD453620214461D4614EB000845EB0109DA
S32D0000E3804FF000024FF000034FEA891343EA98634FEA8812B2EB08043C6063EB09037B60D7E9004523461B1801
S32D0000E3A8BB602B4641EB0303FB60D7E90234C7E9063407F1180319467869FFF7C0FD78692037BD46BDE8B08F29
S32D0000E3D080B582B000AF7860084A7B681A607B682C33184623F07AFE7B681846FFF70AFE7B6818460837BD4695
S32D0000E3F880BD00BFBC9F050080B582B000AF78607868FFF7E1FF4821786806F0BFFB7B6818460837BD4680BD3E
S32D0000E42080B483B000AF786039603B6818460C37BD4680BC704780B582B000AF78607B68184600F074F87B689F
S32D0000E44818460837BD4680BD80B582B000AF78607B681846FFF7EBFF7B6818460837BD4680BD80B582B000AFE4
S32D0000E47078607B681846FFF7EBFF7B6818460837BD4680BD90B583B000AF786039607C68386800F05CF803461C
S32D0000E4981946204600F061F800BF0C37BD4690BD80B586B000AF78607B687B61786900F065F80346FB60786992
S32D0000E4C000F070F80346BB6007F1080207F10C031146184600F077F80346002B23D007F10C03184600F096F80B
S32D0000E4E83861386900F09DF803461A680432126818469047034683F00103DBB2002B08D0386900F08EF80346E7
S32D0000E5101A68126818469047E7E707F10C03184600F069F8D0E700BF1837BD4680BD80B582B000AF7860786855
S32D0000E53800F083F87B68184600F08BF87B6818460837BD4680BD80B483B000AF78607B6818460C37BD4680BC25
S32D0000E560704780B582B000AF786039603868FFF7EEFF03461946786800F0ADF800BF0837BD4680BD80B584B008
S32D0000E58800AF78607A6807F10C031146184600F0CCF8FB6818461037BD4680BD80B584B000AF78607B681A1D3A
S32D0000E5B007F10C031146184600F0BBF8FB6818461037BD4680BD90B583B000AF78603960786800F0BDF8034630
S32D0000E5D81C68386800F0B8F803461B689C4214BF01230023DBB218460C37BD4690BD80B483B000AF78607B683E
S32D0000E6001B681A1D7B681A607B6818460C37BD4680BC704780B483B000AF78607B681B6818460C37BD4680BC27
S32D0000E628704780B582B000AF7860786800F096F8034618460837BD4680BD80B582B000AF7860786800F097F84E
S32D0000E6507B6818460837BD4680BD80B483B000AF78607B6800221A607B6800225A607B6800229A607B68184670
S32D0000E6780C37BD4680BC704780B584B000AFF860B9607A60BB68002B05D0FB687A68B968184600F07AF800BFD0
S32D0000E6A01037BD4680BD80B483B000AF78607B6818460C37BD4680BC704780B584B000AFF860B9607A60B968D9
S32D0000E6C8F86800F071F800BF1037BD4680BDB0B582B000AF786039607B685A687B689B689A4211D07C687B685F
S32D0000E6F05D68386800F069F803461A462946204600F06DF87B685B681A1D7B685A600CE07868FFF747FF0446A7
S32D0000E718386800F056F803461A462146786800F083F800BF0837BD46B0BD80B483B000AF786039603B681A6880
S32D0000E7407B681A607B6818460C37BD4680BC704780B483B000AF78607B6818460C37BD4680BC704780B582B005
S32D0000E76800AF78607B68184600F01AF9034618460837BD4680BD80B483B000AF78607B6818460C37BD4680BCE1
S32D0000E790704780B584B000AFF860B9607A607A68B968F86800F00EF900BF1037BD4680BD80B582B000AF7860B3
S32D0000E7B839603968786800F011F900BF0837BD4680BD80B483B000AF78607B6818460C37BD4680BC704780B544
S32D0000E7E084B000AFF860B9607A607868FFF7EDFF03461A46B968F86800F02CF900BF1037BD4680BD80B582B02F
S32D0000E80800AF184600F005F8034618460837BD4680BD80B483B000AF3871012318460C37BD4680BC7047000048
S32D0000E830B0B58CB000AFF860B9607A60594A0121F86800F01FF9B862FB681B687B62FB685B683B62F868FFF7FC
S32D0000E85895FE03467B6107F1140207F108031146184600F052F90346FB61FB68B96A184600F060F9B861BB69CA
S32D0000E880FB62FC68FB699B00BA69D5187868FFF79CFF03461A4629462046FFF7A0FF0023FB62FFF7AFFF0346A9
S32D0000E8A8002B27D007F108031846FFF74DFF03461C68FB681846FFF7F2FE0346BA692146786A00F04BF9F862C6
S32D0000E8D0FB6A0433FB6207F108031846FFF738FF03461C68FB681846FFF7DDFE0346FA6A396A204600F036F95F
S32D0000E8F8F86226E007F108031846FFF725FF03461C68FB681846FFF7CAFE0346BA692146786A00F037F9F8629C
S32D0000E920FB6A0433FB6207F108031846FFF710FF03461C68FB681846FFF7B5FE0346FA6A396A204600F022F972
S32D0000E948F862FFF75BFF034683F00103DBB2002B09D0FB681846FFF7A2FE03461A46396A786AFFF7A6FEF86827
S32D0000E970FB689A687B6AD31A9B101A46796AFFF77FFEFB68BA691A60FB68FA6A5A60BB6A9B00BA691A44FB68BC
S32D0000E9989A6000BF3037BD46B0BD00BF20A0050080B582B000AF78607B68184600F010F903461B6818460837AC
S32D0000E9C0BD4680BD80B584B000AFF860B9607A607B689B001946B86806F0DCF800BF1037BD4680BD80B582B012
S32D0000E9E800AF786039607A683B689A420AD0786800F0FBF80346184600F001F97B6804337B60F0E700BF083788
S32D0000EA10BD4680BD80B582B000AF786039607B683A681146184600F009F97B6818460837BD4680BD80B582B0BE
S32D0000EA3800AF786039607B683A6811461846FFF7E5FF7B6818460837BD4680BD90B585B000AFF860B9607A6048
S32D0000EA607868FFF7B2FE0446BB6819460420FFF7D7FC034621461846FFF7DCFF00BF1437BD4690BD90B587B094
S32D0000EA8800AFF860B9607A60F86800F0EDF80446F86800F0FAF80346E21ABB689A4234BF01230023DBB2002B6F
S32D0000EAB002D0786818F040FAF86800F0EAF80446F86800F0E6F803463B6107F1080207F110031146184600F003
S32D0000EAD8EBF803461B6823447B61F86800F0D5F802467B69934206D3F86800F0BDF802467B69934204D9F868E4
S32D0000EB0000F0B6F8034600E07B6918461C37BD4690BD90B583B000AF786039607868FFF717FE03461C6838684B
S32D0000EB28FFF712FE03461B68E31A9B1018460C37BD4690BD80B582B000AF786039603B68002B06D07B683968A5
S32D0000EB50184600F0C0F8034600E0002318460837BD4680BD90B587B002AFF860B9607A603B608DF800403B68ED
S32D0000EB787A68B968F86800F0B9F8034618461437BD4690BD90B585B000AFF860B9607A603B60F86800F0BCF816
S32D0000EBA00446B86800F0B8F801463B687A68204600F0C1F8034618461437BD4690BD80B582B000AF7860396099
S32D0000EBC83968786800F0C4F800BF0837BD4680BD80B582B000AF78607B68184600F0C4F8034618460837BD46F0
S32D0000EBF080BD80B483B000AF78607B6818460C37BD4680BC704780B582B000AF78607868FDF759FF00BF08373A
S32D0000EC18BD4680BD80B582B000AF786039607B683A681146184600F0B5F87B6818460837BD4680BD90B583B0F8
S32D0000EC4000AF786039607C683B68184600F09CF8034619462046FFF7E1FF3868FDF7E0FF034600221A607B68FE
S32D0000EC6818460C37BD4690BD80B582B000AF78607B68184600F0CBF80346184600F0ADF8034618460837BD4686
S32D0000EC9080BD80B483B000AF78607B685A687B681B68D31A9B1018460C37BD4680BC704780B483B000AF786003
S32D0000ECB839607B681A683B681B689A4201D23B6800E07B6818460C37BD4680BC704780B582B000AF78603960D7
S32D0000ECE000223968786800F0A0F8034618460837BD4680BD80B584B000AFF860B9607A603B603B687A68B96811
S32D0000ED08F86800F0ACF8034618461037BD4680BD80B584B000AF786007F10C037968184600F0BAF8FB68184622
S32D0000ED301037BD4680BD80B584B000AFF860B9607A603B607A68B968F86800F0BBF8034618461037BD4680BDFC
S32D0000ED5880B582B000AF786039603868FDF7AFFE00BF0837BD4680BD80B582B000AF7860786800F0B5F80346D3
S32D0000ED8018460837BD4680BD80B483B000AF78607B6818460C37BD4680BC704790B583B000AF786039603868E8
S32D0000EDA800F0ABF80346184600F0B1F803461946786800F0C0F87C683868FDF7D8FF0346184600F0AEF8034665
S32D0000EDD01946204600F0C9F87B6818460C37BD4690BD80B584B000AF78606FF06043FB60786800F0CBF80346A2
S32D0000EDF8BB6007F1080207F10C031146184600F0CDF803461B6818461037BD4680BD80B483B000AF78607B68DD
S32D0000EE2018460C37BD4680BC704780B584B000AFF860B9607A60F86800F0C7F80246BB6893428CBF01230023E9
S32D0000EE48DBB2002B01D018F03BF8BB689B00184605F09EFE034618461037BD4680BDB0B584B000AFF860B96044
S32D0000EE707A603B60F86800F0B3F80446B86800F0AFF80546786800F0ABF802463B682946204600F0AFF80346A5
S32D0000EE9818461037BD46B0BD80B582B000AF786039603B46184600F0C7F803461A687B681A607B68184608377A
S32D0000EEC0BD4680BD80B586B000AFF860B9607A600123FB757A68B968F86800F0BBF8034618461837BD4680BDAF
S32D0000EEE880B582B000AF78607B68184600F0DDF8034618460837BD4680BD80B483B000AF78607B6818460C3770
S32D0000EF10BD4680BC704780B483B000AF78607B6818460C37BD4680BC704780B483B000AF78607B6818460C3703
S32D0000EF38BD4680BC704780B582B000AF786039603868FDF79BFF0346184600F0B8F803461946786800F0BDF88C
S32D0000EF607B6818460837BD4680BD80B582B000AF786039603868FFF7D8FF03461A687B681A607B681846083727
S32D0000EF88BD4680BD80B582B000AF7860786800F0ADF8034618460837BD4680BD80B483B000AF786039603B6868
S32D0000EFB01A687B681B689A4201D23B6800E07B6818460C37BD4680BC704780B483B000AF78606FF06043184651
S32D0000EFD80C37BD4680BC704780B483B000AF78607B6818460C37BD4680BC704790B587B000AFF860B9607A60F4
S32D0000F0003B607B687B61FA68BB689A4213D07869FFF7EFFD0446F868FFF7EBFD03463A681946204600F072F8EF
S32D0000F028FB680433FB607B6904337B61E7E77B6918461C37BD4690BD80B483B000AF78607B6818460C37BD46A6
S32D0000F05080BC704790B587B000AFF860B9607A607B687B6107F1080207F10C031146184600F067F80346002BE9
S32D0000F07816D07869FFF7B9FD044607F10C03184600F07BF803461946204600F081F807F10C03184600F062F8BF
S32D0000F0A07B6904337B61DDE77B6918461C37BD4690BD80B483B000AF78607B6818460C37BD4680BC704780B406
S32D0000F0C883B000AF78607B6818460C37BD4680BC704780B582B000AF786039603868FFF7EEFF7B68184608375C
S32D0000F0F0BD4680BD80B582B000AF78607868FFF764FF034618460837BD4680BD80B584B000AFF860B9607A6002
S32D0000F118B868FFF718FA03461A46F9687868FFF75AFBB868FFF761FD034619467868FFF742FD00BF1037BD4632
S32D0000F14080BD80B582B000AF786039603968786800F039F8034683F00103DBB218460837BD4680BD80B483B0AA
S32D0000F16800AF78607B681B681A1D7B681A607B6818460C37BD4680BC704780B483B000AF78607B681B681846CC
S32D0000F1900C37BD4680BC704790B583B000AF786039603868FFF711FB04467B6819460420FFF736F90346214659
S32D0000F1B81846FFF73BFC00BF0C37BD4690BD90B583B000AF78603960786800F00EF80446386800F00AF80346B9
S32D0000F1E09C420CBF01230023DBB218460C37BD4690BD80B483B000AF78607B681B6818460C37BD4680BC7047A8
S32D0000F20880B483B000AF78607B6823F0004318460C37BD4680BC704780B582B000AF7860786836F043F80346A2
S32D0000F23018460837BD4680BD80B584B000AFF860B9607A60B968F86837F00EFF0346002B01D0BB6809E0796889
S32D0000F258F86837F00FFF0346002B01D07B6800E0FB6818461037BD4680BD90B583B000AF786039607B681A68A6
S32D0000F2803B681B681946104637F046FD03461C467B6804331A683B6804331B681946104637F03AFD03461946BC
S32D0000F2A8204637F02DFC034618460C37BD4690BD90B583B000AF78607B681A687B681B681946104637F024FD81
S32D0000F2D003461C467B6804331A687B6804331B681946104637F018FD03461946204637F00BFC03461846FFF762
S32D0000F2F893FF034618460C37BD4690BD80B584B000AF786039607868FFF7D2FFF8604FF00001F86837F090FE3F
S32D0000F3200346002B02D04FF0000309E079683868FFF79FFF0346F968184637F0A1FD034618461037BD4680BD3E
S32D0000F34880B582B000AF7860084611461A460346FB700B46BB7013467B707868BA78F978FB6900F035FA7B6847
S32D0000F37003F130003A7C7978FB6900F02DFA7B6803F160003A7E397DFB6900F025FA7B684FF07E52C3F89020B4
S32D0000F3987B684FF00002C3F894207B68434A983392E8030083E803007B68414AA03392E8030083E803007B687F
S32D0000F3C04FF00002C3F8A8207B684FF00002C3F8AC207B684FF00002C3F8B0207B684FF00002C3F8B4207B686B
S32D0000F3E84FF00002C3F8B8207B684FF00002C3F8BC207B684FF00002C3F8C0207B684FF00002C3F8C4207B6803
S32D0000F4104FF00002C3F8C8207B68002283F8D2207B68012283F8D3207B68022283F8D4207B684FF00002C3F8AF
S32D0000F438D8207B684FF00002C3F8DC207B684FF00002C3F8E0207B681A4AC3F8E8207B684FF07E52C3F8EC2031
S32D0000F4607B684FF07E52C3F8F0207B68144AC3F8F4207B68FA7883F8CC207B687A7883F8CE207B683A7D83F8A2
S32D0000F488D0207B68BA7883F8CD207B683A7C83F8CF207B683A7E83F8D1207B68FA69C3F8E4207B68184608375A
S32D0000F4B0BD4680BD3CA0050044A0050000001041CDCCCC3D80B485B000AFF860B9607A603B60FB68BA68C3F8F3
S32D0000F4D8A820FB687A68C3F8AC20FB683A68C3F8B02000BF1437BD4680BC704790B58FB000AF78607B6803F100
S32D0000F50090027B68A83319461046FFF7FBFE78637B6803F198027B68A83319461046FFF7F1FE38637B6803F1D3
S32D0000F528A0027B68A83319461046FFF7E7FEF8627B68D3F8BC30BB627B68D3F8B0307B62B96A786A37F0DAFA49
S32D0000F55003463B627B68D3F8F430396A184637F0DBFB034618467B68D3F8F03083F000417B68D3F8F0301A4680
S32D0000F578FFF75EFEF861F969786B37F0C1FA03467B63F969386B37F0BBFA03463B63F969F86A37F0B5FA0346C1
S32D0000F5A0FB62786BFFF730FE0346FB60386BFFF72BFE03463B61F86AFFF726FE03467B6107F1140207F11003D4
S32D0000F5C81146184600F0D3F8024607F10C031146184600F0CCF803461B68BB617B68D3F8EC301946B86937F094
S32D0000F5F04FFD0346002B29D07B68D3F8EC30B969184637F03DFC03461946786B37F084FB03467B637B68D3F884
S32D0000F618EC30B969184637F02FFC03461946386B37F076FB03463B637B68D3F8EC30B969184637F021FC034635
S32D0000F6401946F86A37F068FB0346FB62BB6983F00043BA691946786BFFF7EEFD02467B68C3F8D820BB6983F016
S32D0000F6680043BA691946386BFFF7E2FD02467B68C3F8DC20BB6983F00043BA691946F86AFFF7D6FD02467B68A3
S32D0000F690C3F8E0207C687B68D3F8D8301549184637F03AFB03461946204600F0DDF87B6803F130047B68D3F853
S32D0000F6B8DC300E49184637F02BFB03461946204600F0CEF87B6803F160047B68D3F8E0300649184637F01CFB6E
S32D0000F6E003461946204600F0BFF800BF3C37BD4690BD00BF0000C84280B582B000AF78607B68184600F0E2F803
S32D0000F7087B683033184600F0DDF87B686033184600F0D8F800BF0837BD4680BD80B582B000AF78607B68184669
S32D0000F73000F0D9F8034618460837BD4680BD80B582B000AF78607B683033184600F0CBF8034618460837BD4696
S32D0000F75880BD80B582B000AF78607B686033184600F0BDF8034618460837BD4680BD80B582B000AF7860396032
S32D0000F7807B681A683B681B681946104637F062FC0346002B01D03B6800E07B6818460837BD4680BD80B582B0A7
S32D0000F7A800AF7860094803F066FC0421074803F06DFC0221054803F090FC786822F03CFF03461946014803F036
S32D0000F7D0B9FEEEE7C81A002080B584B000AFF8607B600B46FB721346BB72FB681C4A5A60FB684FF07E52DA60BF
S32D0000F7F8FB681033F97A7A68184600F0D1FBFB681933BA7A1146184602F032FBFB684FF49F729A62FB68114AA6
S32D0000F820DA62FB68FA7A1A70FB687A689A60FB689B6A184637F018FA0246FB685A62FB689A7EFB689A76FB6827
S32D0000F8481933184602F0D4FDFB6802221A76FB6818461037BD4680BD00001041D153FB4080B58AB000AF786020
S32D0000F87039607B681B7E022B06D17B6810333968184600F011FC1BE007F12403184605F053FA07F1240207F15F
S32D0000F8980C030B49184622F06DFF07F10C031846FFF77CFF07F10C03184622F013FC07F12403184605F03EFAFD
S32D0000F8C000BF2837BD4680BD4CA0050080B582B000AF78607B681033184600F0A3FB00BF0837BD4680BD80B558
S32D0000F8E882B000AF78607B681933184602F06EFD0346184637F0B8F9034618460837BD4680BD000080B500AFC6
S32D0000F9100F4BD3F8A03003F48053002B14BF01230023DBB2002B10D0094BD3F8A030084A23F48053C2F8A03078
S32D0000F938064805F035F8064B1B68054A23F40053136000BF80BD00BF00C00440501B0020C0F00F4080B400AF05
S32D0000F960124B4FF480725A63114B5B69104A43F4005353610E4B1B680D4A43F4005313600A4B0C4A1A630C4BC3
S32D0000F988D3F888310A4A43F08063C2F88831084B9B68074A43F08063936000BFBD4680BC704700BF00C00440C8
S32D0000F9B0C0F00F4003010A0000E100E080B400AF334B00225A70324B98221A70304B9B79DBB203F01003002B00
S32D0000F9D814BF01230023DBB2002B00D0F2E72A4B9B79DBB29B08DBB203F00303022B14BF01230023DBB2002B48
S32D0000FA0000D0F0E7224B18221A71214B00225A71204B03F580531A461F4B53641C4B54225A711B4B9B79DBB240
S32D0000FA2803F02003002B0CBF01230023DBB2002B00D0F2E7144B9B79DBB203F04003002B0CBF01230023DBB2FC
S32D0000FA50002B00D0F2E70E4B1B78DBB20C4A03F03F03DBB213700A4B9B79DBB29B08DBB203F00303032B14BF80
S32D0000FA7801230023DBB2002B00D0F0E700231846BD4680BC704700BF00400640007004400000130180B500AF52
S32D0000FAA0314B03F580539B6B2F4A43F4785302F580529363FFF752FFFFF780FF2B4B58221A602A4B1B684FF450
S32D0000FAC87A7202FB03F3284A1360274B1B681A46234B03F580535B6C1B0E03F00F030133B2FBF3F31A46214B36
S32D0000FAF01A601D4B03F58053DB6B1B4A43F0225302F58052D363184B03F580531B6B164A43F0006302F5805276
S32D0000FB181363174B4FF480721A61642002F058F8134B5B69124A23F010035361104B00221A600F4B10225A61DB
S32D0000FB400E4803F029F902F0D1FC02F02FFD0C4802F0A4F80B4804F07BFF4FF4FA6002F04FF900BF80BD00BF1A
S32D0000FB6800700440141A0020101A0020181A002000D00340C81A00200C1A0020C01B002080B500AFFCF7DBFBCE
S32D0000FB9000BF80BD80B500AFFCF7D5FB00BF80BD80B500AFFCF7CFFB00BF80BD80B500AFFCF7C9FB00BF80BD74
S32D0000FBB880B500AFFCF7C3FB00BF80BD80B500AFFCF7BDFB00BF80BD80B500AFFCF7B7FB00BF80BD80B500AF9A
S32D0000FBE0FCF7B1FB00BF80BD80B500AFFCF7ABFB00BF80BD80B500AFFCF7A5FB00BF80BD80B500AFFCF79FFBFF
S32D0000FC0800BF80BD80B500AFFCF799FB00BF80BD80B500AFFCF793FB00BF80BD80B500AFFCF78DFB00BF80BDAF
S32D0000FC3080B500AFFCF787FB00BF80BD80B500AFFCF781FB00BF80BD80B500AFFCF77BFB00BF80BD80B500AFD5
S32D0000FC58FCF775FB00BF80BD80B500AFFCF76FFB00BF80BD80B500AFFCF769FB00BF80BD80B500AFFCF763FB76
S32D0000FC8000BF80BD80B500AFFCF75DFB00BF80BD80B500AFFCF757FB00BF80BD80B500AFFCF751FB00BF80BDEB
S32D0000FCA880B500AFFCF74BFB00BF80BD80B500AFFCF745FB00BF80BD80B500AFFCF73FFB00BF80BD80B500AF11
S32D0000FCD0FCF739FB00BF80BD80B500AFFCF733FB00BF80BD80B500AFFCF72DFB00BF80BD80B500AFFCF727FBEE
S32D0000FCF800BF80BD80B500AFFCF721FB00BF80BD80B500AFFCF71BFB00BF80BD80B500AFFCF715FB00BF80BD27
S32D0000FD2080B500AFFCF70FFB00BF80BD80B500AFFCF709FB00BF80BD80B500AFFCF703FB00BF80BD80B500AF4C
S32D0000FD48FCF7FDFA00BF80BD80B500AFFCF7F7FA00BF80BD80B500AFFCF7F1FA00BF80BD80B500AFFCF7EBFA69
S32D0000FD7000BF80BD80B500AFFCF7E5FA00BF80BD80B500AFFCF7DFFA00BF80BD80B500AFFCF7D9FA00BF80BD65
S32D0000FD9880B500AFFCF7D3FA00BF80BD80B500AFFCF7CDFA00BF80BD80B500AFFCF7C7FA00BF80BD80B500AF8B
S32D0000FDC0FCF7C1FA00BF80BD80B500AFFCF7BBFA00BF80BD80B500AFFCF7B5FA00BF80BD80B500AFFCF7AFFAE1
S32D0000FDE800BF80BD80B500AFFCF7A9FA00BF80BD80B500AFFCF7A3FA00BF80BD80B500AFFCF79DFA00BF80BDA1
S32D0000FE1080B500AFFCF797FA00BF80BD80B500AFFCF791FA00BF80BD80B500AFFCF78BFA00BF80BD80B500AFC6
S32D0000FE38FCF785FA00BF80BD80B500AFFCF77FFA00BF80BD80B500AFFCF779FA00BF80BD80B500AFFCF773FA58
S32D0000FE6000BF80BD80B500AFFCF76DFA00BF80BD80B500AFFCF767FA00BF80BD80B500AFFCF761FA00BF80BDDC
S32D0000FE8880B500AFFCF75BFA00BF80BD80B500AFFCF755FA00BF80BD80B500AFFCF74FFA00BF80BD80B500AF02
S32D0000FEB0FCF749FA00BF80BD80B500AFFCF743FA00BF80BD80B500AFFCF73DFA00BF80BD80B500AFFCF737FAD0
S32D0000FED800BF80BD80B500AFFCF731FA00BF80BD80B500AFFCF72BFA00BF80BD80B500AFFCF725FA00BF80BD18
S32D0000FF0080B500AFFCF71FFA00BF80BD80B500AFFCF719FA00BF80BD80B500AFFCF713FA00BF80BD80B500AF3D
S32D0000FF28FCF70DFA00BF80BD80B500AFFCF707FA00BF80BD80B500AFFCF701FA00BF80BD80B500AFFCF7FBF948
S32D0000FF5000BF80BD80B500AFFCF7F5F900BF80BD80B500AFFCF7EFF900BF80BD80B500AFFCF7E9F900BF80BD56
S32D0000FF7880B500AFFCF7E3F900BF80BD80B500AFFCF7DDF900BF80BD80B500AFFCF7D7F900BF80BD80B500AF7C
S32D0000FFA0FCF7D1F900BF80BD80B584B000AFF8600B467A60FB72FB68FA7A1A71FB6800225A711749786837F059
S32D0000FFC863F80346002B02D0134B7B600AE04FF07E51786837F044F80346002B02D04FF07E537B60786836F0BF
S32D0000FFF0FBF909A3D3E9002336F04EFA02460B461046194636F02AFD0246FB681A60FB6818461037BD4680BDEE
S32D00010018ABAAAAAAAAAA20400000404180B582B000AF78607B685B79002B09D07B6800225A717B6819791E23AC
S32D000100400022034801F064FE00BF0837BD4680BD0C1A002080B584B000AF786039603B687F2B02DD7F23FB7388
S32D0001006808E03B6813F1800F02DA8023FB7301E03B68FB737B685B79FA7B9A4209D07B68FA7B5A717B681979F3
S32D00010090FA7B1E23034801F03BFE00BF1037BD4680BD00BF0C1A0020B0B584B000AF786039603749386836F0CC
S32D000100B8CDFF0346002B02D0334B3B6008E03349386836F0E1FF0346002B01D02F4B3B60386836F085F90446FC
S32D000100E00D467B681B68184636F07EF94FF00002294B36F0FBFA02460B462046294636F0CBF902460B46104626
S32D00010108194636F0A7FC03463B604FF00001386836F0B0FF0346002B10D0386836F060F917A3D3E9002336F0D5
S32D00010130B3F902460B461046194636F047FC0346FB6018E0386836F04FF94FF00002134B36F0A2F902460B469A
S32D00010158104619464FF000020D4B36F0C3FA02460B461046194636F02DFC0346FB60F9687868FFF76BFF00BFA6
S32D000101801037BD46B0BD00BF52B81E85EB51F43F0000C8C20000C842000059400000604080B483B000AF034692
S32D000101A80A46FB711346BB71BB79002B03D1134B00221A7002E0114B01221A703823FB710E4B1A78FB79134343
S32D000101D0FB710D4B9B78DBB20B4A43F01003DBB29370094B9B78DBB2074A43F02003DBB29370054AFB791371FF
S32D000101F800BF0C37BD4680BC704700BFE91700200060064080B483B000AF01237B607B68312B04DC00BF7B6885
S32D0001022001337B60F7E700BF0C37BD4680BC704780B582B000AF03460A46FB711346BB71134B1B7800211846BA
S32D00010248FFF7AAFF00F024F8104AFB79137100F01FF80E4ABB79137100F01AF80B4B9B78DBB20A4A23F02003F1
S32D00010270DBB29370074B9B78DBB2064A23F01003DBB29370FFF7C2FF00BF0837BD4680BDEA170020006006401B
S32D0001029880B483B000AF174B1B78002B24D100237B60154BDB78DBB203F00203002B0CBF01230023DBB2002BE1
S32D000102C00DD07B6842F21072934203DD0B4B01221A7004E07B6801337B6000BFE5E7084BDB78DBB2064A43F0CA
S32D000102E80203DBB2D37000E000BF0C37BD4680BC704700BFEB1700200060064080B582B000AF0346FB71FB7974
S32D00010310184600F05FF800BF0837BD4680BD80B582B000AF03460A46FB711346BB7100F035F8FB795B00DBB2C2
S32D000103381846FFF7E3FFBB791846FFF7DFFF00F037F800BF0837BD4680BD80B500AFFF2000F03CF803461846CF
S32D0001036080BD80B584B000AF0346FB7100F016F8FB795B005BB243F001035BB2DBB21846FFF7C0FFFFF7E5FFCC
S32D000103880346FB7300F014F8FB7B18461037BD4680BD000080B400AF044B9B68034A43F48013936000BFBD4637
S32D000103B080BC704740F00F4080B400AF044B5B68034A43F48013536000BFBD4680BC704740F00F4080B485B050
S32D000103D800AF0346FB710023BB73164BDB6A03F00043012B0CBF01230023DBB2002B03D0FB7B0133FB73F0E7AD
S32D000104000E4BDB6A0D4A43F00043D3620B4AFB7953630A4BDB6A03F40033002B0CBF01230023DBB2002B00D025
S32D00010428F3E7044B9B6BBB73BB7B18461437BD4680BC704700C00A4080B582B000AF204B03F580531B6B1E4A2F
S32D0001045043F4805302F5805213631C4B4FF480721A651B4B5B691A4A43F480135361FFF7A3FF164B4FF400725F
S32D000104785A65144B4FF400729A65124B4FF40072DA65124B124A1A60104B124ADA6000237B607B68092B06DC17
S32D000104A0FF20FFF72FFF7B6801337B60F5E704A1D1E9000101F0BAFC00BF0837BD4680BD9A9999999999B93F48
S32D000104C80070044000A0044040F00F4000C00A40000C00800500003E90B486B000AFF860B9607A60FB68534AA1
S32D000104F093420AD1524B03F580535B6B504A43F4806302F58052536345E0FB684D4A93420AD14B4B03F580539C
S32D000105185B6B494A43F4006302F58052536336E0FB68474A93420AD1434B03F580535B6B414A43F4805302F5DD
S32D000105408052536327E0FB68404A93420AD13C4B03F580535B6B3A4A43F4005302F58052536318E0FB683A4ADC
S32D0001056893420AD1344B03F580539B6A324A43F4806302F58052936209E02F4B03F580539B6A2D4A43F40063CD
S32D0001059002F580529362FB68DB78DBB223F00C03DAB2FB68DA70FB6800229A70BB684FF47A7203FB02F27B682A
S32D000105B81B0192FBF3F39CB2FB681B78DBB223F01F03FB75230A9BB2DBB203F01F03DAB2FB7D1343DAB2FB68AA
S32D000105E01A70E2B2FB685A70BB684FF4FA4203FB02F27B681B0192FBF3F39AB263019BB2D31A9CB2FB689B7AEB
S32D00010608DBB223F01F03FB75E3B203F01F03DAB2FB7D1343DAB2FB689A72FB68DB78DBB243F00C03DAB2FB681E
S32D00010630DA7000BF1837BD4690BC704700A006400070044000B0064000C0064000D0064000A00E4080B483B03C
S32D0001065800AF78607B681B79DBB203F02003002B0CBF01230023DBB2002B00D0F2E77B68DB79DBB218460C37CF
S32D00010680BD4680BC704780B483B000AF78600B46FB707B681B79DBB25BB2DB43DBB2DB09DBB2002B00D0F4E7A8
S32D000106A87B68FA78DA7100BF0C37BD4680BC704780B487B000AFF860B9607A60FB687B617B685A1E7A60002B87
S32D000106D014BF01230023DBB2002B06D07B695A1C7A61BA68D2B21A70EEE700BF1C37BD4680BC704780B584B0A8
S32D000106F800AF786039607B681B6BFB60FA683B689A4252D07B681B79002B35D07B6858787B6803F13401012362
S32D00010720FA6801F0F7F80346002B14BF01230023DBB2002B01D001233CE07B6800221A717B685A6A7B681B6A72
S32D000107481344FA689A4217D27B68DB78FB72FB7A012B11D97B681B6AFA681344FB607B6858787B6803F134019B
S32D000107700123FA6801F0CEF8FB7A013BFB72EAE73B68002B15D07B6858787B6803F1340101233A6800F0DAFF2D
S32D000107980346002B14BF01230023DBB2002B01D0012303E07B683A681A63002318461037BD4680BD80B584B0A1
S32D000107C000AF786000217868FFF794FF0346FB73FB7B002B40F093807B681B78032B7DD17B685B79002B79D041
S32D000107E87B6800221A637B6834334FF4007200211846FFF75DFF7B68552283F832227B68AA2283F833227B6805
S32D00010810522283F834207B68522283F835207B68612283F836207B68412283F837207B68722283F818227B68F1
S32D00010838722283F819227B68412283F81A227B68612283F81B227B681B69DAB27B6883F81C227B681B699BB2E9
S32D000108601B0A9BB2DAB27B6883F81D227B681B691B0CDAB27B6883F81E227B681B691B0EDAB27B6883F81F225B
S32D000108887B68DB68DAB27B6883F820227B68DB689BB21B0A9BB2DAB27B6883F821227B68DB681B0CDAB27B6821
S32D000108B083F822227B68DB681B0EDAB27B6883F823227B6858787B6803F134017B685A69012301F01FF87B6868
S32D000108D800225A717B685B7800220021184601F0E1F80346002B14BF01230023DBB2002B01D00123FB73FB7BC4
S32D0001090018461037BD4680BD80B582B000AF78600B467B807B68002B08D07B681B78002B04D07B68DB887A8806
S32D000109289A4201D0092311E07B685B78184601F03BF9034603F00103002B14BF01230023DBB2002B01D0032369
S32D0001095000E0002318460837BD4680BD80B586B000AF78607B681A687B689B8819461046FFF7CAFF0346FB750E
S32D00010978FB7D002B40F0AC807B689B7903F02003002B00F0A5807B689B7903F04003002B1BD07B681B6858788B
S32D000109A07B6803F128017B689A69012300F0B2FF0346002B14BF01230023DBB2002B01D001238AE07B689B79E1
S32D000109C823F04003DAB27B689A717B681A687B68DB6919461046FFF789FE0346FB75FB7D002B75D17B681B6A68
S32D000109F03B613B690B331A783B690B3342F02002D2B21A707B68DA683B691C33D2B21A707B68DB689BB21B0AC6
S32D00010A189AB23B691D33D2B21A707B68DB681A0C3B691E33D2B21A707B68DB681A0E3B691F33D2B21A707B68DD
S32D00010A401A693B691A33D2B21A707B681B699BB21B0A9AB23B691B33D2B21A707B681B691A0C3B691433D2B2E4
S32D00010A681A707B681B691B0C9BB21B0A9AB23B691533D2B21A700023FB603B691633FA68D2B21A70FB689BB204
S32D00010A901B0A9AB23B691733D2B21A70FB681A0C3B691833D2B21A70FB681A0E3B691933D2B21A707B689B79C4
S32D00010AB823F02003DAB27B689A717B681B6801221A717B681B681846FFF774FE0346FB75FB7D18461837BD463E
S32D00010AE080BD80B584B000AF78607868FFF736FF0346FB73FB7B002B02D17B6800221A60FB7B18461037BD46E7
S32D00010B0880BD000080B588B000AF7860396080233B610F23FB604FF0FF337B610223FB61FB69B3F5807F23D854
S32D00010B300123BB61BB69102B1AD8FB69BA6902FB03F33A6803FB02F27B68D31ABB60BB68002B09DBBB687A69D4
S32D00010B589A4205D9BB687B61FB693B61BB69FB60BB690133BB61E1E7FB695B00FB61D7E71D4BDB6A1C4A23F0FB
S32D00010B800803D3621A4BDB6A23F47F2323F47F63BB613B695B081B029AB2FB68013B1B01DBB21A43BB691343FF
S32D00010BA8114A43F46023D3620F4B5B6A03F00803002B0CBF01230023DBB2002B03D00A2001F01AF9F0E7084B97
S32D00010BD0DB6A074A43F00803D362054B1B6B044A43F48013136300BF2037BD4680BD00BF00100B4080B582B0B2
S32D00010BF800AF786039607B6800221A60414B424ADA62404BDB6A03F08073002B14BF01230023DBB2002B00D058
S32D00010C20F3E73A4B0022C3F8C020384B4FF481325A60364B28229A62344B4FF001125A643B689B683349184680
S32D00010C48FFF760FF2F4B5B6A03F00303002B14BF01230023DBB2002B00D0F3E72C4B40F243421A602A4B40F2FA
S32D00010C7043425A60284B4FF488629A60264B40F24342DA60244B40F243421A61224B40F243425A61214B03F536
S32D00010C9880531B6B1F4A43F4003302F580521363184B4FF6FF721A63164B1B4A5A63154BDB6A144A43F0006310
S32D00010CC0D362124BDB6A03F00063002B14BF01230023DBB2002B00D0F3E70C4B5B6A03F48033002B14BF012349
S32D00010CE80023DBB2002B02D07B6801221A60054B1B6B044A43F080031363002318460837BD4680BD00100B4005
S32D00010D100080000160CC050000D0044000700440B3007F0080B400AF064B5A6A40F207331340002B14BF01232F
S32D00010D380023DBB21846BD4680BC704700100B4080B485B000AF7860074B1B6B7A681340FB60FB68002B00D176
S32D00010D60F6E7FB6818461437BD4680BC704700BF00100B4080B584B000AF78607B681B7803F03F03764A52F8C6
S32D00010D882330FB60FB68002B05D17B681B78002B01D00123DCE0714B1B6B704A43F0800313636E4B5B6A03F03F
S32D00010DB00103002B14BF01230023DBB2002B00D0F3E7684A7B685B689360FB6823F44003FB607B685B789B05B0
S32D00010DD803F44003FA681343FB607B685B78022B03D1FB6843F40013FB607B685B78042B16D1FB6803F4403347
S32D00010E00B3F5003F08D1FB6823F44033FB60FB6843F44033FB6007E0FB6823F44033FB60FB6843F40033FB60FC
S32D00010E284E4B5B684D4A9BB253607B68DB68002B2AD0FB6803F44033B3F5403F03D0FB6843F40013FB607B68AB
S32D00010E501B7A002B03D0FB6843F01003FB607B68DB68012B03D9FB6843F02003FB607B68DB68B3F1FF3F0BD0B7
S32D00010E783A4B5A687B68DB681B04384913434B60FB6843F00203FB60344B00221A60334AFB68D3603248FFF7A9
S32D00010EA053FF0346012B14BF01230023DBB2002B09D02C4B1B6B2B4A43F4702343F001031363012348E0274B0A
S32D00010EC81B6B03F08003002B14BF01230023DBB2002B07D0214B1B6B204A43F001131363012335E01D4B1B6BEB
S32D00010EF003F48033002B14BF01230023DBB2002B08D0184B1B6B174A43F0011313634FF0FF3321E0FB6803F481
S32D00010F184033002B15D0114B1A697B681A61FB6803F44033B3F5803F0BD10C4B5A697B685A610A4B9A697B68E7
S32D00010F409A61084BDA697B68DA61064B1B6B054A43F001031363002318461037BD4680BDBCA0050000100B403C
S32D00010F6801000E0080B592B000AF7860396000237B643B68BB63994B7B637B6B002B02D140F601235FE3964BCE
S32D00010F903B633B6B002B02D140F60B2357E33B6B1B68FB62FB6A002B02D140F60B234EE37B6841F209329342AE
S32D00010FB800F23F837B68B3F5985F08D87B68032B00F01A837B68092B00F0098331E37B68A3F59853013B082BDA
S32D00010FE000F22B8301A252F823F000BF11100100FD12010059150100131301005113010077140100BF140100F6
S32D00011008011401001B1401007649786BFFF7EEFD78647B6C002B40F01083002387F84330002387F82B3000230A
S32D0001103087F82A30002387F82930002387F84230002387F8283000233B7200237B720023FB6000233B7400235C
S32D000110587B6107F108031846FFF788FE0346002B14BF01230023DBB2002B02D001237B64E8E240F24C4000F01D
S32D00011080BFFE08233B7200237B724FF4D573FB6000233B7400237B6107F108031846FFF769FEF863FB6B002B3B
S32D000110A809D1BA69FB689A4202D001237B64C9E2012387F84230012387F8283097F82830002B00F0A5803723CC
S32D000110D03B7200237B720023FB6000233B7400237B6107F108031846FFF744FEF863FB6B002B02D001237B648B
S32D000110F8A8E269233B7200237B720023FB6000233B7400237B6107F108031846FFF72EFE0346002B14BF0123B9
S32D000111200023DBB2002B02D001237B648EE2BB6903F44013002B6FD00023FB630A2000F05FFEFB6B0133FB63B8
S32D0001114837233B7200237B720023FB6000233B7400237B6107F108031846FFF707FE0346002B14BF0123002328
S32D00011170DBB2002B02D001237B6428E069233B7200237B7297F84230002B02D0184BFB6002E04FF44013FB60E3
S32D0001119800233B7400237B6107F108031846FFF7E5FD0346002B14BF01230023DBB2002B02D001237B6406E01D
S32D000111C0BB69002B03DBFB6B632B00D8B6E77B6C002B40F03882FB6B632B0BD9002387F8423019E00018002051
S32D000111E8041A0020B0A0050000003040012387F8433097F84230002B0AD0002387F84230BB6903F08043002BA0
S32D0001121002D0012387F8423097F82A30002B02D07B6B07221A6097F82930002B02D07B6B08221A6097F82B3000
S32D00011238002B02D07B6B04221A6097F84330002B09D07B6B02221A6097F84230002B02D07B6B03221A6097F868
S32D000112602B30002B0DD097F84330002B09D07B6B05221A6097F84230002B02D07B6B06221A60924B00221A6070
S32D00011288904B00225A608F4B00229A608D4B0022DA608C4B00221A618A4B00225A61FB6A9A68FB6A5B68194642
S32D000112B01046FFF72BFC854B40F243421A60834B40F243425A60814B4FF488629A607F4B40F24342DA607D4BE6
S32D000112D840F243421A617B4B40F243425A617A4B03F580531B6B784A43F4003302F580521363A7E1B86BFFF75B
S32D0001130039FDF863FB6B002B00F09F8102237B649BE1BB6B002B02D10C237B6496E16D4BDB6A1B0A5B0003F4EF
S32D00011328FF73FB63694BDB6A1B0903F00F035A1CFB6B02FB03F3FB63FB6A9A68FB6BB2FBF3F2BB6B1A607DE11A
S32D00011350BB6B002B02D10C237B6477E1BB6B1B68002B02D10C237B6470E1FFF7DBFC0346002B0CBF012300238B
S32D00011378DBB2002B3CD0534B00221A60514B00225A60504B00229A604E4B0022DA604D4B00221A614B4B002237
S32D000113A05A61FB6A9A68BB6B1B6819461046FFF7ADFB464B40F243421A60444B40F243425A60424B4FF4886284
S32D000113C89A60404B40F24342DA603E4B40F243421A613C4B40F243425A613B4B03F580531B6B394A43F4003308
S32D000113F002F58052136329E140F60A237B6425E1BB6B002B02D10C237B641FE1314B5B68C3F30C02BB6B1A6068
S32D0001141818E1BB6B002B02D10C237B6412E1FFF77DFC0346002B0CBF01230023DBB2002B19D0BB6B1B68B3F5A0
S32D00011440805F02D30C237B6400E1224B5B68214A23F4FF5323F01F0353601E4B5A68BB6B1B68C3F30C031B49F1
S32D0001146813434B60EEE040F60A237B64EAE0BB6B002B02D10C237B64E4E0144B9B6A5B0803F00303FB63FB6B00
S32D00011490002B03D1BB6B00221A60D7E0FB6B012B03D1BB6B01221A60D0E0FB6B102B03D1BB6B02221A60C9E0FA
S32D000114B805237B64C6E0BB6B002B09D10C237B64C0E000BF00D004400070044000100B40FFF724FC0346002B13
S32D000114E00CBF01230023DBB2002B31D0BB6B1B68002B0AD1584B9B6A574A23F006039362554B554A9B6A9362D0
S32D00011508A0E0BB6B1B68012B0CD1514B9B6A504A23F0060393624E4B9B6A4D4A43F0020393628FE0BB6B1B68BC
S32D00011530022B0AD1484B9B6A474A23F006039362454B454A9B6A936280E005237B647DE040F60A237B6479E0D2
S32D00011558BB6B002B02D10C237B6473E03C4BDB6A3B4A43F00063D362394BDB6A03F00063002B14BF012300235F
S32D00011580DBB2002B00D0F3E7334B1B6B03F08003002B14BF01230023DBB2002B08D02E4B1B6B2D4A43F080035F
S32D000115A813637B6B00221A60294B5B6A03F48033002B14BF01230023DBB2002B07D07B6B1B68002B06D17B6B14
S32D000115D001221A6002E07B6B00221A607B6B1A68BB6B1A6032E0BB6B1C221A60BB6B043304221A60BB6B083395
S32D000115F84FF41E721A6025E00220FFF7A1FB144B1B6B03F4E003002B14BF01230023DBB2002B07D00E4B1B6B4C
S32D000116200D4A43F4E003136304237B640A4B1B6B094A43F03203136308E040F609237B6404E000BF02E000BF35
S32D0001164800E000BF7B6C18464837BD4680BD00BF00100B4080B489B000AF786039607B687B61364B3B613B69A9
S32D00011670002B01D100235FE03B691B68022B0BD03B691B68032B07D03B691B68072B03D03B691B68082B0BD12F
S32D000116982B4B5B6A03F00403002B14BF01230023DBB2002B00D0F3E73B68FB61FB69002B3DD0FB69B3F5007F21
S32D000116C028BF4FF40073FB60FB6803339B08BB61BB69002B2AD01C4B1B6B03F4E003002B14BF01230023DBB2C9
S32D000116E8002B09D0164B1B6B154A43F4E00343F02003136300231BE0114B5B6A03F40063002B0CBF01230023CD
S32D00011710DBB2002B00D0F3E70B497B691A1D7A610A6A1A60BB69013BBB61D1E7FA69FB68D31AFB61BEE7012304
S32D0001173818462437BD4680BC704700BF0018002000100B4080B58EB000AFB9607A601A460346FB731346BB73CE
S32D00011760414B7B63FB7B002B02D1BB7B002B01D1042375E03D4B1B78DBB203F00103002B14BF01230023DBB25C
S32D00011788002B01D0032367E0BB68002B01D1002362E07B6B1B7B002B02D17B685B027B60BB7B012B28D1112320
S32D000117B03B7500237B757B68BB6101233B77BB7B3B6207F11403194641F20230FFF7CEFB0346002B0CBF0123AA
S32D000117D80023DBB2002B38D04FF40071B868FFF739FF0346002B14BF01230023DBB2002B2BD00023BB7328E063
S32D0001180012233B7500237B757B68BB6101233B77BB7B3B6207F11403194641F20230FFF7A5FB0346002B0CBF71
S32D0001182801230023DBB2002B0FD0BB7B5B021946B868FFF70FFF0346002B14BF01230023DBB2002B01D0002363
S32D00011850BB73BB7B002B01D0012300E0002300BF18463837BD4680BDEC1700200400002080B487B000AF7860DD
S32D0001187839607B68FB603B687B617B69002B3DD07B69B3F5007F28BF4FF400733B617A693B69D31A7B613B6997
S32D000118A003339B083B613B69002BEAD0184B1B6B03F4E003002B14BF01230023DBB2002B0AD0134B1B6B124A41
S32D000118C843F4E00343F0100313634FF0FF3316E00D4B5B6A03F48063002B0CBF01230023DBB2002B00D0F3E71E
S32D000118F0FB681A1DFA60064A1B6813623B69013B3B61D0E7012318461C37BD4680BC704700100B4080B58EB0C1
S32D0001191800AFB9607A601A460346FB731346BB735D4B7B63FB7B002B02D1BB7B002B01D10423ADE0594B1B7848
S32D00011940DBB203F00103002B14BF01230023DBB2002B01D003239FE0524B1B78DBB203F00403002B14BF0123A8
S32D000119680023DBB2002B01D0022391E0BB68002B01D100238CE07B6B1B7B002B02D17B685B027B60BB7B012B68
S32D0001199028D118233B7500237B757B68BB6100233B77BB7B3B6207F11403194641F20230FFF7DCFA0346002B77
S32D000119B80CBF01230023DBB2002B38D04FF40071B868FFF751FF0346002B14BF01230023DBB2002B2BD00023B0
S32D000119E0BB7328E019233B7500237B757B68BB6100233B77BB7B3B6207F11403194641F20230FFF7B3FA03463D
S32D00011A08002B0CBF01230023DBB2002B0FD0BB7B5B021946B868FFF727FF0346002B14BF01230023DBB2002B67
S32D00011A3001D00023BB730D233B7500237B757B6B1B69BB6100233B7700233B6207F11403194641F20230FFF78E
S32D00011A5889FA0346002B14BF01230023DBB2002B01D0012314E07A6A0D4B1340002B01D001230DE07B6A03F435
S32D00011A80F853B3F5106F00D0D5E7BB7B002B01D0012300E0002300BF18463837BD4680BDEC17002004000020CD
S32D00011AA80880D9FF80B58CB000AF03463A60FB710B46BB713A4BBB62FB79002B01D0042369E0012387F82F303F
S32D00011AD0364B1B78DBB203F00103002B14BF01230023DBB2002B01D0032358E0BB79032B50D801A252F823F099
S32D00011AF8091B0100111B0100211B0100311B0100002387F82F3044E0BB6A9A683B681A60002387F82F303CE05D
S32D00011B203B684FF400721A80002387F82F3034E009233B7200237B72BB6A1B69FB6000233B7400237B6107F1D9
S32D00011B480803194641F20230FFF70CFA0346002B14BF01230023DBB2002B01D001231AE07B6A03F44003002B24
S32D00011B700CD13B6A9B0C03F07F035A1C7B6A1B0A03F00303013B9A403B681A60002387F82F3002E0042387F873
S32D00011B982F3097F82F3018463037BD4680BD00BFEC1700200400002080B483B000AF0346FB71FB79002B01D08B
S32D00011BC0012302E0034B1B78DBB218460C37BD4680BC70470400002080B483B000AF7860164B03F580539B6BA7
S32D00011BE8144A43F0010302F580529363124A7B689360114B05225A600F4B1B680E4A43F0010313600C4B1B6852
S32D00011C1003F08003002B0CBF01230023DBB2002B00D0F3E7064B1B68054A23F00103136000BF0C37BD4680BCA2
S32D00011C38704700BF007004400000044080B582B000AF786039607B68012B07D13B684FF6FF72934202D1034855
S32D00011C6000F00EF800BF0837BD4680BD0C1A002080B500AF4FF6FF710120FFF7E3FF80BD80B483B000AF78601E
S32D00011C887B6800221A707B6818460C37BD4680BC7047000080B582B000AF78607B681B7883F00103DBB2002B91
S32D00011CB021D0134B03F580531A464FF400639362104B4FF440721A620E4B4FF440725A620D4B1B68DA0F1344FF
S32D00011CD85B104FF4614219460A48FEF7FDFB642000F08AF87B6801221A70012300E0002318460837BD4680BD64
S32D00011D000070044000D00440101A002000B00E4080B582B000AF7860084611461A460346FB700B46BB70134628
S32D00011D287B707F210E48FEF7AAFC08210C48FEF7A6FCFB7819460A48FEF7A1FCBB7819460748FEF79CFC7B78E5
S32D00011D5019460548FEF797FCFF210348FEF793FC00BF0837BD4680BD00B00E4080B487B000AFF860B9607A60A0
S32D00011D78FB681F4AA2FB03239B09BA6813447B61FB681B4AA2FB031292094FF47A7101FB02F29B1AFB60FB680E
S32D00011DA0DB03154AA2FB03239B097A6813443B613B69DB0B7A6913447B613B69C3F30E033B610E4B1B687A6935
S32D00011DC89A4209D80B4B1B687A699A4206D1094B5B683A699A4201D9012300E00023002B00D0EAE700BF1C374B
S32D00011DF0BD4680BC704700BFD34D621000D0034080B584B000AF7860074B1B68FB60064B5B68BB607B68BA6816
S32D00011E18F9681846FFF7A6FF00BF1037BD4680BD00D0034080B584B000AFC7E900010E4B1B68FB600C4B5B68CE
S32D00011E40BB604FF000020B4BD7E9000134F024FB02460B461046194634F0E0FD0346BA68F9681846FFF782FFCD
S32D00011E6800BF1037BD4680BD00D0034000408F4080B584B000AF78600B46FB700B23FB73FA7BFB781946786874
S32D00011E9000F094F87B6818461037BD4680BD000080B485B000AF78607B68103B002B00DA1F335B11FB60FB6840
S32D00011EB8022B53D0FB68022B75DCFB68002B03D0FB68012B25D06EE0394BD3F880217B68103B594203F01F03C9
S32D00011EE001F01F0158BF4B42012101FA03F332491343C1F88031304B1A687B68103B594203F01F0301F01F01E4
S32D00011F0858BF4B42012101FA03F3294913430B6049E0274BD3F884217B68103B594203F01F0301F01F0158BFAF
S32D00011F304B42012101FA03F31F491343C1F884311D4B5A687B68103B594203F01F0301F01F0158BF4B420121D7
S32D00011F5801FA03F3164913434B6024E0144BD3F888217B68103B594203F01F0301F01F0158BF4B42012101FA82
S32D00011F8003F30D491343C1F888310B4B9A687B68103B594203F01F0301F01F0158BF4B42012101FA03F30449D3
S32D00011FA813438B6000BF00BF1437BD4680BC704700E100E080B584B000AF78600B46FB701346BB707B68FA78C4
S32D00011FD01A70BB78FB737B681B781A46574B9B5C042B00F2A68001A252F823F0012001004D20010099200100B7
S32D00011FF831210100E5200100FB7B1B0403F470234D497A68127810464C4A52F8202043F4897343F0010341F827
S32D000120202230494B5A697B681B781946454B53F8213003F01F03012101FA03F3DB43424913404B616720FFF79A
S32D000120482BFF72E0FB7B1B0403F470233D497A6812781046394A52F8202043F4897343F0010341F82230384B01
S32D000120705A697B681B781946324B53F8213003F01F03012101FA03F3DB43314913404B616820FFF705FF4CE023
S32D00012098FB7B1B0403F470232C497A6812781046264A52F8202043F4897343F0010341F82230274B5A697B68BC
S32D000120C01B7819461F4B53F8213003F01F03012101FA03F3DB43204913404B616920FFF7DFFE26E0FB7B1B0454
S32D000120E803F470231B497A6812781046134A52F8202043F4897343F0010341F82230164B5A697B681B78194644
S32D000121100C4B53F8213003F01F03012101FA03F3DB430F4913404B616B20FFF7B9FE00E000BF00BF1037BD4630
S32D0001213880BD00BFBCA105000090044000A2050000F00F4000A0044040F00F4000B0044080F00F4000D0044036
S32D0001216000F10F40B0B48BB000AF224B3C1D1D460FCD0FC495E80F0084E80F0000237B627B6A072B30DC1C4B59
S32D00012188D3F8A0207B6A9B0028333B4453F8243C012101FA03F31340002B14BF01230023DBB2002B18D0134AF0
S32D000121B07B6A52F823305A1C10497B6A41F823200D4BD3F8A0207B6A9B0028333B4453F8243C012101FA03F353
S32D000121D807491340C1F8A0307B6A01337B62CBE700BF2C37BD46B0BC704700BF04A3050000A004403C1A0020F7
S32D00012200B0B489B000AF224B3C1D1D460FCD0FC495E8030084E803000023FB61FB69052B30DC1C4BD3F8A0208B
S32D00012228FB699B0020333B4453F81C3C012101FA03F31340002B14BF01230023DBB2002B18D0FB690833124ACD
S32D0001225052F823200132104941F823200D4BD3F8A020FB699B0020333B4453F81C3C012101FA03F307491340BD
S32D00012278C1F8A030FB690133FB61CBE700BF2437BD46B0BC704700BF24A3050000B004403C1A0020B0B48DB032
S32D000122A000AF234B3C461D460FCD0FC40FCD0FC495E8070084E807000023FB62FB6A0A2B30DC1C4BD3F8A020A0
S32D000122C8FB6A9B0030333B4453F8303C012101FA03F31340002B14BF01230023DBB2002B18D0FB6A0E33124A01
S32D000122F052F823200132104941F823200D4BD3F8A020FB6A9B0030333B4453F8303C012101FA03F307491340F8
S32D00012318C1F8A030FB6A0133FB62CBE700BF3437BD46B0BC704700BF3CA30500009004403C1A0020B0B487B08D
S32D0001234000AF214B3C461D460FCD0FC42B68236000237B617B69042B30DC1C4BD3F8A0207B699B0018333B4450
S32D0001236853F8183C012101FA03F31340002B14BF01230023DBB2002B18D07B691933124A52F8232001321049B7
S32D0001239041F823200D4BD3F8A0207B699B0018333B4453F8183C012101FA03F307491340C1F8A0307B69013380
S32D000123B87B61CBE700BF1C37BD46B0BC704700BF68A3050000D004403C1A002080B483B000AF78607B681B7873
S32D000123E01A46044B53F8223018460C37BD4680BC704700BF3C1A002080B483B000AF78607B681B781946044BA4
S32D00012408002243F8212000BF0C37BD4680BC70473C1A002080B483B000AF78600B46FB707B68FA781A707B682D
S32D0001243018460C37BD4680BC7047000080B586B000AF78607B681B781A46234B53F822303B617B681B781A46A1
S32D00012458204B9B5CFB733B69DBB203F01F03DAB21D4B1A723B69DBB203F01F03DAB21A4B5A72FB7B002B13D137
S32D000124801749184800F0CEF9164B1B6803F08003802B14BF01230023DBB2002B00D0F3E7104B1B697B6112E088
S32D000124A80D490F4800F0BAF90D4B1B6803F08003802B14BF01230023DBB2002B00D0F3E7074B1B697B617B69A7
S32D000124D018461837BD4680BD80A20500DCA105002C1A002000B0034000B00B4098B500AF204B5C221A701F4B1A
S32D000124F810225A701D4B41F234225A801B4B45F278629A80194B10229A71184B0722DA71164B4FF4C022DA6025
S32D00012520144B1F221A72134B1F225A721149124800F078F90F49114800F074F90F4800F0D2F80D4800F0CFF8B5
S32D000125480A490C4800F06AF90849094800F066F9094A064B14460FCB84E80F00064B5C221A70054B0422DA710C
S32D0001257000BF98BD1C1A002000B0034000B00B402C1A002080B500AF064B1B680133054A136000F03DF8044B5C
S32D000125980122C3F80C2100BF80BD00BFC01A00200070034080B500AF0C4B01221A600C4800F01AF8094B0322FA
S32D000125C0C3F80821094BD3F88831084A43F01003C2F88831054B9B68044A43F01003936000BF80BD007003409C
S32D000125E8A086010000E100E080B483B000AF7860044A7B68C2F8003100BF0C37BD4680BC704700BF0070034068
S32D0001261080B584B000AF174B1B68FB60FB68002B24D0FB685B78FB71FB689B68184600F023F80346BB71BB79A7
S32D00012638002B13D0FB685B68012B0FDDFB689B681B69BB60BB68002B08D0BB685B685A1CBB685A60BB681B691C
S32D00012660BB60F3E7FB68DB68FB60D7E700BF1037BD4680BDBC1A002080B584B000AF78607868FFF7DBFEF86064
S32D000126887B689B695B78FB72FB7A002B0FD17B68DB68FA689A420ADD7B689B6901225A707B685B685A1C7B685E
S32D000126B05A60012313E0FB7A012B0FD17B689B68FA689A420ADA7B689B6900225A707B685B685A1C7B685A6015
S32D000126D8012300E0002318461037BD4680BD80B485B000AF78607B681B6A23F040027B681A627B685B6A23F000
S32D000127000B027B685A627B685B6A43F007027B685A627B685B6A43F080027B685A627B681B6803F08003002B78
S32D000127280CBF01230023DBB2002B00D0F3E77B685B6A03F04003402B0CBF01230023DBB2002B01D0012364E0C2
S32D000127500023FB817B68DB6CFB817B689B6C9AB2FB891344FB817B685B6C9AB2FB891344FB817B681B6C9AB285
S32D00012778FB891344FB817B68DB6B9AB2FB891344FB817B689B6B9AB2FB891344FB81FB895B08FB81FB896FEA43
S32D000127A043436FEA5343FB81FA897B68DA620023FB817B68DB6EFB817B689B6E9AB2FB891344FB817B685B6EF5
S32D000127C89AB2FB891344FB817B681B6E9AB2FB891344FB817B68DB6D9AB2FB891344FB817B689B6D9AB2FB89A7
S32D000127F01344FB81FB895B08FB81FB896FEA43436FEA5343FB81FA897B681A637B685B6A23F080027B685A62F7
S32D00012818002318461437BD4680BC704780B483B000AF786039603B681B781A467B689A603B685B781A467B681C
S32D00012840DA603B685B881A467B689A613B689B881A467B68DA613B689B791A467B681A623B68DB791A467B6877
S32D000128685A623B68DA687B681A653B681B7A1A467B681A603B685B7A1A467B685A6000BF0C37BD4680BC7047DC
S32D0001289080B483B000AF78607B6818460C37BD4680BC704780B582B000AF786039607B68012B07D13B684FF65B
S32D000128B8FF72934202D10348FFF7E6FF00BF0837BD4680BDC41A002080B500AF4FF6FF710120FFF7E3FF80BDA7
S32D000128E080B582B000AF7860786832F079FC034618460837BD4680BD80B582B000AF7860786832F09FFC03466A
S32D0001290818460837BD4680BD80B483B000AF78600C2318460C37BD4680BC704780B483B000AF7860112318468F
S32D000129300C37BD4680BC704780B582B000AF7860B84B4FF48072DA60B74B4FF480729A64B54B4FF480721A64F7
