S01100002E2E2F50726F746575732E73313966
S32D0000C000000000205DC2000011C3000017C300001DC3000023C3000029C3000000000000000000000000000073
S32D0000C028000000002FC3000035C30000000000003BC3000041C300001D1D0100291D0100351D0100411D0100CA
S32D0000C0504D1D0100591D0100651D0100711D01007D1D0100891D0100951D0100A11D0100AD1D0100B91D010078
S32D0000C078C51D0100D11D0100DD1D0100E91D0100F51D0100011E01000D1E0100191E0100251E0100311E01009B
S32D0000C0A03D1E0100491E0100551E0100611E01006D1E0100791E0100851E0100911E01009D1E0100A91E0100BE
S32D0000C0C8B51E0100C11E0100CD1E0100D91E0100E51E0100F11E0100FD1E0100091F0100151F0100211F0100E3
S32D0000C0F02D1F01004D6E0100391F0100451F0100511F01005D1F0100691F0100751F0100811F01008D1F010001
S32D0000C118991F0100A51F0100B11F0100BD1F0100C91F0100D51F0100E11F0100ED1F0100F91F010005200100A2
S32D0000C140112001001D2001002920010035200100394B0100412001004D200100592001006520010071200100DA
S32D0000C1687D2001008920010095200100A1200100AD200100B9200100C5200100D1200100DD200100E920010061
S32D0000C190F5200100012101000D2101002D470100F545010091460100A11A0100CD47010019210100252101003E
S32D0000C1B8312101009882060000000020C8170000988206000000FF1F00000000C8170020D81A00000000FF1F9A
S32D0000C1E00000000080B489B000AFF860B9607A60BB68FB61FB68BB6100237B617A697B689A420BD2BA69131DFB
S32D0000C208BB61FB69191DF96112681A607B6904337B61EFE700BF2437BD4680BC704780B485B000AF786039609E
S32D0000C2307B68FB600023BB60BA683B689A4208D2FB681A1DFA6000221A60BB680433BB60F2E700BF1437BD46FE
S32D0000C25880BC704780B586B000AF72B6234B4CF220521A80214B4DF628121A80204B4FF4E9721A801F4B7B615F
S32D0000C2807B691F4A934214D27B691A1D7A611B683B617B691A1D7A611B68FB607B691A1D7A611B68BB60BA68E9
S32D0000C2A8F9683869FFF79AFFE6E77B69134A93420ED27B691A1D7A611B68FB607B691A1D7A611B68BB60B9688B
S32D0000C2D0F868FFF7A8FFECE70B4B7B600B4A7B681A6040F007FF62B605F0A2FC00F044F9FEE700BF0E20054068
S32D0000C2F800200540BCC10000D4C10000E4C1000008ED00E000C0000080B400AFFEE780B400AFFEE780B400AFF4
S32D0000C320FEE780B400AFFEE780B400AFFEE780B400AFFEE780B400AFFEE780B400AFFEE780B400AFFEE780B426
S32D0000C34800AFFEE7FFFFFFFFFFFFFFFFFFFFFFFFFFFFFFFFFFFFFFFFFFFFFFFFFFFFFFFFFFFFFFFFFFFFFFFF57
S32D0000C370FFFFFFFFFFFFFFFFFFFFFFFFFFFFFFFFFFFFFFFFFFFFFFFFFFFFFFFFFFFFFFFFFFFFFFFFFFFFFFFFC7
S32D0000C398FFFFFFFFFFFFFFFFFFFFFFFFFFFFFFFFFFFFFFFFFFFFFFFFFFFFFFFFFFFFFFFFFFFFFFFFFFFFFFFF9F
S32D0000C3C0FFFFFFFFFFFFFFFFFFFFFFFFFFFFFFFFFFFFFFFFFFFFFFFFFFFFFFFFFFFFFFFFFFFFFFFFFFFFFFFF77
S32D0000C3E8FFFFFFFFFFFFFFFFFFFFFFFFFFFFFFFFFFFFFFFFFFFFFFFFFFFFFFFFFFFFFFFFFFFFFFFFFEFFFFFF50
S32D0000C44010B5054C237833B9044B13B10448AFF300800123237010BDC817002000000000186F060008B5034B95
S32D0000C4681BB103490348AFF3008008BD00000000CC170020186F06002DE9B0438AB000AFF860B9607A603B60F4
S32D0000C490FA687B68D31A18463DF030FD02460B46C7E90823BA683B68D31A18463DF026FD02460B46C7E906234E
S32D0000C4B8D7E90823D7E908013DF086FD02460B4614461D463B6C03FB03F318463DF012FD02460B4620462946F9
S32D0000C4E03DF0A0FE02460B4614461D46D7E90623D7E906013DF06CFD02460B46904699467B6C03FB03F3184640
S32D0000C5083DF0F8FC02460B46404649463DF086FE02460B46204629463DF0A0FB02460B46C7E9042301231C4659
S32D0000C5304FF00002074BD7E904013DF0C5FF0346002B01D100231C46E3B218462837BD46BDE8B0830000F03F6D
S32D0000C55880B582B000AF78607B685C33184628F07DF97B6818460837BD4680BD00000000F0B5ADF6F41D04AF9D
S32D0000C58007F51E63A3F518734FF000021A6007F51E63A3F518734FF000025A6007F51E63A3F518734FF00002B6
S32D0000C5A89A60DD4BC7F8C839002387F8C739012387F8C639032387F8C539002387F8C439022387F8C339042336
S32D0000C5D087F8C23997F8C64997F8C42997F8C71907F5A460D7F8C839039397F8C239029397F8C539019397F805
S32D0000C5F8C3390093234604F03DFA022387F8C13997F8C11907F5A363C44A184605F094FD07F214530821184610
S32D0000C62008F044F907F5A2631521184608F03EF907F20C531621184608F038F907F5A1631721184608F032F924
S32D0000C648152387F8C039152387F8BF39152387F8BE3997F8BE3997F8BF2997F8C01907F2D44002F0A9FB07F5B3
S32D0000C6709A630F21184607F0E7FC07F2C4430721184608F007FC07F2C44340F23A31184608F01CFC07F2C443AB
S32D0000C69840F68601184608F032FC07F59363184603F036FA07F51E63A3F5147307F5A4621146184601F000FB81
S32D0000C6C007F5F26207F28C731146184601F045FB07F28C7207F593631146184603F040FA07F28C73184601F00C
S32D0000C6E854FB07F5F263184601F000FB002387F8DF398B4BC7F8D8394FF00003C7F8D4394FF00003C7F8D039C2
S32D0000C71007F59263083B18460CF0B4FE07F2AC7318460AF08BFE07F2AC7207F294737F49184628F025FC07F253
S32D0000C738947207F214408B230093FF23002101F021FE07F29473184628F088F807F2AC7318460AF071FE07F21E
S32D0000C76014431E21184602F025F907F5F96318460AF064FE07F5F96207F5F6636C49184628F0FEFB07F5F66271
S32D0000C78807F568708B230093FF23232101F0FAFD07F5F663184628F061F807F5F96318460AF04AFE07F568732D
S32D0000C7B01E21184602F0FEF807F2E47318460AF03DFE07F2E47207F2CC735A49184628F0D7FB07F2CC7207F54E
S32D0000C7D84B708B230093FF23462101F0D3FD07F2CC73184628F03AF807F2E47318460AF023FE07F54B731E214B
S32D0000C800184602F0D7F807F5006318460AF016FE07F5006207F5FD634749184628F0B0FB07F5FD6207F52E70C0
S32D0000C8288B230093FF23692101F0ACFD07F5FD63184628F013F807F5006318460AF0FCFD07F52E731E21184694
S32D0000C85002F0B0F80123C7F8B83907F5A463184604F05EFE354808F09EFF344809F070FB002387F8CF39324B82
S32D0000C8781B78002B62D197F8CF39002B5ED107F56873184601F01CFF07F21443184601F017FF07F54B731846A2
S32D0000C8A001F012FF07F52E73184601F00DFF07F56873184602F069F80346002B05D0204B02221A70012387F8E3
S32D0000C8C8CF3907F21443184602F05BF80346002B05D0194B01221A70012387F8CF3907F54B73184602F04DF8F3
S32D0000C8F00346002B05D0124B03221A70012387F8CF3907F52E73184602F03FF80346002BB1D00B4B04221A70FB
S32D0000C918012387F8CF39AAE70000C040000090409A99193F44DA05004CDA050058DA050064DA0500C81A002090
S32D0000C940E517002007F51E63A3F51873196807F51E63A3F518735A6807F51E63A3F518739B6807F5A46004F093
S32D0000C968E1F9324808F01BFF304809F0EDFA002387F8CE3997F8CE39002B41F08A8107F5A463184604F0B1FD3A
S32D0000C990294B1B78012B55D107F03AFB034618463DF0FEFE0346C7F86C3907F5A4630121184604F021FDD223ED
S32D0000C9B8002220491D4808F04BFFE1230022D7F86C191A4808F07CFFB42300221A49174808F03EFF07F51E6363
S32D0000C9E0A3F5EE7307F593621146184603F042F907F60401C32300220E4808F050FF07F60403184627F02EFF0F
S32D0000CA0807F59363184603F0BBF807F59363184603F03BF90346002BACD0012387F8CE3907F5A463184604F0A4
S32D0000CA30C5FAA3E7C81A0020E517002074DA050084DA0500E04B1B78032B40F0C983DF4BC7F8843907F6340379
S32D0000CA5818460AF0EFFC07F6340207F61C03DA49184628F089FA07F61C0338464FF4C84201924FF47F02009232
S32D0000CA804FF00002D34901F037FD07F61C03184627F0E8FE07F6340318460AF0D1FC3B461E21184601F086FFA2
S32D0000CAA83B46184601F00CFE07F5056318460AF0C1FC07F5056207F63803C549184628F05BFA07F6380307F169
S32D0000CAD074004FF4C84201924FF400420092BF4ABC4901F009FD07F63803184627F0BAFE07F5056318460AF0A7
S32D0000CAF8A3FC07F174031E21184601F057FF07F17403184601F0DCFD07F66C0318460AF091FC07F66C0207F6CE
S32D0000CB205403AF49184628F02BFA07F6540307F1E8004FF4C84201924FF6FF720092A94AA44901F0D9FC07F6FE
S32D0000CB485403184627F08AFE07F66C0318460AF073FC07F1E8031E21184601F027FF07F1E803184601F0ACFDC6
S32D0000CB709849D7F884093DF063FD03461C4607F6880318460AF05AFC07F6880207F507639549184628F0F4F9BE
S32D0000CB9807F5076307F5AE704FF40B0201924FF47F0200924FF00002214601F0A1FC07F50763184627F052FE55
S32D0000CBC007F6880318460AF03BFC07F5AE731E21184601F0EFFE07F5AE73184601F074FD7C49D7F884093DF06D
S32D0000CBE82BFD03461C4607F6A40318460AF022FC07F6A40207F68C037A49184628F0BCF907F68C0307F5E87035
S32D0000CC104FF40B0201924FF4004200926F4A214601F06AFC07F68C03184627F01BFE07F6A40318460AF004FC6F
S32D0000CC3807F5E8731E21184601F0B8FE07F5E873184601F03DFD6149D7F884093DF0F4FC03461C4607F50C631A
S32D0000CC6018460AF0EBFB07F50C6207F6A8036049184628F085F907F6A80307F511704FF40B0201924FF6FF72FB
S32D0000CC880092564A214601F033FC07F6A803184627F0E4FD07F50C6318460AF0CDFB07F511731E21184601F02E
S32D0000CCB081FE07F51173184601F006FD3B46184601F063FE0346002B11D0D7F8D8093DF027F939A3D3E90023C7
S32D0000CCD83CF0C4FF02460B46104619463DF056FC0346C7F8D83907F5AE73184601F049FE0346002B11D0D7F882
S32D0000CD00D8093DF00DF92CA3D3E900233CF0A8FF02460B46104619463DF03CFC0346C7F8D83907F174031846D7
S32D0000CD2801F02FFE0346002B11D0D7F8D4093DF0F3F821A3D3E900233CF090FF02460B46104619463DF022FCAF
S32D0000CD500346C7F8D43907F5E873184601F015FE0346002B11D0D7F8D4093DF0D9F814A3D3E900233CF074FFB3
S32D0000CD7802460B46104619463DF008FC0346C7F8D43907F1E803184601F0FBFD0346002B33D0D7F8D0093DF083
S32D0000CDA0BFF807A3D3E900233CF05CFF02460B4620E000BFAFF300809A9999999999B93FFCA9F1D24D62503FEF
S32D0000CDC8E517002000005C4398DA050000007041A0DA050000000C42A8DA050000008C42B0DA0500B8DA050012
S32D0000CDF0C0DA0500104619463DF0CCFB0346C7F8D03907F51173184601F0BFFD0346002B11D0D7F8D0093DF007
S32D0000CE1883F8CDA3D3E900233CF01EFF02460B46104619463DF0B2FB0346C7F8D03907F5A460D7F8D039009335
S32D0000CE40D7F8D439D7F8D829012104F021FB07F5A460D7F8D0390093D7F8D439D7F8D829022104F015FB07F5AC
S32D0000CE68A460D7F8D0390093D7F8D439D7F8D829032104F009FBB4236422B549B54808F0E7FCB4237822D7F8F2
S32D0000CE90D819B24808F018FDC8236422B049AF4808F0DAFCC8237822D7F8D419AB4808F00BFDDC236422AB49A0
S32D0000CEB8A84808F0CDFCDC237822D7F8D019A54808F0FEFC64230022A549A24808F0C0FC07F5A463184604F0E1
S32D0000CEE036FB0146642328229C4808F0EDFC782300229E49994808F0AFFC07F5A463184604F0A6F80146782319
S32D0000CF082822944808F0DCFC8C2300229649914808F09EFC07F5A463184604F021FB01468C2328228B4808F06E
S32D0000CF30CBFC904BC7F880398F4BC7F87C39D7F87C093DF061FE04468C49D7F880093DF077FB034618463DF0A1
S32D0000CF5857FE0346224688497E4808F079FC07F51E63A3F518731C68D7F87C093DF048FE05468249D7F8800948
S32D0000CF803DF05EFB034618463DF03EFE03462A462146724808F098FCD7F87C093DF034FE04467949D7F8800970
S32D0000CFA83DF04AFB034618463DF02AFE034622467449684808F04CFC07F51E63A3F518735C68D7F87C093DF0AA
S32D0000CFD01BFE05466E49D7F880093DF031FB034618463DF011FE03462A4621465B4808F06BFC684BC7F878393F
S32D0000CFF8634BC7F8743907F5A4630121184604F0F7F93223C7F87039FF21524808F00DFCD7F870093DF0C0FBE2
S32D0000D0200446D7F870093DF0BBFB034600932346D7F87429D7F87819484809F037FA07F5926207F29443194683
S32D0000D048444808F0F9FC0346002B00F0A18007F51E63A3F24C531B6818463DF0D1FD044607F51E63A3F5AA63C3
S32D0000D0701B6818463DF0C8FD0546D7F878093DF0C3FD0646D7F874093DF0BEFD0146D7F87039D7F870290192FD
S32D0000D09800930B46324629462046FFF7EDF90346002B7AD007F51E63A3F24C531B68D7F8781918463DF0BEFAC8
S32D0000D0C003461C46D7F870093DF06AFB0346194620463DF071FC034683F0004207F51E63A3F518731A6007F501
S32D0000D0E81E63A3F5AA631B68D7F8741918463DF0A1FA03461C46D7F870093DF04DFB0346194620463DF054FCFC
S32D0000D11003461A4607F51E63A3F518735A6007F51E63A3F51873196807F51E63A3F518735A6807F51E63A3F556
S32D0000D13818739B6807F5A46003F0F4FD07F5A463184603F007FE28E0FCA9F1D24D62503FC8DA0500C81A0020A7
S32D0000D160CCDA0500D0DA0500D4DA0500DCDA0500E4DA050000001643000034430000B442ECDA05000000D24271
S32D0000D1880000F042F8DA0500000007430000204307F5A463184603F00DFF07F511731846FFF7D6F907F5E87369
S32D0000D1B01846FFF7D1F907F5AE731846FFF7CCF907F1E8031846FFF7C7F907F174031846FFF7C2F93B461846A9
S32D0000D1D8FFF7BEF9FFF7CEBBC84B1B78042B40F08B824FF00003C7F89839C54BC7F894394FF00001D7F89809CD
S32D0000D2003DF01EFA034618463DF0FEFC03460022BE49BF4808F020FB07F5A463184603F041FF03461C68BB49FC
S32D0000D228D7F898093DF008FA034618463DF0E8FC034600222146B44808F042FBB449D7F898093DF0F9F90346A9
S32D0000D25018463DF0D9FC03460022B049AC4808F0FBFA07F5A463184603F01CFF034604331C68AB49D7F8980934
S32D0000D2783DF0E2F9034618463DF0C2FC034600222146A14808F01CFBA449D7F898093DF0D3F9034618463DF0FA
S32D0000D2A0B3FC03460022A049994808F0D5FA07F5A463184603F0F6FE034608331C689B49D7F898093DF0BCF92F
S32D0000D2C8034618463DF09CFC0346002221468E4808F0F6FA9449D7F898093DF0ADF9034618463DF08DFC034676
S32D0000D2F000229049864808F0AFFA07F59A63184606F07EFF03461C468B49D7F898093DF097F9034618463DF05C
S32D0000D31877FC0346002221467B4808F02DFB07F6DC0318460AF086F807F6DC0207F6C4038049184627F020FE12
S32D0000D34007F6C40207F1E8004FF4C84300934FF40043002101F01AF807F6C403184627F081FA07F6DC031846A3
S32D0000D3680AF06AF807F1E8031E21184601F01EFB07F6F80318460AF05DF807F6F80207F50E636D49184627F07D
S32D0000D390F7FD07F50E6207F5AE704FF40B0300934FF47F031E2100F0F1FF07F50E63184627F058FA07F6F80301
S32D0000D3B818460AF041F807F5AE731E21184601F0F5FA07F6141318460AF034F807F6141207F6FC035949184655
S32D0000D3E027F0CEFD07F6FC0207F5E8708B230093FF23B42100F0CAFF07F6FC03184627F031FA07F614131846DF
S32D0000D4080AF01AF807F5E8731E21184601F0CEFA07F5136318460AF00DF807F5136207F618134749184627F0D0
S32D0000D430A7FD07F6181207F511708B230093FF23D22100F0A3FF07F61813184627F00AFA07F51363184609F034
S32D0000D458F3FF07F511731E21184601F0A7FA07F5AE73184601F02CF907F1E803184601F027F907F5E87318466D
S32D0000D48001F022F907F51173184601F01DF907F5E873184601F06EFA0346002B06D007F2C4434FF00001184697
S32D0000D4A807F04AFD07F51173184601F05FFA0346002B05D007F2C4432249184607F03CFD07F1E803184601F07C
S32D0000D4D051FA0346002B06D007F5A3631C49184604F0AEFE3DE007F5AE73184601F042FA0346002B30D007F5FF
S32D0000D4F8A3631649184604F09FFE2EE0E51700200000BE4200DB0500C81A0020000070410000F04108DB0500DC
S32D0000D520000034420000704210DB0500000096420000B4421CDB05000000D2422CDB050038DB050044DB05009F
S32D0000D54850DB0500000034430000A0420000A0C207F5A363184604F02DFE644BC7F89039634BC7F88C3907F5E6
S32D0000D570A4630121184603F03FFF3223C7F88839FF215E4808F055F9D7F888093DF008F90446D7F888093DF08F
S32D0000D59803F9034600932346D7F88C29D7F89019544808F07FFF07F5926207F294431946504808F041FA0346E3
S32D0000D5C0002B7CD007F51E63A3F24C531B6818463DF01AFB044607F51E63A3F5AA631B6818463DF011FB054621
S32D0000D5E8D7F890093DF00CFB0646D7F88C093DF007FB0146D7F88839D7F88829019200930B463246294620467F
S32D0000D610FEF736FF0346002B56D007F51E63A3F24C531B68D7F8901918463DF007F803461C46D7F888093DF0BA
S32D0000D638B3F80346194620463DF0BAF9034683F0004207F51E63A3F518731A6007F51E63A3F5AA631B68D7F89F
S32D0000D6608C1918463CF0EAFF03461C46D7F888093DF096F80346194620463DF09DF903461A4607F51E63A3F52F
S32D0000D68818735A6007F51E63A3F51873196807F51E63A3F518735A6807F51E63A3F518739B6807F5A46003F016
S32D0000D6B03DFB07F5A463184603F050FB04E007F5A463184603F07AFC07F511731846FEF743FF07F5E8731846FD
S32D0000D6D8FEF73EFF07F5AE731846FEF739FF07F1E8031846FEF734FFFFF744B9000020430000F042C81A002057
S32D0000D7004FF00003C7F8B439C84BC7F8B0394FF00001D7F8B4093CF093FF034618463DF073FA03460022C24911
S32D0000D728C24808F095F807F5A463184603F08CFC0446BF49D7F8B4093CF07EFF034618463DF05EFA034600224A
S32D0000D7502146B84808F0B8F8B849D7F8B4093CF06FFF034618463DF04FFA03460022B449B04808F071F807F59B
S32D0000D778A463184603F075FC0446B049D7F8B4093CF05AFF034618463DF03AFA034600222146A64808F094F81A
S32D0000D7A0A949D7F8B4093CF04BFF034618463DF02BFA03460022A5499E4808F04DF807F5A463184603F05FFC43
S32D0000D7C80446A149D7F8B4093CF036FF034618463DF016FA034600222146944808F070F84FF00001D7F8B00958
S32D0000D7F03CF026FF034618463DF006FA0346002294498C4808F028F807F5A463184603F0F5FB04468849D7F884
S32D0000D818B0093CF011FF034618463DF0F1F9034600222146814808F04BF88249D7F8B0093CF002FF0346184632
S32D0000D8403DF0E2F90346002283497A4808F004F807F5A463184603F0DEFB04467949D7F8B0093CF0EDFE0346A4
S32D0000D86818463DF0CDF90346002221466F4808F027F87349D7F8B0093CF0DEFE034618463DF0BEF9034600225F
S32D0000D8907249684807F0E0FF07F5A463184603F0C8FB04466A49D7F8B0093CF0C9FE034618463DF0A9F90346DB
S32D0000D8B8002221465D4808F003F86749D7F8B0093CF0BAFE034618463DF09AF9034600226249564807F0BCFF38
S32D0000D8E007F21453184606F0F3FF04465E49D7F8B0093CF0A5FE034618463DF085F90346002221464B4807F07E
S32D0000D908DFFF4F4BC7F8AC39564BC7F8A839D7F8A8093DF075F904464F49D7F8AC093CF08BFE034618463DF08A
S32D0000D9306BF9034622464E493E4807F08DFF07F51E63A3F518731C68D7F8A8093DF05CF905464549D7F8AC0991
S32D0000D9583CF072FE034618463DF052F903462A462146324807F0ACFFD7F8A8093DF048F904463E49D7F8AC0967
S32D0000D9803CF05EFE034618463DF03EF9034622463949284807F060FF07F51E63A3F518735C68D7F8A8093DF0DC
S32D0000D9A82FF905463349D7F8AC093CF045FE034618463DF025F903462A4621461B4807F07FFF07F64C131846CB
S32D0000D9D009F034FD07F64C1207F634132849184627F0CEFA07F6341307F5E8708B2201924FF400420092144A65
S32D0000D9F8224900F07DFD07F63413184626F02EFF07F64C13184609F017FD07F5E8731E21184600F0CBFF07F6D5
S32D0000DA206813184609F00AFD2EE000BF0000BE425CDB0500C81A0020000070410000F04168DB05000000344254
S32D0000DA480000704278DB05000000964288DB050094DB0500A4DB05000000B442B4DB05000000D2420000344359
S32D0000DA70ECDA05000000F042F8DA050000000743C0DB050000007A4307F6681207F515638449184627F074FA72
S32D0000DA9807F5156307F511708B2201924FF6FF7200927F4A7F4900F023FD07F51563184626F0D4FE07F6681314
S32D0000DAC0184609F0BDFC07F511731E21184600F071FF07F5E873184600F0F6FD07F51173184600F0F1FD07F55B
S32D0000DAE81173184600F042FF0346002B02D0002387F8DF3907F5E873184600F037FF0346002B05D0012387F836
S32D0000DB10DF39674807F047FE97F8DF2907F5A4631146184603F068FC624BC7F8A439624BC7F8A0393223C7F89C
S32D0000DB389C39FF215C4807F078FED7F89C093CF02BFE0446D7F89C093CF026FE034600932346D7F8A029D7F836
S32D0000DB60A419534808F0A2FC07F5926207F2944319464F4807F064FF0346002B7CD007F51E63A3F24C531B68A5
S32D0000DB8818463DF03DF8044607F51E63A3F5AA631B6818463DF034F80546D7F8A4093DF02FF80646D7F8A0092A
S32D0000DBB03DF02AF80146D7F89C39D7F89C29019200930B46324629462046FEF759FC0346002B56D007F51E6354
S32D0000DBD8A3F24C531B68D7F8A41918463CF02AFD03461C46D7F89C093CF0D6FD0346194620463CF0DDFE0346AF
S32D0000DC0083F0004207F51E63A3F518731A6007F51E63A3F5AA631B68D7F8A01918463CF00DFD03461C46D7F8EC
S32D0000DC289C093CF0B9FD0346194620463CF0C0FE03461A4607F51E63A3F518735A6007F51E63A3F5187319682B
S32D0000DC5007F51E63A3F518735A6807F51E63A3F518739B6807F5A46003F060F807F5A463184603F073F804E0B3
S32D0000DC7807F5A463184603F09DF907F511731846FEF766FC07F5E8731846FEF761FCFEF771BE084B00221A7035
S32D0000DCA0FEF7E0BDC4DB05000000BE4200007A43C81A0020000020430000F042E5170020B0B582B000AF786092
S32D0000DCC83960386800F083F80546442009F0E2FA03461C462946204601F020FB2146786800F08FF8786808379D
S32D0000DCF0BD46B0BD90B585B000AF78607B68184600F092F8F860FB681B68002B0CD0786800F097F80446F8688C
S32D0000DD1800F0A0F803461B681946204600F0A4F8FB6800221A607B6818461437BD4690BD80B584B000AFF860ED
S32D0000DD40B9607A60FB68B9687A68184600F0B8F8FB6818461037BD4680BDB0B582B000AF786039607C683868DB
S32D0000DD6800F093F80546386800F067F80346184600F098F803461A4629462046FFF7D8FF7B6818460837BD46E3
S32D0000DD90B0BD90B585B000AF78607B68184600F0A5F8F860FB681B68002B0CD0786800F0AAF80446F86800F0D8
S32D0000DDB8B3F803461B681946204600F0B7F8FB6800221A607B6818461437BD4690BD80B483B000AF78607B68B6
S32D0000DDE018460C37BD4680BC704780B582B000AF786039607B683A681146184600F0ABF87B6818460837BD46A7
S32D0000DE0880BD80B582B000AF786039607B6839681846FFF7E6FF7B6818460837BD4680BD80B582B000AF7860BD
S32D0000DE307B68184600F0A3F8034618460837BD4680BD80B582B000AF78607B68184600F0A3F803461846083732
S32D0000DE58BD4680BD80B483B000AF78607B6818460C37BD4680BC704780B582B000AF786039603B68002B04D0CB
S32D0000DE801A68183212681846904700BF0837BD4680BD80B582B000AF78607B68184600F088F803461846083736
S32D0000DEA8BD4680BD80B483B000AF78607B6818460C37BD4680BC704790B585B000AFF860B9607A60FC687868EC
S32D0000DED0FFF7ECFF024607F108031946204600F07DF8FB6818461437BD4690BD80B582B000AF78607B68184643
S32D0000DEF800F089F8034618460837BD4680BD80B582B000AF78607B68184600F089F8034618460837BD4680BD9F
S32D0000DF2080B483B000AF78607B6818460C37BD4680BC704780B582B000AF786039603B68002B04D01A68183276
S32D0000DF4812681846904700BF0837BD4680BD80B582B000AF786039607B68184600F07AF87868FFF75DFF02461A
S32D0000DF703B6813607B6818460837BD4680BD80B582B000AF78607B68184600F081F8034618460837BD4680BDEF
S32D0000DF9880B582B000AF78607B68184600F080F8034618460837BD4680BD80B584B000AF78607868FFF734FFA5
S32D0000DFC003461B68FB607868FFF72EFF034600221A60FB6818461037BD4680BDB0B584B000AFF860B9607A6049
S32D0000DFE8FC68B86800F068F805467868FFF75AFF03461A462946204600F068F8FB6818461037BD46B0BD80B542
S32D0000E01082B000AF78607B68184600F077F8034618460837BD4680BD80B582B000AF78607B68184600F076F8D6
S32D0000E038034618460837BD4680BD80B582B000AF78607B68184600F075F8034618460837BD4680BD80B582B07B
S32D0000E06000AF78607B68184600F07EF87B6818460837BD4680BD80B582B000AF78607B68184600F081F80346C3
S32D0000E08818460837BD4680BD80B582B000AF78607868FFF7ECFF034618460837BD4680BD80B582B000AF7860CA
S32D0000E0B0786800F07FF8034618460837BD4680BD80B483B000AF78607B6818460C37BD4680BC704790B585B0F3
S32D0000E0D800AFF860B9607A607868FFF7E3FE03461946F86800F06EF8FC68B868FFF7E4FF03461946204600F0B0
S32D0000E10077F8FB6818461437BD4690BD80B582B000AF78607868FFF794FF034618460837BD4680BD80B582B042
S32D0000E12800AF7860786800F070F8034618460837BD4680BD80B483B000AF78607B6818460C37BD4680BC70477C
S32D0000E15080B582B000AF7860786800F066F8034618460837BD4680BD80B582B000AF7860786800F064F87B6862
S32D0000E178184600F06CF87B6818460837BD4680BD80B483B000AF78607B6818460C37BD4680BC704780B582B038
S32D0000E1A000AF7860786800F063F8034618460837BD4680BD80B582B000AF78607868FFF7EDFF034618460837E3
S32D0000E1C8BD4680BD80B582B000AF786039603868FFF768FE03461946786800F04FF87B6818460837BD4680BDE7
S32D0000E1F080B582B000AF786039603868FFF760FF03461A687B681A607B6818460837BD4680BD80B582B000AF87
S32D0000E21878607868FFF798FF034618460837BD4680BD80B483B000AF78607B6818460C37BD4680BC704780B5D0
S32D0000E24082B000AF7860786800F02EF87B6818460837BD4680BD80B483B000AF78607B6800221A607B68184693
S32D0000E2680C37BD4680BC704780B483B000AF78607B6818460C37BD4680BC704780B582B000AF786039603868C0
S32D0000E290FFF70CFE03461946786800F00FF87B6818460837BD4680BD80B483B000AF78607B6818460C37BD46AC
S32D0000E2B880BC704780B483B000AF786039607B6818460C37BD4680BC7047000080B582B000AF786039607B68DA
S32D0000E2E0012B0CD13B684FF6FF72934207D1064809F082FA054A0649034808F049FF00BF0837BD4680BD00BF18
S32D0000E308E4170020000000201978010080B500AF4FF6FF710120FFF7D9FF80BD80B483B000AF78607B6823F071
S32D0000E330004318460C37BD4680BC704780B584B000AFF860B9607A60B968F8683CF028FC0346002B01D0BB6849
S32D0000E35809E07968F8683CF029FC0346002B01D07B6800E0FB6818461037BD4680BD000080B400AF024B18463E
S32D0000E380BD4680BC704700BFFFFF7F7F2DE9B04384B000AFF860B9607A603B60FB684FF4A0721A60FB68F02245
S32D0000E3A85A60FB686FF07F429A60FB684C4ADA60FB684C4A1A61FB6800225A61FB684A4A9A62FB68002283F836
S32D0000E3D02D20FB685C33184626F012FAFB681B6818463BF07BFD4FF000024FF080433BF019FF02460B46144600
S32D0000E3F81D46786826F086FA034618463BF06AFD4FF000024FF080433BF008FF02460B4690469946354806F0AF
S32D0000E4200BFE034618463BF069FD02460B46404649463BF0CDFD02460B46204629463BF00FFC02460B46104657
S32D0000E44819463CF0A3F80246FB685A63B8683CF0A7F90246FB689A63786826F053FA0446224806F0E5FD03466C
S32D0000E47004FB03F318463CF093F90246FB685A651C4806F0E3FD034618463CF08DF90246FB689A65FB685C33DA
S32D0000E4987968184626F0EEF9FB6800221A76FB6801225A76FB68002283F82C20FB68002283F82D203A68FB6811
S32D0000E4C0DA61BA6AFB681A62FB681B691A46FB685A62FB68DA69FB681A63FB6818461037BD46BDE8B08300BF62
S32D0000E4E86666660021212100E22B8A00C81A002090B585B000AFF860B9607A603B60FB684FF4A0721A60FB6834
S32D0000E510F0225A60FB686FF07F429A60FB682E4ADA60FB682D4A1A61FB6800225A61FB682B4A9A62FB68002291
S32D0000E53883F82D20FB685C33184626F05DF9FB68BA685A63FB687A689A63386826F0DAF90446224806F06CFD11
S32D0000E560034604FB03F318463CF01AF90246FB685A651C4806F06AFD034618463CF014F90246FB689A65FB689A
S32D0000E5885C333968184626F075F9FB6800221A76FB6801225A76FB68002283F82C20FB68002283F82D203A6AAB
S32D0000E5B0FB68DA617A6AFB681A62FB681B691A46FB685A62FB68DA69FB681A63FB6818461437BD4690BD00BFD5
S32D0000E5D86666660021212100E22B8A00C81A0020F0B58BB002AF78607B681B6B1946334807F01BF97B685C6B86
S32D0000E600304806F019FD034618463CF0CDF80346194620463CF012F8034618463CF0F4FA05467B689B6B184639
S32D0000E6283CF0EEFA06467B685C6D244806F000FD03465B0018463CF0B3F80346194620463BF0FAFF03461846A7
S32D0000E6503CF0DAFA04467B689B6D18463CF0D4FA03460093234632462946164807F0BBFD7B6803F15C0207F1A9
S32D0000E67808031146184626F039FC7B685B6B18463CF0BEFA04467B689B6B4FF0814118463BF0D2FF0346184649
S32D0000E6A03CF0B2FA034607F108012246054807F0F6F807F10803184626F0D4F800BF2437BD46F0BDC81A002081
S32D0000E6C8B0B584B000AF78607B685B7E002B00F046810023FB730023BB737B6803F13C017B6840331A469248E0
S32D0000E6F007F0A6F97B68DC6B7B685D6B8E4806F09BFC034618463CF04FF80346194628463BF094FF0346194698
S32D0000E71820463CF04BFA0346002B44D07B68DC6B7B685A6B7B685B6D194610463BF084FF03461D467E4806F02C
S32D0000E7407BFC034618463CF02FF80346194628463BF076FF03464FF07E5118463BF06EFF0346194620463CF0FD
S32D0000E7681BFA0346002B1ED07B681A6C7B689B6B194610463CF01AFA0346002B13D07B681C6C7B689A6B7B6838
S32D0000E7909B6D194610463BF053FF0346194620463CF0FEF90346002B01D0012200E000227B6883F82C207B68F9
S32D0000E7B803F13C017B6840331A465D4807F03CF9034683F00103DBB2002B6ED17B6803F144017B6848331A46EA
S32D0000E7E0554807F02DF90346002B62D07B68DC6B7B685D6B504806F029FC034618463BF0D3FF03461946284669
S32D0000E8083BF018FF0346194620463CF0CFF90346002B27D07B68DC6B7B685A6B7B685B6D194610463BF008FFCF
S32D0000E83003461D46404806F0FFFB034618463BF0B3FF0346194628463BF0FAFE03464FF07E5118463BF0F2FE09
S32D0000E8580346194620463CF09FF90346002B01D0012300E00023FB737B681A6C7B689B6B194610463CF09AF920
S32D0000E8800346002B13D07B681C6C7B689A6B7B689B6D194610463BF0D3FE0346194620463CF07EF90346002BFF
S32D0000E8A801D0012300E00023BB73FB7B002B19D0BB7B002B16D07B685B69002B03D17B6801225A6106E07B681B
S32D0000E8D05B69012B02D17B6802225A617B681A6A7B681A637B6801221A763CE07B685B69022B03D17B6803226C
S32D0000E8F85A6106E07B685B69032B02D17B6800225A617B6893F82C30002B13D07B689A6A7B681A637B6893F85C
S32D0000E9202D3083F00103DBB2002B0FD07B68012283F82D200AE000BFC81A00207B68DA697B681A637B6800225A
S32D0000E94883F82D207B6800221A76FFF711FD02467B68DA63FFF70CFD02467B681A647868FFF73EFE00BF103718
S32D0000E970BD46B0BD80B483B000AF78607B681B7E18460C37BD4680BC704780B485B000AF78600023FB737B68A4
S32D0000E9985B69012B04D17B6802225A610123FB73FB7B18461437BD4680BC704780B582B000AF786039603868FC
S32D0000E9C03BF0F2FE02467B689A6500BF0837BD4680BD000080B584B000AFF860C7E90023D7E90623D7E90001B9
S32D0000E9E83BF03AF902460B46F968C1E90023FB68D3E90023F968C1E90223F9684FF000024FF00003C1E90423B5
S32D0000EA10FB684FF00002DA62FB680A4A1A62FB68094A5A62FB68074A9A62F9684FF000024FF00003C1E90C23E6
S32D0000EA38FB6818461037BD4680BD00BFACC5273795BFD633000000002DE9B04F8CB000AFF861C7E90423D7E98D
S32D0000EA601423D7E904013BF0FBF802460B46F969C1E90023FB69D3E90445FB69D3E90001D7E916233BF0A4FA5A
S32D0000EA8802460B46204629463BF0E8F802460B46F969C1E90423A6A3D3E90023D7E916013BF004FD0346002B7C
S32D0000EAB004D0A1A3D3E90023C7E91623FB69D3E900014FF000024FF000033BF011FD0346002B0BD0FB69D3E90C
S32D0000EAD802014FF000024FF000033BF0E7FC0346002B28D1FB69D3E900014FF000024FF000033BF0DBFC034620
S32D0000EB00002B0BD0FB69D3E902014FF000024FF000033BF0EDFC0346002B10D1FB69D3E90023BA6023F000431F
S32D0000EB28FB6085A3D3E90023D7E902013BF0BEFC0346002B06D0F9694FF000024FF00003C1E90423FB69D3E995
S32D0000EB500C01D7E904233BF083F802460B463A6023F000437B6076A3D3E90023D7E900013BF0B4FC0346002B91
S32D0000EB7806D0F9694FF000024FF00003C1E90423FB69D3E90C01D7E904233BF065F802460B46904623F000497C
S32D0000EBA04FF00002684B404649463BF097FC0346002B03D0FB694FF00002DA624FF00002624BC7E90A23FB6929
S32D0000EBC8D3E90423104619463BF0E0FC03465E4A5E491846FFF7AEFB034618463BF09CF902460B46F969C1E9DF
S32D0000EBF00423FB69D3E90001FB69D3E902233BF02FF802460B4610461946D7E916233BF009FB02460B46F969A7
S32D0000EC18C1E90623FB69D3E90023F969C1E90223FB69DB6A18463BF077F904460D46FB691B6A18463BF070F96D
S32D0000EC40FB69D3E900233BF0C3F902460B4690469946FB695B6A18463BF062F9FB69D3E904233BF0B5F90246B9
S32D0000EC680B46404649463AF0F9FF02460B4690469946FB699B6A18463BF04EF9FB69D3E906233BF0A1F9024619
S32D0000EC900B46404649463AF0E5FF02460B46204629463AF0DFFF02460B46104619463BF071FC0246FB69DA629E
S32D0000ECB8F969D7E90423C1E90C23254B7B62FB69DB6A1846FFF72AFB0346214918463BF059FF0346002B11D0B4
S32D0000ECE0FB69D3E90023924623F0004B14A3D3E90023504659463BF0FBFB0346002B01D0012300E00023002B0A
S32D0000ED080ED0FB69DB6A4FF0000118463BF058FF0346002B01D00E4A00E00E4AFB69DA62FB69DB6A1846303753
S32D0000ED30BD46BDE8B08F00BFFCA9F1D24D62503F9A9999999999B93F0000E03F0000494000004842000048C29E
S32D0000ED58CDCCCC3DCDCCCCBD80B485B000AFF860B9607A603B60FB68BA681A62FB687A685A62FB683A689A62C8
S32D0000ED8000BF1437BD4680BC7047000080B582B000AF7860094806F006FD0421074806F00DFD0221054806F053
S32D0000EDA830FD786826F07EF803461946014806F079FFEEE7C81A002080B582B000AF7860084611461A46034632
S32D0000EDD0FB700B46BB7013467B707B681F4A1A607B681F4A5A607B680833FA781146184605F05CFD7B6809336C
S32D0000EDF8BA781146184605F055FD7B680A337A781146184605F04EFD7B680022DA607B6800221A617B680022F4
S32D0000EE201A757B6800225A757B680122DA617B6800221A627B6800225A627B6800229A627B680022DA627B68B9
S32D0000EE4800229A757B6803221A637B6818460837BD4680BD3333F33F3333534080B483B000AF786039607A682C
S32D0000EE703B68134018460C37BD4680BC704780B483B000AF786039607A683B68134318460C37BD4680BC7047EE
S32D0000EE9880B483B000AF78607B68DB4318460C37BD4680BC704780B582B000AF786039607B681B6839681846DA
S32D0000EEC0FFF7DDFF02467B681A607B6818460837BD4680BD80B582B000AF786039607B681B6839681846FFF70B
S32D0000EEE8BDFF02467B681A607B6818460837BD4680BD90B587B000AFF860B9607A60FB68DB687B61FB6803F18C
S32D0000EF100C047868FFF7C0FF034619462046FFF7D9FFFB6803F10C047968B868FFF79AFF034619462046FFF757
S32D0000EF38BAFF7B6918461C37BD4690BD80B582B000AF78604FF4827204217868FFF7D1FF7B6818460837BD469A
S32D0000EF6080BD80B483B000AF78607B6818460C37BD4680BC7047000080B582B000AF786039607B68012B0CD16B
S32D0000EF883B684FF6FF72934207D1064808F030FC054A0649034808F0F7F800BF0837BD4680BD00BFE8170020F7
S32D0000EFB0000000201978010080B500AF4FF6FF710120FFF7D9FF80BD80B586B002AF786039603A23FB603868D7
S32D0000EFD83AF0A2FF02460B467868CDE90023044B3A22044900F040F878681037BD4680BDC8DB0500CD450500A8
S32D0000F00080B582B000AF7860064A7B681A607B680433184625F0F4FB7B6818460837BD4680BD00BF34DC050037
S32D0000F02880B582B000AF7860064A7B681A607B680433184625F012FC7B6818460837BD4680BD00BF34DC0500F0
S32D0000F05080B582B000AF78607868FFF7E5FF1C21786808F019F97B6818460837BD4680BD08B490B588B000AF1B
S32D0000F078F860B9607A607B680733DB08DB00ADEB030D6B460733DB08DB00FB6107F130033B61BC683B69FA6AA4
S32D0000F0A07968F869A047B861BB69FA69D41807F11403184608F0C2F907F114032246F969F86800F024F807F130
S32D0000F0C81403184608F0B8F9F8682037BD46BDE8904001B0704780B584B000AFF860B9607A60BA6800217868DF
S32D0000F0F025F0BCFD0346184600F033F803461946F86825F08FFBF8681037BD4680BD90B585B000AFF860B9603A
S32D0000F1187A603B60FC68F86825F062FA03463A681946204625F0E0FE7A68B968F86800F005F8FB681846143720
S32D0000F140BD4690BD80B584B000AFF860B9607A607A68B968F86800F00EF800BF1037BD4680BD80B483B000AF39
S32D0000F16878607B6818460C37BD4680BC704790B587B000AFF860B9607A603B7023467A68B968F86800F004F84E
S32D0000F19000BF1C37BD4690BD80B586B000AFF860B9607A603B70B86800F03EF80346002B05D0BA687B689A426F
S32D0000F1B801D0012300E00023002B02D017481AF021FA7968B86800F03AF803467B617B690F2B10D907F1140352
S32D0000F1E000221946F86825F009FA03461946F86825F0F6F97B691946F86825F0F7F9F86825F0F0F903467A68CB
S32D0000F208B968184625F042FA7B691946F86825F0EBF900BF1837BD4680BD00BF00DC050080B483B000AF786090
S32D0000F2307B68002B0CBF01230023DBB218460C37BD4680BC7047B0B582B000AF786039607C683B1D184600F02B
S32D0000F2580AF82A463968204600F00FF8034618460837BD46B0BD80B483B000AF786000BF18460C37BD4680BC35
S32D0000F280704780B485B000AFF860B9603A71BA68FB68D31A18461437BD4680BC704790B587B000AF78603960C8
S32D0000F2A83B68DB0FFB75FB7D002B02D03B685B4200E03B683B610A21386900F0A9FAF860FA7DFB68D41807F1F2
S32D0000F2D00803184608F0B2F807F108032D222146786825F095FA07F10803184608F0A8F8FB7D1946786825F003
S32D0000F2F859FB03463A69F968184600F0C7FA00BF78681C37BD4690BD80B483B000AF7860012318460C37BD4640
S32D0000F32080BC704790B585B000AF786039607B681846FFF765FE174A7B681A607B683A68DA617B6803F12C0413
S32D0000F34807F10C03184608F075F807F10C031A460F49204625F010FE07F10C03184608F06BF804F051FE034639
S32D0000F37018463BF015FA02467B681A627B68002283F829207B6800225A627B6818461437BD4690BDA8DD050040
S32D0000F39868DC050080B582B000AF78607B68DB69184602F0B9F87B68D8690B4B4FF000024FF0000101F07EFE80
S32D0000F3C004F026FE034618463BF0EAF902467B681A627B6800225A6200BF0837BD4680BD000034C290B5ADF5CF
S32D0000F3E87B7D00AF07F57A73A3F57973186007F57A73A3F579731B685A6A07F57A73A3F5927311461846FFF786
S32D0000F41046FF07F57A73A3F59E7307F53172E1491846FFF75CFE07F53173184625F01AFA07F52B73184625F04C
S32D0000F43839FD014600230022D94806F009FA04F0E3FD034618463BF0A7F9024607F57A73A3F579731B681B6AC7
S32D0000F460194610463BF0EAF80346C7F8E43307F53D73D7F8E4131846FFF7A6FD07F57A73A3F5867307F53D720F
S32D0000F488C8491846FFF727FE07F57A73A3F5AA7307F53771C44A184600F0C9FA07F53773184625F0DBF907F582
S32D0000F4B03D73184625F0D6F907F52573184625F0F5FC01461E230022B74806F0C5F907F5E273184624F0E6FD41
S32D0000F4D807F5E2730833B549184623F0AFFF04460220FFF73AFD03461946204624F030F8044607F57A73A3F5AF
S32D0000F50079731B68DB69184601F0CCFD03461B681946204624F0D2F807F1F403184624F0C1FD07F1F40308335A
S32D0000F528A249184623F08AFF04460220FFF715FD03461946204624F00BF8044607F57A73A3F579731B68DB69B9
S32D0000F550184601F0A7FD034604331B681946204624F0ACF807F12403184624F09BFD07F1240308338F49184661
S32D0000F57823F064FF04460220FFF7EFFC03461946204623F0E5FF044607F57A73A3F579731B68DB69184601F0D0
S32D0000F5A081FD034608331B681946204624F086F807F5617307F5E2721146184624F0DAFD07F55B7307F5617208
S32D0000F5C87B491846FFF787FD07F5557307F55B71784A184600F02BFA07F5677307F1F4021146184624F0C2FD6C
S32D0000F5F007F54F7307F5677207F55571184600F09FF907F5497307F54F716C4A184600F012FA07F56D7307F15A
S32D0000F61824021146184624F0A9FD07F5437307F56D7207F54971184600F086F907F57A73A3F5777307F5437104
S32D0000F6405F4A184600F0F7F907F54373184625F009F907F56D73184625F004F907F54973184625F0FFF807F524
S32D0000F6684F73184625F0FAF807F56773184625F0F5F807F55573184625F0F0F807F55B73184625F0EBF807F5DC
S32D0000F6906173184625F0E6F807F10C0207F573731146184625F026FC07F573713C2300223D4806F0F4F807F58F
S32D0000F6B87373184625F0D2F807F57A73A3F579731B685B6A002B33D107F57A73A3F579731B68D869394B4FF029
S32D0000F6E000024FF0000101F01EFD07F57A73A3F579731B68DB69184601F043FF0346002B2CD004F085FC0346BB
S32D0000F70818463BF049F8024607F57A73A3F579731B681A6207F57A73A3F579731B685B6A5A1C07F57A73A3F5A9
S32D0000F73079731B685A6211E007F57A73A3F579731B68DB69184601F039FC07F57A73A3F579731B68012283F849
S32D0000F758292000E000BF07F10C03184625F07EF807F12403184624F049F907F1F403184624F044F907F5E273E9
S32D0000F780184624F03FF907F52573184625F06AF807F52B73184625F065F800BF07F57B77BD4690BD74DC05008C
S32D0000F7A8C81A002088DC050094DC050045EF000098DC0500A0DC0500A4DC05000000B4C280B483B000AF78603C
S32D0000F7D07B6893F8293018460C37BD4680BC704780B483B000AF78607B68012283F8292000BF0C37BD4680BCB4
S32D0000F7F8704780B582B000AF786039603B682C331946786825F072FB78680837BD4680BD80B487B000AF786091
S32D0000F820396001237B613B6803FB03F33B613A683B6902FB03F3FB603A68FB6802FB03F3BB603B687A689A42E6
S32D0000F84801D27B691DE07A683B699A4202D27B69013316E07A68FB689A4202D27B6902330FE07A68BB689A42BC
S32D0000F87002D27B69033308E07A68BB68B2FBF3F37B607B6904337B61DBE718461C37BD4680BC704780B489B054
S32D0000F89800AFF860B9607A60BB68013BFB617B68632B25D97A68224BA3FB02135B09642101FB03F3D31A5B00F9
S32D0000F8C0BB617B681C4AA2FB03235B097B60BB695A1CF968FB690B4418498A5C1A70FB69013BFA68134415497D
S32D0000F8E8BA690A4412781A70FB69023BFB61D6E77B68092B10D97B685B007B617B695A1CFB6801330B498A5C6E
S32D0000F9101A700A4A7B6913441A78FB681A7005E07B68DBB23033DAB2FB681A7000BF2437BD4680BC704700BF31
S32D0000F9381F85EB51D4DC050090B58BB000AFF860B9607A60002387F8273007F114031846FFF7DAFC0346002BEC
S32D0000F96003D0012387F8273024E007F11803B968184625F09DFA07F11C037968184625F097FA07F11C0207F160
S32D0000F98818031146184600F069F803461C4607F11C03184607F050FD07F11803184607F04BFD002C02D00123FA
S32D0000F9B087F8273097F82730002B2BD0B86824F0A3FF0446786824F09FFF034623443B62B86824F09DFF024630
S32D0000F9D83B6A934208D9786824F096FF02463B6A934201D8012300E00023002B0ED0BA680021786825F01EF903
S32D0000FA0003461846FFF7ADFB03461946F86824F009FF0CE07968B86825F070F903461846FFF79FFB0346194625
S32D0000FA28F86824F0FBFEF8682C37BD4690BD80B584B000AFF860B9607A607968B86825F05FF903461846FFF7C2
S32D0000FA5088FB03461946F86824F0E4FEF8681037BD4680BD80B483B000AF78603960012318460C37BD4680BC95
S32D0000FA787047000080B582B000AF7860084A7B681A607B682C33184624F0E8FE7B681846FFF7C6FA7B6818463A
S32D0000FAA00837BD4680BD00BFA8DD050080B582B000AF78607868FFF7E1FF4421786807F0EBFB7B68184608372A
S32D0000FAC8BD4680BD80B483B000AF786039603B6818460C37BD4680BC704780B582B000AF78607B68184600F0F0
S32D0000FAF0DBF87B6818460837BD4680BD80B582B000AF78607B681846FFF7EBFF7B6818460837BD4680BD000086
S32D0000FB1880B582B000AF78607B680833184624F06BFE7B6820331846FFF7E4FF7B6800225A607B68083307493E
S32D0000FB40184625F06BF87B6800221A707B6800225A707B6818460837BD4680BDDCDD050090B583B000AF7860E6
S32D0000FB6839607B6803F12004386800F0A9F803461946204600F0AEF800BF0C37BD4690BD90B58BB000AF7860AD
S32D0000FB907B682033184600F0B2F878627B685B687A6A9A4256D97B6803F120027B685B681946104600F0B2F8BC
S32D0000FBB838627B6803F10804386A00F0BAF803461A681032126807F108001946904707F108031946204624F0C5
S32D0000FBE053FE07F10803184624F03CFE386A00F0A4F803461A680832126818469047034683F00103DBB2002B9D
S32D0000FC081BD07B685B7883F00103DBB2002B0AD0386A00F08EF803461A681268184690477B6801225A70386A20
S32D0000FC3000F083F803461A68043212681846904711E07B685B685A1C7B685A607B6800225A7008E07B68012224
S32D0000FC581A707B6808330449184624F0DBFF00BF2C37BD4690BD00BFDCDD050080B582B000AF786039603B6824
S32D0000FC8008331946786825F035F978680837BD4680BD80B483B000AF78607B681B7818460C37BD4680BC70473F
S32D0000FCA880B582B000AF7860786800F04EF87B68184600F056F87B6818460837BD4680BD80B483B000AF7860FD
S32D0000FCD07B6818460C37BD4680BC704780B582B000AF786039603868FFF7EEFF03461946786800F078F800BFDB
S32D0000FCF80837BD4680BD80B483B000AF78607B685A687B681B68D31A9B1018460C37BD4680BC704780B483B0D0
S32D0000FD2000AF786039607B681A683B689B00134418460C37BD4680BC704780B582B000AF7860786800F07DF8D1
S32D0000FD48034618460837BD4680BD80B582B000AF7860786800F07EF87B6818460837BD4680BD80B483B000AF5D
S32D0000FD7078607B6800221A607B6800225A607B6800229A607B6818460C37BD4680BC704780B584B000AFF86066
S32D0000FD98B9607A60BB68002B05D0FB687A68B968184600F061F800BF1037BD4680BD80B483B000AF78607B6803
S32D0000FDC018460C37BD4680BC704780B584B000AFF860B9607A60B968F86800F058F800BF1037BD4680BDB0B5AF
S32D0000FDE882B000AF786039607B685A687B689B689A4211D07C687B685D68386800F050F803461A462946204671
S32D0000FE1000F054F87B685B681A1D7B685A600CE0786800F05EF80446386800F03DF803461A462146786800F00D
S32D0000FE387BF800BF0837BD46B0BD80B582B000AF78607B68184600F02BF9034618460837BD4680BD80B483B0EB
S32D0000FE6000AF78607B6818460C37BD4680BC704780B584B000AFF860B9607A607A68B968F86800F01FF900BFE6
S32D0000FE881037BD4680BD80B582B000AF786039603968786800F022F900BF0837BD4680BD80B483B000AF786086
S32D0000FEB07B6818460C37BD4680BC704780B584B000AFF860B9607A607868FFF7EDFF03461A46B968F86800F06B
S32D0000FED83DF900BF1037BD4680BD80B584B000AF78607B681A1D07F10C031146184600F045F9FB681846103784
S32D0000FF00BD4680BD80B582B000AF184600F005F8034618460837BD4680BD80B483B000AF3871012318460C3788
S32D0000FF28BD4680BC70470000B0B58CB000AFF860B9607A60594A0121F86800F02EF9B862FB681B687B62FB689E
S32D0000FF505B683B62F86800F06BF903467B6107F1140207F108031146184600F071F90346FB61FB68B96A1846A1
S32D0000FF7800F07FF9B861BB69FB62FC68FB699B00BA69D5187868FFF78BFF03461A4629462046FFF78FFF002361
S32D0000FFA0FB62FFF7AFFF0346002B27D007F10803184600F08AF903461C68FB681846FFF7FAFE0346BA692146A4
S32D0000FFC8786A00F06AF9F862FB6A0433FB6207F10803184600F075F903461C68FB681846FFF7E5FE0346FA6AB0
S32D0000FFF0396A204600F055F9F86226E007F10803184600F062F903461C68FB681846FFF7D2FE0346BA69214669
S32D00010018786A00F060F9F862FB6A0433FB6207F10803184600F04DF903461C68FB681846FFF7BDFE0346FA6AB8
S32D00010040396A204600F04BF9F862FFF75BFF034683F00103DBB2002B09D0FB681846FFF7AAFE03461A46396AAE
S32D00010068786AFFF7AEFEF868FB689A687B6AD31A9B101A46796AFFF787FEFB68BA691A60FB68FA6A5A60BB6A3F
S32D000100909B00BA691A44FB689A6000BF3037BD46B0BD00BFE4DD050080B582B000AF78607B68184600F039F95C
S32D000100B803461B6818460837BD4680BD80B584B000AFF860B9607A607B689B001946B86807F0DEF800BF10373D
S32D000100E0BD4680BD80B582B000AF786039607A683B689A420AD0786800F024F90346184600F02AF97B6804332E
S32D000101087B60F0E700BF0837BD4680BD80B582B000AF786039607B683A681146184600F032F97B68184608377C
S32D00010130BD4680BD80B582B000AF786039607B683A6811461846FFF7E5FF7B6818460837BD4680BD90B585B08B
S32D0001015800AFF860B9607A607868FFF7A1FE0446BB6819460420FFF7ADFC034621461846FFF7DCFF00BF143791
S32D00010180BD4690BD80B483B000AF786039603B681A687B681A607B6818460C37BD4680BC704790B587B000AF52
S32D000101A8F860B9607A60F86800F007F90446F868FFF7A1FD0346E21ABB689A4234BF01230023DBB2002B02D047
S32D000101D0786819F033FAF868FFF791FD0446F868FFF78DFD03463B6107F1080207F110031146184600F0F6F857
S32D000101F803461B6823447B61F868FFF77CFD02467B69934206D3F86800F0D7F802467B69934204D9F86800F0D3
S32D00010220D0F8034600E07B6918461C37BD4690BD80B584B000AF78607A6807F10C0311461846FFF79FFFFB6854
S32D0001024818461037BD4680BD90B583B000AF78603960786800F035F803461C68386800F030F803461B68E31ABF
S32D000102709B1018460C37BD4690BD80B582B000AF786039603B68002B06D07B683968184600F0BBF8034600E0EA
S32D00010298002318460837BD4680BD90B587B002AFF860B9607A603B608DF800403B687A68B968F86800F0B4F8BD
S32D000102C0034618461437BD4690BD80B483B000AF78607B6818460C37BD4680BC704790B585B000AFF860B960CB
S32D000102E87A603B60F86800F0ADF80446B86800F0A9F801463B687A68204600F0B2F8034618461437BD4690BD74
S32D0001031080B582B000AF786039603968786800F0B5F800BF0837BD4680BD80B582B000AF78607B68184600F0BC
S32D00010338B5F8034618460837BD4680BD80B483B000AF78607B6818460C37BD4680BC704780B582B000AF78606D
S32D000103607868FDF716FD00BF0837BD4680BD80B582B000AF786039607B683A681146184600F0A6F87B681846B9
S32D000103880837BD4680BD90B583B000AF786039607C683B68184600F08DF8034619462046FFF7E1FF3868FDF75D
S32D000103B09DFD034600221A607B6818460C37BD4690BD80B582B000AF78607B68184600F0BCF80346184600F061
S32D000103D89EF8034618460837BD4680BD80B483B000AF786039607B681A683B681B689A4201D23B6800E07B6813
S32D0001040018460C37BD4680BC704780B582B000AF7860396000223968786800F0A0F8034618460837BD4680BD5E
S32D0001042880B584B000AFF860B9607A603B603B687A68B968F86800F0ACF8034618461037BD4680BD80B584B076
S32D0001045000AF786007F10C037968184600F0BAF8FB6818461037BD4680BD80B584B000AFF860B9607A603B60C8
S32D000104787A68B968F86800F0BBF8034618461037BD4680BD80B582B000AF786039603868FDF77BFC00BF083791
S32D000104A0BD4680BD80B582B000AF7860786800F0B5F8034618460837BD4680BD80B483B000AF78607B6818462D
S32D000104C80C37BD4680BC704790B583B000AF78603960386800F0ABF80346184600F0B1F803461946786800F049
S32D000104F0C0F87C683868FDF7A4FD0346184600F0AEF803461946204600F0C9F87B6818460C37BD4690BD80B507
S32D0001051884B000AF78606FF06043FB60786800F0CBF80346BB6007F1080207F10C031146184600F0CDF80346E9
S32D000105401B6818461037BD4680BD80B483B000AF78607B6818460C37BD4680BC704780B584B000AFF860B96033
S32D000105687A60F86800F0C7F80246BB6893428CBF01230023DBB2002B01D019F023F8BB689B00184606F086FE66
S32D00010590034618461037BD4680BDB0B584B000AFF860B9607A603B60F86800F0B3F80446B86800F0AFF8054699
S32D000105B8786800F0ABF802463B682946204600F0AFF8034618461037BD46B0BD80B582B000AF786039603B46E4
S32D000105E0184600F0C7F803461A687B681A607B6818460837BD4680BD80B586B000AFF860B9607A600123FB75FE
S32D000106087A68B968F86800F0BBF8034618461837BD4680BD80B582B000AF78607B68184600F0DDF803461846EC
S32D000106300837BD4680BD80B483B000AF78607B6818460C37BD4680BC704780B483B000AF78607B6818460C3742
S32D00010658BD4680BC704780B483B000AF78607B6818460C37BD4680BC704780B582B000AF786039603868FDF7FA
S32D0001068067FD0346184600F0B8F803461946786800F0BDF87B6818460837BD4680BD80B582B000AF786039602C
S32D000106A83868FFF7D8FF03461A687B681A607B6818460837BD4680BD80B582B000AF7860786800F0ADF8034622
S32D000106D018460837BD4680BD80B483B000AF786039603B681A687B681B689A4201D23B6800E07B6818460C3756
S32D000106F8BD4680BC704780B483B000AF78606FF0604318460C37BD4680BC704780B483B000AF78607B68184627
S32D000107200C37BD4680BC704790B587B000AFF860B9607A603B607B687B61FA68BB689A4213D07869FFF7FEFD8B
S32D000107480446F868FFF7FAFD03463A681946204600F072F8FB680433FB607B6904337B61E7E77B6918461C3792
S32D00010770BD4690BD80B483B000AF78607B6818460C37BD4680BC704790B587B000AFF860B9607A607B687B616D
S32D0001079807F1080207F10C031146184600F067F80346002B16D07869FFF7C8FD044607F10C03184600F07BF81D
S32D000107C003461946204600F081F807F10C03184600F062F87B6904337B61DDE77B6918461C37BD4690BD80B410
S32D000107E883B000AF78607B6818460C37BD4680BC704780B483B000AF78607B6818460C37BD4680BC704780B511
S32D0001081082B000AF786039603868FFF7EEFF7B6818460837BD4680BD80B582B000AF78607868FFF764FF0346B4
S32D0001083818460837BD4680BD80B584B000AFF860B9607A60B868FFF73BFA03461A46F9687868FFF72FFBB868DC
S32D00010860FFF770FD034619467868FFF751FD00BF1037BD4680BD80B582B000AF786039603968786800F039F8CB
S32D00010888034683F00103DBB218460837BD4680BD80B483B000AF78607B681B681A1D7B681A607B6818460C37AB
S32D000108B0BD4680BC704780B483B000AF78607B681B6818460C37BD4680BC704790B583B000AF78603960386800
S32D000108D8FFF7E6FA04467B6819460420FFF7F2F8034621461846FFF721FC00BF0C37BD4690BD90B583B000AFF1
S32D0001090078603960786800F00EF80446386800F00AF803469C420CBF01230023DBB218460C37BD4690BD80B4BA
S32D0001092883B000AF78607B681B6818460C37BD4680BC704780B582B000AF7860786837F0A5F803461846083771
S32D00010950BD4680BD80B582B000AF7860786837F0CBF8034618460837BD4680BD80B582B000AF7860786837F065
S32D00010978F7F8034618460837BD4680BD90B583B000AF786039607B681A683B681B681946104639F059FF034699
S32D000109A01C467B6804331A683B6804331B681946104639F04DFF03461946204639F040FE034618460C37BD4641
S32D000109C890BD90B583B000AF78607B681A687B681B681946104639F037FF03461C467B6804331A687B68043374
S32D000109F01B681946104639F02BFF03461946204639F01EFE03461846FFF7B0FF034618460C37BD4690BD80B53F
S32D00010A1884B000AF786039607868FFF7D2FFF8604FF00001F8683AF0A3F80346002B02D04FF0000309E07968A5
S32D00010A403868FFF79FFF0346F968184639F0B4FF034618461037BD4680BD000080B582B000AF78600449786826
S32D00010A6839F0F2FE034618460837BD4680BD00BFE12E654280B582B000AF7860084611461A460346FB700B46B3
S32D00010A90BB7013467B707868BA78F978FB6900F093FD7B68994AC3F888207B684FF00002C3F88C207B684FF08B
S32D00010AB80002C3F890207B6803F198003A7C7978FB6900F07DFD7B688E4AC3F820217B684FF00002C3F82421E3
S32D00010AE07B684FF00002C3F828217B6803F598703A7E397DFB6900F067FD7B68834AC3F8B8217B684FF000024E
S32D00010B08C3F8BC217B684FF00002C3F8C0217B684FF07E52C3F8C4217B684FF00002C3F8C8217B68784A03F56F
S32D00010B30E67392E8030083E803007B68754A03F5EA7392E8030083E803007B684FF00002C3F8DC217B684FF072
S32D00010B580002C3F8E0217B684FF00002C3F8E4217B684FF00002C3F8E8217B684FF00002C3F8EC217B684FF0D6
S32D00010B800002C3F8F0217B684FF00002C3F8F4217B684FF00002C3F8F8217B684FF00002C3F8FC217B684FF06E
S32D00010BA80002C3F800227B684FF00002C3F804227B684FF00002C3F808227B68002283F812227B68012283F8FC
S32D00010BD013227B68022283F814227B684FF00002C3F818227B684FF00002C3F81C227B684FF00002C3F82022B2
S32D00010BF87B68474AC3F828227B684FF07E52C3F82C227B68434AC3F830227B68424AC3F834227B68414AC3F834
S32D00010C2038227B684FF07E52C3F84C227B683E4AC3F850227B683B4AC3F854227B68394AC3F858227B68FA780F
S32D00010C4883F80C227B687A7883F80E227B683A7D83F810227B68BA7883F80D227B683A7C83F80F227B683A7E6E
S32D00010C7083F811227B68FA69C3F824227B68002283F848227B68002283F849227B68002283F84A227B684FF07D
S32D00010C980002C3F8E8217B684FF00002C3F8EC217B684FF00002C3F8F02178687B68D3F888107B68D3F88C200B
S32D00010CC07B68D3F8903000F0D7FE7B6803F198007B68D3F820117B68D3F824217B68D3F8283100F0C9FE7B68F0
S32D00010CE803F598707B68D3F8B8117B68D3F8BC217B68D3F8C03100F0BBFE7B6818460837BD4680BD9A99193F48
S32D00010D1000DE050008DE05000000104100004041CDCC4C3FCDCCCC3D9A99993E80B485B000AFF860B9607A60E1
S32D00010D383B60FB68BA68C3F8DC21FB687A68C3F8E021FB683A68C3F8E42100BF1437BD4680BC704790B58DB06C
S32D00010D6000AF7860786800F0F7F97B6803F5E2727B6803F5EE7319461046FFF74CFEF8627B6803F5E6727B684D
S32D00010D8803F5EE7319461046FFF741FEB8627B6803F5EA727B6803F5EE7319461046FFF736FE78627B68D3F805
S32D00010DB0E4313B627B68D3F8343283F000417B68D3F834321A46386AFDF7B8FAF861F969F86A39F035FC03461E
S32D00010DD8FB62F969B86A39F02FFC0346BB62F969786A39F029FC03467B62F86AFDF796FA0346FB60B86AFDF7F9
S32D00010E0091FA03463B61786AFDF78CFA03467B6107F1140207F110031146184600F0BDFB024607F10C031146B6
S32D00010E28184600F0B6FB03461B68BB617B68D3F82C321946B86939F0C3FE0346002B29D07B68D3F82C32B969A3
S32D00010E50184639F0B1FD03461946F86A39F0F8FC0346FB627B68D3F82C32B969184639F0A3FD03461946B86A52
S32D00010E7839F0EAFC0346BB627B68D3F82C32B969184639F095FD03461946786A39F0DCFC03467B62BB6983F047
S32D00010EA00043BA691946F86AFDF748FA02467B68C3F81822BB6983F00043BA691946B86AFDF73CFA02467B68D3
S32D00010EC8C3F81C22BB6983F00043BA691946786AFDF730FA02467B68C3F820227B6893F84832002B34D07C6883
S32D00010EF07B68D3F818227B68D3F830321946104639F0A6FC03461946204600F027FD7B6803F198047B68D3F818
S32D00010F181C227B68D3F830321946104639F094FC03461946204600F015FD7B6803F598747B68D3F820227B6824
S32D00010F40D3F830321946104639F082FC03461946204600F003FD2AE07C687B68D3F818321549184639F074FCC0
S32D00010F6803461946204600F0BEFB7B6803F198047B68D3F81C320E49184639F065FC03461946204600F0AFFB4D
S32D00010F907B6803F598747B68D3F820320649184639F056FC03461946204600F0A0FB00BF3437BD4690BD00BF51
S32D00010FB80000C84280B582B000AF78604FF000034FF000024FF000017868FFF7ABFE7B68184600F0B4FB7B680D
S32D00010FE09833184600F0AFFB7B6803F59873184600F0A9FB00BF0837BD4680BD80B582B000AF78607B681846DA
S32D0001100800F0BCFB034618460837BD4680BD80B582B000AF78607B689833184600F0AEFB034618460837BD4670
S32D0001103080BD80B582B000AF78607B6803F59873184600F09FFB034618460837BD4680BD80B582B000AF786084
S32D000110587B68184600F0C6FB034618460837BD4680BD80B582B000AF78607B689833184600F0B8FB034618460D
S32D000110800837BD4680BD80B582B000AF78607B6803F59873184600F0A9FB034618460837BD4680BD80B483B06F
S32D000110A800AF78607B6803F5F47318460C37BD4680BC704780B584B000AFF860B9607A603B60F86800F044F82F
S32D000110D0FB68D3F8E8311946B86839F0AFFA03461A46FB68C3F80022FB68D3F8EC311946786839F0A3FA0346D7
S32D000110F81A46FB68C3F80422FB68D3F8F0311946386839F097FA03461A46FB68C3F80822F86800F01DF800BF08
S32D000111201037BD4680BD80B485B000AFF860B9607A603B60FB68BA68C3F8F421FB687A68C3F8F821FB683A68A8
S32D00011148C3F8FC2100BF1437BD4680BC704700002DE9B04386B000AF78607B68184600F035FB04467B68D3F881
S32D00011170C8311846FFF7E2FB03461946204639F067FB03461D467B689833184600F022FB04467B68D3F8D031CF
S32D000111981846FFF7CFFB03461946204639F054FB03461946284639F047FA03461D467B6803F59873184600F024
S32D000111C009FB04467B68D3F8D8311846FFF7B6FB03461946204639F03BFB03461946284639F02EFA03467B61FD
S32D000111E87B68184600F0F2FA04467B68D3F8C8311846FFF7ABFB03461946204639F024FB03461D467B68983320
S32D00011210184600F0DFFA04467B68D3F8D0311846FFF798FB03461946204639F011FB03461946284639F004FA28
S32D0001123803461D467B6803F59873184600F0C6FA04467B68D3F8D8311846FFF77FFB03461946204639F0F8FAEF
S32D0001126003461946284639F0EBF903463B614FF08043FB607B68184600F0ACFA0346184638F04EFE04460D466B
S32D000112887B68D3F8C831184638F046FE56A3D3E9002338F0E1FC02460B461046194636F09DFB02460B462046DE
S32D000112B0294638F08DFE02460B46904699467B689833184600F086FA0346184638F028FE04460D467B68D3F8E3
S32D000112D8D031184638F020FE43A3D3E9002338F0BBFC02460B461046194636F077FB02460B462046294638F022
S32D0001130067FE02460B464046494638F0ABFC02460B46904699467B6803F59873184600F059FA0346184638F038
S32D00011328FBFD04460D467B68D3F8D831184638F0F3FD2DA3D3E9002338F08EFC02460B461046194636F04AFBBA
S32D0001135002460B462046294638F03AFE02460B464046494638F07EFC02460B4614461D46F86838F0D5FD024658
S32D000113780B462046294638F051FF02460B461046194639F003F90346BB60B868FFF762FBB8607B68D3F8003266
S32D000113A07969184639F04CF903461A467B68C3F8E8217B68D3F804323969184639F040F903461A467B68C3F893
S32D000113C8EC217B68D3F80832B968184639F034F903461A467B68C3F8F02100BF1837BD46BDE8B083AFF30080C9
S32D000113F0182D4454FB21F93F80B582B000AF78600B46FB707B68FA7883F84822FB78002B03D0786800F008F878
S32D0001141802E0786800F01EF800BF0837BD4680BD80B582B000AF78607B680121184600F04BF97B68983301214A
S32D00011440184600F045F97B6803F598730121184600F03EF900BF0837BD4680BD80B582B000AF78607B68002134
S32D00011468184600F031F97B6898330021184600F02BF97B6803F598730021184600F024F900BF0837BD4680BDEC
S32D0001149080B584B000AFF860B9607A603B60BB68032B19D0BB68032B1FDCBB68012B03D0BB68022B07D018E068
S32D000114B8F868BB693A68796800F0DAFA11E0FB6803F19800BB693A68796800F0D1FA08E0FB6803F59870BB6989
S32D000114E03A68796800F0C8FA00BF00BF1037BD4680BD80B582B000AF78607B68184600F075F97B68983318460A
S32D0001150800F070F97B6803F59873184600F06AF900BF0837BD4680BD80B582B000AF78607B68184600F018F956
S32D000115307B689833184600F013F97B6803F59873184600F00DF900BF0837BD4680BD80B582B000AF78607B683B
S32D00011558184600F025F9034618460837BD4680BD80B582B000AF78607B68184600F023F9034618460837BD46AE
S32D0001158080BD80B483B000AF78607B6893F8493218460C37BD4680BC704780B582B000AF786039607B681A68A5
S32D000115A83B681B681946104639F0ECFA0346002B01D03B6800E07B6818460837BD4680BD80B586B002AFF8602E
S32D000115D07B600B46FB721346BB72FB683A4A5A60FB684FF08342DA60FB681033F97A7A68184600F0A5FDFB683D
S32D000115F81833BA7A1146184602F082FEFB6803F128014FF000024FF00003CDE900234FF000024FF00003084671
S32D00011620FDF7D8F9FB684FF49F72DA66FB68274A1A67FB684FF000025A67FB684FF000029A67FB68FA7A1A701F
S32D00011648FB687A689A60FB68DB6E184639F0A4F80246FB689A66FB685A7EFB685A76FB681833184603F00CF948
S32D00011670FB684FF000021A66FB684FF00002DA67FB684FF00002C3F88020FB68022283F88420FB68012283F89C
S32D000116988520FB684FF000025A6702F0B5FC0346184639F079F80246FB689A67FB68002283F82420FB68184684
S32D000116C01037BD4680BD00BF00001041D153FB4080B483B000AF78600B46FB707B68FA7883F8842000BF0C37E5
S32D000116E8BD4680BC704780B582B000AF786039604FF00001386839F063FA0346002B04D07B68002283F8852083
S32D0001171003E07B68022283F885204FF00001386839F02AFA0346002B03D07B68012283F885207B68103339683F
S32D00011738184600F081FD00BF0837BD4680BD80B582B000AF78607B681033184600F032FD00BF0837BD4680BDA9
S32D0001176080B582B000AF78607B681833184603F08BF87B684FF00002C3F8802000BF0837BD4680BD80B582B046
S32D0001178800AF78607B681833184603F067F80346184639F005F8034618460837BD4680BD80B483B000AF7860EC
S32D000117B07B681B6E18460C37BD4680BC704780B483B000AF78607B68DB6F18460C37BD4680BC704780B483B0EE
S32D000117D800AF78607B68D3F8803018460C37BD4680BC704780B58CB000AF78604FF07E53BB624FF07E537B6254
S32D0001180002F006FC0346184638F0CAFF03463B627B689B6F1946386A38F010FF0346FB617B681833184603F0FE
S32D000118281DF80346184638F0BBFF0346BB617B685B6F1946B86938F0FDFE0346FB627B6893F88530022B03D174
S32D00011850FB6A83F00043FB627B6893F8243083F00103DBB2002B09D07B683A6A9A677B68012283F824207B68F7
S32D00011878BA695A67F86AFCF751FD03461946B86A39F09EF90346002B08D0796AF86939F083F90346002B01D0B6
S32D000118A0012300E00023002B02D07B685B6E4FE04FF00001F86939F073F90346002B02D07B685B6E44E04FF08F
S32D000118C80001F86A39F054F90346002B06D07B684FF000025A664FF0000335E07B689B6E1946F86A39F064F861
S32D000118F003467B617B681B6F1946786938F0A8FF03463B611449F86939F056F80346FB60F968386939F050F8F7
S32D000119180346BB607B68D3F880303969184638F08BFE03461A467B68C3F880207B68BA695A677B683A6A9A67F7
S32D000119407B68BA685A667B68002283F82420BB6818463037BD4680BD00007A442DE9F04393B004AF7860396059
S32D000119687B6893F88430012B59D17B683A681A667868FFF737FF386302F046FB0346184638F00AFF0346FB627B
S32D000119907B689B6F1946F86A38F050FE03467B634FF00001786B39F0FBF80346002B01D02D4B7B637B6803F12C
S32D000119B828067B681B6E184638F0AEFA80468946386B38F0A9FA04460D46786B38F0A4FA02460B46CDE902237B
S32D000119E0CDE9004542464B463046FDF731F8B8627B68BA6ADA677B68DB681946B86A38F0DBFF0346194918461D
S32D00011A0838F022FF03467B62164A1749786AFCF791FC7862796A7868FFF765FE1BE007F12003184605F006FDBC
S32D00011A3007F1200207F108030E49184623F0A0FA07F108031846FDF7A1F907F10803184622F008FF07F1200384
S32D00011A58184605F0F1FC00BF3C37BD46BDE8F0836F12833A0000C8420000C8C248DE050080B584B000AFF86065
S32D00011A80B9607A603B60FB6803F128003B687A68B968FDF765F900BF1037BD4680BD000080B500AF0F4BD3F8E3
S32D00011AA8A03003F48053002B14BF01230023DBB2002B10D0094BD3F8A030084A23F48053C2F8A030064805F0A0
S32D00011AD0EDFA064B1B68054A23F40053136000BF80BD00BF00C00440501B0020C0F00F4080B400AF124B4FF434
S32D00011AF880725A63114B5B69104A43F4005353610E4B1B680D4A43F4005313600A4B0C4A1A630C4BD3F8883125
S32D00011B200A4A43F08063C2F88831084B9B68074A43F08063936000BFBD4680BC704700BF00C00440C0F00F4092
S32D00011B4803010A0000E100E080B400AF334B00225A70324B98221A70304B9B79DBB203F01003002B14BF01234D
S32D00011B700023DBB2002B00D0F2E72A4B9B79DBB29B08DBB203F00303022B14BF01230023DBB2002B00D0F0E7DD
S32D00011B98224B18221A71214B00225A71204B03F580531A461F4B53641C4B54225A711B4B9B79DBB203F0200317
S32D00011BC0002B0CBF01230023DBB2002B00D0F2E7144B9B79DBB203F04003002B0CBF01230023DBB2002B00D05D
S32D00011BE8F2E70E4B1B78DBB20C4A03F03F03DBB213700A4B9B79DBB29B08DBB203F00303032B14BF012300237A
S32D00011C10DBB2002B00D0F0E700231846BD4680BC704700BF00400640007004400000130180B500AF314B03F56A
S32D00011C3880539B6B2F4A43F4785302F580529363FFF752FFFFF780FF2B4B58221A602A4B1B684FF47A7202FB20
S32D00011C6003F3284A1360274B1B681A46234B03F580535B6C1B0E03F00F030133B2FBF3F31A46214B1A601D4B82
S32D00011C8803F58053DB6B1B4A43F0225302F58052D363184B03F580531B6B164A43F0006302F580521363174BC5
S32D00011CB04FF480721A61642002F05AF8134B5B69124A23F010035361104B00221A600F4B10225A610E4803F0AE
S32D00011CD8F3FB02F0E1FE02F03FFF0C4802F0A6F80B4805F033FA4FF4FA6002F051F900BF80BD00BF007004404D
S32D00011D00141A0020101A0020181A002000D00340C81A00200C1A0020C01B002080B500AFFAF711FB00BF80BD97
S32D00011D2880B500AFFAF70BFB00BF80BD80B500AFFAF705FB00BF80BD80B500AFFAF7FFFA00BF80BD80B500AF36
S32D00011D50FAF7F9FA00BF80BD80B500AFFAF7F3FA00BF80BD80B500AFFAF7EDFA00BF80BD80B500AFFAF7E7FA58
S32D00011D7800BF80BD80B500AFFAF7E1FA00BF80BD80B500AFFAF7DBFA00BF80BD80B500AFFAF7D5FA00BF80BD4E
S32D00011DA080B500AFFAF7CFFA00BF80BD80B500AFFAF7C9FA00BF80BD80B500AFFAF7C3FA00BF80BD80B500AF74
S32D00011DC8FAF7BDFA00BF80BD80B500AFFAF7B7FA00BF80BD80B500AFFAF7B1FA00BF80BD80B500AFFAF7ABFAD0
S32D00011DF000BF80BD80B500AFFAF7A5FA00BF80BD80B500AFFAF79FFA00BF80BD80B500AFFAF799FA00BF80BD8A
S32D00011E1880B500AFFAF793FA00BF80BD80B500AFFAF78DFA00BF80BD80B500AFFAF787FA00BF80BD80B500AFAF
S32D00011E40FAF781FA00BF80BD80B500AFFAF77BFA00BF80BD80B500AFFAF775FA00BF80BD80B500AFFAF76FFA47
S32D00011E6800BF80BD80B500AFFAF769FA00BF80BD80B500AFFAF763FA00BF80BD80B500AFFAF75DFA00BF80BDC5
S32D00011E9080B500AFFAF757FA00BF80BD80B500AFFAF751FA00BF80BD80B500AFFAF74BFA00BF80BD80B500AFEB
S32D00011EB8FAF745FA00BF80BD80B500AFFAF73FFA00BF80BD80B500AFFAF739FA00BF80BD80B500AFFAF733FABF
S32D00011EE000BF80BD80B500AFFAF72DFA00BF80BD80B500AFFAF727FA00BF80BD80B500AFFAF721FA00BF80BD01
S32D00011F0880B500AFFAF71BFA00BF80BD80B500AFFAF715FA00BF80BD80B500AFFAF70FFA00BF80BD80B500AF26
S32D00011F30FAF709FA00BF80BD80B500AFFAF703FA00BF80BD80B500AFFAF7FDF900BF80BD80B500AFFAF7F7F938
S32D00011F5800BF80BD80B500AFFAF7F1F900BF80BD80B500AFFAF7EBF900BF80BD80B500AFFAF7E5F900BF80BD3F
S32D00011F8080B500AFFAF7DFF900BF80BD80B500AFFAF7D9F900BF80BD80B500AFFAF7D3F900BF80BD80B500AF65
S32D00011FA8FAF7CDF900BF80BD80B500AFFAF7C7F900BF80BD80B500AFFAF7C1F900BF80BD80B500AFFAF7BBF9B2
S32D00011FD000BF80BD80B500AFFAF7B5F900BF80BD80B500AFFAF7AFF900BF80BD80B500AFFAF7A9F900BF80BD7B
S32D00011FF880B500AFFAF7A3F900BF80BD80B500AFFAF79DF900BF80BD80B500AFFAF797F900BF80BD80B500AFA1
S32D00012020FAF791F900BF80BD80B500AFFAF78BF900BF80BD80B500AFFAF785F900BF80BD80B500AFFAF77FF929
S32D0001204800BF80BD80B500AFFAF779F900BF80BD80B500AFFAF773F900BF80BD80B500AFFAF76DF900BF80BDB6
S32D0001207080B500AFFAF767F900BF80BD80B500AFFAF761F900BF80BD80B500AFFAF75BF900BF80BD80B500AFDC
S32D00012098FAF755F900BF80BD80B500AFFAF74FF900BF80BD80B500AFFAF749F900BF80BD80B500AFFAF743F9A1
S32D000120C000BF80BD80B500AFFAF73DF900BF80BD80B500AFFAF737F900BF80BD80B500AFFAF731F900BF80BDF2
S32D000120E880B500AFFAF72BF900BF80BD80B500AFFAF725F900BF80BD80B500AFFAF71FF900BF80BD80B500AF18
S32D00012110FAF719F900BF80BD80B500AFFAF713F900BF80BD80B500AFFAF70DF900BF80BD80B500AFFAF707F918
S32D0001213800BF80BD0000000080B584B000AFF8600B467A60FB72FB68FA7A1A71FB6800225A711749786838F05A
S32D0001216033FD0346002B02D0134B7B600AE04FF07E51786838F014FD0346002B02D04FF07E537B60786837F058
S32D00012188CBFE09A3D3E9002337F01EFF02460B461046194638F0FAF90246FB681A60FB6818461037BD4680BDBA
S32D000121B0ABAAAAAAAAAA20400000404180B582B000AF78607B685B79002B09D07B6800225A717B6819791E23F3
S32D000121D80022034801F064FE00BF0837BD4680BD0C1A002080B584B000AF786039603B687F2B02DD7F23FB73CF
S32D0001220008E03B6813F1800F02DA8023FB7301E03B68FB737B685B79FA7B9A4209D07B68FA7B5A717B68197939
S32D00012228FA7B1E23034801F03BFE00BF1037BD4680BD00BF0C1A0020B0B584B000AF786039603749386838F010
S32D000122509DFC0346002B02D0334B3B6008E03349386838F0B1FC0346002B01D02F4B3B60386837F055FE0446D0
S32D000122780D467B681B68184637F04EFE4FF00002294B37F0CBFF02460B462046294637F09BFE02460B461046EA
S32D000122A0194638F077F903463B604FF00001386838F080FC0346002B10D0386837F030FE17A3D3E9002337F0A7
S32D000122C883FE02460B461046194638F017F90346FB6018E0386837F01FFE4FF00002134B37F072FE02460B4691
S32D000122F0104619464FF000020D4B37F093FF02460B461046194638F0FDF80346FB60F9687868FFF76BFF00BF49
S32D000123181037BD46B0BD00BF52B81E85EB51F43F0000C8C20000C842000059400000604080B483B000AF0346D8
S32D000123400A46FB711346BB71BB79002B03D1134B00221A7002E0114B01221A703823FB710E4B1A78FB79134389
S32D00012368FB710D4B9B78DBB20B4A43F01003DBB29370094B9B78DBB2074A43F02003DBB29370054AFB79137145
S32D0001239000BF0C37BD4680BC704700BFE91700200060064080B483B000AF01237B607B68312B04DC00BF7B68CB
S32D000123B801337B60F7E700BF0C37BD4680BC704780B582B000AF03460A46FB711346BB71134B1B780021184601
S32D000123E0FFF7AAFF00F024F8104AFB79137100F01FF80E4ABB79137100F01AF80B4B9B78DBB20A4A23F0200338
S32D00012408DBB29370074B9B78DBB2064A23F01003DBB29370FFF7C2FF00BF0837BD4680BDEA1700200060064061
S32D0001243080B483B000AF174B1B78002B24D100237B60154BDB78DBB203F00203002B0CBF01230023DBB2002B27
S32D000124580DD07B6842F21072934203DD0B4B01221A7004E07B6801337B6000BFE5E7084BDB78DBB2064A43F010
S32D000124800203DBB2D37000E000BF0C37BD4680BC704700BFEB1700200060064080B582B000AF0346FB71FB79BA
S32D000124A8184600F05FF800BF0837BD4680BD80B582B000AF03460A46FB711346BB7100F035F8FB795B00DBB209
S32D000124D01846FFF7E3FFBB791846FFF7DFFF00F037F800BF0837BD4680BD80B500AFFF2000F03CF80346184616
S32D000124F880BD80B584B000AF0346FB7100F016F8FB795B005BB243F001035BB2DBB21846FFF7C0FFFFF7E5FF13
S32D000125200346FB7300F014F8FB7B18461037BD4680BD000080B400AF044B9B68034A43F48013936000BFBD467D
S32D0001254880BC704740F00F4080B400AF044B5B68034A43F48013536000BFBD4680BC704740F00F4080B485B096
S32D0001257000AF0346FB710023BB73164BDB6A03F00043012B0CBF01230023DBB2002B03D0FB7B0133FB73F0E7F3
S32D000125980E4BDB6A0D4A43F00043D3620B4AFB7953630A4BDB6A03F40033002B0CBF01230023DBB2002B00D06C
S32D000125C0F3E7044B9B6BBB73BB7B18461437BD4680BC704700C00A4080B582B000AF204B03F580531B6B1E4A76
S32D000125E843F4805302F5805213631C4B4FF480721A651B4B5B691A4A43F480135361FFF7A3FF164B4FF40072A6
S32D000126105A65144B4FF400729A65124B4FF40072DA65124B124A1A60104B124ADA6000237B607B68092B06DC5D
S32D00012638FF20FFF72FFF7B6801337B60F5E704A1D1E9000101F0BAFC00BF0837BD4680BD9A9999999999B93F8E
S32D000126600070044000A0044040F00F4000C00A40000C00800500003E90B486B000AFF860B9607A60FB68534AE7
S32D0001268893420AD1524B03F580535B6B504A43F4806302F58052536345E0FB684D4A93420AD14B4B03F58053E2
S32D000126B05B6B494A43F4006302F58052536336E0FB68474A93420AD1434B03F580535B6B414A43F4805302F524
S32D000126D88052536327E0FB68404A93420AD13C4B03F580535B6B3A4A43F4005302F58052536318E0FB683A4A23
S32D0001270093420AD1344B03F580539B6A324A43F4806302F58052936209E02F4B03F580539B6A2D4A43F4006313
S32D0001272802F580529362FB68DB78DBB223F00C03DAB2FB68DA70FB6800229A70BB684FF47A7203FB02F27B6870
S32D000127501B0192FBF3F39CB2FB681B78DBB223F01F03FB75230A9BB2DBB203F01F03DAB2FB7D1343DAB2FB68F0
S32D000127781A70E2B2FB685A70BB684FF4FA4203FB02F27B681B0192FBF3F39AB263019BB2D31A9CB2FB689B7A31
S32D000127A0DBB223F01F03FB75E3B203F01F03DAB2FB7D1343DAB2FB689A72FB68DB78DBB243F00C03DAB2FB6865
S32D000127C8DA7000BF1837BD4690BC704700A006400070044000B0064000C0064000D0064000A00E4080B483B083
S32D000127F000AF78607B681B79DBB203F02003002B0CBF01230023DBB2002B00D0F2E77B68DB79DBB218460C3716
S32D00012818BD4680BC704780B483B000AF78600B46FB707B681B79DBB25BB2DB43DBB2DB09DBB2002B00D0F4E7EE
S32D000128407B68FA78DA7100BF0C37BD4680BC704780B487B000AFF860B9607A60FB687B617B685A1E7A60002BCD
S32D0001286814BF01230023DBB2002B06D07B695A1C7A61BA68D2B21A70EEE700BF1C37BD4680BC704780B584B0EE
S32D0001289000AF786039607B681B6BFB60FA683B689A4252D07B681B79002B35D07B6858787B6803F134010123A8
S32D000128B8FA6801F0F7F80346002B14BF01230023DBB2002B01D001233CE07B6800221A717B685A6A7B681B6AB9
S32D000128E01344FA689A4217D27B68DB78FB72FB7A012B11D97B681B6AFA681344FB607B6858787B6803F13401E2
S32D000129080123FA6801F0CEF8FB7A013BFB72EAE73B68002B15D07B6858787B6803F1340101233A6800F0DAFF73
S32D000129300346002B14BF01230023DBB2002B01D0012303E07B683A681A63002318461037BD4680BD80B584B0E7
