S01100002E2E2F50726F746575732E73313966
S32D0000C000000000205DC2000011C3000017C300001DC3000023C3000029C3000000000000000000000000000073
S32D0000C028000000002FC3000035C30000000000003BC3000041C30000556A0100616A01006D6A0100796A0100B6
S32D0000C050856A0100916A01009D6A0100A96A0100B56A0100C16A0100CD6A0100D96A0100E56A0100F16A010046
S32D0000C078FD6A0100096B0100156B0100216B01002D6B0100396B0100456B0100516B01005D6B0100696B010065
S32D0000C0A0756B0100816B01008D6B0100996B0100A56B0100B16B0100BD6B0100C96B0100D56B0100E16B01008C
S32D0000C0C8ED6B0100F96B0100056C0100116C01001D6C0100296C0100356C0100416C01004D6C0100596C0100AC
S32D0000C0F0656C0100ADE00100716C01007D6C0100896C0100956C0100A16C0100AD6C0100B96C0100C56C010082
S32D0000C118D16C0100DD6C0100E96C0100F56C0100016D01000D6D0100196D0100256D0100316D01003D6D01006B
S32D0000C140496D0100556D0100616D01006D6D010031BD0100796D0100856D0100916D01009D6D0100A96D0100C3
S32D0000C168B56D0100C16D0100CD6D0100D96D0100E56D0100F16D0100FD6D0100096E0100156E0100216E01002C
S32D0000C1902D6E0100396E0100456E010029B90100F1B701008DB80100D9670100C9B90100516E01005D6E010067
S32D0000C1B8696E0100B8EF060000000020C8170000B8EF06000000FF1F00000000C81700200C1D00000000FF1FC4
S32D0000C1E00000000080B489B000AFF860B9607A60BB68FB61FB68BB6100237B617A697B689A420BD2BA69131DFB
S32D0000C208BB61FB69191DF96112681A607B6904337B61EFE700BF2437BD4680BC704780B485B000AF786039609E
S32D0000C2307B68FB600023BB60BA683B689A4208D2FB681A1DFA6000221A60BB680433BB60F2E700BF1437BD46FE
S32D0000C25880BC704780B586B000AF72B6234B4CF220521A80214B4DF628121A80204B4FF4E9721A801F4B7B615F
S32D0000C2807B691F4A934214D27B691A1D7A611B683B617B691A1D7A611B68FB607B691A1D7A611B68BB60BA68E9
S32D0000C2A8F9683869FFF79AFFE6E77B69134A93420ED27B691A1D7A611B68FB607B691A1D7A611B68BB60B9688B
S32D0000C2D0F868FFF7A8FFECE70B4B7B600B4A7B681A6047F05FFC62B60AF03EFB00F044F9FEE700BF0E2005406C
S32D0000C2F800200540BCC10000D4C10000E4C1000008ED00E000C0000080B400AFFEE780B400AFFEE780B400AFF4
S32D0000C320FEE780B400AFFEE780B400AFFEE780B400AFFEE780B400AFFEE780B400AFFEE780B400AFFEE780B426
S32D0000C34800AFFEE7FFFFFFFFFFFFFFFFFFFFFFFFFFFFFFFFFFFFFFFFFFFFFFFFFFFFFFFFFFFFFFFFFFFFFFFF57
S32D0000C370FFFFFFFFFFFFFFFFFFFFFFFFFFFFFFFFFFFFFFFFFFFFFFFFFFFFFFFFFFFFFFFFFFFFFFFFFFFFFFFFC7
S32D0000C398FFFFFFFFFFFFFFFFFFFFFFFFFFFFFFFFFFFFFFFFFFFFFFFFFFFFFFFFFFFFFFFFFFFFFFFFFFFFFFFF9F
S32D0000C3C0FFFFFFFFFFFFFFFFFFFFFFFFFFFFFFFFFFFFFFFFFFFFFFFFFFFFFFFFFFFFFFFFFFFFFFFFFFFFFFFF77
S32D0000C3E8FFFFFFFFFFFFFFFFFFFFFFFFFFFFFFFFFFFFFFFFFFFFFFFFFFFFFFFFFFFFFFFFFFFFFFFFFEFFFFFF50
S32D0000C44010B5054C237833B9044B13B10448AFF300800123237010BDC81700200000000028DC060008B5034B18
S32D0000C4681BB103490348AFF3008008BD00000000CC17002028DC06002DE9B0438AB000AFF860B9607A603B6077
S32D0000C490FA687B68D31A184644F072FA02460B46C7E90823BA683B68D31A184644F068FA02460B46C7E90623C2
S32D0000C4B8D7E90823D7E9080144F0C8FA02460B4614461D463B6C03FB03F3184644F054FA02460B46204629466D
S32D0000C4E044F0E2FB02460B4614461D46D7E90623D7E9060144F0AEFA02460B46904699467B6C03FB03F31846B4
S32D0000C50844F03AFA02460B464046494644F0C8FB02460B462046294644F0E2F802460B46C7E9042301231C4686
S32D0000C5304FF00002074BD7E9040144F007FD0346002B01D100231C46E3B218462837BD46BDE8B0830000F03F26
S32D0000C55880B582B000AF78607B685C3318462FF0C9FD7B6818460837BD4680BD000000002DE9F043ADF50B5DFF
S32D0000C5808BB008AF07F50B5303F10803A3F52C734FF000021A6007F50B5303F10803A3F52C734FF000025A60C5
S32D0000C5A807F50B5303F10803A3F52C734FF000029A60F14B07F50A5202F12C021360002307F50A5202F12B02D7
S32D0000C5D01370012307F50A5202F12A021370032307F50A5202F129021370002307F50A5202F12802137002233D
S32D0000C5F807F50A5202F127021370042307F50A5202F12602137007F50A5303F12A031C7807F50A5303F128037B
S32D0000C6201A7807F50A5303F12B03197807F5B96007F50A5303F12C031B68039307F50A5303F126031B78029306
S32D0000C64807F50A5303F129031B78019307F50A5303F127031B780093234608F073F9022307F50A5202F1250223
S32D0000C670137007F50A5303F12503197807F5B963083BC04A18460AF0F7FB07F5B9630C3B082118460FF008FA7D
S32D0000C69807F5B963103B152118460FF001FA07F5B963143B162118460FF0FAF907F5B963183B172118460FF095
S32D0000C6C0F3F9152307F50A5202F124021370152307F50A5202F123021370152307F50A5202F12202137007F5E3
S32D0000C6E80A5303F122031B7807F50A5202F12302127807F50A5101F12401097807F5AD60043803F023FF07F5DC
S32D0000C710AD63083B0F2118460EF094FD07F5AD63143B072118460FF0B1FC07F5AD63143B40F23A3118460FF0A9
S32D0000C738C5FC07F5AD63143B40F6860118460FF0DAFC07F5A563184607F02CF907F50B5303F10803A3F52873BD
S32D0000C76007F5B9621146184602F060F807F5005202F1280207F5005303F124031146184602F0A1F807F5005232
S32D0000C78802F1240207F5A5631146184607F02EF907F5005303F12403184602F0ACF807F5005303F12803184669
S32D0000C7B002F056F807F50B5303F10803A3F5267007F5B963083B07F5AD62143A07F5B96102F0B7F807F50052DB
S32D0000C7D802F1300207F5005303F12C031146184602F006F907F5005202F12C0207F5A5631146184607F0FAF8E5
S32D0000C80007F5005303F12C03184602F078F807F5005303F13003184602F0BBF807F50B5303F10803A3F52470DA
S32D0000C82807F5AD63043B07F5AD62143A07F5B96102F0FAF807F5005202F1380207F5005303F13403114618469A
S32D0000C85002F049F907F5005202F1340207F5A5631146184607F0C6F807F5005303F13403184602F044F807F59F
S32D0000C878005303F13803184602F0FEF807F50B5303F10803A3F5227307F5B9621146184602F041F907F50152FD
S32D0000C8A007F5005303F13C031146184602F084F907F5005202F13C0207F5A5631146184607F098F807F50053B6
S32D0000C8C803F13C03184602F016F807F50153184602F03BF9002307F50B5202F107021370274B07F50B521360A4
S32D0000C8F04FF0000307F50A5202F13C0213604FF0000307F50A5202F13802136007F5015303F10403184612F0F7
S32D0000C9188DF807F5015202F1040207F5A163194918462FF075FF07F5015303F10403184612F07EF807F5A163B0
S32D0000C940083B184614F09AF807F5015303F12003184612F06FF807F5015202F1200207F5015303F108030A495E
S32D0000C96818462FF055FF07F5015202F1080207F595601C388B2309E00000C040000090409A99193FD84406002B
S32D0000C990E44406000093FF23002103F023F907F5015303F1080318462FF0A8FB07F5015303F12003184612F030
S32D0000C9B83FF807F595631C3B1E21184603F022FC07F5015303F13C03184612F02FF807F5015202F13C0207F59B
S32D0000C9E0015303F12403B74918462FF015FF07F5015202F1240207F5856010388B230093FF23232103F0EEF818
S32D0000CA0807F5015303F1240318462FF073FB07F5015303F13C03184612F00AF807F58563103B1E21184603F006
S32D0000CA30EDFB07F5025303F11803184611F0FAFF07F5025202F1180207F502539E4918462FF0E2FE07F50252F6
S32D0000CA5807F56A7004388B230093FF23462103F0BDF807F5025318462FF044FB07F5025303F11803184611F060
S32D0000CA80DBFF07F56A73043B1E21184603F0BEFB07F5025303F13403184611F0CBFF07F5025202F1340207F533
S32D0000CAA8025303F11C03874918462FF0B1FE07F5025202F11C0207F5527018388B230093FF23692103F08AF82B
S32D0000CAD007F5025303F11C0318462FF00FFB07F5025303F13403184611F0A6FF07F55273183B1E21184603F029
S32D0000CAF889FB012307F50A5202F11C02136007F5B963184609F0FAFA6F480FF044FF6E4810F04AFB002307F516
S32D0000CB200A5202F1370213706A4B1B78002B67D107F50A5303F137031B78002B60D107F58563103B184603F03B
S32D0000CB48EBF907F595631C3B184603F0E5F907F56A73043B184603F0DFF907F55273183B184603F0D9F907F5ED
S32D0000CB708563103B184603F034FB0346002B08D0544B02221A70012307F50A5202F13702137007F595631C3BD5
S32D0000CB98184603F022FB0346002B08D04B4B01221A70012307F50A5202F13702137007F56A73043B184603F0DE
S32D0000CBC010FB0346002B08D0424B03221A70012307F50A5202F13702137007F55273183B184603F0FEFA0346E3
S32D0000CBE8002B9DD0394B04221A70012307F50A5202F13702137093E707F50B5303F10803A3F52C73196807F5A1
S32D0000CC100B5303F10803A3F52C735A6807F50B5303F10803A3F52C739B6807F5B96008F027F927480FF0B3FEC1
S32D0000CC38254810F0B9FA002307F50A5202F13602137007F50A5303F136031B78002B41F0E18507F5B963184634
S32D0000CC6009F037FA1B4B1B78012B35D10EF0CEFA0346184644F0ECFA034607F5085202F12402136007F5B96387
S32D0000CC880121184609F07AF907F5A563184606F0C1FE07F5A563184606F032FF0346002BCFD0012307F50A5263
S32D0000CCB002F13602137007F5B963184608F076FAC3E700BFEC440600F844060004450600D41A0020E517002070
S32D0000CCD8DF4B1B78032B40F02F86DE4B07F5095202F11802136007F5035303F11003184611F09CFE07F50352BB
S32D0000CD0002F1100207F5025303F13803D44918462FF082FD07F5025303F1380307F1080004384FF4C8420192CB
S32D0000CD284FF47F0200924FF00002CC4903F00CF807F5025303F1380318462FF0DBF907F5035303F110031846B2
S32D0000CD5011F072FE07F10803043B1E21184603F055FA07F10803043B184603F0D9F807F5035303F12C031846EC
S32D0000CD7811F05CFE07F5035202F12C0207F5035303F11403B64918462FF042FD07F5035303F1140307F18800CB
S32D0000CDA010384FF4C84201924FF400420092AF4AAC4902F0CDFF07F5035303F1140318462FF09CF907F50353B9
S32D0000CDC803F12C03184611F033FE07F18803103B1E21184603F016FA07F18803103B184603F09AF807F5045318
S32D0000CDF003F10803184611F01DFE07F5045202F1080207F5035303F13003994918462FF003FD07F5035303F12F
S32D0000CE18300307F584701C384FF4C84201924FF6FF720092914A8D4902F08EFF07F5035303F1300318462FF027
S32D0000CE405DF907F5045303F10803184611F0F4FD07F584731C3B1E21184603F0D7F907F584731C3B184603F087
S32D0000CE685BF87E4907F5095303F11803186844F03BF903461C4607F5045303F12403184611F0D4FD07F5045298
S32D0000CE9002F1240207F5045303F10C03764918462FF0BAFC07F5045303F10C0307F5C47028384FF40B0201924A
S32D0000CEB84FF47F0200924FF00002214602F044FF07F5045303F10C0318462FF013F907F5045303F1240318466E
S32D0000CEE011F0AAFD07F5C473283B1E21184603F08DF907F5C473283B184603F011F8594907F5095303F11803D7
S32D0000CF08186844F0F1F803461C4607F50553184611F08CFD07F5055207F5045303F12803544918462FF074FC28
S32D0000CF3007F5045303F1280307F5027034384FF40B0201924FF400420092484A214602F0FFFE07F5045303F15E
S32D0000CF58280318462FF0CEF807F50553184611F067FD07F50273343B1E21184603F04AF907F50273343B184635
S32D0000CF8002F0CEFF374907F5095303F11803186844F0AEF803461C4607F5055303F11C03184611F047FD07F5D2
S32D0000CFA8055202F11C0207F5055303F10403324918462FF02DFC07F5055303F1040307F512704FF40B020192D3
S32D0000CFD04FF6FF720092274A214602F0B9FE07F5055303F1040318462FF088F807F5055303F11C03184611F058
S32D0000CFF81FFD07F512731E21184603F003F907F51273184602F088FF07F10803043B184603F0E3F80346002BA8
S32D0000D02030D007F50B53186843F0BCFC08A3D3E9002343F059FB02460B461046194644F001F8034607F50B52EF
S32D0000D04813601BE0AFF300809A9999999999B93FE517002000005C4314450600000070411C45060000000C421B
S32D0000D0702445060000008C422C450600344506003C45060007F5C473283B184603F0A9F80346002B13D007F5FD
S32D0000D0980B53186843F082FCC9A3D3E9002343F01DFB02460B461046194643F0C7FF034607F50B52136007F1F1
S32D0000D0C08803103B184603F08CF80346002B17D007F50A5303F13C03186843F063FCBCA3D3E9002343F000FB32
S32D0000D0E802460B461046194643F0A8FF034607F50A5202F13C02136007F50273343B184603F06BF80346002BA5
S32D0000D11017D007F50A5303F13C03186843F042FCABA3D3E9002343F0DDFA02460B461046194643F087FF034606
S32D0000D13807F50A5202F13C02136007F584731C3B184603F04AF80346002B17D007F50A5303F13803186843F05A
S32D0000D16021FC9BA3D3E9002343F0BEFA02460B461046194643F066FF034607F50A5202F13802136007F51273D4
S32D0000D188184603F02AF80346002B17D007F50A5303F13803186843F001FC8BA3D3E9002343F09CFA02460B4604
S32D0000D1B01046194643F046FF034607F50A5202F13802136007F5B96007F50A5303F138031B68009307F50A53D7
S32D0000D1D803F13C031B6807F50B521268012108F020FF07F5B96007F50A5303F138031B68009307F50A5303F167
S32D0000D2003C031B6807F50B521268022108F00DFF07F5B96007F50A5303F138031B68009307F50A5303F13C0305
S32D0000D2281B6807F50B521268032108F0FAFEB4236422674967480FF007FCB423782207F50B51096863480FF0CC
S32D0000D25053FCC8236422624960480FF0F9FBC823782207F50A5101F13C0109685B480FF043FCDC2364225B4924
S32D0000D27858480FF0E9FBDC23782207F50A5101F13801096853480FF033FC64230022544950480FF0D9FB07F503
S32D0000D2A0B963184608F047FF0146642328224B480FF022FC782300224C4948480FF0C8FB07F5B963184607F0CF
S32D0000D2C8CCFF01467823282242480FF011FC8C23002245493F480FF0B7FB07F5B963184608F034FF01468C237D
S32D0000D2F028223A480FF000FC07F5055303F13803184611F097FB07F5055202F1380207F5055303F1200337496A
S32D0000D31818462FF07DFA07F5055202F1200207F532700C38324B00936FF07F43002102F055FC07F5055303F1CC
S32D0000D340200318462EF0DAFE07F5055303F13803184611F071FB07F532730C3B1E21184602F054FF07F532738F
S32D0000D3680C3B184602F0D8FD07F5B9630221184608F089FE07F5095303F11403186007F5095303F11403186855
S32D0000D39009F000FA07F5095303F1100318603C23962207F5095101F1100109680B480FF087FB07F532730C3B08
S32D0000D3B8184602F012FF0346002B00F0028119E09A9999999999B93FFCA9F1D24D62503F44450600D41A002034
S32D0000D3E0484506004C450600504506005845060060450600684506006666660007F5095303F11403186809F04B
S32D0000D408A2F907F5095303F10C03186007F5095303F11403186809F0ADF907F5095303F10803186007F50953DF
S32D0000D43003F11403186809F095F907F5095303F10403186007F5095303F11403186809F0ADF907F5095318609F
S32D0000D4584D4A4E494E4810F05FFF07F5085303F13C03186007F5B963184607F09BFE494A07F5085303F13C035F
S32D0000D4801968454811F0A8F8002307F50A5202F13002136007F5095303F11403186809F091F9024607F50A53B5
S32D0000D4A803F130031B689A428CBF01230023DBB2002B75D03C23C82207F50A5101F13001096835480FF0F8FA9F
S32D0000D4D007F50A5303F130031B689B0007F5095202F10C02126813441B68184643F05AFA04460D4607F50A5309
S32D0000D4F803F130031B689B0007F5095202F10802126813441B68184643F048FA8046894607F50A5303F1300331
S32D0000D5201B689B0007F50952126813441E6807F50A5303F130031B689B0007F5095202F10402126813441B68CF
S32D0000D548184643F02BFA02460B46CDE906230496CDE90289CDE90045104A07F5085303F13C0319680A4811F0F9
S32D0000D57033F896200DF00EFE07F50A5303F130031B68013307F50A5202F13002136081E770450600744506009A
S32D0000D598501B00207C450600D41A00208845060007F5085303F13C031968BF4810F080FF78230022BD49BE48D8
S32D0000D5C00FF046FABC480FF0EAF9BC4B07F5085202F138021360BA4B07F5085202F13402136007F5085303F1D9
S32D0000D5E83403186844F064F80446B44907F5085303F13803186843F077FD0346184644F057F803462246AE4908
S32D0000D610A9480FF01DFA07F50B5303F10803A3F52C731C6807F5085303F13403186844F043F80546A54907F52B
S32D0000D638085303F13803186843F056FD0346184644F036F803462A46214699480FF050FA07F5085303F134035F
S32D0000D660186844F029F80446994907F5085303F13803186843F03CFD0346184644F01CF80346224693498C48D9
S32D0000D6880FF0E2F907F50B5303F10803A3F52C735C6807F5085303F13403186844F008F805468B4907F508539A
S32D0000D6B003F13803186843F01BFD0346184643F0FBFF03462A4621467B480FF015FA834B07F5085202F1300244
S32D0000D6D813607D4B07F5085202F12C02136007F5B9630121184608F049FC322307F5085202F128021360FF21CF
S32D0000D7006D480FF092F907F5085303F12803186843F09EFD044607F5085303F12803186843F096FD0346009316
S32D0000D728234607F5085202F12C02126807F5085101F1300109685E480FF0E4FF07F5A562083A07F5A563043B80
S32D0000D750194659480FF08CFA0346002B00F0C08007F5965303F10803A3F6A4531B68184643F0A2FF044607F513
S32D0000D778965303F10803A3F6A8531B68184643F097FF054607F5085303F13003186843F08FFF064607F50853B0
S32D0000D7A003F12C03186843F087FF014607F5085303F128031B6807F5085202F128021268019200930B463246E3
S32D0000D7C829462046FEF758FE0346002B00F0898007F5965303F10803A3F6A4531B6807F5085202F130021168BB
S32D0000D7F0184643F07BFC03461C4607F5085303F12803186843F024FD03461946204643F02BFE034683F00042A6
S32D0000D81807F50B5303F10803A3F52C731A6007F5965303F10803A3F6A8531B6807F5085202F12C02116818468F
S32D0000D84043F054FC03461C4607F5085303F12803186843F0FDFC03461946204643F004FE03461A4607F50B5324
S32D0000D86803F10803A3F52C735A6007F50B5303F10803A3F52C73196807F50B5303F10803A3F52C735A6807F543
S32D0000D8900B5303F10803A3F52C739B6807F5B96007F0EEFA07F5B963184607F00BFB1CE0501B0020C0450600DA
S32D0000D8B8D41A002000001643000034430000B442CC4506000000D2420000F042D8450600000007430000204341
S32D0000D8E007F5B963184607F0EDFA07F532730C3B1846FEF731FE07F512731846FEF72CFE07F50273343B184620
S32D0000D908FEF726FE07F5C473283B1846FEF720FE07F584731C3B1846FEF71AFE07F18803103B1846FEF714FEE9
S32D0000D93007F10803043B1846FEF70EFEFFF785B9C34B1B78042B40F0E18307F5B963184607F03AFD4FF00003AA
S32D0000D95807F5095202F13C021360BC4B07F5095202F138021360BA4B07F5095202F1340213604FF0000107F574
S32D0000D980095303F13C03186843F0B2FB0346184643F092FE03460022B049B1480FF058F807F5B963184607F007
S32D0000D9A87BFC03461C68AD4907F5095303F13C03186843F099FB0346184643F079FE034600222146A4480FF037
S32D0000D9D093F8A04907F5095303F13C03186843F087FB0346184643F067FE034600229E499B480FF02DF807F561
S32D0000D9F8B963184607F050FC034604331C68994907F5095303F13C03186843F06DFB0346184643F04DFE03464A
S32D0000DA20002221468E480FF067F8914907F5095303F13C03186843F05BFB0346184643F03BFE034600228B495B
S32D0000DA4885480FF001F807F5B963184607F024FC034608331C68864907F5095303F13C03186843F041FB0346C4
S32D0000DA70184643F021FE03460022214678480FF03BF87E4907F5095303F13C03186843F02FFB0346184643F00B
S32D0000DA980FFE0346002278496F480EF0D5FF07F5AD63083B18460DF0A5FC03461C46734907F5095303F13C0361
S32D0000DAC0186843F015FB0346184643F0F5FD03460022214662480FF06BF86B4B07F5095202F130021360694B72
S32D0000DAE807F5095202F12C021360674B07F5095202F1280213605F4907F5095303F13803186843F0F1FA034676
S32D0000DB10184643F0D1FD034600225E4950480EF097FF07F5B963103B18460DF0CDFF034607F5095202F13002FB
S32D0000DB381168184643F0D8FA03461C464F4907F5095303F13803186843F0CEFA0346184643F0AEFD03460022AE
S32D0000DB6021463F480EF0C8FF4B4907F5095303F13803186843F0BCFA0346184643F09CFD034600224549364876
S32D0000DB880EF062FF07F5B963143B18460DF098FF034607F5095202F12C021168184643F0A3FA03461C463C491F
S32D0000DBB007F5095303F13803186843F099FA0346184643F079FD03460022214624480EF093FF344907F5095387
S32D0000DBD803F13803186843F087FA0346184643F067FD034600222E491B480EF02DFF07F5B963183B18460DF049
S32D0000DC0063FF034607F5095202F128021168184643F06EFA03461C46244907F5095303F13803186843F064FAB5
S32D0000DC280346184643F044FD0346002221460A480EF05EFF07F5065303F11403184610F0F5FE07F506522FE020
S32D0000DC50E51700200000F0410000BE42E0450600D41A002000007041E84506000000344200007042F0450600D9
S32D0000DC78000096420000B442FC4506000000D242E8B401BDE742523DFD1BA1BC0C4606000000024314460600D1
S32D0000DCA000001143000020431C46060000002F4302F1140207F5055303F13C038F4918462EF0AAFD07F50552E7
S32D0000DCC802F13C0207F5C47028384FF4C84300934FF40043002101F081FF07F5055303F13C0318462EF006FA71
S32D0000DCF007F5065303F11403184610F09DFE07F5C473283B1E21184602F080FA07F5065303F13003184610F034
S32D0000DD188DFE07F5065202F1300207F5065303F11803754918462EF073FD07F5065202F1180207F50270343890
S32D0000DD404FF40B0300934FF47F031E2101F04AFF07F5065303F1180318462EF0CFF907F5065303F13003184611
S32D0000DD6810F066FE07F50273343B1E21184602F049FA07F5075303F10C03184610F056FE07F5075202F10C0216
S32D0000DD9007F5065303F134035A4918462EF03CFD07F5065202F1340207F512708B230093FF23B42101F016FF54
S32D0000DDB807F5065303F1340318462EF09BF907F5075303F10C03184610F032FE07F512731E21184602F016FAA6
S32D0000DDE007F5075303F12803184610F023FE07F5075202F1280207F5075303F11003424918462EF009FD07F549
S32D0000DE08075202F1100207F532700C388B230093FF23D22101F0E2FE07F5075303F1100318462EF067F907F550
S32D0000DE30075303F12803184610F0FEFD07F532730C3B1E21184602F0E1F907F50273343B184602F065F807F518
S32D0000DE58C473283B184602F05FF807F51273184602F05AF807F532730C3B184602F054F807F51273184602F0E3
S32D0000DE80A5F90346002B07D007F5AD63143B4FF0000118460EF050F907F532730C3B184602F094F90346002B12
S32D0000DEA806D007F5AD63143B164918460EF040F907F5C473283B184602F084F90346002B07D007F5B963083B1E
S32D0000DED00F49184609F050F824E007F50273343B184602F073F90346002B15D007F5B963083B0849184609F031
S32D0000DEF83FF813E024460600304606003C46060048460600000034430000A0420000A0C207F5B963083B184656
S32D0000DF2008F0E8FF764B07F5095202F124021360744B07F5095202F12002136007F5B9630121184608F01EF80C
S32D0000DF48322307F5095202F11C021360FF216C480EF067FD07F5095303F11C03186843F073F9044607F5095319
S32D0000DF7003F11C03186843F06BF903460093234607F5095202F12002126807F5095101F1240109685C480FF0AD
S32D0000DF98B9FB07F5A562083A07F5A563043B194657480EF061FE0346002B00F0878007F5965303F10803A3F6DC
S32D0000DFC0A4531B68184643F077FB044607F5965303F10803A3F6A8531B68184643F06CFB054607F5095303F1E2
S32D0000DFE82403186843F064FB064607F5095303F12003186843F05CFB014607F5095303F11C031B6807F5095281
S32D0000E01002F11C021268019200930B46324629462046FEF72DFA0346002B50D007F5965303F10803A3F6A4536F
S32D0000E0381B6807F5095202F124021168184643F051F803461C4607F5095303F11C03186843F0FAF80346194611
S32D0000E060204643F001FA034683F000431946184643F03EF803461A4607F50B5303F10803A3F52C731A6007F52A
S32D0000E0880B5303F10803A3F52C73196807F50B5303F10803A3F52C735A6807F50B5303F10803A3F52C739B6870
S32D0000E0B007F5B96006F0E4FE07F5B963184606F001FF04E007F5B963184607F06FF807F532730C3B1846FEF7F6
S32D0000E0D83FFA07F512731846FEF73AFA07F50273343B1846FEF734FA07F5C473283B1846FEF72EFAFEF7A5BD10
S32D0000E100000020430000F042D41A00204FF0000307F50A5202F118021360C44B07F50A5202F1140213604FF012
S32D0000E128000107F50A5303F11803186842F0DCFF0346184643F0BCFA03460022BA49BB480EF082FC07F5B9633E
S32D0000E150184607F079F80446B74907F50A5303F11803186842F0C4FF0346184643F0A4FA034600222146AF4873
S32D0000E1780EF0BEFCAF4907F50A5303F11803186842F0B2FF0346184643F092FA03460022A949A6480EF058FCFB
S32D0000E1A007F5B963184607F05CF80446A54907F50A5303F11803186842F09AFF0346184643F07AFA03460022EC
S32D0000E1C821469A480EF094FC9D4907F50A5303F11803186842F088FF0346184643F068FA03460022974991486B
S32D0000E1F00EF02EFC07F5B963184607F041F80446934907F50A5303F11803186842F070FF0346184643F050FA60
S32D0000E21803460022214685480EF06AFC4FF0000107F50A5303F11403186842F05DFF0346184643F03DFA0346C9
S32D0000E240002284497B480EF003FC07F5B963184606F0CEFF0446784907F50A5303F11403186842F045FF03461A
S32D0000E268184643F025FA0346002221466F480EF03FFC704907F50A5303F11403186842F033FF0346184643F03B
S32D0000E29013FA03460022704966480EF0D9FB07F5B963184606F0B1FF0446664907F50A5303F11403186842F084
S32D0000E2B81BFF0346184643F0FBF90346002221465A480EF015FC5E4907F50A5303F11403186842F009FF0346BF
S32D0000E2E0184643F0E9F9034600225C4951480EF0AFFB07F5B963184606F096FF0446544907F50A5303F1140300
S32D0000E308186842F0F1FE0346184643F0D1F903460022214645480EF0EBFB4F4907F50A5303F11403186842F0B1
S32D0000E330DFFE0346184643F0BFF90346002249493C480EF085FB07F5B9630C3B18460DF0BBFB0446444907F50E
S32D0000E3580A5303F11403186842F0C6FE0346184643F0A6F903460022214630480EF0C0FB334B07F50A5202F174
S32D0000E38010021360394B07F50A5202F10C02136007F50A5303F10C03186843F08DF904462F4907F50A5303F1F6
S32D0000E3A81003186842F0A0FE0346184643F080F9034622462C491D480EF046FB07F50B5303F10803A3F52C7337
S32D0000E3D01C6807F50A5303F10C03186843F06CF90546214907F50A5303F11003186842F07FFE0346184643F009
S32D0000E3F85FF903462A4621460C480EF079FB07F50A5303F10C03186843F052F90446174907F50A5303F1100355
S32D0000E420186842F065FE034626E000BF0000BE4254460600D41A0020000070410000F0416046060000003442F9
S32D0000E448000070427046060000009642804606008C4606009C4606000000B442AC4606000000D242000034435B
S32D0000E470CC4506000000F042184643F01DF903462246D349D3480EF0E3FA07F50B5303F10803A3F52C735C6877
S32D0000E49807F50A5303F10C03186843F009F90546CB4907F50A5303F11003186842F01CFE0346184643F0FCF8EC
S32D0000E4C003462A462146C3480EF016FB07F5085303F10403184610F0ADFA07F5085202F1040207F5075303F104
S32D0000E4E82C03BC4918462EF093F907F5075303F12C0307F512708B2201924FF400420092B54AB64901F020FC71
S32D0000E51007F5075303F12C0318462DF0EFFD07F5085303F10403184610F086FA07F512731E21184601F06AFE56
S32D0000E53807F5085303F12003184610F077FA07F5085202F1200207F5085303F10803A44918462EF05DF907F5FC
S32D0000E560085303F1080307F532700C388B2201924FF6FF7200929D4A9A4901F0E9FB07F5085303F10803184676
S32D0000E5882DF0B8FD07F5085303F12003184610F04FFA07F532730C3B1E21184601F032FE07F51273184601F008
S32D0000E5B0B7FC07F532730C3B184601F0B1FC07F532730C3B184601F001FE0346002B05D0002307F50B5202F1B8
S32D0000E5D80702137007F51273184601F0F3FD0346002B08D0012307F50B5202F10702137076480EF0D0F907F500
S32D0000E6000B5303F107031A7807F5B9631146184607F0B8FC764B07F50A5202F108021360744B07F50A5202F1F3
S32D0000E62804021360322307F50A521360FF2167480EF0F7F907F50A53186842F005FE044607F50A53186842F00B
S32D0000E650FFFD03460093234607F50A5202F10402126807F50A5101F10801096859480FF04DF807F5A562083AA3
S32D0000E67807F5A563043B194654480EF0F5FA0346002B00F0B58007F5965303F10803A3F6A4531B68184643F028
S32D0000E6A00BF8044607F5965303F10803A3F6A8531B68184643F000F8054607F50A5303F10803186842F0F8FF2F
S32D0000E6C8064607F50A5303F10403186842F0F0FF014607F50A531B6807F50A521268019200930B463246294690
S32D0000E6F02046FDF7C5FE0346002B00F0828007F5965303F10803A3F6A4531B6807F50A5202F108021168184656
S32D0000E71842F0E8FC03461C4607F50A53186842F093FD03461946204642F09AFE034683F0004207F50B5303F153
S32D0000E7400803A3F52C731A6007F5965303F10803A3F6A8531B6807F50A5202F104021168184642F0C3FC034692
S32D0000E7681C4607F50A53186842F06EFD03461946204642F075FE03461A4607F50B5303F10803A3F52C735A6005
S32D0000E79007F50B5303F10803A3F52C73196807F50B5303F10803A3F52C735A6807F50B5303F10803A3F52C7368
S32D0000E7B89B6807F5B96006F05FFB07F5B963184606F07CFB19E000BFD8450600D41A002000000743B8460600B1
S32D0000E7E00000704200007A43BC4606000000BE42000020430000F04207F5B963184606F0D5FC07F532730C3BDA
S32D0000E8081846FDF7A5FE07F512731846FDF7A0FEFEF717BA024B00221A70FEF775B900BFE5170020B0B582B028
S32D0000E83000AF78603960386800F0DAF90546442010F028F803461C462946204602F032FE2146786800F0E6F9B0
S32D0000E85878680837BD46B0BD90B585B000AF78607B68184600F0E9F9F860FB681B68002B0CD0786800F0EEF9F3
S32D0000E8800446F86800F0F7F903461B681946204600F0FBF9FB6800221A607B6818461437BD4690BD80B584B027
S32D0000E8A800AFF860B9607A60FB68B9687A68184600F00FFAFB6818461037BD4680BDB0B582B000AF786039608C
S32D0000E8D07C68386800F0EAF90546386800F0BEF90346184600F0EFF903461A4629462046FFF7D8FF7B68184626
S32D0000E8F80837BD46B0BD90B585B000AF78607B68184600F0FCF9F860FB681B68002B0CD0786800F001FA0446C2
S32D0000E920F86800F00AFA03461B681946204600F00EFAFB6800221A607B6818461437BD4690BD2DE9F04184B096
S32D0000E94800AFF860B9607A603B60B86800F04CF90546786800F008FA0646386800F00EFA80464C200FF092FFF4
S32D0000E97003461C46434632462946204604F016F82146F86800F018FAF8681037BD46BDE8F08190B585B000AF44
S32D0000E99878607B68184600F01AFAF860FB681B68002B0CD0786800F01FFA0446F86800F028FA03461B6819461F
S32D0000E9C0204600F02CFAFB6800221A607B6818461437BD4690BD80B584B000AFF860B9607A60FB68B9687A6809
S32D0000E9E8184600F040FAFB6818461037BD4680BDB0B582B000AF786039607C68386800F01BFA0546386800F016
S32D0000EA10EFF90346184600F020FA03461A4629462046FFF7D8FF7B6818460837BD46B0BD2DE9F04184B000AFDA
S32D0000EA38F860B9607A603B60B86800F0D5F80546786800F091F90646386800F022FA80464C200FF01BFF0346BC
S32D0000EA601C46434632462946204603F041FA2146F86800F02CFAF8681037BD46BDE8F08190B585B000AF786084
S32D0000EA887B68184600F02EFAF860FB681B68002B0CD0786800F033FA0446F86800F03CFA03461B681946204664
S32D0000EAB000F040FAFB6800221A607B6818461437BD4690BD80B584B000AFF860B9607A60FB68B9687A6818460C
S32D0000EAD800F054FAFB6818461037BD4680BDB0B582B000AF786039607C68386800F02FFA0546386800F003FA5E
S32D0000EB000346184600F034FA03461A4629462046FFF7D8FF7B6818460837BD46B0BDB0B582B000AF7860396030
S32D0000EB28386800F061F8054644200FF0AFFE03461C462946204601F0A1FE2146786800F043FA78680837BD46D5
S32D0000EB50B0BD90B585B000AF78607B68184600F046FAF860FB681B68002B0CD0786800F04BFA0446F86800F0C4
S32D0000EB7854FA03461B681946204600F058FAFB6800221A607B6818461437BD4690BD80B584B000AFF860B960EA
S32D0000EBA07A60FB68B9687A68184600F06CFAFB6818461037BD4680BDB0B582B000AF786039607C68386800F0E0
S32D0000EBC847FA0546386800F01BFA0346184600F04CFA03461A4629462046FFF7D8FF7B6818460837BD46B0BDD6
S32D0000EBF080B483B000AF78607B6818460C37BD4680BC704780B582B000AF786039607B683A681146184600F0DE
S32D0000EC184CFA7B6818460837BD4680BD80B582B000AF786039607B6839681846FFF7E6FF7B6818460837BD4601
S32D0000EC4080BD80B582B000AF78607B68184600F044FA034618460837BD4680BD80B582B000AF78607B681846B7
S32D0000EC6800F044FA034618460837BD4680BD80B483B000AF78607B6818460C37BD4680BC704780B582B000AFAC
S32D0000EC90786039603B68002B04D01A68183212681846904700BF0837BD4680BD80B582B000AF78607B6818465B
S32D0000ECB800F029FA034618460837BD4680BD80B483B000AF78607B6818460C37BD4680BC704790B585B000AF64
S32D0000ECE0F860B9607A60FC687868FFF7ECFF024607F108031946204600F01EFAFB6818461437BD4690BD80B5ED
S32D0000ED0882B000AF78607B68184600F02AFA034618460837BD4680BD80B582B000AF78607B68184600F02AFA66
S32D0000ED30034618460837BD4680BD80B483B000AF78607B6818460C37BD4680BC704780B582B000AF78603960A0
S32D0000ED583B68002B04D01A68183212681846904700BF0837BD4680BD80B483B000AF78607B6818460C37BD46BD
S32D0000ED8080BC704780B483B000AF78607B6818460C37BD4680BC704780B582B000AF786039607B683A681146A7
S32D0000EDA8184600F005FA7B6818460837BD4680BD80B582B000AF786039607B6839681846FFF7E6FF7B681846AB
S32D0000EDD00837BD4680BD80B582B000AF78607B68184600F0FDF9034618460837BD4680BD80B582B000AF78606D
S32D0000EDF87B68184600F0FDF9034618460837BD4680BD80B483B000AF78607B6818460C37BD4680BC704780B503
S32D0000EE2082B000AF786039603B68002B04D01A68183212681846904700BF0837BD4680BD80B582B000AF786029
S32D0000EE487B68184600F0E2F9034618460837BD4680BD80B483B000AF78607B6818460C37BD4680BC704790B5BD
S32D0000EE7085B000AFF860B9607A60FC687868FFF7ECFF024607F108031946204600F0D7F9FB6818461437BD4641
S32D0000EE9890BD80B483B000AF78607B6818460C37BD4680BC704780B582B000AF786039607B683A6811461846D6
S32D0000EEC000F0D6F97B6818460837BD4680BD80B582B000AF786039607B6839681846FFF7E6FF7B6818460837E1
S32D0000EEE8BD4680BD80B582B000AF78607B68184600F0CEF9034618460837BD4680BD80B582B000AF78607B68DF
S32D0000EF10184600F0CEF9034618460837BD4680BD80B483B000AF78607B6818460C37BD4680BC704780B582B0C9
S32D0000EF3800AF786039603B68002B04D01A68183212681846904700BF0837BD4680BD80B582B000AF78607B685F
S32D0000EF60184600F0B3F9034618460837BD4680BD80B483B000AF78607B6818460C37BD4680BC704790B585B081
S32D0000EF8800AFF860B9607A60FC687868FFF7ECFF024607F108031946204600F0A8F9FB6818461437BD4690BD3F
S32D0000EFB080B582B000AF786039607B683A681146184600F0B1F97B6818460837BD4680BD80B582B000AF78602A
S32D0000EFD839607B6839681846FFF7E6FF7B6818460837BD4680BD80B582B000AF78607B68184600F0A9F90346EB
S32D0000F00018460837BD4680BD80B582B000AF78607B68184600F0A9F9034618460837BD4680BD80B483B000AF08
S32D0000F02878607B6818460C37BD4680BC704780B582B000AF786039603B68002B04D01A681832126818469047C4
S32D0000F05000BF0837BD4680BD80B582B000AF78607B68184600F08EF9034618460837BD4680BD80B483B000AF72
S32D0000F07878607B6818460C37BD4680BC704790B585B000AFF860B9607A60FC687868FFF7ECFF024607F1080334
S32D0000F0A01946204600F083F9FB6818461437BD4690BD80B582B000AF786039607B68184600F08EF97868FFF7A0
S32D0000F0C8BCFD02463B6813607B6818460837BD4680BD80B582B000AF78607B68184600F095F9034618460837B0
S32D0000F0F0BD4680BD80B582B000AF78607B68184600F094F9034618460837BD4680BD80B584B000AF7860786810
S32D0000F118FFF793FD03461B68FB607868FFF78DFD034600221A60FB6818461037BD4680BDB0B584B000AFF860EF
S32D0000F140B9607A60FC68B86800F07CF905467868FFF7B9FD03461A462946204600F07CF9FB6818461037BD4600
S32D0000F168B0BD80B582B000AF78607B68184600F08BF9034618460837BD4680BD80B582B000AF78607B68184614
S32D0000F19000F08AF9034618460837BD4680BD80B582B000AF78607B68184600F089F9034618460837BD4680BDF1
S32D0000F1B880B582B000AF786039607B68184600F091F97868FFF703FE02463B6813607B6818460837BD4680BDF2
S32D0000F1E080B582B000AF78607B68184600F098F9034618460837BD4680BD80B582B000AF78607B68184600F00C
S32D0000F20897F9034618460837BD4680BD80B584B000AF78607868FFF7DAFD03461B68FB607868FFF7D4FD03466E
S32D0000F23000221A60FB6818461037BD4680BDB0B584B000AFF860B9607A60FC68B86800F0F9F805467868FFF7B3
S32D0000F25800FE03461A462946204600F075F9FB6818461037BD46B0BD80B582B000AF786039607B68184600F07E
S32D0000F28083F97868FFF732FE02463B6813607B6818460837BD4680BD80B582B000AF78607B68184600F08AF91E
S32D0000F2A8034618460837BD4680BD80B582B000AF78607B68184600F089F9034618460837BD4680BD80B584B0E2
S32D0000F2D000AF78607868FFF709FE03461B68FB607868FFF703FE034600221A60FB6818461037BD4680BDB0B51C
S32D0000F2F884B000AFF860B9607A60FC68B86800F09DF805467868FFF72FFE03461A462946204600F067F9FB6832
S32D0000F32018461037BD46B0BD80B582B000AF786039607B68184600F075F97868FFF757FE02463B6813607B6818
S32D0000F34818460837BD4680BD80B582B000AF78607B68184600F07CF9034618460837BD4680BD80B582B000AFEA
S32D0000F37078607B68184600F07BF9034618460837BD4680BD80B584B000AF78607868FFF72EFE03461B68FB60B3
S32D0000F3987868FFF728FE034600221A60FB6818461037BD4680BDB0B584B000AFF860B9607A60FC68B86800F017
S32D0000F3C041F805467868FFF754FE03461A462946204600F059F9FB6818461037BD46B0BD80B582B000AF78604D
S32D0000F3E87B68184600F068F97B6818460837BD4680BD80B582B000AF78607B68184600F06BF90346184608373C
S32D0000F410BD4680BD80B582B000AF78607868FFF7ECFF034618460837BD4680BD80B582B000AF7860786800F0FB
S32D0000F43869F9034618460837BD4680BD80B483B000AF78607B6818460C37BD4680BC704790B585B000AFF86035
S32D0000F460B9607A607868FFF72EFC03461946F86800F058F9FC68B868FFF7E4FF03461946204600F061F9FB682A
S32D0000F48818461437BD4690BD80B582B000AF78607868FFF780FE034618460837BD4680BD80B582B000AF786007
S32D0000F4B0786800F05AF9034618460837BD4680BD80B483B000AF78607B6818460C37BD4680BC704780B582B016
S32D0000F4D800AF7860786800F050F9034618460837BD4680BD80B582B000AF78607B68184600F04DF97B6818469A
S32D0000F5000837BD4680BD80B582B000AF78607B68184600F050F9034618460837BD4680BD80B582B000AF7860E2
S32D0000F5287868FFF7ECFF034618460837BD4680BD80B582B000AF7860786800F04EF9034618460837BD4680BDA3
S32D0000F55090B585B000AFF860B9607A607868FFF77CFC03461946F86800F047F9FC68B868FFF768FF034619460A
S32D0000F578204600F0E5F8FB6818461437BD4690BD80B582B000AF78607B68184600F043F97B6818460837BD46F8
S32D0000F5A080BD80B582B000AF78607B68184600F046F9034618460837BD4680BD80B582B000AF78607868FFF7B8
S32D0000F5C8ECFF034618460837BD4680BD80B582B000AF7860786800F044F9034618460837BD4680BD90B585B069
S32D0000F5F000AFF860B9607A607868FFF7B9FC03461946F86800F03DF9FC68B868FFF71AFF03461946204600F0A9
S32D0000F61897F8FB6818461437BD4690BD80B582B000AF78607B68184600F039F97B6818460837BD4680BD80B593
S32D0000F64082B000AF78607B68184600F03CF9034618460837BD4680BD80B582B000AF78607868FFF7ECFF03465F
S32D0000F66818460837BD4680BD80B582B000AF7860786800F03AF9034618460837BD4680BD90B585B000AFF860FF
S32D0000F690B9607A607868FFF7ECFC03461946F86800F033F9FC68B868FFF7CCFE03461946204600F049F8FB6891
S32D0000F6B818461437BD4690BD80B582B000AF7860786800F030F97B68184600F038F97B6818460837BD4680BD22
S32D0000F6E080B483B000AF78607B6818460C37BD4680BC704780B582B000AF7860786800F02FF9034618460837C8
S32D0000F708BD4680BD80B582B000AF78607868FFF7EDFF034618460837BD4680BD80B582B000AF78603960386896
S32D0000F730FFF7C9FA03461946786800F01BF97B6818460837BD4680BD80B582B000AF786039603868FFF776FE15
S32D0000F75803461A687B681A607B6818460837BD4680BD80B582B000AF78607868FFF7AEFE034618460837BD4642
S32D0000F78080BD80B483B000AF78607B6818460C37BD4680BC704780B582B000AF7860786800F0FAF87B681846C5
S32D0000F7A800F002F97B6818460837BD4680BD80B483B000AF78607B6818460C37BD4680BC704780B582B000AF0A
S32D0000F7D07860786800F0F9F8034618460837BD4680BD80B582B000AF78607868FFF7EDFF034618460837BD46B3
S32D0000F7F880BD80B582B000AF786039603868FFF728FB03461946786800F0E5F87B6818460837BD4680BD80B51C
S32D0000F82082B000AF7860786800F0EBF87B68184600F0F3F87B6818460837BD4680BD80B483B000AF78607B68A1
S32D0000F84818460C37BD4680BC704780B582B000AF7860786800F0EAF8034618460837BD4680BD80B582B000AF1F
S32D0000F87078607868FFF7EDFF034618460837BD4680BD80B582B000AF786039603868FFF76FFB0346194678689B
S32D0000F89800F0D6F87B6818460837BD4680BD80B582B000AF7860786800F0DCF87B68184600F0E4F87B681846E4
S32D0000F8C00837BD4680BD80B483B000AF78607B6818460C37BD4680BC704780B582B000AF7860786800F0DBF8A2
S32D0000F8E8034618460837BD4680BD80B582B000AF78607868FFF7EDFF034618460837BD4680BD80B582B000AFE0
S32D0000F910786039603868FFF7ACFB03461946786800F0C7F87B6818460837BD4680BD80B582B000AF7860786856
S32D0000F93800F0CDF87B6818460837BD4680BD80B483B000AF78607B6800221A607B6818460C37BD4680BC704745
S32D0000F96080B483B000AF78607B6818460C37BD4680BC704780B582B000AF786039603868FFF7A1F903461946B2
S32D0000F988786800F0AEF87B6818460837BD4680BD80B582B000AF7860786800F0ADF87B6818460837BD4680BDF8
S32D0000F9B080B483B000AF78607B6800221A607B6818460C37BD4680BC704780B483B000AF78607B6818460C37D0
S32D0000F9D8BD4680BC704780B582B000AF786039603868FFF736FA03461946786800F08EF87B6818460837BD463D
S32D0000FA0080BD80B582B000AF7860786800F08DF87B6818460837BD4680BD80B483B000AF78607B6800221A602B
S32D0000FA287B6818460C37BD4680BC704780B483B000AF78607B6818460C37BD4680BC704780B582B000AF7860E0
S32D0000FA5039603868FFF78CFA03461946786800F06EF87B6818460837BD4680BD80B582B000AF7860786800F077
S32D0000FA786DF87B6818460837BD4680BD80B483B000AF78607B6800221A607B6818460C37BD4680BC704780B420
S32D0000FAA083B000AF78607B6818460C37BD4680BC704780B582B000AF786039603868FFF7D8FA0346194678688D
S32D0000FAC800F04EF87B6818460837BD4680BD80B483B000AF78607B6818460C37BD4680BC704780B483B000AF9C
S32D0000FAF0786039607B6818460C37BD4680BC704780B483B000AF78607B6818460C37BD4680BC704780B483B02E
S32D0000FB1800AF786039607B6818460C37BD4680BC704780B483B000AF78607B6818460C37BD4680BC704780B489
S32D0000FB4083B000AF786039607B6818460C37BD4680BC704780B483B000AF78607B6818460C37BD4680BC704762
S32D0000FB6880B483B000AF786039607B6818460C37BD4680BC7047000080B582B000AF786039607B68012B0CD1FB
S32D0000FB903B684FF6FF72934207D106480FF028F9054A064903480EF0EFFD00BF0837BD4680BD00BFE4170020E8
S32D0000FBB80000002011EE010080B500AF4FF6FF710120FFF7D9FF80BD80B400AF024B1846BD4680BC704700BFF7
S32D0000FBE0FFFF7F7F2DE9B04384B000AFF860B9607A603B60FB684FF4A0721A60FB68F0225A60FB686FF07F4245
S32D0000FC089A60FB684C4ADA60FB684C4A1A61FB6800225A61FB684A4A9A62FB68002283F82D20FB685C3318465D
S32D0000FC302CF032FAFB681B68184640F091FE4FF000024FF0804341F02FF802460B4614461D4678682CF0A6FACE
S32D0000FC580346184640F080FE4FF000024FF0804341F01EF802460B469046994635480CF0DBFA0346184640F02C
S32D0000FC807FFE02460B464046494640F0E3FE02460B462046294640F025FD02460B461046194641F0CFF90246CB
S32D0000FCA8FB685A63B86841F0D3FA0246FB689A6378682CF073FA044622480CF0B5FA034604FB03F3184641F0B3
S32D0000FCD0BFFA0246FB685A651C480CF0B3FA0346184641F0B9FA0246FB689A65FB685C33796818462CF00EFA4C
S32D0000FCF8FB6800221A76FB6801225A76FB68002283F82C20FB68002283F82D203A68FB68DA61BA6AFB681A6297
S32D0000FD20FB681B691A46FB685A62FB68DA69FB681A63FB6818461037BD46BDE8B08300BF666666002121210092
S32D0000FD48E22B8A00D41A002090B585B000AFF860B9607A603B60FB684FF4A0721A60FB68F0225A60FB686FF0B6
S32D0000FD707F429A60FB682E4ADA60FB682D4A1A61FB6800225A61FB682B4A9A62FB68002283F82D20FB685C33ED
S32D0000FD9818462CF07DF9FB68BA685A63FB687A689A6338682CF0FAF9044622480CF03CFA034604FB03F3184698
S32D0000FDC041F046FA0246FB685A651C480CF03AFA0346184641F040FA0246FB689A65FB685C33396818462CF0DD
S32D0000FDE895F9FB6800221A76FB6801225A76FB68002283F82C20FB68002283F82D203A6AFB68DA617A6AFB68D2
S32D0000FE101A62FB681B691A46FB685A62FB68DA69FB681A63FB6818461437BD4690BD00BF6666660021212100AC
S32D0000FE38E22B8A00D41A0020F0B58BB002AF78607B681B6B194633480CF0EBFD7B685C6B30480CF0E9F903461E
S32D0000FE60184641F0F9F903461946204641F03EF90346184641F020FC05467B689B6B184641F01AFC06467B6881
S32D0000FE885C6D24480CF0D0F903465B00184641F0DFF903461946204641F026F90346184641F006FC04467B68E2
S32D0000FEB09B6D184641F000FC0346009323463246294616480DF0BFFA7B6803F15C0207F10803114618462CF048
S32D0000FED859FC7B685B6B184641F0EAFB04467B689B6B4FF08141184641F0FEF80346184641F0DEFB034607F1DF
S32D0000FF000801224605480CF0C6FD07F1080318462CF0F4F800BF2437BD46F0BDD41A0020B0B584B000AF7860F5
S32D0000FF287B685B7E002B00F046810023FB730023BB737B6803F13C017B6840331A4692480CF092FE7B68DC6BD1
S32D0000FF507B685D6B8E480CF06BF90346184641F07BF903461946284641F0C0F803461946204641F077FB03465D
S32D0000FF78002B44D07B68DC6B7B685A6B7B685B6D1946104641F0B0F803461D467E480CF04BF90346184641F087
S32D0000FFA05BF903461946284641F0A2F803464FF07E51184641F09AF803461946204641F047FB0346002B1ED0A3
S32D0000FFC87B681A6C7B689B6B1946104641F046FB0346002B13D07B681C6C7B689A6B7B689B6D1946104641F017
S32D0000FFF07FF803461946204641F02AFB0346002B01D0012200E000227B6883F82C207B6803F13C017B6840338A
S32D000100181A465D480CF028FE034683F00103DBB2002B6ED17B6803F144017B6848331A4655480CF019FE034608
S32D00010040002B62D07B68DC6B7B685D6B50480CF0F9F80346184641F0FFF803461946284641F044F803461946E0
S32D00010068204641F0FBFA0346002B27D07B68DC6B7B685A6B7B685B6D1946104641F034F803461D4640480CF0B3
S32D00010090CFF80346184641F0DFF803461946284641F026F803464FF07E51184641F01EF803461946204641F02B
S32D000100B8CBFA0346002B01D0012300E00023FB737B681A6C7B689B6B1946104641F0C6FA0346002B13D07B6848
S32D000100E01C6C7B689A6B7B689B6D1946104640F0FFFF03461946204641F0AAFA0346002B01D0012300E0002364
S32D00010108BB73FB7B002B19D0BB7B002B16D07B685B69002B03D17B6801225A6106E07B685B69012B02D17B68F3
S32D0001013002225A617B681A6A7B681A637B6801221A763CE07B685B69022B03D17B6803225A6106E07B685B6950
S32D00010158032B02D17B6800225A617B6893F82C30002B13D07B689A6A7B681A637B6893F82D3083F00103DBB2C9
S32D00010180002B0FD07B68012283F82D200AE000BFD41A00207B68DA697B681A637B68002283F82D207B68002269
S32D000101A81A76FFF711FD02467B68DA63FFF70CFD02467B681A647868FFF73EFE00BF1037BD46B0BD80B483B095
S32D000101D000AF78607B681B7E18460C37BD4680BC704780B485B000AF78600023FB737B685B69012B04D17B685A
S32D000101F802225A610123FB73FB7B18461437BD4680BC704780B582B000AF78603960386841F01EF802467B68B9
S32D000102209A6500BF0837BD4680BD80B584B000AFF860B9607A60B968F86841F009FA0346002B01D0BB6809E009
S32D000102487968F86841F00AFA0346002B01D07B6800E0FB6818461037BD4680BD80B584B000AFF860C7E900237E
S32D00010270D7E90623D7E9000140F034FA02460B46F968C1E90023FB68D3E90023F968C1E90223F9684FF000027C
S32D000102984FF00003C1E90423FB684FF00002DA62FB680A4A1A62FB68094A5A62FB68074A9A62F9684FF000024D
S32D000102C04FF00003C1E90C23FB6818461037BD4680BD00BFACC5273795BFD633000000002DE9B04F86B000AFC7
S32D000102E8F860C7E90023D7E90E23D7E9000140F0F5F902460B46F968C1E90023FB68D3E904ABFB68D3E9000137
S32D00010310D7E9102340F09EFB02460B465046594640F0E2F902460B46F968C1E904236AA3D3E90023D7E91001A1
S32D0001033840F0FEFD0346002B04D065A3D3E90023C7E91023FB68D3E900014FF000024FF0000340F00BFE034634
S32D00010360002B0BD0FB68D3E902014FF000024FF0000340F0E1FD0346002B27D1FB68D3E900014FF000024FF0A9
S32D00010388000340F0D5FD0346002B0BD0FB68D3E902014FF000024FF0000340F0E7FD0346002B0FD1FB68D3E9C6
S32D000103B00023904623F0004949A3D3E900234046494640F0B9FD0346002B06D0F9684FF000024FF00003C1E92B
S32D000103D80423FB68D3E90C01D7E9002340F07EF902460B46144623F000453BA3D3E900232046294640F0B0FD5F
S32D000104000346002B06D0F9684FF000024FF00003C1E904234FF00002334BC7E90423FB68D3E90423104619463D
S32D0001042840F00CFE03462F4A2F491846FFF7F9FE0346184640F0B2FA02460B46F968C1E90423FB68D3E9000178
S32D00010450FB68D3E9022340F045F902460B4610461946D7E9102340F01FFC02460B46F968C1E90623FB68D3E953
S32D000104780023F968C1E90223FB68DB6A184640F08DFA04460D46FB681B6A184640F086FAFB68D3E9002340F040
S32D000104A0D9FA02460B462046294640F01DF902460B461046194640F0C5FD0246FB68DA62F968D7E90023C1E991
S32D000104C80C23FB68DB6A18461837BD46BDE8B08FFCA9F1D24D62503F9A9999999999B93F000049400000484252
S32D000104F0000048C280B485B000AFF860B9607A603B60FB68BA681A62FB687A685A62FB683A689A6200BF1437C8
S32D00010518BD4680BC7047000080B582B000AF786009480CF038FA042107480CF03FFA022105480CF062FA786800
S32D000105402CF000F90346194601480CF0DFFCEEE7D41A002080B582B000AF7860084611461A460346FB700B46D4
S32D00010568BB7013467B707B682B4A1A607B682B4A5A607B682A4A9A607B682A4ADA607B68294A1A617B68143334
S32D00010590FA78114618460BF087FA7B681533BA78114618460BF080FA7B6816337A78114618460BF079FA7B68EE
S32D000105B800225A627B6800229A627B68002283F82C207B68002283F82D207B6801225A637B6800229A637B68F4
S32D000105E00022DA637B6800221A647B6800225A647B68002283F82E207B6803229A647B684FF000029A617B6871
S32D000106084FF00002DA617B684FF000021A627B6818460837BD4680BDD7A3304033335340E8B401BDE742523DF2
S32D00010630FD1BA1BC80B483B000AF786039607A683B68134018460C37BD4680BC704780B483B000AF78603960A9
S32D000106587A683B68134318460C37BD4680BC704780B483B000AF78607B68DB4318460C37BD4680BC704780B546
S32D0001068082B000AF786039607B681B6839681846FFF7DDFF02467B681A607B6818460837BD4680BD80B582B0F6
S32D000106A800AF786039607B681B6839681846FFF7BDFF02467B681A607B6818460837BD4680BD90B587B000AF5C
S32D000106D0F860B9607A60FB68DB687B61FB6803F10C047868FFF7C0FF034619462046FFF7D9FFFB6803F10C04EF
S32D000106F87968B868FFF79AFF034619462046FFF7BAFF7B6918461C37BD4690BD80B582B000AF78604FF482727C
S32D0001072004217868FFF7D1FF7B6818460837BD4680BD80B483B000AF78607B6818460C37BD4680BC70470000B7
S32D0001074880B582B000AF786039607B68012B0CD13B684FF6FF72934207D106480EF044FB054A064903480EF097
S32D000107700BF800BF0837BD4680BD00BFE81700200000002011EE010080B500AF4FF6FF710120FFF7D9FF80BD56
S32D0001079880B586B002AF786039603A23FB60386840F0FCF802460B467868CDE90023044B3A22044900F0DEFC15
S32D000107C078681037BD4680BDC04606008DB0050090B583B000AF786039600AF017FD0346184640F035FD03465D
S32D000107E87968184640F07EFC0346012214461946386840F029FF0346002B01D100231C46E3B218460C37BD46D8
S32D0001081090BD000080B582B000AF7860064A7B681A607B68043318462BF036FC7B6818460837BD4680BD00BF8D
S32D000108386847060080B582B000AF7860064A7B681A607B68043318462BF054FC7B6818460837BD4680BD00BFDF
S32D000108606847060080B582B000AF78607868FFF7E5FF1C2178680EF00BF87B6818460837BD4680BD90B585B0B4
S32D0001088800AF786039607B681846FFF7BFFF174A7B681A607B683A68DA617B6803F12C0407F10C0318460EF044
S32D000108B0C1F807F10C031A460F4920462BF0ACFF07F10C0318460EF0B7F80AF09FFC0346184640F0BDFC0246F6
S32D000108D87B681A627B68002283F829207B6800225A627B6818461437BD4690BD44470600C446060080B582B024
S32D0001090000AF78600AF082FC0346184640F0A0FC02467B681A627B6800225A627B68D8694FF00003064A0749E8
S32D0001092804F0E0FC7B68DB69184605F0E7FB00BF0837BD4680BD00BF000010410000E0C090B5ADF54B7D00AF28
S32D0001095007F54A73A3F54973186007F54A73A3F549731B685B6A1A46DF4BD41807F52A7318460EF05FF807F5E0
S32D000109782A7207F52473214618462BF049FF07F52A7318460EF054F807F5247318462BF0D5FE0146002300224D
S32D000109A0D2480CF055F80AF031FC0346184640F04FFC024607F54A73A3F549731B681B6A1946104640F092FBAD
S32D000109C80346C7F8243307F53173D7F824131846FFF7DEFE07F52B7307F53172C249184600F0FFFB07F51E73B2
S32D000109F007F52B71BF4A184600F00FFC07F52B7318462BF07BFB07F5317318462BF076FB07F51E7318462BF0C5
S32D00010A1895FE01461E230022B2480CF015F807F5D47318462AF086FF07F5D4730833B04918462AF0C7F9034637
S32D00010A40AE49184629F0FAFF04460220FFF771FE0346194620462AF07BF8044607F54A73A3F549731B68DB6996
S32D00010A68184604F019FC03461B68194620462AF06DFA0346A04918462AF0A4F903469D49184629F0D7FF0446D9
S32D00010A900220FFF74EFE0346194620462AF058F8044607F54A73A3F549731B68DB69184604F0F6FB034604337A
S32D00010AB81B68194620462AF049FA03468E4918462AF080F903468B49184629F0B3FF04460220FFF72AFE034640
S32D00010AE0194620462AF034F8044607F54A73A3F549731B68DB69184604F0D2FB034608331B68194620462AF0B9
S32D00010B0825FA03467D4918462AF05CF907F5377307F5D472114618462AF074FF07F537713C2300226F480BF0C2
S32D00010B30B2FF07F5377318462BF0E0FA07F1D80318462AF0FBFE07F1D80308336E4918462AF03CF9034669493B
S32D00010B58184629F06FFF04460220FFF7E6FD03461946204629F0F0FF044607F54A73A3F549731B68DB691846B2
S32D00010B8004F09BFB03461B68194620462AF0E2F903465B4918462AF019F903465749184629F04CFF04460220A8
S32D00010BA8FFF7C3FD03461946204629F0CDFF044607F54A73A3F549731B68DB69184604F078FB034604331B688F
S32D00010BD0194620462AF0BEF90346494918462AF0F5F803464549184629F028FF04460220FFF79FFD0346194605
S32D00010BF8204629F0A9FF044607F54A73A3F549731B68DB69184604F054FB034608331B68194620462AF09AF96F
S32D00010C200346384918462AF0D1F807F53D7307F1D802114618462AF0E9FE07F53D714B2300222A480BF027FF99
S32D00010C4807F53D7318462BF055FA07F1080318462AF070FE07F1080308332A4918462AF0B1F80346234918463B
S32D00010C7029F0E4FE04460220FFF75BFD03461946204629F065FF044607F54A73A3F549731B68DB69184604F0A5
S32D00010C981CFB03461B68194620462AF057F90346154918462AF08EF803461249184629F0C1FE04460220FFF73A
S32D00010CC038FD03461946204629F042FF044607F54A73A3F549731B68DB69184604F0F9FA0346043314E000BFD2
S32D00010CE8CC460600D41A0020E0460600EC460600F046060015070100F8460600FC4606000047060008470600CC
S32D00010D101B68194620462AF01DF90346C24918462AF054F80346C149184629F087FE04460220FFF7FEFC034630
S32D00010D381946204629F008FF044607F54A73A3F549731B68DB69184604F0BFFA034608331B68194620462AF098
S32D00010D60F9F80346B24918462AF030F807F5437307F10802114618462AF048FE07F543715A230022AB480BF089
S32D00010D8886FE07F5437318462BF0B4F907F54A73A3F549731B685B6A032B00F28B8101A252F823F0BD0D010094
S32D00010DB06F0E01000F0F0100C70F010007F54A73A3F549731B68D8694FF07C534FF000024FF0000104F054F800
S32D00010DD807F54A73A3F549731B68DB69184604F06DF807F54A73A3F549731B681B6A90491846FFF7E9FC0346F1
S32D00010E00002B00F06D8107F54A73A3F549731B68D8694FF000034FF000024FF0000104F02FF807F54A73A3F5BA
S32D00010E2849731B68D869834B834A844904F05AFA0AF0E8F90346184640F006FA024607F54A73A3F549731B68E1
S32D00010E501A6207F54A73A3F549731B685B6A5A1C07F54A73A3F549731B685A6238E107F54A73A3F549731B6837
S32D00010E78D869704B4FF08342714904F05AFA07F54A73A3F549731B68DB696E49184604F0E1FD07F54A73A3F53D
S32D00010EA049731B68DB69184605F063F90346002B0CD107F54A73A3F549731B681B6A64491846FFF785FC0346C0
S32D00010EC8002B01D0012300E00023002B00F006810AF098F90346184640F0B6F9024607F54A73A3F549731B684D
S32D00010EF01A6207F54A73A3F549731B685B6A5A1C07F54A73A3F549731B685A62EAE007F54A73A3F549731B68E6
S32D00010F18D869484B4D4A4E4904F00BFA07F54A73A3F549731B68DB694649184604F092FD07F54A73A3F549735E
S32D00010F401B68DB69184605F014F90346002B0CD107F54A73A3F549731B681B6A3C491846FFF736FC0346002B76
S32D00010F6801D0012300E00023002B00F0B98007F54A73A3F549731B68D8692E4B4FF000024FF0000104F0AEF9A8
S32D00010F900AF03CF90346184640F05AF9024607F54A73A3F549731B681A6207F54A73A3F549731B685B6A5A1CBA
S32D00010FB807F54A73A3F549731B685A6290E007F54A73A3F549731B68D8691A4B4FF03F42204904F0AEF907F558
S32D00010FE04A73A3F549731B68DB69184604F0B0FB07F54A73A3F549731B68DB69184605F0B8F80346002B0CD1E5
S32D0001100807F54A73A3F549731B681B6A12491846FFF7DAFB0346002B20D001231FE000BFF84606001507010079
S32D00011030FC460600D41A002000007A440000B442000010410000E0C0000020C1CDCCCC3E0000FA440000A041F3
S32D000110580000C8C100004041000096440023002B40D007F54A73A3F549731B68D8694FF000034FF000024FF094
S32D00011080000103F0FDFE0AF0C1F80346184640F0DFF8024607F54A73A3F549731B681A6207F54A73A3F5497390
S32D000110A81B685B6A5A1C07F54A73A3F549731B685A6217E007F54A73A3F549731B68DB69184604F06FF807F58F
S32D000110D04A73A3F549731B68012283F8292006E000BF04E000BF02E000BF00E000BF07F1080318462AF0D2F8A9
S32D000110F807F1D80318462AF0CDF807F5D47318462AF0C8F807F51E7318462AF0F3FF07F5247318462AF0EEFF4F
S32D0001112000BF07F54B77BD4690BD00BF80B483B000AF78607B6893F8293018460C37BD4680BC704780B483B061
S32D0001114800AF78607B68012283F8292000BF0C37BD4680BC704780B582B000AF786039603B682C331946786867
S32D000111702BF00CFB78680837BD4680BD08B490B588B000AFF860B9607A607B680733DB08DB00ADEB030D6B4668
S32D000111980733DB08DB00FB6107F130033B61BC683B69FA6A7968F869A047B861BB69FA69D41807F114031846BF
S32D000111C00DF038FC07F114032246F969F86800F03BF807F1140318460DF02EFCF8682037BD46BDE8904001B0FF
S32D000111E8704780B584B000AFF860B9607A60BA68002178682BF082F90346184600F03BF803461946F8682AF019
S32D0001121055FFF8681037BD4680BD80B584B000AFF860B9607A607968B8682BF0B9F90346184600F024F8034647
S32D000112381946F8682AF03EFFF8681037BD4680BD90B585B000AFF860B9607A603B60FC68F8682AF011FE034645
S32D000112603A68194620462BF08FFA7A68B968F86800F00FF8FB6818461437BD4690BD80B483B000AF78607B68CD
S32D0001128818460C37BD4680BC704780B584B000AFF860B9607A607A68B968F86800F004F800BF1037BD4680BDA8
S32D000112B090B587B000AFF860B9607A603B7023467A68B968F86800F005F800BF1C37BD4690BD000080B586B068
S32D000112D800AFF860B9607A603B70B86800F03EF80346002B05D0BA687B689A4201D0012300E00023002B02D0DD
S32D0001130017481FF07FFC7968B86800F03AF803467B617B690F2B10D907F1140300221946F8682AF0B7FD03467F
S32D000113281946F8682AF0A4FD7B691946F8682AF0A5FDF8682AF09EFD03467A68B96818462AF0F0FD7B691946B4
S32D00011350F8682AF099FD00BF1837BD4680BD00BF1047060080B483B000AF78607B68002B0CBF01230023DBB259
S32D0001137818460C37BD4680BC7047B0B582B000AF786039607C683B1D184600F00AF82A463968204600F00FF8FE
S32D000113A0034618460837BD46B0BD80B483B000AF786000BF18460C37BD4680BC704780B485B000AFF860B960FB
S32D000113C83A71BA68FB68D31A18461437BD4680BC7047000080B582B000AF7860084A7B681A607B682C331846FD
S32D000113F02AF084FE7B681846FFF720FA7B6818460837BD4680BD00BF4447060080B582B000AF78607868FFF70D
S32D00011418E1FF442178680DF037FA7B6818460837BD4680BD90B587B000AF786039603B68DB0FFB75FB7D002B56
S32D0001144002D03B685B4200E03B683B610A21386900F0F8FBF860FA7DFB68D41807F1080318460DF0E7FA07F148
S32D0001146808032D22214678682AF01AFE07F1080318460DF0DDFAFB7D194678682AF0DEFE03463A69F9681846F5
S32D0001149000F016FC00BF78681C37BD4690BD80B483B000AF7860012318460C37BD4680BC7047000090B585B0C6
S32D000114B800AF786039607B681846FFF7A7F9174A7B681A607B683A68DA617B6803F12C0407F10C0318460DF027
S32D000114E0A9FA07F10C031A460F4920462BF094F907F10C0318460DF09FFA09F087FE034618463FF0A5FE024633
S32D000115087B681A627B68002283F829207B6800225A627B6818461437BD4690BDFC480600B447060080B582B03D
S32D0001153000AF78607B68D8694FF000034FF000024FF0000103F0D2FE09F060FE034618463FF07EFE02467B6887
S32D000115581A627B6800225A627B68DB69184604F0CDFD00BF0837BD4680BD000090B5ADF5577D00AF07F5567377
S32D00011580A3F55573186007F55673A3F555731B6803F12C0107F52B73DF4A184600F0E6FB07F55673A3F5557384
S32D000115A81B685A6A07F5317311461846FFF73AFF07F5257307F5317207F52B71184600F0E4FB07F53173184653
S32D000115D02AF094FD07F52B7318462AF08FFD07F5257318462BF0AEF8014600230022CB480BF02EFA09F00AFE2D
S32D000115F8034618463FF028FE024607F55673A3F555731B681B6A194610463FF06BFD0346C7F8543307F53D73CC
S32D00011620D7F854131846FFF7B7F807F5377307F53D72BB491846FFF7D8FD07F51F7307F53771B84A1846FFF75C
S32D00011648E8FD07F5377318462AF054FD07F53D7318462AF04FFD07F51F7318462BF06EF801461E230022AB48A5
S32D000116700BF0EEF907F5D67318462AF05FF907F5D6730833A849184629F0A0FB0346A749184629F0D3F904460B
S32D000116980220FFF74AF803461946204629F054FA044607F55673A3F555731B68DB69184603F0F2FD03461B6812
S32D000116C01946204629F046FC03469949184629F07DFB03469549184629F0B0F904460220FFF727F80346194651
S32D000116E8204629F031FA044607F55673A3F555731B68DB69184603F0CFFD034604331B681946204629F022FCD7
S32D0001171003468749184629F059FB03468349184629F08CF904460220FFF703F803461946204629F00DFA0446E0
S32D0001173807F55673A3F555731B68DB69184603F0ABFD034608331B681946204629F0FEFB03467649184629F040
S32D0001176035FB07F5437307F5D672114618462AF04DF907F543713C23002268480BF08BF907F5437318462AF095
S32D00011788B9FC07F1DC0318462AF0D4F807F1DC0308336749184629F015FB03466149184629F048F90446022002
S32D000117B0FEF7BFFF03461946204629F0C9F9044607F55673A3F555731B68DB69184603F074FD03461B6819464B
S32D000117D8204629F0BBFB03465349184629F0F2FA03465049184629F025F904460220FEF79CFF034619462046E4
S32D0001180029F0A6F9044607F55673A3F555731B68DB69184603F051FD034604331B681946204629F097FB034670
S32D000118284149184629F0CEFA03463E49184629F001F904460220FEF778FF03461946204629F082F9044607F5C7
S32D000118505673A3F555731B68DB69184603F02DFD034608331B681946204629F073FB03463049184629F0AAFACE
S32D0001187807F5497307F1DC02114618462AF0C2F807F549714B23002222480BF000F907F5497318462AF02EFC2C
S32D000118A007F10C0318462AF049F807F10C0308332249184629F08AFA03461C49184629F0BDF804460220FEF776
S32D000118C834FF03461946204629F03EF9044607F55673A3F555731B68DB69184603F0F5FC03461B681946204657
S32D000118F029F030FB03460E49184629F067FA03460A49184629F09AF804460220FEF711FF03461946204613E0F6
S32D00011918C0470600D41A0020CC470600D8470600DC47060015070100E4470600E8470600EC470600F447060021
S32D0001194029F006F9044607F55673A3F555731B68DB69184603F0BDFC034604331B681946204629F0F7FA034605
S32D000119689B49184629F02EFA03469A49184629F061F804460220FEF7D8FE03461946204629F0E2F8044607F553
S32D000119905673A3F555731B68DB69184603F099FC034608331B681946204629F0D3FA03468B49184629F00AFA08
S32D000119B807F54F7307F10C02114618462AF022F807F54F715A23002284480BF060F807F54F7318462AF08EFB1A
S32D000119E007F55673A3F555731B685B6A002B02D0012B5FD0BDE007F55673A3F555731B68D8694FF00003784A89
S32D00011A084FF0000103F095FC07F55673A3F555731B68DB697349184604F0C0F907F55673A3F555731B68DB694C
S32D00011A30184604F099FA0346002B0CD107F55673A3F555731B681B6A69491846FEF7C0FE0346002B01D00123F8
S32D00011A5800E00023002B00F09A8007F55673A3F555731B68D8694FF000034FF000024FF0000103F001FA09F094
S32D00011A80C5FB034618463FF0E3FB024607F55673A3F555731B681A6207F55673A3F555731B685B6A5A1C07F578
S32D00011AA85673A3F555731B685A6270E007F55673A3F555731B68D8694FF000034FF000024FF0000103F035FC87
S32D00011AD007F55673A3F555731B68DB694349184604F060F907F55673A3F555731B68DB69184604F039FA03460A
S32D00011AF8002B0CD107F55673A3F555731B681B6A39491846FEF760FE0346002B01D0012300E00023002B3CD0B4
S32D00011B2007F55673A3F555731B68D8694FF000034FF000024FF0000103F0A2F909F066FB034618463FF084FBAD
S32D00011B48024607F55673A3F555731B681A6207F55673A3F555731B685B6A5A1C07F55673A3F555731B685A62BB
S32D00011B7013E007F55673A3F555731B68DB69184603F014FB07F55673A3F555731B68012283F8292002E000BFD7
S32D00011B9800E000BF07F10C03184629F07BFB07F1DC03184629F076FB07F5D673184629F071FB07F51F731846B8
S32D00011BC02AF09CFA07F5257318462AF097FA00BF07F55777BD4690BDE447060015070100E8470600D41A00203F
S32D00011BE8000040C09A99193F0000FA4380B483B000AF78607B6893F8293018460C37BD4680BC704780B483B053
S32D00011C1000AF78607B68012283F8292000BF0C37BD4680BC704780B582B000AF786039603B682C331946786894
S32D00011C382AF0A8FD78680837BD4680BD80B487B000AF7860396001237B613B6803FB03F33B613A683B6902FB5E
S32D00011C6003F3FB603A68FB6802FB03F3BB603B687A689A4201D27B691DE07A683B699A4202D27B69013316E098
S32D00011C887A68FB689A4202D27B6902330FE07A68BB689A4202D27B69033308E07A68BB68B2FBF3F37B607B6922
S32D00011CB004337B61DBE718461C37BD4680BC704780B489B000AFF860B9607A60BB68013BFB617B68632B25D9F8
S32D00011CD87A68224BA3FB02135B09642101FB03F3D31A5B00BB617B681C4AA2FB03235B097B60BB695A1CF96856
S32D00011D00FB690B4418498A5C1A70FB69013BFA6813441549BA690A4412781A70FB69023BFB61D6E77B68092B23
S32D00011D2810D97B685B007B617B695A1CFB6801330B498A5C1A700A4A7B6913441A78FB681A7005E07B68DBB271
S32D00011D503033DAB2FB681A7000BF2437BD4680BC704700BF1F85EB512848060080B584B000AFF860B9607A6000
S32D00011D78B968F8682AF006FD7968F8682AF00CFC00BFF8681037BD4680BD90B58BB000AFF860B9607A600023F8
S32D00011DA087F8273007F114031846FFF778FB0346002B03D0012387F8273024E007F11803B96818462AF0C0FCBB
S32D00011DC807F11C03796818462AF0BAFC07F11C0207F118031146184600F052F803461C4607F11C0318460CF092
S32D00011DF023FE07F1180318460CF01EFE002C02D0012387F8273097F82730002B2BD0B8682AF0C6F904467868F3
S32D00011E182AF0C2F9034623443B62B8682AF0C0F902463B6A934208D978682AF0B9F902463B6A934201D8012378
S32D00011E4000E00023002B0ED0BA68002178682AF041FB03461846FFF712FA03461946F8682AF02CF90CE0796831
S32D00011E68B8682AF093FB03461846FFF704FA03461946F8682AF01EF9F8682C37BD4690BD80B483B000AF7860AE
S32D00011E903960012318460C37BD4680BC7047000080B582B000AF7860084A7B681A607B682C3318462AF022F95D
S32D00011EB87B681846FEF7BEFC7B6818460837BD4680BD00BFFC48060080B582B000AF78607868FFF7E1FF442139
S32D00011EE078680CF0D5FC7B6818460837BD4680BD90B587B000AFF860B9607A603B60FB681846FEF787FC1A4AB8
S32D00011F08FB681A60FB68BA68DA61FB687A681A62FB683A685A62FB6803F1340407F1140318460CF083FD07F11B
S32D00011F3014031A460F4920462AF06EFC07F1140318460CF079FD09F061F9034618463FF07FF90246FB689A62A2
S32D00011F58FB68002283F83120FB680022DA62FB6818461C37BD4690BDC04906003849060080B582B000AF786060
S32D00011F8009F044F9034618463FF062F902467B689A627B680022DA627B68D869074B4FF00002074903F0A2F9CE
S32D00011FA87B68DB69184604F0A9F800BF0837BD4680BD00BF000016C3000040C090B5ADF54B7D00AF07F54A7303
S32D00011FD0A3F54973186007F54A73A3F549731B68DB6A1A46DF4BD41807F52A7318460CF021FD07F52A7207F526
S32D00011FF82473214618462AF00BFC07F52A7318460CF016FD07F5247318462AF097FB014600230022D2480AF0FA
S32D0001202017FD09F0F3F8034618463FF011F9024607F54A73A3F549731B689B6A194610463FF054F80346C7F8A4
S32D00012048243307F53173D7F824131846FEF7A0FB07F52B7307F53172C2491846FFF7C1F807F51E7307F52B7108
S32D00012070BF4A1846FFF7D1F807F52B7318462AF03DF807F5317318462AF038F807F51E7318462AF057FB0146EE
S32D000120981E230022B2480AF0D7FC07F5D473184629F048FC07F5D4730833B049184628F089FE0346AE491846DF
S32D000120C028F0BCFC04460220FEF733FB03461946204628F03DFD044607F54A73A3F549731B68DB69184603F0C3
S32D000120E8DBF803461B681946204628F02FFF0346A049184628F066FE03469D49184628F099FC04460220FEF778
S32D0001211010FB03461946204628F01AFD044607F54A73A3F549731B68DB69184603F0B8F8034604331B681946D7
S32D00012138204628F00BFF03468E49184628F042FE03468B49184628F075FC04460220FEF7ECFA034619462046C1
S32D0001216028F0F6FC044607F54A73A3F549731B68DB69184603F094F8034608331B681946204628F0E7FE034639
S32D000121887D49184628F01EFE07F5377307F5D4721146184629F036FC07F537713C2300226F480AF074FC07F5A6
S32D000121B03773184629F0A2FF07F1D803184629F0BDFB07F1D80308336E49184628F0FEFD03466949184628F095
S32D000121D831FC04460220FEF7A8FA03461946204628F0B2FC044607F54A73A3F549731B68DB69184603F05DF810
S32D0001220003461B681946204628F0A4FE03465B49184628F0DBFD03465749184628F00EFC04460220FEF785FAE0
S32D0001222803461946204628F08FFC044607F54A73A3F549731B68DB69184603F03AF8034604331B68194620466D
S32D0001225028F080FE03464949184628F0B7FD03464549184628F0EAFB04460220FEF761FA03461946204628F0B0
S32D000122786BFC044607F54A73A3F549731B68DB69184603F016F8034608331B681946204628F05CFE034638494B
S32D000122A0184628F093FD07F53D7307F1D8021146184629F0ABFB07F53D714B2300222A480AF0E9FB07F53D73E1
S32D000122C8184629F017FF07F10803184629F032FB07F1080308332A49184628F073FD03462349184628F0A6FB50
S32D000122F004460220FEF71DFA03461946204628F027FC044607F54A73A3F549731B68DB69184602F0DEFF03466A
S32D000123181B681946204628F019FE03461549184628F050FD03461249184628F083FB04460220FEF7FAF9034680
S32D000123401946204628F004FC044607F54A73A3F549731B68DB69184602F0BBFF0346043314E000BF44490600A3
S32D00012368D41A00205C490600684906006C4906001507010074490600784906007C490600844906001B681946F4
S32D00012390204628F0DFFD0346B349184628F016FD0346B249184628F049FB04460220FEF7C0F9034619462046D0
S32D000123B828F0CAFB044607F54A73A3F549731B68DB69184602F081FF034608331B681946204628F0BBFD034646
S32D000123E0A349184628F0F2FC07F5437307F108021146184629F00AFB07F543715A2300229C480AF048FB07F58B
S32D000124084373184629F076FE07F54A73A3F549731B68DB6A052B00F22C8201A252F823F041240100F7240100DD
S32D00012430C72501009D26010063270100CB27010007F54A73A3F549731B68D8694FF07C534FF000024FF00001EE
S32D0001245802F012FD07F54A73A3F549731B68DB69184602F02BFD07F54A73A3F549731B689B6A7F491846FEF758
S32D00012480A7F90346002B00F00A8207F54A73A3F549731B68D8694FF000034FF000024FF0000102F0EDFC07F532
S32D000124A84A73A3F549731B68D8694FF000034FF00002704902F016FF08F0A4FE034618463EF0C2FE024607F57A
S32D000124D04A73A3F549731B689A6207F54A73A3F549731B68DB6A5A1C07F54A73A3F549731B68DA62D3E107F586
S32D000124F84A73A3F549731B68D8694FF000035E4A5C4902F016FF07F54A73A3F549731B68DB695A49184603F082
S32D000125209DFA07F54A73A3F549731B68DB69184603F01FFE0346002B0CD107F54A73A3F549731B689B6A504934
S32D000125481846FEF741F90346002B01D0012300E00023002B00F0A18107F54A73A3F549731B68DC6907F54A73A0
S32D00012570A3F549731B68DB69184602F091FE034619684FF000034FF00002204602F0AEFE08F03CFE0346184618
S32D000125983EF05AFE024607F54A73A3F549731B689A6207F54A73A3F549731B68DB6A5A1C07F54A73A3F5497362
S32D000125C01B68DA626DE107F54A73A3F549731B68D8694FF000032D4A2D4902F0AEFE07F54A73A3F549731B68B1
S32D000125E8DB692A49184603F035FA07F54A73A3F549731B68DB69184603F0B7FD0346002B0CD107F54A73A3F512
S32D0001261049731B689B6A20491846FEF7D9F80346002B01D0012300E00023002B00F03B8108F0ECFD03461846FF
S32D000126383EF00AFE024607F54A73A3F549731B689A6207F54A73A3F549731B68DB6A5A1C07F54A73A3F5497311
S32D000126601B68DA621FE100BF744906001507010078490600D41A002000C0DA44000040C0000020C1CDCCCC3EB6
S32D0001268800007A44000010410000E0C09A99193F00007A4507F54A73A3F549731B681B6A9149184609F044FDA3
S32D000126B007F54A73A3F549731B68D8694FF000038C4A8D4902F039FE07F54A73A3F549731B68DB69894918460F
S32D000126D803F0C0F907F54A73A3F549731B68DB69184603F042FD0346002B0CD107F54A73A3F549731B689B6ADD
S32D000127007F491846FEF764F80346002B01D0012300E00023002B00F0C88008F077FD034618463EF095FD024649
S32D0001272807F54A73A3F549731B689A6207F54A73A3F549731B68DB6A5A1C07F54A73A3F549731B68DA6207F5E3
S32D000127504A73A3F549731B68DB69184602F026FDA3E007F54A73A3F549731B681B6A4FF00001184609F0E0FC04
S32D0001277807F54A73A3F549731B689B6A5F491846FEF722F80346002B00F08D8008F03AFD034618463EF058FDBE
S32D000127A0024607F54A73A3F549731B689A6207F54A73A3F549731B68DB6A5A1C07F54A73A3F549731B68DA621F
S32D000127C871E007F54A73A3F549731B68D8694FF00003464A4A4902F0ACFD07F54A73A3F549731B68DB69434960
S32D000127F0184603F033F907F54A73A3F549731B68DB69184603F0B5FC0346002B0CD107F54A73A3F549731B6886
S32D000128189B6A39491846FDF7D7FF0346002B01D0012300E00023002B3FD008F0EBFC034618463EF009FD02463A
S32D0001284007F54A73A3F549731B689A6207F54A73A3F549731B68DB6A5A1C07F54A73A3F549731B68DA6207F5CA
S32D000128684A73A3F549731B68DB69184602F09AFC1BE007F54A73A3F549731B68DB69184602F090FC07F54A731F
S32D00012890A3F549731B68012283F831200AE000BF08E000BF06E000BF04E000BF02E000BF00E000BF07F1080378
S32D000128B8184628F0EFFC07F1D803184628F0EAFC07F5D473184628F0E5FC07F51E73184629F010FC07F5247324
S32D000128E0184629F00BFC00BF07F54B77BD4690BD0000DC4200001041000020C1CDCCCC3E00007A450000C842C2
S32D000129080000E0C080B483B000AF78607B6893F8313018460C37BD4680BC704780B483B000AF78607B680122B8
S32D0001293083F8312000BF0C37BD4680BC704780B582B000AF786039603B6834331946786829F01CFF7868083791
