S01100002E2E2F50726F746575732E73313966
S32D0000C000000000205DC2000011C3000017C300001DC3000023C3000029C3000000000000000000000000000073
S32D0000C028000000002FC3000035C30000000000003BC3000041C30000A9050100B5050100C1050100CD050100FA
S32D0000C050D9050100E5050100F1050100FD0501000906010015060100210601002D0601003906010045060100EA
S32D0000C078510601005D0601006906010075060100810601008D06010099060100A5060100B1060100BD0601000E
S32D0000C0A0C9060100D5060100E1060100ED060100F906010005070100110701001D070100290701003507010031
S32D0000C0C8410701004D0701005907010065070100710701007D0701008907010095070100A1070100AD07010054
S32D0000C0F0B90701003D510100C5070100D1070100DD070100E9070100F5070100010801000D0801001908010017
S32D0000C11825080100310801003D0801004908010055080100610801006D08010079080100850801009108010011
S32D0000C1409D080100A9080100B5080100C1080100DD2F0100CD080100D9080100E5080100F1080100FD0801003E
S32D0000C1680909010015090100210901002D0901003909010045090100510901005D0901006909010075090100CF
S32D0000C190810901008D09010099090100F52C0100BD2B0100592C01002D030100952D0100A5090100B1090100CD
S32D0000C1B8BD090100383F060000000020C8170000383F06000000FF1F00000000C8170020D81A00000000FF1F6C
S32D0000C1E00000000080B489B000AFF860B9607A60BB68FB61FB68BB6100237B617A697B689A420BD2BA69131DFB
S32D0000C208BB61FB69191DF96112681A607B6904337B61EFE700BF2437BD4680BC704780B485B000AF786039609E
S32D0000C2307B68FB600023BB60BA683B689A4208D2FB681A1DFA6000221A60BB680433BB60F2E700BF1437BD46FE
S32D0000C25880BC704780B586B000AF72B6234B4CF220521A80214B4DF628121A80204B4FF4E9721A801F4B7B615F
S32D0000C2807B691F4A934214D27B691A1D7A611B683B617B691A1D7A611B68FB607B691A1D7A611B68BB60BA68E9
S32D0000C2A8F9683869FFF79AFFE6E77B69134A93420ED27B691A1D7A611B68FB607B691A1D7A611B68BB60B9688B
S32D0000C2D0F868FFF7A8FFECE70B4B7B600B4A7B681A603DF093F862B604F0E8F800F056F9FEE700BF0E20054093
S32D0000C2F800200540BCC10000D4C10000E4C1000008ED00E000C0000080B400AFFEE780B400AFFEE780B400AFF4
S32D0000C320FEE780B400AFFEE780B400AFFEE780B400AFFEE780B400AFFEE780B400AFFEE780B400AFFEE780B426
S32D0000C34800AFFEE7FFFFFFFFFFFFFFFFFFFFFFFFFFFFFFFFFFFFFFFFFFFFFFFFFFFFFFFFFFFFFFFFFFFFFFFF57
S32D0000C370FFFFFFFFFFFFFFFFFFFFFFFFFFFFFFFFFFFFFFFFFFFFFFFFFFFFFFFFFFFFFFFFFFFFFFFFFFFFFFFFC7
S32D0000C398FFFFFFFFFFFFFFFFFFFFFFFFFFFFFFFFFFFFFFFFFFFFFFFFFFFFFFFFFFFFFFFFFFFFFFFFFFFFFFFF9F
S32D0000C3C0FFFFFFFFFFFFFFFFFFFFFFFFFFFFFFFFFFFFFFFFFFFFFFFFFFFFFFFFFFFFFFFFFFFFFFFFFFFFFFFF77
S32D0000C3E8FFFFFFFFFFFFFFFFFFFFFFFFFFFFFFFFFFFFFFFFFFFFFFFFFFFFFFFFFFFFFFFFFFFFFFFFFEFFFFFF50
S32D0000C44010B5054C237833B9044B13B10448AFF300800123237010BDC817002000000000602C060008B5034B90
S32D0000C4681BB103490348AFF3008008BD00000000CC170020602C06002DE9B0438AB000AFF860B9607A603B60EF
S32D0000C490FA687B68D31A184639F0BCFE02460B46C7E90823BA683B68D31A184639F0B2FE02460B46C7E906233C
S32D0000C4B8D7E90823D7E9080139F012FF02460B4614461D463B6C03FB03F3184639F09EFE02460B4620462946E6
S32D0000C4E03AF02CF802460B4614461D46D7E90623D7E9060139F0F8FE02460B46904699467B6C03FB03F3184634
S32D0000C50839F084FE02460B46404649463AF012F802460B462046294639F02CFD02460B46C7E9042301231C46C2
S32D0000C5304FF00002074BD7E904013AF051F90346002B01D100231C46E3B218462837BD46BDE8B0830000F03FEA
S32D0000C55880B582B000AF78607B682033184600F055FC7B680833184625F00AFD7B6818460837BD4680BD80B565
S32D0000C58082B000AF78607B685C33184625F0FCFC7B6818460837BD4680BD0000F0B5ADF2045D04AF4FF000039D
S32D0000C5A8C7F81C344FF00003C7F820344FF00003C7F82434DA4BC7F8E834002387F8E734012387F8E634032308
S32D0000C5D087F8E534002387F8E434022387F8E334042387F8E23497F8E64497F8E42497F8E71407F50470D7F85B
S32D0000C5F8E834039397F8E234029397F8E534019397F8E3340093234603F058F907F5F273184602F043FA07F220
S32D0000C6202C4307F504721146184600F00EFC07F22C4207F585631146184600F053FC07F5856207F5F273114682
S32D0000C648184602F04FFA07F58563184600F062FC07F22C43184600F00EFC07F2344307F504721146184600F054
S32D0000C67077FC07F2344207F586631146184600F0BCFC07F5866207F5F2731146184602F02DFA07F58663184622
S32D0000C69800F040FC07F23443184600F077FC07F5E87318460BF062F8002387F8EF3407F58A63184609F036F8DA
S32D0000C6C007F58A6207F587639849184625F086FF07F5876207F5AE708B230093FF23002101F0D0F907F5876382
S32D0000C6E8184625F04DFC07F58A63184609F01CF807F5AE731E21184601F0D4FC07F26C43184609F00FF807F29A
S32D0000C7106C4207F254438649184625F05FFF07F2544207F1E8008B230093FF23232101F0A9F907F25443184686
S32D0000C73825F026FC07F26C43184608F0F5FF07F1E8031E21184601F0ADFC07F59163184608F0E8FF07F5916274
S32D0000C76007F58E637349184625F038FF07F58E6307F174008B2201924FF4004200926E4A6E4901F035FA07F51D
S32D0000C7888E63184625F0FCFB07F59163184608F0CBFF07F174031E21184601F083FC07F2A443184608F0BEFFA9
S32D0000C7B007F2A44207F28C436149184625F00EFF07F28C4338468B2201924FF6FF7200925C4A5A4901F00CFA7C
S32D0000C7D807F28C43184625F0D3FB07F2A443184608F0A2FF3B461E21184601F05BFC002387F8EE34524807F098
S32D0000C8006AF9514807F01CFD002387F8ED3497F8ED34002B26D107F5AE73184601F0D0FA07F1E803184601F001
S32D0000C828CBFA07F5AE73184601F027FC0346002B05D0002387F8EF34012387F8ED3407F1E803184601F019FC75
S32D0000C8500346002BDBD0012387F8EF34012387F8ED34D4E7D7F81C14D7F82024D7F8243407F5047003F02CF995
S32D0000C878334807F02CF9324807F0DEFC002387F8EC3497F8EC34002B40F09E8206F000F8034618463AF00CF900
S32D0000C8A00346C7F8DC34D22300222849264807F06BF9E1230022D7F8DC14234807F09CF997F8EF34002B45D033
S32D0000C8C8B423002220491E4807F05AF907F5956307F5F2721146184602F08EF907F59561C3230022164807F05F
S32D0000C8F06EF907F59563184625F046FB07F5F273184602F007F907F5F273184602F087F90346002BB9D0012308
S32D0000C91887F8EC3407F50473184603F019FAB0E70000C040849D0500909D0500989D05000000704200007A43E3
S32D0000C9409C9D05000000BE42C81A0020A09D0500B09D05004FF00003C7F8D834CA4BC7F8D4344FF00001D7F8FD
S32D0000C968D80439F0F5FF034618463AF0D5FA03460022C449C44807F003F907F50473184603F030FA0446C1494F
S32D0000C990D7F8D80439F0E0FF034618463AF0C0FA034600222146BA4807F026F9BA49D7F8D80439F0D1FF034661
S32D0000C9B818463AF0B1FA03460022B649B24807F0DFF807F50473184603F019FA0446B249D7F8D80439F0BCFF41
S32D0000C9E0034618463AF09CFA034600222146A84807F002F9AB49D7F8D80439F0ADFF034618463AF08DFA0346F9
S32D0000CA080022A749A04807F0BBF807F50473184603F003FA0446A349D7F8D80439F098FF034618463AF078FAB7
S32D0000CA30034600222146964807F0DEF84FF00001D7F8D40439F088FF034618463AF068FA0346002296498E4871
S32D0000CA5807F096F807F50473184603F099F904468A49D7F8D40439F073FF034618463AF053FA03460022214686
S32D0000CA80834807F0B9F88449D7F8D40439F064FF034618463AF044FA0346002285497C4807F072F807F5047335
S32D0000CAA8184603F082F904467B49D7F8D40439F04FFF034618463AF02FFA034600222146714807F095F87549A1
S32D0000CAD0D7F8D40439F040FF034618463AF020FA0346002274496A4807F04EF807F50473184603F06CF90446B4
S32D0000CAF86C49D7F8D40439F02BFF034618463AF00BFA0346002221465F4807F071F8634BC7F8D034674BC7F8D0
S32D0000CB20CC34D7F8CC043AF0FBF904466449D7F8D00439F011FF034618463AF0F1F9034622466049524807F0B1
S32D0000CB481FF807F59E63A3F544731C68D7F8CC043AF0E2F905465A49D7F8D00439F0F8FE034618463AF0D8F9E2
S32D0000CB7003462A462146464807F03EF8D7F8CC043AF0CEF904465149D7F8D00439F0E4FE034618463AF0C4F90C
S32D0000CB98034622464C493C4806F0F2FF07F59E63A3F545731B6883F00044D7F8CC043AF0B3F905464549D7F81A
S32D0000CBC0D00439F0C9FE034618463AF0A9F903462A4621462E4807F00FF807F17403184601F0EEF83B461846F9
S32D0000CBE801F0EAF807F17403184601F03BFA0346002B07D0012387F8EE3407F50473184603F029F93B46184684
S32D0000CC1001F02CFA0346002B07D0002387F8EE3407F50473184603F034F997F8EE2407F504731146184603F023
S32D0000CC3803F9274BC7F8C834224BC7F8C4343223C7F8C034FF21104806F087FFD7F8C00439F02EFF0446D7F883
S32D0000CC60C00439F029FF034600932346D7F8C424D7F8C814064807F091FD07F5EE7207F5F07319462AE000BF34
S32D0000CC880000BE42C49D0500C81A0020000070410000F041D09D05000000344200007042E09D05000000964240
S32D0000CCB0F09D0500FC9D05000C9E0500000034430000B4421C9E05000000D2420000F042249E050000000743F4
S32D0000CCD8000020434C4807F027F80346002B6DD007F59E63A3F544731B6818463AF014F9044607F59E63A3F52D
S32D0000CD0045731B6818463AF00BF90546D7F8C8043AF006F90646D7F8C4043AF001F90146D7F8C034D7F8C0246B
S32D0000CD28019200930B46324629462046FFF7A4FB0346002B3FF4A5AD07F59E63A3F544731B68D7F8C8141846B3
S32D0000CD5039F000FE03461C46D7F8C00439F0ACFE03461946204639F0B3FF034683F00043C7F81C3407F59E6389
S32D0000CD78A3F545731B68D7F8C414184639F0E6FD03461C46D7F8C00439F092FE03461946204639F099FF03469A
S32D0000CDA0C7F82034D7F81C14D7F82024D7F8243407F5047002F08CFE07F50473184602F09FFE62E507F5047313
S32D0000CDC8184602F0C5FF5CE500243B461846FFF7D2FB07F174031846FFF7CDFB07F1E8031846FFF7C8FB07F5A1
S32D0000CDF0AE731846FFF7C3FB07F5F2731846FFF7ABFB2346184607F2F447BD46F0BD00BFC81A0020B0B582B084
S32D0000CE1800AF78607B681C687B685D687B68184600F028F903461A462946204600F02CF97B68184600F005F942
S32D0000CE407B6818460837BD46B0BDB0B582B000AF78603960386800F029F90546402008F095FB03461C4629461E
S32D0000CE68204601F0EFFC2146786800F035F978680837BD46B0BD90B585B000AF78607B68184600F038F9F860AB
S32D0000CE90FB681B68002B0CD0786800F03DF90446F86800F046F903461B681946204600F04AF9FB6800221A60E5
S32D0000CEB87B6818461437BD4690BD80B584B000AFF860B9607A60FB68B9687A68184600F05EF9FB6818461037FA
S32D0000CEE0BD4680BDB0B582B000AF786039607C68386800F039F90546386800F00DF90346184600F03EF903468F
S32D0000CF081A4629462046FFF7D8FF7B6818460837BD46B0BD90B585B000AF78607B68184600F04BF9F860FB68D8
S32D0000CF301B68002B0CD0786800F050F90446F86800F059F903461B681946204600F05DF9FB6800221A607B688B
S32D0000CF5818461437BD4690BDB0B582B000AF78603960386800F09EF80546402008F00AFB03461C4629462046AD
S32D0000CF8001F068FA2146786800F060F978680837BD46B0BD90B585B000AF78607B68184600F063F9F860FB68C8
S32D0000CFA81B68002B0CD0786800F068F90446F86800F071F903461B681946204600F075F9FB6800221A607B68CB
S32D0000CFD018461437BD4690BD80B584B000AFF860B9607A60FB68B9687A68184600F089F9FB6818461037BD4696
S32D0000CFF880BDB0B582B000AF786039607C68386800F064F90546386800F038F90346184600F069F903461A4698
S32D0000D02029462046FFF7D8FF7B6818460837BD46B0BD80B582B000AF7860786800F077F97B6818460837BD469F
S32D0000D04880BD80B582B000AF78607B6819687B689A687B681B68D31A9B101A46786800F06EF97B681846FFF77A
S32D0000D070E0FF7B6818460837BD4680BD80B483B000AF78607B6818460C37BD4680BC704780B584B000AFF8601B
S32D0000D098B9607A60B968F86800F064F900BF1037BD4680BD80B483B000AF78607B6818460C37BD4680BC7047FB
S32D0000D0C080B582B000AF786039607B683A681146184600F058F97B6818460837BD4680BD80B582B000AF786092
S32D0000D0E839607B6839681846FFF7E6FF7B6818460837BD4680BD80B582B000AF78607B68184600F050F9034653
S32D0000D11018460837BD4680BD80B582B000AF78607B68184600F050F9034618460837BD4680BD80B483B000AF70
S32D0000D13878607B6818460C37BD4680BC704780B582B000AF786039603B68002B04D01A681832126818469047D3
S32D0000D16000BF0837BD4680BD80B582B000AF78607B68184600F035F9034618460837BD4680BD80B483B000AFDA
S32D0000D18878607B6818460C37BD4680BC704790B585B000AFF860B9607A60FC687868FFF7ECFF024607F1080343
S32D0000D1B01946204600F02AF9FB6818461437BD4690BD80B582B000AF78607B68184600F036F9034618460837E9
S32D0000D1D8BD4680BD80B582B000AF78607B68184600F036F9034618460837BD4680BD80B483B000AF78607B68A4
S32D0000D20018460C37BD4680BC704780B582B000AF786039603B68002B04D01A68183212681846904700BF0837C7
S32D0000D228BD4680BD80B582B000AF786039607B683A681146184600F025F97B6818460837BD4680BD80B582B0A2
S32D0000D25000AF786039607B6839681846FFF7E6FF7B6818460837BD4680BD80B582B000AF78607B68184600F0F4
S32D0000D2781DF9034618460837BD4680BD80B582B000AF78607B68184600F01DF9034618460837BD4680BD80B4BD
S32D0000D2A083B000AF78607B6818460C37BD4680BC704780B582B000AF786039603B68002B04D01A6818321268BD
S32D0000D2C81846904700BF0837BD4680BD80B582B000AF78607B68184600F002F9034618460837BD4680BD80B451
S32D0000D2F083B000AF78607B6818460C37BD4680BC704790B585B000AFF860B9607A60FC687868FFF7ECFF0246FB
S32D0000D31807F108031946204600F0F7F8FB6818461437BD4690BD80B582B000AF7860786800F004F97B681846E8
S32D0000D3400837BD4680BD80B584B000AFF860B9607A60BB68002B05D0FB687A68B968184600F0FAF800BF10370E
S32D0000D368BD4680BD80B582B000AF786039603968786800F0FCF800BF0837BD4680BD80B582B000AF78603960A6
S32D0000D3907B68184600F007F97868FFF7B0FE02463B6813607B6818460837BD4680BD80B582B000AF78607B68CB
S32D0000D3B8184600F00EF9034618460837BD4680BD80B582B000AF78607B68184600F00DF9034618460837BD46BE
S32D0000D3E080BD80B584B000AF78607868FFF787FE03461B68FB607868FFF781FE034600221A60FB68184610372E
S32D0000D408BD4680BDB0B584B000AFF860B9607A60FC68B86800F0F5F805467868FFF7ADFE03461A462946204678
S32D0000D43000F0F5F8FB6818461037BD46B0BD80B582B000AF78607B68184600F004F9034618460837BD4680BD37
S32D0000D45880B582B000AF78607B68184600F003F9034618460837BD4680BD80B582B000AF78607B68184600F046
S32D0000D48002F9034618460837BD4680BD80B582B000AF786039607B68184600F00AF97868FFF7E3FE02463B6800
S32D0000D4A813607B6818460837BD4680BD80B582B000AF78607B68184600F011F9034618460837BD4680BD80B59F
S32D0000D4D082B000AF78607B68184600F010F9034618460837BD4680BD80B584B000AF78607868FFF7BAFE03464E
S32D0000D4F81B68FB607868FFF7B4FE034600221A60FB6818461037BD4680BDB0B584B000AFF860B9607A60FC687C
S32D0000D520B86800F072F805467868FFF7E0FE03461A462946204600F0EEF8FB6818461037BD46B0BD80B483B031
S32D0000D54800AF78607B6818460C37BD4680BC704780B584B000AFF860B9607A607A68B968F86800F0F0F800BF57
S32D0000D5701037BD4680BD80B582B000AF786039607A683B689A420AD0786800F0F0F80346184600F0F6F87B6824
S32D0000D59804337B60F0E700BF0837BD4680BD80B582B000AF78607B68184600F0F1F87B6818460837BD4680BD76
S32D0000D5C080B582B000AF78607B68184600F0F4F8034618460837BD4680BD80B582B000AF78607868FFF7ECFF5D
S32D0000D5E8034618460837BD4680BD80B582B000AF7860786800F0F2F8034618460837BD4680BD80B483B000AF0B
S32D0000D61078607B6818460C37BD4680BC704790B585B000AFF860B9607A607868FFF7A9FD03461946F86800F0B2
S32D0000D638E1F8FC68B868FFF7E4FF03461946204600F0EAF8FB6818461437BD4690BD80B582B000AF7860786884
S32D0000D660FFF707FF034618460837BD4680BD80B582B000AF7860786800F0E3F8034618460837BD4680BD80B487
S32D0000D68883B000AF78607B6818460C37BD4680BC704780B582B000AF7860786800F0D9F8034618460837BD46C8
S32D0000D6B080BD80B582B000AF78607B68184600F0D6F87B6818460837BD4680BD80B582B000AF78607B68184633
S32D0000D6D800F0D9F8034618460837BD4680BD80B582B000AF78607868FFF7ECFF034618460837BD4680BD80B533
S32D0000D70082B000AF7860786800F0D7F8034618460837BD4680BD90B585B000AFF860B9607A607868FFF7E3FD53
S32D0000D72803461946F86800F0D0F8FC68B868FFF768FF03461946204600F06EF8FB6818461437BD4690BD80B53D
S32D0000D75084B000AFF860B9607A607B689B001946B86807F011FF00BF1037BD4680BD80B483B000AF78607B6862
S32D0000D77818460C37BD4680BC704780B582B000AF78607868FFF7C6FB00BF0837BD4680BD80B582B000AF78603B
S32D0000D7A0786800F0A8F87B68184600F0B0F87B6818460837BD4680BD80B483B000AF78607B6818460C37BD46DD
S32D0000D7C880BC704780B582B000AF7860786800F0A7F8034618460837BD4680BD80B582B000AF78607868FFF7F9
S32D0000D7F0EDFF034618460837BD4680BD80B582B000AF786039603868FFF7BBFC03461946786800F093F87B683F
S32D0000D81818460837BD4680BD80B582B000AF786039603868FFF7EDFE03461A687B681A607B6818460837BD4652
S32D0000D84080BD80B582B000AF78607868FFF725FF034618460837BD4680BD80B483B000AF78607B6818460C37FD
S32D0000D868BD4680BC704780B582B000AF7860786800F072F87B68184600F07AF87B6818460837BD4680BD80B4DD
S32D0000D89083B000AF78607B6818460C37BD4680BC704780B582B000AF7860786800F071F8034618460837BD4626
S32D0000D8B880BD80B582B000AF78607868FFF7EDFF034618460837BD4680BD80B582B000AF786039603868FFF712
S32D0000D8E006FD03461946786800F05DF87B6818460837BD4680BD80B582B000AF7860786800F063F87B68184630
S32D0000D9080837BD4680BD80B483B000AF78607B6800221A607B6818460C37BD4680BC704780B483B000AF78609D
S32D0000D9307B6818460C37BD4680BC704780B582B000AF786039603868FFF71BFC03461946786800F044F87B6884
S32D0000D95818460837BD4680BD80B582B000AF7860786800F043F87B6818460837BD4680BD80B483B000AF78601D
S32D0000D9807B6800221A607B6818460C37BD4680BC704780B483B000AF78607B6818460C37BD4680BC704780B5E3
S32D0000D9A882B000AF786039603868FFF79CFC03461946786800F024F87B6818460837BD4680BD80B483B000AF67
S32D0000D9D078607B6818460C37BD4680BC704780B483B000AF786039607B6818460C37BD4680BC704780B483B06F
S32D0000D9F800AF78607B6818460C37BD4680BC704780B483B000AF786039607B6818460C37BD4680BC70470000FF
S32D0000DA2080B582B000AF786039607B68012B0CD13B684FF6FF72934207D1064808F054F8054A0649034807F0ED
S32D0000DA481BFD00BF0837BD4680BD00BFE417002000000020095B010080B500AF4FF6FF710120FFF7D9FF80BD36
S32D0000DA7080B400AF024B1846BD4680BC704700BFFFFF7F7F2DE9B04384B000AFF860B9607A603B60FB684FF4D1
S32D0000DA98A0721A60FB68F0225A60FB686FF07F429A60FB684C4ADA60FB684C4A1A61FB6800225A61FB684A4A4A
S32D0000DAC09A62FB68002283F82D20FB685C33184624F052FAFB681B68184638F08BFB4FF000024FF0804338F0E2
S32D0000DAE829FD02460B4614461D46786824F09AFA0346184638F07AFB4FF000024FF0804338F018FD02460B46AF
S32D0000DB1090469946354805F027FC0346184638F079FB02460B464046494638F0DDFB02460B462046294638F016
S32D0000DB381FFA02460B461046194638F0B3FE0246FB685A63B86838F0B7FF0246FB689A63786824F067FA0446D2
S32D0000DB60224805F001FC034604FB03F3184638F0A3FF0246FB685A651C4805F0FFFB0346184638F09DFF024665
S32D0000DB88FB689A65FB685C337968184624F004FAFB6800221A76FB6801225A76FB68002283F82C20FB6800228E
S32D0000DBB083F82D203A68FB68DA61BA6AFB681A62FB681B691A46FB685A62FB68DA69FB681A63FB681846103748
S32D0000DBD8BD46BDE8B08300BF6666660021212100E22B8A00C81A002090B585B000AFF860B9607A603B60FB68E5
S32D0000DC004FF4A0721A60FB68F0225A60FB686FF07F429A60FB682E4ADA60FB682D4A1A61FB6800225A61FB686E
S32D0000DC282B4A9A62FB68002283F82D20FB685C33184624F09DF9FB68BA685A63FB687A689A63386824F0EEF9F7
S32D0000DC500446224805F088FB034604FB03F3184638F02AFF0246FB685A651C4805F086FB0346184638F024FF57
S32D0000DC780246FB689A65FB685C333968184624F08BF9FB6800221A76FB6801225A76FB68002283F82C20FB6831
S32D0000DCA0002283F82D203A6AFB68DA617A6AFB681A62FB681B691A46FB685A62FB68DA69FB681A63FB681846BA
S32D0000DCC81437BD4690BD00BF6666660021212100E22B8A00C81A0020F0B58BB002AF78607B681B6B19463348FA
S32D0000DCF005F037FF7B685C6B304805F035FB0346184638F0DDFE03461946204638F022FE0346184639F004F9C7
S32D0000DD1805467B689B6B184639F0FEF806467B685C6D244805F01CFB03465B00184638F0C3FE034619462046C3
S32D0000DD4038F00AFE0346184639F0EAF804467B689B6D184639F0E4F803460093234632462946164806F0B7FB09
S32D0000DD687B6803F15C0207F108031146184624F0EBFB7B685B6B184639F0CEF804467B689B6B4FF0814118461E
S32D0000DD9038F0E2FD0346184639F0C2F8034607F108012246054805F012FF07F10803184624F0EAF800BF24375E
S32D0000DDB8BD46F0BDC81A0020B0B584B000AF78607B685B7E002B00F046810023FB730023BB737B6803F13C01D7
S32D0000DDE07B6840331A46924805F0A2FF7B68DC6B7B685D6B8E4805F0B7FA0346184638F05FFE0346194628465C
S32D0000DE0838F0A4FD03461946204639F05BF80346002B44D07B68DC6B7B685A6B7B685B6D1946104638F094FD26
S32D0000DE3003461D467E4805F097FA0346184638F03FFE03461946284638F086FD03464FF07E51184638F07EFDA7
S32D0000DE5803461946204639F02BF80346002B1ED07B681A6C7B689B6B1946104639F02AF80346002B13D07B6854
S32D0000DE801C6C7B689A6B7B689B6D1946104638F063FD03461946204639F00EF80346002B01D0012200E0002235
S32D0000DEA87B6883F82C207B6803F13C017B6840331A465D4805F038FF034683F00103DBB2002B6ED17B6803F179
S32D0000DED044017B6848331A46554805F029FF0346002B62D07B68DC6B7B685D6B504805F045FA0346184638F051
S32D0000DEF8E3FD03461946284638F028FD03461946204638F0DFFF0346002B27D07B68DC6B7B685A6B7B685B6DBD
S32D0000DF201946104638F018FD03461D46404805F01BFA0346184638F0C3FD03461946284638F00AFD03464FF047
S32D0000DF487E51184638F002FD03461946204638F0AFFF0346002B01D0012300E00023FB737B681A6C7B689B6B47
S32D0000DF701946104638F0AAFF0346002B13D07B681C6C7B689A6B7B689B6D1946104638F0E3FC0346194620469E
S32D0000DF9838F08EFF0346002B01D0012300E00023BB73FB7B002B19D0BB7B002B16D07B685B69002B03D17B68B2
S32D0000DFC001225A6106E07B685B69012B02D17B6802225A617B681A6A7B681A637B6801221A763CE07B685B69E7
S32D0000DFE8022B03D17B6803225A6106E07B685B69032B02D17B6800225A617B6893F82C30002B13D07B689A6A3A
S32D0000E0107B681A637B6893F82D3083F00103DBB2002B0FD07B68012283F82D200AE000BFC81A00207B68DA690A
S32D0000E0387B681A637B68002283F82D207B6800221A76FFF711FD02467B68DA63FFF70CFD02467B681A64786804
S32D0000E060FFF73EFE00BF1037BD46B0BD80B483B000AF78607B681B7E18460C37BD4680BC704780B485B000AFD1
S32D0000E08878600023FB737B685B69012B04D17B6802225A610123FB73FB7B18461437BD4680BC704780B582B089
S32D0000E0B000AF78603960386838F002FD02467B689A6500BF0837BD4680BD80B584B000AFF860B9607A60B9686F
S32D0000E0D8F86838F0EDFE0346002B01D0BB6809E07968F86838F0EEFE0346002B01D07B6800E0FB6818461037F1
S32D0000E100BD4680BD80B584B000AFF860C7E90023D7E90623D7E9000137F02EFF02460B46F968C1E90023FB6846
S32D0000E128D3E90023F968C1E90223F9684FF000024FF00003C1E90423FB684FF00002DA62FB68064A1A62FB6893
S32D0000E150054A5A62FB68034A9A62FB6818461037BD4680BDACC5273795BFD633000000002DE9B04386B000AF88
S32D0000E178F860C7E90023D7E90C23D7E9000137F0F7FE02460B46F968C1E90023FB68D3E90445FB68D3E9000133
S32D0000E1A04DA3D3E9002338F09FF802460B462046294637F0E3FE02460B46F968C1E904234FF00002464BC7E900
S32D0000E1C80423FB68D3E904231046194638F06AFB0346424A42491846FFF773FF0346184638F026F802460B46CE
S32D0000E1F0F968C1E90423FB68D3E90001FB68D3E9022337F0B9FE02460B461046194632A3D3E9002338F092F9D8
S32D0000E21802460B46F968C1E90623FB68D3E90023F968C1E90223FB68DB6A184638F000F804460D46FB681B6AEE
S32D0000E240184637F0F9FFFB68D3E9002338F04CF802460B4690469946FB685B6A184637F0EBFFFB68D3E904235A
S32D0000E26838F03EF802460B464046494637F082FE02460B4690469946FB689B6A184637F0D7FFFB68D3E906237C
S32D0000E29038F02AF802460B464046494637F06EFE02460B462046294637F068FE02460B461046194638F0FAFA70
S32D0000E2B80246FB68DA62FB68DB6A184638F02CFE034618461837BD46BDE8B083AFF30080FCA9F1D24D62503F60
S32D0000E2E000408F4000007A4400007AC480B485B000AFF860B9607A603B60FB68BA681A62FB687A685A62FB68A2
S32D0000E3083A689A6200BF1437BD4680BC7047000080B582B000AF786039607B68012B0CD13B684FF6FF729342A8
S32D0000E33007D1064807F0D8FB054A0649034807F09FF800BF0837BD4680BD00BFE817002000000020095B0100B7
S32D0000E35880B500AF4FF6FF710120FFF7D9FF80BD80B586B002AF786039603A23FB60386837F05EFF02460B46D0
S32D0000E3807868CDE90023044B3A22044900F040F978681037BD4680BD2C9E05000D09050090B583B000AF786045
S32D0000E3A8396004F075FA0346184638F081FB03467968184638F0CAFA0346012214461946386838F075FD0346E4
S32D0000E3D0002B01D100231C46E3B218460C37BD4690BD000080B582B000AF7860064A7B681A607B680433184604
S32D0000E3F823F0BEFD7B6818460837BD4680BD00BFBC9E050080B582B000AF7860064A7B681A607B680433184638
S32D0000E42023F0B2FD7B6818460837BD4680BD00BFBC9E050080B582B000AF78607868FFF7E5FF1C21786807F072
S32D0000E4489FF87B6818460837BD4680BD90B585B000AF786039607B681846FFF7BFFF164A7B681A607B683A687E
S32D0000E470DA617B6803F1280407F10C03184607F055F907F10C031A460E49204624F0A6F807F10C03184607F064
S32D0000E4984BF904F0FDF90346184638F009FB02467B681A627B68002283F824207B6818461437BD4690BD00BF4F
S32D0000E4C0989E0500309E050080B582B000AF786004F0E2F90346184638F0EEFA02467B681A6200BF0837BD4604
S32D0000E4E880BD000080B58AB000AF78607B68D8694FF000034FF03F424FF0000101F0E4FA7B68DB69184601F028
S32D0000E510F7FA002300222549254805F035FB04F0BBF90346184638F0C7FA02467B681B6A1946104638F00EFADA
S32D0000E53803467B6207F10C03796A1846FFF710FF0F2300221949184805F01AFB07F10C03184623F0D7FF01468D
S32D0000E5601E230022124805F00FFB2D23002212490F4805F009FB7B681B6A10491846FFF70FFF0346002B08D045
S32D0000E5887B68DB69184601F0E3FB7B68012283F8242007F10C03184623F0F2FC00BF2837BD4680BD3C9E0500A9
S32D0000E5B0C81A0020549E0500609E05000080BB4580B483B000AF78607B6893F8243018460C37BD4680BC70477A
S32D0000E5D880B483B000AF78607B68012283F8242000BF0C37BD4680BC704780B582B000AF786039603B682833E5
S32D0000E6001946786823F0A4FF78680837BD4680BD08B490B588B000AFF860B9607A607B680733DB08DB00ADEBF2
S32D0000E628030D6B460733DB08DB00FB6107F130033B61BC683B69FA6A7968F869A047B861BB69FA69D41807F10F
S32D0000E6501403184607F06AF807F114032246F969F86800F00CF807F11403184607F060F8F8682037BD46BDE886
S32D0000E678904001B0704790B585B000AFF860B9607A603B60FC68F86823F066FB03463A681946204623F056FFDD
S32D0000E6A07A68B968F86800F005F8FB6818461437BD4690BD80B584B000AFF860B9607A607A68B968F86800F0EA
S32D0000E6C804F800BF1037BD4680BD90B587B000AFF860B9607A603B7023467A68B968F86800F004F800BF1C37F7
S32D0000E6F0BD4690BD80B586B000AFF860B9607A603B70B86800F03EF80346002B05D0BA687B689A4201D0012337
S32D0000E71800E00023002B02D0174819F0EBF87968B86800F03AF803467B617B690F2B10D907F1140300221946A9
S32D0000E740F86823F017FB03461946F86823F004FB7B691946F86823F005FBF86823F0FEFA03467A68B968184641
S32D0000E76823F050FB7B691946F86823F0F9FA00BF1837BD4680BD00BF649E050080B483B000AF78607B68002B6C
S32D0000E7900CBF01230023DBB218460C37BD4680BC7047B0B582B000AF786039607C683B1D184600F00AF82A4672
S32D0000E7B83968204600F00FF8034618460837BD46B0BD80B483B000AF786000BF18460C37BD4680BC704780B467
S32D0000E7E085B000AFF860B9603A71BA68FB68D31A18461437BD4680BC7047000080B582B000AF7860084A7B68D7
S32D0000E8081A607B682833184623F0BAFB7B681846FFF7F8FD7B6818460837BD4680BD00BF989E050080B582B0B7
S32D0000E83000AF78607868FFF7E1FF4021786806F0A3FE7B6818460837BD4680BD90B585B000AF786039607B6868
S32D0000E8581846FFF7C3FD164A7B681A607B683A68DA617B6803F1280407F10C03184606F059FF07F10C031A46E4
S32D0000E8800E49204623F0AAFE07F10C03184606F04FFF04F001F80346184638F00DF902467B681A627B680022DB
S32D0000E8A883F824207B6818461437BD4690BD00BF6C9F0500089F050080B582B000AF786003F0E6FF03461846BF
S32D0000E8D038F0F2F802467B681A6200BF0837BD4680BD000080B58AB000AF78607B68D8694FF000034FF07C52BA
S32D0000E8F84FF0000101F0E8F87B68DB69184601F0FBF8002300222549254805F039F903F0BFFF0346184638F0B1
S32D0000E920CBF802467B681B6A1946104638F012F803467B6207F10C03796A1846FFF714FD0F23002219491848E4
S32D0000E94805F01EF907F10C03184623F0DBFD01461E230022124805F013F92D23002212490F4805F00DF97B683E
S32D0000E9701B6A10491846FFF713FD0346002B08D07B68DB69184601F0E7F97B68012283F8242007F10C0318466B
S32D0000E99823F0F6FA00BF2837BD4680BD149F0500C81A0020289F0500349F05000080BB4580B483B000AF786024
S32D0000E9C07B6893F8243018460C37BD4680BC704780B483B000AF78607B68012283F8242000BF0C37BD4680BCDC
S32D0000E9E8704780B582B000AF786039603B6828331946786823F0A8FD78680837BD4680BD80B582B000AF786081
S32D0000EA10084A7B681A607B682833184623F0B4FA7B681846FFF7F2FC7B6818460837BD4680BD00BF6C9F050018
S32D0000EA3880B582B000AF78607868FFF7E1FF4021786806F09DFD7B6818460837BD4680BD80B483B000AF78608D
S32D0000EA6039603B6818460C37BD4680BC704780B582B000AF78607B68184600F0DBF87B6818460837BD4680BD03
S32D0000EA8880B582B000AF78607B681846FFF7EBFF7B6818460837BD4680BD000080B582B000AF78607B68083385
S32D0000EAB0184623F061FA7B6820331846FFF7E4FF7B6800225A607B6808330749184623F029FC7B6800221A70AD
S32D0000EAD87B6800225A707B6818460837BD4680BDA09F050090B583B000AF786039607B6803F12004386800F01A
S32D0000EB00A9F803461946204600F0AEF800BF0C37BD4690BD90B58BB000AF78607B682033184600F0B2F8786241
S32D0000EB287B685B687A6A9A4256D97B6803F120027B685B681946104600F0B2F838627B6803F10804386A00F02D
S32D0000EB50BAF803461A681032126807F108001946904707F108031946204623F01FFA07F10803184623F008FABE
S32D0000EB78386A00F0A4F803461A680832126818469047034683F00103DBB2002B1BD07B685B7883F00103DBB270
S32D0000EBA0002B0AD0386A00F08EF803461A681268184690477B6801225A70386A00F083F803461A680432126858
S32D0000EBC81846904711E07B685B685A1C7B685A607B6800225A7008E07B6801221A707B6808330449184623F01D
S32D0000EBF099FB00BF2C37BD4690BD00BFA09F050080B582B000AF786039603B6808331946786823F09DFC7868BE
S32D0000EC180837BD4680BD80B483B000AF78607B681B7818460C37BD4680BC704780B582B000AF7860786800F096
S32D0000EC404EF87B68184600F056F87B6818460837BD4680BD80B483B000AF78607B6818460C37BD4680BC7047B9
S32D0000EC6880B582B000AF786039603868FFF7EEFF03461946786800F04DF800BF0837BD4680BD80B483B000AF63
S32D0000EC9078607B685A687B681B68D31A9B1018460C37BD4680BC704780B483B000AF786039607B681A683B68B5
S32D0000ECB89B00134418460C37BD4680BC704780B582B000AF7860786800F052F8034618460837BD4680BD80B542
S32D0000ECE082B000AF7860786800F053F87B6818460837BD4680BD80B483B000AF78607B6800221A607B68002200
S32D0000ED085A607B6800229A607B6818460C37BD4680BC7047B0B582B000AF786039607B685A687B689B689A428C
S32D0000ED3011D07C687B685D68386800F034F803461A462946204600F038F87B685B681A1D7B685A600CE07868A8
S32D0000ED5800F042F80446386800F021F803461A462146786800F05EF800BF0837BD46B0BD80B582B000AF7860DE
S32D0000ED807B68184600F00EF9034618460837BD4680BD80B483B000AF78607B6818460C37BD4680BC704780B46B
S32D0000EDA883B000AF78607B6818460C37BD4680BC704780B584B000AFF860B9607A607868FFF7EDFF03461A463B
S32D0000EDD0B968F86800F014F900BF1037BD4680BD80B584B000AF78607B681A1D07F10C031146184600F01CF986
S32D0000EDF8FB6818461037BD4680BD80B582B000AF184600F005F8034618460837BD4680BD80B483B000AF38715F
S32D0000EE20012318460C37BD4680BC7047B0B58CB000AFF860B9607A60594A0121F86800F006F9B862FB681B685A
S32D0000EE487B62FB685B683B62F86800F043F903467B6107F1140207F108031146184600F049F90346FB61FB684B
S32D0000EE70B96A184600F057F9B861BB69FB62FC68FB699B00BA69D5187868FFF78CFF03461A4629462046FFF7D1
S32D0000EE9890FF0023FB62FFF7B0FF0346002B27D007F10803184600F062F903461C68FB681846FEF7DFF80346DE
S32D0000EEC0BA692146786A00F042F9F862FB6A0433FB6207F10803184600F04DF903461C68FB681846FEF7CAF85E
S32D0000EEE80346FA6A396A204600F02DF9F86226E007F10803184600F03AF903461C68FB681846FEF7B7F80346D1
S32D0000EF10BA692146786A00F038F9F862FB6A0433FB6207F10803184600F025F903461C68FB681846FEF7A2F867
S32D0000EF380346FA6A396A204600F023F9F862FFF75CFF034683F00103DBB2002B09D0FB681846FEF78FF8034667
S32D0000EF601A46396A786AFEF793F8F868FB689A687B6AD31A9B101A46796AFEF7E4F9FB68BA691A60FB68FA6A00
S32D0000EF885A60BB6A9B00BA691A44FB689A6000BF3037BD46B0BD00BFA89F050080B582B000AF78607B68184633
S32D0000EFB000F011F903461B6818460837BD4680BD80B582B000AF786039607B683A681146184600F01DF97B68E6
S32D0000EFD818460837BD4680BD80B582B000AF786039607B683A6811461846FFF7E5FF7B6818460837BD4680BDD3
S32D0000F00090B585B000AFF860B9607A607868FFF7CAFE0446BB6819460420FFF71DFD034621461846FFF7DCFFF1
S32D0000F02800BF1437BD4690BD80B483B000AF786039603B681A687B681A607B6818460C37BD4680BC704790B598
S32D0000F05087B000AFF860B9607A60F86800F0F2F80446F868FFF711FE0346E21ABB689A4234BF01230023DBB26D
S32D0000F078002B02D0786818F055FCF868FFF701FE0446F868FFF7FDFD03463B6107F1080207F11003114618469E
S32D0000F0A000F0E1F803461B6823447B61F868FFF7ECFD02467B69934206D3F86800F0C2F802467B69934204D969
S32D0000F0C8F86800F0BBF8034600E07B6918461C37BD4690BD80B584B000AF78607A6807F10C0311461846FFF785
S32D0000F0F09FFFFB6818461037BD4680BD90B583B000AF78603960786800F035F803461C68386800F030F80346A9
S32D0000F1181B68E31A9B1018460C37BD4690BD80B582B000AF786039603B68002B06D07B683968184600F0A6F812
S32D0000F140034600E0002318460837BD4680BD90B587B002AFF860B9607A603B608DF800403B687A68B968F8689A
S32D0000F16800F09FF8034618461437BD4690BD80B483B000AF78607B6818460C37BD4680BC704790B585B000AF1F
S32D0000F190F860B9607A603B60F86800F098F80446B86800F094F801463B687A68204600F09DF8034618461437FC
S32D0000F1B8BD4690BD80B582B000AF786039603968786800F0A0F800BF0837BD4680BD80B582B000AF78607B683A
S32D0000F1E0184600F0A0F8034618460837BD4680BD80B582B000AF786039607B683A681146184600F0A6F87B68C3
S32D0000F20818460837BD4680BD90B583B000AF786039607C683B68184600F08DF8034619462046FFF7E1FF386885
S32D0000F230FDF7C7FF034600221A607B6818460C37BD4690BD80B582B000AF78607B68184600F0BCF803461846C3
S32D0000F25800F09EF8034618460837BD4680BD80B483B000AF786039607B681A683B681B689A4201D23B6800E098
S32D0000F2807B6818460C37BD4680BC704780B582B000AF7860396000223968786800F0A0F8034618460837BD464B
S32D0000F2A880BD80B584B000AFF860B9607A603B603B687A68B968F86800F0ACF8034618461037BD4680BD80B500
S32D0000F2D084B000AF786007F10C037968184600F0BAF8FB6818461037BD4680BD80B584B000AFF860B9607A60C2
S32D0000F2F83B607A68B968F86800F0BBF8034618461037BD4680BD80B582B000AF786039603868FDF7FFFD00BF43
S32D0000F3200837BD4680BD80B582B000AF7860786800F0B5F8034618460837BD4680BD80B483B000AF78607B68DE
S32D0000F34818460C37BD4680BC704790B583B000AF78603960386800F0ABF80346184600F0B1F80346194678686D
S32D0000F37000F0C0F87C683868FEF77BF80346184600F0AEF803461946204600F0C9F87B6818460C37BD4690BD0B
S32D0000F39880B584B000AF78606FF06043FB60786800F0CBF80346BB6007F1080207F10C031146184600F0CDF890
S32D0000F3C003461B6818461037BD4680BD80B483B000AF78607B6818460C37BD4680BC704780B584B000AFF86096
S32D0000F3E8B9607A60F86800F0C7F80246BB6893428CBF01230023DBB2002B01D018F05AFABB689B00184606F02C
S32D0000F410BDF8034618461037BD4680BDB0B584B000AFF860B9607A603B60F86800F0B3F80446B86800F0AFF8C1
S32D0000F4380546786800F0ABF802463B682946204600F0AFF8034618461037BD46B0BD80B582B000AF78603960AC
S32D0000F4603B46184600F0C7F803461A687B681A607B6818460837BD4680BD80B586B000AFF860B9607A6001237F
S32D0000F488FB757A68B968F86800F0BBF8034618461837BD4680BD80B582B000AF78607B68184600F0DDF803466D
S32D0000F4B018460837BD4680BD80B483B000AF78607B6818460C37BD4680BC704780B483B000AF78607B681846BA
S32D0000F4D80C37BD4680BC704780B483B000AF78607B6818460C37BD4680BC704780B582B000AF7860396038683E
S32D0000F500FEF7CBF80346184600F0B8F803461946786800F0BDF87B6818460837BD4680BD80B582B000AF786003
S32D0000F52839603868FFF7D8FF03461A687B681A607B6818460837BD4680BD80B582B000AF7860786800F0ADF864
S32D0000F550034618460837BD4680BD80B483B000AF786039603B681A687B681B689A4201D23B6800E07B681846E2
S32D0000F5780C37BD4680BC704780B483B000AF78606FF0604318460C37BD4680BC704780B483B000AF78607B68D4
S32D0000F5A018460C37BD4680BC704790B587B000AFF860B9607A603B607B687B61FA68BB689A4213D07869FEF7BC
S32D0000F5C8D2F80446F868FEF7CEF803463A681946204600F072F8FB680433FB607B6904337B61E7E77B691846E0
S32D0000F5F01C37BD4690BD80B483B000AF78607B6818460C37BD4680BC704790B587B000AFF860B9607A607B6889
S32D0000F6187B6107F1080207F10C031146184600F067F80346002B16D07869FEF79CF8044607F10C03184600F078
S32D0000F6407BF803461946204600F081F807F10C03184600F062F87B6904337B61DDE77B6918461C37BD4690BD63
S32D0000F66880B483B000AF78607B6818460C37BD4680BC704780B483B000AF78607B6818460C37BD4680BC7047A4
S32D0000F69080B582B000AF786039603868FFF7EEFF7B6818460837BD4680BD80B582B000AF78607868FFF764FF5B
S32D0000F6B8034618460837BD4680BD80B584B000AFF860B9607A60B868FFF7C0FA03461A46F9687868FFF76DFB83
S32D0000F6E0B868FEF744F8034619467868FFF766FD00BF1037BD4680BD80B582B000AF786039603968786800F08C
S32D0000F70839F8034683F00103DBB218460837BD4680BD80B483B000AF78607B681B681A1D7B681A607B6818464F
S32D0000F7300C37BD4680BC704780B483B000AF78607B681B6818460C37BD4680BC704790B583B000AF78603960EF
S32D0000F7583868FFF724FB04467B6819460420FFF777F9034621461846FFF736FC00BF0C37BD4690BD90B583B0B8
S32D0000F78000AF78603960786800F00EF80446386800F00AF803469C420CBF01230023DBB218460C37BD4690BDD2
S32D0000F7A880B483B000AF78607B681B6818460C37BD4680BC704780B483B000AF78607B6823F0004318460C3780
S32D0000F7D0BD4680BC704780B582B000AF7860786835F090FC034618460837BD4680BD90B583B000AF78603960D8
S32D0000F7F87B681A683B681B681946104637F0B0F903461C467B6804331A683B6804331B681946104637F0A4F9B6
S32D0000F82003461946204637F097F8034618460C37BD4690BD90B583B000AF78607B681A687B681B68194610463D
S32D0000F84837F08EF903461C467B6804331A687B6804331B681946104637F082F903461946204637F075F80346BE
S32D0000F8701846FFF7B0FF034618460C37BD4690BD80B584B000AF786039607868FFF7D2FFF8604FF00001F86805
S32D0000F89837F0FAFA0346002B02D04FF0000309E079683868FFF79FFF0346F968184637F00BFA0346184610377F
S32D0000F8C0BD4680BD80B582B000AF7860084611461A460346FB700B46BB7013467B707868BA78F978FB6900F09C
S32D0000F8E81FFB7B68724A783307CA83E807007B6803F188003A7C7978FB6900F011FB7B686B4A03F5807307CA91
S32D0000F91083E807007B6803F588703A7E397DFB6900F002FB7B68644A03F5C47307CA83E807007B684FF07E52D0
S32D0000F938C3F894217B684FF00002C3F898217B685C4A03F5CE7392E8030083E803007B68594A03F5D27392E8AF
S32D0000F960030083E803007B684FF00002C3F8AC217B684FF00002C3F8B0217B684FF00002C3F8B4217B684FF0D6
S32D0000F9880002C3F8B8217B684FF00002C3F8BC217B684FF00002C3F8C0217B684FF00002C3F8C4217B684FF059
S32D0000F9B00002C3F8C8217B684FF00002C3F8CC217B68002283F8D6217B68012283F8D7217B68022283F8D8214C
S32D0000F9D87B684FF00002C3F8DC217B684FF00002C3F8E0217B684FF00002C3F8E4217B68324AC3F8EC217B6857
S32D0000FA004FF07E52C3F8F0217B682F4AC3F8F4217B684FF07E52C3F8F8217B682B4AC3F8FC217B68FA7883F80B
S32D0000FA28D0217B687A7883F8D2217B683A7D83F8D4217B68BA7883F8D1217B683A7C83F8D3217B683A7E83F8D2
S32D0000FA50D5217B68FA69C3F8E8217B68002283F8002278687B68996F7B68DA6F7B68D3F8803000F047FC7B687B
S32D0000FA7803F188007B68D3F800117B68D3F804217B68D3F8083100F039FC7B6803F588707B68D3F888117B6849
S32D0000FAA0D3F88C217B68D3F8903100F02BFC7B6818460837BD4680BDC49F0500D09F0500D89F050000001041D1
S32D0000FAC800004041CDCCCC3D80B485B000AFF860B9607A603B60FB68BA68C3F8AC21FB687A68C3F8B021FB68AE
S32D0000FAF03A68C3F8B42100BF1437BD4680BC704790B58DB000AF78607B6803F5CA727B6803F5D67319461046BD
S32D0000FB18FFF7B2FEF8627B6803F5CE727B6803F5D67319461046FFF7A7FEB8627B6803F5D2727B6803F5D673D3
S32D0000FB4019461046FFF79CFE78627B68D3F8B4313B627B68D3F8F83183F000417B68D3F8F8311A46386AFEF7EF
S32D0000FB68B0FAF861F969F86A36F0F2FE0346FB62F969B86A36F0ECFE0346BB62F969786A36F0E6FE03467B627E
S32D0000FB90F86AFFF714FE0346FB60B86AFFF70FFE03463B61786AFFF70AFE03467B6107F1140207F110031146BA
S32D0000FBB8184600F084F9024607F10C031146184600F07DF903461B68BB617B68D3F8F0311946B86937F080F913
S32D0000FBE00346002B29D07B68D3F8F031B969184637F06EF803461946F86A36F0B5FF0346FB627B68D3F8F03155
S32D0000FC08B969184637F060F803461946B86A36F0A7FF0346BB627B68D3F8F031B969184637F052F8034619466B
S32D0000FC30786A36F099FF03467B62BB6983F00043BA691946F86AFEF740FA02467B68C3F8DC21BB6983F0004336
S32D0000FC58BA691946B86AFEF734FA02467B68C3F8E021BB6983F00043BA691946786AFEF728FA02467B68C3F895
S32D0000FC80E4217B6893F80032002B34D07C687B68D3F8DC217B68D3F8F4311946104636F063FF034619462046D5
S32D0000FCA800F0A4FA7B6803F188047B68D3F8E0217B68D3F8F4311946104636F051FF03461946204600F092FA06
S32D0000FCD07B6803F588747B68D3F8E4217B68D3F8F4311946104636F03FFF03461946204600F080FA2AE07C682A
S32D0000FCF87B68D3F8DC311549184636F031FF03461946204600F091F97B6803F188047B68D3F8E0310D491846B3
S32D0000FD2036F022FF03461946204600F082F97B6803F588747B68D3F8E4310649184636F013FF03461946204668
S32D0000FD4800F073F900BF3437BD4690BD0000C84280B582B000AF78604FF000034FF000024FF000017868FFF726
S32D0000FD70AFFE7B68184600F088F97B688833184600F083F97B6803F58873184600F07DF900BF0837BD4680BDC6
S32D0000FD9880B582B000AF78607B68184600F07EF9034618460837BD4680BD80B582B000AF78607B688833184697
S32D0000FDC000F070F9034618460837BD4680BD80B582B000AF78607B6803F58873184600F061F903461846083744
S32D0000FDE8BD4680BD80B582B000AF78607B68184600F066F9034618460837BD4680BD80B582B000AF78607B6838
S32D0000FE108833184600F058F9034618460837BD4680BD80B582B000AF78607B6803F58873184600F049F90346A7
S32D0000FE3818460837BD4680BD80B483B000AF78600B46FB707B68FA7883F8002200BF0C37BD4680BC704780B5F6
S32D0000FE6082B000AF78607B680121184600F0D2F87B6888330121184600F0CCF87B6803F588730121184600F086
S32D0000FE88C5F800BF0837BD4680BD80B582B000AF78607B680021184600F0B8F87B6888330021184600F0B2F8AA
S32D0000FEB07B6803F588730021184600F0ABF800BF0837BD4680BD80B582B000AF786039607B681A683B681B68EC
S32D0000FED81946104636F0E2FF0346002B01D03B6800E07B6818460837BD4680BD80B582B000AF7860094803F086
S32D0000FF00EAFD0421074803F0F1FD0221054803F014FE786822F0FAFA03461946014804F03DF8EEE7C81A00204B
S32D0000FF2880B586B002AFF8607B600B46FB721346BB72FB68334A5A60FB684FF07E52DA60FB681033F97A7A68D7
S32D0000FF50184600F039FDFB681833BA7A1146184602F0B6FCFB6803F128014FF000024FF00003CDE900234FF0A9
S32D0000FF7800024FF000030846FEF7C0F8FB684FF49F725A66FB68204A9A66FB684FF00002DA66FB684FF0000250
S32D0000FFA01A67FB68FA7A1A70FB687A689A60FB685B6E184636F080FD0246FB681A66FB685A7EFB685A76FB68E9
S32D0000FFC81833184602F040FFFB68022283F87420FB68012283F87520FB684FF00002DA6602F056FC0346184636
S32D0000FFF036F062FD0246FB681A67FB68002283F82420FB6818461037BD4680BD00001041D153FB4080B483B08F
S32D0001001800AF78600B46FB707B68FA7883F8742000BF0C37BD4680BC704780B582B000AF786039604FF0000153
S32D00010040386836F04DFF0346002B04D07B68002283F8752003E07B68022283F875204FF00001386836F014FF0F
S32D000100680346002B03D07B68012283F875207B6810333968184600F023FD00BF0837BD4680BD80B582B000AF83
S32D0001009078607B681033184600F0D4FC00BF0837BD4680BD80B582B000AF78607B681833184602F0BBFE034679
S32D000100B8184636F001FD034618460837BD4680BD80B58CB000AF78604FF07E53BB6202F0DFFB0346184636F0B3
S32D000100E0EBFC03467B627B6893F8243083F00103DBB2002B15D07B687A6A1A677B68012283F824207B681833D3
S32D00010108184602F08FFE0346184636F0D5FC02467B68DA667B68DB6D62E07B681B6F1946786A36F013FC034649
S32D000101303B62B96A386A36F0B5FE0346002B02D07B68DB6D50E07B681833184602F06EFE0346184636F0B4FC5D
S32D000101580346FB617B68DB6E1946F86936F0F6FB0346BB614FF00001386A36F0A1FE0346002B02D07B68DB6D53
S32D0001018032E07B681B6E1946B86936F0A1FD03467B617B689B6E1946786936F0E5FC03463B611349386A36F02D
S32D000101A893FD0346FB60F968386936F08DFD0346FB627B6893F87530022B03D1FB6A83F00043FB627B68FA69CA
S32D000101D0DA667B687A6A1A677B68FA6ADA657B68002283F82420FB6A18463037BD4680BD00007A44F0B58FB022
S32D000101F802AF786039607B6893F87430012B56D17B683A689A654FF00001386836F064FE0346002B04D07B683A
S32D00010220002283F8752003E07B68022283F875204FF00001386836F02BFE0346002B03D07B68012283F87520F7
S32D000102487868FFF73DFFF8627B6803F128067B689B6D184635F0ECFF04460D46F86A35F0E7FF02460B46CDE964
S32D00010270002322462B463046FDF77AFFB862B86A36F01EFC02467B68DB681946104636F01FFD03461849184697
S32D0001029836F066FC03467B62154A1649786AFDF710FF7862796A7868FFF7BFFE1BE007F12003184605F036FAFD
S32D000102C007F1200207F108030D49184622F086F907F108031846FFF70DFE07F10803184621F052FE07F120036E
S32D000102E8184605F021FA00BF3437BD46F0BD00BF0000C8420000C8C218A0050080B584B000AFF860B9607A602C
S32D000103103B60FB6803F128003B687A68B968FDF7E5FF00BF1037BD4680BD000080B500AF0F4BD3F8A03003F410
S32D000103388053002B14BF01230023DBB2002B10D0094BD3F8A030084A23F48053C2F8A030064805F01FF8064B86
S32D000103601B68054A23F40053136000BF80BD00BF00C00440501B0020C0F00F4080B400AF124B4FF480725A6344
S32D00010388114B5B69104A43F4005353610E4B1B680D4A43F4005313600A4B0C4A1A630C4BD3F888310A4A43F0D4
S32D000103B08063C2F88831084B9B68074A43F08063936000BFBD4680BC704700BF00C00440C0F00F4003010A0093
S32D000103D800E100E080B400AF334B00225A70324B98221A70304B9B79DBB203F01003002B14BF01230023DBB233
S32D00010400002B00D0F2E72A4B9B79DBB29B08DBB203F00303022B14BF01230023DBB2002B00D0F0E7224B18226D
S32D000104281A71214B00225A71204B03F580531A461F4B53641C4B54225A711B4B9B79DBB203F02003002B0CBF4F
S32D0001045001230023DBB2002B00D0F2E7144B9B79DBB203F04003002B0CBF01230023DBB2002B00D0F2E70E4BA8
S32D000104781B78DBB20C4A03F03F03DBB213700A4B9B79DBB29B08DBB203F00303032B14BF01230023DBB2002B7B
S32D000104A000D0F0E700231846BD4680BC704700BF00400640007004400000130180B500AF314B03F580539B6BD1
S32D000104C82F4A43F4785302F580529363FFF752FFFFF780FF2B4B58221A602A4B1B684FF47A7202FB03F3284A19
S32D000104F01360274B1B681A46234B03F580535B6C1B0E03F00F030133B2FBF3F31A46214B1A601D4B03F58053A7
S32D00010518DB6B1B4A43F0225302F58052D363184B03F580531B6B164A43F0006302F580521363174B4FF48072E2
S32D000105401A61642002F058F8134B5B69124A23F010035361104B00221A600F4B10225A610E4803F045F902F03C
S32D00010568EDFC02F04BFD0C4802F0A4F80B4804F065FF4FF4FA6002F04FF900BF80BD00BF00700440141A002020
S32D00010590101A0020181A002000D00340C81A00200C1A0020C01B002080B500AFFBF7CBFE00BF80BD80B500AFCB
S32D000105B8FBF7C5FE00BF80BD80B500AFFBF7BFFE00BF80BD80B500AFFBF7B9FE00BF80BD80B500AFFBF7B3FEC4
S32D000105E000BF80BD80B500AFFBF7ADFE00BF80BD80B500AFFBF7A7FE00BF80BD80B500AFFBF7A1FE00BF80BD8B
S32D0001060880B500AFFBF79BFE00BF80BD80B500AFFBF795FE00BF80BD80B500AFFBF78FFE00BF80BD80B500AFB0
S32D00010630FBF789FE00BF80BD80B500AFFBF783FE00BF80BD80B500AFFBF77DFE00BF80BD80B500AFFBF777FE3B
S32D0001065800BF80BD80B500AFFBF771FE00BF80BD80B500AFFBF76BFE00BF80BD80B500AFFBF765FE00BF80BDC6
S32D0001068080B500AFFBF75FFE00BF80BD80B500AFFBF759FE00BF80BD80B500AFFBF753FE00BF80BD80B500AFEC
S32D000106A8FBF74DFE00BF80BD80B500AFFBF747FE00BF80BD80B500AFFBF741FE00BF80BD80B500AFFBF73BFEB3
S32D000106D000BF80BD80B500AFFBF735FE00BF80BD80B500AFFBF72FFE00BF80BD80B500AFFBF729FE00BF80BD02
S32D000106F880B500AFFBF723FE00BF80BD80B500AFFBF71DFE00BF80BD80B500AFFBF717FE00BF80BD80B500AF28
S32D00010720FBF711FE00BF80BD80B500AFFBF70BFE00BF80BD80B500AFFBF705FE00BF80BD80B500AFFBF7FFFD2B
S32D0001074800BF80BD80B500AFFBF7F9FD00BF80BD80B500AFFBF7F3FD00BF80BD80B500AFFBF7EDFD00BF80BD40
S32D0001077080B500AFFBF7E7FD00BF80BD80B500AFFBF7E1FD00BF80BD80B500AFFBF7DBFD00BF80BD80B500AF66
S32D00010798FBF7D5FD00BF80BD80B500AFFBF7CFFD00BF80BD80B500AFFBF7C9FD00BF80BD80B500AFFBF7C3FDA6
S32D000107C000BF80BD80B500AFFBF7BDFD00BF80BD80B500AFFBF7B7FD00BF80BD80B500AFFBF7B1FD00BF80BD7C
S32D000107E880B500AFFBF7ABFD00BF80BD80B500AFFBF7A5FD00BF80BD80B500AFFBF79FFD00BF80BD80B500AFA2
S32D00010810FBF799FD00BF80BD80B500AFFBF793FD00BF80BD80B500AFFBF78DFD00BF80BD80B500AFFBF787FD1D
S32D0001083800BF80BD80B500AFFBF781FD00BF80BD80B500AFFBF77BFD00BF80BD80B500AFFBF775FD00BF80BDB7
S32D0001086080B500AFFBF76FFD00BF80BD80B500AFFBF769FD00BF80BD80B500AFFBF763FD00BF80BD80B500AFDD
S32D00010888FBF75DFD00BF80BD80B500AFFBF757FD00BF80BD80B500AFFBF751FD00BF80BD80B500AFFBF74BFD95
S32D000108B000BF80BD80B500AFFBF745FD00BF80BD80B500AFFBF73FFD00BF80BD80B500AFFBF739FD00BF80BDF3
S32D000108D880B500AFFBF733FD00BF80BD80B500AFFBF72DFD00BF80BD80B500AFFBF727FD00BF80BD80B500AF19
S32D00010900FBF721FD00BF80BD80B500AFFBF71BFD00BF80BD80B500AFFBF715FD00BF80BD80B500AFFBF70FFD0C
S32D0001092800BF80BD80B500AFFBF709FD00BF80BD80B500AFFBF703FD00BF80BD80B500AFFBF7FDFC00BF80BD2F
S32D0001095080B500AFFBF7F7FC00BF80BD80B500AFFBF7F1FC00BF80BD80B500AFFBF7EBFC00BF80BD80B500AF57
S32D00010978FBF7E5FC00BF80BD80B500AFFBF7DFFC00BF80BD80B500AFFBF7D9FC00BF80BD80B500AFFBF7D3FC88
S32D000109A000BF80BD80B500AFFBF7CDFC00BF80BD80B500AFFBF7C7FC00BF80BD80B500AFFBF7C1FC00BF80BD6D
S32D000109C880B584B000AFF8600B467A60FB72FB68FA7A1A71FB6800225A711749786836F07BFA0346002B02D025
S32D000109F0134B7B600AE04FF07E51786836F05CFA0346002B02D04FF07E537B60786835F013FC09A3D3E900237B
S32D00010A1835F066FC02460B461046194635F042FF0246FB681A60FB6818461037BD4680BDABAAAAAAAAAA2040AA
S32D00010A400000404180B582B000AF78607B685B79002B09D07B6800225A717B6819791E230022034801F064FE17
S32D00010A6800BF0837BD4680BD0C1A002080B584B000AF786039603B687F2B02DD7F23FB7308E03B6813F1800FF8
S32D00010A9002DA8023FB7301E03B68FB737B685B79FA7B9A4209D07B68FA7B5A717B681979FA7B1E23034801F0ED
S32D00010AB83BFE00BF1037BD4680BD00BF0C1A0020B0B584B000AF786039603749386836F0E5F90346002B02D068
S32D00010AE0334B3B6008E03349386836F0F9F90346002B01D02F4B3B60386835F09DFB04460D467B681B6818469A
S32D00010B0835F096FB4FF00002294B35F013FD02460B462046294635F0E3FB02460B461046194635F0BFFE034634
S32D00010B303B604FF00001386836F0C8F90346002B10D0386835F078FB17A3D3E9002335F0CBFB02460B46104635
S32D00010B58194635F05FFE0346FB6018E0386835F067FB4FF00002134B35F0BAFB02460B46104619464FF00002C2
S32D00010B800D4B35F0DBFC02460B461046194635F045FE0346FB60F9687868FFF76BFF00BF1037BD46B0BD00BFC2
S32D00010BA852B81E85EB51F43F0000C8C20000C842000059400000604080B483B000AF03460A46FB711346BB7195
S32D00010BD0BB79002B03D1134B00221A7002E0114B01221A703823FB710E4B1A78FB791343FB710D4B9B78DBB2EE
S32D00010BF80B4A43F01003DBB29370094B9B78DBB2074A43F02003DBB29370054AFB79137100BF0C37BD4680BCF0
S32D00010C20704700BFE91700200060064080B483B000AF01237B607B68312B04DC00BF7B6801337B60F7E700BFE7
S32D00010C480C37BD4680BC704780B582B000AF03460A46FB711346BB71134B1B7800211846FFF7AAFF00F024F889
S32D00010C70104AFB79137100F01FF80E4ABB79137100F01AF80B4B9B78DBB20A4A23F02003DBB29370074B9B7875
S32D00010C98DBB2064A23F01003DBB29370FFF7C2FF00BF0837BD4680BDEA1700200060064080B483B000AF174B66
S32D00010CC01B78002B24D100237B60154BDB78DBB203F00203002B0CBF01230023DBB2002B0DD07B6842F21072B1
S32D00010CE8934203DD0B4B01221A7004E07B6801337B6000BFE5E7084BDB78DBB2064A43F00203DBB2D37000E059
S32D00010D1000BF0C37BD4680BC704700BFEB1700200060064080B582B000AF0346FB71FB79184600F05FF800BF92
S32D00010D380837BD4680BD80B582B000AF03460A46FB711346BB7100F035F8FB795B00DBB21846FFF7E3FFBB798A
S32D00010D601846FFF7DFFF00F037F800BF0837BD4680BD80B500AFFF2000F03CF80346184680BD80B584B000AFB2
S32D00010D880346FB7100F016F8FB795B005BB243F001035BB2DBB21846FFF7C0FFFFF7E5FF0346FB7300F014F83C
S32D00010DB0FB7B18461037BD4680BD000080B400AF044B9B68034A43F48013936000BFBD4680BC704740F00F4046
S32D00010DD880B400AF044B5B68034A43F48013536000BFBD4680BC704740F00F4080B485B000AF0346FB71002309
S32D00010E00BB73164BDB6A03F00043012B0CBF01230023DBB2002B03D0FB7B0133FB73F0E70E4BDB6A0D4A43F0D9
S32D00010E280043D3620B4AFB7953630A4BDB6A03F40033002B0CBF01230023DBB2002B00D0F3E7044B9B6BBB73BE
S32D00010E50BB7B18461437BD4680BC704700C00A4080B582B000AF204B03F580531B6B1E4A43F4805302F5805287
S32D00010E7813631C4B4FF480721A651B4B5B691A4A43F480135361FFF7A3FF164B4FF400725A65144B4FF400722D
S32D00010EA09A65124B4FF40072DA65124B124A1A60104B124ADA6000237B607B68092B06DCFF20FFF72FFF7B6892
S32D00010EC801337B60F5E704A1D1E9000101F0BAFC00BF0837BD4680BD9A9999999999B93F0070044000A00440A4
S32D00010EF040F00F4000C00A40000C00800500003E90B486B000AFF860B9607A60FB68534A93420AD1524B03F5C2
S32D00010F1880535B6B504A43F4806302F58052536345E0FB684D4A93420AD14B4B03F580535B6B494A43F40063BB
S32D00010F4002F58052536336E0FB68474A93420AD1434B03F580535B6B414A43F4805302F58052536327E0FB68AC
S32D00010F68404A93420AD13C4B03F580535B6B3A4A43F4005302F58052536318E0FB683A4A93420AD1344B03F575
S32D00010F9080539B6A324A43F4806302F58052936209E02F4B03F580539B6A2D4A43F4006302F580529362FB68A1
S32D00010FB8DB78DBB223F00C03DAB2FB68DA70FB6800229A70BB684FF47A7203FB02F27B681B0192FBF3F39CB23C
S32D00010FE0FB681B78DBB223F01F03FB75230A9BB2DBB203F01F03DAB2FB7D1343DAB2FB681A70E2B2FB685A700A
S32D00011008BB684FF4FA4203FB02F27B681B0192FBF3F39AB263019BB2D31A9CB2FB689B7ADBB223F01F03FB75D1
S32D00011030E3B203F01F03DAB2FB7D1343DAB2FB689A72FB68DB78DBB243F00C03DAB2FB68DA7000BF1837BD46C3
S32D0001105890BC704700A006400070044000B0064000C0064000D0064000A00E4080B483B000AF78607B681B7967
S32D00011080DBB203F02003002B0CBF01230023DBB2002B00D0F2E77B68DB79DBB218460C37BD4680BC704780B471
S32D000110A883B000AF78600B46FB707B681B79DBB25BB2DB43DBB2DB09DBB2002B00D0F4E77B68FA78DA7100BF41
S32D000110D00C37BD4680BC704780B487B000AFF860B9607A60FB687B617B685A1E7A60002B14BF01230023DBB20D
S32D000110F8002B06D07B695A1C7A61BA68D2B21A70EEE700BF1C37BD4680BC704780B584B000AF786039607B681A
S32D000111201B6BFB60FA683B689A4252D07B681B79002B35D07B6858787B6803F134010123FA6801F0F7F80346A7
S32D00011148002B14BF01230023DBB2002B01D001233CE07B6800221A717B685A6A7B681B6A1344FA689A4217D24D
S32D000111707B68DB78FB72FB7A012B11D97B681B6AFA681344FB607B6858787B6803F134010123FA6801F0CEF8AA
S32D00011198FB7A013BFB72EAE73B68002B15D07B6858787B6803F1340101233A6800F0DAFF0346002B14BF0123CD
S32D000111C00023DBB2002B01D0012303E07B683A681A63002318461037BD4680BD80B584B000AF78600021786852
S32D000111E8FFF794FF0346FB73FB7B002B40F093807B681B78032B7DD17B685B79002B79D07B6800221A637B6832
S32D0001121034334FF4007200211846FFF75DFF7B68552283F832227B68AA2283F833227B68522283F834207B6811
S32D00011238522283F835207B68612283F836207B68412283F837207B68722283F818227B68722283F819227B68B8
S32D00011260412283F81A227B68612283F81B227B681B69DAB27B6883F81C227B681B699BB21B0A9BB2DAB27B6803
S32D0001128883F81D227B681B691B0CDAB27B6883F81E227B681B691B0EDAB27B6883F81F227B68DB68DAB27B6875
S32D000112B083F820227B68DB689BB21B0A9BB2DAB27B6883F821227B68DB681B0CDAB27B6883F822227B68DB689F
S32D000112D81B0EDAB27B6883F823227B6858787B6803F134017B685A69012301F01FF87B6800225A717B685B7878
S32D0001130000220021184601F0E1F80346002B14BF01230023DBB2002B01D00123FB73FB7B18461037BD4680BD4F
S32D0001132880B582B000AF78600B467B807B68002B08D07B681B78002B04D07B68DB887A889A4201D0092311E0EF
S32D000113507B685B78184601F03BF9034603F00103002B14BF01230023DBB2002B01D0032300E000231846083761
S32D00011378BD4680BD80B586B000AF78607B681A687B689B8819461046FFF7CAFF0346FB75FB7D002B40F0AC807D
S32D000113A07B689B7903F02003002B00F0A5807B689B7903F04003002B1BD07B681B6858787B6803F128017B6875
S32D000113C89A69012300F0B2FF0346002B14BF01230023DBB2002B01D001238AE07B689B7923F04003DAB27B68CD
S32D000113F09A717B681A687B68DB6919461046FFF789FE0346FB75FB7D002B75D17B681B6A3B613B690B331A78EB
S32D000114183B690B3342F02002D2B21A707B68DA683B691C33D2B21A707B68DB689BB21B0A9AB23B691D33D2B2DF
S32D000114401A707B68DB681A0C3B691E33D2B21A707B68DB681A0E3B691F33D2B21A707B681A693B691A33D2B277
S32D000114681A707B681B699BB21B0A9AB23B691B33D2B21A707B681B691A0C3B691433D2B21A707B681B691B0C92
S32D000114909BB21B0A9AB23B691533D2B21A700023FB603B691633FA68D2B21A70FB689BB21B0A9AB23B6917338B
S32D000114B8D2B21A70FB681A0C3B691833D2B21A70FB681A0E3B691933D2B21A707B689B7923F02003DAB27B684C
S32D000114E09A717B681B6801221A717B681B681846FFF774FE0346FB75FB7D18461837BD4680BD80B584B000AF5C
S32D0001150878607868FFF736FF0346FB73FB7B002B02D17B6800221A60FB7B18461037BD4680BD000080B588B05F
S32D0001153000AF7860396080233B610F23FB604FF0FF337B610223FB61FB69B3F5807F23D80123BB61BB69102B2D
S32D000115581AD8FB69BA6902FB03F33A6803FB02F27B68D31ABB60BB68002B09DBBB687A699A4205D9BB687B6188
S32D00011580FB693B61BB69FB60BB690133BB61E1E7FB695B00FB61D7E71D4BDB6A1C4A23F00803D3621A4BDB6A98
S32D000115A823F47F2323F47F63BB613B695B081B029AB2FB68013B1B01DBB21A43BB691343114A43F46023D3626D
S32D000115D00F4B5B6A03F00803002B0CBF01230023DBB2002B03D00A2001F01AF9F0E7084BDB6A074A43F00803DB
S32D000115F8D362054B1B6B044A43F48013136300BF2037BD4680BD00BF00100B4080B582B000AF786039607B6851
S32D0001162000221A60414B424ADA62404BDB6A03F08073002B14BF01230023DBB2002B00D0F3E73A4B0022C3F8EC
S32D00011648C020384B4FF481325A60364B28229A62344B4FF001125A643B689B6833491846FFF760FF2F4B5B6AF6
S32D0001167003F00303002B14BF01230023DBB2002B00D0F3E72C4B40F243421A602A4B40F243425A60284B4FF467
S32D0001169888629A60264B40F24342DA60244B40F243421A61224B40F243425A61214B03F580531B6B1F4A43F400
S32D000116C0003302F580521363184B4FF6FF721A63164B1B4A5A63154BDB6A144A43F00063D362124BDB6A03F00D
S32D000116E80063002B14BF01230023DBB2002B00D0F3E70C4B5B6A03F48033002B14BF01230023DBB2002B02D034
S32D000117107B6801221A60054B1B6B044A43F080031363002318460837BD4680BD00100B400080000160CC0500CD
S32D0001173800D0044000700440B3007F0080B400AF064B5A6A40F207331340002B14BF01230023DBB21846BD469E
S32D0001176080BC704700100B4080B485B000AF7860074B1B6B7A681340FB60FB68002B00D1F6E7FB68184614376C
S32D00011788BD4680BC704700BF00100B4080B584B000AF78607B681B7803F03F03764A52F82330FB60FB68002B41
S32D000117B005D17B681B78002B01D00123DCE0714B1B6B704A43F0800313636E4B5B6A03F00103002B14BF012323
S32D000117D80023DBB2002B00D0F3E7684A7B685B689360FB6823F44003FB607B685B789B0503F44003FA681343B2
S32D00011800FB607B685B78022B03D1FB6843F40013FB607B685B78042B16D1FB6803F44033B3F5003F08D1FB68E3
S32D0001182823F44033FB60FB6843F44033FB6007E0FB6823F44033FB60FB6843F40033FB604E4B5B684D4A9BB2AD
S32D0001185053607B68DB68002B2AD0FB6803F44033B3F5403F03D0FB6843F40013FB607B681B7A002B03D0FB68C3
S32D0001187843F01003FB607B68DB68012B03D9FB6843F02003FB607B68DB68B3F1FF3F0BD03A4B5A687B68DB680E
S32D000118A01B04384913434B60FB6843F00203FB60344B00221A60334AFB68D3603248FFF753FF0346012B14BF4A
S32D000118C801230023DBB2002B09D02C4B1B6B2B4A43F4702343F001031363012348E0274B1B6B03F08003002B4B
S32D000118F014BF01230023DBB2002B07D0214B1B6B204A43F001131363012335E01D4B1B6B03F48033002B14BF38
S32D0001191801230023DBB2002B08D0184B1B6B174A43F0011313634FF0FF3321E0FB6803F44033002B15D0114B17
S32D000119401A697B681A61FB6803F44033B3F5803F0BD10C4B5A697B685A610A4B9A697B689A61084BDA697B6820
S32D00011968DA61064B1B6B054A43F001031363002318461037BD4680BD54A0050000100B4001000E0080B592B060
S32D0001199000AF7860396000237B643B68BB63994B7B637B6B002B02D140F601235FE3964B3B633B6B002B02D1E0
S32D000119B840F60B2357E33B6B1B68FB62FB6A002B02D140F60B234EE37B6841F20932934200F23F837B68B3F57F
S32D000119E0985F08D87B68032B00F01A837B68092B00F0098331E37B68A3F59853013B082B00F22B8301A252F85A
S32D00011A0823F000BF311A01001D1D0100791F0100331D0100711D0100971E0100DF1E0100211E01003B1E01008F
S32D00011A307649786BFFF7EEFD78647B6C002B40F01083002387F84330002387F82B30002387F82A30002387F8A3
S32D00011A582930002387F84230002387F8283000233B7200237B720023FB6000233B7400237B6107F10803184668
S32D00011A80FFF788FE0346002B14BF01230023DBB2002B02D001237B64E8E240F24C4000F0BFFE08233B72002370
S32D00011AA87B724FF4D573FB6000233B7400237B6107F108031846FFF769FEF863FB6B002B09D1BA69FB689A4285
S32D00011AD002D001237B64C9E2012387F84230012387F8283097F82830002B00F0A58037233B7200237B720023F6
S32D00011AF8FB6000233B7400237B6107F108031846FFF744FEF863FB6B002B02D001237B64A8E269233B72002353
S32D00011B207B720023FB6000233B7400237B6107F108031846FFF72EFE0346002B14BF01230023DBB2002B02D0BF
S32D00011B4801237B648EE2BB6903F44013002B6FD00023FB630A2000F05FFEFB6B0133FB6337233B7200237B721C
S32D00011B700023FB6000233B7400237B6107F108031846FFF707FE0346002B14BF01230023DBB2002B02D001235F
S32D00011B987B6428E069233B7200237B7297F84230002B02D0184BFB6002E04FF44013FB6000233B7400237B618E
S32D00011BC007F108031846FFF7E5FD0346002B14BF01230023DBB2002B02D001237B6406E0BB69002B03DBFB6B29
S32D00011BE8632B00D8B6E77B6C002B40F03882FB6B632B0BD9002387F8423019E000180020041A002048A0050087
S32D00011C1000003040012387F8433097F84230002B0AD0002387F84230BB6903F08043002B02D0012387F8423019
S32D00011C3897F82A30002B02D07B6B07221A6097F82930002B02D07B6B08221A6097F82B30002B02D07B6B0422AC
S32D00011C601A6097F84330002B09D07B6B02221A6097F84230002B02D07B6B03221A6097F82B30002B0DD097F84D
S32D00011C884330002B09D07B6B05221A6097F84230002B02D07B6B06221A60924B00221A60904B00225A608F4B9F
S32D00011CB000229A608D4B0022DA608C4B00221A618A4B00225A61FB6A9A68FB6A5B6819461046FFF72BFC854B5E
S32D00011CD840F243421A60834B40F243425A60814B4FF488629A607F4B40F24342DA607D4B40F243421A617B4BFF
S32D00011D0040F243425A617A4B03F580531B6B784A43F4003302F580521363A7E1B86BFFF739FDF863FB6B002BFE
S32D00011D2800F09F8102237B649BE1BB6B002B02D10C237B6496E16D4BDB6A1B0A5B0003F4FF73FB63694BDB6A16
S32D00011D501B0903F00F035A1CFB6B02FB03F3FB63FB6A9A68FB6BB2FBF3F2BB6B1A607DE1BB6B002B02D10C235E
S32D00011D787B6477E1BB6B1B68002B02D10C237B6470E1FFF7DBFC0346002B0CBF01230023DBB2002B3CD0534B4A
S32D00011DA000221A60514B00225A60504B00229A604E4B0022DA604D4B00221A614B4B00225A61FB6A9A68BB6B1F
S32D00011DC81B6819461046FFF7ADFB464B40F243421A60444B40F243425A60424B4FF488629A60404B40F243425E
S32D00011DF0DA603E4B40F243421A613C4B40F243425A613B4B03F580531B6B394A43F4003302F58052136329E1C9
S32D00011E1840F60A237B6425E1BB6B002B02D10C237B641FE1314B5B68C3F30C02BB6B1A6018E1BB6B002B02D161
S32D00011E400C237B6412E1FFF77DFC0346002B0CBF01230023DBB2002B19D0BB6B1B68B3F5805F02D30C237B64C9
S32D00011E6800E1224B5B68214A23F4FF5323F01F0353601E4B5A68BB6B1B68C3F30C031B4913434B60EEE040F67C
S32D00011E900A237B64EAE0BB6B002B02D10C237B64E4E0144B9B6A5B0803F00303FB63FB6B002B03D1BB6B00228C
S32D00011EB81A60D7E0FB6B012B03D1BB6B01221A60D0E0FB6B102B03D1BB6B02221A60C9E005237B64C6E0BB6B3C
S32D00011EE0002B09D10C237B64C0E000BF00D004400070044000100B40FFF724FC0346002B0CBF01230023DBB215
S32D00011F08002B31D0BB6B1B68002B0AD1584B9B6A574A23F006039362554B554A9B6A9362A0E0BB6B1B68012BE7
S32D00011F300CD1514B9B6A504A23F0060393624E4B9B6A4D4A43F0020393628FE0BB6B1B68022B0AD1484B9B6A3F
S32D00011F58474A23F006039362454B454A9B6A936280E005237B647DE040F60A237B6479E0BB6B002B02D10C23ED
S32D00011F807B6473E03C4BDB6A3B4A43F00063D362394BDB6A03F00063002B14BF01230023DBB2002B00D0F3E71E
S32D00011FA8334B1B6B03F08003002B14BF01230023DBB2002B08D02E4B1B6B2D4A43F0800313637B6B00221A6097
S32D00011FD0294B5B6A03F48033002B14BF01230023DBB2002B07D07B6B1B68002B06D17B6B01221A6002E07B6B75
S32D00011FF800221A607B6B1A68BB6B1A6032E0BB6B1C221A60BB6B043304221A60BB6B08334FF41E721A6025E076
S32D000120200220FFF7A1FB144B1B6B03F4E003002B14BF01230023DBB2002B07D00E4B1B6B0D4A43F4E003136384
S32D0001204804237B640A4B1B6B094A43F03203136308E040F609237B6404E000BF02E000BF00E000BF7B6C184606
S32D000120704837BD4680BD00BF00100B4080B489B000AF786039607B687B61364B3B613B69002B01D100235FE0FC
S32D000120983B691B68022B0BD03B691B68032B07D03B691B68072B03D03B691B68082B0BD12B4B5B6A03F0040327
S32D000120C0002B14BF01230023DBB2002B00D0F3E73B68FB61FB69002B3DD0FB69B3F5007F28BF4FF40073FB602C
S32D000120E8FB6803339B08BB61BB69002B2AD01C4B1B6B03F4E003002B14BF01230023DBB2002B09D0164B1B6BA4
S32D00012110154A43F4E00343F02003136300231BE0114B5B6A03F40063002B0CBF01230023DBB2002B00D0F3E723
S32D000121380B497B691A1D7A610A6A1A60BB69013BBB61D1E7FA69FB68D31AFB61BEE7012318462437BD4680BC3C
S32D00012160704700BF0018002000100B4080B58EB000AFB9607A601A460346FB731346BB73414B7B63FB7B002B89
S32D0001218802D1BB7B002B01D1042375E03D4B1B78DBB203F00103002B14BF01230023DBB2002B01D0032367E0CC
S32D000121B0BB68002B01D1002362E07B6B1B7B002B02D17B685B027B60BB7B012B28D111233B7500237B757B68B1
S32D000121D8BB6101233B77BB7B3B6207F11403194641F20230FFF7CEFB0346002B0CBF01230023DBB2002B38D03B
S32D000122004FF40071B868FFF739FF0346002B14BF01230023DBB2002B2BD00023BB7328E012233B7500237B751B
S32D000122287B68BB6101233B77BB7B3B6207F11403194641F20230FFF7A5FB0346002B0CBF01230023DBB2002B38
S32D000122500FD0BB7B5B021946B868FFF70FFF0346002B14BF01230023DBB2002B01D00023BB73BB7B002B01D0D0
S32D00012278012300E0002300BF18463837BD4680BDEC1700200400002080B487B000AF786039607B68FB603B6891
S32D000122A07B617B69002B3DD07B69B3F5007F28BF4FF400733B617A693B69D31A7B613B6903339B083B613B69C6
S32D000122C8002BEAD0184B1B6B03F4E003002B14BF01230023DBB2002B0AD0134B1B6B124A43F4E00343F01003C8
S32D000122F013634FF0FF3316E00D4B5B6A03F48063002B0CBF01230023DBB2002B00D0F3E7FB681A1DFA60064A08
S32D000123181B6813623B69013B3B61D0E7012318461C37BD4680BC704700100B4080B58EB000AFB9607A601A46D0
S32D000123400346FB731346BB735D4B7B63FB7B002B02D1BB7B002B01D10423ADE0594B1B78DBB203F00103002B69
S32D0001236814BF01230023DBB2002B01D003239FE0524B1B78DBB203F00403002B14BF01230023DBB2002B01D079
S32D00012390022391E0BB68002B01D100238CE07B6B1B7B002B02D17B685B027B60BB7B012B28D118233B750023DB
S32D000123B87B757B68BB6100233B77BB7B3B6207F11403194641F20230FFF7DCFA0346002B0CBF01230023DBB2AD
S32D000123E0002B38D04FF40071B868FFF751FF0346002B14BF01230023DBB2002B2BD00023BB7328E019233B75FB
S32D0001240800237B757B68BB6100233B77BB7B3B6207F11403194641F20230FFF7B3FA0346002B0CBF01230023EF
S32D00012430DBB2002B0FD0BB7B5B021946B868FFF727FF0346002B14BF01230023DBB2002B01D00023BB730D2320
S32D000124583B7500237B757B6B1B69BB6100233B7700233B6207F11403194641F20230FFF789FA0346002B14BFE4
S32D0001248001230023DBB2002B01D0012314E07A6A0D4B1340002B01D001230DE07B6A03F4F853B3F5106F00D08B
S32D000124A8D5E7BB7B002B01D0012300E0002300BF18463837BD4680BDEC170020040000200880D9FF80B58CB00C
S32D000124D000AF03463A60FB710B46BB713A4BBB62FB79002B01D0042369E0012387F82F30364B1B78DBB203F04A
S32D000124F80103002B14BF01230023DBB2002B01D0032358E0BB79032B50D801A252F823F0292501003125010055
S32D000125204125010051250100002387F82F3044E0BB6A9A683B681A60002387F82F303CE03B684FF400721A8036
S32D00012548002387F82F3034E009233B7200237B72BB6A1B69FB6000233B7400237B6107F10803194641F20230CA
S32D00012570FFF70CFA0346002B14BF01230023DBB2002B01D001231AE07B6A03F44003002B0CD13B6A9B0C03F0A5
S32D000125987F035A1C7B6A1B0A03F00303013B9A403B681A60002387F82F3002E0042387F82F3097F82F301846B2
S32D000125C03037BD4680BD00BFEC1700200400002080B483B000AF0346FB71FB79002B01D0012302E0034B1B781D
S32D000125E8DBB218460C37BD4680BC70470400002080B483B000AF7860164B03F580539B6B144A43F0010302F5D0
S32D0001261080529363124A7B689360114B05225A600F4B1B680E4A43F0010313600C4B1B6803F08003002B0CBF3F
S32D0001263801230023DBB2002B00D0F3E7064B1B68054A23F00103136000BF0C37BD4680BC704700BF00700440B2
S32D000126600000044080B582B000AF786039607B68012B07D13B684FF6FF72934202D1034800F00EF800BF083759
S32D00012688BD4680BD0C1A002080B500AF4FF6FF710120FFF7E3FF80BD80B483B000AF78607B6800221A707B686E
S32D000126B018460C37BD4680BC7047000080B582B000AF78607B681B7883F00103DBB2002B21D0134B03F58053B7
S32D000126D81A464FF400639362104B4FF440721A620E4B4FF440725A620D4B1B68DA0F13445B104FF46142194637
S32D000127000A48FEF7FDFB642000F08AF87B6801221A70012300E0002318460837BD4680BD0070044000D0044019
S32D00012728101A002000B00E4080B582B000AF7860084611461A460346FB700B46BB7013467B707F210E48FEF7E8
S32D00012750AAFC08210C48FEF7A6FCFB7819460A48FEF7A1FCBB7819460748FEF79CFC7B7819460548FEF797FC55
S32D00012778FF210348FEF793FC00BF0837BD4680BD00B00E4080B487B000AFF860B9607A60FB681F4AA2FB032313
S32D000127A09B09BA6813447B61FB681B4AA2FB031292094FF47A7101FB02F29B1AFB60FB68DB03154AA2FB03236B
S32D000127C89B097A6813443B613B69DB0B7A6913447B613B69C3F30E033B610E4B1B687A699A4209D80B4B1B686D
S32D000127F07A699A4206D1094B5B683A699A4201D9012300E00023002B00D0EAE700BF1C37BD4680BC704700BFFA
S32D00012818D34D621000D0034080B584B000AF7860074B1B68FB60064B5B68BB607B68BA68F9681846FFF7A6FF3E
S32D0001284000BF1037BD4680BD00D0034080B584B000AFC7E900010E4B1B68FB600C4B5B68BB604FF000020B4B44
S32D00012868D7E9000133F03CFD02460B461046194633F0F8FF0346BA68F9681846FFF782FF00BF1037BD4680BDD5
S32D0001289000D0034000408F4080B483B000AF0B4B1B684FF47A7202FB03F37B60074B5B684FF47A7202FB03F3D4
S32D000128B8DB0B7A6813447B607B6818460C37BD4680BC704700D0034080B584B000AF78600B46FB700B23FB7322
S32D000128E0FA7BFB781946786800F094F87B6818461037BD4680BD000080B485B000AF78607B68103B002B00DA3B
S32D000129081F335B11FB60FB68022B53D0FB68022B75DCFB68002B03D0FB68012B25D06EE0394BD3F880217B68ED
S32D00012930103B594203F01F0301F01F0158BF4B42012101FA03F332491343C1F88031304B1A687B68103B5942B4
