S01100002E2E2F50726F746575732E73313966
S32D0000C000000000205DC2000011C3000017C300001DC3000023C3000029C3000000000000000000000000000073
S32D0000C028000000002FC3000035C30000000000003BC3000041C300004923010055230100612301006D23010002
S32D0000C0507923010085230100912301009D230100A9230100B5230100C1230100CD230100D9230100E523010084
S32D0000C078F1230100FD2301000924010015240100212401002D2401003924010045240100512401005D240100A4
S32D0000C0A06924010075240100812401008D24010099240100A5240100B1240100BD240100C9240100D5240100CA
S32D0000C0C8E1240100ED240100F924010005250100112501001D2501002925010035250100412501004D250100EB
S32D0000C0F059250100CD6F010065250100712501007D2501008925010095250100A1250100AD250100B9250100BE
S32D0000C118C5250100D1250100DD250100E9250100F5250100012601000D260100192601002526010031260100AA
S32D0000C1403D260100492601005526010061260100A14E01006D2601007926010085260100912601009D260100AD
S32D0000C168A9260100B5260100C1260100CD260100D9260100E5260100F1260100FD26010009270100152701006B
S32D0000C190212701002D27010039270100954A01005D490100F9490100CD200100354B0100452701005127010063
S32D0000C1B85D2701003061060000000020C8170000306106000000FF1F00000000C8170020D81A00000000FF1F7A
S32D0000C1E00000000080B489B000AFF860B9607A60BB68FB61FB68BB6100237B617A697B689A420BD2BA69131DFB
S32D0000C208BB61FB69191DF96112681A607B6904337B61EFE700BF2437BD4680BC704780B485B000AF786039609E
S32D0000C2307B68FB600023BB60BA683B689A4208D2FB681A1DFA6000221A60BB680433BB60F2E700BF1437BD46FE
S32D0000C25880BC704780B586B000AF72B6234B4CF220521A80214B4DF628121A80204B4FF4E9721A801F4B7B615F
S32D0000C2807B691F4A934214D27B691A1D7A611B683B617B691A1D7A611B68FB607B691A1D7A611B68BB60BA68E9
S32D0000C2A8F9683869FFF79AFFE6E77B69134A93420ED27B691A1D7A611B68FB607B691A1D7A611B68BB60B9688B
S32D0000C2D0F868FFF7A8FFECE70B4B7B600B4A7B681A603FF031F862B605F0B8FF00F044F9FEE700BF0E2005402D
S32D0000C2F800200540BCC10000D4C10000E4C1000008ED00E000C0000080B400AFFEE780B400AFFEE780B400AFF4
S32D0000C320FEE780B400AFFEE780B400AFFEE780B400AFFEE780B400AFFEE780B400AFFEE780B400AFFEE780B426
S32D0000C34800AFFEE7FFFFFFFFFFFFFFFFFFFFFFFFFFFFFFFFFFFFFFFFFFFFFFFFFFFFFFFFFFFFFFFFFFFFFFFF57
S32D0000C370FFFFFFFFFFFFFFFFFFFFFFFFFFFFFFFFFFFFFFFFFFFFFFFFFFFFFFFFFFFFFFFFFFFFFFFFFFFFFFFFC7
S32D0000C398FFFFFFFFFFFFFFFFFFFFFFFFFFFFFFFFFFFFFFFFFFFFFFFFFFFFFFFFFFFFFFFFFFFFFFFFFFFFFFFF9F
S32D0000C3C0FFFFFFFFFFFFFFFFFFFFFFFFFFFFFFFFFFFFFFFFFFFFFFFFFFFFFFFFFFFFFFFFFFFFFFFFFFFFFFFF77
S32D0000C3E8FFFFFFFFFFFFFFFFFFFFFFFFFFFFFFFFFFFFFFFFFFFFFFFFFFFFFFFFFFFFFFFFFFFFFFFFFEFFFFFF50
S32D0000C44010B5054C237833B9044B13B10448AFF300800123237010BDC817002000000000484E060008B5034B86
S32D0000C4681BB103490348AFF3008008BD00000000CC170020484E06002DE9B0438AB000AFF860B9607A603B60E5
S32D0000C490FA687B68D31A18463BF05AFE02460B46C7E90823BA683B68D31A18463BF050FE02460B46C7E90623FC
S32D0000C4B8D7E90823D7E908013BF0B0FE02460B4614461D463B6C03FB03F318463BF03CFE02460B4620462946A7
S32D0000C4E03BF0CAFF02460B4614461D46D7E90623D7E906013BF096FE02460B46904699467B6C03FB03F31846EE
S32D0000C5083BF022FE02460B46404649463BF0B0FF02460B46204629463BF0CAFC02460B46C7E9042301231C46DD
S32D0000C5304FF00002074BD7E904013CF0EFF80346002B01D100231C46E3B218462837BD46BDE8B0830000F03F4B
S32D0000C55880B582B000AF78607B685C33184627F077FC7B6818460837BD4680BD00000000F0B5ADF6241D04AF71
S32D0000C58007F51163A3F501734FF000021A6007F51163A3F501734FF000025A6007F51163A3F501734FF0000222
S32D0000C5A89A60E84BC7F8F838002387F8F738012387F8F638032387F8F538002387F8F438022387F8F338042311
S32D0000C5D087F8F23897F8F64897F8F42897F8F71807F59A60D7F8F838039397F8F238029397F8F538019397F8C6
S32D0000C5F8F3380093234604F05DFF07F2CC431021184608F003FB07F599631721184608F0FDFA07F29C4318465E
S32D0000C62003F0AAFF07F51163A3F5FA7307F2CC421146184601F04AFA07F21C7207F5E3631146184601F08FFAF2
S32D0000C64807F5E36207F29C431146184603F0B4FF07F5E363184601F09EFA07F21C73184601F04AFA07F511639C
S32D0000C670A3F5F67307F59A621146184601F0B1FA07F2247207F5E4631146184601F0F6FA07F5E46207F29C43D0
S32D0000C6981146184603F090FF07F5E463184601F07AFA07F22473184601F0B1FA07F51163A3F5F27307F59A6248
S32D0000C6C01146184601F0F6FA07F22C7207F5E5631146184601F03BFB07F5E56207F29C431146184603F06CFFD1
S32D0000C6E807F5E563184601F056FA07F22C73184601F0F6FA07F51163A3F5EE7307F59A621146184601F03BFB2D
S32D0000C71007F2347207F5E6631146184601F080FB07F5E66207F29C431146184603F048FF07F5E663184601F057
S32D0000C73832FA07F23473184601F03BFB002387F80F39814BC7F808394FF00003C7F804394FF00003C7F8003954
S32D0000C76007F59263083B18460CF04CFF07F5EA6318460AF023FF07F5EA6207F5E7637549184627F0C9FE07F58B
S32D0000C788E76207F214408B230093FF23002102F045FB07F5E763184627F05AFB07F5EA6318460AF009FF07F285
S32D0000C7B014431E21184602F049FE07F26C7318460AF0FCFE07F26C7207F254736249184627F0A2FE07F25472EE
S32D0000C7D807F568708B230093FF23232102F01EFB07F25473184627F033FB07F26C7318460AF0E2FE07F5687363
S32D0000C8001E21184602F022FE07F5F16318460AF0D5FE07F5F16207F5EE635049184627F07BFE07F5EE6207F575
S32D0000C8284B708B230093FF23462102F0F7FA07F5EE63184627F00CFB07F5F16318460AF0BBFE07F54B731E2157
S32D0000C850184602F0FBFD07F2A47318460AF0AEFE07F2A47207F28C733D49184627F054FE07F28C7207F52E7079
S32D0000C8788B230093FF23692102F0D0FA07F28C73184627F0E5FA07F2A47318460AF094FE07F52E731E21184669
S32D0000C8A002F0D4FD0123C7F8EC382E4809F05DF82C4809F00DFC002387F8FF382A4B1B78002B62D197F8FF3861
S32D0000C8C8002B5ED107F56873184602F045FC07F21443184602F040FC07F54B73184602F03BFC07F52E73184668
S32D0000C8F002F036FC07F56873184602F092FD0346002B05D0184B02221A70012387F8FF3807F21443184602F06C
S32D0000C91884FD0346002B05D0114B01221A70012387F8FF3807F54B73184602F076FD0346002B17D00A4B0322F2
S32D0000C9401A70012387F8FF3810E000BF0000C0409A99193FC4BC0500CCBC0500D8BC0500E4BC0500C81A0020D9
S32D0000C968E517002007F52E73184602F056FD0346002B9FD03C4B04221A70012387F8FF3898E707F51163A3F5CA
S32D0000C9900173196807F51163A3F501735A6807F51163A3F501739B6807F59A6004F0B4FE304808F0DAFF2F486B
S32D0000C9B809F08AFB002387F8FE3897F8FE38002B41F06D80284B1B78012B55D107F030FE034618463CF00AF89B
S32D0000C9E00346C7F8A03807F59A630121184605F057F8D223002220491E4809F00FF8E1230022D7F8A0181B4896
S32D0000CA0809F040F8B42300221A49184809F002F807F51163A3F5B47307F29C421146184603F054FE07F5F561CE
S32D0000CA30C32300220F4809F014F807F5F563184627F00AFA07F29C43184603F0CDFD07F29C43184603F04DFE40
S32D0000CA580346002BB1D0012387F8FE3807F59A63184604F099FFA8E7E5170020C81A0020F4BC050004BD0500D7
S32D0000CA80DF4B1B78032B40F0C783DE4BC7F8B83807F5FB6318460AF091FD07F5FB6207F5F863D949184627F0C4
S32D0000CAA837FD07F5F86338464FF4C84201924FF47F0200924FF00002D24902F065FA07F5F863184627F0C4F9EB
S32D0000CAD007F5FB6318460AF073FD3B461E21184602F0B4FC3B46184602F03AFB07F2F47318460AF063FD07F23F
S32D0000CAF8F47207F2DC73C449184627F009FD07F2DC7307F174004FF4C84201924FF400420092BE4ABB4902F031
S32D0000CB2037FA07F2DC73184627F096F907F2F47318460AF045FD07F174031E21184602F085FC07F17403184624
S32D0000CB4802F00AFB07F5016318460AF033FD07F5016207F5FF63AE49184627F0D9FC07F5FF6307F1E8004FF461
S32D0000CB70C84201924FF6FF720092A84AA34902F007FA07F5FF63184627F066F907F5016318460AF015FD07F1ED
S32D0000CB98E8031E21184602F055FC07F1E803184602F0DAFA9749D7F8B8083BF06FFE03461C4607F62C03184661
S32D0000CBC00AF0FCFC07F62C0207F614039449184627F0A2FC07F6140307F5AE704FF40B0201924FF47F020092BF
S32D0000CBE84FF00002214602F0CFF907F61403184627F02EF907F62C0318460AF0DDFC07F5AE731E21184602F004
S32D0000CC101DFC07F5AE73184602F0A2FA7B49D7F8B8083BF037FE03461C4607F6480318460AF0C4FC07F64802CF
S32D0000CC3807F503637949184627F06AFC07F5036307F5E8704FF40B0201924FF4004200926E4A214602F098F97D
S32D0000CC6007F50363184627F0F7F807F6480318460AF0A6FC07F5E8731E21184602F0E6FB07F5E873184602F030
S32D0000CC886BFA6049D7F8B8083BF000FE03461C4607F6640318460AF08DFC07F6640207F64C035F49184627F0FC
S32D0000CCB033FC07F64C0307F511704FF40B0201924FF6FF720092554A214602F061F907F64C03184627F0C0F868
S32D0000CCD807F6640318460AF06FFC07F511731E21184602F0AFFB07F51173184602F034FA3B46184602F091FBF3
S32D0000CD000346002B11D0D7F808093BF033FA38A3D3E900233BF0D0F802460B46104619463BF062FD0346C7F8EB
S32D0000CD28083907F5AE73184602F077FB0346002B11D0D7F808093BF019FA2BA3D3E900233BF0B4F802460B462D
S32D0000CD50104619463BF048FD0346C7F8083907F17403184602F05DFB0346002B11D0D7F804093BF0FFF920A319
S32D0000CD78D3E900233BF09CF802460B46104619463BF02EFD0346C7F8043907F5E873184602F043FB0346002BAD
S32D0000CDA011D0D7F804093BF0E5F913A3D3E900233BF080F802460B46104619463BF014FD0346C7F8043907F1A0
S32D0000CDC8E803184602F029FB0346002B31D0D7F800093BF0CBF906A3D3E900233BF068F802460B461EE000BF39
S32D0000CDF09A9999999999B93FFCA9F1D24D62503FE517002000005C4318BD05000000704120BD050000000C426A
S32D0000CE1828BD050000008C4230BD050038BD050040BD0500104619463BF0DAFC0346C7F8003907F51173184671
S32D0000CE4002F0EFFA0346002B11D0D7F800093BF091F9CDA3D3E900233BF02CF802460B46104619463BF0C0FC34
S32D0000CE680346C7F8003907F59A60D7F800390093D7F80439D7F80829012104F059FE07F59A60D7F800390093C0
S32D0000CE90D7F80439D7F80829022104F04DFE07F59A60D7F800390093D7F80439D7F80829032104F041FEB4233B
S32D0000CEB86422B549B54808F0ADFDB4237822D7F80819B24808F0DEFDC8236422B049AF4808F0A0FDC823782280
S32D0000CEE0D7F80419AB4808F0D1FDDC236422AB49A84808F093FDDC237822D7F80019A54808F0C4FD64230022BE
S32D0000CF08A549A24808F086FD07F59A63184604F040FE0146642328229C4808F0B3FD782300229E49994808F0FE
S32D0000CF3075FD07F59A63184604F07CFD014678232822944808F0A2FD8C2300229649914808F064FD07F59A6323
S32D0000CF58184604F02BFE01468C2328228B4808F091FD904BC7F8B4388F4BC7F8B038D7F8B0083BF06FFF044626
S32D0000CF808C49D7F8B4083BF085FC034618463BF065FF0346224688497E4808F03FFD07F51163A3F501731C68C5
S32D0000CFA8D7F8B0083BF056FF05468249D7F8B4083BF06CFC034618463BF04CFF03462A462146724808F05EFDD6
S32D0000CFD0D7F8B0083BF042FF04467949D7F8B4083BF058FC034618463BF038FF034622467449684808F012FDFC
S32D0000CFF807F51163A3F501735C68D7F8B0083BF029FF05466E49D7F8B4083BF03FFC034618463BF01FFF0346C5
S32D0000D0202A4621465B4808F031FD684BC7F8AC38634BC7F8A83807F59A630121184604F02FFD3223C7F8A43816
S32D0000D048FF21524808F0D3FCD7F8A4083BF0CEFC0446D7F8A4083BF0C9FC034600932346D7F8A828D7F8AC189D
S32D0000D070484809F0DBFA07F2944207F593631946444808F09DFD0346002B00F0A18007F51163A3F58F631B68F4
S32D0000D09818463BF0DFFE044607F51163A3F27C431B6818463BF0D6FE0546D7F8AC083BF0D1FE0646D7F8A80883
S32D0000D0C03BF0CCFE0146D7F8A438D7F8A428019200930B46324629462046FFF7D1F90346002B7AD007F511630E
S32D0000D0E8A3F58F631B68D7F8AC1818463BF0CCFB03461C46D7F8A4083BF078FC0346194620463BF07FFD034667
S32D0000D11083F0004207F51163A3F501731A6007F51163A3F27C431B68D7F8A81818463BF0AFFB03461C46D7F8C3
S32D0000D138A4083BF05BFC0346194620463BF062FD03461A4607F51163A3F501735A6007F51163A3F50173196827
S32D0000D16007F51163A3F501735A6807F51163A3F501739B6807F59A6004F0CEFA07F59A63184604F0E1FA28E004
S32D0000D188FCA9F1D24D62503F48BD0500C81A00204CBD050050BD050054BD05005CBD050064BD050000001643F4
S32D0000D1B0000034430000B4426CBD05000000D2420000F04278BD0500000007430000204307F59A63184604F03E
S32D0000D1D8E3FB07F511731846FFF7BAF907F5E8731846FFF7B5F907F5AE731846FFF7B0F907F1E8031846FFF71A
S32D0000D200ABF907F174031846FFF7A6F93B461846FFF7A2F9FFF7D5BBAC4B1B78042B40F075814FF00003C7F824
S32D0000D228CC38A94BC7F8C8384FF00001D7F8CC083BF02CFB034618463BF00CFE03460022A249A34808F0E6FBF6
S32D0000D25007F59A63184604F017FC03461C689F49D7F8CC083BF016FB034618463BF0F6FD034600222146984847
S32D0000D27808F008FC9849D7F8CC083BF007FB034618463BF0E7FD034600229449904808F0C1FB07F59A631846FA
S32D0000D2A004F0F2FB034604331C688F49D7F8CC083BF0F0FA034618463BF0D0FD034600222146854808F0E2FBD8
S32D0000D2C88849D7F8CC083BF0E1FA034618463BF0C1FD0346002284497D4808F09BFB07F59A63184604F0CCFB91
S32D0000D2F0034608331C687F49D7F8CC083BF0CAFA034618463BF0AAFD034600222146724808F0BCFB7849D7F86A
S32D0000D318CC083BF0BBFA034618463BF09BFD0346002274496A4808F075FB07F59963184607F07EFC04467049BD
S32D0000D340D7F8CC083BF0A6FA034618463BF086FD034600222146604808F098FB694BC7F8C438694BC7F8C0381D
S32D0000D36807F59A630121184604F096FB3223C7F8BC38FF21564808F03AFBD7F8BC083BF035FB0446D7F8BC08DB
S32D0000D3903BF030FB034600932346D7F8C028D7F8C4184D4809F042F907F2944207F593631946494808F004FC00
S32D0000D3B80346002B7ED007F51163A3F58F631B6818463BF047FD044607F51163A3F27C431B6818463BF03EFDE6
S32D0000D3E00546D7F8C4083BF039FD0646D7F8C0083BF034FD0146D7F8BC38D7F8BC28019200930B46324629467E
S32D0000D4082046FFF739F80346002B3FF4D6AA07F51163A3F58F631B68D7F8C41818463BF033FA03461C46D7F8EA
S32D0000D430BC083BF0DFFA0346194620463BF0E6FB034683F0004207F51163A3F501731A6007F51163A3F27C4334
S32D0000D4581B68D7F8C01818463BF016FA03461C46D7F8BC083BF0C2FA0346194620463BF0C9FB03461A4607F51C
S32D0000D4801163A3F501735A6007F51163A3F50173196807F51163A3F501735A6807F51163A3F501739B6807F58E
S32D0000D4A89A6004F035F907F59A63184604F048F9FFF783BA07F59A63184604F06DFAFFF77CBA00BFE5170020C2
S32D0000D4D00000BE4280BD0500C81A0020000070410000F04188BD0500000034420000704290BD0500000096426C
S32D0000D4F80000B4429CBD05000000D242000020430000F0424FF00003C7F8E838C84BC7F8E4384FF00001D7F8EB
S32D0000D520E8083BF0B7F9034618463BF097FC03460022C249C24808F071FA07F59A63184604F078FA0446BF49BB
S32D0000D548D7F8E8083BF0A2F9034618463BF082FC034600222146B84808F094FAB849D7F8E8083BF093F90346C8
S32D0000D57018463BF073FC03460022B449B04808F04DFA07F59A63184604F061FA0446B049D7F8E8083BF07EF9AC
S32D0000D598034618463BF05EFC034600222146A64808F070FAA949D7F8E8083BF06FF9034618463BF04FFC03466D
S32D0000D5C00022A5499E4808F029FA07F59A63184604F04BFA0446A149D7F8E8083BF05AF9034618463BF03AFC23
S32D0000D5E8034600222146944808F04CFA4FF00001D7F8E4083BF04AF9034618463BF02AFC0346002294498C48AC
S32D0000D61008F004FA07F59A63184604F0E1F904468849D7F8E4083BF035F9034618463BF015FC034600222146ED
S32D0000D638814808F027FA8249D7F8E4083BF026F9034618463BF006FC0346002283497A4808F0E0F907F59A637B
S32D0000D660184604F0CAF904467949D7F8E4083BF011F9034618463BF0F1FB0346002221466F4808F003FA734993
S32D0000D688D7F8E4083BF002F9034618463BF0E2FB034600227249684808F0BCF907F59A63184604F0B4F904461F
S32D0000D6B06A49D7F8E4083BF0EDF8034618463BF0CDFB0346002221465D4808F0DFF96749D7F8E4083BF0DEF881
S32D0000D6D8034618463BF0BEFB034600226249564808F098F907F2CC43184607F0A1FA04465E49D7F8E4083BF08D
S32D0000D700C9F8034618463BF0A9FB0346002221464B4808F0BBF94F4BC7F8E038564BC7F8DC38D7F8DC083BF0F0
S32D0000D72899FB04464F49D7F8E0083BF0AFF8034618463BF08FFB034622464E493E4808F069F907F51163A3F548
S32D0000D75001731C68D7F8DC083BF080FB05464549D7F8E0083BF096F8034618463BF076FB03462A462146324834
S32D0000D77808F088F9D7F8DC083BF06CFB04463E49D7F8E0083BF082F8034618463BF062FB0346224639492848C6
S32D0000D7A008F03CF907F51163A3F501735C68D7F8DC083BF053FB05463349D7F8E0083BF069F8034618463BF0E6
S32D0000D7C849FB03462A4621461B4808F05BF907F50863184609F0EEFE07F5086207F668032849184626F094FE31
S32D0000D7F007F6680307F5E8708B2201924FF400420092144A224901F0C3FB07F66803184626F022FB07F5086320
S32D0000D818184609F0D1FE07F5E8731E21184601F011FE07F69C03184609F0C4FE2EE000BF0000BE42A4BD0500E0
S32D0000D840C81A0020000070410000F041B0BD05000000344200007042C0BD050000009642D0BD0500DCBD0500B2
S32D0000D868ECBD05000000B442FCBD05000000D242000034436CBD05000000F04278BD05000000074308BE0500F6
S32D0000D89000007A4307F69C0207F684038449184626F03AFE07F6840307F511708B2201924FF6FF7200927F4AC3
S32D0000D8B87F4901F069FB07F68403184626F0C8FA07F69C03184609F077FE07F511731E21184601F0B7FD07F545
S32D0000D8E0E873184601F03CFC07F51173184601F037FC07F51173184601F088FD0346002B02D0002387F80F39B2
S32D0000D90807F5E873184601F07DFD0346002B05D0012387F80F39674808F023F897F80F2907F59A631146184666
S32D0000D93004F0B6F8624BC7F8D838624BC7F8D4383223C7F8D038FF215C4808F054F8D7F8D0083BF04FF80446AC
S32D0000D958D7F8D0083BF04AF8034600932346D7F8D428D7F8D818534808F05CFE07F2944207F5936319464F481A
S32D0000D98008F01EF90346002B7CD007F51163A3F58F631B6818463BF061FA044607F51163A3F27C431B6818465A
S32D0000D9A83BF058FA0546D7F8D8083BF053FA0646D7F8D4083BF04EFA0146D7F8D038D7F8D028019200930B469C
S32D0000D9D0324629462046FEF753FD0346002B56D007F51163A3F58F631B68D7F8D81818463AF04EFF03461C4641
S32D0000D9F8D7F8D0083AF0FAFF0346194620463BF001F9034683F0004207F51163A3F501731A6007F51163A3F20B
S32D0000DA207C431B68D7F8D41818463AF031FF03461C46D7F8D0083AF0DDFF0346194620463BF0E4F803461A460D
S32D0000DA4807F51163A3F501735A6007F51163A3F50173196807F51163A3F501735A6807F51163A3F501739B68C0
S32D0000DA7007F59A6003F050FE07F59A63184603F063FE04E007F59A63184603F089FF07F511731846FEF760FDC0
S32D0000DA9807F5E8731846FEF75BFDFEF78EBF084B00221A70FEF7FDBE0CBE05000000BE4200007A43C81A0020DF
S32D0000DAC0000020430000F042E5170020B0B582B000AF78603960386800F0BEF90546442009F09CFC03461C469E
S32D0000DAE82946204602F05CF92146786800F0CAF978680837BD46B0BD90B585B000AF78607B68184600F0CDF973
S32D0000DB10F860FB681B68002B0CD0786800F0D2F90446F86800F0DBF903461B681946204600F0DFF9FB680022BB
S32D0000DB381A607B6818461437BD4690BD80B584B000AFF860B9607A60FB68B9687A68184600F0F3F9FB681846A5
S32D0000DB601037BD4680BDB0B582B000AF786039607C68386800F0CEF90546386800F0A2F90346184600F0D3F945
S32D0000DB8803461A4629462046FFF7D8FF7B6818460837BD46B0BD90B585B000AF78607B68184600F0E0F9F860D1
S32D0000DBB0FB681B68002B0CD0786800F0E5F90446F86800F0EEF903461B681946204600F0F2F9FB6800221A60C0
S32D0000DBD87B6818461437BD4690BDB0B582B000AF78603960386800F0F3F90546402009F011FC03461C46294645
S32D0000DC00204602F067FA2146786800F0FFF978680837BD46B0BD90B585B000AF78607B68184600F002FAF860F9
S32D0000DC28FB681B68002B0CD0786800F007FA0446F86800F010FA03461B681946204600F014FAFB6800221A60DE
S32D0000DC507B6818461437BD4690BD80B584B000AFF860B9607A60FB68B9687A68184600F028FAFB681846103789
S32D0000DC78BD4680BDB0B582B000AF786039607C68386800F003FA0546386800F0D7F90346184600F008FA034689
S32D0000DCA01A4629462046FFF7D8FF7B6818460837BD46B0BDB0B582B000AF78603960386800F08AF905464020EF
S32D0000DCC809F0A8FB03461C462946204601F062FF2146786800F017FA78680837BD46B0BD90B585B000AF7860E8
S32D0000DCF07B68184600F01AFAF860FB681B68002B0CD0786800F01FFA0446F86800F028FA03461B681946204646
S32D0000DD1800F02CFAFB6800221A607B6818461437BD4690BD80B584B000AFF860B9607A60FB68B9687A681846C5
S32D0000DD4000F040FAFB6818461037BD4680BDB0B582B000AF786039607C68386800F01BFA0546386800F0EFF940
S32D0000DD680346184600F020FA03461A4629462046FFF7D8FF7B6818460837BD46B0BDB0B582B000AF78603960EA
S32D0000DD90386800F021F90546402009F03FFB03461C462946204602F09DFA2146786800F02FFA78680837BD4652
S32D0000DDB8B0BD90B585B000AF78607B68184600F032FAF860FB681B68002B0CD0786800F037FA0446F86800F092
S32D0000DDE040FA03461B681946204600F044FAFB6800221A607B6818461437BD4690BD80B584B000AFF860B960B8
S32D0000DE087A60FB68B9687A68184600F058FAFB6818461037BD4680BDB0B582B000AF786039607C68386800F099
S32D0000DE3033FA0546386800F007FA0346184600F038FA03461A4629462046FFF7D8FF7B6818460837BD46B0BDB7
S32D0000DE5880B483B000AF78607B6818460C37BD4680BC704780B582B000AF786039607B683A681146184600F083
S32D0000DE8038FA7B6818460837BD4680BD80B582B000AF786039607B6839681846FFF7E6FF7B6818460837BD46BB
S32D0000DEA880BD80B582B000AF78607B68184600F030FA034618460837BD4680BD80B582B000AF78607B68184671
S32D0000DED000F030FA034618460837BD4680BD80B483B000AF78607B6818460C37BD4680BC704780B582B000AF66
S32D0000DEF8786039603B68002B04D01A68183212681846904700BF0837BD4680BD80B582B000AF78607B68184601
S32D0000DF2000F015FA034618460837BD4680BD80B483B000AF78607B6818460C37BD4680BC704790B585B000AF1D
S32D0000DF48F860B9607A60FC687868FFF7ECFF024607F108031946204600F00AFAFB6818461437BD4690BD80B5A6
S32D0000DF7082B000AF78607B68184600F016FA034618460837BD4680BD80B582B000AF78607B68184600F016FA34
S32D0000DF98034618460837BD4680BD80B483B000AF78607B6818460C37BD4680BC704780B582B000AF7860396046
S32D0000DFC03B68002B04D01A68183212681846904700BF0837BD4680BD80B483B000AF78607B6818460C37BD4663
S32D0000DFE880BC704780B582B000AF786039607B683A681146184600F0FBF97B6818460837BD4680BD80B582B04C
S32D0000E01000AF786039607B6839681846FFF7E6FF7B6818460837BD4680BD80B582B000AF78607B68184600F026
S32D0000E038F3F9034618460837BD4680BD80B582B000AF78607B68184600F0F3F9034618460837BD4680BD80B443
S32D0000E06083B000AF78607B6818460C37BD4680BC704780B582B000AF786039603B68002B04D01A6818321268EF
S32D0000E0881846904700BF0837BD4680BD80B582B000AF78607B68184600F0D8F9034618460837BD4680BD80B4AD
S32D0000E0B083B000AF78607B6818460C37BD4680BC704790B585B000AFF860B9607A60FC687868FFF7ECFF02462D
S32D0000E0D807F108031946204600F0CDF9FB6818461437BD4690BD80B582B000AF786039607B683A68114618467F
S32D0000E10000F0D6F97B6818460837BD4680BD80B582B000AF786039607B6839681846FFF7E6FF7B6818460837AE
S32D0000E128BD4680BD80B582B000AF78607B68184600F0CEF9034618460837BD4680BD80B582B000AF78607B68AC
S32D0000E150184600F0CEF9034618460837BD4680BD80B483B000AF78607B6818460C37BD4680BC704780B582B097
S32D0000E17800AF786039603B68002B04D01A68183212681846904700BF0837BD4680BD80B582B000AF78607B682D
S32D0000E1A0184600F0B3F9034618460837BD4680BD80B483B000AF78607B6818460C37BD4680BC704790B585B04F
S32D0000E1C800AFF860B9607A60FC687868FFF7ECFF024607F108031946204600F0A8F9FB6818461437BD4690BD0D
S32D0000E1F080B582B000AF786039607B683A681146184600F0B1F97B6818460837BD4680BD80B582B000AF7860F8
S32D0000E21839607B6839681846FFF7E6FF7B6818460837BD4680BD80B582B000AF78607B68184600F0A9F90346B8
S32D0000E24018460837BD4680BD80B582B000AF78607B68184600F0A9F9034618460837BD4680BD80B483B000AFD6
S32D0000E26878607B6818460C37BD4680BC704780B582B000AF786039603B68002B04D01A68183212681846904792
S32D0000E29000BF0837BD4680BD80B582B000AF78607B68184600F08EF9034618460837BD4680BD80B483B000AF40
S32D0000E2B878607B6818460C37BD4680BC704790B585B000AFF860B9607A60FC687868FFF7ECFF024607F1080302
S32D0000E2E01946204600F083F9FB6818461437BD4690BD80B582B000AF786039607B68184600F08EF97868FFF76E
S32D0000E308D0FD02463B6813607B6818460837BD4680BD80B582B000AF78607B68184600F095F903461846083769
S32D0000E330BD4680BD80B582B000AF78607B68184600F094F9034618460837BD4680BD80B584B000AF78607868DD
S32D0000E358FFF7A7FD03461B68FB607868FFF7A1FD034600221A60FB6818461037BD4680BDB0B584B000AFF86095
S32D0000E380B9607A60FC68B86800F07CF905467868FFF7CDFD03461A462946204600F07CF9FB6818461037BD46BA
S32D0000E3A8B0BD80B582B000AF78607B68184600F08BF9034618460837BD4680BD80B582B000AF78607B681846E2
S32D0000E3D000F08AF9034618460837BD4680BD80B582B000AF78607B68184600F089F9034618460837BD4680BDBF
S32D0000E3F880B582B000AF786039607B68184600F091F97868FFF70DFE02463B6813607B6818460837BD4680BDB6
S32D0000E42080B582B000AF78607B68184600F098F9034618460837BD4680BD80B582B000AF78607B68184600F0D9
S32D0000E44897F9034618460837BD4680BD80B584B000AF78607868FFF7E4FD03461B68FB607868FFF7DEFD034628
S32D0000E47000221A60FB6818461037BD4680BDB0B584B000AFF860B9607A60FC68B86800F0F9F805467868FFF781
S32D0000E4980AFE03461A462946204600F075F9FB6818461037BD46B0BD80B582B000AF786039607B68184600F042
S32D0000E4C083F97868FFF732FE02463B6813607B6818460837BD4680BD80B582B000AF78607B68184600F08AF9EC
S32D0000E4E8034618460837BD4680BD80B582B000AF78607B68184600F089F9034618460837BD4680BD80B584B0B0
S32D0000E51000AF78607868FFF709FE03461B68FB607868FFF703FE034600221A60FB6818461037BD4680BDB0B5E9
S32D0000E53884B000AFF860B9607A60FC68B86800F09DF805467868FFF72FFE03461A462946204600F067F9FB68FF
S32D0000E56018461037BD46B0BD80B582B000AF786039607B68184600F075F97868FFF757FE02463B6813607B68E6
S32D0000E58818460837BD4680BD80B582B000AF78607B68184600F07CF9034618460837BD4680BD80B582B000AFB8
S32D0000E5B078607B68184600F07BF9034618460837BD4680BD80B584B000AF78607868FFF72EFE03461B68FB6081
S32D0000E5D87868FFF728FE034600221A60FB6818461037BD4680BDB0B584B000AFF860B9607A60FC68B86800F0E5
S32D0000E60041F805467868FFF754FE03461A462946204600F059F9FB6818461037BD46B0BD80B582B000AF78601A
S32D0000E6287B68184600F068F97B6818460837BD4680BD80B582B000AF78607B68184600F06BF903461846083709
S32D0000E650BD4680BD80B582B000AF78607868FFF7ECFF034618460837BD4680BD80B582B000AF7860786800F0C9
S32D0000E67869F9034618460837BD4680BD80B483B000AF78607B6818460C37BD4680BC704790B585B000AFF86003
S32D0000E6A0B9607A607868FFF742FC03461946F86800F058F9FC68B868FFF7E4FF03461946204600F061F9FB68E4
S32D0000E6C818461437BD4690BD80B582B000AF78607868FFF780FE034618460837BD4680BD80B582B000AF7860D5
S32D0000E6F0786800F05AF9034618460837BD4680BD80B483B000AF78607B6818460C37BD4680BC704780B582B0E4
S32D0000E71800AF7860786800F050F9034618460837BD4680BD80B582B000AF78607B68184600F04DF97B68184667
S32D0000E7400837BD4680BD80B582B000AF78607B68184600F050F9034618460837BD4680BD80B582B000AF7860B0
S32D0000E7687868FFF7ECFF034618460837BD4680BD80B582B000AF7860786800F04EF9034618460837BD4680BD71
S32D0000E79090B585B000AFF860B9607A607868FFF786FC03461946F86800F047F9FC68B868FFF768FF03461946CE
S32D0000E7B8204600F0E5F8FB6818461437BD4690BD80B582B000AF78607B68184600F043F97B6818460837BD46C6
S32D0000E7E080BD80B582B000AF78607B68184600F046F9034618460837BD4680BD80B582B000AF78607868FFF786
S32D0000E808ECFF034618460837BD4680BD80B582B000AF7860786800F044F9034618460837BD4680BD90B585B036
S32D0000E83000AFF860B9607A607868FFF7B9FC03461946F86800F03DF9FC68B868FFF71AFF03461946204600F076
S32D0000E85897F8FB6818461437BD4690BD80B582B000AF78607B68184600F039F97B6818460837BD4680BD80B561
S32D0000E88082B000AF78607B68184600F03CF9034618460837BD4680BD80B582B000AF78607868FFF7ECFF03462D
S32D0000E8A818460837BD4680BD80B582B000AF7860786800F03AF9034618460837BD4680BD90B585B000AFF860CD
S32D0000E8D0B9607A607868FFF7ECFC03461946F86800F033F9FC68B868FFF7CCFE03461946204600F049F8FB685F
S32D0000E8F818461437BD4690BD80B582B000AF7860786800F030F97B68184600F038F97B6818460837BD4680BDF0
S32D0000E92080B483B000AF78607B6818460C37BD4680BC704780B582B000AF7860786800F02FF903461846083795
S32D0000E948BD4680BD80B582B000AF78607868FFF7EDFF034618460837BD4680BD80B582B000AF78603960386864
S32D0000E970FFF7DDFA03461946786800F01BF97B6818460837BD4680BD80B582B000AF786039603868FFF776FECF
S32D0000E99803461A687B681A607B6818460837BD4680BD80B582B000AF78607868FFF7AEFE034618460837BD4610
S32D0000E9C080BD80B483B000AF78607B6818460C37BD4680BC704780B582B000AF7860786800F0FAF87B68184693
S32D0000E9E800F002F97B6818460837BD4680BD80B483B000AF78607B6818460C37BD4680BC704780B582B000AFD8
S32D0000EA107860786800F0F9F8034618460837BD4680BD80B582B000AF78607868FFF7EDFF034618460837BD4680
S32D0000EA3880BD80B582B000AF786039603868FFF732FB03461946786800F0E5F87B6818460837BD4680BD80B5DF
S32D0000EA6082B000AF7860786800F0EBF87B68184600F0F3F87B6818460837BD4680BD80B483B000AF78607B686F
S32D0000EA8818460C37BD4680BC704780B582B000AF7860786800F0EAF8034618460837BD4680BD80B582B000AFED
S32D0000EAB078607868FFF7EDFF034618460837BD4680BD80B582B000AF786039603868FFF76FFB03461946786869
S32D0000EAD800F0D6F87B6818460837BD4680BD80B582B000AF7860786800F0DCF87B68184600F0E4F87B681846B2
S32D0000EB000837BD4680BD80B483B000AF78607B6818460C37BD4680BC704780B582B000AF7860786800F0DBF86F
S32D0000EB28034618460837BD4680BD80B582B000AF78607868FFF7EDFF034618460837BD4680BD80B582B000AFAD
S32D0000EB50786039603868FFF7ACFB03461946786800F0C7F87B6818460837BD4680BD80B582B000AF7860786824
S32D0000EB7800F0CDF87B6818460837BD4680BD80B483B000AF78607B6800221A607B6818460C37BD4680BC704713
S32D0000EBA080B483B000AF78607B6818460C37BD4680BC704780B582B000AF786039603868FFF7B5F9034619466C
S32D0000EBC8786800F0AEF87B6818460837BD4680BD80B582B000AF7860786800F0ADF87B6818460837BD4680BDC6
S32D0000EBF080B483B000AF78607B6800221A607B6818460C37BD4680BC704780B483B000AF78607B6818460C379E
S32D0000EC18BD4680BC704780B582B000AF786039603868FFF740FA03461946786800F08EF87B6818460837BD4600
S32D0000EC4080BD80B582B000AF7860786800F08DF87B6818460837BD4680BD80B483B000AF78607B6800221A60F9
S32D0000EC687B6818460C37BD4680BC704780B483B000AF78607B6818460C37BD4680BC704780B582B000AF7860AE
S32D0000EC9039603868FFF78CFA03461946786800F06EF87B6818460837BD4680BD80B582B000AF7860786800F045
S32D0000ECB86DF87B6818460837BD4680BD80B483B000AF78607B6800221A607B6818460C37BD4680BC704780B4EE
S32D0000ECE083B000AF78607B6818460C37BD4680BC704780B582B000AF786039603868FFF7D8FA0346194678685B
S32D0000ED0800F04EF87B6818460837BD4680BD80B483B000AF78607B6818460C37BD4680BC704780B483B000AF69
S32D0000ED30786039607B6818460C37BD4680BC704780B483B000AF78607B6818460C37BD4680BC704780B483B0FB
S32D0000ED5800AF786039607B6818460C37BD4680BC704780B483B000AF78607B6818460C37BD4680BC704780B457
S32D0000ED8083B000AF786039607B6818460C37BD4680BC704780B483B000AF78607B6818460C37BD4680BC704730
S32D0000EDA880B483B000AF786039607B6818460C37BD4680BC7047000080B582B000AF786039607B68012B0CD1C9
S32D0000EDD03B684FF6FF72934207D1064808F0CCFD054A0649034808F093FA00BF0837BD4680BD00BFE41700207A
S32D0000EDF8000000209979010080B500AF4FF6FF710120FFF7D9FF80BD80B400AF024B1846BD4680BC704700BFB2
S32D0000EE20FFFF7F7F2DE9B04384B000AFF860B9607A603B60FB684FF4A0721A60FB68F0225A60FB686FF07F4212
S32D0000EE489A60FB684C4ADA60FB684C4A1A61FB6800225A61FB684A4A9A62FB68002283F82D20FB685C3318462B
S32D0000EE7024F0CAFFFB681B68184639F059F94FF000024FF0804339F0F7FA02460B4614461D46786825F032F806
S32D0000EE980346184639F048F94FF000024FF0804339F0E6FA02460B4690469946354806F0A1F90346184639F0C4
S32D0000EEC047F902460B464046494639F0ABF902460B462046294638F0EDFF02460B461046194639F081FC0246AB
S32D0000EEE8FB685A63B86839F085FD0246FB689A63786824F0FFFF0446224806F07BF9034604FB03F3184639F094
S32D0000EF1071FD0246FB685A651C4806F079F90346184639F06BFD0246FB689A65FB685C337968184624F09CFF6D
S32D0000EF38FB6800221A76FB6801225A76FB68002283F82C20FB68002283F82D203A68FB68DA61BA6AFB681A6264
S32D0000EF60FB681B691A46FB685A62FB68DA69FB681A63FB6818461037BD46BDE8B08300BF666666002121210060
S32D0000EF88E22B8A00C81A002090B585B000AFF860B9607A603B60FB684FF4A0721A60FB68F0225A60FB686FF090
S32D0000EFB07F429A60FB682E4ADA60FB682D4A1A61FB6800225A61FB682B4A9A62FB68002283F82D20FB685C33BB
S32D0000EFD8184624F015FFFB68BA685A63FB687A689A63386824F086FF0446224806F002F9034604FB03F3184687
S32D0000F00039F0F8FC0246FB685A651C4806F000F90346184639F0F2FC0246FB689A65FB685C333968184624F09B
S32D0000F02823FFFB6800221A76FB6801225A76FB68002283F82C20FB68002283F82D203A6AFB68DA617A6AFB680B
S32D0000F0501A62FB681B691A46FB685A62FB68DA69FB681A63FB6818461437BD4690BD00BF66666600212121007A
S32D0000F078E22B8A00C81A0020F0B58BB002AF78607B681B6B1946334806F0B1FC7B685C6B304806F0AFF803467A
S32D0000F0A0184639F0ABFC03461946204639F0F0FB0346184639F0D2FE05467B689B6B184639F0CCFE06467B689E
S32D0000F0C85C6D244806F096F803465B00184639F091FC03461946204639F0D8FB0346184639F0B8FE04467B68EC
S32D0000F0F09B6D184639F0B2FE03460093234632462946164807F02FF97B6803F15C0207F108031146184625F008
S32D0000F118B9F97B685B6B184639F09CFE04467B689B6B4FF08141184639F0B0FB0346184639F090FE034607F148
S32D0000F14008012246054806F08CFC07F10803184624F082FE00BF2437BD46F0BDC81A0020B0B584B000AF786084
S32D0000F1687B685B7E002B00F046810023FB730023BB737B6803F13C017B6840331A46924806F01AFD7B68DC6B1E
S32D0000F1907B685D6B8E4806F031F80346184639F02DFC03461946284639F072FB03461946204639F029FE034665
S32D0000F1B8002B44D07B68DC6B7B685A6B7B685B6D1946104639F062FB03461D467E4806F011F80346184639F0F1
S32D0000F1E00DFC03461946284639F054FB03464FF07E51184639F04CFB03461946204639F0F9FD0346002B1ED0B6
S32D0000F2087B681A6C7B689B6B1946104639F0F8FD0346002B13D07B681C6C7B689A6B7B689B6D1946104639F040
S32D0000F23031FB03461946204639F0DCFD0346002B01D0012200E000227B6883F82C207B6803F13C017B684033F6
S32D0000F2581A465D4806F0B0FC034683F00103DBB2002B6ED17B6803F144017B6848331A46554806F0A1FC0346D7
S32D0000F280002B62D07B68DC6B7B685D6B504805F0BFFF0346184639F0B1FB03461946284639F0F6FA0346194690
S32D0000F2A8204639F0ADFD0346002B27D07B68DC6B7B685A6B7B685B6D1946104639F0E6FA03461D46404805F030
S32D0000F2D095FF0346184639F091FB03461946284639F0D8FA03464FF07E51184639F0D0FA03461946204639F030
S32D0000F2F87DFD0346002B01D0012300E00023FB737B681A6C7B689B6B1946104639F078FD0346002B13D07B68B5
S32D0000F3201C6C7B689A6B7B689B6D1946104639F0B1FA03461946204639F05CFD0346002B01D0012300E00023DF
S32D0000F348BB73FB7B002B19D0BB7B002B16D07B685B69002B03D17B6801225A6106E07B685B69012B02D17B68C2
S32D0000F37002225A617B681A6A7B681A637B6801221A763CE07B685B69022B03D17B6803225A6106E07B685B691F
S32D0000F398032B02D17B6800225A617B6893F82C30002B13D07B689A6A7B681A637B6893F82D3083F00103DBB298
S32D0000F3C0002B0FD07B68012283F82D200AE000BFC81A00207B68DA697B681A637B68002283F82D207B68002244
S32D0000F3E81A76FFF711FD02467B68DA63FFF70CFD02467B681A647868FFF73EFE00BF1037BD46B0BD80B483B064
S32D0000F41000AF78607B681B7E18460C37BD4680BC704780B485B000AF78600023FB737B685B69012B04D17B6828
S32D0000F43802225A610123FB73FB7B18461437BD4680BC704780B582B000AF78603960386839F0D0FA02467B68DB
S32D0000F4609A6500BF0837BD4680BD80B483B000AF78607B6823F0004318460C37BD4680BC704780B584B000AF6B
S32D0000F488F860B9607A60B968F86839F0AFFC0346002B01D0BB6809E07968F86839F0B0FC0346002B01D07B6827
S32D0000F4B000E0FB6818461037BD4680BD80B584B000AFF860C7E90023D7E90623D7E9000138F0F0FC02460B466C
S32D0000F4D8F968C1E90023FB68D3E90023F968C1E90223F9684FF000024FF00003C1E90423FB684FF00002DA62D1
S32D0000F500FB680A4A1A62FB68094A5A62FB68074A9A62F9684FF000024FF00003C1E90C23FB6818461037BD46C0
S32D0000F52880BD00BFACC5273795BFD633000000002DE9B04F8CB000AFF861C7E90423D7E91423D7E9040138F079
S32D0000F550B1FC02460B46F969C1E90023FB69D3E90445FB69D3E90001D7E9162338F05AFE02460B4620462946A7
S32D0000F57838F09EFC02460B46F969C1E90423A6A3D3E90023D7E9160139F0BAF80346002B04D0A1A3D3E9002392
S32D0000F5A0C7E91623FB69D3E900014FF000024FF0000339F0C7F80346002B0BD0FB69D3E902014FF000024FF0D6
S32D0000F5C8000339F09DF80346002B28D1FB69D3E900014FF000024FF0000339F091F80346002B0BD0FB69D3E922
S32D0000F5F002014FF000024FF0000339F0A3F80346002B10D1FB69D3E90023BA6023F00043FB6085A3D3E9002339
S32D0000F618D7E9020139F074F80346002B06D0F9694FF000024FF00003C1E90423FB69D3E90C01D7E9042338F030
S32D0000F64039FC02460B463A6023F000437B6076A3D3E90023D7E9000139F06AF80346002B06D0F9694FF00002D2
S32D0000F6684FF00003C1E90423FB69D3E90C01D7E9042338F01BFC02460B46904623F000494FF00002684B4046C9
S32D0000F690494639F04DF80346002B03D0FB694FF00002DA624FF00002624BC7E90A23FB69D3E904231046194660
S32D0000F6B839F096F803465E4A5E491846FFF7DDFE0346184638F052FD02460B46F969C1E90423FB69D3E900019B
S32D0000F6E0FB69D3E9022338F0E5FB02460B4610461946D7E9162338F0BFFE02460B46F969C1E90623FB69D3E995
S32D0000F7080023F969C1E90223FB69DB6A184638F02DFD04460D46FB691B6A184638F026FDFB69D3E9002338F08C
S32D0000F73079FD02460B4690469946FB695B6A184638F018FDFB69D3E9042338F06BFD02460B464046494638F076
S32D0000F758AFFB02460B4690469946FB699B6A184638F004FDFB69D3E9062338F057FD02460B464046494638F000
S32D0000F7809BFB02460B462046294638F095FB02460B461046194639F027F80246FB69DA62F969D7E90423C1E92E
S32D0000F7A80C23254B7B62FB69DB6A1846FFF759FE03462149184639F00FFB0346002B11D0FB69D3E900239246AF
S32D0000F7D023F0004B14A3D3E900235046594638F0B1FF0346002B01D0012300E00023002B0ED0FB69DB6A4FF0AD
S32D0000F7F80001184639F00EFB0346002B01D00E4A00E00E4AFB69DA62FB69DB6A18463037BD46BDE8B08F00BFC9
S32D0000F820FCA9F1D24D62503F9A9999999999B93F0000E03F0000494000004842000048C2CDCCCC3DCDCCCCBD85
S32D0000F84880B485B000AFF860B9607A603B60FB68BA681A62FB687A685A62FB683A689A6200BF1437BD4680BC48
S32D0000F8707047000080B582B000AF786039607B68012B0CD13B684FF6FF72934207D1064808F072F8054A0649EC
S32D0000F898034807F039FD00BF0837BD4680BD00BFE8170020000000209979010080B500AF4FF6FF710120FFF7CB
S32D0000F8C0D9FF80BD80B586B002AF786039603A23FB60386838F04EFC02460B467868CDE90023044B3A22044964
S32D0000F8E800F062F878681037BD4680BD10BE05004D28050090B583B000AF7860396004F097FE0346184639F003
S32D0000F91071F803467968184638F0BAFF0346012214461946386839F065FA0346002B01D100231C46E3B21846EC
S32D0000F9380C37BD4690BD000080B582B000AF7860064A7B681A607B680433184624F058FA7B6818460837BD4612
S32D0000F96080BD00BF7CBE050080B582B000AF7860064A7B681A607B680433184624F06CFA7B6818460837BD462E
S32D0000F98880BD00BF7CBE050080B582B000AF78607868FFF7E5FF1C21786807F039FD7B6818460837BD4680BD64
S32D0000F9B008B490B588B000AFF860B9607A607B680733DB08DB00ADEB030D6B460733DB08DB00FB6107F1300343
S32D0000F9D83B61BC683B69FA6A7968F869A047B861BB69FA69D41807F11403184607F0E2FD07F114032246F96968
S32D0000FA00F86800F00CF807F11403184607F0D8FDF8682037BD46BDE8904001B0704790B585B000AFF860B9601A
S32D0000FA287A603B60FC68F86824F0DEF803463A681946204624F024FD7A68B968F86800F005F8FB68184614374C
S32D0000FA50BD4690BD80B584B000AFF860B9607A607A68B968F86800F004F800BF1037BD4680BD90B587B000AF15
S32D0000FA78F860B9607A603B7023467A68B968F86800F004F800BF1C37BD4690BD80B586B000AFF860B9607A60EB
S32D0000FAA03B70B86800F03EF80346002B05D0BA687B689A4201D0012300E00023002B02D0174819F063FE79687E
S32D0000FAC8B86800F03AF803467B617B690F2B10D907F1140300221946F86824F08FF803461946F86824F07CF887
S32D0000FAF07B691946F86824F07DF8F86824F076F803467A68B968184624F0C8F87B691946F86824F071F800BF7D
S32D0000FB181837BD4680BD00BF48BE050080B483B000AF78607B68002B0CBF01230023DBB218460C37BD4680BCEB
S32D0000FB407047B0B582B000AF786039607C683B1D184600F00AF82A463968204600F00FF8034618460837BD4646
S32D0000FB68B0BD80B483B000AF786000BF18460C37BD4680BC704780B485B000AFF860B9603A71BA68FB68D31A18
S32D0000FB9018461437BD4680BC7047000090B585B000AF786039607B681846FFF7C9FE164A7B681A607B683A68CE
S32D0000FBB8DA617B6803F1280407F10C03184607F0F9FC07F10C031A460E49204624F0A0FC07F10C03184607F060
S32D0000FBE0EFFC04F029FD0346184638F003FF02467B681A627B68002283F824207B6818461437BD4690BD00BF1B
S32D0000FC0820BF0500B0BE050080B582B000AF786004F00EFD0346184638F0E8FE02467B681A6200BF0837BD462D
S32D0000FC3080BD000080B58AB000AF78607B68D8694FF07C534FF000024FF0000101F064FD7B68DB69184601F0F8
S32D0000FC5877FD002300222549254805F0DBFE04F0E7FC0346184638F0C1FE02467B681B6A1946104638F008FE24
S32D0000FC8003467B6207F10C03796A1846FFF71AFE0F2300221949184805F0C0FE07F10C03184624F0D1FB014685
S32D0000FCA81E230022124805F0B5FE2D23002212490F4805F0AFFE7B681B6A10491846FFF719FE0346002B08D08B
S32D0000FCD07B68DB69184601F063FE7B68012283F8242007F10C03184624F0B6F800BF2837BD4680BDC0BE050062
S32D0000FCF8C81A0020DCBE0500E8BE050000401C4580B483B000AF78607B6893F8243018460C37BD4680BC7047AA
S32D0000FD2080B483B000AF78607B68012283F8242000BF0C37BD4680BC704780B582B000AF786039603B68283385
S32D0000FD481946786824F09EFB78680837BD4680BD80B582B000AF7860084A7B681A607B682833184624F074F889
S32D0000FD707B681846FFF7F8FD7B6818460837BD4680BD00BF20BF050080B582B000AF78607868FFF7E1FF4021D1
S32D0000FD98786807F03DFB7B6818460837BD4680BD90B585B000AF786039607B681846FFF7C3FD164A7B681A6020
S32D0000FDC07B683A68DA617B6803F12C0407F10C03184607F0F3FB07F10C031A460E49204624F09AFB07F10C0330
S32D0000FDE8184607F0E9FB04F023FC0346184638F0FDFD02467B685A627B68002283F828207B6818461437BD469A
S32D0000FE1090BD00BFC8BF050060BF050080B582B000AF786004F008FC0346184638F0E2FD02467B685A627B68AA
S32D0000FE38002283F8202000BF0837BD4680BD000090B5A9B000AF78607B6803F12C0107F13803554A184600F038
S32D0000FE60DBF807F1380207F150031146184624F00DFB07F15001002300224E4805F0F1FD07F15003184623F090
S32D0000FE88E7FF04F0D5FB0346184638F0AFFD02467B685B6A1946104638F0F6FC0346C7F89C3007F12003D7F8AA
S32D0000FEB09C101846FFF706FD0F2300223E493D4805F0ACFD07F12003184624F0BDFA01461E230022374805F0C1
S32D0000FED8A1FD2D2300223749344805F09BFD7B68DB69184604F0A4FE024607F1680311461846FFF7E3FC07F11B
S32D0000FF00080307F168022E49184600F098F807F16803184623F0A0FF07F1080207F180031146184624F0B2FAAC
S32D0000FF2807F180013C230022204805F096FD07F18003184623F08CFF204BC7F898307B68DB69184604F074FE6D
S32D0000FF500346012214461B49184638F055FF0346002B01D100231C46E3B2002B03D07B68012283F820207B687D
S32D0000FF7893F82030002B03D07B68012283F8282007F10803184623F063FF07F12003184623F05EFF07F13803C7
S32D0000FFA0184623F059FF00BFA437BD4690BD00BF70BF0500C81A00207CBF050088BF05008CBF05009A99394003
S32D0000FFC880B483B000AF78607B6893F8283018460C37BD4680BC704780B483B000AF78607B68012283F8282009
S32D0000FFF000BF0C37BD4680BC704780B582B000AF786039603B682C331946786824F03EFA78680837BD4680BD78
S32D0001001880B584B000AFF860B9607A60B968F86824F030FA7968F86824F038F900BFF8681037BD4680BD80B536
S32D0001004084B000AFF860B9607A60BA680021786824F0E0F80346184600F009F803461946F86823F0D9FEF8686A
S32D000100681037BD4680BD80B483B000AF78607B6818460C37BD4680BC7047000080B582B000AF7860084A7B6857
S32D000100901A607B682C33184623F0DEFE7B681846FFF762FC7B6818460837BD4680BD00BFC8BF050080B582B031
S32D000100B800AF78607868FFF7E1FF4421786807F0A7F97B6818460837BD4680BD90B585B000AF786039607B68C3
S32D000100E01846FFF72DFC164A7B681A607B683A68DA617B6803F1280407F10C03184607F05DFA07F10C031A46DA
S32D000101080E49204624F004FA07F10C03184607F053FA04F08DFA0346184638F067FC02467B681A627B680022F7
S32D0001013083F824207B6818461437BD4690BD00BF84C005000CC0050080B582B000AF786004F072FA0346184637
S32D0001015838F04CFC02467B681A6200BF0837BD4680BD000080B58AB000AF78607B68D8694FF000032B4A4FF013
S32D00010180000101F0C9FA7B68DB69184601F0DCFA002300222649274805F040FC04F04CFA0346184638F026FCD0
S32D000101A802467B681B6A1946104638F06DFB03467B6207F10C03796A1846FFF77FFB0F2300221B49194805F047
S32D000101D025FC07F10C03184624F036F901461E230022144805F01AFC2D2300221349114805F014FC7B681B6A92
S32D000101F811491846FFF77EFB0346002B08D07B68DB69184601F0C8FB7B68012283F8242007F10C03184623F0EF
S32D000102201BFE00BF2837BD4680BD00BFCDCC4C3F20C00500C81A002040C005004CC0050000401C4580B483B050
S32D0001024800AF78607B6893F8243018460C37BD4680BC704780B483B000AF78607B68012283F8242000BF0C37F2
S32D00010270BD4680BC704780B582B000AF786039603B6828331946786824F000F978680837BD4680BD80B582B0D2
S32D0001029800AF7860084A7B681A607B682833184623F0D6FD7B681846FFF75AFB7B6818460837BD4680BD00BF74
S32D000102C084C0050080B582B000AF78607868FFF7E1FF4021786807F09FF87B6818460837BD4680BD90B585B019
S32D000102E800AF786039607B681846FFF725FB164A7B681A607B683A68DA617B6803F1280407F10C03184607F094
S32D0001031055F907F10C031A460E49204624F0FCF807F10C03184607F04BF904F085F90346184638F05FFB0246C1
S32D000103387B681A627B68002283F824207B6818461437BD4690BD00BF40C10500C8C0050080B582B000AF786057
S32D0001036004F06AF90346184638F044FB02467B681A6200BF0837BD4680BD000080B58AB000AF786000230022E9
S32D000103883A493B4805F046FB04F052F90346184638F02CFB02467B681B6A1946104638F073FA03467B6207F1BD
S32D000103B00C03796A1846FFF785FA0F2300222F492D4805F02BFB07F10C03184624F03CF801461E230022284836
S32D000103D805F020FB2D2300222749254805F01AFB7B681B6A25491846FFF784FA034683F00103DBB2002B0FD08E
S32D000104007B68D8694FF000034FF03F424FF0000101F082F97B68DB69184601F095F90EE07B68D8694FF00003A3
S32D000104284FF000024FF03F4101F072F97B68DB69184601F085F97B681B6A11491846FFF759FA0346002B08D0A0
S32D000104507B68DB69184601F0A3FA7B68012283F8242007F10C03184623F0F6FC00BF2837BD4680BDDCC005003C
S32D00010478C81A0020FCC0050008C1050000007A4400409C4580B483B000AF78607B6893F8243018460C37BD4691
S32D000104A080BC704780B483B000AF78607B68012283F8242000BF0C37BD4680BC704780B582B000AF7860396008
S32D000104C83B6828331946786823F0DCFF78680837BD4680BD80B582B000AF7860084A7B681A607B682833184642
S32D000104F023F0B2FC7B681846FFF736FA7B6818460837BD4680BD00BF40C1050080B582B000AF78607868FFF76C
S32D00010518E1FF4021786806F07BFF7B6818460837BD4680BD80B483B000AF786039603B6818460C37BD4680BC59
S32D00010540704780B582B000AF78607B68184600F0DBF87B6818460837BD4680BD80B582B000AF78607B681846F4
S32D00010568FFF7EBFF7B6818460837BD4680BD000080B582B000AF78607B680833184623F03FFC7B682033184678
S32D00010590FFF7E4FF7B6800225A607B6808330749184623F027FE7B6800221A707B6800225A707B6818460837C2
S32D000105B8BD4680BD80C1050090B583B000AF786039607B6803F12004386800F0A9F803461946204600F0AEF826
S32D000105E000BF0C37BD4690BD90B58BB000AF78607B682033184600F0B2F878627B685B687A6A9A4256D97B6813
S32D0001060803F120027B685B681946104600F0B2F838627B6803F10804386A00F0BAF803461A681032126807F178
S32D0001063008001946904707F108031946204623F01DFC07F10803184623F006FC386A00F0A4F803461A680832C0
S32D00010658126818469047034683F00103DBB2002B1BD07B685B7883F00103DBB2002B0AD0386A00F08EF8034641
S32D000106801A681268184690477B6801225A70386A00F083F803461A68043212681846904711E07B685B685A1C80
S32D000106A87B685A607B6800225A7008E07B6801221A707B6808330449184623F097FD00BF2C37BD4690BD00BF9E
S32D000106D080C1050080B582B000AF786039603B6808331946786823F0D1FE78680837BD4680BD80B483B000AFBA
S32D000106F878607B681B7818460C37BD4680BC704780B582B000AF7860786800F04EF87B68184600F056F87B6888
S32D0001072018460837BD4680BD80B483B000AF78607B6818460C37BD4680BC704780B582B000AF7860396038683E
S32D00010748FFF7EEFF03461946786800F078F800BF0837BD4680BD80B483B000AF78607B685A687B681B68D31A93
S32D000107709B1018460C37BD4680BC704780B483B000AF786039607B681A683B689B00134418460C37BD4680BCB7
S32D00010798704780B582B000AF7860786800F07DF8034618460837BD4680BD80B582B000AF7860786800F07EF8EE
S32D000107C07B6818460837BD4680BD80B483B000AF78607B6800221A607B6800225A607B6800229A607B681846DE
S32D000107E80C37BD4680BC704780B584B000AFF860B9607A60BB68002B05D0FB687A68B968184600F061F800BF57
S32D000108101037BD4680BD80B483B000AF78607B6818460C37BD4680BC704780B584B000AFF860B9607A60B96846
S32D00010838F86800F058F800BF1037BD4680BDB0B582B000AF786039607B685A687B689B689A4211D07C687B68E5
S32D000108605D68386800F050F803461A462946204600F054F87B685B681A1D7B685A600CE0786800F05EF804463C
S32D00010888386800F03DF803461A462146786800F07BF800BF0837BD46B0BD80B582B000AF78607B68184600F09C
S32D000108B02BF9034618460837BD4680BD80B483B000AF78607B6818460C37BD4680BC704780B584B000AFF860F7
S32D000108D8B9607A607A68B968F86800F01FF900BF1037BD4680BD80B582B000AF786039603968786800F022F93A
S32D0001090000BF0837BD4680BD80B483B000AF78607B6818460C37BD4680BC704780B584B000AFF860B9607A60BF
S32D000109287868FFF7EDFF03461A46B968F86800F03DF900BF1037BD4680BD80B584B000AF78607B681A1D07F146
S32D000109500C031146184600F045F9FB6818461037BD4680BD80B582B000AF184600F005F8034618460837BD46F4
S32D0001097880BD80B483B000AF3871012318460C37BD4680BC70470000B0B58CB000AFF860B9607A60594A012139
S32D000109A0F86800F02EF9B862FB681B687B62FB685B683B62F86800F06BF903467B6107F1140207F108031146D0
S32D000109C8184600F071F90346FB61FB68B96A184600F07FF9B861BB69FB62FC68FB699B00BA69D5187868FFF774
S32D000109F08BFF03461A4629462046FFF78FFF0023FB62FFF7AFFF0346002B27D007F10803184600F08AF90346A0
S32D00010A181C68FB681846FFF7FAFE0346BA692146786A00F06AF9F862FB6A0433FB6207F10803184600F075F962
S32D00010A4003461C68FB681846FFF7E5FE0346FA6A396A204600F055F9F86226E007F10803184600F062F90346D7
S32D00010A681C68FB681846FFF7D2FE0346BA692146786A00F060F9F862FB6A0433FB6207F10803184600F04DF96C
S32D00010A9003461C68FB681846FFF7BDFE0346FA6A396A204600F04BF9F862FFF75BFF034683F00103DBB2002BEC
S32D00010AB809D0FB681846FFF7AAFE03461A46396A786AFFF7AEFEF868FB689A687B6AD31A9B101A46796AFFF78C
S32D00010AE087FEFB68BA691A60FB68FA6A5A60BB6A9B00BA691A44FB689A6000BF3037BD46B0BD00BF88C10500A0
S32D00010B0880B582B000AF78607B68184600F039F903461B6818460837BD4680BD80B584B000AFF860B9607A6061
S32D00010B307B689B001946B86806F06EFC00BF1037BD4680BD80B582B000AF786039607A683B689A420AD0786851
S32D00010B5800F024F90346184600F02AF97B6804337B60F0E700BF0837BD4680BD80B582B000AF786039607B6833
S32D00010B803A681146184600F032F97B6818460837BD4680BD80B582B000AF786039607B683A6811461846FFF75D
S32D00010BA8E5FF7B6818460837BD4680BD90B585B000AFF860B9607A607868FFF7A1FE0446BB6819460420FFF7AB
S32D00010BD0ADFC034621461846FFF7DCFF00BF1437BD4690BD80B483B000AF786039603B681A687B681A607B6828
S32D00010BF818460C37BD4680BC704790B587B000AFF860B9607A60F86800F007F90446F868FFF7A1FD0346E21AEE
S32D00010C20BB689A4234BF01230023DBB2002B02D0786818F0C3FDF868FFF791FD0446F868FFF78DFD03463B6147
S32D00010C4807F1080207F110031146184600F0F6F803461B6823447B61F868FFF77CFD02467B69934206D3F868C5
S32D00010C7000F0D7F802467B69934204D9F86800F0D0F8034600E07B6918461C37BD4690BD80B584B000AF7860A2
S32D00010C987A6807F10C0311461846FFF79FFFFB6818461037BD4680BD90B583B000AF78603960786800F035F81E
S32D00010CC003461C68386800F030F803461B68E31A9B1018460C37BD4690BD80B582B000AF786039603B68002BC6
S32D00010CE806D07B683968184600F0BBF8034600E0002318460837BD4680BD90B587B002AFF860B9607A603B6046
S32D00010D108DF800403B687A68B968F86800F0B4F8034618461437BD4690BD80B483B000AF78607B6818460C3799
S32D00010D38BD4680BC704790B585B000AFF860B9607A603B60F86800F0ADF80446B86800F0A9F801463B687A68CB
S32D00010D60204600F0B2F8034618461437BD4690BD80B582B000AF786039603968786800F0B5F800BF0837BD467C
S32D00010D8880BD80B582B000AF78607B68184600F0B5F8034618460837BD4680BD80B483B000AF78607B681846DE
S32D00010DB00C37BD4680BC704780B582B000AF78607868FCF7ECFE00BF0837BD4680BD80B582B000AF786039606B
S32D00010DD87B683A681146184600F0A6F87B6818460837BD4680BD90B583B000AF786039607C683B68184600F0F7
S32D00010E008DF8034619462046FFF7E1FF3868FDF7AEF8034600221A607B6818460C37BD4690BD80B582B000AF51
S32D00010E2878607B68184600F0BCF80346184600F09EF8034618460837BD4680BD80B483B000AF786039607B6821
S32D00010E501A683B681B689A4201D23B6800E07B6818460C37BD4680BC704780B582B000AF7860396000223968D5
S32D00010E78786800F0A0F8034618460837BD4680BD80B584B000AFF860B9607A603B603B687A68B968F86800F0C9
S32D00010EA0ACF8034618461037BD4680BD80B584B000AF786007F10C037968184600F0BAF8FB6818461037BD466E
S32D00010EC880BD80B584B000AFF860B9607A603B607A68B968F86800F0BBF8034618461037BD4680BD80B582B025
S32D00010EF000AF786039603868FCF751FE00BF0837BD4680BD80B582B000AF7860786800F0B5F803461846083742
S32D00010F18BD4680BD80B483B000AF78607B6818460C37BD4680BC704790B583B000AF78603960386800F0ABF837
S32D00010F400346184600F0B1F803461946786800F0C0F87C683868FDF742FA0346184600F0AEF803461946204613
S32D00010F6800F0C9F87B6818460C37BD4690BD80B584B000AF78606FF06043FB60786800F0CBF80346BB6007F199
S32D00010F90080207F10C031146184600F0CDF803461B6818461037BD4680BD80B483B000AF78607B6818460C3794
S32D00010FB8BD4680BC704780B584B000AFF860B9607A60F86800F0C7F80246BB6893428CBF01230023DBB2002B18
S32D00010FE001D018F0B3FBBB689B00184606F016FA034618461037BD4680BDB0B584B000AFF860B9607A603B60DD
S32D00011008F86800F0B3F80446B86800F0AFF80546786800F0ABF802463B682946204600F0AFF8034618461037BA
S32D00011030BD46B0BD80B582B000AF786039603B46184600F0C7F803461A687B681A607B6818460837BD4680BD24
S32D0001105880B586B000AFF860B9607A600123FB757A68B968F86800F0BBF8034618461837BD4680BD80B582B0CD
S32D0001108000AF78607B68184600F0DDF8034618460837BD4680BD80B483B000AF78607B6818460C37BD4680BCDD
S32D000110A8704780B483B000AF78607B6818460C37BD4680BC704780B483B000AF78607B6818460C37BD4680BC49
S32D000110D0704780B582B000AF786039603868FDF719FB0346184600F0B8F803461946786800F0BDF87B68184656
S32D000110F80837BD4680BD80B582B000AF786039603868FFF7D8FF03461A687B681A607B6818460837BD4680BD6E
S32D0001112080B582B000AF7860786800F0ADF8034618460837BD4680BD80B483B000AF786039603B681A687B6888
S32D000111481B689A4201D23B6800E07B6818460C37BD4680BC704780B483B000AF78606FF0604318460C37BD46B5
S32D0001117080BC704780B483B000AF78607B6818460C37BD4680BC704790B587B000AFF860B9607A603B607B6801
S32D000111987B61FA68BB689A4213D07869FFF7FEFD0446F868FFF7FAFD03463A681946204600F072F8FB680433FB
S32D000111C0FB607B6904337B61E7E77B6918461C37BD4690BD80B483B000AF78607B6818460C37BD4680BC704793
S32D000111E890B587B000AFF860B9607A607B687B6107F1080207F10C031146184600F067F80346002B16D078695B
S32D00011210FFF7C8FD044607F10C03184600F07BF803461946204600F081F807F10C03184600F062F87B690433A1
S32D000112387B61DDE77B6918461C37BD4690BD80B483B000AF78607B6818460C37BD4680BC704780B483B000AF84
S32D0001126078607B6818460C37BD4680BC704780B582B000AF786039603868FFF7EEFF7B6818460837BD4680BD43
S32D0001128880B582B000AF78607868FFF764FF034618460837BD4680BD80B584B000AFF860B9607A60B868FFF771
S32D000112B03BFA03461A46F9687868FFF72FFBB868FFF770FD034619467868FFF751FD00BF1037BD4680BD80B506
S32D000112D882B000AF786039603968786800F039F8034683F00103DBB218460837BD4680BD80B483B000AF7860DB
S32D000113007B681B681A1D7B681A607B6818460C37BD4680BC704780B483B000AF78607B681B6818460C37BD4652
S32D0001132880BC704790B583B000AF786039603868FFF7E6FA04467B6819460420FFF7F2F8034621461846FFF701
S32D0001135021FC00BF0C37BD4690BD90B583B000AF78603960786800F00EF80446386800F00AF803469C420CBFC3
S32D0001137801230023DBB218460C37BD4690BD80B483B000AF78607B681B6818460C37BD4680BC704780B582B02F
S32D000113A000AF7860786835F0E1FD034618460837BD4680BD80B582B000AF7860786835F007FE034618460837B0
S32D000113C8BD4680BD80B582B000AF7860786835F033FE034618460837BD4680BD90B583B000AF786039607B68F1
S32D000113F01A683B681B681946104637F053FB03461C467B6804331A683B6804331B681946104637F047FB0346F1
S32D000114181946204637F03AFA034618460C37BD4690BD90B583B000AF78607B681A687B681B681946104637F0A5
S32D0001144031FB03461C467B6804331A687B6804331B681946104637F025FB03461946204637F018FA0346184683
S32D00011468FFF7B0FF034618460C37BD4690BD80B584B000AF786039607868FFF7D2FFF8604FF00001F86837F027
S32D000114909DFC0346002B02D04FF0000309E079683868FFF79FFF0346F968184637F0AEFB034618461037BD4645
S32D000114B880BD000080B582B000AF7860084611461A460346FB700B46BB7013467B707868BA78F978FB6900F08A
S32D000114E0A7FB7B68854AC3F888207B684FF00002C3F88C207B684FF00002C3F890207B6803F198003A7C7978F6
S32D00011508FB6900F091FB7B687A4AC3F820217B684FF00002C3F824217B684FF00002C3F828217B6803F5987002
S32D000115303A7E397DFB6900F07BFB7B686F4AC3F8B8217B684FF00002C3F8BC217B684FF00002C3F8C0217B68C5
S32D000115584FF07E52C3F8C4217B684FF00002C3F8C8217B68644A03F5E67392E8030083E803007B68614A03F59A
S32D00011580EA7392E8030083E803007B684FF00002C3F8DC217B684FF00002C3F8E0217B684FF00002C3F8E42154
S32D000115A87B684FF00002C3F8E8217B684FF00002C3F8EC217B684FF00002C3F8F0217B684FF00002C3F8F4215C
S32D000115D07B684FF00002C3F8F8217B684FF00002C3F8FC217B68002283F806227B68012283F807227B6802229F
S32D000115F883F808227B684FF00002C3F80C227B684FF00002C3F810227B684FF00002C3F814227B683A4AC3F8CA
S32D000116201C227B684FF07E52C3F820227B68374AC3F824227B68364AC3F828227B68354AC3F82C227B68FA78E1
S32D0001164883F800227B687A7883F802227B683A7D83F804227B68BA7883F801227B683A7C83F803227B683A7EA0
S32D0001167083F805227B68FA69C3F818227B68002283F830227B684FF00002C3F8E8217B684FF00002C3F8EC21C8
S32D000116987B684FF00002C3F8F02178687B68D3F888107B68D3F88C207B68D3F8903000F0F5FC7B6803F19800F5
S32D000116C07B68D3F820117B68D3F824217B68D3F8283100F0E7FC7B6803F598707B68D3F8B8117B68D3F8BC216A
S32D000116E87B68D3F8C03100F0D9FC7B6818460837BD4680BD9A99193FA4C10500ACC10500000010410000404176
S32D00011710CDCC4C3FCDCCCC3D80B485B000AFF860B9607A603B60FB68BA68C3F8DC21FB687A68C3F8E021FB6845
S32D000117383A68C3F8E42100BF1437BD4680BC704790B58DB000AF78607B6803F5E2727B6803F5EE7319461046F7
S32D00011760FFF789FEF8627B6803F5E6727B6803F5EE7319461046FFF77EFEB8627B6803F5EA727B6803F5EE7360
S32D0001178819461046FFF773FE78627B68D3F8E4313B627B68D3F8283283F000417B68D3F828321A46386AFDF722
S32D000117B068FEF861F969F86A37F06CF80346FB62F969B86A37F066F80346BB62F969786A37F060F803467B62FE
S32D000117D8F86AFDF746FE0346FB60B86AFDF741FE03463B61786AFDF73CFE03467B6107F1140207F110031146C5
S32D00011800184600F0E4F9024607F10C031146184600F0DDF903461B68BB617B68D3F820321946B86937F0FAFA41
S32D000118280346002B29D07B68D3F82032B969184637F0E8F903461946F86A37F02FF90346FB627B68D3F820329D
S32D00011850B969184637F0DAF903461946B86A37F021F90346BB627B68D3F82032B969184637F0CCF9034619466A
S32D00011878786A37F013F903467B62BB6983F00043BA691946F86AFDF7F8FD02467B68C3F80C22BB6983F0004371
S32D000118A0BA691946B86AFDF7ECFD02467B68C3F81022BB6983F00043BA691946786AFDF7E0FD02467B68C3F88B
S32D000118C814227B6893F83032002B34D07C687B68D3F80C227B68D3F824321946104637F0DDF803461946204639
S32D000118F000F04AFB7B6803F198047B68D3F810227B68D3F824321946104637F0CBF803461946204600F038FB6D
S32D000119187B6803F598747B68D3F814227B68D3F824321946104637F0B9F803461946204600F026FB2AE07C6837
S32D000119407B68D3F80C321549184637F0ABF803461946204600F0FFF97B6803F198047B68D3F810320D491846F9
S32D0001196837F09CF803461946204600F0F0F97B6803F598747B68D3F814320649184637F08DF80346194620466C
S32D0001199000F0E1F900BF3437BD4690BD0000C84280B582B000AF78604FF000034FF000024FF000017868FFF753
S32D000119B8AFFE7B68184600F0F6F97B689833184600F0F1F97B6803F59873184600F0EBF900BF0837BD4680BDF7
S32D000119E080B582B000AF78607B68184600F0ECF9034618460837BD4680BD80B582B000AF78607B6898331846B4
S32D00011A0800F0DEF9034618460837BD4680BD80B582B000AF78607B6803F59873184600F0CFF9034618460837F2
S32D00011A30BD4680BD80B582B000AF78607B68184600F0EAF9034618460837BD4680BD80B582B000AF78607B684E
S32D00011A589833184600F0DCF9034618460837BD4680BD80B582B000AF78607B6803F59873184600F0CDF903461A
S32D00011A8018460837BD4680BD80B483B000AF78607B6803F5F47318460C37BD4680BC704780B582B000AF7860A5
S32D00011AA80B46FB707B68FA7883F83022FB78002B03D0786800F008F802E0786800F01EF800BF0837BD4680BDEA
S32D00011AD080B582B000AF78607B680121184600F02BF97B6898330121184600F025F97B6803F5987301211846E0
S32D00011AF800F01EF900BF0837BD4680BD80B582B000AF78607B680021184600F011F97B6898330021184600F013
S32D00011B200BF97B6803F598730021184600F004F900BF0837BD4680BD80B584B000AFF860B9607A603B60BB68E1
S32D00011B48032B19D0BB68032B1FDCBB68012B03D0BB68022B07D018E0F868BB693A68796800F09CFA11E0FB68E9
S32D00011B7003F19800BB693A68796800F093FA08E0FB6803F59870BB693A68796800F08AFA00BF00BF1037BD4668
S32D00011B9880BD80B582B000AF78607B68184600F021F9034618460837BD4680BD80B582B000AF78607B68184653
S32D00011BC000F01FF9034618460837BD4680BD80B582B000AF786039607B681A683B681B681946104637F0FCF8E6
S32D00011BE80346002B01D03B6800E07B6818460837BD4680BD80B582B000AF7860094803F0B0FE0421074803F0FF
S32D00011C10B7FE0221054803F0DAFE786822F014FC03461946014804F001F9EEE7C81A002080B586B002AFF86089
S32D00011C387B600B46FB721346BB72FB683A4A5A60FB684FF08342DA60FB681033F97A7A68184600F085FDFB68EE
S32D00011C601833BA7A1146184602F002FDFB6803F128014FF000024FF00003CDE900234FF000024FF00003084683
S32D00011C88FDF718FCFB684FF49F72DA66FB68274A1A67FB684FF000025A67FB684FF000029A67FB68FA7A1A706E
S32D00011CB0FB687A689A60FB68DB6E184636F09AFE0246FB689A66FB685A7EFB685A76FB681833184602F08CFF5C
S32D00011CD8FB684FF000021A66FB684FF00002DA67FB684FF00002C3F88020FB68022283F88420FB68012283F82E
S32D00011D008520FB684FF000025A6702F095FC0346184636F06FFE0246FB689A67FB68002283F82420FB6818463C
S32D00011D281037BD4680BD00BF00001041D153FB4080B483B000AF78600B46FB707B68FA7883F8842000BF0C3776
S32D00011D50BD4680BC704780B582B000AF786039604FF00001386837F059F80346002B04D07B68002283F8852022
S32D00011D7803E07B68022283F885204FF00001386837F020F80346002B03D07B68012283F885207B6810333968DF
S32D00011DA0184600F061FD00BF0837BD4680BD80B582B000AF78607B681033184600F012FD00BF0837BD4680BD7B
S32D00011DC880B582B000AF78607B681833184602F0F9FE0346184636F00DFE034618460837BD4680BD80B483B024
S32D00011DF000AF78607B681B6E18460C37BD4680BC704780B483B000AF78607B68DB6F18460C37BD4680BC704788
S32D00011E1880B58CB000AF78604FF07E53BB624FF07E537B6202F004FC0346184636F0DEFD03463B627B689B6F1C
S32D00011E401946386A36F024FD0346FB617B681833184602F0BBFE0346184636F0CFFD0346BB617B685B6F194645
S32D00011E68B86936F011FD0346FB627B6893F88530022B03D1FB6A83F00043FB627B6893F8243083F00103DBB2EE
S32D00011E90002B09D07B683A6A9A677B68012283F824207B68BA695A67F86AFDF7DEFA03461946B86A36F0B2FF3C
S32D00011EB80346002B08D0796AF86936F097FF0346002B01D0012300E00023002B02D07B685B6E4FE04FF000012B
S32D00011EE0F86936F087FF0346002B02D07B685B6E44E04FF00001F86A36F068FF0346002B06D07B684FF0000213
S32D00011F085A664FF0000335E07B689B6E1946F86A36F078FE03467B617B681B6F1946786936F0BCFD03463B61B4
S32D00011F301449F86936F06AFE0346FB60F968386936F064FE0346BB607B68D3F880303969184636F09FFC03463C
S32D00011F581A467B68C3F880207B68BA695A677B683A6A9A677B68BA685A667B68002283F82420BB6818463037FC
S32D00011F80BD4680BD00007A442DE9F04393B004AF786039607B6893F88430012B59D17B683A681A667868FFF731
S32D00011FA837FF386302F044FB0346184636F01EFD0346FB627B689B6F1946F86A36F064FC03467B634FF00001DF
S32D00011FD0786B36F00FFF0346002B01D02D4B7B637B6803F128067B681B6E184636F0C2F880468946386B36F023
S32D00011FF8BDF804460D46786B36F0B8F802460B46CDE90223CDE9004542464B463046FDF78FFAB8627B68BA6A13
S32D00012020DA677B68DB681946B86A36F0EFFD03461949184636F036FD03467B62164A1749786AFDF71EFA786287
S32D00012048796A7868FFF783FE1BE007F12003184605F0B0FA07F1200207F108030E49184622F056FA07F10803E5
S32D000120701846FFF7C3FD07F10803184621F0ECFE07F12003184605F09BFA00BF3C37BD46BDE8F0836F12833A43
S32D000120980000C8420000C8C2ECC1050080B584B000AFF860B9607A603B60FB6803F128003B687A68B968FDF7BC
S32D000120C0C3FB00BF1037BD4680BD000080B500AF0F4BD3F8A03003F48053002B14BF01230023DBB2002B10D06D
S32D000120E8094BD3F8A030084A23F48053C2F8A030064805F097F8064B1B68054A23F40053136000BF80BD00BF87
S32D0001211000C00440501B0020C0F00F4080B400AF124B4FF480725A63114B5B69104A43F4005353610E4B1B684C
S32D000121380D4A43F4005313600A4B0C4A1A630C4BD3F888310A4A43F08063C2F88831084B9B68074A43F0806387
S32D00012160936000BFBD4680BC704700BF00C00440C0F00F4003010A0000E100E080B400AF334B00225A70324B4D
S32D0001218898221A70304B9B79DBB203F01003002B14BF01230023DBB2002B00D0F2E72A4B9B79DBB29B08DBB2D6
S32D000121B003F00303022B14BF01230023DBB2002B00D0F0E7224B18221A71214B00225A71204B03F580531A4640
S32D000121D81F4B53641C4B54225A711B4B9B79DBB203F02003002B0CBF01230023DBB2002B00D0F2E7144B9B79E1
S32D00012200DBB203F04003002B0CBF01230023DBB2002B00D0F2E70E4B1B78DBB20C4A03F03F03DBB213700A4BE5
S32D000122289B79DBB29B08DBB203F00303032B14BF01230023DBB2002B00D0F0E700231846BD4680BC704700BFE0
S32D0001225000400640007004400000130180B500AF314B03F580539B6B2F4A43F4785302F580529363FFF752FF5F
S32D00012278FFF780FF2B4B58221A602A4B1B684FF47A7202FB03F3284A1360274B1B681A46234B03F580535B6C04
S32D000122A01B0E03F00F030133B2FBF3F31A46214B1A601D4B03F58053DB6B1B4A43F0225302F58052D363184BEC
S32D000122C803F580531B6B164A43F0006302F580521363174B4FF480721A61642002F058F8134B5B69124A23F0F8
S32D000122F010035361104B00221A600F4B10225A610E4803F0BFF902F07FFD02F0DDFD0C4802F0A4F80B4804F056
S32D00012318DDFF4FF4FA6002F04FF900BF80BD00BF00700440141A0020101A0020181A002000D00340C81A002075
S32D000123400C1A0020C01B002080B500AFF9F7FBFF00BF80BD80B500AFF9F7F5FF00BF80BD80B500AFF9F7EFFFDD
S32D0001236800BF80BD80B500AFF9F7E9FF00BF80BD80B500AFF9F7E3FF00BF80BD80B500AFF9F7DDFF00BF80BD34
S32D0001239080B500AFF9F7D7FF00BF80BD80B500AFF9F7D1FF00BF80BD80B500AFF9F7CBFF00BF80BD80B500AF5A
S32D000123B8F9F7C5FF00BF80BD80B500AFF9F7BFFF00BF80BD80B500AFF9F7B9FF00BF80BD80B500AFF9F7B3FFAA
S32D000123E000BF80BD80B500AFF9F7ADFF00BF80BD80B500AFF9F7A7FF00BF80BD80B500AFF9F7A1FF00BF80BD70
S32D0001240880B500AFF9F79BFF00BF80BD80B500AFF9F795FF00BF80BD80B500AFF9F78FFF00BF80BD80B500AF95
S32D00012430F9F789FF00BF80BD80B500AFF9F783FF00BF80BD80B500AFF9F77DFF00BF80BD80B500AFF9F777FF21
S32D0001245800BF80BD80B500AFF9F771FF00BF80BD80B500AFF9F76BFF00BF80BD80B500AFF9F765FF00BF80BDAB
S32D0001248080B500AFF9F75FFF00BF80BD80B500AFF9F759FF00BF80BD80B500AFF9F753FF00BF80BD80B500AFD1
S32D000124A8F9F74DFF00BF80BD80B500AFF9F747FF00BF80BD80B500AFF9F741FF00BF80BD80B500AFF9F73BFF99
S32D000124D000BF80BD80B500AFF9F735FF00BF80BD80B500AFF9F72FFF00BF80BD80B500AFF9F729FF00BF80BDE7
S32D000124F880B500AFF9F723FF00BF80BD80B500AFF9F71DFF00BF80BD80B500AFF9F717FF00BF80BD80B500AF0D
S32D00012520F9F711FF00BF80BD80B500AFF9F70BFF00BF80BD80B500AFF9F705FF00BF80BD80B500AFF9F7FFFE11
S32D0001254800BF80BD80B500AFF9F7F9FE00BF80BD80B500AFF9F7F3FE00BF80BD80B500AFF9F7EDFE00BF80BD25
S32D0001257080B500AFF9F7E7FE00BF80BD80B500AFF9F7E1FE00BF80BD80B500AFF9F7DBFE00BF80BD80B500AF4B
S32D00012598F9F7D5FE00BF80BD80B500AFF9F7CFFE00BF80BD80B500AFF9F7C9FE00BF80BD80B500AFF9F7C3FE8C
S32D000125C000BF80BD80B500AFF9F7BDFE00BF80BD80B500AFF9F7B7FE00BF80BD80B500AFF9F7B1FE00BF80BD61
S32D000125E880B500AFF9F7ABFE00BF80BD80B500AFF9F7A5FE00BF80BD80B500AFF9F79FFE00BF80BD80B500AF87
S32D00012610F9F799FE00BF80BD80B500AFF9F793FE00BF80BD80B500AFF9F78DFE00BF80BD80B500AFF9F787FE03
S32D0001263800BF80BD80B500AFF9F781FE00BF80BD80B500AFF9F77BFE00BF80BD80B500AFF9F775FE00BF80BD9C
S32D0001266080B500AFF9F76FFE00BF80BD80B500AFF9F769FE00BF80BD80B500AFF9F763FE00BF80BD80B500AFC2
S32D00012688F9F75DFE00BF80BD80B500AFF9F757FE00BF80BD80B500AFF9F751FE00BF80BD80B500AFF9F74BFE7B
S32D000126B000BF80BD80B500AFF9F745FE00BF80BD80B500AFF9F73FFE00BF80BD80B500AFF9F739FE00BF80BDD8
S32D000126D880B500AFF9F733FE00BF80BD80B500AFF9F72DFE00BF80BD80B500AFF9F727FE00BF80BD80B500AFFE
S32D00012700F9F721FE00BF80BD80B500AFF9F71BFE00BF80BD80B500AFF9F715FE00BF80BD80B500AFF9F70FFEF2
S32D0001272800BF80BD80B500AFF9F709FE00BF80BD80B500AFF9F703FE00BF80BD80B500AFF9F7FDFD00BF80BD14
S32D0001275080B500AFF9F7F7FD00BF80BD80B500AFF9F7F1FD00BF80BD80B584B000AFF8600B467A60FB72FB686D
S32D00012778FA7A1A71FB6800225A711749786836F049FB0346002B02D0134B7B600AE04FF07E51786836F02AFB97
S32D000127A00346002B02D04FF07E537B60786835F0E1FC09A3D3E9002335F034FD02460B461046194636F010F89A
S32D000127C80246FB681A60FB6818461037BD4680BDABAAAAAAAAAA20400000404180B582B000AF78607B685B79F2
S32D000127F0002B09D07B6800225A717B6819791E230022034801F064FE00BF0837BD4680BD0C1A002080B584B083
S32D0001281800AF786039603B687F2B02DD7F23FB7308E03B6813F1800F02DA8023FB7301E03B68FB737B685B7981
S32D00012840FA7B9A4209D07B68FA7B5A717B681979FA7B1E23034801F03BFE00BF1037BD4680BD00BF0C1A002031
S32D00012868B0B584B000AF786039603749386836F0B3FA0346002B02D0334B3B6008E03349386836F0C7FA034602
S32D00012890002B01D02F4B3B60386835F06BFC04460D467B681B68184635F064FC4FF00002294B35F0E1FD0246F6
S32D000128B80B462046294635F0B1FC02460B461046194635F08DFF03463B604FF00001386836F096FA0346002B0C
S32D000128E010D0386835F046FC17A3D3E9002335F099FC02460B461046194635F02DFF0346FB6018E0386835F08F
S32D0001290835FC4FF00002134B35F088FC02460B46104619464FF000020D4B35F0A9FD02460B461046194635F002
S32D0001293013FF0346FB60F9687868FFF76BFF00BF1037BD46B0BD00BF52B81E85EB51F43F0000C8C20000C8423C
