S01100002E2E2F50726F746575732E73313966
S32D0000C000000000205DC2000011C3000017C300001DC3000023C3000029C3000000000000000000000000000073
S32D0000C028000000002FC3000035C30000000000003BC3000041C30000015301000D530100195301002553010062
S32D0000C050315301003D5301004953010055530100615301006D5301007953010085530100915301009D53010074
S32D0000C078A9530100B5530100C1530100CD530100D9530100E5530100F1530100FD53010009540100155401009A
S32D0000C0A0215401002D5401003954010045540100515401005D5401006954010075540100815401008D540100BA
S32D0000C0C899540100A5540100B1540100BD540100C9540100D5540100E1540100ED540100F954010005550100E1
S32D0000C0F011550100859F01001D5501002955010035550100415501004D550100595501006555010071550100AE
S32D0000C1187D5501008955010095550100A1550100AD550100B9550100C5550100D1550100DD550100E95501009F
S32D0000C140F5550100015601000D56010019560100597E010025560100315601003D56010049560100555601009E
S32D0000C168615601006D5601007956010085560100915601009D560100A9560100B5560100C1560100CD5601005D
S32D0000C190D9560100E5560100F15601004D7A010015790100B179010085500100ED7A0100FD5601000957010058
S32D0000C1B815570100B094060000000020C8170000B09406000000FF1F00000000C8170020D81A00000000FF1F2C
S32D0000C1E00000000080B489B000AFF860B9607A60BB68FB61FB68BB6100237B617A697B689A420BD2BA69131DFB
S32D0000C208BB61FB69191DF96112681A607B6904337B61EFE700BF2437BD4680BC704780B485B000AF786039609E
S32D0000C2307B68FB600023BB60BA683B689A4208D2FB681A1DFA6000221A60BB680433BB60F2E700BF1437BD46FE
S32D0000C25880BC704780B586B000AF72B6234B4CF220521A80214B4DF628121A80204B4FF4E9721A801F4B7B615F
S32D0000C2807B691F4A934214D27B691A1D7A611B683B617B691A1D7A611B68FB607B691A1D7A611B68BB60BA68E9
S32D0000C2A8F9683869FFF79AFFE6E77B69134A93420ED27B691A1D7A611B68FB607B691A1D7A611B68BB60B9688B
S32D0000C2D0F868FFF7A8FFECE70B4B7B600B4A7B681A6042F00DF862B608F094FF00F044F9FEE700BF0E2005406F
S32D0000C2F800200540BCC10000D4C10000E4C1000008ED00E000C0000080B400AFFEE780B400AFFEE780B400AFF4
S32D0000C320FEE780B400AFFEE780B400AFFEE780B400AFFEE780B400AFFEE780B400AFFEE780B400AFFEE780B426
S32D0000C34800AFFEE7FFFFFFFFFFFFFFFFFFFFFFFFFFFFFFFFFFFFFFFFFFFFFFFFFFFFFFFFFFFFFFFFFFFFFFFF57
S32D0000C370FFFFFFFFFFFFFFFFFFFFFFFFFFFFFFFFFFFFFFFFFFFFFFFFFFFFFFFFFFFFFFFFFFFFFFFFFFFFFFFFC7
S32D0000C398FFFFFFFFFFFFFFFFFFFFFFFFFFFFFFFFFFFFFFFFFFFFFFFFFFFFFFFFFFFFFFFFFFFFFFFFFFFFFFFF9F
S32D0000C3C0FFFFFFFFFFFFFFFFFFFFFFFFFFFFFFFFFFFFFFFFFFFFFFFFFFFFFFFFFFFFFFFFFFFFFFFFFFFFFFFF77
S32D0000C3E8FFFFFFFFFFFFFFFFFFFFFFFFFFFFFFFFFFFFFFFFFFFFFFFFFFFFFFFFFFFFFFFFFFFFFFFFFEFFFFFF50
S32D0000C44010B5054C237833B9044B13B10448AFF300800123237010BDC817002000000000C881060008B5034BD3
S32D0000C4681BB103490348AFF3008008BD00000000CC170020C88106002DE9B0438AB000AFF860B9607A603B6032
S32D0000C490FA687B68D31A18463EF036FE02460B46C7E90823BA683B68D31A18463EF02CFE02460B46C7E906233E
S32D0000C4B8D7E90823D7E908013EF08CFE02460B4614461D463B6C03FB03F318463EF018FE02460B4620462946E9
S32D0000C4E03EF0A6FF02460B4614461D46D7E90623D7E906013EF072FE02460B46904699467B6C03FB03F3184630
S32D0000C5083EF0FEFD02460B46404649463EF08CFF02460B46204629463EF0A6FC02460B46C7E9042301231C4641
S32D0000C5304FF00002074BD7E904013FF0CBF80346002B01D100231C46E3B218462837BD46BDE8B0830000F03F6C
S32D0000C55880B582B000AF78607B685C3318462AF053FC7B6818460837BD4680BD00000000F0B5ADF6541D04AF62
S32D0000C58007F51463A3F50F734FF000021A6007F51463A3F50F734FF000025A6007F51463A3F50F734FF00002EF
S32D0000C5A89A60F94BC7F82839002387F82739012387F82639032387F82539002387F82439022387F823390423DA
S32D0000C5D087F8223997F8264997F8242997F8271907F59960D7F82839039397F82239029397F82539019397F870
S32D0000C5F823390093234607F047FF07F2C443102118460BF0DFFA07F59363184606F09AFF07F51463A3F50B73B5
S32D0000C62007F2C4421146184601F016FB07F2147207F5E2631146184601F05BFB07F5E26207F593631146184693
S32D0000C64806F0A4FF07F5E263184601F06AFB07F21473184601F016FB07F51463A3F5097307F599621146184623
S32D0000C67001F07DFB07F21C7207F5E3631146184601F0C2FB07F5E36207F593631146184606F080FF07F5E36368
S32D0000C698184601F046FB07F21C73184601F07DFB07F51463A3F5077307F599621146184601F0C2FB07F2247227
S32D0000C6C007F5E4631146184601F007FC07F5E46207F593631146184606F05CFF07F5E463184601F022FB07F27E
S32D0000C6E82473184601F0C2FB07F51463A3F5057307F599621146184601F007FC07F22C7207F5E56311461846CE
S32D0000C71001F04CFC07F5E56207F593631146184606F038FF07F5E563184601F0FEFA07F22C73184601F007FC36
S32D0000C73807F51463A3F5037307F599621146184601F04CFC07F2347207F5E6631146184601F091FC07F5E66212
S32D0000C76007F593631146184606F014FF07F5E663184601F0DAFA07F23473184601F04CFC07F51463A3F50173DD
S32D0000C78807F599621146184601F091FC07F23C7207F5E7631146184601F0D6FC07F5E76207F593631146184608
S32D0000C7B006F0F0FE07F5E763184601F0B6FA07F23C73184601F091FC07F51463A3F5FE7307F599621146184686
S32D0000C7D801F0D6FC07F2447207F5E8631146184601F01BFD07F5E86207F593631146184606F0CCFE07F5E863C8
S32D0000C800184601F092FA07F24473184601F0D6FC07F51463A3F5FA7307F2C44207F59961184601F01AFD07F292
S32D0000C8284C7207F5E9631146184601F065FD07F5E96207F593631146184606F0A7FE07F5E963184601F06DFA4D
S32D0000C85007F24C73184601F020FD07F51463A3F5F67307F599621146184601F065FD07F2547207F5EA631146C4
S32D0000C878184601F0AAFD07F5EA6207F593631146184606F083FE07F5EA63184601F049FA07F25473184601F04C
S32D0000C8A065FD07F51463A3F5F27307F599621146184601F0AAFD07F25C7207F5EB631146184601F0EFFD07F5B5
S32D0000C8C8EB6207F593631146184606F05FFE07F5EB63184601F025FA07F25C73184601F0AAFD07F51463A3F57A
S32D0000C8F0EE7307F599621146184601F0EFFD07F2647207F5EC631146184601F034FE07F5EC6207F593631146AB
S32D0000C918184606F03BFE07F5EC63184601F001FA07F26473184601F0EFFD002387F83F39164BC7F838394FF0DA
S32D0000C9400003C7F834394FF00003C7F8303907F59263083B18460FF031FE07F5F06318460DF008FE07F5F06272
S32D0000C96807F5ED630A4918462AF0AEFD07F5ED6207F214408B230093FF23002104F008FA07F5ED63184605E03E
S32D0000C9900000C0409A99193F44EC05002AF038FA07F5F06318460DF0E7FD07F214431E21184604F005FD07F203
S32D0000C9B89C7318460DF0DAFD07F29C7207F284739D4918462AF080FD07F2847207F568708B230093FF232321D4
S32D0000C9E004F0DAF907F2847318462AF011FA07F29C7318460DF0C0FD07F568731E21184604F0DEFC07F5F76337
S32D0000CA0818460DF0B3FD07F5F76207F5F4638B4918462AF059FD07F5F46207F54B708B230093FF23462104F0E4
S32D0000CA30B3F907F5F46318462AF0EAF907F5F76318460DF099FD07F54B731E21184604F0B7FC07F2D47318469B
S32D0000CA580DF08CFD07F2D47207F2BC73784918462AF032FD07F2BC7207F52E708B230093FF23692104F08CF934
S32D0000CA8007F2BC7318462AF0C3F907F2D47318460DF072FD07F52E731E21184604F090FC0123C7F81C3969487F
S32D0000CAA80BF03BFF67480CF0EBFA002387F82F39654B1B78002B4BD197F82F39002B47D107F56873184604F0A4
S32D0000CAD001FB07F21443184604F0FCFA07F54B73184604F0F7FA07F56873184604F053FC0346002B05D0564B45
S32D0000CAF802221A70012387F82F3907F21443184604F045FC0346002B05D04F4B01221A70012387F82F3907F5DD
S32D0000CB204B73184604F037FC0346002B05D0484B03221A70012387F82F3907F52E73184604F029FC0346002B86
S32D0000CB48B6D0414B04221A70012387F82F39AFE707F51463A3F50F73196807F51463A3F50F735A6807F514638C
S32D0000CB70A3F50F739B6807F5996007F0A9FD33480BF0CFFE31480CF07FFA002387F82E3997F82E39002B41F05C
S32D0000CB984C802D4B1B78012B5CD10AF025FD034618463EF0FFFE0346C7F8D03807F599630121184607F04CFF87
S32D0000CBC0D2230022234921480BF004FFE1230022D7F8D0181D480BF035FFB42300221E491A480BF0F7FE07F53E
S32D0000CBE81463A3F5B47307F593621146184606F057FD07F5FB61C323002212480BF009FF07F5FB6318462AF06A
S32D0000CC10FFF807F59363184606F0D0FC07F59363184606F050FD0346002BB1D0012387F82E3907F59963184605
S32D0000CC3807F08EFEA8E700BF4CEC050058EC050064EC0500C81A0020E517002074EC050084EC0500E04B1B786C
S32D0000CC60032B40F0C983DF4BC7F8E83807F6080318460DF07FFC07F6080207F5FE63DA4918462AF025FC07F5F9
S32D0000CC88FE6338464FF4C84201924FF47F0200924FF00002D34904F031F907F5FE6318462AF0B2F807F6080367
S32D0000CCB018460DF061FC3B461E21184604F080FB3B46184604F006FA07F6240318460DF051FC07F6240207F652
S32D0000CCD80C03C54918462AF0F7FB07F60C0307F174004FF4C84201924FF400420092BF4ABC4904F003F907F63D
S32D0000CD000C0318462AF084F807F6240318460DF033FC07F174031E21184604F051FB07F17403184604F0D6F978
S32D0000CD2807F5046318460DF021FC07F5046207F62803AF4918462AF0C7FB07F6280307F1E8004FF4C84201925E
S32D0000CD504FF6FF720092A94AA44904F0D3F807F6280318462AF054F807F5046318460DF003FC07F1E8031E2103
S32D0000CD78184604F021FB07F1E803184604F0A6F99849D7F8E8083EF05DFD03461C4607F65C0318460DF0EAFBDC
S32D0000CDA007F65C0207F64403954918462AF090FB07F6440307F5AE704FF40B0201924FF47F0200924FF000020D
S32D0000CDC8214604F09BF807F6440318462AF01CF807F65C0318460DF0CBFB07F5AE731E21184604F0E9FA07F575
S32D0000CDF0AE73184604F06EF97C49D7F8E8083EF025FD03461C4607F6780318460DF0B2FB07F6780207F5066360
S32D0000CE187A4918462AF058FB07F5066307F5E8704FF40B0201924FF4004200926F4A214604F064F807F50663D6
S32D0000CE40184629F0E5FF07F6780318460DF094FB07F5E8731E21184604F0B2FA07F5E873184604F037F96149F0
S32D0000CE68D7F8E8083EF0EEFC03461C4607F6940318460DF07BFB07F6940207F67C03604918462AF021FB07F66C
S32D0000CE907C0307F511704FF40B0201924FF6FF720092564A214604F02DF807F67C03184629F0AEFF07F69403F9
S32D0000CEB818460DF05DFB07F511731E21184604F07BFA07F51173184604F000F93B46184604F05DFA0346002BAA
S32D0000CEE011D0D7F838093EF021F939A3D3E900233DF0BEFF02460B46104619463EF050FC0346C7F8383907F509
S32D0000CF08AE73184604F043FA0346002B11D0D7F838093EF007F92CA3D3E900233DF0A2FF02460B4610461946EE
S32D0000CF303EF036FC0346C7F8383907F17403184604F029FA0346002B11D0D7F834093EF0EDF821A3D3E90023FF
S32D0000CF583DF08AFF02460B46104619463EF01CFC0346C7F8343907F5E873184604F00FFA0346002B11D0D7F816
S32D0000CF8034093EF0D3F814A3D3E900233DF06EFF02460B46104619463EF002FC0346C7F8343907F1E8031846ED
S32D0000CFA804F0F5F90346002B33D0D7F830093EF0B9F807A3D3E900233DF056FF02460B4620E000BFAFF3008096
S32D0000CFD09A9999999999B93FFCA9F1D24D62503FE517002000005C4398EC050000007041A0EC050000000C422A
S32D0000CFF8A8EC050000008C42B0EC0500B8EC0500C0EC0500104619463EF0C6FB0346C7F8303907F511731846B6
S32D0000D02004F0B9F90346002B11D0D7F830093EF07DF8CDA3D3E900233DF018FF02460B46104619463EF0ACFB86
S32D0000D0480346C7F8303907F59960D7F830390093D7F83439D7F83829012107F045FD07F59960D7F83039009302
S32D0000D070D7F83439D7F83829022107F039FD07F59960D7F830390093D7F83439D7F83829032107F02DFDB4238E
S32D0000D0986422B549B5480BF099FCB4237822D7F83819B2480BF0CAFCC8236422B049AF480BF08CFCC8237822A4
S32D0000D0C0D7F83419AB480BF0BDFCDC236422AB49A8480BF07FFCDC237822D7F83019A5480BF0B0FC64230022B2
S32D0000D0E8A549A2480BF072FC07F59963184607F02CFD0146642328229C480BF09FFC782300229E4999480BF051
S32D0000D11061FC07F59963184607F068FC01467823282294480BF08EFC8C230022964991480BF050FC07F599638E
S32D0000D138184607F017FD01468C2328228B480BF07DFC904BC7F8E4388F4BC7F8E038D7F8E0083EF05BFE0446EA
S32D0000D1608C49D7F8E4083EF071FB034618463EF051FE0346224688497E480BF02BFC07F51463A3F50F731C68D8
S32D0000D188D7F8E0083EF042FE05468249D7F8E4083EF058FB034618463EF038FE03462A46214672480BF04AFCDC
S32D0000D1B0D7F8E0083EF02EFE04467949D7F8E4083EF044FB034618463EF024FE03462246744968480BF0FEFB03
S32D0000D1D807F51463A3F50F735C68D7F8E0083EF015FE05466E49D7F8E4083EF02BFB034618463EF00BFE0346A8
S32D0000D2002A4621465B480BF01DFC684BC7F8DC38634BC7F8D83807F599630121184607F01BFC3223C7F8D438C9
S32D0000D228FF2152480BF0BFFBD7F8D4083EF0BAFB0446D7F8D4083EF0B5FB034600932346D7F8D828D7F8DC1831
S32D0000D25048480CF0C7F907F5926207F29443194644480BF089FC0346002B00F0A18007F51463A3F2AC431B683A
S32D0000D27818463EF0CBFD044607F51463A3F596631B6818463EF0C2FD0546D7F8DC083EF0BDFD0646D7F8D80837
S32D0000D2A03EF0B8FD0146D7F8D438D7F8D428019200930B46324629462046FFF7E1F80346002B7AD007F51463CC
S32D0000D2C8A3F2AC431B68D7F8DC1818463EF0B8FA03461C46D7F8D4083EF064FB0346194620463EF06BFC034661
S32D0000D2F083F0004207F51463A3F50F731A6007F51463A3F596631B68D7F8D81818463EF09BFA03461C46D7F873
S32D0000D318D4083EF047FB0346194620463EF04EFC03461A4607F51463A3F50F735A6007F51463A3F50F73196817
S32D0000D34007F51463A3F50F735A6807F51463A3F50F739B6807F5996007F0BAF907F59963184607F0CDF928E026
S32D0000D368FCA9F1D24D62503FC8EC0500C81A0020CCEC0500D0EC0500D4EC0500DCEC0500E4EC050000001643F8
S32D0000D390000034430000B442ECEC05000000D2420000F042F8EC0500000007430000204307F59963184607F0FC
S32D0000D3B8CFFA07F511731846FFF7CAF807F5E8731846FFF7C5F807F5AE731846FFF7C0F807F1E8031846FFF720
S32D0000D3E0BBF807F174031846FFF7B6F83B461846FFF7B2F8FFF7CCBB9A4B1B78042B40F04B814FF00003C7F85B
S32D0000D408FC38974BC7F8F8384FF00001D7F8FC083EF018FA034618463EF0F8FC03460022904991480BF0D2FAF1
S32D0000D43007F59963184607F003FB03461C688D49D7F8FC083EF002FA034618463EF0E2FC034600222146864890
S32D0000D4580BF0F4FA8649D7F8FC083EF0F3F9034618463EF0D3FC0346002282497E480BF0ADFA07F59963184669
S32D0000D48007F0DEFA034604331C687D49D7F8FC083EF0DCF9034618463EF0BCFC03460022214673480BF0CEFA32
S32D0000D4A87649D7F8FC083EF0CDF9034618463EF0ADFC0346002272496B480BF087FA07F59963184607F0B8FAFE
S32D0000D4D0034608331C686D49D7F8FC083EF0B6F9034618463EF096FC03460022214660480BF0A8FA664BC7F8D2
S32D0000D4F8F438664BC7F8F03807F599630121184607F0A6FA3223C7F8EC38FF2156480BF04AFAD7F8EC083EF00D
S32D0000D52045FA0446D7F8EC083EF040FA034600932346D7F8F028D7F8F4184D480CF052F807F5926207F2944387
S32D0000D548194649480BF014FB0346002B7ED007F51463A3F2AC431B6818463EF057FC044607F51463A3F5966352
S32D0000D5701B6818463EF04EFC0546D7F8F4083EF049FC0646D7F8F0083EF044FC0146D7F8EC38D7F8EC2801927A
S32D0000D59800930B46324629462046FEF76DFF0346002B3FF4F1AA07F51463A3F2AC431B68D7F8F41818463EF0B0
S32D0000D5C043F903461C46D7F8EC083EF0EFF90346194620463EF0F6FA034683F0004207F51463A3F50F731A604C
S32D0000D5E807F51463A3F596631B68D7F8F01818463EF026F903461C46D7F8EC083EF0D2F90346194620463EF069
S32D0000D610D9FA03461A4607F51463A3F50F735A6007F51463A3F50F73196807F51463A3F50F735A6807F5146359
S32D0000D638A3F50F739B6807F5996007F045F807F59963184607F058F8FFF79EBA07F59963184607F07DF9FFF7DA
S32D0000D66097BA00BFE51700200000BE4200ED0500C81A0020000070410000F04108ED0500000034420000704278
S32D0000D68810ED050000009642000020430000F0424FF00003C7F81839C84BC7F814394FF00001D7F818093EF036
S32D0000D6B0CDF8034618463EF0ADFB03460022C249C2480BF087F907F59963184607F08EF90446BF49D7F81809F9
S32D0000D6D83EF0B8F8034618463EF098FB034600222146B8480BF0AAF9B849D7F818093EF0A9F8034618463EF0D9
S32D0000D70089FB03460022B449B0480BF063F907F59963184607F077F90446B049D7F818093EF094F8034618466F
S32D0000D7283EF074FB034600222146A6480BF086F9A949D7F818093EF085F8034618463EF065FB03460022A549E1
S32D0000D7509E480BF03FF907F59963184607F061F90446A149D7F818093EF070F8034618463EF050FB03460022A6
S32D0000D778214694480BF062F94FF00001D7F814093EF060F8034618463EF040FB0346002294498C480BF01AF9FE
S32D0000D7A007F59963184607F0F7F804468849D7F814093EF04BF8034618463EF02BFB03460022214681480BF016
S32D0000D7C83DF98249D7F814093EF03CF8034618463EF01CFB0346002283497A480BF0F6F807F59963184607F0C9
S32D0000D7F0E0F804467949D7F814093EF027F8034618463EF007FB0346002221466F480BF019F97349D7F81409D9
S32D0000D8183EF018F8034618463EF0F8FA03460022724968480BF0D2F807F59963184607F0CAF804466A49D7F867
S32D0000D84014093EF003F8034618463EF0E3FA0346002221465D480BF0F5F86749D7F814093DF0F4FF0346184600
S32D0000D8683EF0D4FA03460022624956480BF0AEF807F2C44318460AF0B7F904465E49D7F814093DF0DFFF034608
S32D0000D89018463EF0BFFA0346002221464B480BF0D1F84F4BC7F81039564BC7F80C39D7F80C093EF0AFFA0446B0
S32D0000D8B84F49D7F810093DF0C5FF034618463EF0A5FA034622464E493E480BF07FF807F51463A3F50F731C680C
S32D0000D8E0D7F80C093EF096FA05464549D7F810093DF0ACFF034618463EF08CFA03462A46214632480BF09EF859
S32D0000D908D7F80C093EF082FA04463E49D7F810093DF098FF034618463EF078FA03462246394928480BF052F8B7
S32D0000D93007F51463A3F50F735C68D7F80C093EF069FA05463349D7F810093DF07FFF034618463EF05FFA034632
S32D0000D9582A4621461B480BF071F807F50B6318460CF004FE07F50B6207F698032849184629F0AAFD07F6980315
S32D0000D98007F5E8708B2201924FF400420092144A224903F0B7FA07F69803184629F038FA07F50B6318460CF05C
S32D0000D9A8E7FD07F5E8731E21184603F005FD07F6CC0318460CF0DAFD2EE000BF0000BE421CED0500C81A0020AA
S32D0000D9D0000070410000F04128ED0500000034420000704238ED05000000964248ED050054ED050064ED05002D
S32D0000D9F80000B44274ED05000000D24200003443ECEC05000000F042F8EC05000000074380ED050000007A43A9
S32D0000DA2007F6CC0207F6B4038449184629F050FD07F6B40307F511708B2201924FF6FF7200927F4A7F4903F08B
S32D0000DA485DFA07F6B403184629F0DEF907F6CC0318460CF08DFD07F511731E21184603F0ABFC07F5E87318463B
S32D0000DA7003F030FB07F51173184603F02BFB07F51173184603F07CFC0346002B02D0002387F83F3907F5E87373
S32D0000DA98184603F071FC0346002B05D0012387F83F3967480AF039FF97F83F2907F599631146184606F0CCFFF8
S32D0000DAC0624BC7F80839624BC7F804393223C7F80039FF215C480AF06AFFD7F800093DF065FF0446D7F80009E3
S32D0000DAE83DF060FF034600932346D7F80429D7F8081953480BF072FD07F5926207F2944319464F480BF034F871
S32D0000DB100346002B7CD007F51463A3F2AC431B6818463EF077F9044607F51463A3F596631B6818463EF06EF9ED
S32D0000DB380546D7F808093EF069F90646D7F804093EF064F90146D7F80039D7F80029019200930B4632462946AC
S32D0000DB602046FEF78DFC0346002B56D007F51463A3F2AC431B68D7F8081918463DF064FE03461C46D7F800093F
S32D0000DB883DF010FF0346194620463EF017F8034683F0004207F51463A3F50F731A6007F51463A3F596631B685C
S32D0000DBB0D7F8041918463DF047FE03461C46D7F800093DF0F3FE0346194620463DF0FAFF03461A4607F514639A
S32D0000DBD8A3F50F735A6007F51463A3F50F73196807F51463A3F50F735A6807F51463A3F50F739B6807F5996069
S32D0000DC0006F066FD07F59963184606F079FD04E007F59963184606F09FFE07F511731846FEF79AFC07F5E8734E
S32D0000DC281846FEF795FCFEF7AFBF084B00221A70FEF735BF84ED05000000BE4200007A43C81A00200000204307
S32D0000DC500000F042E5170020B0B582B000AF78603960386800F0A3FC054644200CF0B2FB03461C46294620469A
S32D0000DC7804F07EFA2146786800F0AFFC78680837BD46B0BD90B585B000AF78607B68184600F0B2FCF860FB6806
S32D0000DCA01B68002B0CD0786800F0B7FC0446F86800F0C0FC03461B681946204600F0C4FCFB6800221A607B68D0
S32D0000DCC818461437BD4690BD80B584B000AFF860B9607A60FB68B9687A68184600F0D8FCFB6818461037BD463F
S32D0000DCF080BDB0B582B000AF786039607C68386800F0B3FC0546386800F087FC0346184600F0B8FC03461A469D
S32D0000DD1829462046FFF7D8FF7B6818460837BD46B0BD90B585B000AF78607B68184600F0C5FCF860FB681B681A
S32D0000DD40002B0CD0786800F0CAFC0446F86800F0D3FC03461B681946204600F0D7FCFB6800221A607B6818461B
S32D0000DD681437BD4690BDB0B582B000AF78603960386800F0D8FC054640200CF027FB03461C462946204605F099
S32D0000DD90A5F92146786800F0E4FC78680837BD46B0BD90B585B000AF78607B68184600F0E7FCF860FB681B68CE
S32D0000DDB8002B0CD0786800F0ECFC0446F86800F0F5FC03461B681946204600F0F9FCFB6800221A607B6818463D
S32D0000DDE01437BD4690BD80B584B000AFF860B9607A60FB68B9687A68184600F00DFDFB6818461037BD4680BD11
S32D0000DE08B0B582B000AF786039607C68386800F0E8FC0546386800F0BCFC0346184600F0EDFC03461A462946B2
S32D0000DE302046FFF7D8FF7B6818460837BD46B0BDB0B582B000AF78603960386800F06FFC054640200CF0BEFA90
S32D0000DE5803461C462946204604F030FF2146786800F0FCFC78680837BD46B0BD90B585B000AF78607B681846F9
S32D0000DE8000F0FFFCF860FB681B68002B0CD0786800F004FD0446F86800F00DFD03461B681946204600F011FD40
S32D0000DEA8FB6800221A607B6818461437BD4690BD80B584B000AFF860B9607A60FB68B9687A68184600F025FD38
S32D0000DED0FB6818461037BD4680BDB0B582B000AF786039607C68386800F000FD0546386800F0D4FC0346184662
S32D0000DEF800F005FD03461A4629462046FFF7D8FF7B6818460837BD46B0BDB0B582B000AF78603960386800F088
S32D0000DF2006FC054640200CF055FA03461C462946204604F09FFD2146786800F014FD78680837BD46B0BD90B5AF
S32D0000DF4885B000AF78607B68184600F017FDF860FB681B68002B0CD0786800F01CFD0446F86800F025FD034677
S32D0000DF701B681946204600F029FDFB6800221A607B6818461437BD4690BD80B584B000AFF860B9607A60FB6884
S32D0000DF98B9687A68184600F03DFDFB6818461037BD4680BDB0B582B000AF786039607C68386800F018FD0546FD
S32D0000DFC0386800F0ECFC0346184600F01DFD03461A4629462046FFF7D8FF7B6818460837BD46B0BDB0B582B038
S32D0000DFE800AF78603960386800F09DFB054640200CF0ECF903461C462946204605F076F92146786800F02CFDF3
S32D0000E01078680837BD46B0BD90B585B000AF78607B68184600F02FFDF860FB681B68002B0CD0786800F034FDAF
S32D0000E0380446F86800F03DFD03461B681946204600F041FDFB6800221A607B6818461437BD4690BD80B584B0E3
S32D0000E06000AFF860B9607A60FB68B9687A68184600F055FDFB6818461037BD4680BDB0B582B000AF7860396093
S32D0000E0887C68386800F030FD0546386800F004FD0346184600F035FD03461A4629462046FFF7D8FF7B68184698
S32D0000E0B00837BD46B0BDB0B582B000AF78603960386800F034FB054640200CF083F903461C462946204604F086
S32D0000E0D89FFB2146786800F044FD78680837BD46B0BD90B585B000AF78607B68184600F047FDF860FB681B68C5
S32D0000E100002B0CD0786800F04CFD0446F86800F055FD03461B681946204600F059FDFB6800221A607B681846CE
S32D0000E1281437BD4690BD80B584B000AFF860B9607A60FB68B9687A68184600F06DFDFB6818461037BD4680BD65
S32D0000E150B0B582B000AF786039607C68386800F048FD0546386800F01CFD0346184600F04DFD03461A46294644
S32D0000E1782046FFF7D8FF7B6818460837BD46B0BDB0B582B000AF78603960386800F0CBFA054640200CF01AF990
S32D0000E1A003461C462946204603F0BAFB2146786800F05CFD78680837BD46B0BD90B585B000AF78607B681846C8
S32D0000E1C800F05FFDF860FB681B68002B0CD0786800F064FD0446F86800F06DFD03461B681946204600F071FD74
S32D0000E1F0FB6800221A607B6818461437BD4690BD80B584B000AFF860B9607A60FB68B9687A68184600F085FD8D
S32D0000E218FB6818461037BD4680BDB0B582B000AF786039607C68386800F060FD0546386800F034FD0346184655
S32D0000E24000F065FD03461A4629462046FFF7D8FF7B6818460837BD46B0BDF0B585B000AFF860B9607A60B8682F
S32D0000E26800F061FA0546786800F09DF9064644200CF0ACF803461C4632462946204604F00DF92146F86800F093
S32D0000E2906EFDF8681437BD46F0BD90B585B000AF78607B68184600F071FDF860FB681B68002B0CD0786800F0E5
S32D0000E2B876FD0446F86800F07FFD03461B681946204600F083FDFB6800221A607B6818461437BD4690BD80B59E
S32D0000E2E084B000AFF860B9607A60FB68B9687A68184600F097FDFB6818461037BD4680BDB0B582B000AF786034
S32D0000E30839607C68386800F072FD0546386800F046FD0346184600F077FD03461A4629462046FFF7D8FF7B6814
S32D0000E33018460837BD46B0BDB0B582B000AF78603960386800F0F3F9054640200CF042F803461C46294620461E
S32D0000E35803F008FE2146786800F086FD78680837BD46B0BD90B585B000AF78607B68184600F089FDF860FB68E2
S32D0000E3801B68002B0CD0786800F08EFD0446F86800F097FD03461B681946204600F09BFDFB6800221A607B6861
S32D0000E3A818461437BD4690BD80B584B000AFF860B9607A60FB68B9687A68184600F0AFFDFB6818461037BD4680
S32D0000E3D080BDB0B582B000AF786039607C68386800F08AFD0546386800F05EFD0346184600F08FFD03461A462E
S32D0000E3F829462046FFF7D8FF7B6818460837BD46B0BDB0B582B000AF78603960386800F08AF9054640200BF0F5
S32D0000E420D9FF03461C462946204604F051FD2146786800F09EFD78680837BD46B0BD90B585B000AF78607B68EF
S32D0000E448184600F0A1FDF860FB681B68002B0CD0786800F0A6FD0446F86800F0AFFD03461B681946204600F03B
S32D0000E470B3FDFB6800221A607B6818461437BD4690BD80B584B000AFF860B9607A60FB68B9687A68184600F0DC
S32D0000E498C7FDFB6818461037BD4680BDB0B582B000AF786039607C68386800F0A2FD0546386800F076FD0346E9
S32D0000E4C0184600F0A7FD03461A4629462046FFF7D8FF7B6818460837BD46B0BDB0B582B000AF786039603868AA
S32D0000E4E800F021F9054640200BF070FF03461C462946204603F00EFC2146786800F0B6FD78680837BD46B0BDF1
S32D0000E51090B585B000AF78607B68184600F0B9FDF860FB681B68002B0CD0786800F0BEFD0446F86800F0C7FDC7
S32D0000E53803461B681946204600F0CBFDFB6800221A607B6818461437BD4690BD80B584B000AFF860B9607A602E
S32D0000E560FB68B9687A68184600F0DFFDFB6818461037BD4680BDB0B582B000AF786039607C68386800F0BAFDD3
S32D0000E5880546386800F08EFD0346184600F0BFFD03461A4629462046FFF7D8FF7B6818460837BD46B0BD80B43D
S32D0000E5B083B000AF78607B6818460C37BD4680BC704780B582B000AF786039607B683A681146184600F0BFFD9C
S32D0000E5D87B6818460837BD4680BD80B582B000AF786039607B6839681846FFF7E6FF7B6818460837BD4680BD51
S32D0000E60080B582B000AF78607B68184600F0B7FD034618460837BD4680BD80B582B000AF78607B68184600F0D4
S32D0000E628B7FD034618460837BD4680BD80B483B000AF78607B6818460C37BD4680BC704780B582B000AF786094
S32D0000E65039603B68002B04D01A68183212681846904700BF0837BD4680BD80B582B000AF78607B68184600F089
S32D0000E6789CFD034618460837BD4680BD80B483B000AF78607B6818460C37BD4680BC704790B585B000AFF860CC
S32D0000E6A0B9607A60FC687868FFF7ECFF024607F108031946204600F091FDFB6818461437BD4690BD80B582B0E3
S32D0000E6C800AF78607B68184600F09DFD034618460837BD4680BD80B582B000AF78607B68184600F09DFD0346AA
S32D0000E6F018460837BD4680BD80B483B000AF78607B6818460C37BD4680BC704780B582B000AF786039603B688D
S32D0000E718002B04D01A68183212681846904700BF0837BD4680BD80B483B000AF78607B6818460C37BD4680BC6A
S32D0000E740704780B582B000AF786039607B683A681146184600F082FD7B6818460837BD4680BD80B582B000AFEE
S32D0000E768786039607B6839681846FFF7E6FF7B6818460837BD4680BD80B582B000AF78607B68184600F07AFDFF
S32D0000E790034618460837BD4680BD80B582B000AF78607B68184600F07AFD034618460837BD4680BD80B483B012
S32D0000E7B800AF78607B6818460C37BD4680BC704780B582B000AF786039603B68002B04D01A6818321268184665
S32D0000E7E0904700BF0837BD4680BD80B582B000AF78607B68184600F05FFD034618460837BD4680BD80B483B0EE
S32D0000E80800AF78607B6818460C37BD4680BC704790B585B000AFF860B9607A60FC687868FFF7ECFF024607F108
S32D0000E83008031946204600F054FDFB6818461437BD4690BD80B582B000AF786039607B683A681146184600F09C
S32D0000E8585DFD7B6818460837BD4680BD80B582B000AF786039607B6839681846FFF7E6FF7B6818460837BD46B1
S32D0000E88080BD80B582B000AF78607B68184600F055FD034618460837BD4680BD80B582B000AF78607B68184667
S32D0000E8A800F055FD034618460837BD4680BD80B483B000AF78607B6818460C37BD4680BC704780B582B000AF5C
S32D0000E8D0786039603B68002B04D01A68183212681846904700BF0837BD4680BD80B582B000AF78607B6818461F
S32D0000E8F800F03AFD034618460837BD4680BD80B483B000AF78607B6818460C37BD4680BC704790B585B000AF14
S32D0000E920F860B9607A60FC687868FFF7ECFF024607F108031946204600F02FFDFB6818461437BD4690BD80B59C
S32D0000E94882B000AF786039607B683A681146184600F038FD7B6818460837BD4680BD80B582B000AF78603960A9
S32D0000E9707B6839681846FFF7E6FF7B6818460837BD4680BD80B582B000AF78607B68184600F030FD0346184609
S32D0000E9980837BD4680BD80B582B000AF78607B68184600F030FD034618460837BD4680BD80B483B000AF786072
S32D0000E9C07B6818460C37BD4680BC704780B582B000AF786039603B68002B04D01A68183212681846904700BF4C
S32D0000E9E80837BD4680BD80B582B000AF78607B68184600F015FD034618460837BD4680BD80B483B000AF78603D
S32D0000EA107B6818460C37BD4680BC704790B585B000AFF860B9607A60FC687868FFF7ECFF024607F1080319461B
S32D0000EA38204600F00AFDFB6818461437BD4690BD80B582B000AF786039607B683A681146184600F013FD7B6853
S32D0000EA6018460837BD4680BD80B582B000AF786039607B6839681846FFF7E6FF7B6818460837BD4680BD80B572
S32D0000EA8882B000AF78607B68184600F00BFD034618460837BD4680BD80B582B000AF78607B68184600F00BFD21
S32D0000EAB0034618460837BD4680BD80B483B000AF78607B6818460C37BD4680BC704780B582B000AF7860396023
S32D0000EAD83B68002B04D01A68183212681846904700BF0837BD4680BD80B582B000AF78607B68184600F0F0FCAA
S32D0000EB00034618460837BD4680BD80B483B000AF78607B6818460C37BD4680BC704790B585B000AFF860B960BF
S32D0000EB287A60FC687868FFF7ECFF024607F108031946204600F0E5FCFB6818461437BD4690BD80B582B000AF6D
S32D0000EB50786039607B683A681146184600F0EEFC7B6818460837BD4680BD80B582B000AF786039607B68396847
S32D0000EB781846FFF7E6FF7B6818460837BD4680BD80B582B000AF78607B68184600F0E6FC034618460837BD468C
S32D0000EBA080BD80B582B000AF78607B68184600F0E6FC034618460837BD4680BD80B483B000AF78607B681846B4
S32D0000EBC80C37BD4680BC704780B582B000AF786039603B68002B04D01A68183212681846904700BF0837BD4641
S32D0000EBF080BD80B582B000AF78607B68184600F0CBFC034618460837BD4680BD80B483B000AF78607B6818467F
S32D0000EC180C37BD4680BC704790B585B000AFF860B9607A60FC687868FFF7ECFF024607F108031946204600F0FC
S32D0000EC40C0FCFB6818461437BD4690BD80B582B000AF786039607B683A681146184600F0C9FC7B681846083798
S32D0000EC68BD4680BD80B582B000AF786039607B6839681846FFF7E6FF7B6818460837BD4680BD80B582B000AF24
S32D0000EC9078607B68184600F0C1FC034618460837BD4680BD80B582B000AF78607B68184600F0C1FC03461846E7
S32D0000ECB80837BD4680BD80B483B000AF78607B6818460C37BD4680BC704780B582B000AF786039603B68002BF2
S32D0000ECE004D01A68183212681846904700BF0837BD4680BD80B582B000AF78607B68184600F0A6FC0346184611
S32D0000ED080837BD4680BD80B483B000AF78607B6818460C37BD4680BC704790B585B000AFF860B9607A60FC681E
S32D0000ED307868FFF7ECFF024607F108031946204600F09BFCFB6818461437BD4690BD80B582B000AF786039607A
S32D0000ED587B683A681146184600F0A4FC7B6818460837BD4680BD80B582B000AF786039607B6839681846FFF7A4
S32D0000ED80E6FF7B6818460837BD4680BD80B582B000AF78607B68184600F09CFC034618460837BD4680BD80B5AE
S32D0000EDA882B000AF78607B68184600F09CFC034618460837BD4680BD80B483B000AF78607B6818460C37BD4620
S32D0000EDD080BC704780B582B000AF786039603B68002B04D01A68183212681846904700BF0837BD4680BD80B50B
S32D0000EDF882B000AF78607B68184600F081FC034618460837BD4680BD80B483B000AF78607B6818460C37BD46EB
S32D0000EE2080BC704790B585B000AFF860B9607A60FC687868FFF7ECFF024607F108031946204600F076FCFB6863
S32D0000EE4818461437BD4690BD80B582B000AF786039607B683A681146184600F07FFC7B6818460837BD4680BDB7
S32D0000EE7080B582B000AF786039607B6839681846FFF7E6FF7B6818460837BD4680BD80B582B000AF78607B689F
S32D0000EE98184600F077FC034618460837BD4680BD80B582B000AF78607B68184600F077FC034618460837BD46EA
S32D0000EEC080BD80B483B000AF78607B6818460C37BD4680BC704780B582B000AF786039603B68002B04D01A68D4
S32D0000EEE8183212681846904700BF0837BD4680BD80B582B000AF78607B68184600F05CFC034618460837BD4665
S32D0000EF1080BD80B483B000AF78607B6818460C37BD4680BC704790B585B000AFF860B9607A60FC687868FFF780
S32D0000EF38ECFF024607F108031946204600F051FCFB6818461437BD4690BD80B582B000AF786039607B683A680B
S32D0000EF601146184600F05AFC7B6818460837BD4680BD80B582B000AF786039607B6839681846FFF7E6FF7B68A1
S32D0000EF8818460837BD4680BD80B582B000AF78607B68184600F052FC034618460837BD4680BD80B582B000AFD5
S32D0000EFB078607B68184600F052FC034618460837BD4680BD80B483B000AF78607B6818460C37BD4680BC70474E
S32D0000EFD880B582B000AF786039603B68002B04D01A68183212681846904700BF0837BD4680BD80B582B000AF13
S32D0000F00078607B68184600F037FC034618460837BD4680BD80B483B000AF78607B6818460C37BD4680BC704718
S32D0000F02890B585B000AFF860B9607A60FC687868FFF7ECFF024607F108031946204600F02CFCFB6818461437ED
S32D0000F050BD4690BD80B582B000AF786039607B683A681146184600F035FC7B6818460837BD4680BD80B582B039
S32D0000F07800AF786039607B6839681846FFF7E6FF7B6818460837BD4680BD80B582B000AF78607B68184600F0AE
S32D0000F0A02DFC034618460837BD4680BD80B582B000AF78607B68184600F02DFC034618460837BD4680BD80B451
S32D0000F0C883B000AF78607B6818460C37BD4680BC704780B582B000AF786039603B68002B04D01A681832126877
S32D0000F0F01846904700BF0837BD4680BD80B582B000AF78607B68184600F012FC034618460837BD4680BD80B4F8
S32D0000F11883B000AF78607B6818460C37BD4680BC704790B585B000AFF860B9607A60FC687868FFF7ECFF0246B4
S32D0000F14007F108031946204600F007FCFB6818461437BD4690BD80B582B000AF786039607B68184600F012FCC4
S32D0000F1687868FFF749FA02463B6813607B6818460837BD4680BD80B582B000AF78607B68184600F019FC0346C5
S32D0000F19018460837BD4680BD80B582B000AF78607B68184600F018FC034618460837BD4680BD80B584B000AF03
S32D0000F1B878607868FFF720FA03461B68FB607868FFF71AFA034600221A60FB6818461037BD4680BDB0B584B08A
S32D0000F1E000AFF860B9607A60FC68B86800F000FC05467868FFF746FA03461A462946204600F000FCFB6818460B
S32D0000F2081037BD46B0BD80B582B000AF78607B68184600F00FFC034618460837BD4680BD80B582B000AF7860E3
S32D0000F2307B68184600F00EFC034618460837BD4680BD80B582B000AF78607B68184600F00DFC03461846083741
S32D0000F258BD4680BD80B582B000AF786039607B68184600F015FC7868FFF786FA02463B6813607B68184608374B
S32D0000F280BD4680BD80B582B000AF78607B68184600F01CFC034618460837BD4680BD80B582B000AF78607B68F2
S32D0000F2A8184600F01BFC034618460837BD4680BD80B584B000AF78607868FFF75DFA03461B68FB607868FFF793
S32D0000F2D057FA034600221A60FB6818461037BD4680BDB0B584B000AFF860B9607A60FC68B86800F07DFB0546C8
S32D0000F2F87868FFF783FA03461A462946204600F0F9FBFB6818461037BD46B0BD80B582B000AF786039607B6851
S32D0000F320184600F007FC7868FFF7ABFA02463B6813607B6818460837BD4680BD80B582B000AF78607B681846A6
S32D0000F34800F00EFC034618460837BD4680BD80B582B000AF78607B68184600F00DFC034618460837BD4680BD29
S32D0000F37080B584B000AF78607868FFF782FA03461B68FB607868FFF77CFA034600221A60FB6818461037BD46CA
S32D0000F39880BDB0B584B000AFF860B9607A60FC68B86800F021FB05467868FFF7A8FA03461A462946204600F0B6
S32D0000F3C0EBFBFB6818461037BD46B0BD80B582B000AF786039607B68184600F0F9FB7868FFF7D0FA02463B688A
S32D0000F3E813607B6818460837BD4680BD80B582B000AF78607B68184600F000FC034618460837BD4680BD80B54E
S32D0000F41082B000AF78607B68184600F0FFFB034618460837BD4680BD80B584B000AF78607868FFF7A7FA034614
S32D0000F4381B68FB607868FFF7A1FA034600221A60FB6818461037BD4680BDB0B584B000AFF860B9607A60FC6833
S32D0000F460B86800F0C5FA05467868FFF7CDFA03461A462946204600F0DDFBFB6818461037BD46B0BD80B582B0A2
S32D0000F48800AF786039607B68184600F0EBFB7868FFF7F5FA02463B6813607B6818460837BD4680BD80B582B0D5
S32D0000F4B000AF78607B68184600F0F2FB034618460837BD4680BD80B582B000AF78607B68184600F0F1FB03460F
S32D0000F4D818460837BD4680BD80B584B000AF78607868FFF7CCFA03461B68FB607868FFF7C6FA034600221A60FB
S32D0000F500FB6818461037BD4680BDB0B584B000AFF860B9607A60FC68B86800F069FA05467868FFF7F2FA0346D5
S32D0000F5281A462946204600F0CFFBFB6818461037BD46B0BD80B582B000AF786039607B68184600F0DDFB7868DE
S32D0000F550FFF71AFB02463B6813607B6818460837BD4680BD80B582B000AF78607B68184600F0E4FB03461846BF
S32D0000F5780837BD4680BD80B582B000AF78607B68184600F0E3FB034618460837BD4680BD80B584B000AF7860D3
S32D0000F5A07868FFF7F1FA03461B68FB607868FFF7EBFA034600221A60FB6818461037BD4680BDB0B584B000AF25
S32D0000F5C8F860B9607A60FC68B86800F00DFA05467868FFF717FB03461A462946204600F0C1FBFB6818461037EA
S32D0000F5F0BD46B0BD80B582B000AF786039607B68184600F0CFFB7868FFF73FFB02463B6813607B68184608370D
S32D0000F618BD4680BD80B582B000AF78607B68184600F0D6FB034618460837BD4680BD80B582B000AF78607B689D
S32D0000F640184600F0D5FB034618460837BD4680BD80B584B000AF78607868FFF716FB03461B68FB607868FFF784
S32D0000F66810FB034600221A60FB6818461037BD4680BDB0B584B000AFF860B9607A60FC68B86800F0B1F9054640
S32D0000F6907868FFF73CFB03461A462946204600F0B3FBFB6818461037BD46B0BD80B582B000AF786039607B6841
S32D0000F6B8184600F0C1FB7868FFF764FB02463B6813607B6818460837BD4680BD80B582B000AF78607B68184698
S32D0000F6E000F0C8FB034618460837BD4680BD80B582B000AF78607B68184600F0C7FB034618460837BD4680BD1C
S32D0000F70880B584B000AF78607868FFF73BFB03461B68FB607868FFF735FB034600221A60FB6818461037BD46BA
S32D0000F73080BDB0B584B000AFF860B9607A60FC68B86800F055F905467868FFF761FB03461A462946204600F02E
S32D0000F758A5FBFB6818461037BD46B0BD80B582B000AF786039607B68184600F0B3FB7868FFF789FB02463B68C0
S32D0000F78013607B6818460837BD4680BD80B582B000AF78607B68184600F0BAFB034618460837BD4680BD80B5F9
S32D0000F7A882B000AF78607B68184600F0B9FB034618460837BD4680BD80B584B000AF78607868FFF760FB034605
S32D0000F7D01B68FB607868FFF75AFB034600221A60FB6818461037BD4680BDB0B584B000AFF860B9607A60FC68DE
S32D0000F7F8B86800F0F9F805467868FFF786FB03461A462946204600F097FBFB6818461037BD46B0BD80B582B061
S32D0000F82000AF786039607B68184600F0A5FB7868FFF7AEFB02463B6813607B6818460837BD4680BD80B582B0C5
S32D0000F84800AF78607B68184600F0ACFB034618460837BD4680BD80B582B000AF78607B68184600F0ABFB0346FF
S32D0000F87018460837BD4680BD80B584B000AF78607868FFF785FB03461B68FB607868FFF77FFB034600221A60EB
S32D0000F898FB6818461037BD4680BDB0B584B000AFF860B9607A60FC68B86800F09DF805467868FFF7ABFB03464E
S32D0000F8C01A462946204600F089FBFB6818461037BD46B0BD80B582B000AF786039607B68184600F097FB7868CF
S32D0000F8E8FFF7D3FB02463B6813607B6818460837BD4680BD80B582B000AF78607B68184600F09EFB03461846B1
S32D0000F9100837BD4680BD80B582B000AF78607B68184600F09DFB034618460837BD4680BD80B584B000AF78607D
S32D0000F9387868FFF7AAFB03461B68FB607868FFF7A4FB034600221A60FB6818461037BD4680BDB0B584B000AF15
S32D0000F960F860B9607A60FC68B86800F041F805467868FFF7D0FB03461A462946204600F07BFBFB6818461037A9
S32D0000F988BD46B0BD80B582B000AF78607B68184600F08AFB7B6818460837BD4680BD80B582B000AF78607B68AC
S32D0000F9B0184600F08DFB034618460837BD4680BD80B582B000AF78607868FFF7ECFF034618460837BD4680BD58
S32D0000F9D880B582B000AF7860786800F08BFB034618460837BD4680BD80B483B000AF78607B6818460C37BD4622
S32D0000FA0080BC704790B585B000AFF860B9607A607868FEF737FE03461946F86800F07AFBFC68B868FFF7E4FF9D
S32D0000FA2803461946204600F083FBFB6818461437BD4690BD80B582B000AF78607868FFF7FCFB03461846083737
S32D0000FA50BD4680BD80B582B000AF7860786800F07CFB034618460837BD4680BD80B483B000AF78607B681846BE
S32D0000FA780C37BD4680BC704780B582B000AF7860786800F072FB034618460837BD4680BD80B582B000AF7860E8
S32D0000FAA07B68184600F06FFB7B6818460837BD4680BD80B582B000AF78607B68184600F072FB0346184608376B
S32D0000FAC8BD4680BD80B582B000AF78607868FFF7ECFF034618460837BD4680BD80B582B000AF7860786800F03D
S32D0000FAF070FB034618460837BD4680BD90B585B000AFF860B9607A607868FEF77BFE03461946F86800F069FB39
S32D0000FB18FC68B868FFF768FF03461946204600F007FBFB6818461437BD4690BD80B582B000AF78607B68184653
S32D0000FB4000F065FB7B6818460837BD4680BD80B582B000AF78607B68184600F068FB034618460837BD4680BDDF
S32D0000FB6880B582B000AF78607868FFF7ECFF034618460837BD4680BD80B582B000AF7860786800F066FB034632
S32D0000FB9018460837BD4680BD90B585B000AFF860B9607A607868FEF7AEFE03461946F86800F05FFBFC68B8689F
S32D0000FBB8FFF71AFF03461946204600F0B9FAFB6818461437BD4690BD80B582B000AF78607B68184600F05BFB8E
S32D0000FBE07B6818460837BD4680BD80B582B000AF78607B68184600F05EFB034618460837BD4680BD80B582B032
S32D0000FC0800AF78607868FFF7ECFF034618460837BD4680BD80B582B000AF7860786800F05CFB03461846083765
S32D0000FC30BD4680BD90B585B000AFF860B9607A607868FEF7E1FE03461946F86800F055FBFC68B868FFF7CCFEB2
S32D0000FC5803461946204600F06BFAFB6818461437BD4690BD80B582B000AF78607B68184600F051FB7B68184613
S32D0000FC800837BD4680BD80B582B000AF78607B68184600F054FB034618460837BD4680BD80B582B000AF786055
S32D0000FCA87868FFF7ECFF034618460837BD4680BD80B582B000AF7860786800F052FB034618460837BD4680BD16
S32D0000FCD090B585B000AFF860B9607A607868FEF714FF03461946F86800F04BFBFC68B868FFF77EFE03461946CE
S32D0000FCF8204600F01DFAFB6818461437BD4690BD80B582B000AF78607B68184600F047FB7B6818460837BD4631
S32D0000FD2080BD80B582B000AF78607B68184600F04AFB034618460837BD4680BD80B582B000AF78607868FFF72A
S32D0000FD48ECFF034618460837BD4680BD80B582B000AF7860786800F048FB034618460837BD4680BD90B585B0DB
S32D0000FD7000AFF860B9607A607868FEF747FF03461946F86800F041FBFC68B868FFF730FE03461946204600F076
S32D0000FD98CFF9FB6818461437BD4690BD80B582B000AF78607B68184600F03DFB7B6818460837BD4680BD80B5CD
S32D0000FDC082B000AF78607B68184600F040FB034618460837BD4680BD80B582B000AF78607868FFF7ECFF0346D2
S32D0000FDE818460837BD4680BD80B582B000AF7860786800F03EFB034618460837BD4680BD90B585B000AFF86072
S32D0000FE10B9607A607868FEF77AFF03461946F86800F037FBFC68B868FFF7E2FD03461946204600F081F9FB6825
S32D0000FE3818461437BD4690BD80B582B000AF78607B68184600F033FB7B6818460837BD4680BD80B582B000AF80
S32D0000FE6078607B68184600F036FB034618460837BD4680BD80B582B000AF78607868FFF7ECFF0346184608377F
S32D0000FE88BD4680BD80B582B000AF7860786800F034FB034618460837BD4680BD90B585B000AFF860B9607A6085
S32D0000FEB07868FEF7ADFF03461946F86800F02DFBFC68B868FFF794FD03461946204600F033F9FB681846143742
S32D0000FED8BD4690BD80B582B000AF78607B68184600F029FB7B6818460837BD4680BD80B582B000AF78607B68D8
S32D0000FF00184600F02CFB034618460837BD4680BD80B582B000AF78607868FFF7ECFF034618460837BD4680BD63
S32D0000FF2880B582B000AF7860786800F02AFB034618460837BD4680BD90B585B000AFF860B9607A607868FEF759
S32D0000FF50E0FF03461946F86800F023FBFC68B868FFF746FD03461946204600F0E5F8FB6818461437BD4690BD9A
S32D0000FF7880B582B000AF78607B68184600F01FFB7B6818460837BD4680BD80B582B000AF78607B68184600F043
S32D0000FFA022FB034618460837BD4680BD80B582B000AF78607868FFF7ECFF034618460837BD4680BD80B582B0B4
S32D0000FFC800AF7860786800F020FB034618460837BD4680BD90B585B000AFF860B9607A607868FFF713F80346D5
S32D0000FFF01946F86800F019FBFC68B868FFF7F8FC03461946204600F097F8FB6818461437BD4690BD80B582B062
S32D0001001800AF78607B68184600F015FB7B6818460837BD4680BD80B582B000AF78607B68184600F018FB0346B6
S32D0001004018460837BD4680BD80B582B000AF78607868FFF7ECFF034618460837BD4680BD80B582B000AF7860F1
S32D00010068786800F016FB034618460837BD4680BD90B585B000AFF860B9607A607868FFF746F803461946F868D2
S32D0001009000F00FFBFC68B868FFF7AAFC03461946204600F049F8FB6818461437BD4690BD80B582B000AF78609E
S32D000100B8786800F00CFB7B68184600F014FB7B6818460837BD4680BD80B483B000AF78607B6818460C37BD46CD
S32D000100E080BC704780B582B000AF7860786800F00BFB034618460837BD4680BD80B582B000AF78607868FFF750
S32D00010108EDFF034618460837BD4680BD80B582B000AF786039603868FEF7B0FA03461946786800F0F7FA7B68A4
S32D0001013018460837BD4680BD80B582B000AF786039603868FFF754FC03461A687B681A607B6818460837BD46AB
S32D0001015880BD80B582B000AF78607868FFF78CFC034618460837BD4680BD80B483B000AF78607B6818460C3757
S32D00010180BD4680BC704780B582B000AF7860786800F0D6FA7B68184600F0DEFA7B6818460837BD4680BD80B4CF
S32D000101A883B000AF78607B6818460C37BD4680BC704780B582B000AF7860786800F0D5FA034618460837BD467E
S32D000101D080BD80B582B000AF78607868FFF7EDFF034618460837BD4680BD80B582B000AF786039603868FEF7D1
S32D000101F805FB03461946786800F0C1FA7B6818460837BD4680BD80B582B000AF7860786800F0C7FA7B68184625
S32D0001022000F0CFFA7B6818460837BD4680BD80B483B000AF78607B6818460C37BD4680BC704780B582B000AFB8
S32D000102487860786800F0C6FA034618460837BD4680BD80B582B000AF78607868FFF7EDFF034618460837BD4660
S32D0001027080BD80B582B000AF786039603868FEF742FB03461946786800F0B2FA7B6818460837BD4680BD80B5B0
S32D0001029882B000AF7860786800F0B8FA7B68184600F0C0FA7B6818460837BD4680BD80B483B000AF78607B6880
S32D000102C018460C37BD4680BC704780B582B000AF7860786800F0B7FA034618460837BD4680BD80B582B000AFCD
S32D000102E878607868FFF7EDFF034618460837BD4680BD80B582B000AF786039603868FEF77FFB03461946786809
S32D0001031000F0A3FA7B6818460837BD4680BD80B582B000AF7860786800F0A9FA7B68184600F0B1FA7B681846F3
S32D000103380837BD4680BD80B483B000AF78607B6818460C37BD4680BC704780B582B000AF7860786800F0A8FA4F
S32D00010360034618460837BD4680BD80B582B000AF78607868FFF7EDFF034618460837BD4680BD80B582B000AF5C
S32D00010388786039603868FEF7BCFB03461946786800F094FA7B6818460837BD4680BD80B582B000AF78607868F5
S32D000103B000F09AFA7B68184600F0A2FA7B6818460837BD4680BD80B483B000AF78607B6818460C37BD4680BC5C
S32D000103D8704780B582B000AF7860786800F099FA034618460837BD4680BD80B582B000AF78607868FFF7EDFF18
S32D00010400034618460837BD4680BD80B582B000AF786039603868FEF7F9FB03461946786800F085FA7B6818465F
S32D000104280837BD4680BD80B582B000AF7860786800F08BFA7B68184600F093FA7B6818460837BD4680BD80B431
S32D0001045083B000AF78607B6818460C37BD4680BC704780B582B000AF7860786800F08AFA034618460837BD461E
S32D0001047880BD80B582B000AF78607868FFF7EDFF034618460837BD4680BD80B582B000AF786039603868FEF726
S32D000104A036FC03461946786800F076FA7B6818460837BD4680BD80B582B000AF7860786800F07CFA7B681846DE
S32D000104C800F084FA7B6818460837BD4680BD80B483B000AF78607B6818460C37BD4680BC704780B582B000AF59
S32D000104F07860786800F07BFA034618460837BD4680BD80B582B000AF78607868FFF7EDFF034618460837BD4601
S32D0001051880BD80B582B000AF786039603868FEF773FC03461946786800F067FA7B6818460837BD4680BD80B51E
S32D0001054082B000AF7860786800F06DFA7B68184600F075FA7B6818460837BD4680BD80B483B000AF78607B686B
S32D0001056818460C37BD4680BC704780B582B000AF7860786800F06CFA034618460837BD4680BD80B582B000AF6D
S32D0001059078607868FFF7EDFF034618460837BD4680BD80B582B000AF786039603868FEF7B0FC0346194678682C
S32D000105B800F058FA7B6818460837BD4680BD80B582B000AF7860786800F05EFA7B68184600F066FA7B6818462A
S32D000105E00837BD4680BD80B483B000AF78607B6818460C37BD4680BC704780B582B000AF7860786800F05DFAF0
S32D00010608034618460837BD4680BD80B582B000AF78607868FFF7EDFF034618460837BD4680BD80B582B000AFB1
S32D00010630786039603868FEF7EDFC03461946786800F049FA7B6818460837BD4680BD80B582B000AF7860786863
S32D0001065800F04FFA7B68184600F057FA7B6818460837BD4680BD80B483B000AF78607B6818460C37BD4680BC47
S32D00010680704780B582B000AF7860786800F04EFA034618460837BD4680BD80B582B000AF78607868FFF7EDFFB8
S32D000106A8034618460837BD4680BD80B582B000AF786039603868FEF72AFD03461946786800F03AFA7B681846CD
S32D000106D00837BD4680BD80B582B000AF7860786800F040FA7B6818460837BD4680BD80B483B000AF78607B68F3
S32D000106F800221A607B6818460C37BD4680BC704780B483B000AF78607B6818460C37BD4680BC704780B582B0EE
S32D0001072000AF786039603868FDF7ACFF03461946786800F021FA7B6818460837BD4680BD80B582B000AF78600A
S32D00010748786800F020FA7B6818460837BD4680BD80B483B000AF78607B6800221A607B6818460C37BD4680BCA8
S32D00010770704780B483B000AF78607B6818460C37BD4680BC704780B582B000AF786039603868FEF737F80346A7
S32D000107981946786800F001FA7B6818460837BD4680BD80B582B000AF7860786800F000FA7B6818460837BD460D
S32D000107C080BD80B483B000AF78607B6800221A607B6818460C37BD4680BC704780B483B000AF78607B681846B7
S32D000107E80C37BD4680BC704780B582B000AF786039603868FEF783F803461946786800F0E1F97B681846083740
S32D00010810BD4680BD80B582B000AF7860786800F0E0F97B6818460837BD4680BD80B483B000AF78607B6800222F
S32D000108381A607B6818460C37BD4680BC704780B483B000AF78607B6818460C37BD4680BC704780B582B000AF1F
S32D00010860786039603868FEF7CFF803461946786800F0C1F97B6818460837BD4680BD80B582B000AF78607868DC
S32D0001088800F0C0F97B6818460837BD4680BD80B483B000AF78607B6800221A607B6818460C37BD4680BC7047F1
S32D000108B080B483B000AF78607B6818460C37BD4680BC704780B582B000AF786039603868FEF71BF903461946D9
S32D000108D8786800F0A1F97B6818460837BD4680BD80B582B000AF7860786800F0A0F97B6818460837BD4680BDB0
S32D0001090080B483B000AF78607B6800221A607B6818460C37BD4680BC704780B483B000AF78607B6818460C376F
S32D00010928BD4680BC704780B582B000AF786039603868FEF767F903461946786800F081F97B6818460837BD46B9
S32D0001095080BD80B582B000AF7860786800F080F97B6818460837BD4680BD80B483B000AF78607B6800221A60D7
S32D000109787B6818460C37BD4680BC704780B483B000AF78607B6818460C37BD4680BC704780B582B000AF786080
S32D000109A039603868FEF7B3F903461946786800F061F97B6818460837BD4680BD80B582B000AF7860786800F0FE
S32D000109C860F97B6818460837BD4680BD80B483B000AF78607B6800221A607B6818460C37BD4680BC704780B4CC
S32D000109F083B000AF78607B6818460C37BD4680BC704780B582B000AF786039603868FEF7FFF903461946786808
S32D00010A1800F041F97B6818460837BD4680BD80B582B000AF7860786800F040F97B6818460837BD4680BD80B4DA
S32D00010A4083B000AF78607B6800221A607B6818460C37BD4680BC704780B483B000AF78607B6818460C37BD465F
S32D00010A6880BC704780B582B000AF786039603868FEF74BFA03461946786800F021F97B6818460837BD4680BDB9
S32D00010A9080B582B000AF7860786800F020F97B6818460837BD4680BD80B483B000AF78607B6800221A607B6850
S32D00010AB818460C37BD4680BC704780B483B000AF78607B6818460C37BD4680BC704780B582B000AF7860396089
S32D00010AE03868FEF797FA03461946786800F001F97B6818460837BD4680BD80B582B000AF7860786800F000F9D8
S32D00010B087B6818460837BD4680BD80B483B000AF78607B6800221A607B6818460C37BD4680BC704780B483B0B0
S32D00010B3000AF78607B6818460C37BD4680BC704780B582B000AF786039603868FEF7E3FA03461946786800F024
S32D00010B58E1F87B6818460837BD4680BD80B483B000AF78607B6818460C37BD4680BC704780B483B000AF78607F
S32D00010B8039607B6818460C37BD4680BC704780B483B000AF78607B6818460C37BD4680BC704780B483B000AFB5
S32D00010BA8786039607B6818460C37BD4680BC704780B483B000AF78607B6818460C37BD4680BC704780B483B064
S32D00010BD000AF786039607B6818460C37BD4680BC704780B483B000AF78607B6818460C37BD4680BC704780B4C0
S32D00010BF883B000AF786039607B6818460C37BD4680BC704780B483B000AF78607B6818460C37BD4680BC704799
S32D00010C2080B483B000AF786039607B6818460C37BD4680BC704780B483B000AF78607B6818460C37BD4680BCF3
S32D00010C48704780B483B000AF786039607B6818460C37BD4680BC704780B483B000AF78607B6818460C37BD4650
S32D00010C7080BC704780B483B000AF786039607B6818460C37BD4680BC704780B483B000AF78607B6818460C37EF
S32D00010C98BD4680BC704780B483B000AF786039607B6818460C37BD4680BC704780B483B000AF78607B68184607
S32D00010CC00C37BD4680BC704780B483B000AF786039607B6818460C37BD4680BC704780B483B000AF78607B68FA
S32D00010CE818460C37BD4680BC704780B483B000AF786039607B6818460C37BD4680BC704780B483B000AF786057
S32D00010D107B6818460C37BD4680BC704780B483B000AF786039607B6818460C37BD4680BC7047000080B582B0D2
S32D00010D3800AF786039607B68012B0CD13B684FF6FF72934207D1064809F0EEFD054A0649034809F0B5FA00BFF8
S32D00010D600837BD4680BD00BFE41700200000002051A9010080B500AF4FF6FF710120FFF7D9FF80BD80B400AF48
S32D00010D88024B1846BD4680BC704700BFFFFF7F7F2DE9B04384B000AFF860B9607A603B60FB684FF4A0721A60DC
S32D00010DB0FB68F0225A60FB686FF07F429A60FB684C4ADA60FB684C4A1A61FB6800225A61FB684A4A9A62FB682B
S32D00010DD8002283F82D20FB685C33184625F0ECFFFB681B6818463AF07BF94FF000024FF080433AF019FB024607
S32D00010E000B4614461D46786826F054F8034618463AF06AF94FF000024FF080433AF008FB02460B469046994681
S32D00010E28354807F0C3F9034618463AF069F902460B46404649463AF0CDF902460B46204629463AF00FF80246B3
S32D00010E500B46104619463AF0A3FC0246FB685A63B8683AF0A7FD0246FB689A63786826F021F80446224807F0EC
S32D00010E789DF9034604FB03F318463AF093FD0246FB685A651C4807F09BF9034618463AF08DFD0246FB689A6501
S32D00010EA0FB685C337968184625F0BEFFFB6800221A76FB6801225A76FB68002283F82C20FB68002283F82D201C
S32D00010EC83A68FB68DA61BA6AFB681A62FB681B691A46FB685A62FB68DA69FB681A63FB6818461037BD46BDE81C
S32D00010EF0B08300BF6666660021212100E22B8A00C81A002090B585B000AFF860B9607A603B60FB684FF4A072EC
S32D00010F181A60FB68F0225A60FB686FF07F429A60FB682E4ADA60FB682D4A1A61FB6800225A61FB682B4A9A6206
S32D00010F40FB68002283F82D20FB685C33184625F037FFFB68BA685A63FB687A689A63386825F0A8FF0446224806
S32D00010F6807F024F9034604FB03F318463AF01AFD0246FB685A651C4807F022F9034618463AF014FD0246FB68FC
S32D00010F909A65FB685C333968184625F045FFFB6800221A76FB6801225A76FB68002283F82C20FB68002283F832
S32D00010FB82D203A6AFB68DA617A6AFB681A62FB681B691A46FB685A62FB68DA69FB681A63FB6818461437BD46BD
S32D00010FE090BD00BF6666660021212100E22B8A00C81A0020F0B58BB002AF78607B681B6B1946334807F0D3FC36
S32D000110087B685C6B304807F0D1F8034618463AF0CDFC0346194620463AF012FC034618463AF0F4FE05467B6806
S32D000110309B6B18463AF0EEFE06467B685C6D244807F0B8F803465B0018463AF0B3FC0346194620463AF0FAFB04
S32D00011058034618463AF0DAFE04467B689B6D18463AF0D4FE03460093234632462946164808F051F97B6803F18E
S32D000110805C0207F108031146184626F0DBF97B685B6B18463AF0BEFE04467B689B6B4FF0814118463AF0D2FBCB
S32D000110A8034618463AF0B2FE034607F108012246054807F0AEFC07F10803184625F0A4FE00BF2437BD46F0BD16
S32D000110D0C81A0020B0B584B000AF78607B685B7E002B00F046810023FB730023BB737B6803F13C017B684033E5
S32D000110F81A46924807F03CFD7B68DC6B7B685D6B8E4807F053F8034618463AF04FFC0346194628463AF094FB87
S32D000111200346194620463AF04BFE0346002B44D07B68DC6B7B685A6B7B685B6D194610463AF084FB03461D4610
S32D000111487E4807F033F8034618463AF02FFC0346194628463AF076FB03464FF07E5118463AF06EFB03461946F3
S32D0001117020463AF01BFE0346002B1ED07B681A6C7B689B6B194610463AF01AFE0346002B13D07B681C6C7B6857
S32D000111989A6B7B689B6D194610463AF053FB0346194620463AF0FEFD0346002B01D0012200E000227B6883F810
S32D000111C02C207B6803F13C017B6840331A465D4807F0D2FC034683F00103DBB2002B6ED17B6803F144017B68CA
S32D000111E848331A46554807F0C3FC0346002B62D07B68DC6B7B685D6B504806F0E1FF034618463AF0D3FB0346D9
S32D00011210194628463AF018FB0346194620463AF0CFFD0346002B27D07B68DC6B7B685A6B7B685B6D1946104604
S32D000112383AF008FB03461D46404806F0B7FF034618463AF0B3FB0346194628463AF0FAFA03464FF07E51184612
S32D000112603AF0F2FA0346194620463AF09FFD0346002B01D0012300E00023FB737B681A6C7B689B6B1946104694
S32D000112883AF09AFD0346002B13D07B681C6C7B689A6B7B689B6D194610463AF0D3FA0346194620463AF07EFD82
S32D000112B00346002B01D0012300E00023BB73FB7B002B19D0BB7B002B16D07B685B69002B03D17B6801225A613D
S32D000112D806E07B685B69012B02D17B6802225A617B681A6A7B681A637B6801221A763CE07B685B69022B03D178
S32D000113007B6803225A6106E07B685B69032B02D17B6800225A617B6893F82C30002B13D07B689A6A7B681A638E
S32D000113287B6893F82D3083F00103DBB2002B0FD07B68012283F82D200AE000BFC81A00207B68DA697B681A63BE
S32D000113507B68002283F82D207B6800221A76FFF711FD02467B68DA63FFF70CFD02467B681A647868FFF73EFEE6
S32D0001137800BF1037BD46B0BD80B483B000AF78607B681B7E18460C37BD4680BC704780B485B000AF78600023BC
S32D000113A0FB737B685B69012B04D17B6802225A610123FB73FB7B18461437BD4680BC704780B582B000AF7860B1
S32D000113C8396038683AF0F2FA02467B689A6500BF0837BD4680BD80B483B000AF78607B6823F0004318460C3777
S32D000113F0BD4680BC704780B584B000AFF860B9607A60B968F8683AF0D1FC0346002B01D0BB6809E07968F8686B
S32D000114183AF0D2FC0346002B01D07B6800E0FB6818461037BD4680BD80B584B000AFF860C7E90023D7E9062331
S32D00011440D7E9000139F012FD02460B46F968C1E90023FB68D3E90023F968C1E90223F9684FF000024FF0000367
S32D00011468C1E90423FB684FF00002DA62FB680A4A1A62FB68094A5A62FB68074A9A62F9684FF000024FF000036B
S32D00011490C1E90C23FB6818461037BD4680BD00BFACC5273795BFD6332DE9B04F8CB000AFF861C7E90423D7E931
S32D000114B81423D7E9040139F0D5FC02460B46F969C1E90023FB69D3E90445FB69D3E90001D7E9162339F07EFE1F
S32D000114E002460B462046294639F0C2FC02460B46F969C1E90423A6A3D3E90023D7E916013AF0DEF80346002B49
S32D0001150804D0A1A3D3E90023C7E91623FB69D3E900014FF000024FF000033AF0EBF80346002B0BD0FB69D3E9B4
S32D0001153002014FF000024FF000033AF0C1F80346002B28D1FB69D3E900014FF000024FF000033AF0B5F80346F2
S32D00011558002B0BD0FB69D3E902014FF000024FF000033AF0C7F80346002B10D1FB69D3E90023BA6023F00043C7
S32D00011580FB6085A3D3E90023D7E902013AF098F80346002B06D0F9694FF000024FF00003C1E90423FB69D3E93D
S32D000115A80C01D7E9042339F05DFC02460B463A6023F000437B6076A3D3E90023D7E900013AF08EF80346002B5D
S32D000115D006D0F9694FF000024FF00003C1E90423FB69D3E90C01D7E9042339F03FFC02460B46904623F000491D
S32D000115F84FF00002684B404649463AF071F80346002B03D0FB694FF00002DA624FF00002624BC7E90A23FB69D1
S32D00011620D3E90423104619463AF0BAF803465E4A5E491846FFF7DFFE0346184639F076FD02460B46F969C1E976
S32D000116480423FB69D3E90001FB69D3E9022339F009FC02460B4610461946D7E9162339F0E3FE02460B46F9696C
S32D00011670C1E90623FB69D3E90023F969C1E90223FB69DB6A184639F051FD04460D46FB691B6A184639F04AFD32
S32D00011698FB69D3E9002339F09DFD02460B4690469946FB695B6A184639F03CFDFB69D3E9042339F08FFD0246A2
S32D000116C00B464046494639F0D3FB02460B4690469946FB699B6A184639F028FDFB69D3E9062339F07BFD024609
S32D000116E80B464046494639F0BFFB02460B462046294639F0B9FB02460B46104619463AF04BF80246FB69DA629C
S32D00011710F969D7E90423C1E90C23254B7B62FB69DB6A1846FFF75BFE0346214918463AF033FB0346002B11D027
S32D00011738FB69D3E90023924623F0004B14A3D3E900235046594639F0D5FF0346002B01D0012300E00023002BAA
S32D000117600ED0FB69DB6A4FF0000118463AF032FB0346002B01D00E4A00E00E4AFB69DA62FB69DB6A18463037FB
S32D00011788BD46BDE8B08F00BFFCA9F1D24D62503F9A9999999999B93F0000E03F0000494000004842000048C21B
S32D000117B0CDCCCC3DCDCCCCBD80B485B000AFF860B9607A603B60FB68BA681A62FB687A685A62FB683A689A6245
S32D000117D800BF1437BD4680BC7047000080B582B000AF786039607B68012B0CD13B684FF6FF72934207D106481B
S32D0001180009F096F8054A0649034808F05DFD00BF0837BD4680BD00BFE81700200000002051A9010080B500AFDC
S32D000118284FF6FF710120FFF7D9FF80BD80B586B002AF786039603A23FB60386839F072FC02460B467868CDE905
S32D000118500023044B3A22044900F042F978681037BD4680BD88ED0500CD57050090B583B000AF7860396005F08C
S32D00011878BBFE034618463AF095F803467968184639F0DEFF034601221446194638683AF089FA0346002B01D1E4
S32D000118A000231C46E3B218460C37BD4690BD000080B582B000AF7860064A7B681A607B680433184625F07CFA70
S32D000118C87B6818460837BD4680BD00BF18EE050080B582B000AF7860064A7B681A607B680433184625F090FAB5
S32D000118F07B6818460837BD4680BD00BF18EE050080B582B000AF78607868FFF7E5FF1C21786808F05DFD7B6845
S32D0001191818460837BD4680BD90B585B000AF786039607B681846FFF7BFFF164A7B681A607B683A68DA617B68D4
S32D0001194003F1280407F10C03184608F013FE07F10C031A460E49204625F0BAFD07F10C03184608F009FE05F0A1
S32D0001196843FE034618463AF01DF802467B681A627B68002283F824207B6818461437BD4690BD00BFF4ED05003D
S32D000119908CED050080B582B000AF786005F028FE034618463AF002F802467B681A6200BF0837BD4680BD0000F1
S32D000119B880B58AB000AF78607B68D8694FF000032A4A2B4902F080FE7B68DB69184602F093FE0023002227498F
S32D000119E0274806F0F7FF05F003FE0346184639F0DDFF02467B681B6A1946104639F024FF03467B6207F10C03FD
S32D00011A08796A1846FFF712FF0F2300221B491A4806F0DCFF07F10C03184625F0EDFC01461E230022144806F01D
S32D00011A30D1FF2D2300221449114806F0CBFF7B681B6A12491846FFF711FF0346002B08D07B68DB69184602F0E5
S32D00011A587FFF7B68012283F8242007F10C03184625F0D2F900BF2837BD4680BDB81E053F0AD7A3BD98ED050094
S32D00011A80C81A0020B0ED0500BCED050000803B4580B483B000AF78607B6893F8243018460C37BD4680BC70479E
S32D00011AA880B483B000AF78607B68012283F8242000BF0C37BD4680BC704780B582B000AF786039603B682833DF
S32D00011AD01946786825F0B6FC78680837BD4680BD08B490B588B000AFF860B9607A607B680733DB08DB00ADEBDC
S32D00011AF8030D6B460733DB08DB00FB6107F130033B61BC683B69FA6A7968F869A047B861BB69FA69D41807F10A
S32D00011B201403184608F026FD07F114032246F969F86800F00CF807F11403184608F01CFDF8682037BD46BDE8FC
S32D00011B48904001B0704790B585B000AFF860B9607A603B60FC68F86825F022F803463A681946204625F068FC0B
S32D00011B707A68B968F86800F005F8FB6818461437BD4690BD80B584B000AFF860B9607A607A68B968F86800F0E4
S32D00011B9804F800BF1037BD4680BD90B587B000AFF860B9607A603B7023467A68B968F86800F004F800BF1C37F1
S32D00011BC0BD4690BD80B586B000AFF860B9607A603B70B86800F03EF80346002B05D0BA687B689A4201D0012331
S32D00011BE800E00023002B02D017481AF0A7FD7968B86800F03AF803467B617B690F2B10D907F1140300221946E2
S32D00011C10F86824F0D3FF03461946F86824F0C0FF7B691946F86824F0C1FFF86824F0BAFF03467A68B968184636
S32D00011C3825F00CF87B691946F86824F0B5FF00BF1837BD4680BD00BFC0ED050080B483B000AF78607B68002B3E
S32D00011C600CBF01230023DBB218460C37BD4680BC7047B0B582B000AF786039607C683B1D184600F00AF82A466C
S32D00011C883968204600F00FF8034618460837BD46B0BD80B483B000AF786000BF18460C37BD4680BC704780B461
S32D00011CB085B000AFF860B9603A71BA68FB68D31A18461437BD4680BC7047000080B582B000AF7860084A7B68D1
S32D00011CD81A607B682833184625F096F87B681846FFF7F6FD7B6818460837BD4680BD00BFF4ED050080B582B02E
S32D00011D0000AF78607868FFF7E1FF4021786808F05FFB7B6818460837BD4680BD90B585B000AF786039607B68A7
S32D00011D281846FFF7C1FD164A7B681A607B683A68DA617B6803F1280407F10C03184608F015FC07F10C031A4625
S32D00011D500E49204625F0BCFB07F10C03184608F00BFC05F045FC0346184639F01FFE02467B681A627B680022A8
S32D00011D7883F824207B6818461437BD4690BD00BFC8EE050064EE050080B582B000AF786005F02AFC0346184620
S32D00011DA039F004FE02467B681A6200BF0837BD4680BD000090B58BB000AF786041F690237B627B68D8694FF0D3
S32D00011DC800034FF07C52394902F07EFC7B681C6A7B6ADA0F13445B10184639F0E7FD034619462046FFF73EFD4B
S32D00011DF00346002B08D07B68D8694FF000034FF07C522D4902F064FC7B68DB69184602F077FC0023002229499C
S32D00011E18294806F0DBFD05F0E7FB0346184639F0C1FD02467B681B6A1946104639F008FD03463B6207F108037B
S32D00011E40396A1846FFF7F6FC0F2300221D491C4806F0C0FD07F10803184625F0D1FA01461E230022164806F07A
S32D00011E68B5FD2D2300221649134806F0AFFD7B681C6A786A39F09AFD034619462046FFF7F1FC0346002B08D083
S32D00011E907B68DB69184602F05FFD7B68012283F8242007F10803184624F0B2FF00BF2C37BD4690BDEC51B83DC1
S32D00011EB8B81E053E70EE0500C81A002084EE050090EE050080B483B000AF78607B6893F8243018460C37BD462F
S32D00011EE080BC704780B483B000AF78607B68012283F8242000BF0C37BD4680BC704780B582B000AF78603960AE
S32D00011F083B6828331946786825F098FA78680837BD4680BD80B582B000AF7860084A7B681A607B68283318462E
S32D00011F3024F06EFF7B681846FFF7CEFC7B6818460837BD4680BD00BFC8EE050080B582B000AF78607868FFF702
S32D00011F58E1FF4021786808F037FA7B6818460837BD4680BD90B585B000AF786039607B681846FFF799FC164A8A
S32D00011F807B681A607B683A68DA617B6803F1280407F10C03184608F0EDFA07F10C031A460E49204625F094FA07
S32D00011FA807F10C03184608F0E3FA05F01DFB0346184639F0F7FC02467B681A627B68002283F824207B68184654
S32D00011FD01437BD4690BD00BF70EF050004EF050080B582B000AF786005F002FB0346184639F0DCFC02467B6879
S32D00011FF81A6200BF0837BD4680BD000080B58AB000AF78607B68D8694FF000034FF03F424FF0000102F058FB5F
S32D000120207B68DB69184602F06BFB002300222549254806F0CFFC05F0DBFA0346184639F0B5FC02467B681B6AD8
S32D000120481946104639F0FCFB03467B6207F10C03796A1846FFF7EAFB0F2300221949184806F0B4FC07F10C0388
S32D00012070184625F0C5F901461E230022124806F0A9FC2D23002212490F4806F0A3FC7B681B6A10491846FFF7A3
S32D00012098E9FB0346002B08D07B68DB69184602F057FC7B68012283F8242007F10C03184624F0AAFE00BF28371B
S32D000120C0BD4680BD10EF0500C81A00202CEF050038EF050000C05A4580B483B000AF78607B6893F824301846F2
S32D000120E80C37BD4680BC704780B483B000AF78607B68012283F8242000BF0C37BD4680BC704780B582B000AFCF
S32D00012110786039603B6828331946786825F092F978680837BD4680BD80B582B000AF7860084A7B681A607B6873
S32D000121382833184624F068FE7B681846FFF7C8FB7B6818460837BD4680BD00BF70EF050080B582B000AF78607A
S32D000121607868FFF7E1FF4021786808F031F97B6818460837BD4680BD90B585B000AF786039607B681846FFF7A6
S32D0001218893FB164A7B681A607B683A68DA617B6803F12C0407F10C03184608F0E7F907F10C031A460E492046B5
S32D000121B025F08EF907F10C03184608F0DDF905F017FA0346184639F0F1FB02467B685A627B68002283F82820C0
S32D000121D87B6818461437BD4690BD00BF18F00500B0EF050080B582B000AF786005F0FCF90346184639F0D6FB13
S32D0001220002467B685A627B68002283F8202000BF0837BD4680BD000090B5A9B000AF78607B6803F12C0107F1A9
S32D000122283803554A184600F0DBF807F1380207F150031146184625F001F907F15001002300224E4806F0E5FB51
S32D0001225007F15003184624F0DBFD05F0C9F90346184639F0A3FB02467B685B6A1946104639F0EAFA0346C7F8EB
S32D000122789C3007F12003D7F89C101846FFF7D6FA0F2300223E493D4806F0A0FB07F12003184625F0B1F8014642
S32D000122A01E230022374806F095FB2D2300223749344806F08FFB7B68DB69184605F098FC024607F168031146A9
S32D000122C81846FFF7B3FA07F1080307F168022E49184600F098F807F16803184624F094FD07F1080207F1800349
S32D000122F01146184625F0A6F807F180013C230022204806F08AFB07F18003184624F080FD204BC7F898307B683B
S32D00012318DB69184605F068FC0346012214461B49184639F049FD0346002B01D100231C46E3B2002B03D07B6863
S32D00012340012283F820207B6893F82030002B03D07B68012283F8282007F10803184624F057FD07F120031846C9
S32D0001236824F052FD07F13803184624F04DFD00BFA437BD4690BD00BFC0EF0500C81A0020CCEF0500D8EF050009
S32D00012390DCEF05009A99394080B483B000AF78607B6893F8283018460C37BD4680BC704780B483B000AF786069
S32D000123B87B68012283F8282000BF0C37BD4680BC704780B582B000AF786039603B682C331946786825F032F82E
S32D000123E078680837BD4680BD80B584B000AFF860B9607A60B968F86825F024F87968F86824F02CFF00BFF868BB
S32D000124081037BD4680BD80B584B000AFF860B9607A60BA680021786824F0D4FE0346184600F009F80346194672
S32D00012430F86824F0CDFCF8681037BD4680BD80B483B000AF78607B6818460C37BD4680BC7047000080B582B08A
S32D0001245800AF7860084A7B681A607B682C33184624F0D2FC7B681846FFF732FA7B6818460837BD4680BD00BFBB
S32D0001248018F0050080B582B000AF78607868FFF7E1FF4421786807F09BFF7B6818460837BD4680BD90B587B06A
S32D000124A800AFF860B9607A60FB681846FFF7FCF91B4AFB681A60FB68BA68DA61FB687A681A62FB6803F12C0415
S32D000124D007F11403184608F04DF807F114031A461249204624F0F4FF07F11403184608F043F805F07DF80346A9
S32D000124F8184639F057FA0246FB685A62FB68002283F82A20FB68002283F82820FB68002283F82920FB681846DA
S32D000125201C37BD4690BD00BFC8F005005CF0050080B582B000AF786005F05AF80346184639F034FA02467B68BE
S32D000125485A6200BF0837BD4680BD000090B58DB000AF7860002300227A497B4806F036FA05F042F8034618469A
S32D0001257039F01CFA02467B685B6A1946104639F063F90346FB6207F10803F96A1846FFF751F90F2300226F491D
S32D000125986D4806F01BFA07F10803184624F02CFF01461E230022684806F010FA2D2300226749654806F00AFA91
S32D000125C04FF07E53BB62654B7B62654B3B627B6893F8283083F00103DBB2002B6CD07B681B6A184605F004FBFA
S32D000125E80346012214461946786A39F0D1FB0346002B01D100231C46E3B2002B11D07B68012283F829207B68AF
S32D00012610012283F8282004F0EBFF0346184639F0C5F902467B685A622FE07B681B6A184605F0DEFA0346194618
S32D00012638386A39F0ADFB0346002B0ED07B681B6A184605F0D1FA03461946786A39F0BEFB0346002B01D0012353
S32D0001266000E00023002B10D07B68002283F829207B68012283F8282004F0BAFF0346184639F094F902467B6876
S32D000126885A627B685B6A35491846FFF7EBF80346002B4ED07B68012283F8282004F0A4FF0346184639F07EF9D1
S32D000126B002467B685A6240E07B6893F82930002B15D0234806F02DF94FF47F01204806F047F97B68D8694FF0D2
S32D000126D80003234A234901F0F7FF7B68DB69184602F00AF813E0184806F017F9FF21164806F032F97B68D8697B
S32D000127004FF00003184A1A4901F0E2FF7B68DB69184601F0F5FF7B685B6A16491846FFF7A5F80346002B08D023
S32D000127287B68012283F82A207B68DB69184602F00FF907F10803184624F066FB00BF3437BD4690BD6CF0050087
S32D00012750C81A002084F0050090F005009A993940666626400080BB44CDCC4C3E8FC2753D8FC275BD00C00F4540
S32D0001277880B483B000AF78607B6893F82A3018460C37BD4680BC704780B483B000AF78607B68012283F82A202C
S32D000127A000BF0C37BD4680BC704780B582B000AF786039603B682C331946786824F042FE78680837BD4680BD97
S32D000127C880B582B000AF7860084A7B681A607B682C33184624F018FB7B681846FFF778F87B6818460837BD4654
S32D000127F080BD00BFC8F0050080B582B000AF78607868FFF7E1FF4421786807F0E1FD7B6818460837BD4680BD83
S32D0001281890B585B000AF786039607B681846FFF743F8164A7B681A607B683A68DA617B6803F1280407F10C03FE
S32D00012840184607F097FE07F10C031A460E49204624F03EFE07F10C03184607F08DFE04F0C7FE0346184639F09B
S32D00012868A1F802467B681A627B68002283F824207B6818461437BD4690BD00BF74F1050004F1050080B582B0D7
S32D0001289000AF786004F0ACFE0346184639F086F802467B681A6200BF0837BD4680BD000090B58BB000AF7860BA
S32D000128B840F6E4437B627B68D8694FF000033B4A3B4901F001FF7B681C6A7B6A5B00394A82FB0312DB17D31ABA
S32D000128E0184639F067F8034619462046FEF7BEFF0346002B08D07B68D8694FF00003304A4FF0000101F0E4FEE4
S32D000129087B68DB69184601F0F7FE002300222B492B4806F05BF804F067FE0346184639F041F802467B681B6AAE
S32D000129301946104638F088FF03463B6207F10803396A1846FEF776FF0F2300221F491E4806F040F807F108036D
