S01100002E2E2F50726F746575732E73313966
S32D0000C000000000205DC2000011C3000017C300001DC3000023C3000029C3000000000000000000000000000073
S32D0000C028000000002FC3000035C30000000000003BC3000041C30000ED030100F90301000504010011040100F0
S32D0000C0501D0401002904010035040100410401004D0401005904010065040100710401007D0401008904010052
S32D0000C07895040100A1040100AD040100B9040100C5040100D1040100DD040100E9040100F50401000105010079
S32D0000C0A00D0501001905010025050100310501003D0501004905010055050100610501006D0501007905010098
S32D0000C0C885050100910501009D050100A9050100B5050100C1050100CD050100D9050100E5050100F1050100C0
S32D0000C0F0FD050100615001000906010015060100210601002D0601003906010045060100510601005D0601009D
S32D0000C1186906010075060100810601008D06010099060100A5060100B1060100BD060100C9060100D50601007D
S32D0000C140E1060100ED060100F906010005070100012E0100110701001D070100290701003507010041070100C3
S32D0000C1684D0701005907010065070100710701007D0701008907010095070100A1070100AD070100B90701003B
S32D0000C190C5070100D1070100DD0701003D2B0100052A0100A12A010071010100DD2B0100E9070100F507010027
S32D0000C1B801080100444C060000000020C8170000444C06000000FF1F00000000C8170020D81A00000000FF1FF7
S32D0000C1E00000000080B489B000AFF860B9607A60BB68FB61FB68BB6100237B617A697B689A420BD2BA69131DFB
S32D0000C208BB61FB69191DF96112681A607B6904337B61EFE700BF2437BD4680BC704780B485B000AF786039609E
S32D0000C2307B68FB600023BB60BA683B689A4208D2FB681A1DFA6000221A60BB680433BB60F2E700BF1437BD46FE
S32D0000C25880BC704780B586B000AF72B6234B4CF220521A80214B4DF628121A80204B4FF4E9721A801F4B7B615F
S32D0000C2807B691F4A934214D27B691A1D7A611B683B617B691A1D7A611B68FB607B691A1D7A611B68BB60BA68E9
S32D0000C2A8F9683869FFF79AFFE6E77B69134A93420ED27B691A1D7A611B68FB607B691A1D7A611B68BB60B9688B
S32D0000C2D0F868FFF7A8FFECE70B4B7B600B4A7B681A603DF0E9FD62B604F00AF800F068F9FEE700BF0E20054004
S32D0000C2F800200540BCC10000D4C10000E4C1000008ED00E000C0000080B400AFFEE780B400AFFEE780B400AFF4
S32D0000C320FEE780B400AFFEE780B400AFFEE780B400AFFEE780B400AFFEE780B400AFFEE780B400AFFEE780B426
S32D0000C34800AFFEE7FFFFFFFFFFFFFFFFFFFFFFFFFFFFFFFFFFFFFFFFFFFFFFFFFFFFFFFFFFFFFFFFFFFFFFFF57
S32D0000C370FFFFFFFFFFFFFFFFFFFFFFFFFFFFFFFFFFFFFFFFFFFFFFFFFFFFFFFFFFFFFFFFFFFFFFFFFFFFFFFFC7
S32D0000C398FFFFFFFFFFFFFFFFFFFFFFFFFFFFFFFFFFFFFFFFFFFFFFFFFFFFFFFFFFFFFFFFFFFFFFFFFFFFFFFF9F
S32D0000C3C0FFFFFFFFFFFFFFFFFFFFFFFFFFFFFFFFFFFFFFFFFFFFFFFFFFFFFFFFFFFFFFFFFFFFFFFFFFFFFFFF77
S32D0000C3E8FFFFFFFFFFFFFFFFFFFFFFFFFFFFFFFFFFFFFFFFFFFFFFFFFFFFFFFFFFFFFFFFFFFFFFFFFEFFFFFF50
S32D0000C44010B5054C237833B9044B13B10448AFF300800123237010BDC817002000000000FC38060008B5034BE8
S32D0000C4681BB103490348AFF3008008BD00000000CC170020FC3806002DE9B0438AB000AFF860B9607A603B6047
S32D0000C490FA687B68D31A18463AF012FC02460B46C7E90823BA683B68D31A18463AF008FC02460B46C7E9062392
S32D0000C4B8D7E90823D7E908013AF068FC02460B4614461D463B6C03FB03F318463AF0F4FB02460B46204629463E
S32D0000C4E03AF082FD02460B4614461D46D7E90623D7E906013AF04EFC02460B46904699467B6C03FB03F3184684
S32D0000C5083AF0DAFB02460B46404649463AF068FD02460B46204629463AF082FA02460B46C7E9042301231C46BF
S32D0000C5304FF00002074BD7E904013AF0A7FE0346002B01D100231C46E3B218462837BD46BDE8B0830000F03F8F
S32D0000C55880B582B000AF78607B682033184600F0EBFA7B680833184626F058FA7B6818460837BD4680BD80B585
S32D0000C58082B000AF78607B685C33184626F04AFA7B6818460837BD4680BD80B582B000AF78607B683433184654
S32D0000C5A826F03CFA7B681C33184626F037FA7B6818460837BD4680BDF0B5ADF5577D04AF4FF00003C7F8B032D1
S32D0000C5D04FF00003C7F8B4324FF00003C7F8B832B94BC7F84033002387F83F33012387F83E33032387F83D33F8
S32D0000C5F8002387F83C33022387F83B33042387F83A3397F83E4397F83C2397F83F1307F5DC70D7F840330393E0
S32D0000C62097F83A33029397F83D33019397F83B330093234603F0ECFA07F5C673184602F0B9FB07F5307307F522
S32D0000C648DC721146184600F092FA07F5307207F52F731146184600F0D7FA07F52F7207F5C6731146184602F01A
S32D0000C670C5FB07F52F73184600F0E6FA07F53073184600F092FA07F5327307F5DC721146184600F0FBFA07F516
S32D0000C698327207F531731146184600F040FB07F5317207F5C6731146184602F0A3FB07F53173184600F0C4FA8B
S32D0000C6C007F53273184600F0FBFA07F5BC7318460AF0E2FF002387F8473307F53973184608F0B6FF07F539728E
S32D0000C6E807F533737749184626F0C2FC07F5337207F582708B230093FF23002101F054F807F53373184626F02A
S32D0000C71089F907F53973184608F09CFF07F582731E21184601F0D5FA07F54073184608F08FFF07F5407207F555
S32D0000C7383A736549184626F09BFC07F53A7207F190008B230093FF23232101F02DF807F53A73184626F062F908
S32D0000C76007F54073184608F075FF07F190031E21184601F0AEFA38464FF07E530393554B02938B230193FF23B4
S32D0000C78800934FF00003524A002101F037FB514807F0AFF84F4807F05FFC002387F8463397F84633002B26D169
S32D0000C7B007F58273184601F021F907F19003184601F01CF907F58273184601F06DFA0346002B05D0002387F880
S32D0000C7D84733012387F8463307F19003184601F05FFA0346002BDBD0012387F84733012387F84633D4E7D7F888
S32D0000C800B012D7F8B422D7F8B83207F5DC7003F0BDFA324807F071F8304807F021FC002387F8453397F8453371
S32D0000C828002B40F05C8105F057FF034618463AF095FE0346C7F83433274BC7F83033D22300222649234807F010
S32D0000C850ADF8E1230022D7F83413204807F0DEF897F84733002B41D0B42300221E491B4807F09CF807F5417361
S32D0000C87807F5C6721146184602F046FB07F54171C3230022134807F0B0F807F54173184626F0C4F807F5C673B1
S32D0000C8A0184602F0BFFA07F5C673184602F03FFB0346002BB6D0012387F8453307F5DC73184603F07DFBADE7E5
S32D0000C8C80000C04004A8050010A80500000080BF0000C842C81A00200000A04118A8050028A805008B4BC7F879
S32D0000C8F02C338B49D7F82C033AF084FD034618463BF064F8034600228649874807F04EF807F55273A3F5E0731E
S32D0000C9181C688449D7F82C033AF070FD034618463BF050F80346002221467D4807F072F87D49D7F82C033AF00B
S32D0000C94061FD034618463BF041F8034600227949754807F02BF807F55273A3F5E2731B6883F000447449D7F8E8
S32D0000C9682C033AF04BFD034618463BF02BF80346002221466A4807F04DF83B46184601F029FB3B46184601F087
S32D0000C990A7FDC7F82803694BC7F82433644BC7F820333223C7F81C33FF215F4806F0EBFFD7F81C033AF0D6FD6B
S32D0000C9B80446D7F81C033AF0D1FD034600932346D7F82023D7F82413554807F0F3FD07F5C27207F5C47319467E
S32D0000C9E0514807F0B5F80346002B76D007F55273A3F5E0731B6818463AF0E8FF044607F55273A3F5E2731B6819
S32D0000CA0818463AF0DFFF0546D7F824033AF0DAFF0646D7F820033AF0D5FF0146D7F81C33D7F81C230192009381
S32D0000CA300B46324629462046FFF722FD0346002B3FF4F0AE07F55273A3F5E0731B68D7F8241318463AF0D4FC53
S32D0000CA5803461C46D7F81C033AF080FD0346194620463AF087FE0346C7F8B03207F55273A3F5E2731B68D7F8C9
S32D0000CA80201318463AF0BCFC03461C46D7F81C033AF068FD0346194620463AF06FFE0346C7F8B4323B4618467B
S32D0000CAA801F0AEFD0346002B03D0D7F82833C7F8B832D7F8B012D7F8B422D7F8B83207F5DC7003F05FF907F52C
S32D0000CAD0DC73184603F072F9A4E607F5DC73184603F06EFA9EE600243B461846FFF755FD07F190031846FFF7F1
S32D0000CAF842FD07F582731846FFF73DFD07F5C6731846FFF725FD2346184607F55377BD46F0BD00BF0000F0417A
S32D0000CB200000B4423CA80500C81A00200000D2420000F04244A805000000074300002043B0B582B000AF786004
S32D0000CB487B681C687B685D687B68184600F028F903461A462946204600F02CF97B68184600F005F97B6818465B
S32D0000CB700837BD46B0BDB0B582B000AF78603960386800F029F90546402008F091FC03461C462946204601F0DE
S32D0000CB98DFFF2146786800F035F978680837BD46B0BD90B585B000AF78607B68184600F038F9F860FB681B68FC
S32D0000CBC0002B0CD0786800F03DF90446F86800F046F903461B681946204600F04AF9FB6800221A607B6818465D
S32D0000CBE81437BD4690BD80B584B000AFF860B9607A60FB68B9687A68184600F05EF9FB6818461037BD4680BDCE
S32D0000CC10B0B582B000AF786039607C68386800F039F90546386800F00DF90346184600F03EF903461A462946D2
S32D0000CC382046FFF7D8FF7B6818460837BD46B0BD90B585B000AF78607B68184600F04BF9F860FB681B68002BCC
S32D0000CC600CD0786800F050F90446F86800F059F903461B681946204600F05DF9FB6800221A607B681846143763
S32D0000CC88BD4690BDB0B582B000AF78603960386800F09EF80546402008F006FC03461C462946204601F056FDE8
S32D0000CCB02146786800F060F978680837BD46B0BD90B585B000AF78607B68184600F063F9F860FB681B68002B40
S32D0000CCD80CD0786800F068F90446F86800F071F903461B681946204600F075F9FB6800221A607B6818461437A3
S32D0000CD00BD4690BD80B584B000AFF860B9607A60FB68B9687A68184600F089F9FB6818461037BD4680BDB0B56F
S32D0000CD2882B000AF786039607C68386800F064F90546386800F038F90346184600F069F903461A462946204637
S32D0000CD50FFF7D8FF7B6818460837BD46B0BD80B582B000AF7860786800F077F97B6818460837BD4680BD80B5D5
S32D0000CD7882B000AF78607B6819687B689A687B681B68D31A9B101A46786800F06EF97B681846FFF7E0FF7B68FD
S32D0000CDA018460837BD4680BD80B483B000AF78607B6818460C37BD4680BC704780B584B000AFF860B9607A60BD
S32D0000CDC8B968F86800F064F900BF1037BD4680BD80B483B000AF78607B6818460C37BD4680BC704780B582B05A
S32D0000CDF000AF786039607B683A681146184600F058F97B6818460837BD4680BD80B582B000AF786039607B6850
S32D0000CE1839681846FFF7E6FF7B6818460837BD4680BD80B582B000AF78607B68184600F050F903461846083704
S32D0000CE40BD4680BD80B582B000AF78607B68184600F050F9034618460837BD4680BD80B483B000AF78607B6825
S32D0000CE6818460C37BD4680BC704780B582B000AF786039603B68002B04D01A68183212681846904700BF083763
S32D0000CE90BD4680BD80B582B000AF78607B68184600F035F9034618460837BD4680BD80B483B000AF78607B68F0
S32D0000CEB818460C37BD4680BC704790B585B000AFF860B9607A60FC687868FFF7ECFF024607F10803194620460C
S32D0000CEE000F02AF9FB6818461437BD4690BD80B582B000AF78607B68184600F036F9034618460837BD4680BD41
S32D0000CF0880B582B000AF78607B68184600F036F9034618460837BD4680BD80B483B000AF78607B6818460C3715
S32D0000CF30BD4680BC704780B582B000AF786039603B68002B04D01A68183212681846904700BF0837BD4680BDFB
S32D0000CF5880B582B000AF786039607B683A681146184600F025F97B6818460837BD4680BD80B582B000AF78602E
S32D0000CF8039607B6839681846FFF7E6FF7B6818460837BD4680BD80B582B000AF78607B68184600F01DF90346EF
S32D0000CFA818460837BD4680BD80B582B000AF78607B68184600F01DF9034618460837BD4680BD80B483B000AF0D
S32D0000CFD078607B6818460C37BD4680BC704780B582B000AF786039603B68002B04D01A6818321268184690473D
S32D0000CFF800BF0837BD4680BD80B582B000AF78607B68184600F002F9034618460837BD4680BD80B483B000AF77
S32D0000D02078607B6818460C37BD4680BC704790B585B000AFF860B9607A60FC687868FFF7ECFF024607F10803AC
S32D0000D0481946204600F0F7F8FB6818461437BD4690BD80B582B000AF7860786800F004F97B6818460837BD467C
S32D0000D07080BD80B584B000AFF860B9607A60BB68002B05D0FB687A68B968184600F0FAF800BF1037BD4680BDE3
S32D0000D09880B582B000AF786039603968786800F0FCF800BF0837BD4680BD80B582B000AF786039607B68184678
S32D0000D0C000F007F97868FFF7B0FE02463B6813607B6818460837BD4680BD80B582B000AF78607B68184600F091
S32D0000D0E80EF9034618460837BD4680BD80B582B000AF78607B68184600F00DF9034618460837BD4680BD80B56D
S32D0000D11084B000AF78607868FFF787FE03461B68FB607868FFF781FE034600221A60FB6818461037BD4680BD32
S32D0000D138B0B584B000AFF860B9607A60FC68B86800F0F5F805467868FFF7ADFE03461A462946204600F0F5F8AE
S32D0000D160FB6818461037BD46B0BD80B582B000AF78607B68184600F004F9034618460837BD4680BD80B582B080
S32D0000D18800AF78607B68184600F003F9034618460837BD4680BD80B582B000AF78607B68184600F002F903463C
S32D0000D1B018460837BD4680BD80B582B000AF786039607B68184600F00AF97868FFF7E3FE02463B6813607B68C1
S32D0000D1D818460837BD4680BD80B582B000AF78607B68184600F011F9034618460837BD4680BD80B582B000AFE7
S32D0000D20078607B68184600F010F9034618460837BD4680BD80B584B000AF78607868FFF7BAFE03461B68FB6023
S32D0000D2287868FFF7B4FE034600221A60FB6818461037BD4680BDB0B584B000AFF860B9607A60FC68B86800F01C
S32D0000D25072F805467868FFF7E0FE03461A462946204600F0EEF8FB6818461037BD46B0BD80B483B000AF78608D
S32D0000D2787B6818460C37BD4680BC704780B584B000AFF860B9607A607A68B968F86800F0F0F800BF1037BD4667
S32D0000D2A080BD80B582B000AF786039607A683B689A420AD0786800F0F0F80346184600F0F6F87B6804337B602F
S32D0000D2C8F0E700BF0837BD4680BD80B582B000AF78607B68184600F0F1F87B6818460837BD4680BD80B582B0F4
S32D0000D2F000AF78607B68184600F0F4F8034618460837BD4680BD80B582B000AF78607868FFF7ECFF03461846F0
S32D0000D3180837BD4680BD80B582B000AF7860786800F0F2F8034618460837BD4680BD80B483B000AF78607B68C9
S32D0000D34018460C37BD4680BC704790B585B000AFF860B9607A607868FFF7A9FD03461946F86800F0E1F8FC6803
S32D0000D368B868FFF7E4FF03461946204600F0EAF8FB6818461437BD4690BD80B582B000AF78607868FFF707FF98
S32D0000D390034618460837BD4680BD80B582B000AF7860786800F0E3F8034618460837BD4680BD80B483B000AF74
S32D0000D3B878607B6818460C37BD4680BC704780B582B000AF7860786800F0D9F8034618460837BD4680BD80B50B
S32D0000D3E082B000AF78607B68184600F0D6F87B6818460837BD4680BD80B582B000AF78607B68184600F0D9F8B7
S32D0000D408034618460837BD4680BD80B582B000AF78607868FFF7ECFF034618460837BD4680BD80B582B000AFE5
S32D0000D4307860786800F0D7F8034618460837BD4680BD90B585B000AFF860B9607A607868FFF7E3FD034619465F
S32D0000D458F86800F0D0F8FC68B868FFF768FF03461946204600F06EF8FB6818461437BD4690BD80B584B000AFD5
S32D0000D480F860B9607A607B689B001946B86808F00DF800BF1037BD4680BD80B483B000AF78607B6818460C3781
S32D0000D4A8BD4680BC704780B582B000AF78607868FFF7C6FB00BF0837BD4680BD80B582B000AF7860786800F0DF
S32D0000D4D0A8F87B68184600F0B0F87B6818460837BD4680BD80B483B000AF78607B6818460C37BD4680BC70478D
S32D0000D4F880B582B000AF7860786800F0A7F8034618460837BD4680BD80B582B000AF78607868FFF7EDFF03468A
S32D0000D52018460837BD4680BD80B582B000AF786039603868FFF7BBFC03461946786800F093F87B6818460837A9
S32D0000D548BD4680BD80B582B000AF786039603868FFF7EDFE03461A687B681A607B6818460837BD4680BD80B550
S32D0000D57082B000AF78607868FFF725FF034618460837BD4680BD80B483B000AF78607B6818460C37BD4680BC03
S32D0000D598704780B582B000AF7860786800F072F87B68184600F07AF87B6818460837BD4680BD80B483B000AF0D
S32D0000D5C078607B6818460C37BD4680BC704780B582B000AF7860786800F071F8034618460837BD4680BD80B569
S32D0000D5E882B000AF78607868FFF7EDFF034618460837BD4680BD80B582B000AF786039603868FFF706FD03460B
S32D0000D6101946786800F05DF87B6818460837BD4680BD80B582B000AF7860786800F063F87B6818460837BD460C
S32D0000D63880BD80B483B000AF78607B6800221A607B6818460C37BD4680BC704780B483B000AF78607B68184671
S32D0000D6600C37BD4680BC704780B582B000AF786039603868FFF71BFC03461946786800F044F87B6818460837FB
S32D0000D688BD4680BD80B582B000AF7860786800F043F87B6818460837BD4680BD80B483B000AF78607B68002288
S32D0000D6B01A607B6818460C37BD4680BC704780B483B000AF78607B6818460C37BD4680BC704780B582B000AFDA
S32D0000D6D8786039603868FFF79CFC03461946786800F024F87B6818460837BD4680BD80B483B000AF78607B6860
S32D0000D70018460C37BD4680BC704780B483B000AF786039607B6818460C37BD4680BC704780B483B000AF786075
S32D0000D7287B6818460C37BD4680BC704780B483B000AF786039607B6818460C37BD4680BC7047000080B582B0F1
S32D0000D75000AF786039607B68012B0CD13B684FF6FF72934207D1064808F050F9054A0649034807F017FE00BF56
S32D0000D7780837BD4680BD00BFE4170020000000202D5A010080B500AF4FF6FF710120FFF7D9FF80BD80B400AFDA
S32D0000D7A0024B1846BD4680BC704700BFFFFF7F7F2DE9B04384B000AFF860B9607A603B60FB684FF4A0721A60FB
S32D0000D7C8FB68F0225A60FB686FF07F429A60FB684C4ADA60FB684C4A1A61FB6800225A61FB684A4A9A62FB684A
S32D0000D7F0002283F82D20FB685C33184625F00AF9FB681B68184639F04BFA4FF000024FF0804339F0E9FB02466F
S32D0000D8180B4614461D46786825F052F90346184639F03AFA4FF000024FF0804339F0D8FB02460B469046994603
S32D0000D840354805F0A3FC0346184639F039FA02460B464046494639F09DFA02460B462046294639F0DFF8024682
S32D0000D8680B461046194639F073FD0246FB685A63B86839F077FE0246FB689A63786825F01FF90446224805F06F
S32D0000D8907DFC034604FB03F3184639F063FE0246FB685A651C4805F07BFC0346184639F05DFE0246FB689A65BC
S32D0000D8B8FB685C337968184625F0BCF8FB6800221A76FB6801225A76FB68002283F82C20FB68002283F82D2044
S32D0000D8E03A68FB68DA61BA6AFB681A62FB681B691A46FB685A62FB68DA69FB681A63FB6818461037BD46BDE83B
S32D0000D908B08300BF6666660021212100E22B8A00C81A0020F0B58BB002AF78607B681B6B1946334806F02BF80C
S32D0000D9307B685C6B304805F029FC0346184639F015FE03461946204639F05AFD034618463AF03CF805467B68E9
S32D0000D9589B6B18463AF036F806467B685C6D244805F010FC03465B00184639F0FBFD03461946204639F042FDE7
S32D0000D980034618463AF022F804467B689B6D18463AF01CF803460093234632462946164806F0A9FC7B6803F1C1
S32D0000D9A85C0207F108031146184625F01BFB7B685B6B18463AF006F804467B689B6B4FF08141184639F01AFD0F
S32D0000D9D00346184639F0FAFF034607F108012246054806F006F807F10803184625F01AF800BF2437BD46F0BD1B
S32D0000D9F8C81A0020B0B584B000AF78607B685B7E002B00F046810023FB730023BB737B6803F13C017B684033F5
S32D0000DA201A46924806F094F87B68DC6B7B685D6B8E4805F0ABFB0346184639F097FD03461946284639F0DCFC5B
S32D0000DA4803461946204639F093FF0346002B44D07B68DC6B7B685A6B7B685B6D1946104639F0CCFC03461D4690
S32D0000DA707E4805F08BFB0346184639F077FD03461946284639F0BEFC03464FF07E51184639F0B6FC03461946D2
S32D0000DA98204639F063FF0346002B1ED07B681A6C7B689B6B1946104639F062FF0346002B13D07B681C6C7B68D7
S32D0000DAC09A6B7B689B6D1946104639F09BFC03461946204639F046FF0346002B01D0012200E000227B6883F88F
S32D0000DAE82C207B6803F13C017B6840331A465D4806F02AF8034683F00103DBB2002B6ED17B6803F144017B6887
S32D0000DB1048331A46554806F01BF80346002B62D07B68DC6B7B685D6B504805F039FB0346184639F01BFD0346F9
S32D0000DB381946284639F060FC03461946204639F017FF0346002B27D07B68DC6B7B685A6B7B685B6D1946104683
S32D0000DB6039F050FC03461D46404805F00FFB0346184639F0FBFC03461946284639F042FC03464FF07E511846F6
S32D0000DB8839F03AFC03461946204639F0E7FE0346002B01D0012300E00023FB737B681A6C7B689B6B1946104613
S32D0000DBB039F0E2FE0346002B13D07B681C6C7B689A6B7B689B6D1946104639F01BFC03461946204639F0C6FEB9
S32D0000DBD80346002B01D0012300E00023BB73FB7B002B19D0BB7B002B16D07B685B69002B03D17B6801225A614D
S32D0000DC0006E07B685B69012B02D17B6802225A617B681A6A7B681A637B6801221A763CE07B685B69022B03D187
S32D0000DC287B6803225A6106E07B685B69032B02D17B6800225A617B6893F82C30002B13D07B689A6A7B681A639E
S32D0000DC507B6893F82D3083F00103DBB2002B0FD07B68012283F82D200AE000BFC81A00207B68DA697B681A63CE
S32D0000DC787B68002283F82D207B6800221A76FFF789FD02467B68DA63FFF784FD02467B681A647868FFF73EFE06
S32D0000DCA000BF1037BD46B0BD80B485B000AF78600023FB737B685B69012B04D17B6802225A610123FB73FB7BED
S32D0000DCC818461437BD4680BC704780B582B000AF78603960386839F045FC02467B689A6500BF0837BD4680BD96
S32D0000DCF080B483B000AF786039607A683B68134018460C37BD4680BC704780B483B000AF786039607A683B6804
S32D0000DD18134318460C37BD4680BC704780B483B000AF78607B68DB4318460C37BD4680BC704780B582B000AF54
S32D0000DD40786039607B681B6839681846FFF7DDFF02467B681A607B6818460837BD4680BD80B582B000AF7860BA
S32D0000DD6839607B681B6839681846FFF7BDFF02467B681A607B6818460837BD4680BD90B587B000AFF860B960DC
S32D0000DD907A60FB68DB687B61FB6803F10C047868FFF7C0FF034619462046FFF7D9FFFB6803F10C047968B868C9
S32D0000DDB8FFF79AFF034619462046FFF7BAFF7B6918461C37BD4690BD80B582B000AF78604FF4827204217868E2
S32D0000DDE0FFF7D1FF7B6818460837BD4680BD80B483B000AF78607B6818460C37BD4680BC70470000B0B584B08E
S32D0000DE0800AFF860B9607A603B60FB684FF4A0721A60FB68F0225A60FB686FF07F429A60FB68684ADA60FB68C7
S32D0000DE301C33184624F0EEFDFB683433184624F0E9FDFB68624A1A66FB684FF081425A66FB68604AC3F88420D6
S32D0000DE58FB68002283F88920FB680022C3F88C20FB681B68184638F017FF4FF000024FF0804339F0B5F8024624
S32D0000DE800B4614461D46786838F02CFF4FF000024FF0804339F0A8F802460B462046294638F0C0FD02460B463B
S32D0000DEA81046194639F054FA0246FB689A66B86839F058FB0246FB68DA66FB689B6E184638F00CFF04460D4654
S32D0000DED0786838F007FF4FF000024FF0804339F083F802460B462046294638F09DFD02460B461046194639F088
S32D0000DEF82FFA0246FB689A65FB68DB6E184638F0EDFE04460D46FB685B6E184638F0E6FE4FF000024FF0804396
S32D0000DF2039F062F802460B462046294638F07CFD02460B461046194639F00EFA0246FB68DA65FB687A68C3F8D8
S32D0000DF488020FB683A689A61FB683A6A1A61FB687A6A5A61FB68FA6ADA64FB68BA6A1A65B86A38F0BBFE04462F
S32D0000DF700D46B96AF86A39F043FA0346184638F0B1FE4FF000024FF0804339F02DF802460B462046294638F0A0
S32D0000DF9847FD02460B461046194639F0D9F90246FB689A61FB6834330949184624F004FFFB68002283F88820EF
S32D0000DFC0FB6818461037BD46B0BD00BF666666000000C0400000A0404CA8050090B585B000AF78600023FB735F
S32D0000DFE80023BB737B689B691946786800F034FA7B6803F170017B6874331A469B4805F0A3FD034683F001030C
S32D0000E010DBB2002B5ED17B6803F178017B687C331A46944805F094FD0346002B52D07B681B6F184639F0CAFC07
S32D0000E03804467B685B6F184639F0C4FC03461A462146786800F054FA0346FB737B681A6F7B689B6E194610468A
S32D0000E06039F08AFC0346002B32D07B681C6F7B689A6E7B68D3F880301946104639F0C2F903461946204639F0E6
S32D0000E0886DFC0346002B1FD07B685A6F7B68DB6E1946104639F06CFC0346002B14D07B685C6F7B68DA6E7B686C
S32D0000E0B0D3F884301946104639F0A4F903461946204639F04FFC0346002B01D0012300E00023BB73FB7B002B8B
S32D0000E0D817D07B68D3F88C30002B04D17B680122C3F88C2020E07B68D3F88C30012B1BD17B680222C3F88C206C
S32D0000E1007B68012283F8882012E07B68D3F88C30022B04D17B680322C3F88C2008E07B68D3F88C30032B03D1A7
S32D0000E1287B680022C3F88C20BB7B002B03D07B681A6F7B689A657B6803F178017B687C331A464A4805F000FD15
S32D0000E15003461A467B6883F889207B6893F88830002B37D07B6893F88930002B32D07B681A6F7B689A657B6814
S32D0000E1789C6D7B689A6E7B68D3F880301946104639F03CF903461946204639F0F1FB0346002B0CD07B689A6EB6
S32D0000E1A07B68D3F880301946104639F02BF903461A467B689A657B689A6D7B689B6E1946104639F0CFFB03469F
S32D0000E1C8002B03D07B689A6E7B689A657B6893F8893083F00103DBB2002B03D07B68002283F888207B689A6D23
S32D0000E1F07B689B6E1946104639F002F903461A467B68D3F880301946104639F0B7FA0346BB607B68DA6C7B6836
S32D0000E2181B6D1946104639F0EFF80346B968184639F0F4F903461A467B681B6D1946104639F0E4F803461A4636
S32D0000E2407B689A614FF07E51B86839F077FB0346002B08D07B6893F85430002B03D07B684FF0FF429A6178688F
S32D0000E26800F006F800BF1437BD4690BDC81A0020F0B591B002AF78607B685B691946754805F07DFB7B689B6EB3
S32D0000E290184639F09BFB04467B68DB6E184639F095FB05467B68D3F88030184639F08EFB06467B68D3F884304F
S32D0000E2B8184639F087FB0346009333462A462146644806F014F87B681B691946614805F056FB7B68996D7B68D4
S32D0000E2E0DA6D7B68186E7B685B6E009303465B4806F0B4F97B6803F11C0207F108031146184624F073FE7B687D
S32D0000E3089A6E7B68D3F880301946104639F076F803464FF08241184639F070F80346184639F050FB06467B68B1
S32D0000E330DB6D184638F0D6FC04460D467B685B6E184638F0CFFC4FF000024FF0804338F04BFE02460B462046D2
S32D0000E358294638F063FB02460B46104619464FF000024FF0804338F059FB02460B461046194638F0A5FF034632
S32D0000E38007F108013246354805F033FB07F10803184624F047FB7B6803F1340207F120031146184624F022FE8E
S32D0000E3A87B689C6E7B683433184624F089FB0546284804F0E7FE034605FB03F3184639F0CDF8034619462046ED
S32D0000E3D039F016F803464FF08241184639F010F80346184639F0F2FA06467B68DB6D184638F078FC04460D4644
S32D0000E3F87B685B6E184638F071FC4FF000024FF0804338F0EDFD02460B462046294638F005FB02460B4610467E
S32D0000E42019464FF000024FF0804338F0FBFA02460B461046194638F047FF034607F120013246064805F0D5FA67
S32D0000E44807F12003184624F0E9FA00BF3C37BD46F0BD00BFC81A002090B5BDB000AF7860396007F10803184660
S32D0000E47023F022FF07F1080308331849184623F0EBF804460220FFF7B2FC03461946204623F06CF903463968D7
S32D0000E498184623F019FA7B6803F11C0407F1D80307F108021146184623F06AFF07F1D8031946204624F0C4FA6B
S32D0000E4C007F1D803184624F0ADFA07F10803184623F0A2FB00BFF437BD4690BDD1DD000080B483B000AF78605B
S32D0000E4E87B689B6918460C37BD4680BC704700002DE9B0438AB000AFF860B9607A60B86839F030F80246FB682F
S32D0000E5109B6D1946104638F073FF0346184638F0E1FB02460B46C7E90823786839F01EF80246FB68DB6D1946F6
S32D0000E538104638F061FF0346184638F0CFFB02460B46C7E90623D7E90823D7E9080138F01DFC02460B461446E4
S32D0000E5601D46FB681A6EFB681B6E1946104639F051F80346184638F0B5FB02460B462046294638F031FD0246A1
S32D0000E5880B4614461D46D7E90623D7E9060138F0FDFB02460B4690469946FB685A6EFB685B6E1946104639F004
S32D0000E5B031F80346184638F095FB02460B464046494638F011FD02460B462046294638F02BFA02460B46C7E9CD
S32D0000E5D8042301231C464FF00002084BD7E9040138F050FE0346002B01D100231C46E3B218462837BD46BDE8D4
S32D0000E600B08300BF0000F03F80B483B000AF78607B6893F8883018460C37BD4680BC704780B582B000AF786032
S32D0000E62839607B68012B0CD13B684FF6FF72934207D1064807F0E6F9054A0649034806F0ADFE00BF0837BD468A
S32D0000E65080BD00BFE8170020000000202D5A010080B500AF4FF6FF710120FFF7D9FF80BD80B586B002AF786020
S32D0000E67839603A23FB60386838F030FB02460B467868CDE90023044B3A22044900F042F978681037BD4680BD54
S32D0000E6A050A805008D13050090B583B000AF7860396004F015F80346184638F053FF03467968184638F09CFEA6
S32D0000E6C80346012214461946386839F047F90346002B01D100231C46E3B218460C37BD4690BD000080B582B03E
S32D0000E6F000AF7860064A7B681A607B680433184624F088F97B6818460837BD4680BD00BFDCA8050080B582B04C
S32D0000E71800AF7860064A7B681A607B680433184624F07CF97B6818460837BD4680BD00BFDCA8050080B582B02F
S32D0000E74000AF78607868FFF7E5FF1C21786806F0ADFE7B6818460837BD4680BD90B585B000AF786039607B686F
S32D0000E7681846FFF7BFFF164A7B681A607B683A68DA617B6803F1280407F10C03184606F063FF07F10C031A46CD
S32D0000E7900E49204624F070FC07F10C03184606F059FF03F09DFF0346184638F0DBFE02467B681A627B68002288
S32D0000E7B883F824207B6818461437BD4690BD00BFB8A8050054A8050080B582B000AF786003F082FF034618466A
S32D0000E7E038F0C0FE02467B681A6200BF0837BD4680BD000080B58AB000AF78607B68D8694FF000032B4A4FF030
S32D0000E808000101F0BFFA7B68DB69184601F0D2FA002300222649274805F0C4F803F05CFF0346184638F09AFE6C
S32D0000E83002467B681B6A1946104638F0E1FD03467B6207F10C03796A1846FFF711FF0F2300221B49194805F0CD
S32D0000E858A9F807F10C03184624F0A2FB01461E230022144805F09EF82D2300221349114805F098F87B681B6A36
S32D0000E88011491846FFF710FF0346002B08D07B68DB69184601F094FB7B68012283F8242007F10C03184624F01E
S32D0000E8A8BDF800BF2837BD4680BD00BFCDCC4CBF60A80500C81A002074A8050080A8050000803B4580B483B008
S32D0000E8D000AF78607B6893F8243018460C37BD4680BC704780B483B000AF78607B68012283F8242000BF0C3785
S32D0000E8F8BD4680BC704780B582B000AF786039603B6828331946786824F06CFB78680837BD4680BD08B490B55D
S32D0000E92088B000AFF860B9607A607B680733DB08DB00ADEB030D6B460733DB08DB00FB6107F130033B61BC6824
S32D0000E9483B69FA6A7968F869A047B861BB69FA69D41807F11403184606F076FE07F114032246F969F86800F0E4
S32D0000E9700CF807F11403184606F06CFEF8682037BD46BDE8904001B0704790B585B000AFF860B9607A603B6002
S32D0000E998FC68F86823F02EFF03463A681946204624F01EFB7A68B968F86800F005F8FB6818461437BD4690BDC4
S32D0000E9C080B584B000AFF860B9607A607A68B968F86800F004F800BF1037BD4680BD90B587B000AFF860B96095
S32D0000E9E87A603B7023467A68B968F86800F004F800BF1C37BD4690BD80B586B000AFF860B9607A603B70B86832
S32D0000EA1000F03EF80346002B05D0BA687B689A4201D0012300E00023002B02D0174818F0F7FE7968B86800F046
S32D0000EA383AF803467B617B690F2B10D907F1140300221946F86823F0DFFE03461946F86823F0CCFE7B6919464A
S32D0000EA60F86823F0CDFEF86823F0C6FE03467A68B968184623F018FF7B691946F86823F0C1FE00BF1837BD46B9
S32D0000EA8880BD00BF84A8050080B483B000AF78607B68002B0CBF01230023DBB218460C37BD4680BC7047B0B59C
S32D0000EAB082B000AF786039607C683B1D184600F00AF82A463968204600F00FF8034618460837BD46B0BD80B462
S32D0000EAD883B000AF786000BF18460C37BD4680BC704780B485B000AFF860B9603A71BA68FB68D31A18461437B1
S32D0000EB00BD4680BC7047000080B582B000AF7860084A7B681A607B682833184623F082FF7B681846FFF7F6FDFA
S32D0000EB287B6818460837BD4680BD00BFB8A8050080B582B000AF78607868FFF7E1FF4021786806F0AFFC7B6872
S32D0000EB5018460837BD4680BD90B585B000AF786039607B681846FFF7C1FD164A7B681A607B683A68DA617B68CB
S32D0000EB7803F1280407F10C03184606F065FD07F10C031A460E49204624F072FA07F10C03184606F05BFD03F048
S32D0000EBA09FFD0346184638F0DDFC02467B681A627B68002283F824207B6818461437BD4690BD00BF8CA90500C3
S32D0000EBC828A9050080B582B000AF786003F084FD0346184638F0C2FC02467B681A6200BF0837BD4680BD000075
S32D0000EBF080B58AB000AF78607B68D8694FF000032B4A4FF0000101F0C1F87B68DB69184601F0D4F800230022B5
S32D0000EC182649274804F0C6FE03F05EFD0346184638F09CFC02467B681B6A1946104638F0E3FB03467B6207F1FA
S32D0000EC400C03796A1846FFF713FD0F2300221B49194804F0ABFE07F10C03184624F0A4F901461E23002214487E
S32D0000EC6804F0A0FE2D2300221349114804F09AFE7B681B6A11491846FFF712FD0346002B08D07B68DB69184643
S32D0000EC9001F096F97B68012283F8242007F10C03184623F0BFFE00BF2837BD4680BD00BFCDCC4C3F34A90500B9
S32D0000ECB8C81A002048A9050054A9050000803B4580B483B000AF78607B6893F8243018460C37BD4680BC7047ED
S32D0000ECE080B483B000AF78607B68012283F8242000BF0C37BD4680BC704780B582B000AF786039603B682833D6
S32D0000ED081946786824F06EF978680837BD4680BD80B582B000AF7860084A7B681A607B682833184623F07AFE00
S32D0000ED307B681846FFF7EEFC7B6818460837BD4680BD00BF8CA9050080B582B000AF78607868FFF7E1FF4021D6
S32D0000ED58786806F0A7FB7B6818460837BD4680BD80B483B000AF786039603B6818460C37BD4680BC704780B55F
S32D0000ED8082B000AF78607B68184600F0DBF87B6818460837BD4680BD80B582B000AF78607B681846FFF7EBFFD9
S32D0000EDA87B6818460837BD4680BD000080B582B000AF78607B680833184623F027FE7B6820331846FFF7E4FF6E
S32D0000EDD07B6800225A607B6808330749184623F0EFFF7B6800221A707B6800225A707B6818460837BD4680BD6B
S32D0000EDF8C0A9050090B583B000AF786039607B6803F12004386800F0A9F803461946204600F0AEF800BF0C3715
S32D0000EE20BD4690BD90B58BB000AF78607B682033184600F0B2F878627B685B687A6A9A4256D97B6803F12002D7
S32D0000EE487B685B681946104600F0B2F838627B6803F10804386A00F0BAF803461A681032126807F10800194600
S32D0000EE70904707F108031946204623F0E5FD07F10803184623F0CEFD386A00F0A4F803461A6808321268184696
S32D0000EE989047034683F00103DBB2002B1BD07B685B7883F00103DBB2002B0AD0386A00F08EF803461A681268F6
S32D0000EEC0184690477B6801225A70386A00F083F803461A68043212681846904711E07B685B685A1C7B685A60B8
S32D0000EEE87B6800225A7008E07B6801221A707B6808330449184623F05FFF00BF2C37BD4690BD00BFC0A90500DC
S32D0000EF1080B582B000AF786039603B6808331946786824F063F878680837BD4680BD80B483B000AF78607B6890
S32D0000EF381B7818460C37BD4680BC704780B582B000AF7860786800F04EF87B68184600F056F87B68184608377E
S32D0000EF60BD4680BD80B483B000AF78607B6818460C37BD4680BC704780B582B000AF786039603868FFF7EEFFD1
S32D0000EF8803461946786800F04DF800BF0837BD4680BD80B483B000AF78607B685A687B681B68D31A9B10184671
S32D0000EFB00C37BD4680BC704780B483B000AF786039607B681A683B689B00134418460C37BD4680BC704780B5AD
S32D0000EFD882B000AF7860786800F052F8034618460837BD4680BD80B582B000AF7860786800F053F87B681846C8
S32D0000F0000837BD4680BD80B483B000AF78607B6800221A607B6800225A607B6800229A607B6818460C37BD46B1
S32D0000F02880BC7047B0B582B000AF786039607B685A687B689B689A4211D07C687B685D68386800F034F8034637
S32D0000F0501A462946204600F038F87B685B681A1D7B685A600CE0786800F042F80446386800F021F803461A4631
S32D0000F0782146786800F05EF800BF0837BD46B0BD80B582B000AF78607B68184600F00EF9034618460837BD4660
S32D0000F0A080BD80B483B000AF78607B6818460C37BD4680BC704780B483B000AF78607B6818460C37BD4680BCEC
S32D0000F0C8704780B584B000AFF860B9607A607868FFF7EDFF03461A46B968F86800F014F900BF1037BD4680BDD1
S32D0000F0F080B584B000AF78607B681A1D07F10C031146184600F01CF9FB6818461037BD4680BD80B582B000AFC9
S32D0000F118184600F005F8034618460837BD4680BD80B483B000AF3871012318460C37BD4680BC7047B0B58CB03D
S32D0000F14000AFF860B9607A60594A0121F86800F006F9B862FB681B687B62FB685B683B62F86800F043F903461E
S32D0000F1687B6107F1140207F108031146184600F049F90346FB61FB68B96A184600F057F9B861BB69FB62FC68DE
S32D0000F190FB699B00BA69D5187868FFF78CFF03461A4629462046FFF790FF0023FB62FFF7B0FF0346002B27D04E
S32D0000F1B807F10803184600F062F903461C68FB681846FDF7EDFD0346BA692146786A00F042F9F862FB6A04333B
S32D0000F1E0FB6207F10803184600F04DF903461C68FB681846FDF7D8FD0346FA6A396A204600F02DF9F86226E08A
S32D0000F20807F10803184600F03AF903461C68FB681846FDF7C5FD0346BA692146786A00F038F9F862FB6A043344
S32D0000F230FB6207F10803184600F025F903461C68FB681846FDF7B0FD0346FA6A396A204600F023F9F862FFF7A3
S32D0000F2585CFF034683F00103DBB2002B09D0FB681846FDF79DFD03461A46396A786AFDF7A1FDF868FB689A6808
S32D0000F2807B6AD31A9B101A46796AFDF7F2FEFB68BA691A60FB68FA6A5A60BB6A9B00BA691A44FB689A6000BFDE
S32D0000F2A83037BD46B0BD00BFC8A9050080B582B000AF78607B68184600F011F903461B6818460837BD4680BD5A
S32D0000F2D080B582B000AF786039607B683A681146184600F01DF97B6818460837BD4680BD80B582B000AF78609B
S32D0000F2F839607B683A6811461846FFF7E5FF7B6818460837BD4680BD90B585B000AFF860B9607A607868FFF731
S32D0000F320CAFE0446BB6819460420FFF71DFD034621461846FFF7DCFF00BF1437BD4690BD80B483B000AF7860D0
S32D0000F34839603B681A687B681A607B6818460C37BD4680BC704790B587B000AFF860B9607A60F86800F0F2F852
S32D0000F3700446F868FFF711FE0346E21ABB689A4234BF01230023DBB2002B02D0786818F05FFAF868FFF701FE22
S32D0000F3980446F868FFF7FDFD03463B6107F1080207F110031146184600F0E1F803461B6823447B61F868FFF7D8
S32D0000F3C0ECFD02467B69934206D3F86800F0C2F802467B69934204D9F86800F0BBF8034600E07B6918461C37B3
S32D0000F3E8BD4690BD80B584B000AF78607A6807F10C0311461846FFF79FFFFB6818461037BD4680BD90B583B0C5
S32D0000F41000AF78603960786800F035F803461C68386800F030F803461B68E31A9B1018460C37BD4690BD80B592
S32D0000F43882B000AF786039603B68002B06D07B683968184600F0A6F8034600E0002318460837BD4680BD90B5D2
S32D0000F46087B002AFF860B9607A603B608DF800403B687A68B968F86800F09FF8034618461437BD4690BD80B4E8
S32D0000F48883B000AF78607B6818460C37BD4680BC704790B585B000AFF860B9607A603B60F86800F098F80446E9
S32D0000F4B0B86800F094F801463B687A68204600F09DF8034618461437BD4690BD80B582B000AF78603960396871
S32D0000F4D8786800F0A0F800BF0837BD4680BD80B582B000AF78607B68184600F0A0F8034618460837BD4680BD83
S32D0000F50080B582B000AF786039607B683A681146184600F0A6F87B6818460837BD4680BD90B583B000AF7860CF
S32D0000F52839607C683B68184600F08DF8034619462046FFF7E1FF3868FDF7D5FC034600221A607B6818460C3710
S32D0000F550BD4690BD80B582B000AF78607B68184600F0BCF80346184600F09EF8034618460837BD4680BD80B4E3
S32D0000F57883B000AF786039607B681A683B681B689A4201D23B6800E07B6818460C37BD4680BC704780B582B074
S32D0000F5A000AF7860396000223968786800F0A0F8034618460837BD4680BD80B584B000AFF860B9607A603B60CE
S32D0000F5C83B687A68B968F86800F0ACF8034618461037BD4680BD80B584B000AF786007F10C037968184600F027
S32D0000F5F0BAF8FB6818461037BD4680BD80B584B000AFF860B9607A603B607A68B968F86800F0BBF80346184648
S32D0000F6181037BD4680BD80B582B000AF786039603868FDF70DFB00BF0837BD4680BD80B582B000AF786078680E
S32D0000F64000F0B5F8034618460837BD4680BD80B483B000AF78607B6818460C37BD4680BC704790B583B000AF4A
S32D0000F66878603960386800F0ABF80346184600F0B1F803461946786800F0C0F87C683868FDF789FD03461846BB
S32D0000F69000F0AEF803461946204600F0C9F87B6818460C37BD4690BD80B584B000AF78606FF06043FB607868F6
S32D0000F6B800F0CBF80346BB6007F1080207F10C031146184600F0CDF803461B6818461037BD4680BD80B483B082
S32D0000F6E000AF78607B6818460C37BD4680BC704780B584B000AFF860B9607A60F86800F0C7F80246BB68934249
S32D0000F7088CBF01230023DBB2002B01D018F064F8BB689B00184605F0C7FE034618461037BD4680BDB0B584B0B7
S32D0000F73000AFF860B9607A603B60F86800F0B3F80446B86800F0AFF80546786800F0ABF802463B68294620469C
S32D0000F75800F0AFF8034618461037BD46B0BD80B582B000AF786039603B46184600F0C7F803461A687B681A6051
S32D0000F7807B6818460837BD4680BD80B586B000AFF860B9607A600123FB757A68B968F86800F0BBF803461846F5
S32D0000F7A81837BD4680BD80B582B000AF78607B68184600F0DDF8034618460837BD4680BD80B483B000AF78609C
S32D0000F7D07B6818460C37BD4680BC704780B483B000AF78607B6818460C37BD4680BC704780B483B000AF78603B
S32D0000F7F87B6818460C37BD4680BC704780B582B000AF786039603868FDF7D9FD0346184600F0B8F80346194689
S32D0000F820786800F0BDF87B6818460837BD4680BD80B582B000AF786039603868FFF7D8FF03461A687B681A6059
S32D0000F8487B6818460837BD4680BD80B582B000AF7860786800F0ADF8034618460837BD4680BD80B483B000AF33
S32D0000F870786039603B681A687B681B689A4201D23B6800E07B6818460C37BD4680BC704780B483B000AF7860D4
S32D0000F8986FF0604318460C37BD4680BC704780B483B000AF78607B6818460C37BD4680BC704790B587B000AF16
S32D0000F8C0F860B9607A603B607B687B61FA68BB689A4213D07869FDF7E0FD0446F868FDF7DCFD03463A681946BE
S32D0000F8E8204600F072F8FB680433FB607B6904337B61E7E77B6918461C37BD4690BD80B483B000AF78607B68C2
S32D0000F91018460C37BD4680BC704790B587B000AFF860B9607A607B687B6107F1080207F10C031146184600F04F
S32D0000F93867F80346002B16D07869FDF7AAFD044607F10C03184600F07BF803461946204600F081F807F10C03DC
S32D0000F960184600F062F87B6904337B61DDE77B6918461C37BD4690BD80B483B000AF78607B6818460C37BD46BC
S32D0000F98880BC704780B483B000AF78607B6818460C37BD4680BC704780B582B000AF786039603868FFF7EEFFEC
S32D0000F9B07B6818460837BD4680BD80B582B000AF78607868FFF764FF034618460837BD4680BD80B584B000AF04
S32D0000F9D8F860B9607A60B868FFF7C0FA03461A46F9687868FFF76DFBB868FDF752FD034619467868FFF766FD5A
S32D0000FA0000BF1037BD4680BD80B582B000AF786039603968786800F039F8034683F00103DBB218460837BD467C
S32D0000FA2880BD80B483B000AF78607B681B681A1D7B681A607B6818460C37BD4680BC704780B483B000AF786023
S32D0000FA507B681B6818460C37BD4680BC704790B583B000AF786039603868FFF724FB04467B6819460420FFF798
S32D0000FA7877F9034621461846FFF736FC00BF0C37BD4690BD90B583B000AF78603960786800F00EF80446386810
S32D0000FAA000F00AF803469C420CBF01230023DBB218460C37BD4690BD80B483B000AF78607B681B6818460C379A
S32D0000FAC8BD4680BC704780B483B000AF78607B6823F0004318460C37BD4680BC704780B582B000AF786078688E
S32D0000FAF036F05EF8034618460837BD4680BD80B584B000AFF860B9607A60B968F86837F029FF0346002B01D0CE
S32D0000FB18BB6809E07968F86837F02AFF0346002B01D07B6800E0FB6818461037BD4680BD90B583B000AF7860D3
S32D0000FB4039607B681A683B681B681946104637F061FD03461C467B6804331A683B6804331B681946104637F0B9
S32D0000FB6855FD03461946204637F048FC034618460C37BD4690BD90B583B000AF78607B681A687B681B68194641
S32D0000FB90104637F03FFD03461C467B6804331A687B6804331B681946104637F033FD03461946204637F026FC47
S32D0000FBB803461846FFF793FF034618460C37BD4690BD80B584B000AF786039607868FFF7D2FFF8604FF00001EE
S32D0000FBE0F86837F0ABFE0346002B02D04FF0000309E079683868FFF79FFF0346F968184637F0BCFD03461846B2
S32D0000FC081037BD4680BD000080B582B000AF7860084611461A460346FB700B46BB7013467B707868BA78F9785D
S32D0000FC30FB6900F015FA7B6803F130003A7C7978FB6900F00DFA7B6803F160003A7E397DFB6900F005FA7B685F
S32D0000FC584FF07E52C3F890207B684FF00002C3F894207B68434A983392E8030083E803007B68414AA03392E890
S32D0000FC80030083E803007B684FF00002C3F8A8207B684FF00002C3F8AC207B684FF00002C3F8B0207B684FF0C2
S32D0000FCA80002C3F8B4207B684FF00002C3F8B8207B684FF00002C3F8BC207B684FF00002C3F8C0207B684FF04A
S32D0000FCD00002C3F8C4207B684FF00002C3F8C8207B68002283F8D2207B68012283F8D3207B68022283F8D42042
S32D0000FCF87B684FF00002C3F8D8207B684FF00002C3F8DC207B684FF00002C3F8E0207B681A4AC3F8E8207B6860
S32D0000FD204FF07E52C3F8EC207B684FF07E52C3F8F0207B68144AC3F8F4207B68FA7883F8CC207B687A7883F806
S32D0000FD48CE207B683A7D83F8D0207B68BA7883F8CD207B683A7C83F8CF207B683A7E83F8D1207B68FA69C3F812
S32D0000FD70E4207B6818460837BD4680BDE4A90500ECA9050000001041CDCCCC3D80B485B000AFF860B9607A601F
S32D0000FD983B60FB68BA68C3F8A820FB687A68C3F8AC20FB683A68C3F8B02000BF1437BD4680BC704790B58FB0BA
S32D0000FDC000AF78607B6803F190027B68A83319461046FFF7FAFE78637B6803F198027B68A83319461046FFF70F
S32D0000FDE8F0FE38637B6803F1A0027B68A83319461046FFF7E6FEF8627B68D3F8BC30BB627B68D3F8B0307B6222
S32D0000FE10B96A786A37F0F4FA03463B627B68D3F8F430396A184637F0F5FB034618467B68D3F8F03083F00041B1
S32D0000FE387B68D3F8F0301A46FFF75DFEF861F969786B37F0DBFA03467B63F969386B37F0D5FA03463B63F96918
S32D0000FE60F86A37F0CFFA0346FB62786BFFF72FFE0346FB60386BFFF72AFE03463B61F86AFFF725FE03467B618C
S32D0000FE8807F1140207F110031146184600F0B3F8024607F10C031146184600F0ACF803461B68BB617B68D3F8B5
S32D0000FEB0EC301946B86937F069FD0346002B29D07B68D3F8EC30B969184637F057FC03461946786B37F09EFB7F
S32D0000FED803467B637B68D3F8EC30B969184637F049FC03461946386B37F090FB03463B637B68D3F8EC30B9694F
S32D0000FF00184637F03BFC03461946F86A37F082FB0346FB62BB6983F00043BA691946786BFFF7EDFD02467B6879
S32D0000FF28C3F8D820BB6983F00043BA691946386BFFF7E1FD02467B68C3F8DC20BB6983F00043BA691946F86A85
S32D0000FF50FFF7D5FD02467B68C3F8E0207C687B68D3F8D8301549184637F054FB03461946204600F0BDF87B6873
S32D0000FF7803F130047B68D3F8DC300E49184637F045FB03461946204600F0AEF87B6803F160047B68D3F8E030C0
S32D0000FFA00649184637F036FB03461946204600F09FF800BF3C37BD4690BD00BF0000C84280B582B000AF786060
S32D0000FFC84FF000034FF000024FF000017868FFF7D9FE7B68184600F0B9F87B683033184600F0B4F87B68603303
S32D0000FFF0184600F0AFF800BF0837BD4680BD80B582B000AF786039607B681A683B681B681946104637F09CFC2A
S32D000100180346002B01D03B6800E07B6818460837BD4680BD80B582B000AF7860094803F060FC0421074803F03C
S32D0001004067FC0221054803F08AFC786822F0ACFF03461946014803F0B1FEEEE7C81A002080B584B000AFF860CE
S32D000100687B600B46FB721346BB72FB681C4A5A60FB684FF07E52DA60FB681033F97A7A68184600F0C1FBFB68B3
S32D000100901933BA7A1146184602F03EFBFB684FF49F729A62FB68114ADA62FB68FA7A1A70FB687A689A60FB6831
S32D000100B89B6A184637F052FA0246FB685A62FB689A7EFB689A76FB681933184602F0CEFDFB6802221A76FB68AA
S32D000100E018461037BD4680BD00001041D153FB4080B58AB000AF786039607B681B7E022B06D17B681033396886
S32D00010108184600F001FC1BE007F12403184605F09BFA07F1240207F10C030B49184622F0A7FF07F10C03184687
S32D00010130FFF77CFF07F10C03184622F073FC07F12403184605F086FA00BF2837BD4680BDF4A9050080B582B0F0
S32D0001015800AF78607B681033184600F093FB00BF0837BD4680BD000080B500AF0F4BD3F8A03003F48053002BE3
S32D0001018014BF01230023DBB2002B10D0094BD3F8A030084A23F48053C2F8A030064805F08FF8064B1B68054AFC
S32D000101A823F40053136000BF80BD00BF00C00440501B0020C0F00F4080B400AF124B4FF480725A63114B5B69B0
S32D000101D0104A43F4005353610E4B1B680D4A43F4005313600A4B0C4A1A630C4BD3F888310A4A43F08063C2F811
S32D000101F88831084B9B68074A43F08063936000BFBD4680BC704700BF00C00440C0F00F4003010A0000E100E029
S32D0001022080B400AF334B00225A70324B98221A70304B9B79DBB203F01003002B14BF01230023DBB2002B00D0B2
S32D00010248F2E72A4B9B79DBB29B08DBB203F00303022B14BF01230023DBB2002B00D0F0E7224B18221A71214B2B
S32D0001027000225A71204B03F580531A461F4B53641C4B54225A711B4B9B79DBB203F02003002B0CBF01230023B9
S32D00010298DBB2002B00D0F2E7144B9B79DBB203F04003002B0CBF01230023DBB2002B00D0F2E70E4B1B78DBB289
S32D000102C00C4A03F03F03DBB213700A4B9B79DBB29B08DBB203F00303032B14BF01230023DBB2002B00D0F0E7AE
S32D000102E800231846BD4680BC704700BF00400640007004400000130180B500AF314B03F580539B6B2F4A43F482
S32D00010310785302F580529363FFF752FFFFF780FF2B4B58221A602A4B1B684FF47A7202FB03F3284A1360274B9D
S32D000103381B681A46234B03F580535B6C1B0E03F00F030133B2FBF3F31A46214B1A601D4B03F58053DB6B1B4A9A
S32D0001036043F0225302F58052D363184B03F580531B6B164A43F0006302F580521363174B4FF480721A61642048
S32D0001038802F05AF8134B5B69124A23F010035361104B00221A600F4B10225A610E4803F035F902F0DDFC02F038
S32D000103B03BFD0C4802F0A6F80B4804F0D5FF4FF4FA6002F051F900BF80BD00BF00700440141A0020101A002007
S32D000103D8181A002000D00340C81A00200C1A0020C01B002080B500AFFBF7A9FF00BF80BD80B500AFFBF7A3FF5C
S32D0001040000BF80BD80B500AFFBF79DFF00BF80BD80B500AFFBF797FF00BF80BD80B500AFFBF791FF00BF80BD99
S32D0001042880B500AFFBF78BFF00BF80BD80B500AFFBF785FF00BF80BD80B500AFFBF77FFF00BF80BD80B500AFBF
S32D00010450FBF779FF00BF80BD80B500AFFBF773FF00BF80BD80B500AFFBF76DFF00BF80BD80B500AFFBF767FF59
S32D0001047800BF80BD80B500AFFBF761FF00BF80BD80B500AFFBF75BFF00BF80BD80B500AFFBF755FF00BF80BDD5
S32D000104A080B500AFFBF74FFF00BF80BD80B500AFFBF749FF00BF80BD80B500AFFBF743FF00BF80BD80B500AFFB
S32D000104C8FBF73DFF00BF80BD80B500AFFBF737FF00BF80BD80B500AFFBF731FF00BF80BD80B500AFFBF72BFFD1
S32D000104F000BF80BD80B500AFFBF725FF00BF80BD80B500AFFBF71FFF00BF80BD80B500AFFBF719FF00BF80BD11
S32D0001051880B500AFFBF713FF00BF80BD80B500AFFBF70DFF00BF80BD80B500AFFBF707FF00BF80BD80B500AF36
S32D00010540FBF701FF00BF80BD80B500AFFBF7FBFE00BF80BD80B500AFFBF7F5FE00BF80BD80B500AFFBF7EFFE4B
S32D0001056800BF80BD80B500AFFBF7E9FE00BF80BD80B500AFFBF7E3FE00BF80BD80B500AFFBF7DDFE00BF80BD4F
S32D0001059080B500AFFBF7D7FE00BF80BD80B500AFFBF7D1FE00BF80BD80B500AFFBF7CBFE00BF80BD80B500AF75
S32D000105B8FBF7C5FE00BF80BD80B500AFFBF7BFFE00BF80BD80B500AFFBF7B9FE00BF80BD80B500AFFBF7B3FEC4
S32D000105E000BF80BD80B500AFFBF7ADFE00BF80BD80B500AFFBF7A7FE00BF80BD80B500AFFBF7A1FE00BF80BD8B
S32D0001060880B500AFFBF79BFE00BF80BD80B500AFFBF795FE00BF80BD80B500AFFBF78FFE00BF80BD80B500AFB0
S32D00010630FBF789FE00BF80BD80B500AFFBF783FE00BF80BD80B500AFFBF77DFE00BF80BD80B500AFFBF777FE3B
S32D0001065800BF80BD80B500AFFBF771FE00BF80BD80B500AFFBF76BFE00BF80BD80B500AFFBF765FE00BF80BDC6
S32D0001068080B500AFFBF75FFE00BF80BD80B500AFFBF759FE00BF80BD80B500AFFBF753FE00BF80BD80B500AFEC
S32D000106A8FBF74DFE00BF80BD80B500AFFBF747FE00BF80BD80B500AFFBF741FE00BF80BD80B500AFFBF73BFEB3
S32D000106D000BF80BD80B500AFFBF735FE00BF80BD80B500AFFBF72FFE00BF80BD80B500AFFBF729FE00BF80BD02
S32D000106F880B500AFFBF723FE00BF80BD80B500AFFBF71DFE00BF80BD80B500AFFBF717FE00BF80BD80B500AF28
S32D00010720FBF711FE00BF80BD80B500AFFBF70BFE00BF80BD80B500AFFBF705FE00BF80BD80B500AFFBF7FFFD2B
S32D0001074800BF80BD80B500AFFBF7F9FD00BF80BD80B500AFFBF7F3FD00BF80BD80B500AFFBF7EDFD00BF80BD40
S32D0001077080B500AFFBF7E7FD00BF80BD80B500AFFBF7E1FD00BF80BD80B500AFFBF7DBFD00BF80BD80B500AF66
S32D00010798FBF7D5FD00BF80BD80B500AFFBF7CFFD00BF80BD80B500AFFBF7C9FD00BF80BD80B500AFFBF7C3FDA6
S32D000107C000BF80BD80B500AFFBF7BDFD00BF80BD80B500AFFBF7B7FD00BF80BD80B500AFFBF7B1FD00BF80BD7C
S32D000107E880B500AFFBF7ABFD00BF80BD80B500AFFBF7A5FD00BF80BD80B500AFFBF79FFD00BF80BD0000000086
S32D0001081080B584B000AFF8600B467A60FB72FB68FA7A1A71FB6800225A711749786837F0ADF80346002B02D0AD
S32D00010838134B7B600AE04FF07E51786837F08EF80346002B02D04FF07E537B60786836F045FA09A3D3E90023D2
S32D0001086036F098FA02460B461046194636F074FD0246FB681A60FB6818461037BD4680BDABAAAAAAAAAA204002
S32D000108880000404180B582B000AF78607B685B79002B09D07B6800225A717B6819791E230022034801F064FED1
S32D000108B000BF0837BD4680BD0C1A002080B584B000AF786039603B687F2B02DD7F23FB7308E03B6813F1800FB2
S32D000108D802DA8023FB7301E03B68FB737B685B79FA7B9A4209D07B68FA7B5A717B681979FA7B1E23034801F0A7
S32D000109003BFE00BF1037BD4680BD00BF0C1A0020B0B584B000AF786039603749386837F017F80346002B02D0EF
S32D00010928334B3B6008E03349386837F02BF80346002B01D02F4B3B60386836F0CFF904460D467B681B681846F0
S32D0001095036F0C8F94FF00002294B36F045FB02460B462046294636F015FA02460B461046194636F0F1FC034629
S32D000109783B604FF00001386836F0FAFF0346002B10D0386836F0AAF917A3D3E9002336F0FDF902460B46104655
S32D000109A0194636F091FC0346FB6018E0386836F099F94FF00002134B36F0ECF902460B46104619464FF00002E9
S32D000109C80D4B36F00DFB02460B461046194636F077FC0346FB60F9687868FFF76BFF00BF1037BD46B0BD00BF19
S32D000109F052B81E85EB51F43F0000C8C20000C842000059400000604080B483B000AF03460A46FB711346BB714F
S32D00010A18BB79002B03D1134B00221A7002E0114B01221A703823FB710E4B1A78FB791343FB710D4B9B78DBB2A7
S32D00010A400B4A43F01003DBB29370094B9B78DBB2074A43F02003DBB29370054AFB79137100BF0C37BD4680BCA9
S32D00010A68704700BFE91700200060064080B483B000AF01237B607B68312B04DC00BF7B6801337B60F7E700BFA1
S32D00010A900C37BD4680BC704780B582B000AF03460A46FB711346BB71134B1B7800211846FFF7AAFF00F024F843
S32D00010AB8104AFB79137100F01FF80E4ABB79137100F01AF80B4B9B78DBB20A4A23F02003DBB29370074B9B782F
S32D00010AE0DBB2064A23F01003DBB29370FFF7C2FF00BF0837BD4680BDEA1700200060064080B483B000AF174B20
S32D00010B081B78002B24D100237B60154BDB78DBB203F00203002B0CBF01230023DBB2002B0DD07B6842F210726A
S32D00010B30934203DD0B4B01221A7004E07B6801337B6000BFE5E7084BDB78DBB2064A43F00203DBB2D37000E012
S32D00010B5800BF0C37BD4680BC704700BFEB1700200060064080B582B000AF0346FB71FB79184600F05FF800BF4C
S32D00010B800837BD4680BD80B582B000AF03460A46FB711346BB7100F035F8FB795B00DBB21846FFF7E3FFBB7944
S32D00010BA81846FFF7DFFF00F037F800BF0837BD4680BD80B500AFFF2000F03CF80346184680BD80B584B000AF6C
S32D00010BD00346FB7100F016F8FB795B005BB243F001035BB2DBB21846FFF7C0FFFFF7E5FF0346FB7300F014F8F6
S32D00010BF8FB7B18461037BD4680BD000080B400AF044B9B68034A43F48013936000BFBD4680BC704740F00F4000
S32D00010C2080B400AF044B5B68034A43F48013536000BFBD4680BC704740F00F4080B485B000AF0346FB710023C2
S32D00010C48BB73164BDB6A03F00043012B0CBF01230023DBB2002B03D0FB7B0133FB73F0E70E4BDB6A0D4A43F093
S32D00010C700043D3620B4AFB7953630A4BDB6A03F40033002B0CBF01230023DBB2002B00D0F3E7044B9B6BBB7378
S32D00010C98BB7B18461437BD4680BC704700C00A4080B582B000AF204B03F580531B6B1E4A43F4805302F5805241
S32D00010CC013631C4B4FF480721A651B4B5B691A4A43F480135361FFF7A3FF164B4FF400725A65144B4FF40072E7
S32D00010CE89A65124B4FF40072DA65124B124A1A60104B124ADA6000237B607B68092B06DCFF20FFF72FFF7B684C
S32D00010D1001337B60F5E704A1D1E9000101F0BAFC00BF0837BD4680BD9A9999999999B93F0070044000A004405D
S32D00010D3840F00F4000C00A40000C00800500003E90B486B000AFF860B9607A60FB68534A93420AD1524B03F57B
S32D00010D6080535B6B504A43F4806302F58052536345E0FB684D4A93420AD14B4B03F580535B6B494A43F4006375
S32D00010D8802F58052536336E0FB68474A93420AD1434B03F580535B6B414A43F4805302F58052536327E0FB6866
S32D00010DB0404A93420AD13C4B03F580535B6B3A4A43F4005302F58052536318E0FB683A4A93420AD1344B03F52F
S32D00010DD880539B6A324A43F4806302F58052936209E02F4B03F580539B6A2D4A43F4006302F580529362FB685B
S32D00010E00DB78DBB223F00C03DAB2FB68DA70FB6800229A70BB684FF47A7203FB02F27B681B0192FBF3F39CB2F5
S32D00010E28FB681B78DBB223F01F03FB75230A9BB2DBB203F01F03DAB2FB7D1343DAB2FB681A70E2B2FB685A70C3
S32D00010E50BB684FF4FA4203FB02F27B681B0192FBF3F39AB263019BB2D31A9CB2FB689B7ADBB223F01F03FB758B
S32D00010E78E3B203F01F03DAB2FB7D1343DAB2FB689A72FB68DB78DBB243F00C03DAB2FB68DA7000BF1837BD467D
S32D00010EA090BC704700A006400070044000B0064000C0064000D0064000A00E4080B483B000AF78607B681B7921
S32D00010EC8DBB203F02003002B0CBF01230023DBB2002B00D0F2E77B68DB79DBB218460C37BD4680BC704780B42B
S32D00010EF083B000AF78600B46FB707B681B79DBB25BB2DB43DBB2DB09DBB2002B00D0F4E77B68FA78DA7100BFFB
S32D00010F180C37BD4680BC704780B487B000AFF860B9607A60FB687B617B685A1E7A60002B14BF01230023DBB2C6
S32D00010F40002B06D07B695A1C7A61BA68D2B21A70EEE700BF1C37BD4680BC704780B584B000AF786039607B68D3
S32D00010F681B6BFB60FA683B689A4252D07B681B79002B35D07B6858787B6803F134010123FA6801F0F7F8034661
S32D00010F90002B14BF01230023DBB2002B01D001233CE07B6800221A717B685A6A7B681B6A1344FA689A4217D207
S32D00010FB87B68DB78FB72FB7A012B11D97B681B6AFA681344FB607B6858787B6803F134010123FA6801F0CEF864
S32D00010FE0FB7A013BFB72EAE73B68002B15D07B6858787B6803F1340101233A6800F0DAFF0346002B14BF012387
S32D000110080023DBB2002B01D0012303E07B683A681A63002318461037BD4680BD80B584B000AF7860002178680B
S32D00011030FFF794FF0346FB73FB7B002B40F093807B681B78032B7DD17B685B79002B79D07B6800221A637B68EB
S32D0001105834334FF4007200211846FFF75DFF7B68552283F832227B68AA2283F833227B68522283F834207B68CB
S32D00011080522283F835207B68612283F836207B68412283F837207B68722283F818227B68722283F819227B6872
S32D000110A8412283F81A227B68612283F81B227B681B69DAB27B6883F81C227B681B699BB21B0A9BB2DAB27B68BD
S32D000110D083F81D227B681B691B0CDAB27B6883F81E227B681B691B0EDAB27B6883F81F227B68DB68DAB27B682F
S32D000110F883F820227B68DB689BB21B0A9BB2DAB27B6883F821227B68DB681B0CDAB27B6883F822227B68DB6859
S32D000111201B0EDAB27B6883F823227B6858787B6803F134017B685A69012301F01FF87B6800225A717B685B7831
S32D0001114800220021184601F0E1F80346002B14BF01230023DBB2002B01D00123FB73FB7B18461037BD4680BD09
S32D0001117080B582B000AF78600B467B807B68002B08D07B681B78002B04D07B68DB887A889A4201D0092311E0A9
S32D000111987B685B78184601F03BF9034603F00103002B14BF01230023DBB2002B01D0032300E00023184608371B
S32D000111C0BD4680BD80B586B000AF78607B681A687B689B8819461046FFF7CAFF0346FB75FB7D002B40F0AC8037
S32D000111E87B689B7903F02003002B00F0A5807B689B7903F04003002B1BD07B681B6858787B6803F128017B682F
S32D000112109A69012300F0B2FF0346002B14BF01230023DBB2002B01D001238AE07B689B7923F04003DAB27B6886
S32D000112389A717B681A687B68DB6919461046FFF789FE0346FB75FB7D002B75D17B681B6A3B613B690B331A78A4
S32D000112603B690B3342F02002D2B21A707B68DA683B691C33D2B21A707B68DB689BB21B0A9AB23B691D33D2B299
S32D000112881A707B68DB681A0C3B691E33D2B21A707B68DB681A0E3B691F33D2B21A707B681A693B691A33D2B231
S32D000112B01A707B681B699BB21B0A9AB23B691B33D2B21A707B681B691A0C3B691433D2B21A707B681B691B0C4C
S32D000112D89BB21B0A9AB23B691533D2B21A700023FB603B691633FA68D2B21A70FB689BB21B0A9AB23B69173345
S32D00011300D2B21A70FB681A0C3B691833D2B21A70FB681A0E3B691933D2B21A707B689B7923F02003DAB27B6805
S32D000113289A717B681B6801221A717B681B681846FFF774FE0346FB75FB7D18461837BD4680BD80B584B000AF15
S32D0001135078607868FFF736FF0346FB73FB7B002B02D17B6800221A60FB7B18461037BD4680BD000080B588B019
S32D0001137800AF7860396080233B610F23FB604FF0FF337B610223FB61FB69B3F5807F23D80123BB61BB69102BE7
S32D000113A01AD8FB69BA6902FB03F33A6803FB02F27B68D31ABB60BB68002B09DBBB687A699A4205D9BB687B6142
S32D000113C8FB693B61BB69FB60BB690133BB61E1E7FB695B00FB61D7E71D4BDB6A1C4A23F00803D3621A4BDB6A52
S32D000113F023F47F2323F47F63BB613B695B081B029AB2FB68013B1B01DBB21A43BB691343114A43F46023D36227
S32D000114180F4B5B6A03F00803002B0CBF01230023DBB2002B03D00A2001F01AF9F0E7084BDB6A074A43F0080394
S32D00011440D362054B1B6B044A43F48013136300BF2037BD4680BD00BF00100B4080B582B000AF786039607B680A
S32D0001146800221A60414B424ADA62404BDB6A03F08073002B14BF01230023DBB2002B00D0F3E73A4B0022C3F8A6
S32D00011490C020384B4FF481325A60364B28229A62344B4FF001125A643B689B6833491846FFF760FF2F4B5B6AB0
S32D000114B803F00303002B14BF01230023DBB2002B00D0F3E72C4B40F243421A602A4B40F243425A60284B4FF421
S32D000114E088629A60264B40F24342DA60244B40F243421A61224B40F243425A61214B03F580531B6B1F4A43F4BA
S32D00011508003302F580521363184B4FF6FF721A63164B1B4A5A63154BDB6A144A43F00063D362124BDB6A03F0C6
S32D000115300063002B14BF01230023DBB2002B00D0F3E70C4B5B6A03F48033002B14BF01230023DBB2002B02D0ED
S32D000115587B6801221A60054B1B6B044A43F080031363002318460837BD4680BD00100B400080000160CC050087
S32D0001158000D0044000700440B3007F0080B400AF064B5A6A40F207331340002B14BF01230023DBB21846BD4658
S32D000115A880BC704700100B4080B485B000AF7860074B1B6B7A681340FB60FB68002B00D1F6E7FB681846143726
S32D000115D0BD4680BC704700BF00100B4080B584B000AF78607B681B7803F03F03764A52F82330FB60FB68002BFB
S32D000115F805D17B681B78002B01D00123DCE0714B1B6B704A43F0800313636E4B5B6A03F00103002B14BF0123DD
S32D000116200023DBB2002B00D0F3E7684A7B685B689360FB6823F44003FB607B685B789B0503F44003FA6813436B
S32D00011648FB607B685B78022B03D1FB6843F40013FB607B685B78042B16D1FB6803F44033B3F5003F08D1FB689D
S32D0001167023F44033FB60FB6843F44033FB6007E0FB6823F44033FB60FB6843F40033FB604E4B5B684D4A9BB267
S32D0001169853607B68DB68002B2AD0FB6803F44033B3F5403F03D0FB6843F40013FB607B681B7A002B03D0FB687D
S32D000116C043F01003FB607B68DB68012B03D9FB6843F02003FB607B68DB68B3F1FF3F0BD03A4B5A687B68DB68C8
S32D000116E81B04384913434B60FB6843F00203FB60344B00221A60334AFB68D3603248FFF753FF0346012B14BF04
S32D0001171001230023DBB2002B09D02C4B1B6B2B4A43F4702343F001031363012348E0274B1B6B03F08003002B04
S32D0001173814BF01230023DBB2002B07D0214B1B6B204A43F001131363012335E01D4B1B6B03F48033002B14BFF1
S32D0001176001230023DBB2002B08D0184B1B6B174A43F0011313634FF0FF3321E0FB6803F44033002B15D0114BD1
S32D000117881A697B681A61FB6803F44033B3F5803F0BD10C4B5A697B685A610A4B9A697B689A61084BDA697B68DA
S32D000117B0DA61064B1B6B054A43F001031363002318461037BD4680BD64AA050000100B4001000E0080B592B000
S32D000117D800AF7860396000237B643B68BB63994B7B637B6B002B02D140F601235FE3964B3B633B6B002B02D19A
S32D0001180040F60B2357E33B6B1B68FB62FB6A002B02D140F60B234EE37B6841F20932934200F23F837B68B3F538
S32D00011828985F08D87B68032B00F01A837B68092B00F0098331E37B68A3F59853013B082B00F22B8301A252F813
S32D0001185023F000BF79180100651B0100C11D01007B1B0100B91B0100DF1C0100271D0100691C0100831C0100D2
S32D000118787649786BFFF7EEFD78647B6C002B40F01083002387F84330002387F82B30002387F82A30002387F85D
S32D000118A02930002387F84230002387F8283000233B7200237B720023FB6000233B7400237B6107F10803184622
S32D000118C8FFF788FE0346002B14BF01230023DBB2002B02D001237B64E8E240F24C4000F0BFFE08233B7200232A
S32D000118F07B724FF4D573FB6000233B7400237B6107F108031846FFF769FEF863FB6B002B09D1BA69FB689A423F
S32D0001191802D001237B64C9E2012387F84230012387F8283097F82830002B00F0A58037233B7200237B720023AF
S32D00011940FB6000233B7400237B6107F108031846FFF744FEF863FB6B002B02D001237B64A8E269233B7200230C
S32D000119687B720023FB6000233B7400237B6107F108031846FFF72EFE0346002B14BF01230023DBB2002B02D079
S32D0001199001237B648EE2BB6903F44013002B6FD00023FB630A2000F05FFEFB6B0133FB6337233B7200237B72D6
S32D000119B80023FB6000233B7400237B6107F108031846FFF707FE0346002B14BF01230023DBB2002B02D0012319
S32D000119E07B6428E069233B7200237B7297F84230002B02D0184BFB6002E04FF44013FB6000233B7400237B6148
S32D00011A0807F108031846FFF7E5FD0346002B14BF01230023DBB2002B02D001237B6406E0BB69002B03DBFB6BE2
S32D00011A30632B00D8B6E77B6C002B40F03882FB6B632B0BD9002387F8423019E000180020041A002058AA050026
S32D00011A5800003040012387F8433097F84230002B0AD0002387F84230BB6903F08043002B02D0012387F84230D3
S32D00011A8097F82A30002B02D07B6B07221A6097F82930002B02D07B6B08221A6097F82B30002B02D07B6B042266
S32D00011AA81A6097F84330002B09D07B6B02221A6097F84230002B02D07B6B03221A6097F82B30002B0DD097F807
S32D00011AD04330002B09D07B6B05221A6097F84230002B02D07B6B06221A60924B00221A60904B00225A608F4B59
S32D00011AF800229A608D4B0022DA608C4B00221A618A4B00225A61FB6A9A68FB6A5B6819461046FFF72BFC854B18
S32D00011B2040F243421A60834B40F243425A60814B4FF488629A607F4B40F24342DA607D4B40F243421A617B4BB8
S32D00011B4840F243425A617A4B03F580531B6B784A43F4003302F580521363A7E1B86BFFF739FDF863FB6B002BB8
S32D00011B7000F09F8102237B649BE1BB6B002B02D10C237B6496E16D4BDB6A1B0A5B0003F4FF73FB63694BDB6AD0
S32D00011B981B0903F00F035A1CFB6B02FB03F3FB63FB6A9A68FB6BB2FBF3F2BB6B1A607DE1BB6B002B02D10C2318
S32D00011BC07B6477E1BB6B1B68002B02D10C237B6470E1FFF7DBFC0346002B0CBF01230023DBB2002B3CD0534B04
S32D00011BE800221A60514B00225A60504B00229A604E4B0022DA604D4B00221A614B4B00225A61FB6A9A68BB6BD9
S32D00011C101B6819461046FFF7ADFB464B40F243421A60444B40F243425A60424B4FF488629A60404B40F2434217
S32D00011C38DA603E4B40F243421A613C4B40F243425A613B4B03F580531B6B394A43F4003302F58052136329E182
S32D00011C6040F60A237B6425E1BB6B002B02D10C237B641FE1314B5B68C3F30C02BB6B1A6018E1BB6B002B02D11B
S32D00011C880C237B6412E1FFF77DFC0346002B0CBF01230023DBB2002B19D0BB6B1B68B3F5805F02D30C237B6483
S32D00011CB000E1224B5B68214A23F4FF5323F01F0353601E4B5A68BB6B1B68C3F30C031B4913434B60EEE040F636
S32D00011CD80A237B64EAE0BB6B002B02D10C237B64E4E0144B9B6A5B0803F00303FB63FB6B002B03D1BB6B002246
S32D00011D001A60D7E0FB6B012B03D1BB6B01221A60D0E0FB6B102B03D1BB6B02221A60C9E005237B64C6E0BB6BF5
S32D00011D28002B09D10C237B64C0E000BF00D004400070044000100B40FFF724FC0346002B0CBF01230023DBB2CE
S32D00011D50002B31D0BB6B1B68002B0AD1584B9B6A574A23F006039362554B554A9B6A9362A0E0BB6B1B68012BA1
S32D00011D780CD1514B9B6A504A23F0060393624E4B9B6A4D4A43F0020393628FE0BB6B1B68022B0AD1484B9B6AF9
S32D00011DA0474A23F006039362454B454A9B6A936280E005237B647DE040F60A237B6479E0BB6B002B02D10C23A7
S32D00011DC87B6473E03C4BDB6A3B4A43F00063D362394BDB6A03F00063002B14BF01230023DBB2002B00D0F3E7D8
S32D00011DF0334B1B6B03F08003002B14BF01230023DBB2002B08D02E4B1B6B2D4A43F0800313637B6B00221A6051
S32D00011E18294B5B6A03F48033002B14BF01230023DBB2002B07D07B6B1B68002B06D17B6B01221A6002E07B6B2E
S32D00011E4000221A607B6B1A68BB6B1A6032E0BB6B1C221A60BB6B043304221A60BB6B08334FF41E721A6025E02F
S32D00011E680220FFF7A1FB144B1B6B03F4E003002B14BF01230023DBB2002B07D00E4B1B6B0D4A43F4E00313633E
S32D00011E9004237B640A4B1B6B094A43F03203136308E040F609237B6404E000BF02E000BF00E000BF7B6C1846C0
S32D00011EB84837BD4680BD00BF00100B4080B489B000AF786039607B687B61364B3B613B69002B01D100235FE0B6
S32D00011EE03B691B68022B0BD03B691B68032B07D03B691B68072B03D03B691B68082B0BD12B4B5B6A03F00403E1
S32D00011F08002B14BF01230023DBB2002B00D0F3E73B68FB61FB69002B3DD0FB69B3F5007F28BF4FF40073FB60E5
S32D00011F30FB6803339B08BB61BB69002B2AD01C4B1B6B03F4E003002B14BF01230023DBB2002B09D0164B1B6B5D
S32D00011F58154A43F4E00343F02003136300231BE0114B5B6A03F40063002B0CBF01230023DBB2002B00D0F3E7DD
S32D00011F800B497B691A1D7A610A6A1A60BB69013BBB61D1E7FA69FB68D31AFB61BEE7012318462437BD4680BCF6
S32D00011FA8704700BF0018002000100B4080B58EB000AFB9607A601A460346FB731346BB73414B7B63FB7B002B43
S32D00011FD002D1BB7B002B01D1042375E03D4B1B78DBB203F00103002B14BF01230023DBB2002B01D0032367E086
S32D00011FF8BB68002B01D1002362E07B6B1B7B002B02D17B685B027B60BB7B012B28D111233B7500237B757B686B
S32D00012020BB6101233B77BB7B3B6207F11403194641F20230FFF7CEFB0346002B0CBF01230023DBB2002B38D0F4
S32D000120484FF40071B868FFF739FF0346002B14BF01230023DBB2002B2BD00023BB7328E012233B7500237B75D5
S32D000120707B68BB6101233B77BB7B3B6207F11403194641F20230FFF7A5FB0346002B0CBF01230023DBB2002BF2
S32D000120980FD0BB7B5B021946B868FFF70FFF0346002B14BF01230023DBB2002B01D00023BB73BB7B002B01D08A
S32D000120C0012300E0002300BF18463837BD4680BDEC1700200400002080B487B000AF786039607B68FB603B684B
S32D000120E87B617B69002B3DD07B69B3F5007F28BF4FF400733B617A693B69D31A7B613B6903339B083B613B6980
S32D00012110002BEAD0184B1B6B03F4E003002B14BF01230023DBB2002B0AD0134B1B6B124A43F4E00343F0100381
S32D0001213813634FF0FF3316E00D4B5B6A03F48063002B0CBF01230023DBB2002B00D0F3E7FB681A1DFA60064AC1
S32D000121601B6813623B69013B3B61D0E7012318461C37BD4680BC704700100B4080B58EB000AFB9607A601A468A
S32D000121880346FB731346BB735D4B7B63FB7B002B02D1BB7B002B01D10423ADE0594B1B78DBB203F00103002B23
S32D000121B014BF01230023DBB2002B01D003239FE0524B1B78DBB203F00403002B14BF01230023DBB2002B01D033
S32D000121D8022391E0BB68002B01D100238CE07B6B1B7B002B02D17B685B027B60BB7B012B28D118233B75002395
S32D000122007B757B68BB6100233B77BB7B3B6207F11403194641F20230FFF7DCFA0346002B0CBF01230023DBB266
S32D00012228002B38D04FF40071B868FFF751FF0346002B14BF01230023DBB2002B2BD00023BB7328E019233B75B4
S32D0001225000237B757B68BB6100233B77BB7B3B6207F11403194641F20230FFF7B3FA0346002B0CBF01230023A9
S32D00012278DBB2002B0FD0BB7B5B021946B868FFF727FF0346002B14BF01230023DBB2002B01D00023BB730D23DA
S32D000122A03B7500237B757B6B1B69BB6100233B7700233B6207F11403194641F20230FFF789FA0346002B14BF9E
S32D000122C801230023DBB2002B01D0012314E07A6A0D4B1340002B01D001230DE07B6A03F4F853B3F5106F00D045
S32D000122F0D5E7BB7B002B01D0012300E0002300BF18463837BD4680BDEC170020040000200880D9FF80B58CB0C6
S32D0001231800AF03463A60FB710B46BB713A4BBB62FB79002B01D0042369E0012387F82F30364B1B78DBB203F003
S32D000123400103002B14BF01230023DBB2002B01D0032358E0BB79032B50D801A252F823F0712301007923010082
S32D000123688923010099230100002387F82F3044E0BB6A9A683B681A60002387F82F303CE03B684FF400721A8064
S32D00012390002387F82F3034E009233B7200237B72BB6A1B69FB6000233B7400237B6107F10803194641F2023084
S32D000123B8FFF70CFA0346002B14BF01230023DBB2002B01D001231AE07B6A03F44003002B0CD13B6A9B0C03F05F
S32D000123E07F035A1C7B6A1B0A03F00303013B9A403B681A60002387F82F3002E0042387F82F3097F82F3018466C
S32D000124083037BD4680BD00BFEC1700200400002080B483B000AF0346FB71FB79002B01D0012302E0034B1B78D6
S32D00012430DBB218460C37BD4680BC70470400002080B483B000AF7860164B03F580539B6B144A43F0010302F589
S32D0001245880529363124A7B689360114B05225A600F4B1B680E4A43F0010313600C4B1B6803F08003002B0CBFF9
S32D0001248001230023DBB2002B00D0F3E7064B1B68054A23F00103136000BF0C37BD4680BC704700BF007004406C
S32D000124A80000044080B582B000AF786039607B68012B07D13B684FF6FF72934202D1034800F00EF800BF083713
S32D000124D0BD4680BD0C1A002080B500AF4FF6FF710120FFF7E3FF80BD80B483B000AF78607B6800221A707B6828
S32D000124F818460C37BD4680BC7047000080B582B000AF78607B681B7883F00103DBB2002B21D0134B03F5805371
S32D000125201A464FF400639362104B4FF440721A620E4B4FF440725A620D4B1B68DA0F13445B104FF461421946F0
S32D000125480A48FEF7FDFB642000F08AF87B6801221A70012300E0002318460837BD4680BD0070044000D00440D3
S32D00012570101A002000B00E4080B582B000AF7860084611461A460346FB700B46BB7013467B707F210E48FEF7A2
S32D00012598AAFC08210C48FEF7A6FCFB7819460A48FEF7A1FCBB7819460748FEF79CFC7B7819460548FEF797FC0F
S32D000125C0FF210348FEF793FC00BF0837BD4680BD00B00E4080B487B000AFF860B9607A60FB681F4AA2FB0323CD
S32D000125E89B09BA6813447B61FB681B4AA2FB031292094FF47A7101FB02F29B1AFB60FB68DB03154AA2FB032325
S32D000126109B097A6813443B613B69DB0B7A6913447B613B69C3F30E033B610E4B1B687A699A4209D80B4B1B6826
S32D000126387A699A4206D1094B5B683A699A4201D9012300E00023002B00D0EAE700BF1C37BD4680BC704700BFB3
S32D00012660D34D621000D0034080B584B000AF7860074B1B68FB60064B5B68BB607B68BA68F9681846FFF7A6FFF8
S32D0001268800BF1037BD4680BD00D0034080B584B000AFC7E900010E4B1B68FB600C4B5B68BB604FF000020B4BFE
S32D000126B0D7E9000134F06EFB02460B461046194634F02AFE0346BA68F9681846FFF782FF00BF1037BD4680BD2C
S32D000126D800D0034000408F4080B483B000AF0B4B1B684FF47A7202FB03F37B60074B5B684FF47A7202FB03F38E
S32D00012700DB0B7A6813447B607B6818460C37BD4680BC704700D0034080B584B000AF78600B46FB700B23FB73DB
S32D00012728FA7BFB781946786800F094F87B6818461037BD4680BD000080B485B000AF78607B68103B002B00DAF4
S32D000127501F335B11FB60FB68022B53D0FB68022B75DCFB68002B03D0FB68012B25D06EE0394BD3F880217B68A7
S32D00012778103B594203F01F0301F01F0158BF4B42012101FA03F332491343C1F88031304B1A687B68103B59426E
S32D000127A003F01F0301F01F0158BF4B42012101FA03F3294913430B6049E0274BD3F884217B68103B594203F033
S32D000127C81F0301F01F0158BF4B42012101FA03F31F491343C1F884311D4B5A687B68103B594203F01F0301F0D3
S32D000127F01F0158BF4B42012101FA03F3164913434B6024E0144BD3F888217B68103B594203F01F0301F01F01BD
S32D0001281858BF4B42012101FA03F30D491343C1F888310B4B9A687B68103B594203F01F0301F01F0158BF4B42D1
S32D00012840012101FA03F3044913438B6000BF00BF1437BD4680BC704700E100E080B584B000AF78600B46FB709C
S32D000128681346BB707B68FA781A70BB78FB737B681B781A46574B9B5C042B00F2A68001A252F823F0A1280100BD
S32D00012890ED28010039290100D129010085290100FB7B1B0403F470234D497A68127810464C4A52F8202043F428
S32D000128B8897343F0010341F82230494B5A697B681B781946454B53F8213003F01F03012101FA03F3DB4342490A
S32D000128E013404B616720FFF72BFF72E0FB7B1B0403F470233D497A6812781046394A52F8202043F4897343F0F7
S32D00012908010341F82230384B5A697B681B781946324B53F8213003F01F03012101FA03F3DB43314913404B611E
S32D000129306820FFF705FF4CE0FB7B1B0403F470232C497A6812781046264A52F8202043F4897343F0010341F8D7
