S01100002E2E2F50726F746575732E73313966
S32D0000C000000000205DC2000011C3000017C300001DC3000023C3000029C3000000000000000000000000000073
S32D0000C028000000002FC3000035C30000000000003BC3000041C300000D3C0100193C0100253C0100313C01008E
S32D0000C0503D3C0100493C0100553C0100613C01006D3C0100793C0100853C0100913C01009D3C0100A93C0100E2
S32D0000C078B53C0100C13C0100CD3C0100D93C0100E53C0100F13C0100FD3C0100093D0100153D0100213D010007
S32D0000C0A02D3D0100393D0100453D0100513D01005D3D0100693D0100753D0100813D01008D3D0100993D010028
S32D0000C0C8A53D0100B13D0100BD3D0100C93D0100D53D0100E13D0100ED3D0100F93D0100053E0100113E01004E
S32D0000C0F01D3E01003D8D0100293E0100353E0100413E01004D3E0100593E0100653E0100713E01007D3E01006B
S32D0000C118893E0100953E0100A13E0100AD3E0100B93E0100C53E0100D13E0100DD3E0100E93E0100F53E01000D
S32D0000C140013F01000D3F0100193F0100253F0100296A0100313F01003D3F0100493F0100553F0100613F010044
S32D0000C1686D3F0100793F0100853F0100913F01009D3F0100A93F0100B53F0100C13F0100CD3F0100D93F0100CB
S32D0000C190E53F0100F13F0100FD3F01001D660100E56401008165010091390100BD6601000940010015400100AA
S32D0000C1B821400100C895060000000020C8170000C89506000000FF1F00000000C8170020C81A00000000FF1F15
S32D0000C1E00000000080B489B000AFF860B9607A60BB68FB61FB68BB6100237B617A697B689A420BD2BA69131DFB
S32D0000C208BB61FB69191DF96112681A607B6904337B61EFE700BF2437BD4680BC704780B485B000AF786039609E
S32D0000C2307B68FB600023BB60BA683B689A4208D2FB681A1DFA6000221A60BB680433BB60F2E700BF1437BD46FE
S32D0000C25880BC704780B586B000AF72B6234B4CF220521A80214B4DF628121A80204B4FF4E9721A801F4B7B615F
S32D0000C2807B691F4A934214D27B691A1D7A611B683B617B691A1D7A611B68FB607B691A1D7A611B68BB60BA68E9
S32D0000C2A8F9683869FFF79AFFE6E77B69134A93420ED27B691A1D7A611B68FB607B691A1D7A611B68BB60B9688B
S32D0000C2D0F868FFF7A8FFECE70B4B7B600B4A7B681A6042F0CFF862B607F01AFC00F044F9FEE700BF0E2005402B
S32D0000C2F800200540BCC10000D4C10000E4C1000008ED00E000C0000080B400AFFEE780B400AFFEE780B400AFF4
S32D0000C320FEE780B400AFFEE780B400AFFEE780B400AFFEE780B400AFFEE780B400AFFEE780B400AFFEE780B426
S32D0000C34800AFFEE7FFFFFFFFFFFFFFFFFFFFFFFFFFFFFFFFFFFFFFFFFFFFFFFFFFFFFFFFFFFFFFFFFFFFFFFF57
S32D0000C370FFFFFFFFFFFFFFFFFFFFFFFFFFFFFFFFFFFFFFFFFFFFFFFFFFFFFFFFFFFFFFFFFFFFFFFFFFFFFFFFC7
S32D0000C398FFFFFFFFFFFFFFFFFFFFFFFFFFFFFFFFFFFFFFFFFFFFFFFFFFFFFFFFFFFFFFFFFFFFFFFFFFFFFFFF9F
S32D0000C3C0FFFFFFFFFFFFFFFFFFFFFFFFFFFFFFFFFFFFFFFFFFFFFFFFFFFFFFFFFFFFFFFFFFFFFFFFFFFFFFFF77
S32D0000C3E8FFFFFFFFFFFFFFFFFFFFFFFFFFFFFFFFFFFFFFFFFFFFFFFFFFFFFFFFFFFFFFFFFFFFFFFFFEFFFFFF50
S32D0000C44010B5054C237833B9044B13B10448AFF300800123237010BDC8170020000000003882060008B5034B62
S32D0000C4681BB103490348AFF3008008BD00000000CC170020388206002DE9B0438AB000AFF860B9607A603B60C1
S32D0000C490FA687B68D31A18463EF0E2FE02460B46C7E90823BA683B68D31A18463EF0D8FE02460B46C7E90623E6
S32D0000C4B8D7E90823D7E908013EF038FF02460B4614461D463B6C03FB03F318463EF0C4FE02460B462046294690
S32D0000C4E03FF052F802460B4614461D46D7E90623D7E906013EF01EFF02460B46904699467B6C03FB03F31846DD
S32D0000C5083EF0AAFE02460B46404649463FF038F802460B46204629463EF052FD02460B46C7E9042301231C4641
S32D0000C5304FF00002074BD7E904013FF077F90346002B01D100231C46E3B218462837BD46BDE8B0830000F03FBF
S32D0000C55880B582B000AF78607B685C3318462AF039FA7B6818460837BD4680BD00000000F0B5ADF66C2D04AF56
S32D0000C58007F65823A3F519734FF000021A6007F65823A3F519734FF000025A6007F65823A3F519734FF00002C2
S32D0000C5A89A60EB4BC7F8403A002387F83F3A012387F83E3A032387F83D3A002387F83C3A022387F83B3A042352
S32D0000C5D087F83A3A97F83E4A97F83C2A97F83F1A07F5AA60D7F8403A039397F83A3A029397F83D3A019397F8B0
S32D0000C5F83B3A0093234605F02DFE022387F8393A97F8391A07F5A963D24A184607F00CFD07F2445308211846F2
S32D0000C6200AF0BCF807F5A863152118460AF0B6F807F23C53162118460AF0B0F807F5A763172118460AF0AAF804
S32D0000C648152387F8383A152387F8373A152387F8363A97F8363A97F8372A97F8381A07F2EC4002F019FE07F552
S32D0000C6709D630F21184609F05FFC07F2DC43072118460AF07FFB07F2DC4340F23A3118460AF094FB07F2DC43F4
S32D0000C69840F6860118460AF0AAFB07F59663184604F008FE07F65823A3F5157307F5AA621146184601F09AFB92
S32D0000C6C007F6040207F500631146184601F0DFFB07F5006207F596631146184604F012FE07F50063184601F0B0
S32D0000C6E8EEFB07F60403184601F09AFB07F65823A3F5137007F5A96307F2DC4207F5AA6101F0FFFB07F60C02A4
S32D0000C71007F608031146184601F052FC07F6080207F596631146184604F0ECFD07F60803184601F0C8FB07F65A
S32D0000C7380C03184601F00DFC002387F8573A864BC7F8503A4FF00003C7F84C3A4FF00003C7F8483A07F50163B5
S32D0000C76018460CF0D7FD07F5016207F592637D4918462AF0C1FC07F5016318460CF0CCFD07F5916318460EF063
S32D0000C788E9FD07F62C0318460CF0C0FD07F62C0207F61403724918462AF0AAFC07F6140207F214408B230093A1
S32D0000C7B0FF23002102F09EF807F6140318462AF00DF907F62C0318460CF0A6FD07F214431E21184602F0A2FB59
S32D0000C7D807F6480318460CF099FD07F6480207F50363604918462AF083FC07F5036207F568708B230093FF231A
S32D0000C800232102F077F807F5036318462AF0E6F807F6480318460CF07FFD07F568731E21184602F07BFB07F6B6
S32D0000C828640318460CF072FD07F6640207F64C034D4918462AF05CFC07F64C0207F54B708B230093FF234621D1
S32D0000C85002F050F807F64C0318462AF0BFF807F6640318460CF058FD07F54B731E21184602F054FB07F50863F3
S32D0000C87818460CF04BFD07F5086207F668033B4918462AF035FC07F6680207F52E708B230093FF23692102F015
S32D0000C8A029F807F6680318462AF098F807F5086318460CF031FD07F52E731E21184602F02DFB0123C7F8303A49
S32D0000C8C807F5AA63184606F091FD29480AF0DFFE27480BF0B1FA002387F8473A254B1B78002B66D197F8473A62
S32D0000C8F0002B62D107F56873184602F099F907F21443184602F094F907F54B73184602F08FF907F52E73184649
S32D0000C91802F08AF907F56873184602F0E6FA0346002B05D0134B02221A70012387F8473A07F21443184602F05C
S32D0000C940D8FA0346002B1BD00C4B01221A70012387F8473A14E000BF0000C040000090409A99193FD8ED050098
S32D0000C968E4ED0500ECED0500F8ED050004EE0500C81A0020E517002007F54B73184602F0B4FA0346002B05D0ED
S32D0000C9902E4B03221A70012387F8473A07F52E73184602F0A6FA0346002B9BD0274B04221A70012387F8473A7B
S32D0000C9B894E707F65823A3F51973196807F65823A3F519735A6807F65823A3F519739B6807F5AA6005F0E8FDDC
S32D0000C9E01B480AF058FE1A480BF02AFA002387F8463A97F8463A002B41F0E98107F5AA63184606F0E0FC114B69
S32D0000CA081B78012B22D109F077FA034618463FF08BF80346C7F8D43907F59663184604F081FC07F5966318465F
S32D0000CA3004F0F2FC0346002BDBD0012387F8463A07F5AA63184605F007FFD2E7E5170020C81A0020E04B1B78BD
S32D0000CA58032B40F0C883DF4BC7F8EC3907F69C0318460CF053FC07F69C0207F68403DA4918462AF03DFB07F6C5
S32D0000CA80840338464FF4C84201924FF47F0200924FF00002D34901F0E3FF07F68403184629F09CFF07F69C03EB
S32D0000CAA818460CF035FC3B461E21184602F032FA3B46184602F0B8F807F6B80318460CF025FC07F6B80207F532
S32D0000CAD00A63C54918462AF00FFB07F50A6307F174004FF4C84201924FF400420092BF4ABC4901F0B5FF07F5C0
S32D0000CAF80A63184629F06EFF07F6B80318460CF007FC07F174031E21184602F003FA07F17403184602F088F870
S32D0000CB2007F6D40318460CF0F5FB07F6D40207F6BC03AF4918462AF0DFFA07F6BC0307F1E8004FF4C842019275
S32D0000CB484FF6FF720092A94AA44901F085FF07F6BC03184629F03EFF07F6D40318460CF0D7FB07F1E8031E2190
S32D0000CB70184602F0D3F907F1E803184602F058F89849D7F8EC093EF023FF03461C4607F50F6318460CF0BEFBD7
S32D0000CB9807F50F6207F6D803954918462AF0A8FA07F6D80307F5AE704FF40B0201924FF47F0200924FF00002C6
S32D0000CBC0214601F04DFF07F6D803184629F006FF07F50F6318460CF09FFB07F5AE731E21184602F09BF907F5B1
S32D0000CBE8AE73184602F020F87C49D7F8EC093EF0EBFE03461C4607F60C1318460CF086FB07F60C1207F6F40345
S32D0000CC107A4918462AF070FA07F6F40307F5E8704FF40B0201924FF4004200926F4A214601F016FF07F6F403F5
S32D0000CC38184629F0CFFE07F60C1318460CF068FB07F5E8731E21184602F064F907F5E873184601F0E9FF614936
S32D0000CC60D7F8EC093EF0B4FE03461C4607F6281318460CF04FFB07F6281207F51163604918462AF039FA07F584
S32D0000CC88116307F511704FF40B0201924FF6FF720092564A214601F0DFFE07F51163184629F098FE07F62813D8
S32D0000CCB018460CF031FB07F511731E21184602F02DF907F51173184601F0B2FF3B46184602F00FF90346002BCE
S32D0000CCD811D0D7F8500A3EF0D1FA39A3D3E900233EF06EF902460B46104619463EF016FE0346C7F8503A07F5BD
S32D0000CD00AE73184602F0F5F80346002B11D0D7F8500A3EF0B7FA2CA3D3E900233EF052F902460B4610461946D5
S32D0000CD283EF0FCFD0346C7F8503A07F17403184602F0DBF80346002B11D0D7F84C0A3EF09DFA21A3D3E90023B0
S32D0000CD503EF03AF902460B46104619463EF0E2FD0346C7F84C3A07F5E873184602F0C1F80346002B11D0D7F8E7
S32D0000CD784C0A3EF083FA14A3D3E900233EF01EF902460B46104619463EF0C8FD0346C7F84C3A07F1E8031846A1
S32D0000CDA002F0A7F80346002B33D0D7F8480A3EF069FA07A3D3E900233EF006F902460B4620E000BFAFF300807B
S32D0000CDC89A9999999999B93FFCA9F1D24D62503FE517002000005C4314EE0500000070411CEE050000000C4238
S32D0000CDF024EE050000008C422CEE050034EE05003CEE0500104619463EF08CFD0346C7F8483A07F511731846E7
S32D0000CE1802F06BF80346002B11D0D7F8480A3EF02DFACDA3D3E900233EF0C8F802460B46104619463EF072FDA4
S32D0000CE400346C7F8483A07F5AA60D7F8483A0093D7F84C3AD7F8502A012106F083FA07F5AA60D7F8483A009333
S32D0000CE68D7F84C3AD7F8502A022106F077FA07F5AA60D7F8483A0093D7F84C3AD7F8502A032106F06BFAB42396
S32D0000CE906422B549B5480AF057FCB4237822D7F8501AB2480AF088FCC8236422B049AF480AF04AFCC82378225E
S32D0000CEB8D7F84C1AAB480AF07BFCDC236422AB49A8480AF03DFCDC237822D7F8481AA5480AF06EFC6423002253
S32D0000CEE0A549A2480AF030FC07F5AA63184606F098FA0146642328229C480AF05DFC782300229E4999480AF069
S32D0000CF081FFC07F5AA63184605F007FD01467823282294480AF04CFC8C230022964991480AF00EFC07F5AA63A0
S32D0000CF30184606F085FA01468C2328228B480AF03BFC904BC7F8E8398F4BC7F8E439D7F8E4093FF021F80446FD
S32D0000CF588C49D7F8E8093EF037FD034618463FF017F80346224688497E480AF0E9FB07F65823A3F519731C6889
S32D0000CF80D7F8E4093FF008F805468249D7F8E8093EF01EFD034618463EF0FEFF03462A46214672480AF008FCCF
S32D0000CFA8D7F8E4093EF0F4FF04467949D7F8E8093EF00AFD034618463EF0EAFF03462246744968480AF0BCFBF0
S32D0000CFD007F65823A3F519735C68D7F8E4093EF0DBFF05466E49D7F8E8093EF0F1FC034618463EF0D1FF034644
S32D0000CFF82A4621465B480AF0DBFB684BC7F8E039634BC7F8DC3907F5AA630121184606F059F93223C7F8D839BE
S32D0000D020FF2152480AF07DFBD7F8D8093EF080FD0446D7F8D8093EF07BFD034600932346D7F8DC29D7F8E019DA
S32D0000D04848480BF0A7F907F5956207F2AC43194644480AF069FC0346002B00F0A18007F65823A3F2AC531B6856
S32D0000D07018463EF091FF044607F65823A3F5B6631B6818463EF088FF0546D7F8E0093EF083FF0646D7F8DC09BA
S32D0000D0983EF07EFF0146D7F8D839D7F8D829019200930B46324629462046FFF7E5F90346002B7AD007F65823FA
S32D0000D0C0A3F2AC531B68D7F8E01918463EF07EFC03461C46D7F8D8093EF02AFD0346194620463EF031FE0346F9
S32D0000D0E883F0004207F65823A3F519731A6007F65823A3F5B6631B68D7F8DC1918463EF061FC03461C46D7F87C
S32D0000D110D8093EF00DFD0346194620463EF014FE03461A4607F65823A3F519735A6007F65823A3F5197319686E
S32D0000D13807F65823A3F519735A6807F65823A3F519739B6807F5AA6005F02EFA07F5AA63184605F041FA28E00A
S32D0000D160FCA9F1D24D62503F44EE0500C81A002048EE05004CEE050050EE050058EE050060EE0500000016430E
S32D0000D188000034430000B44268EE05000000D2420000F04274EE0500000007430000204307F5AA63184605F0FB
S32D0000D1B017FA07F511731846FFF7CEF907F5E8731846FFF7C9F907F5AE731846FFF7C4F907F1E8031846FFF7D3
S32D0000D1D8BFF907F174031846FFF7BAF93B461846FFF7B6F901E4CD4B1B78042B40F01E8307F5AA63184605F08B
S32D0000D2000FFC4FF00003C7F8103AC74BC7F80C3AC64BC7F8083A4FF00001D7F8100A3EF0D7FB034618463EF083
S32D0000D228B7FE03460022C049C0480AF089FA07F5AA63184605F080FB03461C68BC49D7F8100A3EF0C1FB034665
S32D0000D25018463EF0A1FE034600222146B5480AF0ABFAB149D7F8100A3EF0B2FB034618463EF092FE0346002289
S32D0000D278B049AE480AF064FA07F5AA63184605F05BFB034604331C68AB49D7F8100A3EF09BFB034618463EF015
S32D0000D2A07BFE034600222146A2480AF085FAA549D7F8100A3EF08CFB034618463EF06CFE03460022A0499B48B0
S32D0000D2C80AF03EFA07F5AA63184605F035FB034608331C689B49D7F8100A3EF075FB034618463EF055FE034696
S32D0000D2F0002221468F480AF05FFA9549D7F8100A3EF066FB034618463EF046FE03460022904988480AF018FACE
S32D0000D31807F59D63184608F0E7FE03461C468C49D7F8100A3EF050FB034618463EF030FE0346002221467D4834
S32D0000D3400AF096FA854BC7F8043A854BC7F8003A844BC7F8FC397E49D7F80C0A3EF038FB034618463EF018FEE4
S32D0000D368034600227E4971480AF0EAF907F5A863184609F021FA0346D7F8041A18463EF023FB03461C46724910
S32D0000D390D7F80C0A3EF01CFB034618463EF0FCFD03460022214663480AF006FA6F49D7F80C0A3EF00DFB0346E4
S32D0000D3B818463EF0EDFD034600226B495B480AF0BFF907F23C53184609F0F6F90346D7F8001A18463EF0F8FADF
S32D0000D3E003461C466349D7F80C0A3EF0F1FA034618463EF0D1FD0346002221464D480AF0DBF95D49D7F80C0A67
S32D0000D4083EF0E2FA034618463EF0C2FD03460022584946480AF094F907F5A763184609F0CBF90346D7F8FC19E9
S32D0000D43018463EF0CDFA03461C465149D7F80C0A3EF0C6FA034618463EF0A6FD03460022214638480AF0B0F9F6
S32D0000D45807F6441318460BF059FF07F6441207F62C134649184629F043FE07F62C1207F1E8004FF4C8430093CF
S32D0000D4804FF40043002101F035FA07F62C13184629F0A4FA07F6441318460BF03DFF07F1E8031E21184601F00C
S32D0000D4A839FD07F5166318460BF030FF07F5166207F648133249184629F01AFE07F6481207F5AE704FF40B038B
S32D0000D4D000934FF47F031E2101F00CFA07F64813184629F07BFA07F5166318460BF014FF07F5AE731E211846C1
S32D0000D4F801F010FD07F67C1318460BF007FF07F67C1207F664131F49184629F0F1FD07F6641207F5E8708B23DC
S32D0000D52036E000BFE51700200000F0410000BE427CEE0500C81A00200000704184EE05000000344200007042FA
S32D0000D5488CEE0500000096420000B44298EE05000000D242E8B401BDE742523DFD1BA1BCA8EE05000000024362
S32D0000D570B0EE05000000114300002043B8EE050000002F43C0EE0500CCEE0500D8EE05000093FF23B42101F05E
S32D0000D598ADF907F66413184629F01CFA07F67C1318460BF0B5FE07F5E8731E21184601F0B1FC07F6981318468E
S32D0000D5C00BF0A8FE07F6981207F518639249184629F092FD07F5186207F511708B230093FF23D22101F086F9E4
S32D0000D5E807F51863184629F0F5F907F6981318460BF08EFE07F511731E21184601F08AFC07F5AE73184601F0AC
S32D0000D6100FFB07F1E803184601F00AFB07F5E873184601F005FB07F51173184601F000FB07F5E873184601F095
S32D0000D63851FC0346002B06D007F2DC434FF00001184609F0F1FB07F51173184601F042FC0346002B05D007F243
S32D0000D660DC436E49184609F0E3FB07F1E803184601F034FC0346002B06D007F5A9636849184606F055FD13E093
S32D0000D68807F5AE73184601F025FC0346002B06D007F5A9636149184606F046FD04E007F5A963184606F0FEFC1A
S32D0000D6B05D4BC7F8F8395D4BC7F8F43907F5AA630121184605F002FE3223C7F8F039FF2157480AF026F8D7F8BF
S32D0000D6D8F0093EF029FA0446D7F8F0093EF024FA034600932346D7F8F429D7F8F8194E480AF050FE07F595629A
S32D0000D70007F2AC4319464A480AF012F90346002B66D007F65823A3F2AC531B6818463EF03BFC044607F658235F
S32D0000D728A3F5B6631B6818463EF032FC0546D7F8F8093EF02DFC0646D7F8F4093EF028FC0146D7F8F039D7F8FB
S32D0000D750F029019200930B46324629462046FEF78FFE0346002B40D007F65823A3F2AC531B68D7F8F8191846FB
S32D0000D7783EF028F903461C46D7F8F0093EF0D4F90346194620463EF0DBFA034683F00043194618463EF018F9BA
S32D0000D7A003461A4607F65823A3F519731A6007F65823A3F51973196807F65823A3F519735A6807F65823A3F511
S32D0000D7C819739B6807F5AA6004F0EEFE07F5AA63184604F001FF04E007F5AA63184605F037F807F51173184616
S32D0000D7F0FEF7B2FE07F5E8731846FEF7ADFE07F5AE731846FEF7A8FE07F1E8031846FEF7A3FEFFF7EEB800BFC9
S32D0000D818E4EE0500000034430000A0420000A0C2000020430000F042C81A00204FF00003C7F82C3AC84BC7F880
S32D0000D840283A4FF00001D7F82C0A3EF0C1F8034618463EF0A1FB03460022C249C24809F073FF07F5AA63184669
S32D0000D86805F040F80446BF49D7F82C0A3EF0ACF8034618463EF08CFB034600222146B84809F096FFB849D7F8B0
S32D0000D8902C0A3EF09DF8034618463EF07DFB03460022B449B04809F04FFF07F5AA63184605F029F80446B049BD
S32D0000D8B8D7F82C0A3EF088F8034618463EF068FB034600222146A64809F072FFA949D7F82C0A3EF079F803464E
S32D0000D8E018463EF059FB03460022A5499E4809F02BFF07F5AA63184605F013F80446A149D7F82C0A3EF064F8AE
S32D0000D908034618463EF044FB034600222146944809F04EFF4FF00001D7F8280A3EF054F8034618463EF034FB2A
S32D0000D9300346002294498C4809F006FF07F5AA63184604F0A9FF04468849D7F8280A3EF03FF8034618463EF056
S32D0000D9581FFB034600222146814809F029FF8249D7F8280A3EF030F8034618463EF010FB0346002283497A48D0
S32D0000D98009F0E2FE07F5AA63184604F092FF04467949D7F8280A3EF01BF8034618463EF0FBFA034600222146CA
S32D0000D9A86F4809F005FF7349D7F8280A3EF00CF8034618463EF0ECFA034600227249684809F0BEFE07F5AA635F
S32D0000D9D0184604F07CFF04466A49D7F8280A3DF0F7FF034618463EF0D7FA0346002221465D4809F0E1FE674996
S32D0000D9F8D7F8280A3DF0E8FF034618463EF0C8FA034600226249564809F09AFE07F24453184608F0D1FE044611
S32D0000DA205E49D7F8280A3DF0D3FF034618463EF0B3FA0346002221464B4809F0BDFE4F4BC7F8243A564BC7F87F
S32D0000DA48203AD7F8200A3EF0A3FA04464F49D7F8240A3DF0B9FF034618463EF099FA034622464E493E4809F09F
S32D0000DA706BFE07F65823A3F519731C68D7F8200A3EF08AFA05464549D7F8240A3DF0A0FF034618463EF080FA63
S32D0000DA9803462A462146324809F08AFED7F8200A3EF076FA04463E49D7F8240A3DF08CFF034618463EF06CFAED
S32D0000DAC0034622463949284809F03EFE07F65823A3F519735C68D7F8200A3EF05DFA05463349D7F8240A3DF091
S32D0000DAE873FF034618463EF053FA03462A4621461B4809F05DFE07F6B41318460BF006FC07F6B41207F69C1317
S32D0000DB102849184629F0F0FA07F69C1307F5E8708B2201924FF400420092144A224900F097FF07F69C13184665
S32D0000DB3828F050FF07F6B41318460BF0E9FB07F5E8731E21184601F0E5F907F51D6318460BF0DCFB2EE000BF1B
S32D0000DB600000BE42F0EE0500C81A0020000070410000F041FCEE050000003442000070420CEF050000009642E1
S32D0000DB881CEF050028EF050038EF05000000B44248EF05000000D2420000344368EE05000000F04274EE050066
S32D0000DBB00000074354EF050000007A4307F51D6207F6B8138449184629F096FA07F6B81307F511708B2201925C
S32D0000DBD84FF6FF7200927F4A7F4900F03DFF07F6B813184628F0F6FE07F51D6318460BF08FFB07F511731E21CA
S32D0000DC00184601F08BF907F5E873184601F010F807F51173184601F00BF807F51173184601F05CF90346002B0B
S32D0000DC2802D0002387F8573A07F5E873184601F051F90346002B05D0012387F8573A674809F025FD97F8572A82
S32D0000DC5007F5AA631146184605F038FB624BC7F81C3A624BC7F8183A3223C7F8143AFF215C4809F056FDD7F8FF
S32D0000DC78140A3DF059FF0446D7F8140A3DF054FF034600932346D7F8182AD7F81C1A53480AF080FB07F59562C6
S32D0000DCA007F2AC4319464F4809F042FE0346002B7CD007F65823A3F2AC531B6818463EF06BF9044607F658233E
S32D0000DCC8A3F5B6631B6818463EF062F90546D7F81C0A3EF05DF90646D7F8180A3EF058F90146D7F8143AD7F860
S32D0000DCF0142A019200930B46324629462046FEF7BFFB0346002B56D007F65823A3F2AC531B68D7F81C1A1846C9
S32D0000DD183DF058FE03461C46D7F8140A3DF004FF0346194620463EF00BF8034683F0004207F65823A3F51973B9
S32D0000DD401A6007F65823A3F5B6631B68D7F8181A18463DF03BFE03461C46D7F8140A3DF0E7FE03461946204612
S32D0000DD683DF0EEFF03461A4607F65823A3F519735A6007F65823A3F51973196807F65823A3F519735A6807F6FC
S32D0000DD905823A3F519739B6807F5AA6004F008FC07F5AA63184604F01BFC04E007F5AA63184604F051FD07F5CA
S32D0000DDB811731846FEF7CCFB07F5E8731846FEF7C7FBFEF712BE084B00221A70FEF77DBD58EF05000000BE42F4
S32D0000DDE000007A43C81A0020000020430000F042E5170020B0B582B000AF78603960386800F0FAF805464420BD
S32D0000DE080BF0B4F903461C462946204601F04EFD2146786800F006F978680837BD46B0BD90B585B000AF7860C2
S32D0000DE307B68184600F009F9F860FB681B68002B0CD0786800F00EF90446F86800F017F903461B68194620463A
S32D0000DE5800F01BF9FB6800221A607B6818461437BD4690BD80B584B000AFF860B9607A60FB68B9687A68184696
S32D0000DE8000F02FF9FB6818461037BD4680BDB0B582B000AF786039607C68386800F00AF90546386800F0DEF835
S32D0000DEA80346184600F00FF903461A4629462046FFF7D8FF7B6818460837BD46B0BD90B585B000AF78607B688E
S32D0000DED0184600F01CF9F860FB681B68002B0CD0786800F021F90446F86800F02AF903461B681946204600F054
S32D0000DEF82EF9FB6800221A607B6818461437BD4690BD2DE9F04184B000AFF860B9607A603B60B86800F06CF876
S32D0000DF200546786800F028F90646386800F02EF980464C200BF01EF903461C46434632462946204602F0D8F90C
S32D0000DF482146F86800F038F9F8681037BD46BDE8F08190B585B000AF78607B68184600F03AF9F860FB681B6860
S32D0000DF70002B0CD0786800F03FF90446F86800F048F903461B681946204600F04CF9FB6800221A607B68184693
S32D0000DF981437BD4690BD80B584B000AFF860B9607A60FB68B9687A68184600F060F9FB6818461037BD4680BD08
S32D0000DFC0B0B582B000AF786039607C68386800F03BF90546386800F00FF90346184600F040F903461A46294609
S32D0000DFE82046FFF7D8FF7B6818460837BD46B0BD80B483B000AF78607B6818460C37BD4680BC704780B582B019
S32D0000E01000AF786039607B683A681146184600F040F97B6818460837BD4680BD80B582B000AF786039607B6835
S32D0000E03839681846FFF7E6FF7B6818460837BD4680BD80B582B000AF78607B68184600F038F9034618460837EA
S32D0000E060BD4680BD80B582B000AF78607B68184600F038F9034618460837BD4680BD80B483B000AF78607B680B
S32D0000E08818460C37BD4680BC704780B582B000AF786039603B68002B04D01A68183212681846904700BF083731
S32D0000E0B0BD4680BD80B582B000AF78607B68184600F01DF9034618460837BD4680BD80B483B000AF78607B68D6
S32D0000E0D818460C37BD4680BC704790B585B000AFF860B9607A60FC687868FFF7ECFF024607F1080319462046DA
S32D0000E10000F012F9FB6818461437BD4690BD80B582B000AF78607B68184600F01EF9034618460837BD4680BD3E
S32D0000E12880B582B000AF78607B68184600F01EF9034618460837BD4680BD80B483B000AF78607B6818460C37FB
S32D0000E150BD4680BC704780B582B000AF786039603B68002B04D01A68183212681846904700BF0837BD4680BDC9
S32D0000E17880B483B000AF78607B6818460C37BD4680BC704780B483B000AF78607B6818460C37BD4680BC7047A9
S32D0000E1A080B582B000AF786039607B683A681146184600F0F9F87B6818460837BD4680BD80B582B000AF786001
S32D0000E1C839607B6839681846FFF7E6FF7B6818460837BD4680BD80B582B000AF78607B68184600F0F1F80346C2
S32D0000E1F018460837BD4680BD80B582B000AF78607B68184600F0F1F8034618460837BD4680BD80B483B000AFE0
S32D0000E21878607B6818460C37BD4680BC704780B582B000AF786039603B68002B04D01A681832126818469047E2
S32D0000E24000BF0837BD4680BD80B582B000AF78607B68184600F0D6F8034618460837BD4680BD80B483B000AF49
S32D0000E26878607B6818460C37BD4680BC704790B585B000AFF860B9607A60FC687868FFF7ECFF024607F1080352
S32D0000E2901946204600F0CBF8FB6818461437BD4690BD80B582B000AF786039607B68184600F0D6F87868FFF730
S32D0000E2B8C8FE02463B6813607B6818460837BD4680BD80B582B000AF78607B68184600F0DDF80346184608377A
S32D0000E2E0BD4680BD80B582B000AF78607B68184600F0DCF8034618460837BD4680BD80B584B000AF78607868E7
S32D0000E308FFF79FFE03461B68FB607868FFF799FE034600221A60FB6818461037BD4680BDB0B584B000AFF860F3
S32D0000E330B9607A60FC68B86800F0C4F805467868FFF7C5FE03461A462946204600F0C4F8FB6818461037BD4683
S32D0000E358B0BD80B582B000AF78607B68184600F0D3F8034618460837BD4680BD80B582B000AF78607B681846EB
S32D0000E38000F0D2F8034618460837BD4680BD80B582B000AF78607B68184600F0D1F8034618460837BD4680BD81
S32D0000E3A880B582B000AF786039607B68184600F0D9F87868FFF70FFF02463B6813607B6818460837BD4680BDBC
S32D0000E3D080B582B000AF78607B68184600F0E0F8034618460837BD4680BD80B582B000AF78607B68184600F0E3
S32D0000E3F8DFF8034618460837BD4680BD80B584B000AF78607868FFF7E6FE03461B68FB607868FFF7E0FE03462C
S32D0000E42000221A60FB6818461037BD4680BDB0B584B000AFF860B9607A60FC68B86800F041F805467868FFF789
S32D0000E4480CFF03461A462946204600F0BDF8FB6818461037BD46B0BD80B582B000AF78607B68184600F0CCF81D
S32D0000E4707B6818460837BD4680BD80B582B000AF78607B68184600F0CFF8034618460837BD4680BD80B582B04B
S32D0000E49800AF78607868FFF7ECFF034618460837BD4680BD80B582B000AF7860786800F0CDF80346184608377F
S32D0000E4C0BD4680BD80B483B000AF78607B6818460C37BD4680BC704790B585B000AFF860B9607A607868FFF73C
S32D0000E4E8F2FD03461946F86800F0BCF8FC68B868FFF7E4FF03461946204600F0C5F8FB6818461437BD4690BDF7
S32D0000E51080B582B000AF78607868FFF738FF034618460837BD4680BD80B582B000AF7860786800F0BEF80346FF
S32D0000E53818460837BD4680BD80B483B000AF78607B6818460C37BD4680BC704780B582B000AF7860786800F0B2
S32D0000E560B4F8034618460837BD4680BD80B582B000AF78607B68184600F0B1F87B6818460837BD4680BD80B5FE
S32D0000E58882B000AF78607B68184600F0B4F8034618460837BD4680BD80B582B000AF78607868FFF7ECFF0346B1
S32D0000E5B018460837BD4680BD80B582B000AF7860786800F0B2F8034618460837BD4680BD90B585B000AFF86051
S32D0000E5D8B9607A607868FFF740FE03461946F86800F0ABF8FC68B868FFF768FF03461946204600F049F8FB68F0
S32D0000E60018461437BD4690BD80B582B000AF7860786800F0A8F87B68184600F0B0F87B6818460837BD4680BDFC
S32D0000E62880B483B000AF78607B6818460C37BD4680BC704780B582B000AF7860786800F0A7F803461846083719
S32D0000E650BD4680BD80B582B000AF78607868FFF7EDFF034618460837BD4680BD80B582B000AF7860396038685F
S32D0000E678FFF729FD03461946786800F093F87B6818460837BD4680BD80B582B000AF786039603868FFF712FF67
S32D0000E6A003461A687B681A607B6818460837BD4680BD80B582B000AF78607868FFF74AFF034618460837BD466E
S32D0000E6C880BD80B483B000AF78607B6818460C37BD4680BC704780B582B000AF7860786800F072F87B68184616
S32D0000E6F000F07AF87B6818460837BD4680BD80B483B000AF78607B6818460C37BD4680BC704780B582B000AF5C
S32D0000E7187860786800F071F8034618460837BD4680BD80B582B000AF78607868FFF7EDFF034618460837BD4603
S32D0000E74080BD80B582B000AF786039603868FFF788FD03461946786800F05DF87B6818460837BD4680BD80B50A
S32D0000E76882B000AF7860786800F063F87B6818460837BD4680BD80B483B000AF78607B6800221A607B68184631
S32D0000E7900C37BD4680BC704780B483B000AF78607B6818460C37BD4680BC704780B582B000AF78603960386893
S32D0000E7B8FFF789FC03461946786800F044F87B6818460837BD4680BD80B582B000AF7860786800F043F87B6868
S32D0000E7E018460837BD4680BD80B483B000AF78607B6800221A607B6818460C37BD4680BC704780B483B000AF31
S32D0000E80878607B6818460C37BD4680BC704780B582B000AF786039603868FFF71EFD03461946786800F024F8C4
S32D0000E8307B6818460837BD4680BD80B483B000AF78607B6818460C37BD4680BC704780B483B000AF786039600B
S32D0000E8587B6818460C37BD4680BC704780B483B000AF78607B6818460C37BD4680BC704780B483B000AF7860C2
S32D0000E88039607B6818460C37BD4680BC7047000080B582B000AF786039607B68012B0CD13B684FF6FF729342B6
S32D0000E8A807D106480AF010FF054A064903480AF0D7FB00BF0837BD4680BD00BFE417002000000020F19601009E
S32D0000E8D080B500AF4FF6FF710120FFF7D9FF80BD80B400AF024B1846BD4680BC704700BFFFFF7F7F2DE9B0430D
S32D0000E8F884B000AFF860B9607A603B60FB684FF4A0721A60FB68F0225A60FB686FF07F429A60FB684C4ADA6018
S32D0000E920FB684C4A1A61FB6800225A61FB684A4A9A62FB68002283F82D20FB685C33184628F01AF8FB681B6875
S32D0000E94818463CF079FC4FF000024FF080433CF017FE02460B4614461D46786828F08EF8034618463CF068FC13
S32D0000E9704FF000024FF080433CF006FE02460B4690469946354808F0CFFA034618463CF067FC02460B46404625
S32D0000E99849463CF0CBFC02460B46204629463CF00DFB02460B46104619463CF0B7FF0246FB685A63B8683DF048
S32D0000E9C0BBF80246FB689A63786828F05BF80446224808F0A9FA034604FB03F318463DF0A7F80246FB685A6562
S32D0000E9E81C4808F0A7FA034618463DF0A1F80246FB689A65FB685C337968184627F0F6FFFB6800221A76FB6838
S32D0000EA1001225A76FB68002283F82C20FB68002283F82D203A68FB68DA61BA6AFB681A62FB681B691A46FB685F
S32D0000EA385A62FB68DA69FB681A63FB6818461037BD46BDE8B08300BF6666660021212100E22B8A00C81A00209E
S32D0000EA6090B585B000AFF860B9607A603B60FB684FF4A0721A60FB68F0225A60FB686FF07F429A60FB682E4AC0
S32D0000EA88DA60FB682D4A1A61FB6800225A61FB682B4A9A62FB68002283F82D20FB685C33184627F065FFFB6842
S32D0000EAB0BA685A63FB687A689A63386827F0E2FF0446224808F030FA034604FB03F318463DF02EF80246FB680F
S32D0000EAD85A651C4808F02EFA034618463DF028F80246FB689A65FB685C333968184627F07DFFFB6800221A7696
S32D0000EB00FB6801225A76FB68002283F82C20FB68002283F82D203A6AFB68DA617A6AFB681A62FB681B691A46AC
S32D0000EB28FB685A62FB68DA69FB681A63FB6818461437BD4690BD00BF6666660021212100E22B8A00C81A0020D1
S32D0000EB50F0B58BB002AF78607B681B6B1946334808F0DFFD7B685C6B304808F0DDF9034618463CF0E1FF03462B
S32D0000EB78194620463CF026FF034618463DF008FA05467B689B6B18463DF002FA06467B685C6D244808F0C4F9AF
S32D0000EBA003465B0018463CF0C7FF0346194620463CF00EFF034618463DF0EEF904467B689B6D18463DF0E8F9B0
S32D0000EBC803460093234632462946164809F07FFA7B6803F15C0207F108031146184628F041FA7B685B6B1846DC
S32D0000EBF03DF0D2F904467B689B6B4FF0814118463CF0E6FE034618463DF0C6F9034607F108012246054808F0D3
S32D0000EC18BAFD07F10803184627F0DCFE00BF2437BD46F0BDC81A0020B0B584B000AF78607B685B7E002B00F002
S32D0000EC4046810023FB730023BB737B6803F13C017B6840331A46924808F06AFE7B68DC6B7B685D6B8E4808F056
S32D0000EC685FF9034618463CF063FF0346194628463CF0A8FE0346194620463DF05FF90346002B44D07B68DC6BC4
S32D0000EC907B685A6B7B685B6D194610463CF098FE03461D467E4808F03FF9034618463CF043FF034619462846BF
S32D0000ECB83CF08AFE03464FF07E5118463CF082FE0346194620463DF02FF90346002B1ED07B681A6C7B689B6B02
S32D0000ECE0194610463DF02EF90346002B13D07B681C6C7B689A6B7B689B6D194610463CF067FE03461946204614
S32D0000ED083DF012F90346002B01D0012200E000227B6883F82C207B6803F13C017B6840331A465D4808F000FE2C
S32D0000ED30034683F00103DBB2002B6ED17B6803F144017B6848331A46554808F0F1FD0346002B62D07B68DC6BD1
S32D0000ED587B685D6B504808F0EDF8034618463CF0E7FE0346194628463CF02CFE0346194620463DF0E3F80346EA
S32D0000ED80002B27D07B68DC6B7B685A6B7B685B6D194610463CF01CFE03461D46404808F0C3F8034618463CF011
S32D0000EDA8C7FE0346194628463CF00EFE03464FF07E5118463CF006FE0346194620463DF0B3F80346002B01D01A
S32D0000EDD0012300E00023FB737B681A6C7B689B6B194610463DF0AEF80346002B13D07B681C6C7B689A6B7B6819
S32D0000EDF89B6D194610463CF0E7FD0346194620463DF092F80346002B01D0012300E00023BB73FB7B002B19D037
S32D0000EE20BB7B002B16D07B685B69002B03D17B6801225A6106E07B685B69012B02D17B6802225A617B681A6A61
S32D0000EE487B681A637B6801221A763CE07B685B69022B03D17B6803225A6106E07B685B69032B02D17B6800228C
S32D0000EE705A617B6893F82C30002B13D07B689A6A7B681A637B6893F82D3083F00103DBB2002B0FD07B680122BB
S32D0000EE9883F82D200AE000BFC81A00207B68DA697B681A637B68002283F82D207B6800221A76FFF711FD0246A5
S32D0000EEC07B68DA63FFF70CFD02467B681A647868FFF73EFE00BF1037BD46B0BD80B483B000AF78607B681B7E6A
S32D0000EEE818460C37BD4680BC704780B485B000AF78600023FB737B685B69012B04D17B6802225A610123FB73E8
S32D0000EF10FB7B18461437BD4680BC704780B582B000AF7860396038683CF006FE02467B689A6500BF0837BD463C
S32D0000EF3880BD80B584B000AFF860B9607A60B968F8683CF0F1FF0346002B01D0BB6809E07968F8683CF0F2FFBF
S32D0000EF600346002B01D07B6800E0FB6818461037BD4680BD80B584B000AFF860C7E90023D7E90623D7E9000146
S32D0000EF883CF01CF802460B46F968C1E90023FB68D3E90023F968C1E90223F9684FF000024FF00003C1E904232D
S32D0000EFB0FB684FF00002DA62FB680A4A1A62FB68094A5A62FB68074A9A62F9684FF000024FF00003C1E90C2341
S32D0000EFD8FB6818461037BD4680BD00BFACC5273795BFD633000000002DE9B04F88B000AF7861C7E90223D7E96E
S32D0000F0001023D7E902013BF0DDFF02460B467969C1E900237B69D3E90423C7E900237B69D3E90001D7E912236D
S32D0000F0283CF084F902460B46D7E900013BF0C8FF02460B467969C1E9042377A3D3E90023D7E912013CF0E4FBA2
S32D0000F0500346002B04D072A3D3E90023C7E912237B69D3E900014FF000024FF000033CF0F1FB0346002B0BD0E6
S32D0000F0787B69D3E902014FF000024FF000033CF0C7FB0346002B27D17B69D3E900014FF000024FF000033CF09A
S32D0000F0A0BBFB0346002B0BD07B69D3E902014FF000024FF000033CF0CDFB0346002B0FD17B69D3E90023924634
S32D0000F0C823F0004B56A3D3E90023504659463CF09FFB0346002B06D079694FF000024FF00003C1E904237B6985
S32D0000F0F0D3E90C01D7E902233BF064FF02460B46904623F0004948A3D3E90023404649463CF096FB0346002BDB
S32D0000F11806D079694FF000024FF00003C1E904237B69D3E90C01D7E902233BF047FF02460B46144623F000456F
S32D0000F1404FF000023A4B204629463CF079FB0346002B03D07B694FF00002DA624FF00002344BC7E906237B6941
S32D0000F168D3E90423104619463CF0D8FB0346304A30491846FFF7DDFE034618463CF07EF802460B467969C1E909
S32D0000F19004237B69D3E900017B69D3E902233BF011FF02460B4610461946D7E912233CF0EBF902460B467969BB
S32D0000F1B8C1E906237B69D3E900237969C1E902237B69DB6A18463CF059F804460D467B691B6A18463CF052F804
S32D0000F1E07B69D3E900233CF0A5F802460B46204629463BF0E9FE02460B46104619463CF091FB02467B69DA6287
S32D0000F2087969D7E90223C1E90C237B69DB6A18462037BD46BDE8B08FFCA9F1D24D62503F9A9999999999B93F3E
S32D0000F2300000E03F0000494000004842000048C280B485B000AFF860B9607A603B60FB68BA681A62FB687A6830
S32D0000F2585A62FB683A689A6200BF1437BD4680BC7047000080B582B000AF7860094808F00EFA0421074808F020
S32D0000F28015FA0221054808F038FA786827F0CAFE03461946014808F081FCEEE7C81A002080B582B000AF7860CD
S32D0000F2A8084611461A460346FB700B46BB7013467B707B682B4A1A607B682B4A5A607B682A4A9A607B682A4A33
S32D0000F2D0DA607B68294A1A617B681433FA781146184607F05BFA7B681533BA781146184607F054FA7B681633E5
S32D0000F2F87A781146184607F04DFA7B6800225A627B6800229A627B68002283F82C207B68002283F82D207B68C5
S32D0000F32001225A637B6800229A637B680022DA637B6800221A647B6800225A647B68002283F82E207B6803227F
S32D0000F3489A647B684FF000029A617B684FF00002DA617B684FF000021A627B6818460837BD4680BDD7A33040D1
S32D0000F37033335340E8B401BDE742523DFD1BA1BC80B483B000AF786039607A683B68134018460C37BD4680BCB0
S32D0000F398704780B483B000AF786039607A683B68134318460C37BD4680BC704780B483B000AF78607B68DB43A8
S32D0000F3C018460C37BD4680BC704780B582B000AF786039607B681B6839681846FFF7DDFF02467B681A607B6842
S32D0000F3E818460837BD4680BD80B582B000AF786039607B681B6839681846FFF7BDFF02467B681A607B68184696
S32D0000F4100837BD4680BD90B587B000AFF860B9607A60FB68DB687B61FB6803F10C047868FFF7C0FF03461946B3
S32D0000F4382046FFF7D9FFFB6803F10C047968B868FFF79AFF034619462046FFF7BAFF7B6918461C37BD4690BDD9
S32D0000F46080B582B000AF78604FF4827204217868FFF7D1FF7B6818460837BD4680BD80B483B000AF78607B68FD
S32D0000F48818460C37BD4680BC7047000080B582B000AF786039607B68012B0CD13B684FF6FF72934207D10648F8
S32D0000F4B00AF00EF9054A0649034809F0D5FD00BF0837BD4680BD00BFE817002000000020F196010080B500AFD1
S32D0000F4D84FF6FF710120FFF7D9FF80BD80B586B002AF786039603A23FB6038683BF0C6FE02460B467868CDE922
S32D0000F5000023044B3A22044900F062F878681037BD4680BD5CEF05008D59050090B583B000AF7860396006F048
S32D0000F528EBFC034618463CF0FFFA0346796818463CF048FA034601221446194638683CF0F3FC0346002B01D1E6
S32D0000F55000231C46E3B218460C37BD4690BD000080B582B000AF7860064A7B681A607B680433184627F000FA5E
S32D0000F5787B6818460837BD4680BD00BFE0EF050080B582B000AF7860064A7B681A607B680433184627F01EFAD0
S32D0000F5A07B6818460837BD4680BD00BFE0EF050080B582B000AF78607868FFF7E5FF1C21786809F0D5FD7B6877
S32D0000F5C818460837BD4680BD08B490B588B000AFF860B9607A607B680733DB08DB00ADEB030D6B460733DB08B4
S32D0000F5F0DB00FB6107F130033B61BC683B69FA6A7968F869A047B861BB69FA69D41807F11403184609F07EFE2C
S32D0000F61807F114032246F969F86800F03BF807F11403184609F074FEF8682037BD46BDE8904001B0704780B5C4
S32D0000F64084B000AFF860B9607A60BA680021786827F0C8FB0346184600F03BF803461946F86827F09BF9F86894
S32D0000F6681037BD4680BD80B584B000AFF860B9607A607968B86827F0FFFB0346184600F024F803461946F868BD
S32D0000F69027F084F9F8681037BD4680BD90B585B000AFF860B9607A603B60FC68F86827F057F803463A6819464E
S32D0000F6B8204627F0D5FC7A68B968F86800F00FF8FB6818461437BD4690BD80B483B000AF78607B6818460C37AE
S32D0000F6E0BD4680BC704780B584B000AFF860B9607A607A68B968F86800F004F800BF1037BD4680BD90B587B092
S32D0000F70800AFF860B9607A603B7023467A68B968F86800F005F800BF1C37BD4690BD000080B586B000AFF860A1
S32D0000F730B9607A603B70B86800F03EF80346002B05D0BA687B689A4201D0012300E00023002B02D017481BF03E
S32D0000F758C5FE7968B86800F03AF803467B617B690F2B10D907F1140300221946F86826F0FDFF03461946F86867
S32D0000F78026F0EAFF7B691946F86826F0EBFFF86826F0E4FF03467A68B968184627F036F87B691946F86826F0B8
S32D0000F7A8DFFF00BF1837BD4680BD00BFACEF050080B483B000AF78607B68002B0CBF01230023DBB218460C376C
S32D0000F7D0BD4680BC7047B0B582B000AF786039607C683B1D184600F00AF82A463968204600F00FF803461846BD
S32D0000F7F80837BD46B0BD80B483B000AF786000BF18460C37BD4680BC704780B485B000AFF860B9603A71BA689A
S32D0000F820FB68D31A18461437BD4680BC704790B587B000AF786039603B68DB0FFB75FB7D002B02D03B685B427D
S32D0000F84800E03B683B610A21386900F0FBFBF860FA7DFB68D41807F10803184609F056FD07F108032D2221463D
S32D0000F870786827F089F807F10803184609F04CFDFB7D1946786827F04DF903463A69F968184600F019FC00BFCC
S32D0000F89878681C37BD4690BD80B483B000AF7860012318460C37BD4680BC704790B585B000AF786039607B6899
S32D0000F8C01846FFF74DFE174A7B681A607B683A68DA617B6803F12C0407F10C03184609F019FD07F10C031A461B
S32D0000F8E80F49204627F004FC07F10C03184609F00FFD06F001FB034618463CF015F902467B681A627B68002234
S32D0000F91083F829207B6800225A627B6818461437BD4690BD5CF1050014F0050080B582B000AF78607B68DB69F8
S32D0000F938184603F05BFD7B68D8694FF000034FF000024FF0000103F01BF806F0D5FA034618463CF0E9F802464A
S32D0000F9607B681A627B6800225A627B68DB69184603F040FD00BF0837BD4680BD90B5ADF5577D00AF07F5567337
S32D0000F988A3F55573186007F55673A3F555731B6803F12C0107F52B73DF4A184600F0E6FB07F55673A3F5557399
S32D0000F9B01B685A6A07F5317311461846FFF737FF07F5257307F5317207F52B71184600F0E4FB07F5317318466B
S32D0000F9D827F000F807F52B73184626F0FBFF07F52573184627F01AFB014600230022CB4807F0A6FE06F080FA22
S32D0000FA00034618463CF094F8024607F55673A3F555731B681B6A194610463BF0D7FF0346C7F8543307F53D7313
S32D0000FA28D7F854131846FFF759FD07F5377307F53D72BB491846FFF7FEFD07F51F7307F53771B84A1846FFF7A4
S32D0000FA500EFE07F53773184626F0C0FF07F53D73184626F0BBFF07F51F73184627F0DAFA01461E230022AB4855
S32D0000FA7807F066FE07F5D673184626F0CBFB07F5D6730833A849184625F00CFE0346A749184625F03FFC044667
S32D0000FAA00220FFF7ECFC03461946204625F0C0FC044607F55673A3F555731B68DB69184602F03EFF03461B68CA
S32D0000FAC81946204625F0B2FE03469949184625F0E9FD03469549184625F01CFC04460220FFF7C9FC0346194681
S32D0000FAF0204625F09DFC044607F55673A3F555731B68DB69184602F01BFF034604331B681946204625F08EFECB
S32D0000FB1803468749184625F0C5FD03468349184625F0F8FB04460220FFF7A5FC03461946204625F079FC044611
S32D0000FB4007F55673A3F555731B68DB69184602F0F7FE034608331B681946204625F06AFE03467649184625F0A2
S32D0000FB68A1FD07F5437307F5D6721146184626F0B9FB07F543713C230022684807F003FE07F54373184626F05D
S32D0000FB9025FF07F1DC03184626F040FB07F1DC0308336749184625F081FD03466149184625F0B4FB0446022069
S32D0000FBB8FFF761FC03461946204625F035FC044607F55673A3F555731B68DB69184602F0BFFE03461B6819460A
S32D0000FBE0204625F027FE03465349184625F05EFD03465049184625F091FB04460220FFF73EFC03461946204619
S32D0000FC0825F012FC044607F55673A3F555731B68DB69184602F09CFE034604331B681946204625F003FE034664
S32D0000FC304149184625F03AFD03463E49184625F06DFB04460220FFF71AFC03461946204625F0EEFB044607F5FD
S32D0000FC585673A3F555731B68DB69184602F078FE034608331B681946204625F0DFFD03463049184625F016FDC3
S32D0000FC8007F5497307F1DC021146184626F02EFB07F549714B230022224807F078FD07F54973184626F09AFEF4
S32D0000FCA807F10C03184626F0B5FA07F10C0308332249184625F0F6FC03461C49184625F029FB04460220FFF74B
S32D0000FCD0D6FB03461946204625F0AAFB044607F55673A3F555731B68DB69184602F040FE03461B681946204618
S32D0000FCF825F09CFD03460E49184625F0D3FC03460A49184625F006FB04460220FFF7B3FB03461946204613E02D
S32D0000FD2020F00500C81A00202CF0050038F005003CF0050061F4000044F0050048F005004CF0050054F00500CA
S32D0000FD4825F072FB044607F55673A3F555731B68DB69184602F008FE034604331B681946204625F063FD0346F9
S32D0000FD709B49184625F09AFC03469A49184625F0CDFA04460220FFF77AFB03461946204625F04EFB044607F589
S32D0000FD985673A3F555731B68DB69184602F0E4FD034608331B681946204625F03FFD03468B49184625F076FCFD
S32D0000FDC007F54F7307F10C021146184626F08EFA07F54F715A230022844807F0D8FC07F54F73184626F0FAFDE3
S32D0000FDE807F55673A3F555731B685B6A002B02D0012B5FD0BDE007F55673A3F555731B68D8694FF00003784A9E
S32D0000FE104FF0000102F0D7FD07F55673A3F555731B68DB697349184603F0DCF807F55673A3F555731B68DB6905
S32D0000FE38184603F010FB0346002B0CD107F55673A3F555731B681B6A69491846FFF762FB0346002B01D00123F6
S32D0000FE6000E00023002B00F09A8007F55673A3F555731B68D8694FF000034FF000024FF0000102F095FB06F018
S32D0000FE883BF8034618463BF04FFE024607F55673A3F555731B681A6207F55673A3F555731B685B6A5A1C07F5AF
S32D0000FEB05673A3F555731B685A6270E007F55673A3F555731B68D8694FF000034FF000024FF0000102F077FD5A
S32D0000FED807F55673A3F555731B68DB694349184603F07CF807F55673A3F555731B68DB69184603F0B0FA03468F
S32D0000FF00002B0CD107F55673A3F555731B681B6A39491846FFF702FB0346002B01D0012300E00023002B3CD028
S32D0000FF2807F55673A3F555731B68D8694FF000034FF000024FF0000102F036FB05F0DCFF034618463BF0F0FD4D
S32D0000FF50024607F55673A3F555731B681A6207F55673A3F555731B685B6A5A1C07F55673A3F555731B685A62D0
S32D0000FF7813E007F55673A3F555731B68DB69184602F066FC07F55673A3F555731B68012283F8292002E000BF9A
S32D0000FFA000E000BF07F10C03184625F0E7FD07F1DC03184625F0E2FD07F5D673184625F0DDFD07F51F7318468F
S32D0000FFC826F008FD07F52573184626F003FD00BF07F55777BD4690BD44F0050061F4000048F00500C81A002042
S32D0000FFF0000040C09A99193F0000FA4380B483B000AF78607B6893F8293018460C37BD4680BC704780B483B068
S32D0001001800AF78607B68012283F8292000BF0C37BD4680BC704780B582B000AF786039603B682C3319467868A8
S32D0001004027F014F878680837BD4680BD80B487B000AF7860396001237B613B6803FB03F33B613A683B6902FB0E
S32D0001006803F3FB603A68FB6802FB03F3BB603B687A689A4201D27B691DE07A683B699A4202D27B69013316E0AC
S32D000100907A68FB689A4202D27B6902330FE07A68BB689A4202D27B69033308E07A68BB68B2FBF3F37B607B6936
S32D000100B804337B61DBE718461C37BD4680BC704780B489B000AFF860B9607A60BB68013BFB617B68632B25D90C
S32D000100E07A68224BA3FB02135B09642101FB03F3D31A5B00BB617B681C4AA2FB03235B097B60BB695A1CF9686A
S32D00010108FB690B4418498A5C1A70FB69013BFA6813441549BA690A4412781A70FB69023BFB61D6E77B68092B37
S32D0001013010D97B685B007B617B695A1CFB6801330B498A5C1A700A4A7B6913441A78FB681A7005E07B68DBB285
S32D000101583033DAB2FB681A7000BF2437BD4680BC704700BF1F85EB5188F0050080B584B000AFF860B9607A600D
S32D00010180B968F86826F072FF7968F86826F078FE00BFF8681037BD4680BD90B58BB000AFF860B9607A60002338
S32D000101A887F8273007F114031846FFF775FB0346002B03D0012387F8273024E007F11803B968184626F02CFF67
S32D000101D007F11C037968184626F026FF07F11C0207F118031146184600F052F803461C4607F11C03184609F03E
S32D000101F88FF807F11803184609F08AF8002C02D0012387F8273097F82730002B2BD0B86826F032FC04467868D3
S32D0001022026F02EFC034623443B62B86826F02CFC02463B6A934208D9786826F025FC02463B6A934201D801234B
S32D0001024800E00023002B0ED0BA680021786826F0ADFD03461846FFF738FA03461946F86826F098FB0CE079684B
S32D00010270B86826F0FFFD03461846FFF72AFA03461946F86826F08AFBF8682C37BD4690BD80B483B000AF7860C8
S32D000102983960012318460C37BD4680BC7047000080B582B000AF7860084A7B681A607B682C33184626F08EFB07
S32D000102C07B681846FFF760F97B6818460837BD4680BD00BF5CF1050080B582B000AF78607868FFF7E1FF4421A5
S32D000102E8786808F041FF7B6818460837BD4680BD90B587B000AFF860B9607A603B60FB681846FFF729F91A4AC1
S32D00010310FB681A60FB68BA68DA61FB683A681A62FB687A685A62FB6803F1340407F11403184608F0EFFF07F1C5
S32D0001033814031A460F49204626F0DAFE07F11403184608F0E5FF05F0D7FD034618463BF0EBFB0246FB689A6202
S32D00010360FB68002283F83120FB680022DA62FB6818461C37BD4690BD18F2050098F1050080B582B000AF78606D
S32D000103887B68DB69184603F031F805F0B5FD034618463BF0C9FB02467B689A627B680022DA627B68D869084B89
S32D000103B04FF000024FF0000102F0E6FA7B68DB69184603F017F800BF0837BD4680BD00BF000034C290B5ADF56A
S32D000103D8517D00AF07F55073A3F54F73186007F55073A3F54F731B68DA6A07F52B7311461846FFF718FA07F5B5
S32D00010400257307F52B72DE491846FFF718F907F52B73184626F0E2FA07F52573184626F001FE01460023002293
S32D00010428D64807F08DF905F067FD034618463BF07BFB024607F55073A3F54F731B689B6A194610463BF0BEFAE8
S32D000104500346C7F83C3307F53773D7F83C131846FFF740F807F5317307F53772C6491846FFF7E5F807F51F73A3
S32D0001047807F53171C34A1846FFF7F5F807F53173184626F0A7FA07F53773184626F0A2FA07F51F73184626F0FC
S32D000104A0C1FD01461E230022B64807F04DF907F5D673184625F0B2FE07F5D6730833B449184625F0F3F80346FE
S32D000104C8B249184624F026FF04460220FEF7D3FF03461946204624F0A7FF044607F55073A3F54F731B68DB694E
S32D000104F0184602F025FA03461B681946204625F099F90346A449184625F0D0F80346A149184624F003FF0446D4
S32D000105180220FEF7B0FF03461946204624F084FF044607F55073A3F54F731B68DB69184602F002FA0346043353
S32D000105401B681946204625F075F903469249184625F0ACF803468F49184624F0DFFE04460220FEF78CFF0346E1
S32D000105681946204624F060FF044607F55073A3F54F731B68DB69184602F0DEF9034608331B681946204625F0FA
S32D0001059051F903468149184625F088F807F53D7307F5D6721146184625F0A0FE07F53D713C230022734807F0B7
S32D000105B8EAF807F53D73184626F00CFA07F1DC03184625F027FE07F1DC0308337249184625F068F803466D49FE
S32D000105E0184624F09BFE04460220FEF748FF03461946204624F01CFF044607F55073A3F54F731B68DB69184674
S32D0001060802F0A6F903461B681946204625F00EF903465F49184625F045F803465B49184624F078FE04460220A3
S32D00010630FEF725FF03461946204624F0F9FE044607F55073A3F54F731B68DB69184602F083F9034604331B6870
S32D000106581946204625F0EAF803464D49184625F021F803464949184624F054FE04460220FEF701FF03461946A4
S32D00010680204624F0D5FE044607F55073A3F54F731B68DB69184602F05FF9034608331B681946204625F0C6F88D
S32D000106A803463C49184624F0FDFF07F5437307F1DC021146184625F015FE07F543714B2300222E4807F05FF87E
S32D000106D007F54373184626F081F907F10C03184625F09CFD07F10C0308332E49184624F0DDFF0346274918462A
S32D000106F824F010FE04460220FEF7BDFE03461946204624F091FE044607F55073A3F54F731B68DB69184602F06A
S32D0001072027F903461B681946204625F083F803461949184624F0BAFF03461649184624F0EDFD04460220FEF72E
S32D000107489AFE03461946204624F06EFE044607F55073A3F54F731B68DB69184602F004F9034604331B68194683
S32D00010770204625F05FF803460749184614E000BFA4F10500C81A0020B4F10500C0F10500C4F1050061F40000D3
S32D00010798CCF10500D0F10500D4F10500DCF1050024F080FF0346BD49184624F0B3FD04460220FEF760FE034602
S32D000107C01946204624F034FE044607F55073A3F54F731B68DB69184602F0CAF8034608331B681946204625F0E2
S32D000107E825F80346AE49184624F05CFF07F5497307F10C021146184625F074FD07F549715A230022A74806F085
S32D00010810BEFF07F54973184626F0E0F807F55073A3F54F731B68DB6A0B2B00F2728401A252F823F0650801008B
S32D0001083833090100D3090100CD0A01006F0B0100250C0100E30C0100B10D0100510E0100E50E0100A10F01003E
S32D000108605D10010007F55073A3F54F731B685B6A8F49184606F0DCFA07F55073A3F54F731B68D8694FF07C53AD
S32D000108884FF000024FF0000101F08EFE07F55073A3F54F731B68DB69184601F09DFE07F55073A3F54F731B68DD
S32D000108B09B6A80491846FEF731FE0346002B00F03A8407F55073A3F54F731B68D8694FF000034FF000024FF008
S32D000108D8000102F055F807F55073A3F54F731B68D8694FF000034FF000024FF0000101F05BFE05F001FB03468D
S32D0001090018463BF015F9024607F55073A3F54F731B689A6207F55073A3F54F731B68DB6A5A1C07F55073A3F5A3
S32D000109284F731B68DA6200F002BC07F55073A3F54F731B68D8694FF000034FF000025C4902F03DF807F5507386
S32D00010950A3F54F731B68DB69184602F0F9F907F55073A3F54F731B68DB69184602F077FD0346002B0CD107F524
S32D000109785073A3F54F731B689B6A4E491846FEF7C9FD0346002B01D0012300E00023002B00F0CF8305F0B0FA83
S32D000109A0034618463BF0C4F8024607F55073A3F54F731B689A6207F55073A3F54F731B68DB6A5A1C07F55073A4
S32D000109C8A3F54F731B68DA62B3E307F55073A3F54F731B68D8694FF00003374A4FF0404101F0EDFF07F5507355
S32D000109F0A3F54F731B68DB693249184602F0F2FA07F55073A3F54F731B68DB69184602F026FD0346002B0CD15C
S32D00010A1807F55073A3F54F731B689B6A28491846FEF778FD0346002B01D0012300E00023002B00F0808307F54F
S32D00010A405073A3F54F731B68DC6907F55073A3F54F731B68DB69184601F072FF034619684FF000034FF00002B5
S32D00010A68204601F08DFF05F047FA034618463BF05BF8024607F55073A3F54F731B689A6207F55073A3F54F7328
S32D00010A901B68DB6A5A1C07F55073A3F54F731B68DA624CE361F40000D0F10500C81A0020000034430000C84353
S32D00010AB8000040C000007A450000A0C09A99193F00007A4407F55073A3F54F731B68D8694FF000034FF07E5279
S32D00010AE04FF0404101F06FFF07F55073A3F54F731B68DB69184602F02BF907F55073A3F54F731B68DB69184636
S32D00010B0802F0A9FC0346002B0CD107F55073A3F54F731B689B6AC3491846FEF7FBFC0346002B01D0012300E096
S32D00010B300023002B00F0058305F0E2F9034618463AF0F6FF024607F55073A3F54F731B689A6207F55073A3F503
S32D00010B584F731B68DB6A5A1C07F55073A3F54F731B68DA62E9E207F55073A3F54F731B68D8694FF03F434FF0EE
S32D00010B8000024FF0000101F013FD07F55073A3F54F731B68DB69184601F022FD07F55073A3F54F731B689B6A14
S32D00010BA8A1491846FEF7B6FC0346002B00F0C78207F55073A3F54F731B68D8694FF000034FF000024FF00001E2
S32D00010BD001F0EEFC07F55073A3F54F731B68D869944B4FF07E524FF0404101F0CDFE05F087F9034618463AF08E
S32D00010BF89BFF024607F55073A3F54F731B689A6207F55073A3F54F731B68DB6A5A1C07F55073A3F54F731B6861
S32D00010C20DA6290E207F55073A3F54F731B68D869804B4FF000024FF0404101F0C4FE07F55073A3F54F731B68FF
S32D00010C48DB697B49184602F0C9F907F55073A3F54F731B68DB69184602F0FDFB0346002B0CD107F55073A3F593
S32D00010C704F731B689B6A71491846FEF74FFC0346002B01D0012300E00023002B00F05D8207F55073A3F54F7334
S32D00010C981B68D8694FF000034FF000024FF0000101F082FC05F028F9034618463AF03CFF024607F55073A3F576
S32D00010CC04F731B689A6207F55073A3F54F731B68DB6A5A1C07F55073A3F54F731B68DA6233E207F55073A3F529
S32D00010CE84F731B68D869514B4FF00002524901F066FE07F55073A3F54F731B68DB694C49184602F06BF907F565
S32D00010D105073A3F54F731B68DB69184602F09FFB0346002B0CD107F55073A3F54F731B689B6A44491846FEF714
S32D00010D38F1FB0346002B01D0012300E00023002B00F0018207F55073A3F54F731B68D8694FF000034FF0000236
S32D00010D604FF0000101F024FC07F55073A3F54F731B68DB69184601F06FFD05F0C1F8034618463AF0D5FE0246DE
S32D00010D8807F55073A3F54F731B689A6207F55073A3F54F731B68DB6A5A1C07F55073A3F54F731B68DA62CEE1C6
S32D00010DB007F55073A3F54F731B681B6A2249184603F0B6F907F55073A3F54F731B689B6A1E491846FEF7A2FB90
S32D00010DD80346002B00F0B98105F08EF8034618463AF0A2FE024607F55073A3F54F731B689A6207F55073A3F52B
S32D00010E004F731B68DB6A5A1C07F55073A3F54F731B68DA6207F55073A3F54F731B681B6A4FF00001184603F039
S32D00010E2883F992E100007A4500C0A844000016C3CDCCCC3E0000FA430000C0C00080BB440000A0420000E14482
S32D00010E5007F55073A3F54F731B681B6AC049184603F066F907F55073A3F54F731B689B6ABC491846FEF752FB53
S32D00010E780346002B00F06B8105F03EF8034618463AF052FE024607F55073A3F54F731B689A6207F55073A3F578
S32D00010EA04F731B68DB6A5A1C07F55073A3F54F731B68DA6207F55073A3F54F731B681B6A4FF00001184603F099
S32D00010EC833F907F55073A3F54F731B68D869A44B4FF00002A34901F053FD38E107F55073A3F54F731B68D8699F
S32D00010EF09D4B4FF000029E4901F065FD07F55073A3F54F731B68DB699A49184602F06AF807F55073A3F54F73E2
S32D00010F181B68DB69184602F09EFA0346002B0CD107F55073A3F54F731B689B6A90491846FEF7F0FA0346002B7F
S32D00010F4001D0012300E00023002B00F0068107F55073A3F54F731B68D8694FF000034FF000024FF0000101F057
S32D00010F6823FB04F0C9FF034618463AF0DDFD024607F55073A3F54F731B689A6207F55073A3F54F731B68DB6A14
S32D00010F905A1C07F55073A3F54F731B68DA62DCE007F55073A3F54F731B68D8696E4B4FF00002724901F007FDA1
S32D00010FB807F55073A3F54F731B68DB696E49184602F00CF807F55073A3F54F731B68DB69184602F040FA03466C
S32D00010FE0002B0CD107F55073A3F54F731B689B6A64491846FEF792FA0346002B01D0012300E00023002B00F026
S32D00011008C18007F55073A3F54F731B68D8694FF000034FF000024FF0000101F0C5FA04F06BFF034618463AF0F9
S32D000110307FFD024607F55073A3F54F731B689A6207F55073A3F54F731B68DB6A5A1C07F55073A3F54F731B6842
S32D00011058DA6297E007F55073A3F54F731B68D8693F4B474A434901F0AAFC07F55073A3F54F731B68DB6918465D
S32D0001108001F066FE07F55073A3F54F731B68DB69184602F0E4F90346002B0CD107F55073A3F54F731B689B6AED
S32D000110A833491846FEF736FA0346002B01D0012300E00023002B67D007F55073A3F54F731B68D8694FF000032D
S32D000110D04FF000024FF0000101F06AFA04F010FF034618463AF024FD024607F55073A3F54F731B689A6207F54A
S32D000110F85073A3F54F731B68DB6A5A1C07F55073A3F54F731B68DA623EE007F55073A3F54F731B68DB6918463A
S32D0001112001F09AFB07F55073A3F54F731B68012283F831202DE000BF2BE000BF29E000BF27E000BF25E000BFA7
S32D0001114823E000BF21E000BF1FE000BF1DE000BF1BE000BF19E000BF0000A0C20000E144000016C30000C0C02A
S32D00011170000040C0CDCCCC3E00007A45000020419A99193F0080BB440000F0C100BF00E000BF07F10C0318460F
S32D0001119824F0F0FC07F1DC03184624F0EBFC07F5D673184624F0E6FC07F51F73184625F011FC07F5257318465F
S32D000111C025F00CFC00BF07F55177BD4690BD00BF80B483B000AF78607B6893F8313018460C37BD4680BC7047FD
S32D000111E880B483B000AF78607B68012283F8312000BF0C37BD4680BC704780B582B000AF786039603B6834338F
S32D000112101946786825F02AFF78680837BD4680BD80B582B000AF7860084A7B681A607B683433184625F0D2FBAC
S32D000112387B681846FEF7A4F97B6818460837BD4680BD00BF18F2050080B582B000AF78607868FFF7E1FF4C2115
S32D00011260786807F085FF7B6818460837BD4680BD80B483B000AF786039603B6818460C37BD4680BC704780B54E
S32D0001128882B000AF78607B68184600F0CCF87B6818460837BD4680BD80B582B000AF78607B681846FFF7EBFFBA
S32D000112B07B6818460837BD4680BD000080B582B000AF78607B680833184625F055FB7B6820331846FFF7E4FF13
S32D000112D87B6800225A607B6808330749184625F055FD7B6800221A707B6800225A707B6818460837BD4680BDD7
S32D000113004CF2050090B583B000AF786039607B6803F12004386800F09AF803461946204600F09FF800BF0C372F
S32D00011328BD4690BD90B58BB000AF78607B682033184600F0A3F878627B685B687A6A9A4256D97B6803F12002B8
S32D000113507B685B681946104600F0A3F838627B6803F10804386A00F0ABF803461A681032126807F108001946F0
S32D00011378904707F108031946204625F03DFB07F10803184625F026FB386A00F095F803461A68083212681846C7
S32D000113A09047034683F00103DBB2002B1BD07B685B7883F00103DBB2002B0AD0386A00F07FF803461A681268D7
S32D000113C8184690477B6801225A70386A00F074F803461A68043212681846904711E07B685B685A1C7B685A6099
S32D000113F07B6800225A7008E07B6801221A707B6808330449184625F0C5FC00BF2C37BD4690BD00BF4CF2050074
S32D0001141880B483B000AF78607B681B7818460C37BD4680BC704780B582B000AF7860786800F04EF87B68184665
S32D0001144000F056F87B6818460837BD4680BD80B483B000AF78607B6818460C37BD4680BC704780B582B000AF01
S32D00011468786039603868FFF7EEFF03461946786800F078F800BF0837BD4680BD80B483B000AF78607B685A68A8
S32D000114907B681B68D31A9B1018460C37BD4680BC704780B483B000AF786039607B681A683B689B0013441846B9
S32D000114B80C37BD4680BC704780B582B000AF7860786800F07DF8034618460837BD4680BD80B582B000AF786085
S32D000114E0786800F07EF87B6818460837BD4680BD80B483B000AF78607B6800221A607B6800225A607B680022A6
S32D000115089A607B6818460C37BD4680BC704780B584B000AFF860B9607A60BB68002B05D0FB687A68B9681846F6
S32D0001153000F061F800BF1037BD4680BD80B483B000AF78607B6818460C37BD4680BC704780B584B000AFF86025
S32D00011558B9607A60B968F86800F058F800BF1037BD4680BDB0B582B000AF786039607B685A687B689B689A424C
S32D0001158011D07C687B685D68386800F050F803461A462946204600F054F87B685B681A1D7B685A600CE07868F7
S32D000115A800F05EF80446386800F03DF803461A462146786800F07AF800BF0837BD46B0BD80B582B000AF786011
S32D000115D07B68184600F02AF9034618460837BD4680BD80B483B000AF78607B6818460C37BD4680BC704780B5D5
S32D000115F884B000AFF860B9607A607A68B968F86800F01EF900BF1037BD4680BD80B582B000AF786039603968BE
S32D00011620786800F021F900BF0837BD4680BD80B483B000AF78607B6818460C37BD4680BC704780B584B000AFF3
S32D00011648F860B9607A607868FFF7EDFF03461A46B968F86800F03CF900BF1037BD4680BD80B584B000AF7860E1
S32D000116707B681A1D07F10C031146184600F044F9FB6818461037BD4680BD80B582B000AF184600F005F8034656
S32D0001169818460837BD4680BD80B483B000AF3871012318460C37BD4680BC7047B0B58CB000AFF860B9607A6031
S32D000116C0594A0121F86800F02EF9B862FB681B687B62FB685B683B62F86800F06BF903467B6107F1140207F140
S32D000116E808031146184600F071F90346FB61FB68B96A184600F07FF9B861BB69FB62FC68FB699B00BA69D518BB
S32D000117107868FFF78CFF03461A4629462046FFF790FF0023FB62FFF7B0FF0346002B27D007F10803184600F065
S32D000117388AF903461C68FB681846FFF7FBFE0346BA692146786A00F06AF9F862FB6A0433FB6207F108031846C6
S32D0001176000F075F903461C68FB681846FFF7E6FE0346FA6A396A204600F055F9F86226E007F10803184600F0EF
S32D0001178862F903461C68FB681846FFF7D3FE0346BA692146786A00F060F9F862FB6A0433FB6207F108031846D0
S32D000117B000F04DF903461C68FB681846FFF7BEFE0346FA6A396A204600F04BF9F862FFF75CFF034683F001033F
S32D000117D8DBB2002B09D0FB681846FFF7ABFE03461A46396A786AFFF7AFFEF868FB689A687B6AD31A9B101A467E
S32D00011800796AFFF788FEFB68BA691A60FB68FA6A5A60BB6A9B00BA691A44FB689A6000BF3037BD46B0BD00BFE6
S32D0001182854F2050080B582B000AF78607B68184600F039F903461B6818460837BD4680BD80B584B000AFF860DC
S32D00011850B9607A607B689B001946B86807F088FC00BF1037BD4680BD80B582B000AF786039607A683B689A42D0
S32D000118780AD0786800F024F90346184600F02AF97B6804337B60F0E700BF0837BD4680BD80B582B000AF7860C8
S32D000118A039607B683A681146184600F032F97B6818460837BD4680BD80B582B000AF786039607B683A68114608
S32D000118C81846FFF7E5FF7B6818460837BD4680BD90B585B000AFF860B9607A607868FFF7A2FE0446BB68194643
S32D000118F00420FFF7BDFC034621461846FFF7DCFF00BF1437BD4690BD80B483B000AF786039603B681A687B682E
S32D000119181A607B6818460C37BD4680BC704790B587B000AFF860B9607A60F86800F007F90446F868FFF7A2FDA7
S32D000119400346E21ABB689A4234BF01230023DBB2002B02D0786819F0DDFDF868FFF792FD0446F868FFF78EFD9D
S32D0001196803463B6107F1080207F110031146184600F0F6F803461B6823447B61F868FFF77DFD02467B699342EB
S32D0001199006D3F86800F0D7F802467B69934204D9F86800F0D0F8034600E07B6918461C37BD4690BD80B584B0C3
S32D000119B800AF78607A6807F10C0311461846FFF79FFFFB6818461037BD4680BD90B583B000AF78603960786887
S32D000119E000F035F803461C68386800F030F803461B68E31A9B1018460C37BD4690BD80B582B000AF786039604A
S32D00011A083B68002B06D07B683968184600F0BBF8034600E0002318460837BD4680BD90B587B002AFF860B960BF
S32D00011A307A603B608DF800403B687A68B968F86800F0B4F8034618461437BD4690BD80B483B000AF78607B6898
S32D00011A5818460C37BD4680BC704790B585B000AFF860B9607A603B60F86800F0ADF80446B86800F0A9F8014682
S32D00011A803B687A68204600F0B2F8034618461437BD4690BD80B582B000AF786039603968786800F0B5F800BF0C
S32D00011AA80837BD4680BD80B582B000AF78607B68184600F0B5F8034618460837BD4680BD80B483B000AF7860B0
S32D00011AD07B6818460C37BD4680BC704780B582B000AF78607868FCF7EEF900BF0837BD4680BD80B582B000AF71
S32D00011AF8786039607B683A681146184600F0A6F87B6818460837BD4680BD90B583B000AF786039607C683B68A7
S32D00011B20184600F08DF8034619462046FFF7E1FF3868FCF7ECFA034600221A607B6818460C37BD4690BD80B578
S32D00011B4882B000AF78607B68184600F0BCF80346184600F09EF8034618460837BD4680BD80B483B000AF78608F
S32D00011B7039607B681A683B681B689A4201D23B6800E07B6818460C37BD4680BC704780B582B000AF78603960EF
S32D00011B9800223968786800F0A0F8034618460837BD4680BD80B584B000AFF860B9607A603B603B687A68B96829
S32D00011BC0F86800F0ACF8034618461037BD4680BD80B584B000AF786007F10C037968184600F0BAF8FB6818463B
S32D00011BE81037BD4680BD80B584B000AFF860B9607A603B607A68B968F86800F0BBF8034618461037BD4680BD15
S32D00011C1080B582B000AF786039603868FCF753F900BF0837BD4680BD80B582B000AF7860786800F0B5F803464D
S32D00011C3818460837BD4680BD80B483B000AF78607B6818460C37BD4680BC704790B583B000AF78603960386800
S32D00011C6000F0ABF80346184600F0B1F803461946786800F0C0F87C683868FCF788FB0346184600F0AEF80346D2
S32D00011C881946204600F0C9F87B6818460C37BD4690BD80B584B000AF78606FF06043FB60786800F0CBF80346BA
S32D00011CB0BB6007F1080207F10C031146184600F0CDF803461B6818461037BD4680BD80B483B000AF78607B68F5
S32D00011CD818460C37BD4680BC704780B584B000AFF860B9607A60F86800F0C7F80246BB6893428CBF0123002302
S32D00011D00DBB2002B01D019F0CDFBBB689B00184607F030FA034618461037BD4680BDB0B584B000AFF860B96036
S32D00011D287A603B60F86800F0B3F80446B86800F0AFF80546786800F0ABF802463B682946204600F0AFF80346BD
S32D00011D5018461037BD46B0BD80B582B000AF786039603B46184600F0C7F803461A687B681A607B681846083792
S32D00011D78BD4680BD80B586B000AFF860B9607A600123FB757A68B968F86800F0BBF8034618461837BD4680BDC7
S32D00011DA080B582B000AF78607B68184600F0DDF8034618460837BD4680BD80B483B000AF78607B6818460C3788
S32D00011DC8BD4680BC704780B483B000AF78607B6818460C37BD4680BC704780B483B000AF78607B6818460C371C
S32D00011DF0BD4680BC704780B582B000AF786039603868FCF7A7FB0346184600F0B8F803461946786800F0BDF89E
S32D00011E187B6818460837BD4680BD80B582B000AF786039603868FFF7D8FF03461A687B681A607B68184608373F
S32D00011E40BD4680BD80B582B000AF7860786800F0ADF8034618460837BD4680BD80B483B000AF786039603B6880
S32D00011E681A687B681B689A4201D23B6800E07B6818460C37BD4680BC704780B483B000AF78606FF06043184669
S32D00011E900C37BD4680BC704780B483B000AF78607B6818460C37BD4680BC704790B587B000AFF860B9607A600C
S32D00011EB83B607B687B61FA68BB689A4213D07869FFF7FEFD0446F868FFF7FAFD03463A681946204600F072F8EA
S32D00011EE0FB680433FB607B6904337B61E7E77B6918461C37BD4690BD80B483B000AF78607B6818460C37BD46BF
S32D00011F0880BC704790B587B000AFF860B9607A607B687B6107F1080207F10C031146184600F067F80346002B01
S32D00011F3016D07869FFF7C8FD044607F10C03184600F07BF803461946204600F081F807F10C03184600F062F8C8
S32D00011F587B6904337B61DDE77B6918461C37BD4690BD80B483B000AF78607B6818460C37BD4680BC704780B41E
S32D00011F8083B000AF78607B6818460C37BD4680BC704780B582B000AF786039603868FFF7EEFF7B681846083774
S32D00011FA8BD4680BD80B582B000AF78607868FFF764FF034618460837BD4680BD80B584B000AFF860B9607A601A
S32D00011FD0B868FFF73CFA03461A46F9687868FFF730FBB868FFF770FD034619467868FFF751FD00BF1037BD4633
S32D00011FF880BD80B582B000AF786039603968786800F039F8034683F00103DBB218460837BD4680BD80B483B0C3
S32D0001202000AF78607B681B681A1D7B681A607B6818460C37BD4680BC704780B483B000AF78607B681B681846E4
S32D000120480C37BD4680BC704790B583B000AF786039603868FFF7E7FA04467B6819460420FFF702F903462146D0
S32D000120701846FFF721FC00BF0C37BD4690BD90B583B000AF78603960786800F00EF80446386800F00AF80346EB
S32D000120989C420CBF01230023DBB218460C37BD4690BD80B483B000AF78607B681B6818460C37BD4680BC7047C0
S32D000120C080B582B000AF786039603968786837F0D7FD034618460837BD4680BD80B582B000AF7860786837F0D3
S32D000120E839FD034618460837BD4680BD80B483B000AF78607B6823F0004318460C37BD4680BC704780B582B048
S32D0001211000AF7860786837F053FD034618460837BD4680BD80B582B000AF7860786837F0A9FD0346184608371B
S32D00012138BD4680BD80B582B000AF7860786839F08BF802460B461046194637F06DFD02460B4610461946083752
S32D00012160BD4680BD90B583B000AF786039607B681A683B681B681946104639F031FD03461C467B6804331A689A
S32D000121883B6804331B681946104639F025FD03461946204639F018FC034618460C37BD4690BD90B583B000AF1F
S32D000121B078607B681A687B681B681946104639F00FFD03461C467B6804331A687B6804331B681946104639F0B1
S32D000121D803FD03461946204639F0F6FB03461846FFF79CFF034618460C37BD4690BD80B584B000AF78603960B5
S32D000122007868FFF7D2FFF8604FF00001F86839F07BFE0346002B02D04FF0000309E079683868FFF79FFF03469F
S32D00012228F968184639F08CFD034618461037BD4680BD000080B582B000AF78600449786839F0CAFC0346184637
S32D000122500837BD4680BD00BF35FA8E3C80B582B000AF7860084611461A460346FB700B46BB7013467B707868E1
S32D00012278BA78F978FB6901F011F97B68C24A903307CA83E807007B6803F1A0003A7C7978FB6901F003F97B68EE
S32D000122A0BB4A03F5987307CA83E807007B6803F5A0703A7E397DFB6901F0F4F87B68B44A03F5E87307CA83E8BA
S32D000122C807007B684FF07E52C3F8DC217B684FF00002C3F8E0217B68AC4A03F5F27392E8030083E803007B6852
S32D000122F0A94A03F5F67392E8030083E803007B68D3F8E0217B68D3F8DC3119461046FFF7D7FE02467B68C3F8B0
S32D00012318F4217B68D3F8E8217B68D3F8E43119461046FFF7C9FE02467B68C3F8F8217B68D3F8F0217B68D3F829
S32D00012340EC3119461046FFF7BBFE02467B68C3F8FC217B684FF00002C3F800227B684FF00002C3F804227B6801
S32D000123684FF00002C3F808227B684FF00002C3F80C227B684FF00002C3F810227B684FF00002C3F814227B680A
S32D000123904FF00002C3F818227B684FF00002C3F81C227B684FF00002C3F820227B684FF00002C3F824227B68A2
S32D000123B84FF00002C3F828227B684FF00002C3F82C227B684FF00002C3F830227B684FF00002C3F834227B683A
S32D000123E04FF00002C3F838227B68002283F842227B68012283F843227B68022283F844227B684FF00002C3F8E7
S32D0001240848227B684FF00002C3F84C227B684FF00002C3F850227B685E4AC3F858227B684FF07E52C3F85C22B2
S32D000124307B685B4AC3F860227B685A4AC3F864227B68594AC3F868227B684FF00002C3F870227B684FF0000290
S32D00012458C3F874227B684FF00002C3F878227B684FF07E52C3F880227B684FF07C52C3F884227B684A4AC3F8B9
S32D0001248088227B684FF07E52C3F88C227B684FF00002C3F890227B68444AC3F894227B684FF00002C3F898221C
S32D000124A87B684FF00002C3F89C227B68FA7883F83C227B687A7883F83E227B683A7D83F840227B68BA7883F883
S32D000124D03D227B683A7C83F83F227B683A7E83F841227B68FA69C3F854227B68002283F86C227B68002283F88B
S32D000124F86D227B68002283F86E2203F0FDFC0346184639F011FB02467B68C3F87C227B684FF00002C3F80C22BD
S32D000125207B684FF00002C3F810227B684FF00002C3F8142278687B68D3F890107B68D3F894207B68D3F8983060
S32D0001254801F00EFA7B6803F1A0007B68D3F830117B68D3F834217B68D3F8383101F000FA7B6803F5A0707B6832
S32D00012570D3F8D0117B68D3F8D4217B68D3F8D83101F0F2F97B6818460837BD4680BD00BF70F205007CF2050001
S32D0001259884F205000000104100004041CDCC4C3FCDCCCC3DCDCC4C3E80B485B000AFF860B9607A603B60FB687D
S32D000125C0BA68C3F80022FB687A68C3F80422FB683A68C3F8082200BF1437BD4680BC704790B58BB000AF7860D6
S32D000125E8786800F019FA7B6803F5EE727B6803F5007319461046FFF7FAFD78627B6803F5F2727B6803F500734F
S32D0001261019461046FFF7EFFD38627B6803F5F6727B6803F5007319461046FFF7E4FDF8617B68D3F80832BB61F0
S32D000126387B68D3F8643283F000417B68D3F864321A46B869FCF775FC02467B68C3F890227B68D3F890321946EB
S32D00012660786A39F0B5F903467B627B68D3F890321946386A39F0ACF903463B627B68D3F890321946F86939F0EE
S32D00012688A3F90346FB61786AFFF730FD0346BB60386AFFF72BFD0346FB60F869FFF726FD03463B6107F11002AC
S32D000126B007F10C031146184600F0DDFE024607F108031146184600F0D6FE03461B687B617B68D3F85C3219466D
S32D000126D8786939F03DFC0346002B29D07B68D3F85C327969184639F02BFB03461946786A39F072FA03467B6213
S32D000127007B68D3F85C327969184639F01DFB03461946386A39F064FA03463B627B68D3F85C327969184639F091
S32D000127280FFB03461946F86939F056FA0346FB617B6983F000437A691946786AFCF7F9FB02467B68C3F848225C
S32D000127507B6983F000437A691946386AFCF7EDFB02467B68C3F84C227B6983F000437A691946F869FCF7E1FBA1
S32D0001277802467B68C3F850227B6893F86C32002B34D07C687B68D3F848227B68D3F860321946104639F020FA6B
S32D000127A003461946204601F051F87B6803F1A0047B68D3F84C227B68D3F860321946104639F00EFA034619465D
S32D000127C8204601F03FF87B6803F5A0747B68D3F850227B68D3F860321946104639F0FCF903461946204601F033
S32D000127F02DF82AE07C687B68D3F848321549184639F0EEF903461946204600F0E8FE7B6803F1A0047B68D3F8A6
S32D000128184C320E49184639F0DFF903461946204600F0D9FE7B6803F5A0747B68D3F850320649184639F0D0F9CA
S32D0001284003461946204600F0CAFE00BF2C37BD4690BD00BF0000C84280B582B000AF78604FF000034FF00002F7
S32D000128684FF000017868FFF79FFE7B68184600F0DEFE7B68A033184600F0D9FE7B6803F5A073184600F0D3FE99
S32D0001289000BF0837BD4680BD80B582B000AF78607B68184600F0E1FE034618460837BD4680BD80B582B000AFA1
S32D000128B878607B68A033184600F0D3FE034618460837BD4680BD80B582B000AF78607B6803F5A073184600F0F4
S32D000128E0C4FE034618460837BD4680BD80B582B000AF78607B68184600F0ECFE034618460837BD4680BD80B57D
S32D0001290882B000AF78607B68A033184600F0DEFE034618460837BD4680BD80B582B000AF78607B6803F5A07305
S32D00012930184600F0CFFE034618460837BD4680BD80B483B000AF78607B6803F5037318460C37BD4680BC704761
