S01100002E2E2F50726F746575732E73313966
S32D0000C000000000205DC2000011C3000017C300001DC3000023C3000029C3000000000000000000000000000073
S32D0000C028000000002FC3000035C30000000000003BC3000041C30000A5F00000B1F00000BDF00000C9F0000062
S32D0000C050D5F00000E1F00000EDF00000F9F0000005F1000011F100001DF1000029F1000035F1000041F10000EE
S32D0000C0784DF1000059F1000065F1000071F100007DF1000089F1000095F10000A1F10000ADF10000B9F1000012
S32D0000C0A0C5F10000D1F10000DDF10000E9F10000F5F1000001F200000DF2000019F2000025F2000031F2000035
S32D0000C0C83DF2000049F2000055F2000061F200006DF2000079F2000085F2000091F200009DF20000A9F2000058
S32D0000C0F0B5F20000353B0100C1F20000CDF20000D9F20000E5F20000F1F20000FDF2000009F3000015F3000020
S32D0000C11821F300002DF3000039F3000045F3000051F300005DF3000069F3000075F3000081F300008DF3000015
S32D0000C14099F30000A5F30000B1F30000BDF30000A51A0100C9F30000D5F30000E1F30000EDF30000F9F3000075
S32D0000C16805F4000011F400001DF4000029F4000035F4000041F400004DF4000059F4000065F4000071F40000D3
S32D0000C1907DF4000089F4000095F40000BD170100851601002117010029EE00005D180100A1F40000ADF400009D
S32D0000C1B8B9F400005C15060000000020C81700005C1506000000FF1F00000000C8170020D41A00000000FF1F96
S32D0000C1E00000000080B489B000AFF860B9607A60BB68FB61FB68BB6100237B617A697B689A420BD2BA69131DFB
S32D0000C208BB61FB69191DF96112681A607B6904337B61EFE700BF2437BD4680BC704780B485B000AF786039609E
S32D0000C2307B68FB600023BB60BA683B689A4208D2FB681A1DFA6000221A60BB680433BB60F2E700BF1437BD46FE
S32D0000C25880BC704780B586B000AF72B6234B4CF220521A80214B4DF628121A80204B4FF4E9721A801F4B7B615F
S32D0000C2807B691F4A934214D27B691A1D7A611B683B617B691A1D7A611B68FB607B691A1D7A611B68BB60BA68E9
S32D0000C2A8F9683869FFF79AFFE6E77B69134A93420ED27B691A1D7A611B68FB607B691A1D7A611B68BB60B9688B
S32D0000C2D0F868FFF7A8FFECE70B4B7B600B4A7B681A603AF031FE62B602F066FE00F0C8F8FEE700BF0E200540FF
S32D0000C2F800200540BCC10000D4C10000E4C1000008ED00E000C0000080B400AFFEE780B400AFFEE780B400AFF4
S32D0000C320FEE780B400AFFEE780B400AFFEE780B400AFFEE780B400AFFEE780B400AFFEE780B400AFFEE780B426
S32D0000C34800AFFEE7FFFFFFFFFFFFFFFFFFFFFFFFFFFFFFFFFFFFFFFFFFFFFFFFFFFFFFFFFFFFFFFFFFFFFFFF57
S32D0000C370FFFFFFFFFFFFFFFFFFFFFFFFFFFFFFFFFFFFFFFFFFFFFFFFFFFFFFFFFFFFFFFFFFFFFFFFFFFFFFFFC7
S32D0000C398FFFFFFFFFFFFFFFFFFFFFFFFFFFFFFFFFFFFFFFFFFFFFFFFFFFFFFFFFFFFFFFFFFFFFFFFFFFFFFFF9F
S32D0000C3C0FFFFFFFFFFFFFFFFFFFFFFFFFFFFFFFFFFFFFFFFFFFFFFFFFFFFFFFFFFFFFFFFFFFFFFFFFFFFFFFF77
S32D0000C3E8FFFFFFFFFFFFFFFFFFFFFFFFFFFFFFFFFFFFFFFFFFFFFFFFFFFFFFFFFFFFFFFFFFFFFFFFFEFFFFFF50
S32D0000C44010B5054C237833B9044B13B10448AFF300800123237010BDC8170020000000009402060008B5034B86
S32D0000C4681BB103490348AFF3008008BD00000000CC1700209402060090B5ADF51D7D04AF4FF00003C7F8003256
S32D0000C4904FF00003C7F804324FF00003C7F8083200217C4806F04DF8002300227A49794806F0B6F8D7F800129E
S32D0000C4B80F230022754806F0E7F81E2300227549724806F0A9F8D7F804122D2300226F4806F0DAF83C230022A7
S32D0000C4E06F496C4806F09CF8D7F808124B230022684806F0CDF86B4BC7F85832002387F85732012387F85632FF
S32D0000C508032387F85532002387F85432022387F85332042387F8523297F8564297F8542297F8571207F584704A
S32D0000C530D7F85832039397F85232029397F85532019397F853320093234602F0BBF907F1FC03184601F047FA5F
S32D0000C55807F5047307F584721146184600F0FAF907F5047207F503731146184600F03FFA07F5037207F1FC038E
S32D0000C5801146184601F03CFA07F50373184600F04EFA07F50473184600F0FAF9002387F85F3207F50B731846EA
S32D0000C5A807F0BCFD07F50B7207F505733C49184624F0DAFC07F5057207F178000423002100F0DCFC07F5057394
S32D0000C5D0184624F0BDF907F50B73184607F0A4FD07F51273184607F09DFD07F5127207F50C732E49184624F051
S32D0000C5F8BBFC07F50C72381D04230F2100F0BEFC07F50C73184624F09FF907F51273184607F086FD1D4806F055
S32D0000C6205BFB07F1F40207F1F8031946194806F0CBF8034683F00103DBB2002B1ED007F17803184600F0BEFD5A
S32D0000C6483B1D184600F0BAFD07F17803184600F00BFF0346002B02D0002387F85F323B1D184600F001FF034634
S32D0000C670002BD6D0012387F85F32D2E707F1EC0207F1F0031946034806F09EF80346002B0ED0F3E7C41A0020AD
S32D0000C698C4780500DC780500F47805000000C0400C79050018790500D7F80012D7F80422D7F8083207F584707A
S32D0000C6C002F0BEF9914805F052FF914BC7F84C324FF00001D7F84C0237F0DCFE0346184638F0BCF9034600221E
S32D0000C6E88A49884805F098FF07F58473184602F0D3FA04468649D7F84C0237F0C7FE0346184638F0A7F903460B
S32D0000C710002221467D4805F0BBFF8049D7F84C0237F0B8FE0346184638F098F9034600227B49764805F074FF86
S32D0000C73807F58473184602F0BCFA04467749D7F84C0237F0A3FE0346184638F083F90346002221466B4805F026
S32D0000C76097FF7149D7F84C0237F094FE0346184638F074F9034600226C49644805F050FF07F58473184602F0F6
S32D0000C788A6FA04466849D7F84C0237F07FFE0346184638F05FF9034600222146594805F073FF6249D7F84C025E
S32D0000C7B037F070FE0346184638F050F9034600225D49524805F02CFF07F51873A3F5B4731C685A49D7F84C0259
S32D0000C7D837F05CFE0346184638F03CF9034600222146484805F050FF5349D7F84C0237F04DFE0346184638F00E
S32D0000C8002DF9034600224F49404805F009FF07F51873A3F5B6731B6883F000444A49D7F84C0237F037FE034685
S32D0000C828184638F017F9034600222146354805F02BFF97F85F32002B05D007F1FC03184601F0ECF83DE707F178
S32D0000C850F40207F1F80319462C4805F0B5FF0346002B4DD007F51873A3F5B4731B68184637F080FA4FF00002BB
S32D0000C878344B37F01BF902460B46104619464FF00002314B37F0F4FB02460B461046194637F0A6FD0346C7F897
S32D0000C8A0003207F51873A3F5B6731B68184637F061FA4FF00002274B37F0FCF802460B46104619464FF0000230
S32D0000C8C8234B37F0D5FB02460B461046194637F087FD0346C7F80432D7F80012D7F80422D7F8083207F58470D7
S32D0000C8F002F0A6F807F58473184602F0B9F8E4E607F58473184602F0B5F9DEE6C41A00200000A041207905009A
S32D0000C918000070410000F0412C79050000003442000070423C790500000096420000B4424C7905000000D242D7
S32D0000C940000007435479050000001643000064400000744000005E4000006E40B0B582B000AF78603960386859
S32D0000C96800F083F80546182007F008FB03461C462946204600F052FE2146786800F08FF878680837BD46B0BDAC
S32D0000C99090B585B000AF78607B68184600F092F8F860FB681B68002B0CD0786800F097F80446F86800F0A0F8E7
S32D0000C9B803461B681946204600F0A4F8FB6800221A607B6818461437BD4690BD80B584B000AFF860B9607A60F6
S32D0000C9E0FB68B9687A68184600F0B8F8FB6818461037BD4680BDB0B582B000AF786039607C68386800F093F8C7
S32D0000CA080546386800F067F80346184600F098F803461A4629462046FFF7D8FF7B6818460837BD46B0BD90B51F
S32D0000CA3085B000AF78607B68184600F0A5F8F860FB681B68002B0CD0786800F0AAF80446F86800F0B3F8034609
S32D0000CA581B681946204600F0B7F8FB6800221A607B6818461437BD4690BD80B483B000AF78607B6818460C377C
S32D0000CA80BD4680BC704780B582B000AF786039607B683A681146184600F0ABF87B6818460837BD4680BD80B549
S32D0000CAA882B000AF786039607B6839681846FFF7E6FF7B6818460837BD4680BD80B582B000AF78607B68184662
S32D0000CAD000F0A3F8034618460837BD4680BD80B582B000AF78607B68184600F0A3F8034618460837BD4680BDA7
S32D0000CAF880B483B000AF78607B6818460C37BD4680BC704780B582B000AF786039603B68002B04D01A681032BB
S32D0000CB2012681846904700BF0837BD4680BD80B582B000AF78607B68184600F088F8034618460837BD4680BD35
S32D0000CB4880B483B000AF78607B6818460C37BD4680BC704790B585B000AFF860B9607A60FC687868FFF7ECFFBE
S32D0000CB70024607F108031946204600F07DF8FB6818461437BD4690BD80B582B000AF78607B68184600F089F826
S32D0000CB98034618460837BD4680BD80B582B000AF78607B68184600F089F8034618460837BD4680BD80B483B01C
S32D0000CBC000AF78607B6818460C37BD4680BC704780B582B000AF786039603B68002B04D01A6810321268184681
S32D0000CBE8904700BF0837BD4680BD80B582B000AF786039607B68184600F07AF87868FFF75DFF02463B68136050
S32D0000CC107B6818460837BD4680BD80B582B000AF78607B68184600F081F8034618460837BD4680BD80B582B011
S32D0000CC3800AF78607B68184600F080F8034618460837BD4680BD80B584B000AF78607868FFF734FF03461B68B3
S32D0000CC60FB607868FFF72EFF034600221A60FB6818461037BD4680BDB0B584B000AFF860B9607A60FC68B86804
S32D0000CC8800F068F805467868FFF75AFF03461A462946204600F068F8FB6818461037BD46B0BD80B582B000AF58
S32D0000CCB078607B68184600F077F8034618460837BD4680BD80B582B000AF78607B68184600F076F80346184684
S32D0000CCD80837BD4680BD80B582B000AF78607B68184600F075F8034618460837BD4680BD80B582B000AF78600F
S32D0000CD007B68184600F07EF87B6818460837BD4680BD80B582B000AF78607B68184600F081F803461846083720
S32D0000CD28BD4680BD80B582B000AF78607868FFF7ECFF034618460837BD4680BD80B582B000AF7860786800F00A
S32D0000CD507FF8034618460837BD4680BD80B483B000AF78607B6818460C37BD4680BC704790B585B000AFF8602F
S32D0000CD78B9607A607868FFF7E3FE03461946F86800F06EF8FC68B868FFF7E4FF03461946204600F077F8FB6858
S32D0000CDA018461437BD4690BD80B582B000AF78607868FFF794FF034618460837BD4680BD80B582B000AF786001
S32D0000CDC8786800F070F8034618460837BD4680BD80B483B000AF78607B6818460C37BD4680BC704780B582B010
S32D0000CDF000AF7860786800F066F8034618460837BD4680BD80B582B000AF7860786800F064F87B68184600F0EF
S32D0000CE186CF87B6818460837BD4680BD80B483B000AF78607B6818460C37BD4680BC704780B582B000AF786072
S32D0000CE40786800F063F8034618460837BD4680BD80B582B000AF78607868FFF7EDFF034618460837BD4680BD9D
S32D0000CE6880B582B000AF786039603868FFF768FE03461946786800F04FF87B6818460837BD4680BD80B582B033
S32D0000CE9000AF786039603868FFF760FF03461A687B681A607B6818460837BD4680BD80B582B000AF78607868A9
S32D0000CEB8FFF798FF034618460837BD4680BD80B483B000AF78607B6818460C37BD4680BC704780B582B000AF1B
S32D0000CEE07860786800F02EF87B6818460837BD4680BD80B483B000AF78607B6800221A607B6818460C37BD46A2
S32D0000CF0880BC704780B483B000AF78607B6818460C37BD4680BC704780B582B000AF786039603868FFF70CFE79
S32D0000CF3003461946786800F00FF87B6818460837BD4680BD80B483B000AF78607B6818460C37BD4680BC70472C
S32D0000CF5880B483B000AF786039607B6818460C37BD4680BC7047000080B400AF024B1846BD4680BC704700BF67
S32D0000CF80FFFF7F7F2DE9B04384B000AFF860B9607A603B60FB684FF4A0721A60FB68F0225A60FB686FF07F42D1
S32D0000CFA89A60FB68494ADA60FB68494A1A61FB6800225A61FB68474A9A62FB68002283F82D20FB685C331846F3
S32D0000CFD023F0B6FCFB681B68184636F0A9FE4FF000024FF0804337F047F802460B4614461D46786823F0BEFCB1
S32D0000CFF80346184636F098FE4FF000024FF0804337F036F802460B4690469946324804F0F3FE0346184636F096
S32D0000D02097FE02460B464046494636F0FBFE02460B462046294636F03DFD02460B461046194637F0D1F902462B
S32D0000D048FB685A63B86837F0D5FA0246FB689A63786823F08BFC04461F4804F0CDFE034604FB03F3184637F02F
S32D0000D070C1FA0246FB685A65194804F0CBFE0346184637F0BBFA0246FB689A65FB685C337968184623F068FC7A
S32D0000D098FB6800221A76FB6800225A76FB68002283F82C20FB68002283F82D203A68FB68DA613A68FB685A6266
S32D0000D0C0FB68DA69FB681A63FB6818461037BD46BDE8B0836666660021212100E22B8A00C41A0020F0B58BB0CF
S32D0000D0E802AF78607B681B6B1946334805F081FA7B685C6B304804F07FFE0346184637F079FA034619462046FC
S32D0000D11037F0BEF90346184637F0A0FC05467B689B6B184637F09AFC06467B685C6D244804F066FE03465B00FA
S32D0000D138184637F05FFA03461946204637F0A6F90346184637F086FC04467B689B6D184637F080FC03460093B5
S32D0000D160234632462946164805F001FF7B6803F15C0207F108031146184623F0B3FE7B685B6B184637F06AFCB9
S32D0000D18804467B689B6B4FF08141184637F07EF90346184637F05EFC034607F108012246054805F05CFA07F1DF
S32D0000D1B00803184623F0CCFB00BF2437BD46F0BDC41A0020B0B584B000AF78607B685B7E002B00F04681002365
S32D0000D1D8FB730023BB737B6803F13C017B6840331A46924805F0ECFA7B68DC6B7B685D6B8E4804F001FE034604
S32D0000D200184637F0FBF903461946284637F040F903461946204637F0F7FB0346002B44D07B68DC6B7B685A6B90
S32D0000D2287B685B6D1946104637F030F903461D467E4804F0E1FD0346184637F0DBF903461946284637F022F9EA
S32D0000D25003464FF07E51184637F01AF903461946204637F0C7FB0346002B1ED07B681A6C7B689B6B1946104661
S32D0000D27837F0C6FB0346002B13D07B681C6C7B689A6B7B689B6D1946104637F0FFF803461946204637F0AAFB5E
S32D0000D2A00346002B01D0012200E000227B6883F82C207B6803F13C017B6840331A465D4805F082FA034683F0B0
S32D0000D2C80103DBB2002B6ED17B6803F144017B6848331A46554805F073FA0346002B62D07B68DC6B7B685D6BE9
S32D0000D2F0504804F08FFD0346184637F07FF903461946284637F0C4F803461946204637F07BFB0346002B27D0A3
S32D0000D3187B68DC6B7B685A6B7B685B6D1946104637F0B4F803461D46404804F065FD0346184637F05FF90346E9
S32D0000D3401946284637F0A6F803464FF07E51184637F09EF803461946204637F04BFB0346002B01D0012300E0F7
S32D0000D3680023FB737B681A6C7B689B6B1946104637F046FB0346002B13D07B681C6C7B689A6B7B689B6D1946A3
S32D0000D390104637F07FF803461946204637F02AFB0346002B01D0012300E00023BB73FB7B002B19D0BB7B002B9C
S32D0000D3B816D07B685B69002B03D17B6801225A6106E07B685B69012B02D17B6802225A617B681A6A7B681A63E5
S32D0000D3E07B6801221A763CE07B685B69022B03D17B6803225A6106E07B685B69032B02D17B6800225A617B68D1
S32D0000D40893F82C30002B13D07B689A6A7B681A637B6893F82D3083F00103DBB2002B0FD07B68012283F82D2013
S32D0000D4300AE000BFC41A00207B68DA697B681A637B68002283F82D207B6800221A76FFF78FFD02467B68DA6355
S32D0000D458FFF78AFD02467B681A647868FFF73EFE00BF1037BD46B0BD80B485B000AF78600023FB737B685B69D0
S32D0000D480012B04D17B6802225A610123FB73FB7B18461437BD4680BC7047000080B582B000AF786039607B68AA
S32D0000D4A8012B0CD13B684FF6FF72934207D1064807F012F8054A0649034806F0D9FC00BF0837BD4680BD00BF47
S32D0000D4D0E4170020000000200145010080B500AF4FF6FF710120FFF7D9FF80BD80B483B000AF78607B68D3E95A
S32D0000D4F80023104619460C37BD4680BC704780B584B000AF786000F01FF802460B46C7E9022307F1080319462E
S32D0000D520786800F004F878681037BD4680BD80B483B000AF786039603B68D3E900237968C1E900237B681846B2
S32D0000D5480C37BD4680BC704780B400AF4FF000024FF0000310461946BD4680BC704780B588B000AFC7E902019C
S32D0000D570C7E9002307F11803184608F0F7FD07F1100307F1080207F11801184600F0B5F83A4607F11003114662
S32D0000D598184600F0CDF8034618462037BD4680BD80B582B000AF786039603B461946786800F0E7F878680837DF
S32D0000D5C0BD4680BD80B483B000AF7860044A7B681A607B6818460C37BD4680BC704700BF8079050080B483B0C6
S32D0000D5E800AF7860044A7B681A607B6818460C37BD4680BC704700BF8079050080B582B000AF78607868FFF7E8
S32D0000D610E9FF0421786806F0B3FC7B6818460837BD4680BD90B585B000AFF860B960FB681846FFF7C7FF0E4A2B
S32D0000D638FB681A60FB68BA685A60FB681033184600F0B2F8FC683B46184608F08BFDD7E90023C4E90423FB682D
S32D0000D66000221A72FB6818461437BD4690BD00BF6479050080B584B000AF78607B6858684FF00003104A4FF083
S32D0000D688000101F0D9F97B685B68184601F0ECF907F1080340F6B8311846FFF781FF7968D7E90223D1E904015B
S32D0000D6B0FFF759FF0346002B02D07B6801221A7200BF1037BD4680BDCDCC4C3F80B483B000AF78607B681B7A56
S32D0000D6D818460C37BD4680BC704780B483B000AF78607B6801221A7200BF0C37BD4680BC704780B588B000AFF9
S32D0000D700F860B9607A6007F11003B968184600F05CF807F118037968184600F056F8FB6807F1180207F11001D4
S32D0000D728184600F05EF800BFF8682037BD4680BDB0B586B000AF786039607B68D3E90023C7E9022307F1080324
S32D0000D7501846FFF7CBFE04460D4607F110033968184600F072F807F110031846FFF7BEFE02460B46944275EBA3
S32D0000D7780303B4BF01230023DBB218461837BD46B0BD80B483B000AF7860396039680968C8170A460346796827
S32D0000D7A0C1E900237B6818460C37BD4680BC704780B582B000AF78607B681846FFF7A3FE7B6818460837BD46CB
S32D0000D7C880BD80B483B000AF7860396079683B68D3E90023C1E9002378680C37BD4680BC70472DE9B0438AB0E3
S32D0000D7F000AFF860B9607A60BB68D3E90023C7E9062307F118031846FFF770FE04460D467B68D3E90023C7E952
S32D0000D818082307F120031846FFF764FE02460B46B4EB020865EB0309C7E9048907F110031946F868FFF777FED6
S32D0000D840F8682837BD46BDE8B08380B584B000AF7860396007F108033968184600F00FF807F108031846FFF747
S32D0000D86841FE02460B467968C1E900237B6818461037BD4680BD80B582B000AF786039607B683968184600F0EB
S32D0000D89012F800BF78680837BD4680BD80B483B000AF78607B68D3E90023104619460C37BD4680BC70472DE98E
S32D0000D8B8B04F88B000AF786139613869FFF7EAFF02460B464FF0000A4FF0000B4FEA431B4BEAD26B4FEA421A9F
S32D0000D8E052465B46141A63EB01054FF000024FF000036B0243EAD453620214461D4614EB000845EB01094FF07A
S32D0000D90800024FF000034FEA891343EA98634FEA8812B2EB08043C6063EB09037B60D7E9004523461B18BB60A7
S32D0000D9302B4641EB0303FB60D7E90234C7E9063407F1180319467869FFF7F1FD78692037BD46BDE8B08F000095
S32D0000D95880B582B000AF7860054A7B681A607B681846FFF73BFE7B6818460837BD4680BD6479050080B582B08E
S32D0000D98000AF78607868FFF7E7FF1821786806F0F7FA7B6818460837BD4680BD80B483B000AF786039603B684C
S32D0000D9A818460C37BD4680BC704780B582B000AF78607B68184600F074F87B6818460837BD4680BD80B582B008
S32D0000D9D000AF78607B681846FFF7EBFF7B6818460837BD4680BD80B582B000AF78607B681846FFF7EBFF7B68CF
S32D0000D9F818460837BD4680BD90B583B000AF786039607C68386800F05CF803461946204600F061F800BF0C376B
S32D0000DA20BD4690BD80B586B000AF78607B687B61786900F065F80346FB60786900F070F80346BB6007F1080266
S32D0000DA4807F10C031146184600F077F80346002B23D007F10C03184600F096F83861386900F09DF803461A68C1
S32D0000DA700432126818469047034683F00103DBB2002B08D0386900F08EF803461A68126818469047E7E707F1FC
S32D0000DA980C03184600F069F8D0E700BF1837BD4680BD80B582B000AF7860786800F083F87B68184600F08BF8B0
S32D0000DAC07B6818460837BD4680BD80B483B000AF78607B6818460C37BD4680BC704780B582B000AF7860396089
S32D0000DAE83868FFF7EEFF03461946786800F0ADF800BF0837BD4680BD80B584B000AF78607A6807F10C03114602
S32D0000DB10184600F0CCF8FB6818461037BD4680BD80B584B000AF78607B681A1D07F10C031146184600F0BBF824
S32D0000DB38FB6818461037BD4680BD90B583B000AF78603960786800F0BDF803461C68386800F0B8F803461B6881
S32D0000DB609C4214BF01230023DBB218460C37BD4690BD80B483B000AF78607B681B681A1D7B681A607B681846F8
S32D0000DB880C37BD4680BC704780B483B000AF78607B681B6818460C37BD4680BC704780B582B000AF786078687D
S32D0000DBB000F096F8034618460837BD4680BD80B582B000AF7860786800F097F87B6818460837BD4680BD80B462
S32D0000DBD883B000AF78607B6800221A607B6800225A607B6800229A607B6818460C37BD4680BC704780B584B045
S32D0000DC0000AFF860B9607A60BB68002B05D0FB687A68B968184600F07AF800BF1037BD4680BD80B483B000AF57
S32D0000DC2878607B6818460C37BD4680BC704780B584B000AFF860B9607A60B968F86800F071F800BF1037BD4636
S32D0000DC5080BDB0B582B000AF786039607B685A687B689B689A4211D07C687B685D68386800F069F803461A4644
S32D0000DC782946204600F06DF87B685B681A1D7B685A600CE07868FFF747FF0446386800F056F803461A4621469A
S32D0000DCA0786800F083F800BF0837BD46B0BD80B483B000AF786039603B681A687B681A607B6818460C37BD460D
S32D0000DCC880BC704780B483B000AF78607B6818460C37BD4680BC704780B582B000AF78607B68184600F01AF9A1
S32D0000DCF0034618460837BD4680BD80B483B000AF78607B6818460C37BD4680BC704780B584B000AFF860B960EF
S32D0000DD187A607A68B968F86800F00EF900BF1037BD4680BD80B582B000AF786039603968786800F011F900BFA2
S32D0000DD400837BD4680BD80B483B000AF78607B6818460C37BD4680BC704780B584B000AFF860B9607A6078688B
S32D0000DD68FFF7EDFF03461A46B968F86800F02CF900BF1037BD4680BD80B582B000AF184600F005F8034618461E
S32D0000DD900837BD4680BD80B483B000AF3871012318460C37BD4680BC70470000B0B58CB000AFF860B9607A60D1
S32D0000DDB8594A0121F86800F01FF9B862FB681B687B62FB685B683B62F868FFF795FE03467B6107F1140207F15C
S32D0000DDE008031146184600F052F90346FB61FB68B96A184600F060F9B861BB69FB62FC68FB699B00BA69D5183B
S32D0000DE087868FFF79CFF03461A4629462046FFF7A0FF0023FB62FFF7AFFF0346002B27D007F108031846FFF782
S32D0000DE304DFF03461C68FB681846FFF7F2FE0346BA692146786A00F04BF9F862FB6A0433FB6207F10803184667
S32D0000DE58FFF738FF03461C68FB681846FFF7DDFE0346FA6A396A204600F036F9F86226E007F108031846FFF784
S32D0000DE8025FF03461C68FB681846FFF7CAFE0346BA692146786A00F037F9F862FB6A0433FB6207F1080318467B
S32D0000DEA8FFF710FF03461C68FB681846FFF7B5FE0346FA6A396A204600F022F9F862FFF75BFF034683F00103E5
S32D0000DED0DBB2002B09D0FB681846FFF7A2FE03461A46396A786AFFF7A6FEF868FB689A687B6AD31A9B101A46D2
S32D0000DEF8796AFFF77FFEFB68BA691A60FB68FA6A5A60BB6A9B00BA691A44FB689A6000BF3037BD46B0BD00BF32
S32D0000DF20C079050080B582B000AF78607B68184600F010F903461B6818460837BD4680BD80B584B000AFF86054
S32D0000DF48B9607A607B689B001946B86806F014F800BF1037BD4680BD80B582B000AF786039607A683B689A428B
S32D0000DF700AD0786800F0FBF80346184600F001F97B6804337B60F0E700BF0837BD4680BD80B582B000AF78605D
S32D0000DF9839607B683A681146184600F009F97B6818460837BD4680BD80B582B000AF786039607B683A68114673
S32D0000DFC01846FFF7E5FF7B6818460837BD4680BD90B585B000AFF860B9607A607868FFF7B2FE0446BB68194675
S32D0000DFE80420FFF7D7FC034621461846FFF7DCFF00BF1437BD4690BD90B587B000AFF860B9607A60F86800F01F
S32D0000E010EDF80446F86800F0FAF80346E21ABB689A4234BF01230023DBB2002B02D0786818F078F9F86800F0C0
S32D0000E038EAF80446F86800F0E6F803463B6107F1080207F110031146184600F0EBF803461B6823447B61F86877
S32D0000E06000F0D5F802467B69934206D3F86800F0BDF802467B69934204D9F86800F0B6F8034600E07B691846AF
S32D0000E0881C37BD4690BD90B583B000AF786039607868FFF717FE03461C683868FFF712FE03461B68E31A9B105D
S32D0000E0B018460C37BD4690BD80B582B000AF786039603B68002B06D07B683968184600F0C0F8034600E0002350
S32D0000E0D818460837BD4680BD90B587B002AFF860B9607A603B608DF800403B687A68B968F86800F0B9F8034675
S32D0000E10018461437BD4690BD90B585B000AFF860B9607A603B60F86800F0BCF80446B86800F0B8F801463B68F1
S32D0000E1287A68204600F0C1F8034618461437BD4690BD80B582B000AF786039603968786800F0C4F800BF0837E4
S32D0000E150BD4680BD80B582B000AF78607B68184600F0C4F8034618460837BD4680BD80B483B000AF78607B688F
S32D0000E17818460C37BD4680BC704780B582B000AF78607868FEF74FFC00BF0837BD4680BD80B582B000AF7860A8
S32D0000E1A039607B683A681146184600F0B5F87B6818460837BD4680BD90B583B000AF786039607C683B681846A4
S32D0000E1C800F09CF8034619462046FFF7E1FF3868FEF7D6FC034600221A607B6818460C37BD4690BD80B582B03A
S32D0000E1F000AF78607B68184600F0CBF80346184600F0ADF8034618460837BD4680BD80B483B000AF78607B6853
S32D0000E2185A687B681B68D31A9B1018460C37BD4680BC704780B483B000AF786039607B681A683B681B689A4293
S32D0000E24001D23B6800E07B6818460C37BD4680BC704780B582B000AF7860396000223968786800F0A0F80346E5
S32D0000E26818460837BD4680BD80B584B000AFF860B9607A603B603B687A68B968F86800F0ACF803461846103725
S32D0000E290BD4680BD80B584B000AF786007F10C037968184600F0BAF8FB6818461037BD4680BD80B584B000AFE8
S32D0000E2B8F860B9607A603B607A68B968F86800F0BBF8034618461037BD4680BD80B582B000AF786039603868F7
S32D0000E2E0FEF7A5FB00BF0837BD4680BD80B582B000AF7860786800F0B5F8034618460837BD4680BD80B483B045
S32D0000E30800AF78607B6818460C37BD4680BC704790B583B000AF78603960386800F0ABF80346184600F0B1F8DB
S32D0000E33003461946786800F0C0F87C683868FEF7CEFC0346184600F0AEF803461946204600F0C9F87B6818460F
S32D0000E3580C37BD4690BD80B584B000AF78606FF06043FB60786800F0CBF80346BB6007F1080207F10C03114660
S32D0000E380184600F0CDF803461B6818461037BD4680BD80B483B000AF78607B6818460C37BD4680BC704780B50E
S32D0000E3A884B000AFF860B9607A60F86800F0C7F80246BB6893428CBF01230023DBB2002B01D017F073FFBB6813
S32D0000E3D09B00184605F0D6FD034618461037BD4680BDB0B584B000AFF860B9607A603B60F86800F0B3F80446BD
S32D0000E3F8B86800F0AFF80546786800F0ABF802463B682946204600F0AFF8034618461037BD46B0BD80B582B066
S32D0000E42000AF786039603B46184600F0C7F803461A687B681A607B6818460837BD4680BD80B586B000AFF860C6
S32D0000E448B9607A600123FB757A68B968F86800F0BBF8034618461837BD4680BD80B582B000AF78607B681846B4
S32D0000E47000F0DDF8034618460837BD4680BD80B483B000AF78607B6818460C37BD4680BC704780B483B000AF15
S32D0000E49878607B6818460C37BD4680BC704780B483B000AF78607B6818460C37BD4680BC704780B582B000AF86
S32D0000E4C0786039603868FEF791FC0346184600F0B8F803461946786800F0BDF87B6818460837BD4680BD80B532
S32D0000E4E882B000AF786039603868FFF7D8FF03461A687B681A607B6818460837BD4680BD80B582B000AF786071
S32D0000E510786800F0ADF8034618460837BD4680BD80B483B000AF786039603B681A687B681B689A4201D23B68DE
S32D0000E53800E07B6818460C37BD4680BC704780B483B000AF78606FF0604318460C37BD4680BC704780B483B06D
S32D0000E56000AF78607B6818460C37BD4680BC704790B587B000AFF860B9607A603B607B687B61FA68BB689A425B
S32D0000E58813D07869FFF7EFFD0446F868FFF7EBFD03463A681946204600F072F8FB680433FB607B6904337B6141
S32D0000E5B0E7E77B6918461C37BD4690BD80B483B000AF78607B6818460C37BD4680BC704790B587B000AFF8609F
S32D0000E5D8B9607A607B687B6107F1080207F10C031146184600F067F80346002B16D07869FFF7B9FD044607F12D
S32D0000E6000C03184600F07BF803461946204600F081F807F10C03184600F062F87B6904337B61DDE77B691846F9
S32D0000E6281C37BD4690BD80B483B000AF78607B6818460C37BD4680BC704780B483B000AF78607B6818460C3747
S32D0000E650BD4680BC704780B582B000AF786039603868FFF7EEFF7B6818460837BD4680BD80B582B000AF7860EE
S32D0000E6787868FFF764FF034618460837BD4680BD80B584B000AFF860B9607A60B868FFF718FA03461A46F96880
S32D0000E6A07868FFF75AFBB868FFF761FD034619467868FFF742FD00BF1037BD4680BD80B582B000AF7860396023
S32D0000E6C83968786800F039F8034683F00103DBB218460837BD4680BD80B483B000AF78607B681B681A1D7B68EA
S32D0000E6F01A607B6818460C37BD4680BC704780B483B000AF78607B681B6818460C37BD4680BC704790B583B0A5
S32D0000E71800AF786039603868FFF711FB04467B6819460420FFF736F9034621461846FFF73BFC00BF0C37BD46FC
S32D0000E74090BD90B583B000AF78603960786800F00EF80446386800F00AF803469C420CBF01230023DBB21846F0
S32D0000E7680C37BD4690BD80B483B000AF78607B681B6818460C37BD4680BC704780B483B000AF78607B6823F021
S32D0000E790004318460C37BD4680BC704780B582B000AF7860786835F00DF9034618460837BD4680BD80B584B0F9
S32D0000E7B800AFF860B9607A60B968F86836F016F90346002B01D0BB6809E07968F86836F017F90346002B01D076
S32D0000E7E07B6800E0FB6818461037BD4680BD90B583B000AF786039607B681A683B681B681946104635F04EFFB6
S32D0000E80803461C467B6804331A683B6804331B681946104635F042FF03461946204635F035FE034618460C37D3
S32D0000E830BD4690BD90B583B000AF78607B681A687B681B681946104635F02CFF03461C467B6804331A687B6871
S32D0000E85804331B681946104635F020FF03461946204635F013FE03461846FFF793FF034618460C37BD4690BD32
S32D0000E88080B584B000AF786039607868FFF7D2FFF8604FF00001F86836F098F80346002B02D04FF0000309E01B
S32D0000E8A879683868FFF79FFF0346F968184635F0A9FF034618461037BD4680BD80B582B000AF78600846114697
S32D0000E8D01A460346FB700B46BB7013467B707868BA78F978FB6900F01BFA7B6803F130003A7C7978FB6900F058
S32D0000E8F813FA7B6803F160003A7E397DFB6900F00BFA7B684FF07E52C3F890207B684FF00002C3F894207B6814
S32D0000E920434A983392E8030083E803007B68414AA03392E8030083E803007B684FF00002C3F8A8207B684FF091
S32D0000E9480002C3F8AC207B684FF00002C3F8B0207B684FF00002C3F8B4207B684FF00002C3F8B8207B684FF0DD
S32D0000E9700002C3F8BC207B684FF00002C3F8C0207B684FF00002C3F8C4207B684FF00002C3F8C8207B68002292
S32D0000E99883F8D2207B68012283F8D3207B68022283F8D4207B684FF00002C3F8D8207B684FF00002C3F8DC2048
S32D0000E9C07B684FF00002C3F8E0207B681A4AC3F8E8207B684FF07E52C3F8EC207B684FF07E52C3F8F0207B68E7
S32D0000E9E8144AC3F8F4207B68FA7883F8CC207B687A7883F8CE207B683A7D83F8D0207B68BA7883F8CD207B6875
S32D0000EA103A7C83F8CF207B683A7E83F8D1207B68FA69C3F8E4207B6818460837BD4680BDDC790500E479050030
S32D0000EA3800001041CDCCCC3D80B485B000AFF860B9607A603B60FB68BA68C3F8A820FB687A68C3F8AC20FB6888
S32D0000EA603A68C3F8B02000BF1437BD4680BC704790B58FB000AF78607B6803F190027B68A83319461046FFF77E
S32D0000EA88FBFE78637B6803F198027B68A83319461046FFF7F1FE38637B6803F1A0027B68A83319461046FFF746
S32D0000EAB0E7FEF8627B68D3F8BC30BB627B68D3F8B0307B62B96A786A35F0E2FC03463B627B68D3F8F430396A74
S32D0000EAD8184635F0E3FD034618467B68D3F8F03083F000417B68D3F8F0301A46FFF75EFEF861F969786B35F041
S32D0000EB00C9FC03467B63F969386B35F0C3FC03463B63F969F86A35F0BDFC0346FB62786BFFF730FE0346FB6038
S32D0000EB28386BFFF72BFE03463B61F86AFFF726FE03467B6107F1140207F110031146184600F0D3F8024607F1AE
S32D0000EB500C031146184600F0CCF803461B68BB617B68D3F8EC301946B86935F057FF0346002B29D07B68D3F857
S32D0000EB78EC30B969184635F045FE03461946786B35F08CFD03467B637B68D3F8EC30B969184635F037FE03461E
S32D0000EBA01946386B35F07EFD03463B637B68D3F8EC30B969184635F029FE03461946F86A35F070FD0346FB62E6
S32D0000EBC8BB6983F00043BA691946786BFFF7EEFD02467B68C3F8D820BB6983F00043BA691946386BFFF7E2FD4D
S32D0000EBF002467B68C3F8DC20BB6983F00043BA691946F86AFFF7D6FD02467B68C3F8E0207C687B68D3F8D8300E
S32D0000EC181549184635F042FD03461946204600F0C3F87B6803F130047B68D3F8DC300E49184635F033FD0346DD
S32D0000EC401946204600F0B4F87B6803F160047B68D3F8E0300649184635F024FD03461946204600F0A5F800BFFF
S32D0000EC683C37BD4690BD00BF0000C84280B582B000AF78607B68184600F0B2F87B683033184600F0ADF87B680D
S32D0000EC906033184600F0A8F800BF0837BD4680BD80B582B000AF78607B68184600F0A9F8034618460837BD46EE
S32D0000ECB880BD80B582B000AF78607B683033184600F09BF8034618460837BD4680BD80B582B000AF78607B68E5
S32D0000ECE06033184600F08DF8034618460837BD4680BD80B582B000AF786039607B681A683B681B6819461046B3
S32D0000ED0835F06AFE0346002B01D03B6800E07B6818460837BD4680BD80B584B000AFF8607B600B46FB72134666
S32D0000ED30BB72FB681C4A5A60FB684FF07E52DA60FB681033F97A7A68184600F0BDFBFB681933BA7A11461846C0
S32D0000ED5802F01EFBFB684FF49F729A62FB68114ADA62FB68FA7A1A70FB687A689A60FB689B6A184635F03AFC14
S32D0000ED800246FB685A62FB689A7EFB689A76FB681933184602F0C0FDFB6802221A76FB6818461037BD4680BDF5
S32D0000EDA800001041D153FB4080B582B000AF786039607B681B7E022B06D17B6810333968184600F0FDFB03E096
S32D0000EDD00349044803F02EFE00BF0837BD4680BDEC790500C41A002080B582B000AF78607B681033184600F056
S32D0000EDF8A5FB00BF0837BD4680BD80B582B000AF78607B681933184602F070FD0346184635F0F0FB03461846D7
S32D0000EE200837BD4680BD000080B500AF0F4BD3F8A03003F48053002B14BF01230023DBB2002B10D0094BD3F8A6
S32D0000EE48A030084A23F48053C2F8A030064804F09DFF064B1B68054A23F40053136000BF80BD00BF00C0044069
S32D0000EE704C1B0020C0F00F4080B400AF124B4FF480725A63114B5B69104A43F4005353610E4B1B680D4A43F49A
S32D0000EE98005313600A4B0C4A1A630C4BD3F888310A4A43F08063C2F88831084B9B68074A43F08063936000BF37
S32D0000EEC0BD4680BC704700BF00C00440C0F00F4003010A0000E100E080B400AF334B00225A70324B98221A708F
S32D0000EEE8304B9B79DBB203F01003002B14BF01230023DBB2002B00D0F2E72A4B9B79DBB29B08DBB203F00303F5
S32D0000EF10022B14BF01230023DBB2002B00D0F0E7224B18221A71214B00225A71204B03F580531A461F4B5364EB
S32D0000EF381C4B54225A711B4B9B79DBB203F02003002B0CBF01230023DBB2002B00D0F2E7144B9B79DBB203F055
S32D0000EF604003002B0CBF01230023DBB2002B00D0F2E70E4B1B78DBB20C4A03F03F03DBB213700A4B9B79DBB298
S32D0000EF889B08DBB203F00303032B14BF01230023DBB2002B00D0F0E700231846BD4680BC704700BF00400640CF
S32D0000EFB0007004400000130180B500AF314B03F580539B6B2F4A43F4785302F580529363FFF752FFFFF780FF44
S32D0000EFD82B4B58221A602A4B1B684FF47A7202FB03F3284A1360274B1B681A46234B03F580535B6C1B0E03F031
S32D0000F0000F030133B2FBF3F31A46214B1A601D4B03F58053DB6B1B4A43F0225302F58052D363184B03F5805310
S32D0000F0281B6B164A43F0006302F580521363174B4FF480721A61642002F05AF8134B5B69124A23F010035361CD
S32D0000F050104B00221A600F4B10225A610E4803F013F902F0D3FC02F031FD0C4802F0A6F80B4804F0E3FE4FF4CF
S32D0000F078FA6002F051F900BF80BD00BF00700440101A00200C1A0020141A002000D00340C41A0020081A002034
S32D0000F0A0BC1B002080B500AFFDF74DF900BF80BD80B500AFFDF747F900BF80BD80B500AFFDF741F900BF80BD0F
S32D0000F0C880B500AFFDF73BF900BF80BD80B500AFFDF735F900BF80BD80B500AFFDF72FF900BF80BD80B500AF30
S32D0000F0F0FDF729F900BF80BD80B500AFFDF723F900BF80BD80B500AFFDF71DF900BF80BD80B500AFFDF717F91E
S32D0000F11800BF80BD80B500AFFDF711F900BF80BD80B500AFFDF70BF900BF80BD80B500AFFDF705F900BF80BD45
S32D0000F14080B500AFFDF7FFF800BF80BD80B500AFFDF7F9F800BF80BD80B500AFFDF7F3F800BF80BD80B500AF6E
S32D0000F168FDF7EDF800BF80BD80B500AFFDF7E7F800BF80BD80B500AFFDF7E1F800BF80BD80B500AFFDF7DBF899
S32D0000F19000BF80BD80B500AFFDF7D5F800BF80BD80B500AFFDF7CFF800BF80BD80B500AFFDF7C9F800BF80BD84
S32D0000F1B880B500AFFDF7C3F800BF80BD80B500AFFDF7BDF800BF80BD80B500AFFDF7B7F800BF80BD80B500AFAA
S32D0000F1E0FDF7B1F800BF80BD80B500AFFDF7ABF800BF80BD80B500AFFDF7A5F800BF80BD80B500AFFDF79FF811
S32D0000F20800BF80BD80B500AFFDF799F800BF80BD80B500AFFDF793F800BF80BD80B500AFFDF78DF800BF80BDBF
S32D0000F23080B500AFFDF787F800BF80BD80B500AFFDF781F800BF80BD80B500AFFDF77BF800BF80BD80B500AFE5
S32D0000F258FDF775F800BF80BD80B500AFFDF76FF800BF80BD80B500AFFDF769F800BF80BD80B500AFFDF763F888
S32D0000F28000BF80BD80B500AFFDF75DF800BF80BD80B500AFFDF757F800BF80BD80B500AFFDF751F800BF80BDFB
S32D0000F2A880B500AFFDF74BF800BF80BD80B500AFFDF745F800BF80BD80B500AFFDF73FF800BF80BD80B500AF21
S32D0000F2D0FDF739F800BF80BD80B500AFFDF733F800BF80BD80B500AFFDF72DF800BF80BD80B500AFFDF727F800
S32D0000F2F800BF80BD80B500AFFDF721F800BF80BD80B500AFFDF71BF800BF80BD80B500AFFDF715F800BF80BD37
S32D0000F32080B500AFFDF70FF800BF80BD80B500AFFDF709F800BF80BD80B500AFFDF703F800BF80BD80B500AF5C
S32D0000F348FCF7FDFF00BF80BD80B500AFFCF7F7FF00BF80BD80B500AFFCF7F1FF00BF80BD80B500AFFCF7EBFF5F
S32D0000F37000BF80BD80B500AFFCF7E5FF00BF80BD80B500AFFCF7DFFF00BF80BD80B500AFFCF7D9FF00BF80BD60
S32D0000F39880B500AFFCF7D3FF00BF80BD80B500AFFCF7CDFF00BF80BD80B500AFFCF7C7FF00BF80BD80B500AF86
S32D0000F3C0FCF7C1FF00BF80BD80B500AFFCF7BBFF00BF80BD80B500AFFCF7B5FF00BF80BD80B500AFFCF7AFFFD7
S32D0000F3E800BF80BD80B500AFFCF7A9FF00BF80BD80B500AFFCF7A3FF00BF80BD80B500AFFCF79DFF00BF80BD9C
S32D0000F41080B500AFFCF797FF00BF80BD80B500AFFCF791FF00BF80BD80B500AFFCF78BFF00BF80BD80B500AFC1
S32D0000F438FCF785FF00BF80BD80B500AFFCF77FFF00BF80BD80B500AFFCF779FF00BF80BD80B500AFFCF773FF4E
S32D0000F46000BF80BD80B500AFFCF76DFF00BF80BD80B500AFFCF767FF00BF80BD80B500AFFCF761FF00BF80BDD7
S32D0000F48880B500AFFCF75BFF00BF80BD80B500AFFCF755FF00BF80BD80B500AFFCF74FFF00BF80BD80B500AFFD
S32D0000F4B0FCF749FF00BF80BD80B500AFFCF743FF00BF80BD0000000080B584B000AFF8600B467A60FB72FB6877
S32D0000F4D8FA7A1A71FB6800225A711749786835F099FA0346002B02D0134B7B600AE04FF07E51786835F07AFACF
S32D0000F5000346002B02D04FF07E537B60786834F031FC09A3D3E9002334F084FC02460B461046194634F060FF7B
S32D0000F5280246FB681A60FB6818461037BD4680BDABAAAAAAAAAA20400000404180B582B000AF78607B685B79C5
S32D0000F550002B09D07B6800225A717B6819791E230022034801F064FE00BF0837BD4680BD081A002080B584B05A
S32D0000F57800AF786039603B687F2B02DD7F23FB7308E03B6813F1800F02DA8023FB7301E03B68FB737B685B7955
S32D0000F5A0FA7B9A4209D07B68FA7B5A717B681979FA7B1E23034801F03BFE00BF1037BD4680BD00BF081A002009
S32D0000F5C8B0B584B000AF786039603749386835F003FA0346002B02D0334B3B6008E03349386835F017FA034638
S32D0000F5F0002B01D02F4B3B60386834F0BBFB04460D467B681B68184634F0B4FB4FF00002294B34F031FD0246DF
S32D0000F6180B462046294634F001FC02460B461046194634F0DDFE03463B604FF00001386835F0E6F90346002BF4
S32D0000F64010D0386834F096FB17A3D3E9002334F0E9FB02460B461046194634F07DFE0346FB6018E0386834F079
S32D0000F66885FB4FF00002134B34F0D8FB02460B46104619464FF000020D4B34F0F9FC02460B461046194634F0EC
S32D0000F69063FE0346FB60F9687868FFF76BFF00BF1037BD46B0BD00BF52B81E85EB51F43F0000C8C20000C842C1
S32D0000F6B8000059400000604080B483B000AF03460A46FB711346BB71BB79002B03D1134B00221A7002E0114BD0
S32D0000F6E001221A703823FB710E4B1A78FB791343FB710D4B9B78DBB20B4A43F01003DBB29370094B9B78DBB250
S32D0000F708074A43F02003DBB29370054AFB79137100BF0C37BD4680BC704700BFE51700200060064080B483B075
S32D0000F73000AF01237B607B68312B04DC00BF7B6801337B60F7E700BF0C37BD4680BC704780B582B000AF0346F8
S32D0000F7580A46FB711346BB71134B1B7800211846FFF7AAFF00F024F8104AFB79137100F01FF80E4ABB791371BE
S32D0000F78000F01AF80B4B9B78DBB20A4A23F02003DBB29370074B9B78DBB2064A23F01003DBB29370FFF7C2FF9A
S32D0000F7A800BF0837BD4680BDE61700200060064080B483B000AF174B1B78002B24D100237B60154BDB78DBB2C9
S32D0000F7D003F00203002B0CBF01230023DBB2002B0DD07B6842F21072934203DD0B4B01221A7004E07B680133F5
S32D0000F7F87B6000BFE5E7084BDB78DBB2064A43F00203DBB2D37000E000BF0C37BD4680BC704700BFE71700203D
S32D0000F8200060064080B582B000AF0346FB71FB79184600F05FF800BF0837BD4680BD80B582B000AF03460A4643
S32D0000F848FB711346BB7100F035F8FB795B00DBB21846FFF7E3FFBB791846FFF7DFFF00F037F800BF0837BD466C
S32D0000F87080BD80B500AFFF2000F03CF80346184680BD80B584B000AF0346FB7100F016F8FB795B005BB243F048
S32D0000F89801035BB2DBB21846FFF7C0FFFFF7E5FF0346FB7300F014F8FB7B18461037BD4680BD000080B400AFC6
S32D0000F8C0044B9B68034A43F48013936000BFBD4680BC704740F00F4080B400AF044B5B68034A43F480135360CB
S32D0000F8E800BFBD4680BC704740F00F4080B485B000AF0346FB710023BB73164BDB6A03F00043012B0CBF0123A9
S32D0000F9100023DBB2002B03D0FB7B0133FB73F0E70E4BDB6A0D4A43F00043D3620B4AFB7953630A4BDB6A03F47C
S32D0000F9380033002B0CBF01230023DBB2002B00D0F3E7044B9B6BBB73BB7B18461437BD4680BC704700C00A406D
S32D0000F96080B582B000AF204B03F580531B6B1E4A43F4805302F5805213631C4B4FF480721A651B4B5B691A4A4D
S32D0000F98843F480135361FFF7A3FF164B4FF400725A65144B4FF400729A65124B4FF40072DA65124B124A1A60CF
S32D0000F9B0104B124ADA6000237B607B68092B06DCFF20FFF72FFF7B6801337B60F5E704A1D1E9000101F0BAFC29
S32D0000F9D800BF0837BD4680BD9A9999999999B93F0070044000A0044040F00F4000C00A40000C00800500003E44
S32D0000FA0090B486B000AFF860B9607A60FB68534A93420AD1524B03F580535B6B504A43F4806302F58052536353
S32D0000FA2845E0FB684D4A93420AD14B4B03F580535B6B494A43F4006302F58052536336E0FB68474A93420AD154
S32D0000FA50434B03F580535B6B414A43F4805302F58052536327E0FB68404A93420AD13C4B03F580535B6B3A4A15
S32D0000FA7843F4005302F58052536318E0FB683A4A93420AD1344B03F580539B6A324A43F4806302F58052936225
S32D0000FAA009E02F4B03F580539B6A2D4A43F4006302F580529362FB68DB78DBB223F00C03DAB2FB68DA70FB6835
S32D0000FAC800229A70BB684FF47A7203FB02F27B681B0192FBF3F39CB2FB681B78DBB223F01F03FB75230A9BB23E
S32D0000FAF0DBB203F01F03DAB2FB7D1343DAB2FB681A70E2B2FB685A70BB684FF4FA4203FB02F27B681B0192FB92
S32D0000FB18F3F39AB263019BB2D31A9CB2FB689B7ADBB223F01F03FB75E3B203F01F03DAB2FB7D1343DAB2FB6804
S32D0000FB409A72FB68DB78DBB243F00C03DAB2FB68DA7000BF1837BD4690BC704700A006400070044000B0064029
S32D0000FB6800C0064000D0064000A00E4080B483B000AF78607B681B79DBB203F02003002B0CBF01230023DBB293
S32D0000FB90002B00D0F2E77B68DB79DBB218460C37BD4680BC704780B483B000AF78600B46FB707B681B79DBB26A
S32D0000FBB85BB2DB43DBB2DB09DBB2002B00D0F4E77B68FA78DA7100BF0C37BD4680BC704780B487B000AFF86016
S32D0000FBE0B9607A60FB687B617B685A1E7A60002B14BF01230023DBB2002B06D07B695A1C7A61BA68D2B21A7058
S32D0000FC08EEE700BF1C37BD4680BC704780B584B000AF786039607B681B6BFB60FA683B689A4252D07B681B792A
S32D0000FC30002B35D07B6858787B6803F134010123FA6801F0F7F80346002B14BF01230023DBB2002B01D0012316
S32D0000FC583CE07B6800221A717B685A6A7B681B6A1344FA689A4217D27B68DB78FB72FB7A012B11D97B681B6AAF
S32D0000FC80FA681344FB607B6858787B6803F134010123FA6801F0CEF8FB7A013BFB72EAE73B68002B15D07B68C1
S32D0000FCA858787B6803F1340101233A6800F0DAFF0346002B14BF01230023DBB2002B01D0012303E07B683A6820
S32D0000FCD01A63002318461037BD4680BD80B584B000AF786000217868FFF794FF0346FB73FB7B002B40F093806C
S32D0000FCF87B681B78032B7DD17B685B79002B79D07B6800221A637B6834334FF4007200211846FFF75DFF7B688C
S32D0000FD20552283F832227B68AA2283F833227B68522283F834207B68522283F835207B68612283F836207B6889
S32D0000FD48412283F837207B68722283F818227B68722283F819227B68412283F81A227B68612283F81B227B6801
S32D0000FD701B69DAB27B6883F81C227B681B699BB21B0A9BB2DAB27B6883F81D227B681B691B0CDAB27B6883F8F2
S32D0000FD981E227B681B691B0EDAB27B6883F81F227B68DB68DAB27B6883F820227B68DB689BB21B0A9BB2DAB27F
S32D0000FDC07B6883F821227B68DB681B0CDAB27B6883F822227B68DB681B0EDAB27B6883F823227B6858787B68E5
S32D0000FDE803F134017B685A69012301F01FF87B6800225A717B685B7800220021184601F0E1F80346002B14BFBA
S32D0000FE1001230023DBB2002B01D00123FB73FB7B18461037BD4680BD80B582B000AF78600B467B807B68002BBF
S32D0000FE3808D07B681B78002B04D07B68DB887A889A4201D0092311E07B685B78184601F03BF9034603F00103C4
S32D0000FE60002B14BF01230023DBB2002B01D0032300E0002318460837BD4680BD80B586B000AF78607B681A6849
S32D0000FE887B689B8819461046FFF7CAFF0346FB75FB7D002B40F0AC807B689B7903F02003002B00F0A5807B68EA
S32D0000FEB09B7903F04003002B1BD07B681B6858787B6803F128017B689A69012300F0B2FF0346002B14BF012378
S32D0000FED80023DBB2002B01D001238AE07B689B7923F04003DAB27B689A717B681A687B68DB6919461046FFF7C4
S32D0000FF0089FE0346FB75FB7D002B75D17B681B6A3B613B690B331A783B690B3342F02002D2B21A707B68DA68C9
S32D0000FF283B691C33D2B21A707B68DB689BB21B0A9AB23B691D33D2B21A707B68DB681A0C3B691E33D2B21A7075
S32D0000FF507B68DB681A0E3B691F33D2B21A707B681A693B691A33D2B21A707B681B699BB21B0A9AB23B691B33B5
S32D0000FF78D2B21A707B681B691A0C3B691433D2B21A707B681B691B0C9BB21B0A9AB23B691533D2B21A7000235E
S32D0000FFA0FB603B691633FA68D2B21A70FB689BB21B0A9AB23B691733D2B21A70FB681A0C3B691833D2B21A70D8
S32D0000FFC8FB681A0E3B691933D2B21A707B689B7923F02003DAB27B689A717B681B6801221A717B681B68184603
S32D0000FFF0FFF774FE0346FB75FB7D18461837BD4680BD80B584B000AF78607868FFF736FF0346FB73FB7B002B0A
S32D0001001802D17B6800221A60FB7B18461037BD4680BD000080B588B000AF7860396080233B610F23FB604FF074
S32D00010040FF337B610223FB61FB69B3F5807F23D80123BB61BB69102B1AD8FB69BA6902FB03F33A6803FB02F25D
S32D000100687B68D31ABB60BB68002B09DBBB687A699A4205D9BB687B61FB693B61BB69FB60BB690133BB61E1E7D2
S32D00010090FB695B00FB61D7E71D4BDB6A1C4A23F00803D3621A4BDB6A23F47F2323F47F63BB613B695B081B0266
S32D000100B89AB2FB68013B1B01DBB21A43BB691343114A43F46023D3620F4B5B6A03F00803002B0CBF012300230A
S32D000100E0DBB2002B03D00A2001F01AF9F0E7084BDB6A074A43F00803D362054B1B6B044A43F48013136300BFE2
S32D000101082037BD4680BD00BF00100B4080B582B000AF786039607B6800221A60414B424ADA62404BDB6A03F0FA
S32D000101308073002B14BF01230023DBB2002B00D0F3E73A4B0022C3F8C020384B4FF481325A60364B28229A62CA
S32D00010158344B4FF001125A643B689B6833491846FFF760FF2F4B5B6A03F00303002B14BF01230023DBB2002BDF
S32D0001018000D0F3E72C4B40F243421A602A4B40F243425A60284B4FF488629A60264B40F24342DA60244B40F27B
S32D000101A843421A61224B40F243425A61214B03F580531B6B1F4A43F4003302F580521363184B4FF6FF721A63E4
S32D000101D0164B1B4A5A63154BDB6A144A43F00063D362124BDB6A03F00063002B14BF01230023DBB2002B00D0EA
S32D000101F8F3E70C4B5B6A03F48033002B14BF01230023DBB2002B02D07B6801221A60054B1B6B044A43F080030F
S32D000102201363002318460837BD4680BD00100B400080000160CC050000D0044000700440B3007F0080B400AF4F
S32D00010248064B5A6A40F207331340002B14BF01230023DBB21846BD4680BC704700100B4080B485B000AF786042
S32D00010270074B1B6B7A681340FB60FB68002B00D1F6E7FB6818461437BD4680BC704700BF00100B4080B584B036
S32D0001029800AF78607B681B7803F03F03764A52F82330FB60FB68002B05D17B681B78002B01D00123DCE0714BDB
S32D000102C01B6B704A43F0800313636E4B5B6A03F00103002B14BF01230023DBB2002B00D0F3E7684A7B685B682F
S32D000102E89360FB6823F44003FB607B685B789B0503F44003FA681343FB607B685B78022B03D1FB6843F40013D5
S32D00010310FB607B685B78042B16D1FB6803F44033B3F5003F08D1FB6823F44033FB60FB6843F44033FB6007E073
S32D00010338FB6823F44033FB60FB6843F40033FB604E4B5B684D4A9BB253607B68DB68002B2AD0FB6803F440331B
S32D00010360B3F5403F03D0FB6843F40013FB607B681B7A002B03D0FB6843F01003FB607B68DB68012B03D9FB6861
S32D0001038843F02003FB607B68DB68B3F1FF3F0BD03A4B5A687B68DB681B04384913434B60FB6843F00203FB60AE
S32D000103B0344B00221A60334AFB68D3603248FFF753FF0346012B14BF01230023DBB2002B09D02C4B1B6B2B4A9C
S32D000103D843F4702343F001031363012348E0274B1B6B03F08003002B14BF01230023DBB2002B07D0214B1B6BFF
S32D00010400204A43F001131363012335E01D4B1B6B03F48033002B14BF01230023DBB2002B08D0184B1B6B174AB6
S32D0001042843F0011313634FF0FF3321E0FB6803F44033002B15D0114B1A697B681A61FB6803F44033B3F5803F28
S32D000104500BD10C4B5A697B685A610A4B9A697B689A61084BDA697B68DA61064B1B6B054A43F001031363002309
S32D0001047818461037BD4680BD5C7A050000100B4001000E0080B592B000AF7860396000237B643B68BB63994BED
S32D000104A07B637B6B002B02D140F601235FE3964B3B633B6B002B02D140F60B2357E33B6B1B68FB62FB6A002BF8
S32D000104C802D140F60B234EE37B6841F20932934200F23F837B68B3F5985F08D87B68032B00F01A837B68092BAC
S32D000104F000F0098331E37B68A3F59853013B082B00F22B8301A252F823F000BF310501001D080100790A010038
S32D00010518330801007108010097090100DF090100210901003B0901007649786BFFF7EEFD78647B6C002B40F063
S32D000105401083002387F84330002387F82B30002387F82A30002387F82930002387F84230002387F828300023BF
S32D000105683B7200237B720023FB6000233B7400237B6107F108031846FFF788FE0346002B14BF01230023DBB260
S32D00010590002B02D001237B64E8E240F24C4000F0BFFE08233B7200237B724FF4D573FB6000233B7400237B6168
S32D000105B807F108031846FFF769FEF863FB6B002B09D1BA69FB689A4202D001237B64C9E2012387F84230012375
S32D000105E087F8283097F82830002B00F0A58037233B7200237B720023FB6000233B7400237B6107F10803184627
S32D00010608FFF744FEF863FB6B002B02D001237B64A8E269233B7200237B720023FB6000233B7400237B6107F1B0
S32D0001063008031846FFF72EFE0346002B14BF01230023DBB2002B02D001237B648EE2BB6903F44013002B6FD0AD
S32D000106580023FB630A2000F05FFEFB6B0133FB6337233B7200237B720023FB6000233B7400237B6107F108031A
S32D000106801846FFF707FE0346002B14BF01230023DBB2002B02D001237B6428E069233B7200237B7297F8423085
S32D000106A8002B02D0184BFB6002E04FF44013FB6000233B7400237B6107F108031846FFF7E5FD0346002B14BF44
S32D000106D001230023DBB2002B02D001237B6406E0BB69002B03DBFB6B632B00D8B6E77B6C002B40F03882FB6B49
S32D000106F8632B0BD9002387F8423019E0FC170020001A0020507A050000003040012387F8433097F84230002B66
S32D000107200AD0002387F84230BB6903F08043002B02D0012387F8423097F82A30002B02D07B6B07221A6097F8D2
S32D000107482930002B02D07B6B08221A6097F82B30002B02D07B6B04221A6097F84330002B09D07B6B02221A60AB
S32D0001077097F84230002B02D07B6B03221A6097F82B30002B0DD097F84330002B09D07B6B05221A6097F8423057
S32D00010798002B02D07B6B06221A60924B00221A60904B00225A608F4B00229A608D4B0022DA608C4B00221A61DF
S32D000107C08A4B00225A61FB6A9A68FB6A5B6819461046FFF72BFC854B40F243421A60834B40F243425A60814BEB
S32D000107E84FF488629A607F4B40F24342DA607D4B40F243421A617B4B40F243425A617A4B03F580531B6B784AF6
S32D0001081043F4003302F580521363A7E1B86BFFF739FDF863FB6B002B00F09F8102237B649BE1BB6B002B02D199
S32D000108380C237B6496E16D4BDB6A1B0A5B0003F4FF73FB63694BDB6A1B0903F00F035A1CFB6B02FB03F3FB6379
S32D00010860FB6A9A68FB6BB2FBF3F2BB6B1A607DE1BB6B002B02D10C237B6477E1BB6B1B68002B02D10C237B64CD
S32D0001088870E1FFF7DBFC0346002B0CBF01230023DBB2002B3CD0534B00221A60514B00225A60504B00229A6070
S32D000108B04E4B0022DA604D4B00221A614B4B00225A61FB6A9A68BB6B1B6819461046FFF7ADFB464B40F24342D1
S32D000108D81A60444B40F243425A60424B4FF488629A60404B40F24342DA603E4B40F243421A613C4B40F243424E
S32D000109005A613B4B03F580531B6B394A43F4003302F58052136329E140F60A237B6425E1BB6B002B02D10C2365
S32D000109287B641FE1314B5B68C3F30C02BB6B1A6018E1BB6B002B02D10C237B6412E1FFF77DFC0346002B0CBF52
S32D0001095001230023DBB2002B19D0BB6B1B68B3F5805F02D30C237B6400E1224B5B68214A23F4FF5323F01F0363
S32D0001097853601E4B5A68BB6B1B68C3F30C031B4913434B60EEE040F60A237B64EAE0BB6B002B02D10C237B6493
S32D000109A0E4E0144B9B6A5B0803F00303FB63FB6B002B03D1BB6B00221A60D7E0FB6B012B03D1BB6B01221A603F
S32D000109C8D0E0FB6B102B03D1BB6B02221A60C9E005237B64C6E0BB6B002B09D10C237B64C0E000BF00D0044015
S32D000109F00070044000100B40FFF724FC0346002B0CBF01230023DBB2002B31D0BB6B1B68002B0AD1584B9B6A1D
S32D00010A18574A23F006039362554B554A9B6A9362A0E0BB6B1B68012B0CD1514B9B6A504A23F0060393624E4BAD
S32D00010A409B6A4D4A43F0020393628FE0BB6B1B68022B0AD1484B9B6A474A23F006039362454B454A9B6A93624B
S32D00010A6880E005237B647DE040F60A237B6479E0BB6B002B02D10C237B6473E03C4BDB6A3B4A43F00063D3625F
S32D00010A90394BDB6A03F00063002B14BF01230023DBB2002B00D0F3E7334B1B6B03F08003002B14BF01230023B2
S32D00010AB8DBB2002B08D02E4B1B6B2D4A43F0800313637B6B00221A60294B5B6A03F48033002B14BF0123002333
S32D00010AE0DBB2002B07D07B6B1B68002B06D17B6B01221A6002E07B6B00221A607B6B1A68BB6B1A6032E0BB6BC6
S32D00010B081C221A60BB6B043304221A60BB6B08334FF41E721A6025E00220FFF7A1FB144B1B6B03F4E003002BB8
S32D00010B3014BF01230023DBB2002B07D00E4B1B6B0D4A43F4E003136304237B640A4B1B6B094A43F03203136315
S32D00010B5808E040F609237B6404E000BF02E000BF00E000BF7B6C18464837BD4680BD00BF00100B4080B489B0D7
S32D00010B8000AF786039607B687B61364B3B613B69002B01D100235FE03B691B68022B0BD03B691B68032B07D0EC
S32D00010BA83B691B68072B03D03B691B68082B0BD12B4B5B6A03F00403002B14BF01230023DBB2002B00D0F3E7E0
S32D00010BD03B68FB61FB69002B3DD0FB69B3F5007F28BF4FF40073FB60FB6803339B08BB61BB69002B2AD01C4BD0
S32D00010BF81B6B03F4E003002B14BF01230023DBB2002B09D0164B1B6B154A43F4E00343F02003136300231BE04E
S32D00010C20114B5B6A03F40063002B0CBF01230023DBB2002B00D0F3E70B497B691A1D7A610A6A1A60BB69013BF3
S32D00010C48BB61D1E7FA69FB68D31AFB61BEE7012318462437BD4680BC704700BFFC17002000100B4080B58EB062
S32D00010C7000AFB9607A601A460346FB731346BB73414B7B63FB7B002B02D1BB7B002B01D1042375E03D4B1B786D
S32D00010C98DBB203F00103002B14BF01230023DBB2002B01D0032367E0BB68002B01D1002362E07B6B1B7B002B42
S32D00010CC002D17B685B027B60BB7B012B28D111233B7500237B757B68BB6101233B77BB7B3B6207F114031946AF
S32D00010CE841F20230FFF7CEFB0346002B0CBF01230023DBB2002B38D04FF40071B868FFF739FF0346002B14BF2A
S32D00010D1001230023DBB2002B2BD00023BB7328E012233B7500237B757B68BB6101233B77BB7B3B6207F11403B2
S32D00010D38194641F20230FFF7A5FB0346002B0CBF01230023DBB2002B0FD0BB7B5B021946B868FFF70FFF0346B6
S32D00010D60002B14BF01230023DBB2002B01D00023BB73BB7B002B01D0012300E0002300BF18463837BD4680BD20
S32D00010D88E81700200400002080B487B000AF786039607B68FB603B687B617B69002B3DD07B69B3F5007F28BFA3
S32D00010DB04FF400733B617A693B69D31A7B613B6903339B083B613B69002BEAD0184B1B6B03F4E003002B14BF0F
S32D00010DD801230023DBB2002B0AD0134B1B6B124A43F4E00343F0100313634FF0FF3316E00D4B5B6A03F480639F
S32D00010E00002B0CBF01230023DBB2002B00D0F3E7FB681A1DFA60064A1B6813623B69013B3B61D0E70123184633
S32D00010E281C37BD4680BC704700100B4080B58EB000AFB9607A601A460346FB731346BB735D4B7B63FB7B002B1D
S32D00010E5002D1BB7B002B01D10423ADE0594B1B78DBB203F00103002B14BF01230023DBB2002B01D003239FE08B
S32D00010E78524B1B78DBB203F00403002B14BF01230023DBB2002B01D0022391E0BB68002B01D100238CE07B6B9B
S32D00010EA01B7B002B02D17B685B027B60BB7B012B28D118233B7500237B757B68BB6100233B77BB7B3B6207F17C
S32D00010EC81403194641F20230FFF7DCFA0346002B0CBF01230023DBB2002B38D04FF40071B868FFF751FF0346AB
S32D00010EF0002B14BF01230023DBB2002B2BD00023BB7328E019233B7500237B757B68BB6100233B77BB7B3B62DC
S32D00010F1807F11403194641F20230FFF7B3FA0346002B0CBF01230023DBB2002B0FD0BB7B5B021946B868FFF70F
S32D00010F4027FF0346002B14BF01230023DBB2002B01D00023BB730D233B7500237B757B6B1B69BB6100233B77A6
S32D00010F6800233B6207F11403194641F20230FFF789FA0346002B14BF01230023DBB2002B01D0012314E07A6A3B
S32D00010F900D4B1340002B01D001230DE07B6A03F4F853B3F5106F00D0D5E7BB7B002B01D0012300E0002300BF88
S32D00010FB818463837BD4680BDE8170020040000200880D9FF80B58CB000AF03463A60FB710B46BB713A4BBB62CC
S32D00010FE0FB79002B01D0042369E0012387F82F30364B1B78DBB203F00103002B14BF01230023DBB2002B01D09A
S32D00011008032358E0BB79032B50D801A252F823F029100100311001004110010051100100002387F82F3044E07C
S32D00011030BB6A9A683B681A60002387F82F303CE03B684FF400721A80002387F82F3034E009233B7200237B7240
S32D00011058BB6A1B69FB6000233B7400237B6107F10803194641F20230FFF70CFA0346002B14BF01230023DBB2B6
S32D00011080002B01D001231AE07B6A03F44003002B0CD13B6A9B0C03F07F035A1C7B6A1B0A03F00303013B9A40B0
S32D000110A83B681A60002387F82F3002E0042387F82F3097F82F3018463037BD4680BD00BFE8170020040000201F
S32D000110D080B483B000AF0346FB71FB79002B01D0012302E0034B1B78DBB218460C37BD4680BC70470400002087
S32D000110F880B483B000AF7860164B03F580539B6B144A43F0010302F580529363124A7B689360114B05225A60E6
S32D000111200F4B1B680E4A43F0010313600C4B1B6803F08003002B0CBF01230023DBB2002B00D0F3E7064B1B68FE
S32D00011148054A23F00103136000BF0C37BD4680BC704700BF007004400000044080B582B000AF786039607B6886
S32D00011170012B07D13B684FF6FF72934202D1034800F00EF800BF0837BD4680BD081A002080B500AF4FF6FF71F1
S32D000111980120FFF7E3FF80BD80B483B000AF78607B6800221A707B6818460C37BD4680BC7047000080B582B094
S32D000111C000AF78607B681B7883F00103DBB2002B21D0134B03F580531A464FF400639362104B4FF440721A62F3
S32D000111E80E4B4FF440725A620D4B1B68DA0F13445B104FF4614219460A48FEF7FDFB642000F08AF87B680122C8
S32D000112101A70012300E0002318460837BD4680BD0070044000D004400C1A002000B00E4080B582B000AF786027
S32D00011238084611461A460346FB700B46BB7013467B707F210E48FEF7AAFC08210C48FEF7A6FCFB7819460A4845
S32D00011260FEF7A1FCBB7819460748FEF79CFC7B7819460548FEF797FCFF210348FEF793FC00BF0837BD4680BD0B
S32D0001128800B00E4080B487B000AFF860B9607A60FB681F4AA2FB03239B09BA6813447B61FB681B4AA2FB0312D2
S32D000112B092094FF47A7101FB02F29B1AFB60FB68DB03154AA2FB03239B097A6813443B613B69DB0B7A691344A6
S32D000112D87B613B69C3F30E033B610E4B1B687A699A4209D80B4B1B687A699A4206D1094B5B683A699A4201D9A9
S32D00011300012300E00023002B00D0EAE700BF1C37BD4680BC704700BFD34D621000D0034080B584B000AF78606F
S32D00011328074B1B68FB60064B5B68BB607B68BA68F9681846FFF7A6FF00BF1037BD4680BD00D0034080B584B016
S32D0001135000AFC7E900010E4B1B68FB600C4B5B68BB604FF000020B4BD7E9000132F05AFD02460B461046194683
S32D0001137833F016F80346BA68F9681846FFF782FF00BF1037BD4680BD00D0034000408F4080B584B000AF78601C
S32D000113A00B46FB700B23FB73FA7BFB781946786800F094F87B6818461037BD4680BD000080B485B000AF78606B
S32D000113C87B68103B002B00DA1F335B11FB60FB68022B53D0FB68022B75DCFB68002B03D0FB68012B25D06EE0E3
S32D000113F0394BD3F880217B68103B594203F01F0301F01F0158BF4B42012101FA03F332491343C1F88031304B82
S32D000114181A687B68103B594203F01F0301F01F0158BF4B42012101FA03F3294913430B6049E0274BD3F884213F
S32D000114407B68103B594203F01F0301F01F0158BF4B42012101FA03F31F491343C1F884311D4B5A687B68103B53
S32D00011468594203F01F0301F01F0158BF4B42012101FA03F3164913434B6024E0144BD3F888217B68103B5942DD
S32D0001149003F01F0301F01F0158BF4B42012101FA03F30D491343C1F888310B4B9A687B68103B594203F01F03FC
S32D000114B801F01F0158BF4B42012101FA03F3044913438B6000BF00BF1437BD4680BC704700E100E080B584B0C6
S32D000114E000AF78600B46FB701346BB707B68FA781A70BB78FB737B681B781A46574B9B5C042B00F2A68001A23D
S32D0001150852F823F0211501006D150100B91501005116010005160100FB7B1B0403F470234D497A6812781046D3
S32D000115304C4A52F8202043F4897343F0010341F82230494B5A697B681B781946454B53F8213003F01F030121E8
S32D0001155801FA03F3DB43424913404B616720FFF72BFF72E0FB7B1B0403F470233D497A6812781046394A52F89E
S32D00011580202043F4897343F0010341F82230384B5A697B681B781946324B53F8213003F01F03012101FA03F3AB
S32D000115A8DB43314913404B616820FFF705FF4CE0FB7B1B0403F470232C497A6812781046264A52F8202043F448
S32D000115D0897343F0010341F82230274B5A697B681B7819461F4B53F8213003F01F03012101FA03F3DB4320496F
S32D000115F813404B616920FFF7DFFE26E0FB7B1B0403F470231B497A6812781046134A52F8202043F4897343F0D1
S32D00011620010341F82230164B5A697B681B7819460C4B53F8213003F01F03012101FA03F3DB430F4913404B6183
S32D000116486B20FFF7B9FE00E000BF00BF1037BD4680BD00BF5C7B050000900440A07B050000F00F4000A00440A4
S32D0001167040F00F4000B0044080F00F4000D0044000F10F40B0B48BB000AF224B3C1D1D460FCD0FC495E80F0013
S32D0001169884E80F0000237B627B6A072B30DC1C4BD3F8A0207B6A9B0028333B4453F8243C012101FA03F3134028
S32D000116C0002B14BF01230023DBB2002B18D0134A7B6A52F823305A1C10497B6A41F823200D4BD3F8A0207B6A3F
S32D000116E89B0028333B4453F8243C012101FA03F307491340C1F8A0307B6A01337B62CBE700BF2C37BD46B0BC3B
S32D00011710704700BFA47C050000A00440381A0020B0B489B000AF224B3C1D1D460FCD0FC495E8030084E80300A6
S32D000117380023FB61FB69052B30DC1C4BD3F8A020FB699B0020333B4453F81C3C012101FA03F31340002B14BF99
S32D0001176001230023DBB2002B18D0FB690833124A52F823200132104941F823200D4BD3F8A020FB699B002033AE
S32D000117883B4453F81C3C012101FA03F307491340C1F8A030FB690133FB61CBE700BF2437BD46B0BC704700BF2C
S32D000117B0C47C050000B00440381A0020B0B48DB000AF234B3C461D460FCD0FC40FCD0FC495E8070084E8070067
S32D000117D80023FB62FB6A0A2B30DC1C4BD3F8A020FB6A9B0030333B4453F8303C012101FA03F31340002B14BFCD
S32D0001180001230023DBB2002B18D0FB6A0E33124A52F823200132104941F823200D4BD3F8A020FB6A9B003033F5
S32D000118283B4453F8303C012101FA03F307491340C1F8A030FB6A0133FB62CBE700BF3437BD46B0BC704700BF65
S32D00011850DC7C050000900440381A0020B0B487B000AF214B3C461D460FCD0FC42B68236000237B617B69042B54
S32D0001187830DC1C4BD3F8A0207B699B0018333B4453F8183C012101FA03F31340002B14BF01230023DBB2002BF8
S32D000118A018D07B691933124A52F823200132104941F823200D4BD3F8A0207B699B0018333B4453F8183C012123
S32D000118C801FA03F307491340C1F8A0307B6901337B61CBE700BF1C37BD46B0BC704700BF087D050000D0044099
S32D000118F0381A002080B483B000AF78607B681B781A46044B53F8223018460C37BD4680BC704700BF381A0020DF
S32D0001191880B483B000AF78607B681B781946044B002243F8212000BF0C37BD4680BC7047381A002080B483B01F
S32D0001194000AF78600B46FB707B68FA781A707B6818460C37BD4680BC7047000080B586B000AF78607B681B7874
S32D000119681A46234B53F822303B617B681B781A46204B9B5CFB733B69DBB203F01F03DAB21D4B1A723B69DBB2AC
S32D0001199003F01F03DAB21A4B5A72FB7B002B13D11749184800F0CEF9164B1B6803F08003802B14BF012300233B
S32D000119B8DBB2002B00D0F3E7104B1B697B6112E00D490F4800F0BAF90D4B1B6803F08003802B14BF012300238B
S32D000119E0DBB2002B00D0F3E7074B1B697B617B6918461837BD4680BD207C05007C7B0500281A002000B0034001
S32D00011A0800B00B4098B500AF204B5C221A701F4B10225A701D4B41F234225A801B4B45F278629A80194B1022ED
S32D00011A309A71184B0722DA71164B4FF4C022DA60144B1F221A72134B1F225A721149124800F078F90F49114888
S32D00011A5800F074F90F4800F0D2F80D4800F0CFF80A490C4800F06AF90849094800F066F9094A064B14460FCB22
S32D00011A8084E80F00064B5C221A70054B0422DA7100BF98BD181A002000B0034000B00B40281A002080B500AF08
S32D00011AA8064B1B680133054A136000F03DF8044B0122C3F80C2100BF80BD00BFBC1A00200070034080B500AF7E
S32D00011AD00C4B01221A600C4800F01AF8094B0322C3F80821094BD3F88831084A43F01003C2F88831054B9B680A
S32D00011AF8044A43F01003936000BF80BD00700340A086010000E100E080B483B000AF7860044A7B68C2F8003197
S32D00011B2000BF0C37BD4680BC704700BF0070034080B584B000AF174B1B68FB60FB68002B24D0FB685B78FB71B0
S32D00011B48FB689B68184600F023F80346BB71BB79002B13D0FB685B68012B0FDDFB689B681B69BB60BB68002B57
S32D00011B7008D0BB685B685A1CBB685A60BB681B69BB60F3E7FB68DB68FB60D7E700BF1037BD4680BDB81A0020A2
S32D00011B9880B584B000AF78607868FFF7DBFEF8607B689B695B78FB72FB7A002B0FD17B68DB68FA689A420ADD35
S32D00011BC07B689B6901225A707B685B685A1C7B685A60012313E0FB7A012B0FD17B689B68FA689A420ADA7B68E6
S32D00011BE89B6900225A707B685B685A1C7B685A60012300E0002318461037BD4680BD80B485B000AF78607B6846
S32D00011C101B6A23F040027B681A627B685B6A23F00B027B685A627B685B6A43F007027B685A627B685B6A43F0A7
S32D00011C3880027B685A627B681B6803F08003002B0CBF01230023DBB2002B00D0F3E77B685B6A03F04003402B98
S32D00011C600CBF01230023DBB2002B01D0012364E00023FB817B68DB6CFB817B689B6C9AB2FB891344FB817B689D
S32D00011C885B6C9AB2FB891344FB817B681B6C9AB2FB891344FB817B68DB6B9AB2FB891344FB817B689B6B9AB2B5
S32D00011CB0FB891344FB81FB895B08FB81FB896FEA43436FEA5343FB81FA897B68DA620023FB817B68DB6EFB8194
S32D00011CD87B689B6E9AB2FB891344FB817B685B6E9AB2FB891344FB817B681B6E9AB2FB891344FB817B68DB6DC5
S32D00011D009AB2FB891344FB817B689B6D9AB2FB891344FB81FB895B08FB81FB896FEA43436FEA5343FB81FA89CF
S32D00011D287B681A637B685B6A23F080027B685A62002318461437BD4680BC704780B483B000AF786039603B6864
S32D00011D501B781A467B689A603B685B781A467B68DA603B685B881A467B689A613B689B881A467B68DA613B68F6
S32D00011D789B791A467B681A623B68DB791A467B685A623B68DA687B681A653B681B7A1A467B681A603B685B7ABF
S32D00011DA01A467B685A6000BF0C37BD4680BC704780B483B000AF78607B6818460C37BD4680BC704780B582B050
S32D00011DC800AF786039607B68012B07D13B684FF6FF72934202D10348FFF7E6FF00BF0837BD4680BDC01A002086
S32D00011DF080B500AF4FF6FF710120FFF7E3FF80BD80B483B000AF78600C2318460C37BD4680BC704780B483B0DA
S32D00011E1800AF7860112318460C37BD4680BC704780B582B000AF7860B84B4FF48072DA60B74B4FF480729A64B4
S32D00011E40B54B4FF480721A64B34B4FF480725A64B14B4FF48072DA60B04B5B69AF4A43F008035361AE4B5B69FD
S32D00011E68AD4A43F480235361AB4B5B69AA4A43F480335361A84B5B69A74A43F400335361A54B1B68A44A43F020
S32D00011E9008031360A24B5B69A14A43F0080353619E4B1B689D4A43F0080313609A4B4FF480725A62984B4FF417
S32D00011EB880721A62954B4FF480721A61934B4FF480725A61914B4FF480729A618F4B4FF48072DA618D4B4FF4BE
S32D00011EE080721A638B4B4FF480725A63894B4FF480729A63874B4FF48072DA63854B4FF480721A64834B4FF4BE
S32D00011F0880725A64814B4FF480729A647F4B4FF48072DA64814B4FF480721A607F4B4FF480729A607D4B4FF43F
S32D00011F308072DA607B4B4FF480721A61784B5B69774A43F440735361744B5B69734A43F47F2343F0F003536107
S32D00011F58734B5B69724A43F01D035361E221786800F078FD1D21786800F01AFE0221786800F016FE042178689B
S32D00011F8000F012FEE021786800F068FD0121786800F00AFE6420FFF7C3F9E021786800F05DFD0321786800F0AD
S32D00011FA8FFFD0121786800F055FD0120FFF7B4F9E621786800F04EFD0121786800F0F0FDA021786800F0ECFD8B
S32D00011FD0FF21786800F0E8FDB021786800F03EFD1C21786800F0E0FD0F21786800F0DCFD0121786800F0D8FDA7
S32D00011FF83F21786800F0D4FD0021786800F0D0FDEF21786800F0CCFD0021786800F0C8FDB421786800F01EFDDC
S32D000120200121786800F0C0FD9921786800F0BCFD0021786800F0B8FD4521786800F0B4FD0221786800F0B0FD72
S32D000120480021786800F0ACFD0021786800F0A8FD0021786800F0A4FDB621786800F0FAFC0121786800F09CFD7F
S32D000120700921786800F098FD0021786800F094FD0E21786800F090FD0221786800F08CFD0021786800F088FDB2
S32D000120980021786800F084FDBA21786800F0DAFC0F21786800F07CFD6420FFF735F93A21786800F0CFFC60218E
S32D000120C0786800F071FD2A21786800F0C7FC0021786800F069FD0021786800F065FD0121786800F061FD3F217B
S32D000120E8786800F05DFD2B21786800F0B3FC0021786800F055FD0021786800F051FD0021786800F04DFDEF2107
S32D0001211078680BE000B0044000A0044080F00F4040F00F4000C00440C0F00F4000F03CFD3621786800F092FCDE
S32D000121380021786800F034FDF021786800F08AFC0421786800F02CFDB821786800F082FC0F21786800F024FD89
S32D000121600121786800F020FD314B1B68304A43F0080313606420FFF7D3F83621786800F06DFC0021786800F051
S32D000121880FFDF021786800F065FC0421786800F007FD0121786800F0BCF91E226F21786800F082F8AF225621D8
S32D000121B0786800F0DBF80021786800F00AFA012301221C49786800F02BFA2921786800F045FC6420FFF7A4F856
S32D000121D8BE21786800F03EFC0E21786800F0E0FCF021786800F0DCFC0121786800F0D8FC0021786800F0D4FCD4
S32D000122000021786800F0D0FC0F21786800F0CCFC786800F099FA0121786800F0DAF90021786800F0AFF900BFAA
S32D000122280837BD4680BD00BF40F00F401C7D050080B582B000AF78607B680022DA617B6801221A627B680E2269
S32D000122505A607B681A229A607B6800225A617B6800229A617B684FF4A072DA607B68F0221A617B6800221A705B
S32D00012278786801F0FBF97B6818460837BD4680BD80B582B000AF7860064B1B78002B05D1044B01221A70786803
S32D000122A0FFF7C2FD00BF0837BD4680BD081B002080B58AB002AFF860B9607A607E23009362237A68B968F86852
S32D000122C800F08FFE40F24E733B610023FB61FA693B699A4240DA0023BB61214AFB6913441B781A46BB6993420E
S32D000122F032DAFB6901331C4AD35C002B06D1FF23FB75FF23BB75FF237B7512E0FB690133154AD35C012B06D173
S32D00012318D423FB750023BB7526237B7505E0B523FB75BA23BB75B0237B757B7DBA7DF97DF86800F0C9F80246A8
S32D00012340FB68DA61F86801F095F9F86801F0CEF8BB690133BB61C4E7FB690233FB61BAE700BF2037BD4680BDCF
S32D000123680800002080B58AB002AFF860B9607A602723009395237A68B968F86800F031FE40F2E6333B61002392
S32D00012390FB61FA693B699A4240DA0023BB61214AFB6913441B781A46BB69934232DAFB6901331C4AD35C002B10
S32D000123B806D1FF23FB75FF23BB75FF237B7512E0FB690133154AD35C012B06D10023FB750023BB7500237B7515
S32D000123E005E0D423FB750023BB7526237B757B7DBA7DF97DF86800F06BF80246FB68DA61F86801F037F9F868D7
S32D0001240801F070F8BB690133BB61C4E7FB690233FB61BAE700BF2037BD4680BD5807002080B485B000AF7860D2
S32D000124300B46FB70FB78062B29D801A252F823F0652401005D2401006B240100732401007B24010081240100A2
S32D00012458892401006FF07F43FB6014E00023FB6011E04FF47F03FB600DE04FF47F43FB6009E0FF23FB6006E00F
S32D000124804FF41903FB6002E0044BFB6000BFFB6818461437BD4680BC704700BF9999990080B584B000AF7860AC
S32D000124A839603B681B0CFB733B681B0ABB733B687B737B7BBA7BF97B786800F005F8034618461037BD4680BD13
S32D000124D080B487B000AF7860084611461A460346FB700B46BB7013467B70FB789B08DBB27B61BB789B08DBB290
S32D000124F83B617B789B08DBB2FB607B691A033B699B011A43FB68134318461C37BD4680BC704780B582B000AF87
S32D0001252078600B46FB70FB7819467868FFF77CFF03461946786800F004F800BF0837BD4680BD80B582B000AF0D
S32D000125487860396039687868FFF7A6FF02467B681A62786801F08AF8786800F0DBFB00BF0837BD4680BD80B5C4
S32D0001257082B000AF7860786800F0D0FB00BF0837BD4680BD80B582B000AF78600B46FB70FB7819467868FFF758
S32D0001259847FF03461946786800F004F800BF0837BD4680BD80B582B000AF7860396039687868FFF771FF024666
S32D000125C07B681A62786801F055F800BF0837BD4680BD80B582B000AF78600B46FB70FB7819467868FFF720FFC0
S32D000125E803461946786800F004F800BF0837BD4680BD80B582B000AF7860396039687868FFF74AFF02467B68A0
S32D00012610DA61786801F02EF800BF0837BD4680BD80B586B000AFF860B9607A603B6000237B617B69BA681344CF
S32D000126381B78002B0FD07B69BA6813441B783A687968F86800F00CFE7B680C337B607B6901337B61E9E700BF89
S32D000126601837BD4680BD80B584B000AFF860B9607A603B60B8681EF0DDFB01463B687A68F868FFF7CDFF00BF0B
S32D000126881037BD4680BD000080B594B000AFF860B9607A603B60B86832F0DCF90346BB64B86C31F0A7FF0346DB
S32D000126B01946B86831F0ECFE03461F49184631F0F1FF0346184632F0C9F90346FB644FF00001B86832F084F91F
S32D000126D80346002B02D0FB6C5B42FB644FF00001B86832F079F90346002B0ED01149B86832F090F90346002B4B
S32D0001270007D007F11400FB6CBA6C0D4935F018FE06E007F11400FB6CBA6C0A4935F010FE07F114013B687A6812
S32D00012728F868FFF779FF00BF5037BD4680BD00BF00007A44000080BF2C7D0500387D050080B582B000AF78601C
S32D00012750FDF706F967210120FDF771F800210220FDF76DF8A0210320FDF769F850210420FDF765F82021052040
S32D00012778FDF761F820210620FDF75DF877210720FDF759F800210820FDF755F800210920FDF751F800210A20D5
S32D000127A0FDF74DF804210B20FDF749F87B684FF0FF32DA637B684FF0FF321A6400BF0837BD4680BD00000000AD
S32D000127C880B586B000AFF860B9607A600020FDF754F80346FB75FB7D03F00203002B00F0CE80FDF767F8E02038
S32D000127F0FDF718F80220FEF793FDFDF76DF80120FEF78EFDFDF75AF8A520FDF70BF80120FEF786FDFDF72DF861
S32D0001281803469BB21B02BB82FDF727F803469AB2BB8A1343BB82FDF720F803469BB21B027B82FDF71AF8034616
S32D000128409AB27B8A13437B82BB8A1B09BB827B8A1B097B82FDF740F8FB68DB6BB3F1FF3F34D1FB681B6CB3F1AF
S32D00012868FF3F2FD1BA8AFB68DA637A8AFB681A647B8AC3F57F630F337B82BB8A184631F063FA49A3D3E9002370
S32D0001289031F0C8FA02460B461046194631F0A4FD0246BB681A607B8A184631F051FA42A3D3E9002331F0B6FADD
S32D000128B802460B461046194631F092FD02467B681A605AE0FB68DA6BBB8AD31A1946F86800F074F80346632B48
S32D000128E00CDCFB681A6C7B8AD31A1946F86800F069F80346632B01DC012300E00023002B2FD0BA8AFB68DA630D
S32D000129087A8AFB681A647B8AC3F57F630F337B82BB8A184631F018FA23A3D3E9002331F07DFA02460B461046DB
S32D00012930194631F059FD0246BB681A607B8A184631F006FA1CA3D3E9002331F06BFA02460B461046194631F0A6
