S01100002E2E2F50726F746575732E73313966
S32D0000C000000000205DC2000011C3000017C300001DC3000023C3000029C3000000000000000000000000000073
S32D0000C028000000002FC3000035C30000000000003BC3000041C30000DD420100E9420100F54201000143010035
S32D0000C0500D4301001943010025430100314301003D4301004943010055430100614301006D430100794301007C
S32D0000C07885430100914301009D430100A9430100B5430100C1430100CD430100D9430100E5430100F1430100A4
S32D0000C0A0FD4301000944010015440100214401002D4401003944010045440100514401005D44010069440100C3
S32D0000C0C875440100814401008D44010099440100A5440100B1440100BD440100C9440100D5440100E1440100EA
S32D0000C0F0ED4401000D940100F944010005450100114501001D4501002945010035450100414501004D45010007
S32D0000C1185945010065450100714501007D4501008945010095450100A1450100AD450100B9450100C5450100A7
S32D0000C140D1450100DD450100E9450100F5450100F9700100014601000D460100194601002546010031460100E3
S32D0000C1683D4601004946010055460100614601006D4601007946010085460100914601009D460100A946010065
S32D0000C190B5460100C1460100CD460100ED6C0100B56B0100516C0100614001008D6D0100D9460100E546010047
S32D0000C1B8F1460100009B060000000020C8170000009B06000000FF1F00000000C8170020D81A00000000FF1FB3
S32D0000C1E00000000080B489B000AFF860B9607A60BB68FB61FB68BB6100237B617A697B689A420BD2BA69131DFB
S32D0000C208BB61FB69191DF96112681A607B6904337B61EFE700BF2437BD4680BC704780B485B000AF786039609E
S32D0000C2307B68FB600023BB60BA683B689A4208D2FB681A1DFA6000221A60BB680433BB60F2E700BF1437BD46FE
S32D0000C25880BC704780B586B000AF72B6234B4CF220521A80214B4DF628121A80204B4FF4E9721A801F4B7B615F
S32D0000C2807B691F4A934214D27B691A1D7A611B683B617B691A1D7A611B68FB607B691A1D7A611B68BB60BA68E9
S32D0000C2A8F9683869FFF79AFFE6E77B69134A93420ED27B691A1D7A611B68FB607B691A1D7A611B68BB60B9688B
S32D0000C2D0F868FFF7A8FFECE70B4B7B600B4A7B681A6042F03FFB62B607F082FF00F044F9FEE700BF0E2005404D
S32D0000C2F800200540BCC10000D4C10000E4C1000008ED00E000C0000080B400AFFEE780B400AFFEE780B400AFF4
S32D0000C320FEE780B400AFFEE780B400AFFEE780B400AFFEE780B400AFFEE780B400AFFEE780B400AFFEE780B426
S32D0000C34800AFFEE7FFFFFFFFFFFFFFFFFFFFFFFFFFFFFFFFFFFFFFFFFFFFFFFFFFFFFFFFFFFFFFFFFFFFFFFF57
S32D0000C370FFFFFFFFFFFFFFFFFFFFFFFFFFFFFFFFFFFFFFFFFFFFFFFFFFFFFFFFFFFFFFFFFFFFFFFFFFFFFFFFC7
S32D0000C398FFFFFFFFFFFFFFFFFFFFFFFFFFFFFFFFFFFFFFFFFFFFFFFFFFFFFFFFFFFFFFFFFFFFFFFFFFFFFFFF9F
S32D0000C3C0FFFFFFFFFFFFFFFFFFFFFFFFFFFFFFFFFFFFFFFFFFFFFFFFFFFFFFFFFFFFFFFFFFFFFFFFFFFFFFFF77
S32D0000C3E8FFFFFFFFFFFFFFFFFFFFFFFFFFFFFFFFFFFFFFFFFFFFFFFFFFFFFFFFFFFFFFFFFFFFFFFFFEFFFFFF50
S32D0000C44010B5054C237833B9044B13B10448AFF300800123237010BDC8170020000000007087060008B5034B25
S32D0000C4681BB103490348AFF3008008BD00000000CC170020708706002DE9B0438AB000AFF860B9607A603B6084
S32D0000C490FA687B68D31A18463FF068F902460B46C7E90823BA683B68D31A18463FF05EF902460B46C7E90623E2
S32D0000C4B8D7E90823D7E908013FF0BEF902460B4614461D463B6C03FB03F318463FF04AF902460B46204629468D
S32D0000C4E03FF0D8FA02460B4614461D46D7E90623D7E906013FF0A4F902460B46904699467B6C03FB03F31846D4
S32D0000C5083FF030F902460B46404649463FF0BEFA02460B46204629463EF0D8FF02460B46C7E9042301231C46AF
S32D0000C5304FF00002074BD7E904013FF0FDFB0346002B01D100231C46E3B218462837BD46BDE8B0830000F03F37
S32D0000C55880B582B000AF78607B685C3318462AF0ADFD7B6818460837BD4680BD00000000F0B5ADF6742D04AFD7
S32D0000C58007F52663A3F51B734FF000021A6007F52663A3F51B734FF000025A6007F52663A3F51B734FF0000295
S32D0000C5A89A60E54BC7F8483A002387F8473A012387F8463A032387F8453A002387F8443A022387F8433A042328
S32D0000C5D087F8423A97F8464A97F8442A97F8471A07F5AA60D7F8483A039397F8423A029397F8453A019397F878
S32D0000C5F8433A0093234606F0CDF9022387F8413A97F8411A07F5A963CC4A184608F074F807F2445308211846E0
S32D0000C6200AF024FC07F5A863152118460AF01EFC07F23C53162118460AF018FC07F5A763172118460AF012FC54
S32D0000C648152387F8403A152387F83F3A152387F83E3A97F83E3A97F83F2A97F8401A07F2EC4003F085F807F5BB
S32D0000C6709D630F21184609F0C7FF07F2DC43072118460AF0E7FE07F2DC4340F23A3118460AF0FCFE07F2DC43B3
S32D0000C69840F6860118460AF012FF07F59663184605F0BCF907F52663A3F5177307F5AA621146184601F0BEFB43
S32D0000C6C007F6040207F500631146184601F003FC07F5006207F596631146184605F0C6F907F50063184601F0DB
S32D0000C6E812FC07F60403184601F0BEFB07F52663A3F5157007F2EC4307F2DC4207F5AA6101F023FC07F60C0207
S32D0000C71007F608031146184601F076FC07F6080207F596631146184605F0A0F907F60803184601F0ECFB07F661
S32D0000C7380C03184601F031FC07F52663A3F5137307F5AA621146184601F076FC07F6140207F50163114618465D
S32D0000C76001F0BBFC07F5016207F596631146184605F07CF907F50163184601F0C8FB07F61403184601F076FC49
S32D0000C788002387F85F3A6E4BC7F8583A4FF00003C7F8543A4FF00003C7F8503A07F6180318460DF027F907F694
S32D0000C7B0180207F59263654918462BF011F807F6180318460DF01CF907F59263083B18460FF038F907F63403A2
S32D0000C7D818460DF00FF907F6340207F61C035A4918462AF0F9FF07F61C0207F214408B230093FF23002102F090
S32D0000C800BFFA07F61C0318462AF05CFC07F6340318460DF0F5F807F214431E21184602F0C3FD07F50563184688
S32D0000C8280DF0E8F807F5056207F63803474918462AF0D2FF07F6380207F568708B230093FF23232102F098FA5B
S32D0000C85007F6380318462AF035FC07F5056318460DF0CEF807F568731E21184602F09CFD07F66C0318460DF08E
S32D0000C878C1F807F66C0207F65403354918462AF0ABFF07F6540207F54B708B230093FF23462102F071FA07F64C
S32D0000C8A0540318462AF00EFC07F66C0318460DF0A7F807F54B731E21184602F075FD07F6880318460DF09AF8FB
S32D0000C8C807F6880207F50763224918462AF084FF07F5076207F52E708B230093FF23692102F04AFA07F5076367
S32D0000C8F018462AF0E7FB07F6880318460DF080F807F52E731E21184602F04EFD0123C7F8383A07F5AA63184632
S32D0000C91807F0CAF810480BF022FA0F480BF0F4FD002387F84F3A0D4B1B78002B65D197F84F3A002B61D113E0A7
S32D0000C9400000C040000090409A99193FC4F20500D0F20500D8F20500E4F20500F0F20500C81A0020E51700203D
S32D0000C96807F56873184602F0A5FB07F21443184602F0A0FB07F54B73184602F09BFB07F52E73184602F096FB81
S32D0000C99007F56873184602F0F2FC0346002B05D03C4B02221A70012387F84F3A07F21443184602F0E4FC0346F1
S32D0000C9B8002B05D0354B01221A70012387F84F3A07F54B73184602F0D6FC0346002B05D02E4B03221A70012387
S32D0000C9E087F84F3A07F52E73184602F0C8FC0346002B9CD0274B04221A70012387F84F3A95E707F52663A3F5A9
S32D0000CA081B73196807F52663A3F51B735A6807F52663A3F51B739B6807F5AA6006F064F91B480BF09CF91A4828
S32D0000CA300BF06EFD002387F84E3A97F84E3A002B41F0E98107F5AA63184607F01AF8114B1B78012B22D109F0F4
S32D0000CA58BBFD034618463FF0D7FA0346C7F8DC3907F59663184605F011F807F59663184605F082F80346002BAD
S32D0000CA80DBD0012387F84E3A07F5AA63184606F083FAD2E7E5170020C81A0020E04B1B78032B40F0C883DF4B70
S32D0000CAA8C7F8F43907F6A40318460CF0A3FF07F6A40207F68C03DA4918462AF08DFE07F68C0338464FF4C84228
S32D0000CAD001924FF47F0200924FF00002D34902F005FA07F68C0318462AF0ECFA07F6A40318460CF085FF3B4614
S32D0000CAF81E21184602F054FC3B46184602F0DAFA07F50C6318460CF075FF07F50C6207F6A803C54918462AF0BB
S32D0000CB205FFE07F6A80307F174004FF4C84201924FF400420092BF4ABC4902F0D7F907F6A80318462AF0BEFAD7
S32D0000CB4807F50C6318460CF057FF07F174031E21184602F025FC07F17403184602F0AAFA07F6DC0318460CF0EC
S32D0000CB7045FF07F6DC0207F6C403AF4918462AF02FFE07F6C40307F1E8004FF4C84201924FF6FF720092A94A58
S32D0000CB98A44902F0A7F907F6C40318462AF08EFA07F6DC0318460CF027FF07F1E8031E21184602F0F5FB07F176
S32D0000CBC0E803184602F07AFA9849D7F8F4093FF06FF903461C4607F6F80318460CF00EFF07F6F80207F50E63E6
S32D0000CBE8954918462AF0F8FD07F50E6307F5AE704FF40B0201924FF47F0200924FF00002214602F06FF907F516
S32D0000CC100E6318462AF056FA07F6F80318460CF0EFFE07F5AE731E21184602F0BDFB07F5AE73184602F042FA71
S32D0000CC387C49D7F8F4093FF037F903461C4607F6141318460CF0D6FE07F6141207F6FC037A4918462AF0C0FDCA
S32D0000CC6007F6FC0307F5E8704FF40B0201924FF4004200926F4A214602F038F907F6FC0318462AF01FFA07F68F
S32D0000CC88141318460CF0B8FE07F5E8731E21184602F086FB07F5E873184602F00BFA6149D7F8F4093FF000F996
S32D0000CCB003461C4607F5136318460CF09FFE07F5136207F61813604918462AF089FD07F6181307F511704FF41A
S32D0000CCD80B0201924FF6FF720092564A214602F001F907F6181318462AF0E8F907F5136318460CF081FE07F58B
S32D0000CD0011731E21184602F04FFB07F51173184602F0D4F93B46184602F031FB0346002B11D0D7F8580A3EF05A
S32D0000CD2833FD39A3D3E900233EF0D0FB02460B46104619463FF062F80346C7F8583A07F5AE73184602F017FB09
S32D0000CD500346002B11D0D7F8580A3EF019FD2CA3D3E900233EF0B4FB02460B46104619463FF048F80346C7F89B
S32D0000CD78583A07F17403184602F0FDFA0346002B11D0D7F8540A3EF0FFFC21A3D3E900233EF09CFB02460B4699
S32D0000CDA0104619463FF02EF80346C7F8543A07F5E873184602F0E3FA0346002B11D0D7F8540A3EF0E5FC14A3F9
S32D0000CDC8D3E900233EF080FB02460B46104619463FF014F80346C7F8543A07F1E803184602F0C9FA0346002B2C
S32D0000CDF033D0D7F8500A3EF0CBFC07A3D3E900233EF068FB02460B4620E000BFAFF300809A9999999999B93FD1
S32D0000CE18FCA9F1D24D62503FE517002000005C4300F305000000704108F3050000000C4210F3050000008C42BE
S32D0000CE4018F3050020F3050028F30500104619463EF0D8FF0346C7F8503A07F51173184602F08DFA0346002B65
S32D0000CE6811D0D7F8500A3EF08FFCCDA3D3E900233EF02AFB02460B46104619463EF0BEFF0346C7F8503A07F570
S32D0000CE90AA60D7F8503A0093D7F8543AD7F8582A012106F0BDFD07F5AA60D7F8503A0093D7F8543AD7F8582A5E
S32D0000CEB8022106F0B1FD07F5AA60D7F8503A0093D7F8543AD7F8582A032106F0A5FDB4236422B549B5480AF0D7
S32D0000CEE09BFFB4237822D7F8581AB2480AF0CCFFC8236422B049AF480AF08EFFC8237822D7F8541AAB480AF082
S32D0000CF08BFFFDC236422AB49A8480AF081FFDC237822D7F8501AA5480AF0B2FF64230022A549A2480AF074FF02
S32D0000CF3007F5AA63184606F0D2FD0146642328229C480AF0A1FF782300229E4999480AF063FF07F5AA631846C9
S32D0000CF5806F083F801467823282294480AF090FF8C230022964991480AF052FF07F5AA63184606F0BFFD014675
S32D0000CF808C2328228B480AF07FFF904BC7F8F0398F4BC7F8EC39D7F8EC093FF06DFA04468C49D7F8F0093EF04F
S32D0000CFA883FF034618463FF063FA0346224688497E480AF02DFF07F52663A3F51B731C68D7F8EC093FF054FAC8
S32D0000CFD005468249D7F8F0093EF06AFF034618463FF04AFA03462A46214672480AF04CFFD7F8EC093FF040FA58
S32D0000CFF804467949D7F8F0093EF056FF034618463FF036FA03462246744968480AF000FF07F52663A3F51B73EC
S32D0000D0205C68D7F8EC093FF027FA05466E49D7F8F0093EF03DFF034618463FF01DFA03462A4621465B480AF02C
S32D0000D0481FFF684BC7F8E839634BC7F8E43907F5AA630121184606F093FC3223C7F8E039FF2152480AF0C1FED1
S32D0000D070D7F8E0093EF0CCFF0446D7F8E0093EF0C7FF034600932346D7F8E429D7F8E81948480BF0EBFC07F58C
S32D0000D098956207F2AC43194644480AF0ADFF0346002B00F0A18007F52663A3F2B4531B6818463FF0DDF9044624
S32D0000D0C007F52663A3F5B7631B6818463FF0D4F90546D7F8E8093FF0CFF90646D7F8E4093FF0CAF90146D7F81C
S32D0000D0E8E039D7F8E029019200930B46324629462046FFF7C1F90346002B7AD007F52663A3F2B4531B68D7F884
S32D0000D110E81918463EF0CAFE03461C46D7F8E0093EF076FF0346194620463FF07DF8034683F0004207F5266361
S32D0000D138A3F51B731A6007F52663A3F5B7631B68D7F8E41918463EF0ADFE03461C46D7F8E0093EF059FF03463A
S32D0000D160194620463FF060F803461A4607F52663A3F51B735A6007F52663A3F51B73196807F52663A3F51B7370
S32D0000D1885A6807F52663A3F51B739B6807F5AA6005F0AAFD07F5AA63184605F0BDFD28E0FCA9F1D24D62503FA3
S32D0000D1B030F30500C81A002034F3050038F305003CF3050044F305004CF3050000001643000034430000B44251
S32D0000D1D854F305000000D2420000F04260F30500000007430000204307F5AA63184605F093FD07F511731846C8
S32D0000D200FFF7AAF907F5E8731846FFF7A5F907F5AE731846FFF7A0F907F1E8031846FFF79BF907F1740318467C
S32D0000D228FFF796F93B461846FFF792F901E4CD4B1B78042B40F01E8307F5AA63184605F08BFF4FF00003C7F87C
S32D0000D250183AC74BC7F8143AC64BC7F8103A4FF00001D7F8180A3EF023FE034618463FF003F903460022C0495F
S32D0000D278C0480AF0CDFD07F5AA63184605F0FCFE03461C68BC49D7F8180A3EF00DFE034618463FF0EDF8034666
S32D0000D2A000222146B5480AF0EFFDB149D7F8180A3EF0FEFD034618463FF0DEF803460022B049AE480AF0A8FD3B
S32D0000D2C807F5AA63184605F0D7FE034604331C68AB49D7F8180A3EF0E7FD034618463FF0C7F8034600222146A5
S32D0000D2F0A2480AF0C9FDA549D7F8180A3EF0D8FD034618463FF0B8F803460022A0499B480AF082FD07F5AA6345
S32D0000D318184605F0B1FE034608331C689B49D7F8180A3EF0C1FD034618463FF0A1F80346002221468F480AF00A
S32D0000D340A3FD9549D7F8180A3EF0B2FD034618463FF092F803460022904988480AF05CFD07F59D63184609F059
S32D0000D3682BFA03461C468C49D7F8180A3EF09CFD034618463FF07CF80346002221467D480AF0DAFD854BC7F8F9
S32D0000D3900C3A854BC7F8083A844BC7F8043A7E49D7F8140A3EF084FD034618463FF064F8034600227E4971480C
S32D0000D3B80AF02EFD07F5A863184609F065FD0346D7F80C1A18463EF06FFD03461C467249D7F8140A3EF068FD46
S32D0000D3E0034618463FF048F803460022214663480AF04AFD6F49D7F8140A3EF059FD034618463FF039F80346D2
S32D0000D40800226B495B480AF003FD07F23C53184609F03AFD0346D7F8081A18463EF044FD03461C466349D7F840
S32D0000D430140A3EF03DFD034618463FF01DF80346002221464D480AF01FFD5D49D7F8140A3EF02EFD034618464D
S32D0000D4583FF00EF803460022584946480AF0D8FC07F5A763184609F00FFD0346D7F8041A18463EF019FD03467F
S32D0000D4801C465149D7F8140A3EF012FD034618463EF0F2FF03460022214638480AF0F4FC07F64C1318460CF0A0
S32D0000D4A8A9FA07F64C1207F63413464918462AF093F907F6341207F1E8004FF4C84300934FF40043002101F0E5
S32D0000D4D057FC07F63413184629F0F4FD07F64C1318460CF08DFA07F1E8031E21184601F05BFF07F66813184651
S32D0000D4F80CF080FA07F6681207F51563324918462AF06AF907F5156207F5AE704FF40B0300934FF47F031E21DA
S32D0000D52001F02EFC07F51563184629F0CBFD07F6681318460CF064FA07F5AE731E21184601F032FF07F684136F
S32D0000D54818460CF057FA07F6841207F66C131F4918462AF041F907F66C1207F5E8708B2336E000BFE517002073
S32D0000D5700000F0410000BE4268F30500C81A00200000704170F30500000034420000704278F305000000964271
S32D0000D5980000B44284F305000000D242E8B401BDE742523DFD1BA1BC94F30500000002439CF30500000011439F
S32D0000D5C000002043A4F3050000002F43ACF30500B8F30500C4F305000093FF23B42101F0CFFB07F66C1318469D
S32D0000D5E829F06CFD07F6841318460CF005FA07F5E8731E21184601F0D3FE07F51A6318460CF0F8F907F51A62B4
S32D0000D61007F68813924918462AF0E2F807F6881207F511708B230093FF23D22101F0A8FB07F68813184629F01A
S32D0000D63845FD07F51A6318460CF0DEF907F511731E21184601F0ACFE07F5AE73184601F031FD07F1E803184645
S32D0000D66001F02CFD07F5E873184601F027FD07F51173184601F022FD07F5E873184601F073FE0346002B06D069
S32D0000D68807F2DC434FF00001184609F035FF07F51173184601F064FE0346002B05D007F2DC436E49184609F0F1
S32D0000D6B027FF07F1E803184601F056FE0346002B06D007F5A9636849184607F099F813E007F5AE73184601F058
S32D0000D6D847FE0346002B06D007F5A9636149184607F08AF804E007F5A963184607F042F85D4BC7F8003A5D4B48
S32D0000D700C7F8FC3907F5AA630121184606F03CF93223C7F8F839FF2157480AF06AFBD7F8F8093EF075FC044637
S32D0000D728D7F8F8093EF070FC034600932346D7F8FC29D7F8001A4E480BF094F907F5956207F2AC4319464A485D
S32D0000D7500AF056FC0346002B66D007F52663A3F2B4531B6818463EF087FE044607F52663A3F5B7631B6818469E
S32D0000D7783EF07EFE0546D7F8000A3EF079FE0646D7F8FC093EF074FE0146D7F8F839D7F8F829019200930B46A2
S32D0000D7A0324629462046FEF76BFE0346002B40D007F52663A3F2B4531B68D7F8001A18463EF074FB03461C46F9
S32D0000D7C8D7F8F8093EF020FC0346194620463EF027FD034683F00043194618463EF064FB03461A4607F5266342
S32D0000D7F0A3F51B731A6007F52663A3F51B73196807F52663A3F51B735A6807F52663A3F51B739B6807F5AA601E
S32D0000D81805F06AFA07F5AA63184605F07DFA04E007F5AA63184605F0B3FB07F511731846FEF78EFE07F5E87312
S32D0000D8401846FEF789FE07F5AE731846FEF784FE07F1E8031846FEF77FFEFFF7EEB800BFD0F3050000003443A1
S32D0000D8680000A0420000A0C2000020430000F042C81A00204FF00003C7F8343AC84BC7F8303A4FF00001D7F8FD
S32D0000D890340A3EF00DFB034618463EF0EDFD03460022C249C2480AF0B7FA07F5AA63184605F0BCFB0446BF49A7
S32D0000D8B8D7F8340A3EF0F8FA034618463EF0D8FD034600222146B8480AF0DAFAB849D7F8340A3EF0E9FA034663
S32D0000D8E018463EF0C9FD03460022B449B0480AF093FA07F5AA63184605F0A5FB0446B049D7F8340A3EF0D4FA99
S32D0000D908034618463EF0B4FD034600222146A6480AF0B6FAA949D7F8340A3EF0C5FA034618463EF0A5FD034655
S32D0000D9300022A5499E480AF06FFA07F5AA63184605F08FFB0446A149D7F8340A3EF0B0FA034618463EF090FD0F
S32D0000D95803460022214694480AF092FA4FF00001D7F8300A3EF0A0FA034618463EF080FD0346002294498C48EE
S32D0000D9800AF04AFA07F5AA63184605F025FB04468849D7F8300A3EF08BFA034618463EF06BFD034600222146D9
S32D0000D9A881480AF06DFA8249D7F8300A3EF07CFA034618463EF05CFD0346002283497A480AF026FA07F5AA6365
S32D0000D9D0184605F00EFB04467949D7F8300A3EF067FA034618463EF047FD0346002221466F480AF049FA73498E
S32D0000D9F8D7F8300A3EF058FA034618463EF038FD03460022724968480AF002FA07F5AA63184605F0F8FA04460A
S32D0000DA206A49D7F8300A3EF043FA034618463EF023FD0346002221465D480AF025FA6749D7F8300A3EF034FA17
S32D0000DA48034618463EF014FD03460022624956480AF0DEF907F24453184609F015FA04465E49D7F8300A3EF027
S32D0000DA701FFA034618463EF0FFFC0346002221464B480AF001FA4F4BC7F82C3A564BC7F8283AD7F8280A3EF095
S32D0000DA98EFFC04464F49D7F82C0A3EF005FA034618463EF0E5FC034622464E493E480AF0AFF907F52663A3F51E
S32D0000DAC01B731C68D7F8280A3EF0D6FC05464549D7F82C0A3EF0ECF9034618463EF0CCFC03462A4621463248FD
S32D0000DAE80AF0CEF9D7F8280A3EF0C2FC04463E49D7F82C0A3EF0D8F9034618463EF0B8FC034622463949284861
S32D0000DB100AF082F907F52663A3F51B735C68D7F8280A3EF0A9FC05463349D7F82C0A3EF0BFF9034618463EF0A8
S32D0000DB389FFC03462A4621461B480AF0A1F907F6BC1318460BF056FF07F6BC1207F6A4132849184629F040FEEE
S32D0000DB6007F6A41307F5E8708B2201924FF400420092144A224901F0B9F907F6A413184629F0A0FA07F6BC133B
S32D0000DB8818460BF039FF07F5E8731E21184601F007FC07F6D81318460BF02CFF2EE000BF0000BE42DCF30500E9
S32D0000DBB0C81A0020000070410000F041E8F305000000344200007042F8F305000000964208F4050014F4050085
S32D0000DBD824F405000000B44234F405000000D2420000344354F305000000F04260F305000000074340F40500FB
S32D0000DC0000007A4307F6D81207F51C638449184629F0E6FD07F51C6307F511708B2201924FF6FF7200927F4A67
S32D0000DC287F4901F05FF907F51C63184629F046FA07F6D81318460BF0DFFE07F511731E21184601F0ADFB07F5BB
S32D0000DC50E873184601F032FA07F51173184601F02DFA07F51173184601F07EFB0346002B02D0002387F85F3A11
S32D0000DC7807F5E873184601F073FB0346002B05D0012387F85F3A67480AF069F897F85F2A07F5AA631146184605
S32D0000DCA005F072FE624BC7F8243A624BC7F8203A3223C7F81C3AFF215C480AF09AF8D7F81C0A3EF0A5F904469C
S32D0000DCC8D7F81C0A3EF0A0F9034600932346D7F8202AD7F8241A53480AF0C4FE07F5956207F2AC4319464F48DF
S32D0000DCF00AF086F90346002B7CD007F52663A3F2B4531B6818463EF0B7FB044607F52663A3F5B7631B68184689
S32D0000DD183EF0AEFB0546D7F8240A3EF0A9FB0646D7F8200A3EF0A4FB0146D7F81C3AD7F81C2A019200930B46E2
S32D0000DD40324629462046FEF79BFB0346002B56D007F52663A3F2B4531B68D7F8241A18463EF0A4F803461C46BF
S32D0000DD68D7F81C0A3EF050F90346194620463EF057FA034683F0004207F52663A3F51B731A6007F52663A3F554
S32D0000DD90B7631B68D7F8201A18463EF087F803461C46D7F81C0A3EF033F90346194620463EF03AFA03461A46A1
S32D0000DDB807F52663A3F51B735A6007F52663A3F51B73196807F52663A3F51B735A6807F52663A3F51B739B6891
S32D0000DDE007F5AA6004F084FF07F5AA63184604F097FF04E007F5AA63184605F0CDF807F511731846FEF7A8FB2C
S32D0000DE0807F5E8731846FEF7A3FBFEF712BE084B00221A70FEF77EBD44F405000000BE4200007A43C81A0020B4
S32D0000DE30000020430000F042E5170020B0B582B000AF78603960386800F063F9054644200BF004FD03461C461A
S32D0000DE582946204602F0DAFB2146786800F06FF978680837BD46B0BD90B585B000AF78607B68184600F072F935
S32D0000DE80F860FB681B68002B0CD0786800F077F90446F86800F080F903461B681946204600F084F9FB68002259
S32D0000DEA81A607B6818461437BD4690BD80B584B000AFF860B9607A60FB68B9687A68184600F098F9FB6818468D
S32D0000DED01037BD4680BDB0B582B000AF786039607C68386800F073F90546386800F047F90346184600F078F9E3
S32D0000DEF803461A4629462046FFF7D8FF7B6818460837BD46B0BD90B585B000AF78607B68184600F085F9F860B9
S32D0000DF20FB681B68002B0CD0786800F08AF90446F86800F093F903461B681946204600F097F9FB6800221A605D
S32D0000DF487B6818461437BD4690BD2DE9F04184B000AFF860B9607A603B60B86800F0D5F80546786800F091F93D
S32D0000DF700646386800F097F980464C200BF06EFC03461C46434632462946204603F064F82146F86800F0A1F95F
S32D0000DF98F8681037BD46BDE8F08190B585B000AF78607B68184600F0A3F9F860FB681B68002B0CD0786800F0B8
S32D0000DFC0A8F90446F86800F0B1F903461B681946204600F0B5F9FB6800221A607B6818461437BD4690BD80B50F
S32D0000DFE884B000AFF860B9607A60FB68B9687A68184600F0C9F9FB6818461037BD4680BDB0B582B000AF786001
S32D0000E01039607C68386800F0A4F90546386800F078F90346184600F0A9F903461A4629462046FFF7D8FF7B6885
S32D0000E03818460837BD46B0BDB0B582B000AF78603960386800F061F8054644200BF002FC03461C4629462046E5
S32D0000E06001F022FD2146786800F0B8F978680837BD46B0BD90B585B000AF78607B68184600F0BBF9F860FB686A
S32D0000E0881B68002B0CD0786800F0C0F90446F86800F0C9F903461B681946204600F0CDF9FB6800221A607B68D2
S32D0000E0B018461437BD4690BD80B584B000AFF860B9607A60FB68B9687A68184600F0E1F9FB6818461037BD464D
S32D0000E0D880BDB0B582B000AF786039607C68386800F0BCF90546386800F090F90346184600F0C1F903461A469F
S32D0000E10029462046FFF7D8FF7B6818460837BD46B0BD80B483B000AF78607B6818460C37BD4680BC704780B5C2
S32D0000E12882B000AF786039607B683A681146184600F0C1F97B6818460837BD4680BD80B582B000AF786039604C
S32D0000E1507B6839681846FFF7E6FF7B6818460837BD4680BD80B582B000AF78607B68184600F0B9F903461846AC
S32D0000E1780837BD4680BD80B582B000AF78607B68184600F0B9F9034618460837BD4680BD80B483B000AF786015
S32D0000E1A07B6818460C37BD4680BC704780B582B000AF786039603B68002B04D01A68183212681846904700BF74
S32D0000E1C80837BD4680BD80B582B000AF78607B68184600F09EF9034618460837BD4680BD80B483B000AF7860E0
S32D0000E1F07B6818460C37BD4680BC704790B585B000AFF860B9607A60FC687868FFF7ECFF024607F10803194644
S32D0000E218204600F093F9FB6818461437BD4690BD80B582B000AF78607B68184600F09FF9034618460837BD46FA
S32D0000E24080BD80B582B000AF78607B68184600F09FF9034618460837BD4680BD80B483B000AF78607B68184667
S32D0000E2680C37BD4680BC704780B582B000AF786039603B68002B04D01A68183212681846904700BF0837BD46AA
S32D0000E29080BD80B483B000AF78607B6818460C37BD4680BC704780B483B000AF78607B6818460C37BD4680BC0A
S32D0000E2B8704780B582B000AF786039607B683A681146184600F07AF97B6818460837BD4680BD80B582B000AF87
S32D0000E2E0786039607B6839681846FFF7E6FF7B6818460837BD4680BD80B582B000AF78607B68184600F072F998
S32D0000E308034618460837BD4680BD80B582B000AF78607B68184600F072F9034618460837BD4680BD80B483B0AA
S32D0000E33000AF78607B6818460C37BD4680BC704780B582B000AF786039603B68002B04D01A68183212681846F1
S32D0000E358904700BF0837BD4680BD80B582B000AF78607B68184600F057F9034618460837BD4680BD80B483B086
S32D0000E38000AF78607B6818460C37BD4680BC704790B585B000AFF860B9607A60FC687868FFF7ECFF024607F195
S32D0000E3A808031946204600F04CF9FB6818461437BD4690BD80B582B000AF786039607B683A681146184600F035
S32D0000E3D055F97B6818460837BD4680BD80B582B000AF786039607B6839681846FFF7E6FF7B6818460837BD464A
S32D0000E3F880BD80B582B000AF78607B68184600F04DF9034618460837BD4680BD80B582B000AF78607B68184600
S32D0000E42000F04DF9034618460837BD4680BD80B483B000AF78607B6818460C37BD4680BC704780B582B000AFF4
S32D0000E448786039603B68002B04D01A68183212681846904700BF0837BD4680BD80B582B000AF78607B681846AB
S32D0000E47000F032F9034618460837BD4680BD80B483B000AF78607B6818460C37BD4680BC704790B585B000AFAC
S32D0000E498F860B9607A60FC687868FFF7ECFF024607F108031946204600F027F9FB6818461437BD4690BD80B535
S32D0000E4C082B000AF786039607B68184600F032F97868FFF747FE02463B6813607B6818460837BD4680BD80B512
S32D0000E4E882B000AF78607B68184600F039F9034618460837BD4680BD80B582B000AF78607B68184600F038F974
S32D0000E510034618460837BD4680BD80B584B000AF78607868FFF71EFE03461B68FB607868FFF718FE0346002257
S32D0000E5381A60FB6818461037BD4680BDB0B584B000AFF860B9607A60FC68B86800F020F905467868FFF744FE70
S32D0000E56003461A462946204600F020F9FB6818461037BD46B0BD80B582B000AF78607B68184600F02FF90346FE
S32D0000E58818460837BD4680BD80B582B000AF78607B68184600F02EF9034618460837BD4680BD80B582B000AF06
S32D0000E5B078607B68184600F02DF9034618460837BD4680BD80B582B000AF786039607B68184600F035F9786822
S32D0000E5D8FFF78EFE02463B6813607B6818460837BD4680BD80B582B000AF78607B68184600F03CF9034618467A
S32D0000E6000837BD4680BD80B582B000AF78607B68184600F03BF9034618460837BD4680BD80B584B000AF786004
S32D0000E6287868FFF765FE03461B68FB607868FFF75FFE034600221A60FB6818461037BD4680BDB0B584B000AFBC
S32D0000E650F860B9607A60FC68B86800F09DF805467868FFF78BFE03461A462946204600F019F9FB681846103716
S32D0000E678BD46B0BD80B582B000AF786039607B68184600F027F97868FFF7B3FE02463B6813607B6818460837C7
S32D0000E6A0BD4680BD80B582B000AF78607B68184600F02EF9034618460837BD4680BD80B582B000AF78607B68CF
S32D0000E6C8184600F02DF9034618460837BD4680BD80B584B000AF78607868FFF78AFE03461B68FB607868FFF73F
S32D0000E6F084FE034600221A60FB6818461037BD4680BDB0B584B000AFF860B9607A60FC68B86800F041F80546C2
S32D0000E7187868FFF7B0FE03461A462946204600F00BF9FB6818461037BD46B0BD80B582B000AF78607B68184636
S32D0000E74000F01AF97B6818460837BD4680BD80B582B000AF78607B68184600F01DF9034618460837BD4680BD8D
S32D0000E76880B582B000AF78607868FFF7ECFF034618460837BD4680BD80B582B000AF7860786800F01BF9034693
S32D0000E79018460837BD4680BD80B483B000AF78607B6818460C37BD4680BC704790B585B000AFF860B9607A60A2
S32D0000E7B87868FFF715FD03461946F86800F00AF9FC68B868FFF7E4FF03461946204600F013F9FB6818461437DD
S32D0000E7E0BD4690BD80B582B000AF78607868FFF7DCFE034618460837BD4680BD80B582B000AF7860786800F039
S32D0000E8080CF9034618460837BD4680BD80B483B000AF78607B6818460C37BD4680BC704780B582B000AF786061
S32D0000E830786800F002F9034618460837BD4680BD80B582B000AF78607B68184600F0FFF87B6818460837BD4630
S32D0000E85880BD80B582B000AF78607B68184600F002F9034618460837BD4680BD80B582B000AF78607868FFF751
S32D0000E880ECFF034618460837BD4680BD80B582B000AF7860786800F000F9034618460837BD4680BD90B585B002
S32D0000E8A800AFF860B9607A607868FFF763FD03461946F86800F0F9F8FC68B868FFF768FF03461946204600F04A
S32D0000E8D097F8FB6818461437BD4690BD80B582B000AF78607B68184600F0F5F87B6818460837BD4680BD80B52E
S32D0000E8F882B000AF78607B68184600F0F8F8034618460837BD4680BD80B582B000AF78607868FFF7ECFF0346FA
S32D0000E92018460837BD4680BD80B582B000AF7860786800F0F6F8034618460837BD4680BD90B585B000AFF86099
S32D0000E948B9607A607868FFF796FD03461946F86800F0EFF8FC68B868FFF71AFF03461946204600F049F8FB6831
S32D0000E97018461437BD4690BD80B582B000AF7860786800F0ECF87B68184600F0F4F87B6818460837BD4680BD01
S32D0000E99880B483B000AF78607B6818460C37BD4680BC704780B582B000AF7860786800F0EBF803461846083762
S32D0000E9C0BD4680BD80B582B000AF78607868FFF7EDFF034618460837BD4680BD80B582B000AF786039603868EC
S32D0000E9E8FFF7FEFB03461946786800F0D7F87B6818460837BD4680BD80B582B000AF786039603868FFF7C4FE2C
S32D0000EA1003461A687B681A607B6818460837BD4680BD80B582B000AF78607868FFF7FCFE034618460837BD4649
S32D0000EA3880BD80B483B000AF78607B6818460C37BD4680BC704780B582B000AF7860786800F0B6F87B6818465E
S32D0000EA6000F0BEF87B6818460837BD4680BD80B483B000AF78607B6818460C37BD4680BC704780B582B000AFA4
S32D0000EA887860786800F0B5F8034618460837BD4680BD80B582B000AF78607868FFF7EDFF034618460837BD464C
S32D0000EAB080BD80B582B000AF786039603868FFF75DFC03461946786800F0A1F87B6818460837BD4680BD80B57F
S32D0000EAD882B000AF7860786800F0A7F87B68184600F0AFF87B6818460837BD4680BD80B483B000AF78607B687F
S32D0000EB0018460C37BD4680BC704780B582B000AF7860786800F0A6F8034618460837BD4680BD80B582B000AFB8
S32D0000EB2878607868FFF7EDFF034618460837BD4680BD80B582B000AF786039603868FFF79AFC034619467868C4
S32D0000EB5000F092F87B6818460837BD4680BD80B582B000AF7860786800F098F87B6818460837BD4680BD80B41B
S32D0000EB7883B000AF78607B6800221A607B6818460C37BD4680BC704780B483B000AF78607B6818460C37BD4647
S32D0000EBA080BC704780B582B000AF786039603868FFF71AFB03461946786800F079F87B6818460837BD4680BD79
S32D0000EBC880B582B000AF7860786800F078F87B6818460837BD4680BD80B483B000AF78607B6800221A607B68E1
S32D0000EBF018460C37BD4680BC704780B483B000AF78607B6818460C37BD4680BC704780B582B000AF7860396071
S32D0000EC183868FFF7AFFB03461946786800F059F87B6818460837BD4680BD80B582B000AF7860786800F058F8F7
S32D0000EC407B6818460837BD4680BD80B483B000AF78607B6800221A607B6818460C37BD4680BC704780B483B098
S32D0000EC6800AF78607B6818460C37BD4680BC704780B582B000AF786039603868FFF7FBFB03461946786800F0F2
S32D0000EC9039F87B6818460837BD4680BD80B483B000AF78607B6818460C37BD4680BC704780B483B000AF78600F
S32D0000ECB839607B6818460C37BD4680BC704780B483B000AF78607B6818460C37BD4680BC704780B483B000AF9D
S32D0000ECE0786039607B6818460C37BD4680BC704780B483B000AF78607B6818460C37BD4680BC704780B483B04C
S32D0000ED0800AF786039607B6818460C37BD4680BC7047000080B582B000AF786039607B68012B0CD13B684FF6E8
S32D0000ED30FF72934207D106480BF03EF8054A064903480AF005FD00BF0837BD4680BD00BFE417002000000020FB
S32D0000ED58D99D010080B500AF4FF6FF710120FFF7D9FF80BD80B400AF024B1846BD4680BC704700BFFFFF7F7F12
S32D0000ED802DE9B04384B000AFF860B9607A603B60FB684FF4A0721A60FB68F0225A60FB686FF07F429A60FB6852
S32D0000EDA84C4ADA60FB684C4A1A61FB6800225A61FB684A4A9A62FB68002283F82D20FB685C33184628F048F9D0
S32D0000EDD0FB681B6818463CF0B9FC4FF000024FF080433CF057FE02460B4614461D46786828F0BCF90346184682
S32D0000EDF83CF0A8FC4FF000024FF080433CF046FE02460B4690469946354808F0F1FB034618463CF0A7FC0246FD
S32D0000EE200B46404649463CF00BFD02460B46204629463CF04DFB02460B46104619463CF0E1FF0246FB685A6386
S32D0000EE48B8683DF0E5F80246FB689A63786828F089F90446224808F0CBFB034604FB03F318463DF0D1F8024604
S32D0000EE70FB685A651C4808F0C9FB034618463DF0CBF80246FB689A65FB685C337968184628F024F9FB68002206
S32D0000EE981A76FB6801225A76FB68002283F82C20FB68002283F82D203A68FB68DA61BA6AFB681A62FB681B69A3
S32D0000EEC01A46FB685A62FB68DA69FB681A63FB6818461037BD46BDE8B08300BF6666660021212100E22B8A0051
S32D0000EEE8C81A002090B585B000AFF860B9607A603B60FB684FF4A0721A60FB68F0225A60FB686FF07F429A600D
S32D0000EF10FB682E4ADA60FB682D4A1A61FB6800225A61FB682B4A9A62FB68002283F82D20FB685C33184628F0A0
S32D0000EF3893F8FB68BA685A63FB687A689A63386828F010F90446224808F052FB034604FB03F318463DF058F8C9
S32D0000EF600246FB685A651C4808F050FB034618463DF052F80246FB689A65FB685C333968184628F0ABF8FB689B
S32D0000EF8800221A76FB6801225A76FB68002283F82C20FB68002283F82D203A6AFB68DA617A6AFB681A62FB6852
S32D0000EFB01B691A46FB685A62FB68DA69FB681A63FB6818461437BD4690BD00BF6666660021212100E22B8A0063
S32D0000EFD8C81A0020F0B58BB002AF78607B681B6B1946334808F001FF7B685C6B304808F0FFFA034618463DF07E
S32D0000F0000BF80346194620463CF050FF034618463DF032FA05467B689B6B18463DF02CFA06467B685C6D24480D
S32D0000F02808F0E6FA03465B0018463CF0F1FF0346194620463CF038FF034618463DF018FA04467B689B6D1846DA
S32D0000F0503DF012FA03460093234632462946164809F0A1FB7B6803F15C0207F108031146184628F06FFB7B68E8
S32D0000F0785B6B18463DF0FCF904467B689B6B4FF0814118463CF010FF034618463DF0F0F9034607F108012246E8
S32D0000F0A0054808F0DCFE07F10803184628F00AF800BF2437BD46F0BDC81A0020B0B584B000AF78607B685B7E00
S32D0000F0C8002B00F046810023FB730023BB737B6803F13C017B6840331A46924808F08CFF7B68DC6B7B685D6B5A
S32D0000F0F08E4808F081FA034618463CF08DFF0346194628463CF0D2FE0346194620463DF089F90346002B44D0F3
S32D0000F1187B68DC6B7B685A6B7B685B6D194610463CF0C2FE03461D467E4808F061FA034618463CF06DFF03465E
S32D0000F140194628463CF0B4FE03464FF07E5118463CF0ACFE0346194620463DF059F90346002B1ED07B681A6C13
S32D0000F1687B689B6B194610463DF058F90346002B13D07B681C6C7B689A6B7B689B6D194610463CF091FE03460F
S32D0000F190194620463DF03CF90346002B01D0012200E000227B6883F82C207B6803F13C017B6840331A465D48A7
S32D0000F1B808F022FF034683F00103DBB2002B6ED17B6803F144017B6848331A46554808F013FF0346002B62D032
S32D0000F1E07B68DC6B7B685D6B504808F00FFA034618463CF011FF0346194628463CF056FE0346194620463DF0DF
S32D0000F2080DF90346002B27D07B68DC6B7B685A6B7B685B6D194610463CF046FE03461D46404808F0E5F9034672
S32D0000F23018463CF0F1FE0346194628463CF038FE03464FF07E5118463CF030FE0346194620463DF0DDF8034657
S32D0000F258002B01D0012300E00023FB737B681A6C7B689B6B194610463DF0D8F80346002B13D07B681C6C7B684E
S32D0000F2809A6B7B689B6D194610463CF011FE0346194620463DF0BCF80346002B01D0012300E00023BB73FB7B81
S32D0000F2A8002B19D0BB7B002B16D07B685B69002B03D17B6801225A6106E07B685B69012B02D17B6802225A6128
S32D0000F2D07B681A6A7B681A637B6801221A763CE07B685B69022B03D17B6803225A6106E07B685B69032B02D19E
S32D0000F2F87B6800225A617B6893F82C30002B13D07B689A6A7B681A637B6893F82D3083F00103DBB2002B0FD030
S32D0000F3207B68012283F82D200AE000BFC81A00207B68DA697B681A637B68002283F82D207B6800221A76FFF768
S32D0000F34811FD02467B68DA63FFF70CFD02467B681A647868FFF73EFE00BF1037BD46B0BD80B483B000AF786003
S32D0000F3707B681B7E18460C37BD4680BC704780B485B000AF78600023FB737B685B69012B04D17B6802225A6171
S32D0000F3980123FB73FB7B18461437BD4680BC704780B582B000AF7860396038683CF030FE02467B689A6500BF36
S32D0000F3C00837BD4680BD80B584B000AFF860B9607A60B968F8683DF01BF80346002B01D0BB6809E07968F868EA
S32D0000F3E83DF01CF80346002B01D07B6800E0FB6818461037BD4680BD80B584B000AFF860C7E90023D7E906233A
S32D0000F410D7E900013CF05CF802460B46F968C1E90023FB68D3E90023F968C1E90223F9684FF000024FF0000370
S32D0000F438C1E90423FB684FF00002DA62FB680A4A1A62FB68094A5A62FB68074A9A62F9684FF000024FF00003BC
S32D0000F460C1E90C23FB6818461037BD4680BD00BFACC5273795BFD6332DE9B04F88B000AF7861C7E90223D7E908
S32D0000F4881023D7E902013CF01FF802460B467969C1E900237B69D3E90423C7E900237B69D3E90001D7E91223A5
S32D0000F4B03CF0C6F902460B46D7E900013CF00AF802460B467969C1E904238BA3D3E90023D7E912013CF026FC41
S32D0000F4D80346002B04D086A3D3E90023C7E912237B69D3E900014FF000024FF000033CF033FC0346002B0BD003
S32D0000F5007B69D3E902014FF000024FF000033CF009FC0346002B27D17B69D3E900014FF000024FF000033CF0CA
S32D0000F528FDFB0346002B0BD07B69D3E902014FF000024FF000033CF00FFC0346002B0FD17B69D3E90023924622
S32D0000F55023F0004B6AA3D3E90023504659463CF0E1FB0346002B06D079694FF000024FF00003C1E904237B69A2
S32D0000F578D3E90C01D7E902233BF0A6FF02460B46904623F000495CA3D3E90023404649463CF0D8FB0346002BB6
S32D0000F5A006D079694FF000024FF00003C1E904237B69D3E90C01D7E902233BF089FF02460B46144623F00045A1
S32D0000F5C84FF000024E4B204629463CF0BBFB0346002B03D07B694FF00002DA624FF00002484BC7E906237B694B
S32D0000F5F0D3E90423104619463CF004FC0346444A44491846FFF7DFFE034618463CF0C0F802460B467969C1E9E4
S32D0000F61804237B69D3E900017B69D3E902233BF053FF02460B4610461946D7E912233CF02DFA02460B467969A9
S32D0000F640C1E906237B69D3E900237969C1E902237B69DB6A18463CF09BF804460D467B691B6A18463CF094F8F3
S32D0000F6687B69D3E900233CF0E7F802460B46904699467B695B6A18463CF086F87B69D3E904233CF0D9F802469B
S32D0000F6900B46404649463BF01DFF02460B46904699467B699B6A18463CF072F87B69D3E906233CF0C5F802467A
S32D0000F6B80B46404649463BF009FF02460B46204629463BF003FF02460B46104619463CF095FB02467B69DA627E
S32D0000F6E07969D7E90223C1E90C237B69DB6A18462037BD46BDE8B08FFCA9F1D24D62503F9A9999999999B93F62
S32D0000F7080000E03F0000494000004842000048C280B485B000AFF860B9607A603B60FB68BA681A62FB687A6853
S32D0000F7305A62FB683A689A6200BF1437BD4680BC7047000080B582B000AF7860094808F00AFB0421074808F046
S32D0000F75811FB0221054808F034FB786827F0D2FF03461946014808F07DFDEEE7C81A002080B582B000AF7860F0
S32D0000F780084611461A460346FB700B46BB7013467B707B682B4A1A607B682B4A5A607B682A4A9A607B682A4A56
S32D0000F7A8DA607B68294A1A617B681433FA781146184607F057FB7B681533BA781146184607F050FB7B6816330E
S32D0000F7D07A781146184607F049FB7B6800225A627B6800229A627B68002283F82C207B68002283F82D207B68EB
S32D0000F7F801225A637B6800229A637B680022DA637B6800221A647B6800225A647B68002283F82E207B680322A3
S32D0000F8209A647B684FF000029A617B684FF00002DA617B684FF000021A627B6818460837BD4680BDD7A33040F4
S32D0000F84833335340E8B401BDE742523DFD1BA1BC80B483B000AF786039607A683B68134018460C37BD4680BCD3
S32D0000F870704780B483B000AF786039607A683B68134318460C37BD4680BC704780B483B000AF78607B68DB43CB
S32D0000F89818460C37BD4680BC704780B582B000AF786039607B681B6839681846FFF7DDFF02467B681A607B6865
S32D0000F8C018460837BD4680BD80B582B000AF786039607B681B6839681846FFF7BDFF02467B681A607B681846B9
S32D0000F8E80837BD4680BD90B587B000AFF860B9607A60FB68DB687B61FB6803F10C047868FFF7C0FF03461946D7
S32D0000F9102046FFF7D9FFFB6803F10C047968B868FFF79AFF034619462046FFF7BAFF7B6918461C37BD4690BDFC
S32D0000F93880B582B000AF78604FF4827204217868FFF7D1FF7B6818460837BD4680BD80B483B000AF78607B6820
S32D0000F96018460C37BD4680BC7047000080B582B000AF786039607B68012B0CD13B684FF6FF72934207D106481B
S32D0000F9880AF016FA054A0649034809F0DDFE00BF0837BD4680BD00BFE817002000000020D99D010080B500AFF3
S32D0000F9B04FF6FF710120FFF7D9FF80BD80B586B002AF786039603A23FB6038683BF0E0FE02460B467868CDE92B
S32D0000F9D80023044B3A22044900F07CFC78681037BD4680BD48F405004D5E050090B583B000AF7860396006F098
S32D0000FA00E7FD034618463CF003FB0346796818463CF04CFA034601221446194638683CF0F7FC0346002B01D1FF
S32D0000FA2800231C46E3B218460C37BD4690BD000080B582B000AF7860064A7B681A607B680433184627F008FB78
S32D0000FA507B6818460837BD4680BD00BFF0F4050080B582B000AF7860064A7B681A607B680433184627F026FBD5
S32D0000FA787B6818460837BD4680BD00BFF0F4050080B582B000AF78607868FFF7E5FF1C21786809F0DDFE7B687C
S32D0000FAA018460837BD4680BD90B585B000AF786039607B681846FFF7BFFF174A7B681A607B683A68DA617B686B
S32D0000FAC803F12C0407F10C03184609F093FF07F10C031A460F49204627F07EFE07F10C03184609F089FF06F068
S32D0000FAF06FFD034618463CF08BFA02467B681A627B68002283F829207B6800225A627B6818461437BD4690BD17
S32D0000FB18CCF405004CF4050080B582B000AF786006F052FD034618463CF06EFA02467B681A627B6800225A62DF
S32D0000FB407B68D8694FF00003064A074903F0BCFA7B68DB69184603F0ABFF00BF0837BD4680BD00BF0000E040A9
S32D0000FB680000E0C090B5ADF54B7D00AF07F54A73A3F54973186007F54A73A3F549731B685B6A1A46DF4BD41821
S32D0000FB9007F52A73184609F031FF07F52A7207F524732146184627F01BFE07F52A73184609F026FF07F524735F
S32D0000FBB8184627F0A7FD014600230022D24808F027F906F001FD034618463CF01DFA024607F54A73A3F5497315
S32D0000FBE01B681B6A194610463CF060F90346C7F8243307F53173D7F824131846FFF7DEFE07F52B7307F5317247
S32D0000FC08C249184600F09DFB07F51E7307F52B71BF4A184600F0ADFB07F52B73184627F04DFA07F53173184665
S32D0000FC3027F048FA07F51E73184627F067FD01461E230022B24808F0E7F807F5D473184626F058FE07F5D4731C
S32D0000FC580833B049184626F099F80346AE49184625F0CCFE04460220FFF771FE03461946204625F04DFF04463E
S32D0000FC8007F54A73A3F549731B68DB69184603F0F7F903461B681946204626F03FF90346A049184626F076F84E
S32D0000FCA803469D49184625F0A9FE04460220FFF74EFE03461946204625F02AFF044607F54A73A3F549731B6811
S32D0000FCD0DB69184603F0D4F9034604331B681946204626F01BF903468E49184626F052F803468B49184625F044
S32D0000FCF885FE04460220FFF72AFE03461946204625F006FF044607F54A73A3F549731B68DB69184603F0B0F991
S32D0000FD20034608331B681946204626F0F7F803467D49184626F02EF807F5377307F5D4721146184626F046FE44
S32D0000FD4807F537713C2300226F4808F084F807F53773184627F0B2F907F1D803184626F0CDFD07F1D803083358
S32D0000FD706E49184626F00EF803466949184625F041FE04460220FFF7E6FD03461946204625F0C2FE044607F519
S32D0000FD984A73A3F549731B68DB69184603F078F903461B681946204626F0B4F803465B49184625F0EBFF0346BD
S32D0000FDC05749184625F01EFE04460220FFF7C3FD03461946204625F09FFE044607F54A73A3F549731B68DB69E6
S32D0000FDE8184603F055F9034604331B681946204626F090F803464949184625F0C7FF03464549184625F0FAFD93
S32D0000FE1004460220FFF79FFD03461946204625F07BFE044607F54A73A3F549731B68DB69184603F031F9034648
S32D0000FE3808331B681946204626F06CF803463849184625F0A3FF07F53D7307F1D8021146184626F0BBFD07F5C3
S32D0000FE603D714B2300222A4807F0F9FF07F53D73184627F027F907F10803184626F042FD07F1080308332A492D
S32D0000FE88184625F083FF03462349184625F0B6FD04460220FFF75BFD03461946204625F037FE044607F54A7367
S32D0000FEB0A3F549731B68DB69184603F0F9F803461B681946204626F029F803461549184625F060FF03461249E2
S32D0000FED8184625F093FD04460220FFF738FD03461946204625F014FE044607F54A73A3F549731B68DB691846B1
S32D0000FF0003F0D6F80346043314E000BF54F40500C81A002068F4050074F4050078F4050039F9000080F40500A6
S32D0000FF2884F4050088F4050090F405001B681946204625F0EFFF0346C649184625F026FF0346C549184625F01F
S32D0000FF5059FD04460220FFF7FEFC03461946204625F0DAFD044607F54A73A3F549731B68DB69184603F09CF8D4
S32D0000FF78034608331B681946204625F0CBFF0346B649184625F002FF07F5437307F108021146184626F01AFD5E
S32D0000FFA007F543715A230022AF4807F058FF07F54373184627F086F807F54A73A3F549731B685B6A022B00F088
S32D0000FFC8BA80022B00F31381002B02D0012B57D00DE107F54A73A3F549731B68D8694FF07C534FF000024FF080
S32D0000FFF0000102F07DFE07F54A73A3F549731B68DB69184602F08CFE07F54A73A3F549731B681B6A9549184676
S32D00010018FFF7ECFC0346002B32D007F54A73A3F549731B68D8694FF000034FF000024FF0000102F059FE07F58C
S32D000100404A73A3F549731B68D869894B894A8A4903F03AF806F0BCFA034618463BF0D8FF024607F54A73A3F52F
S32D0001006849731B681A6207F54A73A3F549731B685B6A5A1C07F54A73A3F549731B685A6207F54A73A3F549738A
S32D000100901B68D869764B794A774903F034F807F54A73A3F549731B68DB697549184603F0F7FA07F54A73A3F5F5
S32D000100B849731B68DB69184603F02BFD0346002B0CD107F54A73A3F549731B681B6A65491846FFF78BFC0346E5
S32D000100E0002B01D0012300E00023002B00F0958007F54A73A3F549731B68D8695C4B4FF000025D4902F0E0FF6E
S32D0001010806F062FA034618463BF07EFF024607F54A73A3F549731B681A6207F54A73A3F549731B685B6A5A1C08
S32D0001013007F54A73A3F549731B685A626DE007F54A73A3F549731B68D869494B4FF000024C4902F0D8FF07F507
S32D000101584A73A3F549731B68DB69184603F052F907F54A73A3F549731B68DB69184603F0D0FC0346002B0CD1C2
S32D0001018007F54A73A3F549731B681B6A3E491846FFF730FC0346002B01D0012300E00023002B3CD007F54A73D8
S32D000101A8A3F549731B68D8694FF000034FF000024FF0000102F098FD06F006FA034618463BF022FF024607F599
S32D000101D04A73A3F549731B681A6207F54A73A3F549731B685B6A5A1C07F54A73A3F549731B685A6213E007F5EA
S32D000101F84A73A3F549731B68DB69184602F0C8FE07F54A73A3F549731B68012283F8292002E000BF00E000BF33
S32D0001022007F10803184626F01DF807F1D803184626F018F807F5D473184626F013F807F51E73184626F03EFFCC
S32D0001024807F52473184626F039FF00BF07F54B77BD4690BD80F4050039F9000084F40500C81A002000004844C5
S32D000102700000B4420000E0400000E0C000002041CDCCCC3E0000C0400000964480B483B000AF78607B6893F86F
S32D00010298293018460C37BD4680BC704780B483B000AF78607B68012283F8292000BF0C37BD4680BC704780B562
S32D000102C082B000AF786039603B682C331946786827F040FA78680837BD4680BD08B490B588B000AFF860B96073
S32D000102E87A607B680733DB08DB00ADEB030D6B460733DB08DB00FB6107F130033B61BC683B69FA6A7968F86950
S32D00010310A047B861BB69FA69D41807F11403184609F06CFB07F114032246F969F86800F03BF807F114031846B5
S32D0001033809F062FBF8682037BD46BDE8904001B0704780B584B000AFF860B9607A60BA680021786827F0B6F85E
S32D000103600346184600F03BF803461946F86826F089FEF8681037BD4680BD80B584B000AFF860B9607A607968D4
S32D00010388B86827F0EDF80346184600F024F803461946F86826F072FEF8681037BD4680BD90B585B000AFF86081
S32D000103B0B9607A603B60FC68F86826F045FD03463A681946204627F0C3F97A68B968F86800F00FF8FB681846D6
S32D000103D81437BD4690BD80B483B000AF78607B6818460C37BD4680BC704780B584B000AFF860B9607A607A68AE
S32D00010400B968F86800F004F800BF1037BD4680BD90B587B000AFF860B9607A603B7023467A68B968F86800F03D
S32D0001042805F800BF1C37BD4690BD000080B586B000AFF860B9607A603B70B86800F03EF80346002B05D0BA6885
S32D000104507B689A4201D0012300E00023002B02D017481BF0B3FB7968B86800F03AF803467B617B690F2B10D962
S32D0001047807F1140300221946F86826F0EBFC03461946F86826F0D8FC7B691946F86826F0D9FCF86826F0D2FCA4
S32D000104A003467A68B968184626F024FD7B691946F86826F0CDFC00BF1837BD4680BD00BF98F4050080B483B0C5
S32D000104C800AF78607B68002B0CBF01230023DBB218460C37BD4680BC7047B0B582B000AF786039607C683B1D47
S32D000104F0184600F00AF82A463968204600F00FF8034618460837BD46B0BD80B483B000AF786000BF18460C377B
S32D00010518BD4680BC704780B485B000AFF860B9603A71BA68FB68D31A18461437BD4680BC7047000080B582B012
S32D0001054000AF7860084A7B681A607B682C33184626F0B8FD7B681846FFF782FA7B6818460837BD4680BD00BFB9
S32D00010568CCF4050080B582B000AF78607868FFF7E1FF4421786809F06BF97B6818460837BD4680BD90B587B01D
S32D0001059000AF786039603B68DB0FFB75FB7D002B02D03B685B4200E03B683B610A21386900F0FCFBF860FA7DC9
S32D000105B8FB68D41807F10803184609F01BFA07F108032D222146786826F04EFD07F10803184609F011FAFB7D7F
S32D000105E01946786826F012FE03463A69F968184600F01AFC00BF78681C37BD4690BD80B483B000AF7860012382
S32D0001060818460C37BD4680BC7047000090B585B000AF786039607B681846FFF709FA174A7B681A607B683A6815
S32D00010630DA617B6803F12C0407F10C03184609F0DDF907F10C031A460F49204627F0C8F807F10C03184609F0CB
S32D00010658D3F905F0B9FF034618463BF0D5FC02467B681A627B68002283F829207B6800225A627B68184614379A
S32D00010680BD4690BD84F605003CF5050080B582B000AF78607B68DB69184603F009FA7B68D8694FF000034FF038
S32D000106A800024FF0000102F00BFD05F08DFF034618463BF0A9FC02467B681A627B6800225A627B68DB69184602
S32D000106D003F0EEF900BF0837BD4680BD90B5ADF5577D00AF07F55673A3F55573186007F55673A3F555731B6834
S32D000106F803F12C0107F52B73DF4A184600F0E6FB07F55673A3F555731B685A6A07F5317311461846FFF736FFD4
S32D0001072007F5257307F5317207F52B71184600F0E4FB07F53173184626F0C4FC07F52B73184626F0BFFC07F519
S32D000107482573184626F0DEFF014600230022CB4807F05EFB05F038FF034618463BF054FC024607F55673A3F5B7
S32D0001077055731B681B6A194610463BF097FB0346C7F8543307F53D73D7F854131846FFF715F907F5377307F5A3
S32D000107983D72BB491846FFF7D4FD07F51F7307F53771B84A1846FFF7E4FD07F53773184626F084FC07F53D73AB
S32D000107C0184626F07FFC07F51F73184626F09EFF01461E230022AB4807F01EFB07F5D673184626F08FF807F593
S32D000107E8D6730833A849184625F0D0FA0346A749184625F003F904460220FFF7A8F803461946204625F084F9E6
S32D00010810044607F55673A3F555731B68DB69184602F02EFC03461B681946204625F076FB03469949184625F054
S32D00010838ADFA03469549184625F0E0F804460220FFF785F803461946204625F061F9044607F55673A3F55573AD
S32D000108601B68DB69184602F00BFC034604331B681946204625F052FB03468749184625F089FA0346834918469F
S32D0001088825F0BCF804460220FFF761F803461946204625F03DF9044607F55673A3F555731B68DB69184602F0DE
S32D000108B0E7FB034608331B681946204625F02EFB03467649184625F065FA07F5437307F5D6721146184626F092
S32D000108D87DF807F543713C230022684807F0BBFA07F54373184626F0E9FB07F1DC03184626F004F807F1DC03C7
S32D0001090008336749184625F045FA03466149184625F078F804460220FFF71DF803461946204625F0F9F8044680
S32D0001092807F55673A3F555731B68DB69184602F0AFFB03461B681946204625F0EBFA03465349184625F022FABB
S32D0001095003465049184625F055F804460220FEF7FAFF03461946204625F0D6F8044607F55673A3F555731B6899
S32D00010978DB69184602F08CFB034604331B681946204625F0C7FA03464149184625F0FEF903463E49184625F017
S32D000109A031F804460220FEF7D6FF03461946204625F0B2F8044607F55673A3F555731B68DB69184602F068FB13
S32D000109C8034608331B681946204625F0A3FA03463049184625F0DAF907F5497307F1DC021146184625F0F2FF31
S32D000109F007F549714B230022224807F030FA07F54973184626F05EFB07F10C03184625F079FF07F10C0308334E
S32D00010A182249184625F0BAF903461C49184624F0EDFF04460220FEF792FF03461946204625F06EF8044607F551
S32D00010A405673A3F555731B68DB69184602F030FB03461B681946204625F060FA03460E49184625F097F9034630
S32D00010A680A49184624F0CAFF04460220FEF76FFF03461946204613E048F50500C81A002054F5050060F5050015
S32D00010A9064F5050039F900006CF5050070F5050074F505007CF5050025F036F8044607F55673A3F555731B68BE
S32D00010AB8DB69184602F0F8FA034604331B681946204625F027FA03469B49184625F05EF903469A49184624F0F6
S32D00010AE091FF04460220FEF736FF03461946204625F012F8044607F55673A3F555731B68DB69184602F0D4FA40
S32D00010B08034608331B681946204625F003FA03468B49184625F03AF907F54F7307F10C021146184625F052FF3E
S32D00010B3007F54F715A230022844807F090F907F54F73184626F0BEFA07F55673A3F555731B685B6A002B02D09B
S32D00010B58012B5FD0BDE007F55673A3F555731B68D8694FF00003784A4FF0000102F0C7FA07F55673A3F5557371
S32D00010B801B68DB697349184602F08AFD07F55673A3F555731B68DB69184602F0BEFF0346002B0CD107F55673DD
S32D00010BA8A3F555731B681B6A69491846FEF71EFF0346002B01D0012300E00023002B00F09A8007F55673A3F596
S32D00010BD055731B68D8694FF000034FF000024FF0000102F085F805F0F3FC034618463BF00FFA024607F556736C
S32D00010BF8A3F555731B681A6207F55673A3F555731B685B6A5A1C07F55673A3F555731B685A6270E007F5567313
S32D00010C20A3F555731B68D8694FF000034FF000024FF0000102F067FA07F55673A3F555731B68DB694349184695
S32D00010C4802F02AFD07F55673A3F555731B68DB69184602F05EFF0346002B0CD107F55673A3F555731B681B6A4D
S32D00010C7039491846FEF7BEFE0346002B01D0012300E00023002B3CD007F55673A3F555731B68D8694FF00003F6
S32D00010C984FF000024FF0000102F026F805F094FC034618463BF0B0F9024607F55673A3F555731B681A6207F534
S32D00010CC05673A3F555731B685B6A5A1C07F55673A3F555731B685A6213E007F55673A3F555731B68DB6918467D
S32D00010CE802F056F907F55673A3F555731B68012283F8292002E000BF00E000BF07F10C03184625F0ABFA07F1B6
S32D00010D10DC03184625F0A6FA07F5D673184625F0A1FA07F51F73184626F0CCF907F52573184626F0C7F900BF21
S32D00010D3807F55777BD4690BD6CF5050039F9000070F50500C81A0020000040C09A99193F0000FA4380B483B03F
S32D00010D6000AF78607B6893F8293018460C37BD4680BC704780B483B000AF78607B68012283F8292000BF0C37C5
S32D00010D88BD4680BC704780B582B000AF786039603B682C331946786826F0D8FC78680837BD4680BD80B487B0CA
S32D00010DB000AF7860396001237B613B6803FB03F33B613A683B6902FB03F3FB603A68FB6802FB03F3BB603B6877
S32D00010DD87A689A4201D27B691DE07A683B699A4202D27B69013316E07A68FB689A4202D27B6902330FE07A6857
S32D00010E00BB689A4202D27B69033308E07A68BB68B2FBF3F37B607B6904337B61DBE718461C37BD4680BC70471B
S32D00010E2880B489B000AFF860B9607A60BB68013BFB617B68632B25D97A68224BA3FB02135B09642101FB03F32D
S32D00010E50D31A5B00BB617B681C4AA2FB03235B097B60BB695A1CF968FB690B4418498A5C1A70FB69013BFA6843
S32D00010E7813441549BA690A4412781A70FB69023BFB61D6E77B68092B10D97B685B007B617B695A1CFB6801334C
S32D00010EA00B498A5C1A700A4A7B6913441A78FB681A7005E07B68DBB23033DAB2FB681A7000BF2437BD4680BCC7
S32D00010EC8704700BF1F85EB51B0F5050080B584B000AFF860B9607A60B968F86826F036FC7968F86826F03CFB41
S32D00010EF000BFF8681037BD4680BD90B58BB000AFF860B9607A60002387F8273007F114031846FFF774FB03469F
S32D00010F18002B03D0012387F8273024E007F11803B968184626F0F0FB07F11C037968184626F0EAFB07F11C02B4
S32D00010F4007F118031146184600F052F803461C4607F11C03184608F053FD07F11803184608F04EFD002C02D066
S32D00010F68012387F8273097F82730002B2BD0B86826F0F6F80446786826F0F2F8034623443B62B86826F0F0F89B
S32D00010F9002463B6A934208D9786826F0E9F802463B6A934201D8012300E00023002B0ED0BA680021786826F0B4
S32D00010FB871FA03461846FFF70EFA03461946F86826F05CF80CE07968B86826F0C3FA03461846FFF700FA0346E8
S32D00010FE01946F86826F04EF8F8682C37BD4690BD80B483B000AF78603960012318460C37BD4680BC7047000072
S32D0001100880B582B000AF7860084A7B681A607B682C33184626F052F87B681846FEF71CFD7B6818460837BD464A
S32D0001103080BD00BF84F6050080B582B000AF78607868FFF7E1FF4421786808F005FC7B6818460837BD4680BD74
S32D0001105890B587B000AFF860B9607A603B60FB681846FEF7E5FC1A4AFB681A60FB68BA68DA61FB687A681A62FF
S32D00011080FB683A685A62FB6803F1340407F11403184608F0B3FC07F114031A460F49204626F09EFB07F11403F2
S32D000110A8184608F0A9FC05F08FFA034618463AF0ABFF0246FB689A62FB68002283F83120FB680022DA62FB6809
S32D000110D018461C37BD4690BD48F70500C0F6050080B582B000AF786005F072FA034618463AF08EFF02467B6819
S32D000110F89A627B680022DA627B68D869074B4FF000024FF0000101F0DBFF7B68DB69184602F0CAFC00BF08378F
S32D00011120BD4680BD000034C290B5ADF54B7D00AF07F54A73A3F54973186007F54A73A3F549731B68DB6A1A4652
S32D00011148DF4BD41807F52A73184608F053FC07F52A7207F524732146184626F03DFB07F52A73184608F048FCB3
S32D0001117007F52473184626F0C9FA014600230022D24806F049FE05F023FA034618463AF03FFF024607F54A7381
S32D00011198A3F549731B689B6A194610463AF082FE0346C7F8243307F53173D7F824131846FEF700FC07F52B73FF
S32D000111C007F53172C2491846FFF7BFF807F51E7307F52B71BF4A1846FFF7CFF807F52B73184625F06FFF07F58B
S32D000111E83173184625F06AFF07F51E73184626F089FA01461E230022B24806F009FE07F5D473184625F07AFB08
S32D0001121007F5D4730833B049184624F0BBFD0346AE49184624F0EEFB04460220FEF793FB03461946204624F062
S32D000112386FFC044607F54A73A3F549731B68DB69184601F019FF03461B681946204624F061FE0346A049184603
S32D0001126024F098FD03469D49184624F0CBFB04460220FEF770FB03461946204624F04CFC044607F54A73A3F57E
S32D0001128849731B68DB69184601F0F6FE034604331B681946204624F03DFE03468E49184624F074FD03468B493A
S32D000112B0184624F0A7FB04460220FEF74CFB03461946204624F028FC044607F54A73A3F549731B68DB69184691
S32D000112D801F0D2FE034608331B681946204624F019FE03467D49184624F050FD07F5377307F5D47211461846C4
S32D0001130025F068FB07F537713C2300226F4806F0A6FD07F53773184625F0D4FE07F1D803184625F0EFFA07F1BF
S32D00011328D80308336E49184624F030FD03466949184624F063FB04460220FEF708FB03461946204624F0E4FBFA
S32D00011350044607F54A73A3F549731B68DB69184601F09AFE03461B681946204624F0D6FD03465B49184624F092
S32D000113780DFD03465749184624F040FB04460220FEF7E5FA03461946204624F0C1FB044607F54A73A3F5497331
S32D000113A01B68DB69184601F077FE034604331B681946204624F0B2FD03464949184624F0E9FC034645491846A1
S32D000113C824F01CFB04460220FEF7C1FA03461946204624F09DFB044607F54A73A3F549731B68DB69184601F088
S32D000113F053FE034608331B681946204624F08EFD03463849184624F0C5FC07F53D7307F1D8021146184625F0CD
S32D00011418DDFA07F53D714B2300222A4806F01BFD07F53D73184625F049FE07F10803184625F064FA07F10803D7
S32D0001144008332A49184624F0A5FC03462349184624F0D8FA04460220FEF77DFA03461946204624F059FB04462B
S32D0001146807F54A73A3F549731B68DB69184601F01BFE03461B681946204624F04BFD03461549184624F082FC95
S32D0001149003461249184624F0B5FA04460220FEF75AFA03461946204624F036FB044607F54A73A3F549731B6886
S32D000114B8DB69184601F0F8FD0346043314E000BFCCF60500C81A0020E4F60500F0F60500F4F6050039F9000096
S32D000114E0FCF6050000F7050004F705000CF705001B681946204624F011FD0346C449184624F048FC0346C34917
S32D00011508184624F07BFA04460220FEF720FA03461946204624F0FCFA044607F54A73A3F549731B68DB691846BE
S32D0001153001F0BEFD034608331B681946204624F0EDFC0346B449184624F024FC07F5437307F1080211461846D6
S32D0001155825F03CFA07F543715A230022AD4806F07AFC07F54373184625F0A8FD07F54A73A3F549731B68DB6ACA
S32D00011580042B00F29A8101A252F823F0A115010031160100F9160100A51701004118010007F54A73A3F54973CD
S32D000115A81B68D8699C4B9D4A9D4901F0A8FD07F54A73A3F549731B68DB699A49184602F06BF807F54A73A3F54B
S32D000115D049731B68DB69184602F09FFA0346002B00F07D8107F54A73A3F549731B68D8698B4B8C4A8C4901F0DB
S32D000115F867FD04F0E9FF034618463AF005FD024607F54A73A3F549731B689A6207F54A73A3F549731B68DB6A08
S32D000116205A1C07F54A73A3F549731B68DA6256E107F54A73A3F549731B681B6A7C49184605F05EFF07F54A73DF
S32D00011648A3F549731B68D8694FF03F434FF000024FF0000101F048FB07F54A73A3F549731B68DB69184601F0C2
S32D0001167057FB07F54A73A3F549731B689B6A6D491846FEF7B7F90346002B00F02A8107F54A73A3F549731B680C
S32D00011698D8694FF000034FF000024FF0000101F023FB07F54A73A3F549731B68D8694FF000035A4A5A4901F0C5
S32D000116C003FD04F085FF034618463AF0A1FC024607F54A73A3F549731B689A6207F54A73A3F549731B68DB6A6C
S32D000116E85A1C07F54A73A3F549731B68DA62F4E007F54A73A3F549731B681B6A4C49184605F0FAFE07F54A730F
S32D00011710A3F549731B68D8694FF00003414A474901F0F1FC07F54A73A3F549731B68DB693E49184601F0B4FFFA
S32D0001173807F54A73A3F549731B68DB69184602F0E8F90346002B00F0CA8007F54A73A3F549731B68D8694FF0BF
S32D0001176000034FF000024FF0000101F0C1FA04F02FFF034618463AF04BFC024607F54A73A3F549731B689A621C
S32D0001178807F54A73A3F549731B68DB6A5A1C07F54A73A3F549731B68DA62A0E007F54A73A3F549731B681B6A86
S32D000117B04FF00001184605F0A3FE07F54A73A3F549731B689B6A4FF000011846FEF712F90346002B00F0898036
S32D000117D804F0FAFE034618463AF016FC024607F54A73A3F549731B689A6207F54A73A3F549731B68DB6A5A1CF4
S32D0001180007F54A73A3F549731B68DA626DE000BFFCF6050039F9000000F70500C81A0020000034C20000E040A4
S32D000118280000E0C09A99193F000034430000C8430000F042000040C107F54A73A3F549731B68D8694FF000039E
S32D00011850364A374901F057FC07F54A73A3F549731B68DB693349184601F01AFF07F54A73A3F549731B68DB6999
S32D00011878184602F04EF90346002B34D004F0A4FE034618463AF0C0FB024607F54A73A3F549731B689A6207F540
S32D000118A04A73A3F549731B68DB6A5A1C07F54A73A3F549731B68DA6219E007F54A73A3F549731B68DB691846D3
S32D000118C801F066FB07F54A73A3F549731B68012283F8312008E000BF06E000BF04E000BF02E000BF00E000BFF1
S32D000118F007F10803184624F0B5FC07F1D803184624F0B0FC07F5D473184624F0ABFC07F51E73184625F0D6FB85
S32D0001191807F52473184625F0D1FB00BF07F54B77BD4690BD0000E0400000E0C09A99193F80B483B000AF7860C8
S32D000119407B6893F8313018460C37BD4680BC704780B483B000AF78607B68012283F8312000BF0C37BD4680BC11
S32D00011968704780B582B000AF786039603B6834331946786825F0EAFE78680837BD4680BD80B582B000AF78607F
S32D00011990084A7B681A607B683433184625F092FB7B681846FEF75CF87B6818460837BD4680BD00BF48F70500E2
S32D000119B880B582B000AF78607868FFF7E1FF4C21786807F045FF7B6818460837BD4680BD80B483B000AF786026
S32D000119E039603B6818460C37BD4680BC704780B582B000AF78607B68184600F0CCF87B6818460837BD4680BD62
S32D00011A0880B582B000AF78607B681846FFF7EBFF7B6818460837BD4680BD000080B582B000AF78607B680833D4
S32D00011A30184625F015FB7B6820331846FFF7E4FF7B6800225A607B6808330749184625F015FD7B6800221A7056
S32D00011A587B6800225A707B6818460837BD4680BD80F7050090B583B000AF786039607B6803F12004386800F031
S32D00011A809AF803461946204600F09FF800BF0C37BD4690BD90B58BB000AF78607B682033184600F0A3F87862BE
S32D00011AA87B685B687A6A9A4256D97B6803F120027B685B681946104600F0A3F838627B6803F10804386A00F08C
S32D00011AD0ABF803461A681032126807F108001946904707F108031946204625F0FDFA07F10803184625F0E6FA5D
S32D00011AF8386A00F095F803461A680832126818469047034683F00103DBB2002B1BD07B685B7883F00103DBB2CF
S32D00011B20002B0AD0386A00F07FF803461A681268184690477B6801225A70386A00F074F803461A6804321268C5
S32D00011B481846904711E07B685B685A1C7B685A607B6800225A7008E07B6801221A707B6808330449184625F06A
S32D00011B7085FC00BF2C37BD4690BD00BF80F7050080B483B000AF78607B681B7818460C37BD4680BC704780B5E8
S32D00011B9882B000AF7860786800F04EF87B68184600F056F87B6818460837BD4680BD80B483B000AF78607B683F
S32D00011BC018460C37BD4680BC704780B582B000AF786039603868FFF7EEFF03461946786800F078F800BF08376F
S32D00011BE8BD4680BD80B483B000AF78607B685A687B681B68D31A9B1018460C37BD4680BC704780B483B000AF50
S32D00011C10786039607B681A683B689B00134418460C37BD4680BC704780B582B000AF7860786800F07DF8034627
S32D00011C3818460837BD4680BD80B582B000AF7860786800F07EF87B6818460837BD4680BD80B483B000AF7860BE
S32D00011C607B6800221A607B6800225A607B6800229A607B6818460C37BD4680BC704780B584B000AFF860B96015
S32D00011C887A60BB68002B05D0FB687A68B968184600F061F800BF1037BD4680BD80B483B000AF78607B681846AE
S32D00011CB00C37BD4680BC704780B584B000AFF860B9607A60B968F86800F058F800BF1037BD4680BDB0B582B0CB
S32D00011CD800AF786039607B685A687B689B689A4211D07C687B685D68386800F050F803461A462946204600F0A3
S32D00011D0054F87B685B681A1D7B685A600CE0786800F05EF80446386800F03DF803461A462146786800F07AF87B
S32D00011D2800BF0837BD46B0BD80B582B000AF78607B68184600F02AF9034618460837BD4680BD80B483B000AFA0
S32D00011D5078607B6818460C37BD4680BC704780B584B000AFF860B9607A607A68B968F86800F01EF900BF10373F
S32D00011D78BD4680BD80B582B000AF786039603968786800F021F900BF0837BD4680BD80B483B000AF78607B68DB
S32D00011DA018460C37BD4680BC704780B584B000AFF860B9607A607868FFF7EDFF03461A46B968F86800F03CF909
S32D00011DC800BF1037BD4680BD80B584B000AF78607B681A1D07F10C031146184600F044F9FB6818461037BD46A8
S32D00011DF080BD80B582B000AF184600F005F8034618460837BD4680BD80B483B000AF3871012318460C37BD4679
S32D00011E1880BC7047B0B58CB000AFF860B9607A60594A0121F86800F02EF9B862FB681B687B62FB685B683B6231
S32D00011E40F86800F06BF903467B6107F1140207F108031146184600F071F90346FB61FB68B96A184600F07FF989
S32D00011E68B861BB69FB62FC68FB699B00BA69D5187868FFF78CFF03461A4629462046FFF790FF0023FB62FFF764
S32D00011E90B0FF0346002B27D007F10803184600F08AF903461C68FB681846FFF7FBFE0346BA692146786A00F013
S32D00011EB86AF9F862FB6A0433FB6207F10803184600F075F903461C68FB681846FFF7E6FE0346FA6A396A204668
S32D00011EE000F055F9F86226E007F10803184600F062F903461C68FB681846FFF7D3FE0346BA692146786A00F08F
S32D00011F0860F9F862FB6A0433FB6207F10803184600F04DF903461C68FB681846FFF7BEFE0346FA6A396A204671
S32D00011F3000F04BF9F862FFF75CFF034683F00103DBB2002B09D0FB681846FFF7ABFE03461A46396A786AFFF7CE
S32D00011F58AFFEF868FB689A687B6AD31A9B101A46796AFFF788FEFB68BA691A60FB68FA6A5A60BB6A9B00BA6948
S32D00011F801A44FB689A6000BF3037BD46B0BD00BF88F7050080B582B000AF78607B68184600F039F903461B6881
S32D00011FA818460837BD4680BD80B584B000AFF860B9607A607B689B001946B86807F048FC00BF1037BD4680BD4C
S32D00011FD080B582B000AF786039607A683B689A420AD0786800F024F90346184600F02AF97B6804337B60F0E7AD
S32D00011FF800BF0837BD4680BD80B582B000AF786039607B683A681146184600F032F97B6818460837BD4680BDE0
S32D0001202080B582B000AF786039607B683A6811461846FFF7E5FF7B6818460837BD4680BD90B585B000AFF860B5
S32D00012048B9607A607868FFF7A2FE0446BB6819460420FFF7BDFC034621461846FFF7DCFF00BF1437BD4690BD28
S32D0001207080B483B000AF786039603B681A687B681A607B6818460C37BD4680BC704790B587B000AFF860B96022
S32D000120987A60F86800F007F90446F868FFF7A2FD0346E21ABB689A4234BF01230023DBB2002B02D0786819F0BF
S32D000120C09DFDF868FFF792FD0446F868FFF78EFD03463B6107F1080207F110031146184600F0F6F803461B68F6
S32D000120E823447B61F868FFF77DFD02467B69934206D3F86800F0D7F802467B69934204D9F86800F0D0F803467E
S32D0001211000E07B6918461C37BD4690BD80B584B000AF78607A6807F10C0311461846FFF79FFFFB6818461037B1
S32D00012138BD4680BD90B583B000AF78603960786800F035F803461C68386800F030F803461B68E31A9B1018464C
S32D000121600C37BD4690BD80B582B000AF786039603B68002B06D07B683968184600F0BBF8034600E00023184663
S32D000121880837BD4680BD90B587B002AFF860B9607A603B608DF800403B687A68B968F86800F0B4F80346184688
S32D000121B01437BD4690BD80B483B000AF78607B6818460C37BD4680BC704790B585B000AFF860B9607A603B60EE
S32D000121D8F86800F0ADF80446B86800F0A9F801463B687A68204600F0B2F8034618461437BD4690BD80B582B073
S32D0001220000AF786039603968786800F0B5F800BF0837BD4680BD80B582B000AF78607B68184600F0B5F803461E
S32D0001222818460837BD4680BD80B483B000AF78607B6818460C37BD4680BC704780B582B000AF78607868FBF782
S32D000122505EFE00BF0837BD4680BD80B582B000AF786039607B683A681146184600F0A6F87B6818460837BD46F3
S32D0001227880BD90B583B000AF786039607C683B68184600F08DF8034619462046FFF7E1FF3868FBF7C5FF034685
S32D000122A000221A607B6818460C37BD4690BD80B582B000AF78607B68184600F0BCF80346184600F09EF8034656
S32D000122C818460837BD4680BD80B483B000AF786039607B681A683B681B689A4201D23B6800E07B6818460C3742
S32D000122F0BD4680BC704780B582B000AF7860396000223968786800F0A0F8034618460837BD4680BD80B584B088
S32D0001231800AFF860B9607A603B603B687A68B968F86800F0ACF8034618461037BD4680BD80B584B000AF786049
S32D0001234007F10C037968184600F0BAF8FB6818461037BD4680BD80B584B000AFF860B9607A603B607A68B9683D
S32D00012368F86800F0BBF8034618461037BD4680BD80B582B000AF786039603868FBF7C3FD00BF0837BD4680BDFE
S32D0001239080B582B000AF7860786800F0B5F8034618460837BD4680BD80B483B000AF78607B6818460C37BD4618
S32D000123B880BC704790B583B000AF78603960386800F0ABF80346184600F0B1F803461946786800F0C0F87C68E4
S32D000123E03868FCF7E2F80346184600F0AEF803461946204600F0C9F87B6818460C37BD4690BD80B584B000AF79
S32D0001240878606FF06043FB60786800F0CBF80346BB6007F1080207F10C031146184600F0CDF803461B681846DC
S32D000124301037BD4680BD80B483B000AF78607B6818460C37BD4680BC704780B584B000AFF860B9607A60F868CB
S32D0001245800F0C7F80246BB6893428CBF01230023DBB2002B01D019F08DFBBB689B00184607F0F0F90346184617
S32D000124801037BD4680BDB0B584B000AFF860B9607A603B60F86800F0B3F80446B86800F0AFF80546786800F061
S32D000124A8ABF802463B682946204600F0AFF8034618461037BD46B0BD80B582B000AF786039603B46184600F057
S32D000124D0C7F803461A687B681A607B6818460837BD4680BD80B586B000AFF860B9607A600123FB757A68B9683A
S32D000124F8F86800F0BBF8034618461837BD4680BD80B582B000AF78607B68184600F0DDF8034618460837BD469F
S32D0001252080BD80B483B000AF78607B6818460C37BD4680BC704780B483B000AF78607B6818460C37BD4680BC36
S32D00012548704780B483B000AF78607B6818460C37BD4680BC704780B582B000AF786039603868FCF75DF903468C
S32D00012570184600F0B8F803461946786800F0BDF87B6818460837BD4680BD80B582B000AF786039603868FFF734
S32D00012598D8FF03461A687B681A607B6818460837BD4680BD80B582B000AF7860786800F0ADF80346184608370C
S32D000125C0BD4680BD80B483B000AF786039603B681A687B681B689A4201D23B6800E07B6818460C37BD4680BCA5
S32D000125E8704780B483B000AF78606FF0604318460C37BD4680BC704780B483B000AF78607B6818460C37BD4611
S32D0001261080BC704790B587B000AFF860B9607A603B607B687B61FA68BB689A4213D07869FFF7FEFD0446F86818
S32D00012638FFF7FAFD03463A681946204600F072F8FB680433FB607B6904337B61E7E77B6918461C37BD4690BDDD
S32D0001266080B483B000AF78607B6818460C37BD4680BC704790B587B000AFF860B9607A607B687B6107F10802AC
S32D0001268807F10C031146184600F067F80346002B16D07869FFF7C8FD044607F10C03184600F07BF80346194668
S32D000126B0204600F081F807F10C03184600F062F87B6904337B61DDE77B6918461C37BD4690BD80B483B000AFC7
S32D000126D878607B6818460C37BD4680BC704780B483B000AF78607B6818460C37BD4680BC704780B582B000AF03
S32D00012700786039603868FFF7EEFF7B6818460837BD4680BD80B582B000AF78607868FFF764FF034618460837E9
S32D00012728BD4680BD80B584B000AFF860B9607A60B868FFF73CFA03461A46F9687868FFF730FBB868FFF770FD05
S32D00012750034619467868FFF751FD00BF1037BD4680BD80B582B000AF786039603968786800F039F8034683F063
S32D000127780103DBB218460837BD4680BD80B483B000AF78607B681B681A1D7B681A607B6818460C37BD4680BC19
S32D000127A0704780B483B000AF78607B681B6818460C37BD4680BC704790B583B000AF786039603868FFF7E7FA59
S32D000127C804467B6819460420FFF702F9034621461846FFF721FC00BF0C37BD4690BD90B583B000AF7860396036
S32D000127F0786800F00EF80446386800F00AF803469C420CBF01230023DBB218460C37BD4690BD80B483B000AF3B
S32D0001281878607B681B6818460C37BD4680BC704780B582B000AF786039603968786837F06FFD0346184608373B
S32D00012840BD4680BD80B582B000AF7860786837F0F9FC034618460837BD4680BD80B483B000AF78607B6823F035
S32D00012868004318460C37BD4680BC704780B582B000AF7860786837F013FD034618460837BD4680BD80B582B0D5
S32D0001289000AF7860786837F041FD034618460837BD4680BD90B583B000AF786039607B681A683B681B681946A5
S32D000128B8104639F001FC03461C467B6804331A683B6804331B681946104639F0F5FB03461946204639F0E8FAEA
S32D000128E0034618460C37BD4690BD90B583B000AF78607B681A687B681B681946104639F0DFFB03461C467B687F
S32D0001290804331A687B6804331B681946104639F0D3FB03461946204639F0C6FA03461846FFF7B0FF03461846B4
S32D000129300C37BD4690BD80B584B000AF786039607868FFF7D2FFF8604FF00001F86839F04BFD0346002B02D006
