S01100002E2E2F50726F746575732E73313966
S32D0000C000000000205DC2000011C3000017C300001DC3000023C3000029C3000000000000000000000000000073
S32D0000C028000000002FC3000035C30000000000003BC3000041C30000812101008D21010099210100A52101002A
S32D0000C050B1210100BD210100C9210100D5210100E1210100ED210100F921010005220100112201001D22010065
S32D0000C0782922010035220100412201004D2201005922010065220100712201007D220100892201009522010086
S32D0000C0A0A1220100AD220100B9220100C5220100D1220100DD220100E9220100F5220100012301000D230100AC
S32D0000C0C81923010025230100312301003D2301004923010055230100612301006D2301007923010085230100CC
S32D0000C0F091230100AD6F01009D230100A9230100B5230100C1230100CD230100D9230100E5230100F1230100F8
S32D0000C118FD2301000924010015240100212401002D2401003924010045240100512401005D240100692401008A
S32D0000C14075240100812401008D24010099240100D94C0100A5240100B1240100BD240100C9240100D524010091
S32D0000C168E1240100ED240100F924010005250100112501001D2501002925010035250100412501004D2501004A
S32D0000C190592501006525010071250100CD4801009547010031480100051F01006D4901007D2501008925010045
S32D0000C1B895250100D074060000000020C8170000D07406000000FF1F00000000C8170020D81A00000000FF1FDE
S32D0000C1E00000000080B489B000AFF860B9607A60BB68FB61FB68BB6100237B617A697B689A420BD2BA69131DFB
S32D0000C208BB61FB69191DF96112681A607B6904337B61EFE700BF2437BD4680BC704780B485B000AF786039609E
S32D0000C2307B68FB600023BB60BA683B689A4208D2FB681A1DFA6000221A60BB680433BB60F2E700BF1437BD46FE
S32D0000C25880BC704780B586B000AF72B6234B4CF220521A80214B4DF628121A80204B4FF4E9721A801F4B7B615F
S32D0000C2807B691F4A934214D27B691A1D7A611B683B617B691A1D7A611B68FB607B691A1D7A611B68BB60BA68E9
S32D0000C2A8F9683869FFF79AFFE6E77B69134A93420ED27B691A1D7A611B68FB607B691A1D7A611B68BB60B9688B
S32D0000C2D0F868FFF7A8FFECE70B4B7B600B4A7B681A6040F0BBF962B605F0D4FE00F044F9FEE700BF0E20054086
S32D0000C2F800200540BCC10000D4C10000E4C1000008ED00E000C0000080B400AFFEE780B400AFFEE780B400AFF4
S32D0000C320FEE780B400AFFEE780B400AFFEE780B400AFFEE780B400AFFEE780B400AFFEE780B400AFFEE780B426
S32D0000C34800AFFEE7FFFFFFFFFFFFFFFFFFFFFFFFFFFFFFFFFFFFFFFFFFFFFFFFFFFFFFFFFFFFFFFFFFFFFFFF57
S32D0000C370FFFFFFFFFFFFFFFFFFFFFFFFFFFFFFFFFFFFFFFFFFFFFFFFFFFFFFFFFFFFFFFFFFFFFFFFFFFFFFFFC7
S32D0000C398FFFFFFFFFFFFFFFFFFFFFFFFFFFFFFFFFFFFFFFFFFFFFFFFFFFFFFFFFFFFFFFFFFFFFFFFFFFFFFFF9F
S32D0000C3C0FFFFFFFFFFFFFFFFFFFFFFFFFFFFFFFFFFFFFFFFFFFFFFFFFFFFFFFFFFFFFFFFFFFFFFFFFFFFFFFF77
S32D0000C3E8FFFFFFFFFFFFFFFFFFFFFFFFFFFFFFFFFFFFFFFFFFFFFFFFFFFFFFFFFFFFFFFFFFFFFFFFFEFFFFFF50
S32D0000C44010B5054C237833B9044B13B10448AFF300800123237010BDC817002000000000E861060008B5034BD3
S32D0000C4681BB103490348AFF3008008BD00000000CC170020E86106002DE9B0438AB000AFF860B9607A603B6032
S32D0000C490FA687B68D31A18463CF0E4FF02460B46C7E90823BA683B68D31A18463CF0DAFF02460B46C7E90623E4
S32D0000C4B8D7E90823D7E908013DF03AF802460B4614461D463B6C03FB03F318463CF0C6FF02460B462046294695
S32D0000C4E03DF054F902460B4614461D46D7E90623D7E906013DF020F802460B46904699467B6C03FB03F31846E2
S32D0000C5083CF0ACFF02460B46404649463DF03AF902460B46204629463CF054FE02460B46C7E9042301231C463E
S32D0000C5304FF00002074BD7E904013DF079FA0346002B01D100231C46E3B218462837BD46BDE8B0830000F03FBE
S32D0000C55880B582B000AF78607B685C33184627F067FC7B6818460837BD4680BD00000000F0B5ADF69C1D04AF09
S32D0000C58007F68813A3F519734FF000021A6007F68813A3F519734FF000025A6007F68813A3F519734FF0000262
S32D0000C5A89A60E04BC7F87039002387F86F39012387F86E39032387F86D39002387F86C39022387F86B39042343
S32D0000C5D087F86A3997F86E4997F86C2997F86F1907F59D60D7F87039039397F86A39029397F86D39019397F874
S32D0000C5F86B390093234604F0DDFC022387F8693997F8691907F59C63C74A184605F0C4FF07F2DC430821184690
S32D0000C62008F014FA07F59B631521184608F00EFA07F2D4431621184608F008FA07F59A631721184608F002FA36
S32D0000C64807F2C4430721184608F0F0FC07F2C44340F23A31184608F005FD07F2C44340F68601184608F01BFD3A
S32D0000C67007F59363184603F0FFFC07F68813A3F5157307F2DC421146184601F063FB07F2347207F5E663114650
S32D0000C698184601F0A8FB07F5E66207F593631146184603F009FD07F5E663184601F0B7FB07F23473184601F069
S32D0000C6C063FB07F68813A3F5137307F2C44207F59D61184601F0C9FB07F23C7207F5E7631146184601F014FC89
S32D0000C6E807F5E76207F593631146184603F0E4FC07F5E763184601F092FB07F23C73184601F0CFFB002387F8E0
S32D0000C7108739884BC7F880394FF00003C7F87C394FF00003C7F8783907F5916318460CF059FF07F5EB6318463E
S32D0000C7380AF030FF07F5EB6207F5E8637C49184627F0D6FE07F5E86207F214408B230093FF23002102F072F899
S32D0000C76007F5E863184627F067FB07F5EB6318460AF016FF07F214431E21184602F076FB07F2747318460AF04E
S32D0000C78809FF07F2747207F25C736A49184627F0AFFE07F25C7207F568708B230093FF23232102F04BF807F28F
S32D0000C7B05C73184627F040FB07F2747318460AF0EFFE07F568731E21184602F04FFB07F5F26318460AF0E2FE7E
S32D0000C7D807F5F26207F5EF635749184627F088FE07F5EF6207F54B708B230093FF23462102F024F807F5EF63D0
S32D0000C800184627F019FB07F5F26318460AF0C8FE07F54B731E21184602F028FB07F2AC7318460AF0BBFE07F284
S32D0000C828AC7207F294734549184627F061FE07F2947207F52E708B230093FF23692101F0FDFF07F29473184691
S32D0000C85027F0F2FA07F2AC7318460AF0A1FE07F52E731E21184602F001FB0123C7F86439354809F068F83448AE
S32D0000C87809F01AFC002387F87739324B1B78002B62D197F87739002B5ED107F56873184602F072F907F2144348
S32D0000C8A0184602F06DF907F54B73184602F068F907F52E73184602F063F907F56873184602F0BFFA0346002BAC
S32D0000C8C805D0204B02221A70012387F8773907F21443184602F0B1FA0346002B05D0194B01221A70012387F8B9
S32D0000C8F0773907F54B73184602F0A3FA0346002B05D0124B03221A70012387F8773907F52E73184602F095FA9F
S32D0000C9180346002BB1D00B4B04221A70012387F87739AAE70000C040000090409A99193FC4CF0500CCCF05007F
S32D0000C940D8CF0500E4CF0500C81A0020E517002007F68813A3F51973196807F68813A3F519735A6807F68813F4
S32D0000C968A3F519739B6807F59D6004F055FC304808F0E5FF2E4809F097FB002387F8763997F87639002B41F0FC
S32D0000C990CE812A4B1B78012B56D107F069FD034618463DF0B1F90346C7F8183907F59D630121184604F084FFA8
S32D0000C9B8D223002220491E4809F01AF8E1230022D7F818191A4809F04BF8B42300221B49174809F00DF807F6E5
S32D0000C9E08813A3F5EC7307F593621146184603F0F1FB07F5F661C32300220F4809F01FF807F5F663184627F086
S32D0000CA0817FA07F59363184603F06AFB07F59363184603F0EAFB0346002BB1D0012387F8763907F59D6318467E
S32D0000CA3004F096FDA8E700BFC81A0020E5170020F4CF050004D00500DF4B1B78032B40F0C783DE4BC7F830398E
S32D0000CA5807F5FC6318460AF09DFD07F5FC6207F5F963D949184627F043FD07F5F96338464FF4C84201924FF4E1
S32D0000CA807F0200924FF00002D24901F091FF07F5F963184627F0D0F907F5FC6318460AF07FFD3B461E211846B5
S32D0000CAA802F0E0F93B46184602F066F807F2FC7318460AF06FFD07F2FC7207F2E473C449184627F015FD07F2F6
S32D0000CAD0E47307F174004FF4C84201924FF400420092BE4ABB4901F063FF07F2E473184627F0A2F907F2FC7357
S32D0000CAF818460AF051FD07F174031E21184602F0B1F907F17403184602F036F807F6180318460AF03FFD07F62C
S32D0000CB20180207F50063AE49184627F0E5FC07F5006307F1E8004FF4C84201924FF6FF720092A84AA34901F0EB
S32D0000CB4833FF07F50063184627F072F907F6180318460AF021FD07F1E8031E21184602F081F907F1E803184693
S32D0000CB7002F006F89749D7F830093DF015F803461C4607F6340318460AF008FD07F6340207F61C0394491846BF
S32D0000CB9827F0AEFC07F61C0307F5AE704FF40B0201924FF47F0200924FF00002214601F0FBFE07F61C03184633
S32D0000CBC027F03AF907F6340318460AF0E9FC07F5AE731E21184602F049F907F5AE73184601F0CEFF7B49D7F8D2
S32D0000CBE830093CF0DDFF03461C4607F5056318460AF0D0FC07F5056207F638037949184627F076FC07F638032F
S32D0000CC1007F5E8704FF40B0201924FF4004200926E4A214601F0C4FE07F63803184627F003F907F5056318466B
S32D0000CC380AF0B2FC07F5E8731E21184602F012F907F5E873184601F097FF6049D7F830093CF0A6FF03461C46CC
S32D0000CC6007F66C0318460AF099FC07F66C0207F654035F49184627F03FFC07F6540307F511704FF40B02019282
S32D0000CC884FF6FF720092554A214601F08DFE07F65403184627F0CCF807F66C0318460AF07BFC07F511731E212D
S32D0000CCB0184602F0DBF807F51173184601F060FF3B46184602F0BDF80346002B11D0D7F880093CF0D9FB38A3F7
S32D0000CCD8D3E900233CF076FA02460B46104619463CF008FF0346C7F8803907F5AE73184602F0A3F80346002BF5
S32D0000CD0011D0D7F880093CF0BFFB2BA3D3E900233CF05AFA02460B46104619463CF0EEFE0346C7F8803907F19A
S32D0000CD287403184602F089F80346002B11D0D7F87C093CF0A5FB20A3D3E900233CF042FA02460B4610461946C8
S32D0000CD503CF0D4FE0346C7F87C3907F5E873184602F06FF80346002B11D0D7F87C093CF08BFB13A3D3E90023FC
S32D0000CD783CF026FA02460B46104619463CF0BAFE0346C7F87C3907F1E803184602F055F80346002B31D0D7F88E
S32D0000CDA078093CF071FB06A3D3E900233CF00EFA02460B461EE000BF9A9999999999B93FFCA9F1D24D62503F05
S32D0000CDC8E517002000005C4318D005000000704120D0050000000C4228D0050000008C4230D0050038D00500C4
S32D0000CDF040D00500104619463CF080FE0346C7F8783907F51173184602F01BF80346002B11D0D7F878093CF034
S32D0000CE1837FBCDA3D3E900233CF0D2F902460B46104619463CF066FE0346C7F8783907F59D60D7F878390093D1
S32D0000CE40D7F87C39D7F88029012104F085FD07F59D60D7F878390093D7F87C39D7F88029022104F079FD07F59F
S32D0000CE689D60D7F878390093D7F87C39D7F88029032104F06DFDB4236422B549B54808F0B7FDB4237822D7F8CA
S32D0000CE908019B24808F0E8FDC8236422B049AF4808F0AAFDC8237822D7F87C19AB4808F0DBFDDC236422AB49DF
S32D0000CEB8A84808F09DFDDC237822D7F87819A54808F0CEFD64230022A549A24808F090FD07F59D63184604F0CD
S32D0000CEE06CFD0146642328229C4808F0BDFD782300229E49994808F07FFD07F59D63184604F078FB0146782371
S32D0000CF082822944808F0ACFD8C2300229649914808F06EFD07F59D63184604F057FD01468C2328228B4808F09B
S32D0000CF309BFD904BC7F82C398F4BC7F82839D7F828093DF015F904468C49D7F82C093CF02BFE034618463DF0BB
S32D0000CF580BF90346224688497E4808F049FD07F68813A3F519731C68D7F828093DF0FCF805468249D7F82C09A6
S32D0000CF803CF012FE034618463DF0F2F803462A462146724808F068FDD7F828093DF0E8F804467949D7F82C0935
S32D0000CFA83CF0FEFD034618463DF0DEF8034622467449684808F01CFD07F68813A3F519735C68D7F828093DF0AE
S32D0000CFD0CFF805466E49D7F82C093CF0E5FD034618463DF0C5F803462A4621465B4808F03BFD684BC7F8243905
S32D0000CFF8634BC7F8203907F59D630121184604F05BFC3223C7F81C39FF21524808F0DDFCD7F81C093CF074FEF8
S32D0000D0200446D7F81C093CF06FFE034600932346D7F82029D7F82419484809F0E7FA07F5926207F29443194619
S32D0000D048444808F0A9FD0346002B00F0A18007F68813A3F2F4431B6818463DF085F8044607F68813A3F59F63A0
S32D0000D0701B6818463DF07CF80546D7F824093DF077F80646D7F820093DF072F80146D7F81C39D7F81C29019240
S32D0000D09800930B46324629462046FFF7EDF90346002B7AD007F68813A3F2F4431B68D7F8241918463CF072FDB3
S32D0000D0C003461C46D7F81C093CF01EFE0346194620463CF025FF034683F0004207F68813A3F519731A6007F6CC
S32D0000D0E88813A3F59F631B68D7F8201918463CF055FD03461C46D7F81C093CF001FE0346194620463CF008FF73
S32D0000D11003461A4607F68813A3F519735A6007F68813A3F51973196807F68813A3F519735A6807F68813A3F5E7
S32D0000D13819739B6807F59D6004F06EF807F59D63184604F081F828E0FCA9F1D24D62503F48D00500C81A002053
S32D0000D1604CD0050050D0050054D005005CD0050064D0050000001643000034430000B4426CD005000000D242AD
S32D0000D1880000F04278D00500000007430000204307F59D63184604F0DFF907F511731846FFF7D6F907F5E8732D
S32D0000D1B01846FFF7D1F907F5AE731846FFF7CCF907F1E8031846FFF7C7F907F174031846FFF7C2F93B461846A9
S32D0000D1D8FFF7BEF9FFF7D4BBD44B1B78042B40F0D5824FF00003C7F84439D14BC7F840394FF00001D7F8440961
S32D0000D2003CF0D2FC034618463CF0B2FF03460022CA49CB4808F0F0FB07F59D63184604F013FA03461C68C749D6
S32D0000D228D7F844093CF0BCFC034618463CF09CFF034600222146C04808F012FCC049D7F844093CF0ADFC034647
S32D0000D25018463CF08DFF03460022BC49B84808F0CBFB07F59D63184604F0EEF9034604331C68B749D7F8440917
S32D0000D2783CF096FC034618463CF076FF034600222146AD4808F0ECFBB049D7F844093CF087FC034618463CF045
S32D0000D2A067FF03460022AC49A54808F0A5FB07F59D63184604F0C8F9034608331C68A749D7F844093CF070FC5A
S32D0000D2C8034618463CF050FF0346002221469A4808F0C6FBA049D7F844093CF061FC034618463CF041FF0346BF
S32D0000D2F000229C49924808F07FFB07F59B63184607F0B6FB04469849D7F844093CF04CFC034618463CF02CFF04
S32D0000D318034600222146884808F0A2FB9149D7F844093CF03DFC034618463CF01DFF034600228D49804808F065
S32D0000D3405BFB07F2D443184607F092FB04468949D7F844093CF028FC034618463CF008FF034600222146764885
S32D0000D36808F07EFB8249D7F844093CF019FC034618463CF0F9FE034600227E496E4808F037FB07F59A631846CB
S32D0000D39007F06EFB04467A49D7F844093CF004FC034618463CF0E4FE034600222146644808F05AFB07F68803B2
S32D0000D3B818460AF0EFF807F6880207F507636F49184627F095F807F5076207F1E8004FF4C84300934FF40043B5
S32D0000D3E01E2101F02FFA07F50763184626F024FD07F6880318460AF0D3F807F1E8031E21184601F033FD07F682
S32D0000D408A40318460AF0C6F807F6A40207F68C035B49184627F06CF807F68C0207F5AE704FF40B0300934FF4C1
S32D0000D4307F033C2101F006FA07F68C03184626F0FBFC07F6A40318460AF0AAF807F5AE731E21184601F00AFDB7
S32D0000D45807F50C6318460AF09DF807F50C6207F6A8034849184627F043F807F6A80207F5E8708B230093FF239D
S32D0000D480B42101F0DFF907F6A803184626F0D4FC07F50C6318460AF083F807F5E8731E21184601F0E3FC07F6F5
S32D0000D4A8DC0318460AF076F807F6DC0207F6C4033549184627F01CF807F6C40207F511708B230093FF23D22175
S32D0000D4D001F0B8F907F6C403184626F0ADFC07F6DC0318460AF05CF807F511731E21184601F0BCFC07F1E8037A
S32D0000D4F8184601F041FB07F5E873184601F03CFB07F51173184601F037FB07F5E873184601F088FC0346002BFF
S32D0000D52038D007F2C4434FF00001184607F0D8FD30E000BFE51700200000BE4280D00500C81A00200000704178
S32D0000D5480000F04188D00500000034420000704290D00500000096420000B4429CD005000000D2420000024302
S32D0000D570A4D005000000114300002043ACD0050000002F43B4D00500C0D00500CCD00500D8D0050007F511737E
S32D0000D598184601F047FC0346002B05D007F2C4437449184607F098FD07F1E803184601F039FC0346002B06D032
S32D0000D5C007F59C636E49184605F06AF80DE007F5AE73184601F02AFC0346002B05D007F59C636849184605F00F
S32D0000D5E85BF8674BC7F83C39664BC7F8383907F59D630121184604F05FF93223C7F83439FF21614808F0E1F917
S32D0000D610D7F834093CF078FB0446D7F834093CF073FB034600932346D7F83829D7F83C19574808F0EBFF07F53B
S32D0000D638926207F294431946534808F0ADFA0346002B7CD007F68813A3F2F4431B6818463CF08AFD044607F668
S32D0000D6608813A3F59F631B6818463CF081FD0546D7F83C093CF07CFD0646D7F838093CF077FD0146D7F8343959
S32D0000D688D7F83429019200930B46324629462046FEF7F2FE0346002B56D007F68813A3F2F4431B68D7F83C19FA
S32D0000D6B018463CF077FA03461C46D7F834093CF023FB0346194620463CF02AFC034683F0004207F68813A3F5C2
S32D0000D6D819731A6007F68813A3F59F631B68D7F8381918463CF05AFA03461C46D7F834093CF006FB03461946DF
S32D0000D70020463CF00DFC03461A4607F68813A3F519735A6007F68813A3F51973196807F68813A3F519735A6886
S32D0000D72807F68813A3F519739B6807F59D6003F073FD07F59D63184603F086FD04E007F59D63184603F008FFB0
S32D0000D75007F511731846FEF7FFFE07F5E8731846FEF7FAFE07F5AE731846FEF7F5FE07F1E8031846FEF7F0FEB2
S32D0000D778FFF706B9000034430000A0420000A0C2000020430000F042C81A00204FF00003C7F86039C84BC7F810
S32D0000D7A05C394FF00001D7F860093CF0FDF9034618463CF0DDFC03460022C249C24808F01BF907F59D6318469A
S32D0000D7C803F014FF0446BF49D7F860093CF0E8F9034618463CF0C8FC034600222146B84808F03EF9B849D7F82E
S32D0000D7F060093CF0D9F9034618463CF0B9FC03460022B449B04808F0F7F807F59D63184603F0FDFE0446B0494A
S32D0000D818D7F860093CF0C4F9034618463CF0A4FC034600222146A64808F01AF9A949D7F860093CF0B5F9034636
S32D0000D84018463CF095FC03460022A5499E4808F0D3F807F59D63184603F0E7FE0446A149D7F860093CF0A0F93A
S32D0000D868034618463CF080FC034600222146944808F0F6F84FF00001D7F85C093CF090F9034618463CF070FC47
S32D0000D8900346002294498C4808F0AEF807F59D63184603F07DFE04468849D7F85C093CF07BF9034618463CF026
S32D0000D8B85BFC034600222146814808F0D1F88249D7F85C093CF06CF9034618463CF04CFC0346002283497A48EB
S32D0000D8E008F08AF807F59D63184603F066FE04467949D7F85C093CF057F9034618463CF037FC0346002221465B
S32D0000D9086F4808F0ADF87349D7F85C093CF048F9034618463CF028FC034600227249684808F066F807F59D6321
S32D0000D930184603F050FE04466A49D7F85C093CF033F9034618463CF013FC0346002221465D4808F089F867491F
S32D0000D958D7F85C093CF024F9034618463CF004FC034600226249564808F042F807F2DC43184607F079F8044643
S32D0000D9805E49D7F85C093CF00FF9034618463CF0EFFB0346002221464B4808F065F84F4BC7F85839564BC7F8A9
S32D0000D9A85439D7F854093CF0DFFB04464F49D7F858093CF0F5F8034618463CF0D5FB034622464E493E4808F0FE
S32D0000D9D013F807F68813A3F519731C68D7F854093CF0C6FB05464549D7F858093CF0DCF8034618463CF0BCFB32
S32D0000D9F803462A462146324808F032F8D7F854093CF0B2FB04463E49D7F858093CF0C8F8034618463CF0A8FBDD
S32D0000DA20034622463949284807F0E6FF07F68813A3F519735C68D7F854093CF099FB05463349D7F858093CF0CA
S32D0000DA48AFF8034618463CF08FFB03462A4621461B4808F005F807F6F803184609F09AFD07F6F80207F50E63EA
S32D0000DA702849184626F040FD07F50E6307F5E8708B2201924FF400420092144A224900F08FFF07F50E6318463C
S32D0000DA9826F0CEF907F6F803184609F07DFD07F5E8731E21184601F0DDF907F61413184609F070FD2EE000BF4A
S32D0000DAC00000BE42E4D00500C81A0020000070410000F041F0D00500000034420000704200D105000000964200
S32D0000DAE810D105001CD105002CD105000000B4423CD105000000D242000034436CD005000000F04278D00500E3
S32D0000DB100000074348D1050000007A4307F6141207F6FC038449184626F0E6FC07F6FC0307F511708B220192C7
S32D0000DB384FF6FF7200927F4A7F4900F035FF07F6FC03184626F074F907F61413184609F023FD07F511731E218B
S32D0000DB60184601F083F907F5E873184601F008F807F51173184601F003F807F51173184601F054F90346002BCC
S32D0000DB8802D0002387F8873907F5E873184601F049F90346002B05D0012387F88739674807F0CDFE97F88729F7
S32D0000DBB007F59D631146184603F082FE624BC7F85039624BC7F84C393223C7F84839FF215C4807F0FEFED7F822
S32D0000DBD848093CF095F80446D7F848093CF090F8034600932346D7F84C29D7F85019534808F008FD07F59262AE
S32D0000DC0007F2944319464F4807F0CAFF0346002B7CD007F68813A3F2F4431B6818463CF0A7FA044607F68813BC
S32D0000DC28A3F59F631B6818463CF09EFA0546D7F850093CF099FA0646D7F84C093CF094FA0146D7F84839D7F8CD
S32D0000DC504829019200930B46324629462046FEF70FFC0346002B56D007F68813A3F2F4431B68D7F8501918465A
S32D0000DC783BF094FF03461C46D7F848093CF040F80346194620463CF047F9034683F0004207F68813A3F519735D
S32D0000DCA01A6007F68813A3F59F631B68D7F84C1918463BF077FF03461C46D7F848093CF023F8034619462046D4
S32D0000DCC83CF02AF903461A4607F68813A3F519735A6007F68813A3F51973196807F68813A3F519735A6807F608
S32D0000DCF08813A3F519739B6807F59D6003F090FA07F59D63184603F0A3FA04E007F59D63184603F025FC07F596
S32D0000DD1811731846FEF71CFC07F5E8731846FEF717FCFEF72DBE084B00221A70FEF79CBD4CD105000000BE42E2
S32D0000DD4000007A43C81A0020000020430000F042E5170020B0B582B000AF78603960386800F0F2F80546442065
S32D0000DD6809F048FB03461C462946204601F0C4FF2146786800F0FEF878680837BD46B0BD90B585B000AF786060
S32D0000DD907B68184600F001F9F860FB681B68002B0CD0786800F006F90446F86800F00FF903461B6819462046F3
S32D0000DDB800F013F9FB6800221A607B6818461437BD4690BD80B584B000AFF860B9607A60FB68B9687A6818463F
S32D0000DDE000F027F9FB6818461037BD4680BDB0B582B000AF786039607C68386800F002F90546386800F0D6F8EE
S32D0000DE080346184600F007F903461A4629462046FFF7D8FF7B6818460837BD46B0BD90B585B000AF78607B6836
S32D0000DE30184600F014F9F860FB681B68002B0CD0786800F019F90446F86800F022F903461B681946204600F00C
S32D0000DE5826F9FB6800221A607B6818461437BD4690BDF0B585B000AFF860B9607A60B86800F026F90546786874
S32D0000DE8000F02CF90646482009F0B8FA03461C4632462946204601F091FB2146F86800F037F9F8681437BD46F6
S32D0000DEA8F0BD90B585B000AF78607B68184600F03AF9F860FB681B68002B0CD0786800F03FF90446F86800F053
S32D0000DED048F903461B681946204600F04CF9FB6800221A607B6818461437BD4690BD80B584B000AFF860B960B9
S32D0000DEF87A60FB68B9687A68184600F060F9FB6818461037BD4680BDB0B582B000AF786039607C68386800F0A2
S32D0000DF203BF90546386800F00FF90346184600F040F903461A4629462046FFF7D8FF7B6818460837BD46B0BDB1
S32D0000DF4880B483B000AF78607B6818460C37BD4680BC704780B582B000AF786039607B683A681146184600F092
S32D0000DF7040F97B6818460837BD4680BD80B582B000AF786039607B6839681846FFF7E6FF7B6818460837BD46C3
S32D0000DF9880BD80B582B000AF78607B68184600F038F9034618460837BD4680BD80B582B000AF78607B68184679
S32D0000DFC000F038F9034618460837BD4680BD80B483B000AF78607B6818460C37BD4680BC704780B582B000AF6E
S32D0000DFE8786039603B68002B04D01A68183212681846904700BF0837BD4680BD80B582B000AF78607B68184610
S32D0000E01000F01DF9034618460837BD4680BD80B483B000AF78607B6818460C37BD4680BC704790B585B000AF25
S32D0000E038F860B9607A60FC687868FFF7ECFF024607F108031946204600F012F9FB6818461437BD4690BD80B5AE
S32D0000E06082B000AF78607B68184600F01EF9034618460837BD4680BD80B582B000AF78607B68184600F01EF935
S32D0000E088034618460837BD4680BD80B483B000AF78607B6818460C37BD4680BC704780B582B000AF7860396055
S32D0000E0B03B68002B04D01A68183212681846904700BF0837BD4680BD80B483B000AF78607B6818460C37BD4672
S32D0000E0D880BC704780B483B000AF78607B6818460C37BD4680BC704780B582B000AF786039607B683A6811465C
S32D0000E100184600F0F9F87B6818460837BD4680BD80B582B000AF786039607B6839681846FFF7E6FF7B6818466D
S32D0000E1280837BD4680BD80B582B000AF78607B68184600F0F1F8034618460837BD4680BD80B582B000AF78602E
S32D0000E1507B68184600F0F1F8034618460837BD4680BD80B483B000AF78607B6818460C37BD4680BC704780B5C4
S32D0000E17882B000AF786039603B68002B04D01A68183212681846904700BF0837BD4680BD80B582B000AF7860DE
S32D0000E1A07B68184600F0D6F8034618460837BD4680BD80B483B000AF78607B6818460C37BD4680BC704790B57F
S32D0000E1C885B000AFF860B9607A60FC687868FFF7ECFF024607F108031946204600F0CBF8FB6818461437BD4603
S32D0000E1F090BD80B582B000AF786039607B68184600F0D6F87868FFF7C8FE02463B6813607B6818460837BD46B1
S32D0000E21880BD80B582B000AF78607B68184600F0DDF8034618460837BD4680BD80B582B000AF78607B68184652
S32D0000E24000F0DCF8034618460837BD4680BD80B584B000AF78607868FFF79FFE03461B68FB607868FFF799FECF
S32D0000E268034600221A60FB6818461037BD4680BDB0B584B000AFF860B9607A60FC68B86800F0C4F8054678686D
S32D0000E290FFF7C5FE03461A462946204600F0C4F8FB6818461037BD46B0BD80B582B000AF78607B68184600F0E6
S32D0000E2B8D3F8034618460837BD4680BD80B582B000AF78607B68184600F0D2F8034618460837BD4680BD80B503
S32D0000E2E082B000AF78607B68184600F0D1F8034618460837BD4680BD80B582B000AF786039607B68184600F07F
S32D0000E308D9F87868FFF70FFF02463B6813607B6818460837BD4680BD80B582B000AF78607B68184600F0E0F81D
S32D0000E330034618460837BD4680BD80B582B000AF78607B68184600F0DFF8034618460837BD4680BD80B584B014
S32D0000E35800AF78607868FFF7E6FE03461B68FB607868FFF7E0FE034600221A60FB6818461037BD4680BDB0B5E9
S32D0000E38084B000AFF860B9607A60FC68B86800F041F805467868FFF70CFF03461A462946204600F0BDF8FB68E2
S32D0000E3A818461037BD46B0BD80B582B000AF78607B68184600F0CCF87B6818460837BD4680BD80B582B000AF79
S32D0000E3D078607B68184600F0CFF8034618460837BD4680BD80B582B000AF78607868FFF7ECFF03461846083794
S32D0000E3F8BD4680BD80B582B000AF7860786800F0CDF8034618460837BD4680BD80B483B000AF78607B681846DF
S32D0000E4200C37BD4680BC704790B585B000AFF860B9607A607868FFF7F2FD03461946F86800F0BCF8FC68B8682C
S32D0000E448FFF7E4FF03461946204600F0C5F8FB6818461437BD4690BD80B582B000AF78607868FFF738FF034672
S32D0000E47018460837BD4680BD80B582B000AF7860786800F0BEF8034618460837BD4680BD80B483B000AF786019
S32D0000E4987B6818460C37BD4680BC704780B582B000AF7860786800F0B4F8034618460837BD4680BD80B582B0E5
S32D0000E4C000AF78607B68184600F0B1F87B6818460837BD4680BD80B582B000AF78607B68184600F0B4F80346F9
S32D0000E4E818460837BD4680BD80B582B000AF78607868FFF7ECFF034618460837BD4680BD80B582B000AF786066
S32D0000E510786800F0B2F8034618460837BD4680BD90B585B000AFF860B9607A607868FFF740FE03461946F868AD
S32D0000E53800F0ABF8FC68B868FFF768FF03461946204600F049F8FB6818461437BD4690BD80B582B000AF7860B8
S32D0000E560786800F0A8F87B68184600F0B0F87B6818460837BD4680BD80B483B000AF78607B6818460C37BD460F
S32D0000E58880BC704780B582B000AF7860786800F0A7F8034618460837BD4680BD80B582B000AF78607868FFF72B
S32D0000E5B0EDFF034618460837BD4680BD80B582B000AF786039603868FFF729FD03461946786800F093F87B6802
S32D0000E5D818460837BD4680BD80B582B000AF786039603868FFF712FF03461A687B681A607B6818460837BD465F
S32D0000E60080BD80B582B000AF78607868FFF74AFF034618460837BD4680BD80B483B000AF78607B6818460C370A
S32D0000E628BD4680BC704780B582B000AF7860786800F072F87B68184600F07AF87B6818460837BD4680BD80B40F
S32D0000E65083B000AF78607B6818460C37BD4680BC704780B582B000AF7860786800F071F8034618460837BD4658
S32D0000E67880BD80B582B000AF78607868FFF7EDFF034618460837BD4680BD80B582B000AF786039603868FFF744
S32D0000E6A088FD03461946786800F05DF87B6818460837BD4680BD80B582B000AF7860786800F063F87B681846E0
S32D0000E6C80837BD4680BD80B483B000AF78607B6800221A607B6818460C37BD4680BC704780B483B000AF7860D0
S32D0000E6F07B6818460C37BD4680BC704780B582B000AF786039603868FFF789FC03461946786800F044F87B6849
S32D0000E71818460837BD4680BD80B582B000AF7860786800F043F87B6818460837BD4680BD80B483B000AF78604F
S32D0000E7407B6800221A607B6818460C37BD4680BC704780B483B000AF78607B6818460C37BD4680BC704780B515
S32D0000E76882B000AF786039603868FFF71EFD03461946786800F024F87B6818460837BD4680BD80B483B000AF16
S32D0000E79078607B6818460C37BD4680BC704780B483B000AF786039607B6818460C37BD4680BC704780B483B0A1
S32D0000E7B800AF78607B6818460C37BD4680BC704780B483B000AF786039607B6818460C37BD4680BC7047000031
S32D0000E7E080B582B000AF786039607B68012B0CD13B684FF6FF72934207D1064809F0ACF8054A0649034808F0C6
S32D0000E80873FD00BF0837BD4680BD00BFE4170020000000207979010080B500AF4FF6FF710120FFF7D9FF80BD82
S32D0000E83080B400AF024B1846BD4680BC704700BFFFFF7F7F2DE9B04384B000AFF860B9607A603B60FB684FF403
S32D0000E858A0721A60FB68F0225A60FB686FF07F429A60FB684C4ADA60FB684C4A1A61FB6800225A61FB684A4A7C
S32D0000E8809A62FB68002283F82D20FB685C33184625F0AAFAFB681B6818463AF0D3FD4FF000024FF080433AF06D
S32D0000E8A871FF02460B4614461D46786825F012FB034618463AF0C2FD4FF000024FF080433AF060FF02460B4685
S32D0000E8D090469946354806F07FFC034618463AF0C1FD02460B46404649463AF025FE02460B46204629463AF055
S32D0000E8F867FC02460B46104619463BF0FBF80246FB685A63B8683BF0FFF90246FB689A63786825F0DFFA0446B8
S32D0000E920224806F059FC034604FB03F318463BF0EBF90246FB685A651C4806F057FC034618463BF0E5F902465A
S32D0000E948FB689A65FB685C337968184625F07CFAFB6800221A76FB6801225A76FB68002283F82C20FB68002247
S32D0000E97083F82D203A68FB68DA61BA6AFB681A62FB681B691A46FB685A62FB68DA69FB681A63FB68184610377A
S32D0000E998BD46BDE8B08300BF6666660021212100E22B8A00C81A002090B585B000AFF860B9607A603B60FB6817
S32D0000E9C04FF4A0721A60FB68F0225A60FB686FF07F429A60FB682E4ADA60FB682D4A1A61FB6800225A61FB68A1
S32D0000E9E82B4A9A62FB68002283F82D20FB685C33184625F0F5F9FB68BA685A63FB687A689A63386825F066FA57
S32D0000EA100446224806F0E0FB034604FB03F318463BF072F90246FB685A651C4806F0DEFB034618463BF06CF94D
S32D0000EA380246FB689A65FB685C333968184625F003FAFB6800221A76FB6801225A76FB68002283F82C20FB68E9
S32D0000EA60002283F82D203A6AFB68DA617A6AFB681A62FB681B691A46FB685A62FB68DA69FB681A63FB681846EC
S32D0000EA881437BD4690BD00BF6666660021212100E22B8A00C81A0020F0B58BB002AF78607B681B6B194633482C
S32D0000EAB006F08FFF7B685C6B304806F08DFB034618463BF025F90346194620463BF06AF8034618463BF04CFB70
S32D0000EAD805467B689B6B18463BF046FB06467B685C6D244806F074FB03465B0018463BF00BF90346194620460A
S32D0000EB003BF052F8034618463BF032FB04467B689B6D18463BF02CFB03460093234632462946164807F00FFC02
S32D0000EB287B6803F15C0207F108031146184625F099FC7B685B6B18463BF016FB04467B689B6B4FF08141184653
S32D0000EB503BF02AF8034618463BF00AFB034607F108012246054806F06AFF07F10803184625F062F900BF24372A
S32D0000EB78BD46F0BDC81A0020B0B584B000AF78607B685B7E002B00F046810023FB730023BB737B6803F13C0109
S32D0000EBA07B6840331A46924806F0FAFF7B68DC6B7B685D6B8E4806F00FFB034618463BF0A7F803461946284696
S32D0000EBC83AF0ECFF0346194620463BF0A3FA0346002B44D07B68DC6B7B685A6B7B685B6D194610463AF0DCFF75
S32D0000EBF003461D467E4806F0EFFA034618463BF087F80346194628463AF0CEFF03464FF07E5118463AF0C6FFA4
S32D0000EC180346194620463BF073FA0346002B1ED07B681A6C7B689B6B194610463BF072FA0346002B13D07B68EE
S32D0000EC401C6C7B689A6B7B689B6D194610463AF0ABFF0346194620463BF056FA0346002B01D0012200E00022CF
S32D0000EC687B6883F82C207B6803F13C017B6840331A465D4806F090FF034683F00103DBB2002B6ED17B6803F152
S32D0000EC9044017B6848331A46554806F081FF0346002B62D07B68DC6B7B685D6B504806F09DFA034618463BF0CE
S32D0000ECB82BF80346194628463AF070FF0346194620463BF027FA0346002B27D07B68DC6B7B685A6B7B685B6D1A
S32D0000ECE0194610463AF060FF03461D46404806F073FA034618463BF00BF80346194628463AF052FF03464FF043
S32D0000ED087E5118463AF04AFF0346194620463BF0F7F90346002B01D0012300E00023FB737B681A6C7B689B6BE8
S32D0000ED30194610463BF0F2F90346002B13D07B681C6C7B689A6B7B689B6D194610463AF02BFF0346194620463E
S32D0000ED583BF0D6F90346002B01D0012300E00023BB73FB7B002B19D0BB7B002B16D07B685B69002B03D17B689F
S32D0000ED8001225A6106E07B685B69012B02D17B6802225A617B681A6A7B681A637B6801221A763CE07B685B6919
S32D0000EDA8022B03D17B6803225A6106E07B685B69032B02D17B6800225A617B6893F82C30002B13D07B689A6A6C
S32D0000EDD07B681A637B6893F82D3083F00103DBB2002B0FD07B68012283F82D200AE000BFC81A00207B68DA693D
S32D0000EDF87B681A637B68002283F82D207B6800221A76FFF711FD02467B68DA63FFF70CFD02467B681A64786837
S32D0000EE20FFF73EFE00BF1037BD46B0BD80B483B000AF78607B681B7E18460C37BD4680BC704780B485B000AF03
S32D0000EE4878600023FB737B685B69012B04D17B6802225A610123FB73FB7B18461437BD4680BC704780B582B0BB
S32D0000EE7000AF7860396038683AF04AFF02467B689A6500BF0837BD4680BD80B483B000AF78607B6823F00043B2
S32D0000EE9818460C37BD4680BC704780B584B000AFF860B9607A60B968F8683BF029F90346002B01D0BB6809E033
S32D0000EEC07968F8683BF02AF90346002B01D07B6800E0FB6818461037BD4680BD80B584B000AFF860C7E9002302
S32D0000EEE8D7E90623D7E900013AF06AF902460B46F968C1E90023FB68D3E90023F968C1E90223F9684FF00002EA
S32D0000EF104FF00003C1E90423FB684FF00002DA62FB680A4A1A62FB68094A5A62FB68074A9A62F9684FF00002E9
S32D0000EF384FF00003C1E90C23FB6818461037BD4680BD00BFACC5273795BFD633000000002DE9B04F8CB000AF5D
S32D0000EF60F861C7E90423D7E91423D7E904013AF02BF902460B46F969C1E90023FB69D3E90445FB69D3E90001F7
S32D0000EF88D7E916233AF0D4FA02460B46204629463AF018F902460B46F969C1E90423A6A3D3E90023D7E91601F6
S32D0000EFB03AF034FD0346002B04D0A1A3D3E90023C7E91623FB69D3E900014FF000024FF000033AF041FD03462F
S32D0000EFD8002B0BD0FB69D3E902014FF000024FF000033AF017FD0346002B28D1FB69D3E900014FF000024FF013
S32D0000F00000033AF00BFD0346002B0BD0FB69D3E902014FF000024FF000033AF01DFD0346002B10D1FB69D3E9FF
S32D0000F0280023BA6023F00043FB6085A3D3E90023D7E902013AF0EEFC0346002B06D0F9694FF000024FF00003BF
S32D0000F050C1E90423FB69D3E90C01D7E904233AF0B3F802460B463A6023F000437B6076A3D3E90023D7E90001BB
S32D0000F0783AF0E4FC0346002B06D0F9694FF000024FF00003C1E90423FB69D3E90C01D7E904233AF095F802464D
S32D0000F0A00B46904623F000494FF00002684B404649463AF0C7FC0346002B03D0FB694FF00002DA624FF0000260
S32D0000F0C8624BC7E90A23FB69D3E90423104619463AF010FD03465E4A5E491846FFF7DDFE034618463AF0CCF900
S32D0000F0F002460B46F969C1E90423FB69D3E90001FB69D3E902233AF05FF802460B4610461946D7E916233AF0CE
S32D0000F11839FB02460B46F969C1E90623FB69D3E90023F969C1E90223FB69DB6A18463AF0A7F904460D46FB6981
S32D0000F1401B6A18463AF0A0F9FB69D3E900233AF0F3F902460B4690469946FB695B6A18463AF092F9FB69D3E9F8
S32D0000F16804233AF0E5F902460B46404649463AF029F802460B4690469946FB699B6A18463AF07EF9FB69D3E97B
S32D0000F19006233AF0D1F902460B46404649463AF015F802460B46204629463AF00FF802460B46104619463AF038
S32D0000F1B8A1FC0246FB69DA62F969D7E90423C1E90C23254B7B62FB69DB6A1846FFF759FE0346214918463AF0A6
S32D0000F1E089FF0346002B11D0FB69D3E90023924623F0004B14A3D3E90023504659463AF02BFC0346002B01D04A
S32D0000F208012300E00023002B0ED0FB69DB6A4FF0000118463AF088FF0346002B01D00E4A00E00E4AFB69DA623B
S32D0000F230FB69DB6A18463037BD46BDE8B08F00BFFCA9F1D24D62503F9A9999999999B93F0000E03F00004940BF
S32D0000F25800004842000048C2CDCCCC3DCDCCCCBD80B485B000AFF860B9607A603B60FB68BA681A62FB687A68EC
S32D0000F2805A62FB683A689A6200BF1437BD4680BC7047000080B582B000AF786039607B68012B0CD13B684FF648
S32D0000F2A8FF72934207D1064808F052FB054A0649034808F019F800BF0837BD4680BD00BFE81700200000002059
S32D0000F2D07979010080B500AF4FF6FF710120FFF7D9FF80BD80B586B002AF786039603A23FB6038683AF0C8F889
S32D0000F2F802460B467868CDE90023044B3A22044900F062F878681037BD4680BD50D105004D3B050090B583B0C2
S32D0000F32000AF7860396005F0A3F8034618463AF0EBFC0346796818463AF034FC034601221446194638683AF086
S32D0000F348DFFE0346002B01D100231C46E3B218460C37BD4690BD000080B582B000AF7860064A7B681A607B68EB
S32D0000F3700433184624F038FD7B6818460837BD4680BD00BFBCD1050080B582B000AF7860064A7B681A607B6802
S32D0000F3980433184624F04CFD7B6818460837BD4680BD00BFBCD1050080B582B000AF78607868FFF7E5FF1C215F
S32D0000F3C0786808F019F87B6818460837BD4680BD08B490B588B000AFF860B9607A607B680733DB08DB00ADEBD0
S32D0000F3E8030D6B460733DB08DB00FB6107F130033B61BC683B69FA6A7968F869A047B861BB69FA69D41807F142
S32D0000F4101403184608F0C2F807F114032246F969F86800F00CF807F11403184608F0B8F8F8682037BD46BDE806
S32D0000F438904001B0704790B585B000AFF860B9607A603B60FC68F86824F0BEFB03463A681946204625F004F80D
S32D0000F4607A68B968F86800F005F8FB6818461437BD4690BD80B584B000AFF860B9607A607A68B968F86800F01C
S32D0000F48804F800BF1037BD4680BD90B587B000AFF860B9607A603B7023467A68B968F86800F004F800BF1C3729
S32D0000F4B0BD4690BD80B586B000AFF860B9607A603B70B86800F03EF80346002B05D0BA687B689A4201D0012369
S32D0000F4D800E00023002B02D017481AF043F97968B86800F03AF803467B617B690F2B10D907F114030022194682
S32D0000F500F86824F06FFB03461946F86824F05CFB7B691946F86824F05DFBF86824F056FB03467A68B96818460E
S32D0000F52824F0A8FB7B691946F86824F051FB00BF1837BD4680BD00BF88D1050080B483B000AF78607B68002B94
S32D0000F5500CBF01230023DBB218460C37BD4680BC7047B0B582B000AF786039607C683B1D184600F00AF82A46A4
S32D0000F5783968204600F00FF8034618460837BD46B0BD80B483B000AF786000BF18460C37BD4680BC704780B499
S32D0000F5A085B000AFF860B9603A71BA68FB68D31A18461437BD4680BC7047000090B587B000AFF860B9607A60B6
S32D0000F5C8FB681846FFF7C8FE184AFB681A60FB68BA68DA61FB687A681A62FB6803F1300407F11403184607F0E9
S32D0000F5F0D5FF07F114031A460F49204624F07CFF07F11403184607F0CBFF04F031FF034618463AF079FB02467E
S32D0000F618FB685A62FB68002283F82D20FB6800229A62FB6818461C37BD4690BD60D20500F0D1050080B582B00F
S32D0000F64000AF786004F014FF034618463AF05CFB02467B685A627B6800229A6200BF0837BD4680BD90B591B03A
S32D0000F66800AF78607B689B6A1A46A44BD41807F13803184607F08EFF07F1380207F120032146184624F034FF5C
S32D0000F69007F13803184607F083FF07F12003184624F0C2FE014600230022974806F0A4F904F0DEFE0346184680
S32D0000F6B83AF026FB02467B685B6A194610463AF06DFA0346FB6307F10803F96B1846FFF705FE0F2300228B4916
S32D0000F6E0894806F089F907F10803184624F09CFE01461E230022844806F07EF92D2300228349814806F078F953
S32D0000F7087B689B6A0C2B00F25E8201A252F823F04DF70000A9F70000F9F7000053F80000ADF800003DF90000E8
S32D0000F73097F90000E7F9000033FA000081FA0000CFFA000029FB000077FB00007B681B6A7049184605F0C4FC00
S32D0000F7587B68D8694FF000034FF07E524FF0000101F05AFD7B68DB69184601F06DFD7B685B6A67491846FFF7FA
S32D0000F780CDFD0346002B00F02C8204F071FE034618463AF0B9FA02467B685A627B689B6A5A1C7B689A621CE276
S32D0000F7A87B68D8694FF07C534FF000024FF0000101F032FD7B68DB69184601F045FD7B685B6A54491846FFF70F
S32D0000F7D0A5FD0346002B00F0068204F049FE034618463AF091FA02467B685A627B689B6A5A1C7B689A62F6E1EB
S32D0000F7F87B681B6A4849184605F06EFC7B68D8694FF000034FF00002444901F005FD7B68DB69184601F018FD7B
S32D0000F8207B685B6A40491846FFF778FD0346002B00F0DB8104F01CFE034618463AF064FA02467B685A627B68F9
S32D0000F8489B6A5A1C7B689A62CBE17B681B6A3549184605F041FC7B68D8694FF000034FF00002314901F0D8FC30
S32D0000F8707B68DB69184601F0EBFC7B685B6A2A491846FFF74BFD0346002B00F0B08104F0EFFD034618463AF010
S32D0000F89837FA02467B685A627B689B6A5A1C7B689A62A0E17B681B6A2049184605F014FC7B68D8694FF00003D2
S32D0000F8C0184A1D4901F0ACFC7B68DB69184601F0BFFC7B685B6A14491846FFF71FFD0346002B00F0868104F0B4
S32D0000F8E8C3FD034618463AF00BFA02467B685A627B689B6A5A1C7B689A6276E1FCD10500C81A00201CD205001A
S32D0000F91028D20500000034430080BB440000FA430000F0429A9999BE0000FA440000B4429A99993E00007042EB
S32D0000F9389A99193F7B681B6AAD49184605F0CCFB7B68D8694FF00003AA4A4FF0000101F063FC7B68DB6918462F
S32D0000F96001F076FC7B685B6AA5491846FFF7D6FC0346002B00F0568104F07AFD034618463AF0C2F902467B68FD
S32D0000F9885A627B689B6A5A1C7B689A6246E17B68D8694FF03F434FF000024FF0000101F03BFC7B68DB6918461E
S32D0000F9B001F04EFC7B685B6A92491846FFF7AEFC0346002B00F0308104F052FD034618463AF09AF902467B6886
S32D0000F9D85A627B689B6A5A1C7B689A6220E17B68D8694FF00003864A824901F015FC7B68DB69184601F028FC6A
S32D0000FA007B685B6A7F491846FFF788FC0346002B00F00C8104F02CFD034618463AF074F902467B685A627B687A
S32D0000FA289B6A5A1C7B689A62FCE07B68D8694FF00003734A4FF0000101F0EEFB7B68DB69184601F001FC7B68E7
S32D0000FA505B6A6E491846FFF761FC0346002B00F0E78004F005FD034618463AF04DF902467B685A627B689B6AB4
S32D0000FA785A1C7B689A62D7E07B68D8694FF000034FF07C525B4901F0C7FB7B68DB69184601F0DAFB7B685B6A97
S32D0000FAA05B491846FFF73AFC0346002B00F0C28004F0DEFC034618463AF026F902467B685A627B689B6A5A1C61
S32D0000FAC87B689A62B2E07B681B6A5049184605F003FB7B68D8694FF000034FF00002454901F09AFB7B68DB696B
S32D0000FAF0184601F0ADFB7B685B6A47491846FFF70DFC0346002B00F0978004F0B1FC034618463AF0F9F8024636
S32D0000FB187B685A627B689B6A5A1C7B689A6287E07B68D8694FF07C534FF000024FF0000101F072FB7B68DB6944
S32D0000FB40184601F085FB7B685B6A2E491846FFF7E5FB0346002B71D004F08AFC034618463AF0D2F802467B6880
S32D0000FB685A627B689B6A5A1C7B689A6262E07B681B6A2849184605F0AFFA7B68D8694FF00003254A4FF000014A
S32D0000FB9001F046FB7B68DB69184601F059FB7B685B6A18491846FFF7B9FB0346002B47D004F05EFC03461846BA
S32D0000FBB83AF0A6F802467B685A627B689B6A5A1C7B689A6238E07B68DB69184601F0C4FC7B68012283F82D2017
S32D0000FBE02FE000BF2DE000BF2BE000BF29E000BF27E000BF25E000BF000070429A99993E0000FA4500007A4488
S32D0000FC089A9999BE0000FA4300803B45000020420000FA4400002043CDCC4C3E00BF0CE000BF0AE000BF08E0E6
S32D0000FC3000BF06E000BF04E000BF02E000BF00E000BF07F10803184624F0F6F807F12003184624F0F1F800BFC7
S32D0000FC584437BD4690BD00BF80B483B000AF78607B6893F82D3018460C37BD4680BC704780B483B000AF7860B6
S32D0000FC807B68012283F82D2000BF0C37BD4680BC704780B582B000AF786039603B6830331946786824F0E2FBD3
S32D0000FCA878680837BD4680BD80B582B000AF7860084A7B681A607B683033184624F0B8F87B681846FFF75CFB3C
S32D0000FCD07B6818460837BD4680BD00BF60D2050080B582B000AF78607868FFF7E1FF4821786807F081FB7B680D
S32D0000FCF818460837BD4680BD90B585B000AF786039607B681846FFF727FB164A7B681A607B683A68DA617B68AE
S32D0000FD2003F12C0407F10C03184607F037FC07F10C031A460E49204624F0DEFB07F10C03184607F02DFC04F078
S32D0000FD4893FB0346184639F0DBFF02467B685A627B68002283F828207B6818461437BD4690BD00BF04D305002F
S32D0000FD709CD2050080B582B000AF786004F078FB0346184639F0C0FF02467B685A627B68002283F8202000BFA8
S32D0000FD980837BD4680BD000090B5A9B000AF78607B6803F12C0107F13803554A184600F0DBF807F1380207F178
S32D0000FDC050031146184624F051FB07F15001002300224E4805F033FE07F15003184624F02BF804F045FB034606
S32D0000FDE8184639F08DFF02467B685B6A1946104639F0D4FE0346C7F89C3007F12003D7F89C101846FFF76AFA18
S32D0000FE100F2300223E493D4805F0EEFD07F12003184624F001FB01461E230022374805F0E3FD2D23002237490B
S32D0000FE38344805F0DDFD7B68DB69184604F014FE024607F1680311461846FFF747FA07F1080307F168022E4953
S32D0000FE60184600F098F807F16803184623F0E4FF07F1080207F180031146184624F0F6FA07F180013C230022AF
S32D0000FE88204805F0D8FD07F18003184623F0D0FF204BC7F898307B68DB69184604F0E4FD0346012214461B49E9
S32D0000FEB018463AF033F90346002B01D100231C46E3B2002B03D07B68012283F820207B6893F82030002B03D095
S32D0000FED87B68012283F8282007F10803184623F0A7FF07F12003184623F0A2FF07F13803184623F09DFF00BFED
S32D0000FF00A437BD4690BD00BFACD20500C81A0020B8D20500C4D20500C8D205009A99394080B483B000AF786001
S32D0000FF287B6893F8283018460C37BD4680BC704780B483B000AF78607B68012283F8282000BF0C37BD4680BC56
S32D0000FF50704780B582B000AF786039603B682C331946786824F082FA78680837BD4680BD80B584B000AFF860A5
S32D0000FF78B9607A60B968F86824F074FA7968F86824F07CF900BFF8681037BD4680BD80B584B000AFF860B9606C
S32D0000FFA07A60BA680021786824F024F90346184600F009F803461946F86823F01DFFF8681037BD4680BD80B41B
S32D0000FFC883B000AF78607B6818460C37BD4680BC7047000080B582B000AF7860084A7B681A607B682C3318469A
S32D0000FFF023F022FF7B681846FFF7C6F97B6818460837BD4680BD00BF04D3050080B582B000AF78607868FFF79A
S32D00010018E1FF4421786807F0EBF97B6818460837BD4680BD80B483B000AF786039603B6818460C37BD4680BCEF
S32D00010040704780B582B000AF78607B68184600F0DBF87B6818460837BD4680BD80B582B000AF78607B681846F9
S32D00010068FFF7EBFF7B6818460837BD4680BD000080B582B000AF78607B680833184623F0AFFE7B68203318460B
S32D00010090FFF7E4FF7B6800225A607B6808330749184624F097F87B6800221A707B6800225A707B68184608375C
S32D000100B8BD4680BD44D3050090B583B000AF786039607B6803F12004386800F0A9F803461946204600F0AEF855
S32D000100E000BF0C37BD4690BD90B58BB000AF78607B682033184600F0B2F878627B685B687A6A9A4256D97B6818
S32D0001010803F120027B685B681946104600F0B2F838627B6803F10804386A00F0BAF803461A681032126807F17D
S32D0001013008001946904707F108031946204623F08DFE07F10803184623F076FE386A00F0A4F803461A680832E1
S32D00010158126818469047034683F00103DBB2002B1BD07B685B7883F00103DBB2002B0AD0386A00F08EF8034646
S32D000101801A681268184690477B6801225A70386A00F083F803461A68043212681846904711E07B685B685A1C85
S32D000101A87B685A607B6800225A7008E07B6801221A707B6808330449184624F007F800BF2C37BD4690BD00BF37
S32D000101D044D3050080B582B000AF786039603B6808331946786824F041F978680837BD4680BD80B483B000AF7D
S32D000101F878607B681B7818460C37BD4680BC704780B582B000AF7860786800F04EF87B68184600F056F87B688D
S32D0001022018460837BD4680BD80B483B000AF78607B6818460C37BD4680BC704780B582B000AF78603960386843
S32D00010248FFF7EEFF03461946786800F078F800BF0837BD4680BD80B483B000AF78607B685A687B681B68D31A98
S32D000102709B1018460C37BD4680BC704780B483B000AF786039607B681A683B689B00134418460C37BD4680BCBC
S32D00010298704780B582B000AF7860786800F07DF8034618460837BD4680BD80B582B000AF7860786800F07EF8F3
S32D000102C07B6818460837BD4680BD80B483B000AF78607B6800221A607B6800225A607B6800229A607B681846E3
S32D000102E80C37BD4680BC704780B584B000AFF860B9607A60BB68002B05D0FB687A68B968184600F061F800BF5C
S32D000103101037BD4680BD80B483B000AF78607B6818460C37BD4680BC704780B584B000AFF860B9607A60B9684B
S32D00010338F86800F058F800BF1037BD4680BDB0B582B000AF786039607B685A687B689B689A4211D07C687B68EA
S32D000103605D68386800F050F803461A462946204600F054F87B685B681A1D7B685A600CE0786800F05EF8044641
S32D00010388386800F03DF803461A462146786800F07BF800BF0837BD46B0BD80B582B000AF78607B68184600F0A1
S32D000103B02BF9034618460837BD4680BD80B483B000AF78607B6818460C37BD4680BC704780B584B000AFF860FC
S32D000103D8B9607A607A68B968F86800F01FF900BF1037BD4680BD80B582B000AF786039603968786800F022F93F
S32D0001040000BF0837BD4680BD80B483B000AF78607B6818460C37BD4680BC704780B584B000AFF860B9607A60C4
S32D000104287868FFF7EDFF03461A46B968F86800F03DF900BF1037BD4680BD80B584B000AF78607B681A1D07F14B
S32D000104500C031146184600F045F9FB6818461037BD4680BD80B582B000AF184600F005F8034618460837BD46F9
S32D0001047880BD80B483B000AF3871012318460C37BD4680BC70470000B0B58CB000AFF860B9607A60594A01213E
S32D000104A0F86800F02EF9B862FB681B687B62FB685B683B62F86800F06BF903467B6107F1140207F108031146D5
S32D000104C8184600F071F90346FB61FB68B96A184600F07FF9B861BB69FB62FC68FB699B00BA69D5187868FFF779
S32D000104F08BFF03461A4629462046FFF78FFF0023FB62FFF7AFFF0346002B27D007F10803184600F08AF90346A5
S32D000105181C68FB681846FFF7FAFE0346BA692146786A00F06AF9F862FB6A0433FB6207F10803184600F075F967
S32D0001054003461C68FB681846FFF7E5FE0346FA6A396A204600F055F9F86226E007F10803184600F062F90346DC
S32D000105681C68FB681846FFF7D2FE0346BA692146786A00F060F9F862FB6A0433FB6207F10803184600F04DF971
S32D0001059003461C68FB681846FFF7BDFE0346FA6A396A204600F04BF9F862FFF75BFF034683F00103DBB2002BF1
S32D000105B809D0FB681846FFF7AAFE03461A46396A786AFFF7AEFEF868FB689A687B6AD31A9B101A46796AFFF791
S32D000105E087FEFB68BA691A60FB68FA6A5A60BB6A9B00BA691A44FB689A6000BF3037BD46B0BD00BF4CD30500CF
S32D0001060880B582B000AF78607B68184600F039F903461B6818460837BD4680BD80B584B000AFF860B9607A6066
S32D000106307B689B001946B86806F0DEFE00BF1037BD4680BD80B582B000AF786039607A683B689A420AD07868E4
S32D0001065800F024F90346184600F02AF97B6804337B60F0E700BF0837BD4680BD80B582B000AF786039607B6838
S32D000106803A681146184600F032F97B6818460837BD4680BD80B582B000AF786039607B683A6811461846FFF762
S32D000106A8E5FF7B6818460837BD4680BD90B585B000AFF860B9607A607868FFF7A1FE0446BB6819460420FFF7B0
S32D000106D0ADFC034621461846FFF7DCFF00BF1437BD4690BD80B483B000AF786039603B681A687B681A607B682D
S32D000106F818460C37BD4680BC704790B587B000AFF860B9607A60F86800F007F90446F868FFF7A1FD0346E21AF3
S32D00010720BB689A4234BF01230023DBB2002B02D0786819F033F8F868FFF791FD0446F868FFF78DFD03463B61E0
S32D0001074807F1080207F110031146184600F0F6F803461B6823447B61F868FFF77CFD02467B69934206D3F868CA
S32D0001077000F0D7F802467B69934204D9F86800F0D0F8034600E07B6918461C37BD4690BD80B584B000AF7860A7
S32D000107987A6807F10C0311461846FFF79FFFFB6818461037BD4680BD90B583B000AF78603960786800F035F823
S32D000107C003461C68386800F030F803461B68E31A9B1018460C37BD4690BD80B582B000AF786039603B68002BCB
S32D000107E806D07B683968184600F0BBF8034600E0002318460837BD4680BD90B587B002AFF860B9607A603B604B
S32D000108108DF800403B687A68B968F86800F0B4F8034618461437BD4690BD80B483B000AF78607B6818460C379E
S32D00010838BD4680BC704790B585B000AFF860B9607A603B60F86800F0ADF80446B86800F0A9F801463B687A68D0
S32D00010860204600F0B2F8034618461437BD4690BD80B582B000AF786039603968786800F0B5F800BF0837BD4681
S32D0001088880BD80B582B000AF78607B68184600F0B5F8034618460837BD4680BD80B483B000AF78607B681846E3
S32D000108B00C37BD4680BC704780B582B000AF78607868FDF7B0FA00BF0837BD4680BD80B582B000AF78603960AF
S32D000108D87B683A681146184600F0A6F87B6818460837BD4680BD90B583B000AF786039607C683B68184600F0FC
S32D000109008DF8034619462046FFF7E1FF3868FDF7A6FB034600221A607B6818460C37BD4690BD80B582B000AF5B
S32D0001092878607B68184600F0BCF80346184600F09EF8034618460837BD4680BD80B483B000AF786039607B6826
S32D000109501A683B681B689A4201D23B6800E07B6818460C37BD4680BC704780B582B000AF7860396000223968DA
S32D00010978786800F0A0F8034618460837BD4680BD80B584B000AFF860B9607A603B603B687A68B968F86800F0CE
S32D000109A0ACF8034618461037BD4680BD80B584B000AF786007F10C037968184600F0BAF8FB6818461037BD4673
S32D000109C880BD80B584B000AFF860B9607A603B607A68B968F86800F0BBF8034618461037BD4680BD80B582B02A
S32D000109F000AF786039603868FDF715FA00BF0837BD4680BD80B582B000AF7860786800F0B5F803461846083786
S32D00010A18BD4680BD80B483B000AF78607B6818460C37BD4680BC704790B583B000AF78603960386800F0ABF83C
S32D00010A400346184600F0B1F803461946786800F0C0F87C683868FDF742FC0346184600F0AEF803461946204616
S32D00010A6800F0C9F87B6818460C37BD4690BD80B584B000AF78606FF06043FB60786800F0CBF80346BB6007F19E
S32D00010A90080207F10C031146184600F0CDF803461B6818461037BD4680BD80B483B000AF78607B6818460C3799
S32D00010AB8BD4680BC704780B584B000AFF860B9607A60F86800F0C7F80246BB6893428CBF01230023DBB2002B1D
S32D00010AE001D018F023FEBB689B00184606F086FC034618461037BD4680BDB0B584B000AFF860B9607A603B60FD
S32D00010B08F86800F0B3F80446B86800F0AFF80546786800F0ABF802463B682946204600F0AFF8034618461037BF
S32D00010B30BD46B0BD80B582B000AF786039603B46184600F0C7F803461A687B681A607B6818460837BD4680BD29
S32D00010B5880B586B000AFF860B9607A600123FB757A68B968F86800F0BBF8034618461837BD4680BD80B582B0D2
S32D00010B8000AF78607B68184600F0DDF8034618460837BD4680BD80B483B000AF78607B6818460C37BD4680BCE2
S32D00010BA8704780B483B000AF78607B6818460C37BD4680BC704780B483B000AF78607B6818460C37BD4680BC4E
S32D00010BD0704780B582B000AF786039603868FDF761FC0346184600F0B8F803461946786800F0BDF87B68184612
S32D00010BF80837BD4680BD80B582B000AF786039603868FFF7D8FF03461A687B681A607B6818460837BD4680BD73
S32D00010C2080B582B000AF7860786800F0ADF8034618460837BD4680BD80B483B000AF786039603B681A687B688D
S32D00010C481B689A4201D23B6800E07B6818460C37BD4680BC704780B483B000AF78606FF0604318460C37BD46BA
S32D00010C7080BC704780B483B000AF78607B6818460C37BD4680BC704790B587B000AFF860B9607A603B607B6806
S32D00010C987B61FA68BB689A4213D07869FFF7FEFD0446F868FFF7FAFD03463A681946204600F072F8FB68043300
S32D00010CC0FB607B6904337B61E7E77B6918461C37BD4690BD80B483B000AF78607B6818460C37BD4680BC704798
S32D00010CE890B587B000AFF860B9607A607B687B6107F1080207F10C031146184600F067F80346002B16D0786960
S32D00010D10FFF7C8FD044607F10C03184600F07BF803461946204600F081F807F10C03184600F062F87B690433A6
S32D00010D387B61DDE77B6918461C37BD4690BD80B483B000AF78607B6818460C37BD4680BC704780B483B000AF89
S32D00010D6078607B6818460C37BD4680BC704780B582B000AF786039603868FFF7EEFF7B6818460837BD4680BD48
S32D00010D8880B582B000AF78607868FFF764FF034618460837BD4680BD80B584B000AFF860B9607A60B868FFF776
S32D00010DB03BFA03461A46F9687868FFF72FFBB868FFF770FD034619467868FFF751FD00BF1037BD4680BD80B50B
S32D00010DD882B000AF786039603968786800F039F8034683F00103DBB218460837BD4680BD80B483B000AF7860E0
S32D00010E007B681B681A1D7B681A607B6818460C37BD4680BC704780B483B000AF78607B681B6818460C37BD4657
S32D00010E2880BC704790B583B000AF786039603868FFF7E6FA04467B6819460420FFF7F2F8034621461846FFF706
S32D00010E5021FC00BF0C37BD4690BD90B583B000AF78603960786800F00EF80446386800F00AF803469C420CBFC8
S32D00010E7801230023DBB218460C37BD4690BD80B483B000AF78607B681B6818460C37BD4680BC704780B582B034
S32D00010EA000AF7860786836F0A9F8034618460837BD4680BD80B582B000AF7860786836F0CFF80346184608372E
S32D00010EC8BD4680BD80B582B000AF7860786836F0FBF8034618460837BD4680BD90B583B000AF786039607B6833
S32D00010EF01A683B681B681946104638F05DFF03461C467B6804331A683B6804331B681946104638F051FF0346D8
S32D00010F181946204638F044FE034618460C37BD4690BD90B583B000AF78607B681A687B681B681946104638F09A
S32D00010F403BFF03461C467B6804331A687B6804331B681946104638F02FFF03461946204638F022FE034618465C
S32D00010F68FFF7B0FF034618460C37BD4690BD80B584B000AF786039607868FFF7D2FFF8604FF00001F86839F02A
S32D00010F90A7F80346002B02D04FF0000309E079683868FFF79FFF0346F968184638F0B8FF034618461037BD4635
S32D00010FB880BD000080B582B000AF7860084611461A460346FB700B46BB7013467B707868BA78F978FB6900F08F
S32D00010FE037FD7B68874AC3F888207B684FF00002C3F88C207B684FF00002C3F890207B6803F198003A7C797867
S32D00011008FB6900F021FD7B687C4AC3F820217B684FF00002C3F824217B684FF00002C3F828217B6803F5987073
S32D000110303A7E397DFB6900F00BFD7B68714AC3F8B8217B684FF00002C3F8BC217B684FF00002C3F8C0217B6836
S32D000110584FF07E52C3F8C4217B684FF00002C3F8C8217B68664A03F5E67392E8030083E803007B68634A03F59B
S32D00011080EA7392E8030083E803007B684FF00002C3F8DC217B684FF00002C3F8E0217B684FF00002C3F8E42159
S32D000110A87B684FF00002C3F8E8217B684FF00002C3F8EC217B684FF00002C3F8F0217B684FF00002C3F8F42161
S32D000110D07B684FF00002C3F8F8217B684FF00002C3F8FC217B68002283F806227B68012283F807227B680222A4
S32D000110F883F808227B684FF00002C3F80C227B684FF00002C3F810227B684FF00002C3F814227B683C4AC3F8CD
S32D000111201C227B684FF07E52C3F820227B68394AC3F824227B68384AC3F828227B68374AC3F82C227B68FA78E0
S32D0001114883F800227B687A7883F802227B683A7D83F804227B68BA7883F801227B683A7C83F803227B683A7EA5
S32D0001117083F805227B68FA69C3F818227B68002283F830227B68002283F831227B684FF00002C3F8E8217B6803
S32D000111984FF00002C3F8EC217B684FF00002C3F8F02178687B68D3F888107B68D3F88C207B68D3F8903000F051
S32D000111C08DFE7B6803F198007B68D3F820117B68D3F824217B68D3F8283100F07FFE7B6803F598707B68D3F82F
S32D000111E8B8117B68D3F8BC217B68D3F8C03100F071FE7B6818460837BD4680BD9A99193F68D3050070D30500B3
S32D000112100000104100004041CDCC4C3FCDCCCC3D80B485B000AFF860B9607A603B60FB68BA68C3F8DC21FB6879
S32D000112387A68C3F8E021FB683A68C3F8E42100BF1437BD4680BC704790B58FB000AF7860786800F001FAA54B5E
S32D00011260BB62A54B7B627B68D3F8E8217B68D3F8F4311946104638F095FC03461846FDF704FE03461946B86A16
S32D0001128838F052FF0346002B2DD07B68D3F8EC217B68D3F8F8311946104638F07FFC03461846FDF7EEFD034694
S32D000112B01946B86A38F03CFF0346002B17D07B68D3F8F0217B68D3F8FC311946104638F069FC03461846FDF759
S32D000112D8D8FD03461946786A38F026FF0346002B01D0012300E00023002B04D07B68012283F8312203E07B6836
S32D00011300002283F831227B6803F5E2727B6803F5EE7319461046FFF72EFE78637B6803F5E6727B6803F5EE7342
S32D0001132819461046FFF723FE38637B6803F5EA727B6803F5EE7319461046FFF718FEF8627B68D3F8E4313B6241
S32D000113507B68D3F8283283F000417B68D3F828321A46386AFDF79DFDF861F969786B38F01BFC03467B63F969B4
S32D00011378386B38F015FC03463B63F969F86A38F00FFC0346FB62786BFDF77BFD0346FB60386BFDF776FD0346A0
S32D000113A03B61F86AFDF771FD03467B6107F1140207F110031146184600F019FB024607F10C031146184600F0D3
S32D000113C812FB03461B68BB617B68D3F820321946B86938F0A9FE0346002B29D07B68D3F82032B969184638F09D
S32D000113F097FD03461946786B38F0DEFC03467B637B68D3F82032B969184638F089FD03461946386B38F0D0FC19
S32D0001141803463B637B68D3F82032B969184638F07BFD03461946F86A38F0C2FC0346FB62BB6983F00043BA690B
S32D000114401946786BFDF72DFD02467B68C3F80C22BB6983F00043BA691946386BFDF721FD02467B68C3F81022E0
S32D00011468BB6983F00043BA691946F86AFDF715FD02467B68C3F814227B6893F83032002B38D07C687B68D3F8E0
S32D000114900C227B68D3F824321946104638F08CFC03461946204600F08BFC7B6803F198047B68D3F810227B68DB
S32D000114B8D3F824321946104638F07AFC03461946204600F079FC7B6803F598747B68D3F814227B68D3F824324F
S32D000114E01946104638F068FC03461946204600F067FC2EE00AD7233CCDCCCC3D7C687B68D3F80C3215491846BF
S32D0001150838F056FC03461946204600F030FB7B6803F198047B68D3F810320E49184638F047FC03461946204680
S32D0001153000F021FB7B6803F598747B68D3F814320649184638F038FC03461946204600F012FB00BF3C37BD465C
S32D0001155890BD00BF0000C84280B582B000AF78604FF000034FF000024FF000017868FFF753FE7B68184600F045
S32D0001158026FB7B689833184600F021FB7B6803F59873184600F01BFB00BF0837BD4680BD80B582B000AF78608D
S32D000115A87B68184600F01CFB034618460837BD4680BD80B582B000AF78607B689833184600F00EFB034618460C
S32D000115D00837BD4680BD80B582B000AF78607B6803F59873184600F0FFFA034618460837BD4680BD80B582B0C5
S32D000115F800AF78607B68184600F026FB034618460837BD4680BD80B582B000AF78607B689833184600F018FBC8
S32D00011620034618460837BD4680BD80B582B000AF78607B6803F59873184600F009FB034618460837BD4680BD29
S32D0001164880B483B000AF78607B6803F5F47318460C37BD4680BC70472DE9B04384B000AF78607B68184600F0B7
S32D00011670E3FA04467B68D3F8C8311846FFF70EFC03461946204638F097FB03461D467B689833184600F0D0FAE5
S32D0001169804467B68D3F8D0311846FFF7FBFB03461946204638F084FB03461946284638F077FA03461D467B68ED
S32D000116C003F59873184600F0B7FA04467B68D3F8D8311846FFF7E2FB03461946204638F06BFB03461946284615
S32D000116E838F05EFA03461A467B68C3F8E8217B68184600F09DFA04467B68D3F8C8311846FFF7D4FB034619467F
S32D00011710204638F051FB03461D467B689833184600F08AFA04467B68D3F8D0311846FFF7C1FB0346194620468D
S32D0001173838F03EFB03461946284638F031FA03461D467B6803F59873184600F071FA04467B68D3F8D83118460E
S32D00011760FFF7A8FB03461946204638F025FB03461946284638F018FA03461A467B68C3F8EC214FF08043FB606A
S32D000117887B68184600F054FA0346184637F078FE04460D467B68D3F8C831184637F070FE43A3D3E9002337F04C
S32D000117B00BFD02460B461046194635F0C7FB02460B462046294637F0B7FE02460B46904699467B689833184629
S32D000117D800F02EFA0346184637F052FE04460D467B68D3F8D031184637F04AFE30A3D3E9002337F0E5FC024691
S32D000118000B461046194635F0A1FB02460B462046294637F091FE02460B464046494637F0D5FC02460B469046B9
S32D0001182899467B6803F59873184600F001FA0346184637F025FE04460D467B68D3F8D831184637F01DFE1AA3E1
S32D00011850D3E9002337F0B8FC02460B461046194635F074FB02460B462046294637F064FE02460B464046494628
S32D0001187837F0A8FC02460B4614461D46F86837F0FFFD02460B462046294637F07BFF02460B461046194638F018
S32D000118A02DF902467B68C3F8F02100BF1037BD46BDE8B083AFF30080182D4454FB21F93F80B582B000AF7860DA
S32D000118C80B46FB707B68FA7883F83022FB78002B03D0786800F008F802E0786800F01EF800BF0837BD4680BDCC
S32D000118F080B582B000AF78607B680121184600F02BF97B6898330121184600F025F97B6803F5987301211846C2
S32D0001191800F01EF900BF0837BD4680BD80B582B000AF78607B680021184600F011F97B6898330021184600F0F4
S32D000119400BF97B6803F598730021184600F004F900BF0837BD4680BD80B584B000AFF860B9607A603B60BB68C3
S32D00011968032B19D0BB68032B1FDCBB68012B03D0BB68022B07D018E0F868BB693A68796800F0A8FA11E0FB68BF
S32D0001199003F19800BB693A68796800F09FFA08E0FB6803F59870BB693A68796800F096FA00BF00BF1037BD4632
S32D000119B880BD80B582B000AF78607B68184600F021F9034618460837BD4680BD80B582B000AF78607B68184635
S32D000119E000F01FF9034618460837BD4680BD80B582B000AF786039607B681A683B681B681946104638F076FB4A
S32D00011A080346002B01D03B6800E07B6818460837BD4680BD80B582B000AF7860094803F08EFF0421074803F001
S32D00011A3095FF0221054803F0B8FF786822F0F4FC03461946014804F0E1F9EEE7C81A002080B586B002AFF860ED
S32D00011A587B600B46FB721346BB72FB683A4A5A60FB684FF08342DA60FB681033F97A7A68184600F091FDFB68C4
S32D00011A801833BA7A1146184602F00EFDFB6803F128014FF000024FF00003CDE900234FF000024FF00003084659
S32D00011AA8FDF718FAFB684FF49F72DA66FB68274A1A67FB684FF000025A67FB684FF000029A67FB68FA7A1A7052
S32D00011AD0FB687A689A60FB68DB6E184638F014F90246FB689A66FB685A7EFB685A76FB681833184602F098FFBB
S32D00011AF8FB684FF000021A66FB684FF00002DA67FB684FF00002C3F88020FB68022283F88420FB68012283F810
S32D00011B208520FB684FF000025A6702F0A1FC0346184638F0E9F80246FB689A67FB68002283F82420FB6818469C
S32D00011B481037BD4680BD00BF00001041D153FB4080B483B000AF78600B46FB707B68FA7883F8842000BF0C3758
S32D00011B70BD4680BC704780B582B000AF786039604FF00001386838F0D3FA0346002B04D07B68002283F8852087
S32D00011B9803E07B68022283F885204FF00001386838F09AFA0346002B03D07B68012283F885207B681033396844
S32D00011BC0184600F06DFD00BF0837BD4680BD80B582B000AF78607B681033184600F01EFD00BF0837BD4680BD45
S32D00011BE880B582B000AF78607B681833184602F005FF0346184638F087F8034618460837BD4680BD80B483B083
S32D00011C1000AF78607B681B6E18460C37BD4680BC704780B483B000AF78607B68DB6F18460C37BD4680BC704769
S32D00011C3880B483B000AF78607B68D3F8803018460C37BD4680BC704780B58CB000AF78604FF07E53BB624FF036
S32D00011C607E537B6202F004FC0346184638F04CF803463B627B689B6F1946386A37F092FF0346FB617B68183343
S32D00011C88184602F0BBFE0346184638F03DF80346BB617B685B6F1946B86937F07FFF0346FB627B6893F8853020
S32D00011CB0022B03D1FB6A83F00043FB627B6893F8243083F00103DBB2002B09D07B683A6A9A677B68012283F8B9
S32D00011CD824207B68BA695A67F86AFDF7D2F803461946B86A38F020FA0346002B08D0796AF86938F005FA0346A6
S32D00011D00002B01D0012300E00023002B02D07B685B6E4FE04FF00001F86938F0F5F90346002B02D07B685B6E10
S32D00011D2844E04FF00001F86A38F0D6F90346002B06D07B684FF000025A664FF0000335E07B689B6E1946F86A9D
S32D00011D5038F0E6F803467B617B681B6F1946786938F02AF803463B611449F86938F0D8F80346FB60F968386901
S32D00011D7838F0D2F80346BB607B68D3F880303969184637F00DFF03461A467B68C3F880207B68BA695A677B68C4
S32D00011DA03A6A9A677B68BA685A667B68002283F82420BB6818463037BD4680BD00007A442DE9F04393B004AFC1
S32D00011DC8786039607B6893F88430012B59D17B683A681A667868FFF737FF386302F044FB0346184637F08CFFCD
S32D00011DF00346FB627B689B6F1946F86A37F0D2FE03467B634FF00001786B38F07DF90346002B01D02D4B7B63F6
S32D00011E187B6803F128067B681B6E184637F030FB80468946386B37F02BFB04460D46786B37F026FB02460B4694
S32D00011E40CDE90223CDE9004542464B463046FDF783F8B8627B68BA6ADA677B68DB681946B86A38F05DF80346D0
S32D00011E681949184637F0A4FF03467B62164A1749786AFDF712F87862796A7868FFF777FE1BE007F1200318467F
S32D00011E9005F084FB07F1200207F108030E49184622F02AFB07F108031846FFF7B7FD07F10803184621F0C0FF6A
S32D00011EB807F12003184605F06FFB00BF3C37BD46BDE8F0836F12833A0000C8420000C8C2B0D3050080B584B013
S32D00011EE000AFF860B9607A603B60FB6803F128003B687A68B968FDF7B7F900BF1037BD4680BD000080B500AF4B
S32D00011F080F4BD3F8A03003F48053002B14BF01230023DBB2002B10D0094BD3F8A030084A23F48053C2F8A03059
S32D00011F30064805F06BF9064B1B68054A23F40053136000BF80BD00BF00C00440501B0020C0F00F4080B400AFAF
S32D00011F58124B4FF480725A63114B5B69104A43F4005353610E4B1B680D4A43F4005313600A4B0C4A1A630C4BA4
S32D00011F80D3F888310A4A43F08063C2F88831084B9B68074A43F08063936000BFBD4680BC704700BF00C00440A9
S32D00011FA8C0F00F4003010A0000E100E080B400AF334B00225A70324B98221A70304B9B79DBB203F01003002BE1
S32D00011FD014BF01230023DBB2002B00D0F2E72A4B9B79DBB29B08DBB203F00303022B14BF01230023DBB2002B29
S32D00011FF800D0F0E7224B18221A71214B00225A71204B03F580531A461F4B53641C4B54225A711B4B9B79DBB222
S32D0001202003F02003002B0CBF01230023DBB2002B00D0F2E7144B9B79DBB203F04003002B0CBF01230023DBB2DD
S32D00012048002B00D0F2E70E4B1B78DBB20C4A03F03F03DBB213700A4B9B79DBB29B08DBB203F00303032B14BF61
S32D0001207001230023DBB2002B00D0F0E700231846BD4680BC704700BF00400640007004400000130180B500AF33
S32D00012098314B03F580539B6B2F4A43F4785302F580529363FFF752FFFFF780FF2B4B58221A602A4B1B684FF431
S32D000120C07A7202FB03F3284A1360274B1B681A46234B03F580535B6C1B0E03F00F030133B2FBF3F31A46214B17
S32D000120E81A601D4B03F58053DB6B1B4A43F0225302F58052D363184B03F580531B6B164A43F0006302F5805257
S32D000121101363174B4FF480721A61642002F058F8134B5B69124A23F010035361104B00221A600F4B10225A61BC
S32D000121380E4803F091FA02F07FFD02F0DDFD0C4802F0A4F80B4805F0B1F84FF4FA6002F04FF900BF80BD00BF05
S32D0001216000700440141A0020101A0020181A002000D00340C81A00200C1A0020C01B002080B500AFFAF7DFF8B0
S32D0001218800BF80BD80B500AFFAF7D9F800BF80BD80B500AFFAF7D3F800BF80BD80B500AFFAF7CDF800BF80BD58
S32D000121B080B500AFFAF7C7F800BF80BD80B500AFFAF7C1F800BF80BD80B500AFFAF7BBF800BF80BD80B500AF7E
S32D000121D8FAF7B5F800BF80BD80B500AFFAF7AFF800BF80BD80B500AFFAF7A9F800BF80BD80B500AFFAF7A3F8E4
S32D0001220000BF80BD80B500AFFAF79DF800BF80BD80B500AFFAF797F800BF80BD80B500AFFAF791F800BF80BD93
S32D0001222880B500AFFAF78BF800BF80BD80B500AFFAF785F800BF80BD80B500AFFAF77FF800BF80BD80B500AFB9
S32D00012250FAF779F800BF80BD80B500AFFAF773F800BF80BD80B500AFFAF76DF800BF80BD80B500AFFAF767F85B
S32D0001227800BF80BD80B500AFFAF761F800BF80BD80B500AFFAF75BF800BF80BD80B500AFFAF755F800BF80BDCF
S32D000122A080B500AFFAF74FF800BF80BD80B500AFFAF749F800BF80BD80B500AFFAF743F800BF80BD80B500AFF5
S32D000122C8FAF73DF800BF80BD80B500AFFAF737F800BF80BD80B500AFFAF731F800BF80BD80B500AFFAF72BF8D3
S32D000122F000BF80BD80B500AFFAF725F800BF80BD80B500AFFAF71FF800BF80BD80B500AFFAF719F800BF80BD0B
S32D0001231880B500AFFAF713F800BF80BD80B500AFFAF70DF800BF80BD80B500AFFAF707F800BF80BD80B500AF30
S32D00012340FAF701F800BF80BD80B500AFF9F7FBFF00BF80BD80B500AFF9F7F5FF00BF80BD80B500AFF9F7EFFF38
S32D0001236800BF80BD80B500AFF9F7E9FF00BF80BD80B500AFF9F7E3FF00BF80BD80B500AFF9F7DDFF00BF80BD34
S32D0001239080B500AFF9F7D7FF00BF80BD80B500AFF9F7D1FF00BF80BD80B500AFF9F7CBFF00BF80BD80B500AF5A
S32D000123B8F9F7C5FF00BF80BD80B500AFF9F7BFFF00BF80BD80B500AFF9F7B9FF00BF80BD80B500AFF9F7B3FFAA
S32D000123E000BF80BD80B500AFF9F7ADFF00BF80BD80B500AFF9F7A7FF00BF80BD80B500AFF9F7A1FF00BF80BD70
S32D0001240880B500AFF9F79BFF00BF80BD80B500AFF9F795FF00BF80BD80B500AFF9F78FFF00BF80BD80B500AF95
S32D00012430F9F789FF00BF80BD80B500AFF9F783FF00BF80BD80B500AFF9F77DFF00BF80BD80B500AFF9F777FF21
S32D0001245800BF80BD80B500AFF9F771FF00BF80BD80B500AFF9F76BFF00BF80BD80B500AFF9F765FF00BF80BDAB
S32D0001248080B500AFF9F75FFF00BF80BD80B500AFF9F759FF00BF80BD80B500AFF9F753FF00BF80BD80B500AFD1
S32D000124A8F9F74DFF00BF80BD80B500AFF9F747FF00BF80BD80B500AFF9F741FF00BF80BD80B500AFF9F73BFF99
S32D000124D000BF80BD80B500AFF9F735FF00BF80BD80B500AFF9F72FFF00BF80BD80B500AFF9F729FF00BF80BDE7
S32D000124F880B500AFF9F723FF00BF80BD80B500AFF9F71DFF00BF80BD80B500AFF9F717FF00BF80BD80B500AF0D
S32D00012520F9F711FF00BF80BD80B500AFF9F70BFF00BF80BD80B500AFF9F705FF00BF80BD80B500AFF9F7FFFE11
S32D0001254800BF80BD80B500AFF9F7F9FE00BF80BD80B500AFF9F7F3FE00BF80BD80B500AFF9F7EDFE00BF80BD25
S32D0001257080B500AFF9F7E7FE00BF80BD80B500AFF9F7E1FE00BF80BD80B500AFF9F7DBFE00BF80BD80B500AF4B
S32D00012598F9F7D5FE00BF80BD80B584B000AFF8600B467A60FB72FB68FA7A1A71FB6800225A711749786837F034
S32D000125C0B7FD0346002B02D0134B7B600AE04FF07E51786837F098FD0346002B02D04FF07E537B60786836F0EE
S32D000125E84FFF09A3D3E9002336F0A2FF02460B461046194637F07EFA0246FB681A60FB6818461037BD4680BDCA
S32D00012610ABAAAAAAAAAA20400000404180B582B000AF78607B685B79002B09D07B6800225A717B6819791E238E
S32D000126380022034801F064FE00BF0837BD4680BD0C1A002080B584B000AF786039603B687F2B02DD7F23FB736A
S32D0001266008E03B6813F1800F02DA8023FB7301E03B68FB737B685B79FA7B9A4209D07B68FA7B5A717B681979D5
S32D00012688FA7B1E23034801F03BFE00BF1037BD4680BD00BF0C1A0020B0B584B000AF786039603749386837F0AD
S32D000126B021FD0346002B02D0334B3B6008E03349386837F035FD0346002B01D02F4B3B60386836F0D9FE0446E0
S32D000126D80D467B681B68184636F0D2FE4FF00002294B37F04FF802460B462046294636F01FFF02460B46104602
S32D00012700194637F0FBF903463B604FF00001386837F004FD0346002B10D0386836F0B4FE17A3D3E9002336F0B9
S32D0001272807FF02460B461046194637F09BF90346FB6018E0386836F0A3FE4FF00002134B36F0F6FE02460B461E
S32D00012750104619464FF000020D4B37F017F802460B461046194637F081F90346FB60F9687868FFF76BFF00BFE3
S32D000127781037BD46B0BD00BF52B81E85EB51F43F0000C8C20000C842000059400000604080B483B000AF034674
S32D000127A00A46FB711346BB71BB79002B03D1134B00221A7002E0114B01221A703823FB710E4B1A78FB79134325
S32D000127C8FB710D4B9B78DBB20B4A43F01003DBB29370094B9B78DBB2074A43F02003DBB29370054AFB791371E1
S32D000127F000BF0C37BD4680BC704700BFE91700200060064080B483B000AF01237B607B68312B04DC00BF7B6867
S32D0001281801337B60F7E700BF0C37BD4680BC704780B582B000AF03460A46FB711346BB71134B1B78002118469C
S32D00012840FFF7AAFF00F024F8104AFB79137100F01FF80E4ABB79137100F01AF80B4B9B78DBB20A4A23F02003D3
S32D00012868DBB29370074B9B78DBB2064A23F01003DBB29370FFF7C2FF00BF0837BD4680BDEA17002000600640FD
S32D0001289080B483B000AF174B1B78002B24D100237B60154BDB78DBB203F00203002B0CBF01230023DBB2002BC3
S32D000128B80DD07B6842F21072934203DD0B4B01221A7004E07B6801337B6000BFE5E7084BDB78DBB2064A43F0AC
S32D000128E00203DBB2D37000E000BF0C37BD4680BC704700BFEB1700200060064080B582B000AF0346FB71FB7956
S32D00012908184600F05FF800BF0837BD4680BD80B582B000AF03460A46FB711346BB7100F035F8FB795B00DBB2A4
S32D000129301846FFF7E3FFBB791846FFF7DFFF00F037F800BF0837BD4680BD80B500AFFF2000F03CF803461846B1
