S01100002E2E2F50726F746575732E73313966
S32D0000C000000000205DC2000011C3000017C300001DC3000023C3000029C3000000000000000000000000000073
S32D0000C028000000002FC3000035C30000000000003BC3000041C3000099A20100A5A20100B1A20100BDA20100C6
S32D0000C050C9A20100D5A20100E1A20100EDA20100F9A2010005A3010011A301001DA3010029A3010035A3010069
S32D0000C07841A301004DA3010059A3010065A3010071A301007DA3010089A3010095A30100A1A30100ADA301008C
S32D0000C0A0B9A30100C5A30100D1A30100DDA30100E9A30100F5A3010001A401000DA4010019A4010025A40100B0
S32D0000C0C831A401003DA4010049A4010055A4010061A401006DA4010079A4010085A4010091A401009DA40100D2
S32D0000C0F0A9A4010075200200B5A40100C1A40100CDA40100D9A40100E5A40100F1A40100FDA4010009A501001C
S32D0000C11815A5010021A501002DA5010039A5010045A5010051A501005DA5010069A5010075A5010081A501008F
S32D0000C1408DA5010099A50100A5A50100B1A5010071F50100BDA50100C9A50100D5A50100E1A50100EDA50100EF
S32D0000C168F9A5010005A6010011A601001DA6010029A6010035A6010041A601004DA6010059A6010065A601004E
S32D0000C19071A601007DA6010089A6010069F1010031F00100CDF001001DA0010009F2010095A60100A1A601009C
S32D0000C1B8ADA60100B042070000000020C8170000B04207000000FF1F00000000C81700200C1D00000000FF1FB0
S32D0000C1E00000000080B489B000AFF860B9607A60BB68FB61FB68BB6100237B617A697B689A420BD2BA69131DFB
S32D0000C208BB61FB69191DF96112681A607B6904337B61EFE700BF2437BD4680BC704780B485B000AF786039609E
S32D0000C2307B68FB600023BB60BA683B689A4208D2FB681A1DFA6000221A60BB680433BB60F2E700BF1437BD46FE
S32D0000C25880BC704780B586B000AF72B6234B4CF220521A80214B4DF628121A80204B4FF4E9721A801F4B7B615F
S32D0000C2807B691F4A934214D27B691A1D7A611B683B617B691A1D7A611B68FB607B691A1D7A611B68BB60BA68E9
S32D0000C2A8F9683869FFF79AFFE6E77B69134A93420ED27B691A1D7A611B68FB607B691A1D7A611B68BB60B9688B
S32D0000C2D0F868FFF7A8FFECE70B4B7B600B4A7B681A604CF0A3FA62B60DF060FF00F044F9FEE700BF0E200540FC
S32D0000C2F800200540BCC10000D4C10000E4C1000008ED00E000C0000080B400AFFEE780B400AFFEE780B400AFF4
S32D0000C320FEE780B400AFFEE780B400AFFEE780B400AFFEE780B400AFFEE780B400AFFEE780B400AFFEE780B426
S32D0000C34800AFFEE7FFFFFFFFFFFFFFFFFFFFFFFFFFFFFFFFFFFFFFFFFFFFFFFFFFFFFFFFFFFFFFFFFFFFFFFF57
S32D0000C370FFFFFFFFFFFFFFFFFFFFFFFFFFFFFFFFFFFFFFFFFFFFFFFFFFFFFFFFFFFFFFFFFFFFFFFFFFFFFFFFC7
S32D0000C398FFFFFFFFFFFFFFFFFFFFFFFFFFFFFFFFFFFFFFFFFFFFFFFFFFFFFFFFFFFFFFFFFFFFFFFFFFFFFFFF9F
S32D0000C3C0FFFFFFFFFFFFFFFFFFFFFFFFFFFFFFFFFFFFFFFFFFFFFFFFFFFFFFFFFFFFFFFFFFFFFFFFFFFFFFFF77
S32D0000C3E8FFFFFFFFFFFFFFFFFFFFFFFFFFFFFFFFFFFFFFFFFFFFFFFFFFFFFFFFFFFFFFFFFFFFFFFFFEFFFFFF50
S32D0000C44010B5054C237833B9044B13B10448AFF300800123237010BDC817002000000000202F070008B5034BCC
S32D0000C4681BB103490348AFF3008008BD00000000CC170020202F07002DE9B0438AB000AFF860B9607A603B602B
S32D0000C490FA687B68D31A184649F0B6F802460B46C7E90823BA683B68D31A184649F0ACF802460B46C7E9062334
S32D0000C4B8D7E90823D7E9080149F00CF902460B4614461D463B6C03FB03F3184649F098F802460B4620462946DE
S32D0000C4E049F026FA02460B4614461D46D7E90623D7E9060149F0F2F802460B46904699467B6C03FB03F3184625
S32D0000C50849F07EF802460B464046494649F00CFA02460B462046294648F026FF02460B46C7E9042301231C46A8
S32D0000C5304FF00002074BD7E9040149F04BFB0346002B01D100231C46E3B218462837BD46BDE8B0830000F03FDF
S32D0000C55880B582B000AF78607B685C33184634F00DFC7B6818460837BD4680BD000000002DE9F043ADF50C5DB6
S32D0000C58083B008AF07F50B5303F12803A3F532734FF000021A6007F50B5303F12803A3F532734FF000025A6081
S32D0000C5A807F50B5303F12803A3F532734FF000029A60F44B07F50B5202F10C021360002307F50B5202F10B02EC
S32D0000C5D01370012307F50B5202F10A021370032307F50B5202F109021370002307F50B5202F10802137002239A
S32D0000C5F807F50B5202F107021370042307F50B5202F10602137007F50B5303F10A031C7807F50B5303F10803F7
S32D0000C6201A7807F50B5303F10B03197807F5BD60183807F50B5303F10C031B68039307F50B5303F106031B78A4
S32D0000C648029307F50B5303F109031B78019307F50B5303F107031B78009323460BF052FD022307F50B5202F10C
S32D0000C6700502137007F50B5303F10503197807F5B963C34A18460EF017F807F5B963043B0821184612F028FE95
S32D0000C69807F5B963083B1521184612F021FE07F5B9630C3B1621184612F01AFE07F5B963103B1721184612F05B
S32D0000C6C013FE152307F50B5202F104021370152307F50B5202F103021370152307F50B5202F10202137007F51B
S32D0000C6E80B5303F102031B7807F50B5202F10302127807F50B5101F10401097807F5B1601C3804F0EFFE07F551
S32D0000C710AD630F21184612F0B5F907F5AD630C3B0721184613F0D2F807F5AD630C3B40F23A31184613F0E6F8D8
S32D0000C73807F5AD630C3B40F68601184613F0FBF807F5A963183B18460AF00CFD07F5975303F10803A3F6BC5326
S32D0000C76000221A6007F50B5303F12803A3F52E7207F5B963043B1946104602F07BF907F5005202F1300207F57D
S32D0000C788005303F12C031146184602F0BCF907F5005202F12C0207F5A963183B114618460AF004FD07F50053E8
S32D0000C7B003F12C03184602F0C6F907F5005303F13003184602F070F907F50B5303F12803A3F52C7207F5BD632F
S32D0000C7D8183B1946104602F0D4F907F5005202F1380207F5005303F134031146184602F015FA07F5005202F180
S32D0000C800340207F5A963183B114618460AF0D2FC07F5005303F13403184602F094F907F5005303F138031846C9
S32D0000C82802F0C9F907F50B5303F12803A3F52A7007F5B96307F5AD620C3A07F5BD61183902F008FA07F501526C
S32D0000C85007F5005303F13C031146184602F059FA07F5005202F13C0207F5A963183B114618460AF09FFC07F51E
S32D0000C878005303F13C03184602F061F907F50153184602F00FFA07F50B5303F12803A3F5287007F5B1631C3BA9
S32D0000C8A007F5AD620C3A07F5BD61183902F04DFA07F5015202F1080207F5015303F104031146184602F09CFAA1
S32D0000C8C807F5015202F1040207F5A963183B114618460AF06BFC07F5015303F10403184602F02DF907F5015378
S32D0000C8F003F10803184602F050FA07F50B5303F12803A3F5267007F5AD620C3A07F5BD63183B194602F090FA3F
S32D0000C91807F5015202F1100207F5015303F10C031146184602F0D7FA07F5015202F10C0207F5A963183B1146D0
S32D0000C94018460AF037FC07F5015303F10C03184602F0F9F807F5015303F11003184602F08BFA07F50B5303F130
S32D0000C9682803A3F5247007F5B962043A07F5BD63183B194602F0CBFA07F5015202F1180204E000BF0000C04071
S32D0000C9900000904007F5015303F114031146184602F00EFB07F5015202F1140207F5A963183B114618460AF03C
S32D0000C9B8FDFB07F5015303F11403184602F0BFF807F5015303F11803184602F0C2FA07F50B5303F12803A3F57B
S32D0000C9E0227407F5B1601C3807F5A9621C3A07F5BD61183907F5AD630C3B00930346204602F0FAFA07F50152A0
S32D0000CA0802F1200207F5015303F11C031146184602F05CFB07F5015202F11C0207F5A963183B114618460AF020
S32D0000CA30C1FB07F5015303F11C03184602F083F807F5015303F12003184602F010FB002307F50B5202F1270294
S32D0000CA581370CA4B07F50B5202F1200213604FF0000307F50B5202F11C0213604FF0000307F50B5202F1180270
S32D0000CA80136007F5015303F12403184616F016FE07F5015202F1240207F5A5631C3BBA49184634F0FDFC07F5F5
S32D0000CAA8015303F12403184616F006FE07F5A163083B184618F022FE07F50253184616F0F9FD07F5025207F5C9
S32D0000CAD0015303F12803AD49184634F0E1FC07F5015202F1280207F595601C388B230093FF23002104F042F80D
S32D0000CAF807F5015303F12803184634F03FF907F50253184616F0D8FD07F595631C3B1E21184604F043FB07F547
S32D0000CB20025303F11C03184616F0C8FD07F5025202F11C0207F5025303F104039449184634F0AEFC07F5025250
S32D0000CB4802F1040207F5856010388B230093FF23232104F00FF807F5025303F10403184634F00CF907F50253D7
S32D0000CB7003F11C03184616F0A3FD07F58563103B1E21184604F00EFB07F5025303F13803184616F093FD07F547
S32D0000CB98025202F1380207F5025303F120037B49184634F079FC07F5025202F1200207F56A7004388B23009313
S32D0000CBC0FF23462103F0DAFF07F5025303F12003184634F0D7F807F5025303F13803184616F06EFD07F56A7311
S32D0000CBE8043B1E21184604F0D9FA07F5035303F11403184616F05EFD07F5035202F1140207F5025303F13C0382
S32D0000CC106149184634F044FC07F5025202F13C0207F5527018388B230093FF23692103F0A5FF07F5025303F132
S32D0000CC383C03184634F0A2F807F5035303F11403184616F039FD07F55273183B1E21184604F0A4FA012307F519
S32D0000CC600A5202F13C02136007F5BD63183B18460CF06AFE494813F0B2FA484813F0E4FE002307F50B5202F151
S32D0000CC8817021370444B1B78002B40F08B8007F50B5303F117031B78002B40F0838007F58563103B184604F080
S32D0000CCB003F907F595631C3B184604F0FDF807F56A73043B184604F0F7F807F55273183B184604F0F1F807F524
S32D0000CCD88563103B184604F04CFA0346002B08D02D4B02221A70012307F50B5202F11702137007F595631C3B9A
S32D0000CD00184604F03AFA0346002B0CD01E49254815F054FE224B01221A70012307F50B5202F11702137007F5E2
S32D0000CD286A73043B184604F024FA0346002B08D0194B03221A70012307F50B5202F11702137007F55273183BD2
S32D0000CD50184604F012FA0346002B08D0104B04221A70012307F50B5202F1170213700E4815F026F8014673239E
S32D0000CD780022084813F0DCFA84E700BF9A99193F58910600649106006C9106007891060084910600D41A002068
S32D0000CDA0E51700203C1B0020201B002007F50B5303F12803A3F53273196807F50B5303F12803A3F532735A68C8
S32D0000CDC807F50B5303F12803A3F532739B6807F5BD6018380BF030FC2B4813F0FCF92A4813F02EFE002307F5C9
S32D0000CDF00B5202F11602137007F50B5303F116031B78002B41F02E8607F5BD63183B18460CF081FD1F4B1B78DC
S32D0000CE18012B3FD11E4815F0F9FF024607F5975303F10803A3F6BC531A6011F00BFE0346184649F04DF8034686
S32D0000CE4007F5095202F10402136007F5BD63183B012118460CF0B8FC07F5A963183B18460AF0BCF907F5A963F2
S32D0000CE68183B18460AF02CFA0346002BC0D0012307F50B5202F11602137007F5BD63183B18460BF06FFDB3E7EE
S32D0000CE90D41A0020E51700203C1B0020E44B1B78032B40F05786E34B07F5095202F13802136007F5035303F16B
S32D0000CEB83003184616F0FEFB07F5035202F1300207F5035303F11803D949184634F0E4FA07F5035303F1180302
S32D0000CEE007F1280024384FF4C84201924FF47F0200924FF00002D14903F0F6FE07F5035303F11803184633F04E
S32D0000CF083DFF07F5035303F13003184616F0D4FB07F12803243B1E21184604F03FF907F12803243B184603F0F5
S32D0000CF30C3FF07F5045303F10C03184616F0BEFB07F5045202F10C0207F5035303F13403BB49184634F0A4FAAA
S32D0000CF5807F5035303F1340307F1A80030384FF4C84201924FF400420092B44AB14903F0B7FE07F5035303F149
S32D0000CF803403184633F0FEFE07F5045303F10C03184616F095FB07F1A803303B1E21184604F000F907F1A8034A
S32D0000CFA8303B184603F084FF07F5045303F12803184616F07FFB07F5045202F1280207F5045303F110039E491C
S32D0000CFD0184634F065FA07F5045303F1100307F594703C384FF4C84201924FF6FF720092964A924903F078FE38
S32D0000CFF807F5045303F11003184633F0BFFE07F5045303F12803184616F056FB07F594733C3B1E21184604F041
S32D0000D020C1F807F594733C3B184603F045FF834907F5095303F13803186848F09DFE03461C4607F5055303F181
S32D0000D0480403184616F036FB07F5055202F1040207F5045303F12C037B49184634F01CFA07F5045303F12C038A
S32D0000D07007F5B47008384FF40B0201924FF47F0200924FF00002214603F02EFE07F5045303F12C03184633F03B
S32D0000D09875FE07F5055303F10403184616F00CFB07F5B473083B1E21184604F077F807F5B473083B184603F020
S32D0000D0C0FBFE5E4907F5095303F13803186848F053FE03461C4607F5055303F12003184616F0ECFA07F505525F
S32D0000D0E802F1200207F5055303F108035749184634F0D2F907F5055303F1080307F5F47014384FF40B020192E3
S32D0000D1104FF4004200924B4A214603F0E5FD07F5055303F10803184633F02CFE07F5055303F12003184616F03C
S32D0000D138C3FA07F5F473143B1E21184604F02EF807F5F473143B184603F0B2FE394907F5095303F13803186867
S32D0000D16048F00AFE03461C4607F5055303F13C03184616F0A3FA07F5055202F13C0207F5055303F124033449BE
S32D0000D188184634F089F907F5055303F1240307F51A7020384FF40B0201924FF6FF720092284A214603F09CFD98
S32D0000D1B007F5055303F12403184633F0E3FD07F5055303F13C03184616F07AFA07F51A73203B1E21184603F0AE
S32D0000D1D8E5FF07F51A73203B184603F069FE07F12803243B184603F0C4FF0346002B34D007F50B5303F120032A
S32D0000D200186848F013FA08A3D3E9002348F0B0F802460B461046194648F058FD034607F50B521BE0AFF3008037
S32D0000D2289A9999999999B93FE517002000005C4394910600000070419C91060000000C42A491060000008C4228
S32D0000D250AC910600B4910600BC91060002F12002136007F5B473083B184603F086FF0346002B17D007F50B5356
S32D0000D27803F12003186848F0D5F9D1A3D3E9002348F070F802460B461046194648F01AFD034607F50B5202F1C6
S32D0000D2A02002136007F1A803303B184603F065FF0346002B17D007F50B5303F11C03186848F0B4F9C2A3D3E9BA
S32D0000D2C8002348F051F802460B461046194648F0F9FC034607F50B5202F11C02136007F5F473143B184603F0F0
S32D0000D2F044FF0346002B17D007F50B5303F11C03186848F093F9B2A3D3E9002348F02EF802460B4610461946E1
S32D0000D31848F0D8FC034607F50B5202F11C02136007F594733C3B184603F023FF0346002B17D007F50B5303F11F
S32D0000D3401803186848F072F9A1A3D3E9002348F00FF802460B461046194648F0B7FC034607F50B5202F1180237
S32D0000D368136007F51A73203B184603F002FF0346002B17D007F50B5303F11803186848F051F991A3D3E9002315
S32D0000D39047F0ECFF02460B461046194648F096FC034607F50B5202F11802136007F5BD60183807F50B5303F15C
S32D0000D3B818031B68009307F50B5303F11C031B6807F50B5202F12002126801210CF04BFA07F5BD60183807F576
S32D0000D3E00B5303F118031B68009307F50B5303F11C031B6807F50B5202F12002126802210CF035FA07F5BD605D
S32D0000D408183807F50B5303F118031B68009307F50B5303F11C031B6807F50B5202F12002126803210CF01FFA16
S32D0000D430B42364226849694812F02AFFB423782207F50B5101F120010968644812F074FFC823642262496148B1
S32D0000D45812F01AFFC823782207F50B5101F11C0109685C4812F064FFDC2364225B49594812F00AFFDC237822B7
S32D0000D48007F50B5101F118010968544812F054FF642300225449514812F0FAFE07F5BD63183B18460CF069FAB4
S32D0000D4A80146642328224B4812F042FF782300224C49484812F0E8FE07F5BD63183B18460BF0ABFA014678234F
S32D0000D4D02822424812F030FF8C23002244493F4812F0D6FE07F5BD63183B18460CF054FA01468C232822394896
S32D0000D4F812F01EFF07F5065303F11803184616F0D9F807F5065202F1180207F506533749184633F0C1FF07F5DB
S32D0000D520065207F53A702C38334B00936FF07F43002103F023FB07F50653184633F022FC07F5065303F11803BF
S32D0000D548184616F0B9F807F53A732C3B1E21184603F024FE07F53A732C3B184603F0A8FC07F5BD63183B022147
S32D0000D57018460CF0AEF907F5095303F13403186007F5095303F1340318680CF025FD07F5095303F13003186079
S32D0000D5983C23962207F5095101F1300109680D4812F0AAFE07F53A732C3B184603F0E1FD0346002B00F00B8136
S32D0000D5C01CE000BFAFF300809A9999999999B93FFCA9F1D24D62503FC4910600D41A0020C8910600CC91060000
S32D0000D5E8D0910600D8910600E0910600E89106006666660007F5095303F1340318680CF0C4FC07F5095303F10C
S32D0000D6102C03186007F5095303F1340318680CF0CFFC07F5095303F12803186007F5095303F1340318680CF08D
S32D0000D638B7FC07F5095303F12403186007F5095303F1340318680CF0CFFC07F5095303F1200318604F4A504943
S32D0000D660504815F0A1FC07F5095303F11C03186007F5BD63183B18460BF078F94A4A07F5095303F11C031968C6
S32D0000D688464815F0E9FD002307F50B5202F11002136007F5095303F1340318680CF0B0FC024607F50B5303F1C6
S32D0000D6B010031B689A428CBF01230023DBB2002B78D03C23C82207F50B5101F110010968364812F015FE07F5A4
S32D0000D6D80B5303F110031B689B0007F5095202F12C02126813441B68184647F09BFF04460D4607F50B5303F1BB
S32D0000D70010031B689B0007F5095202F12802126813441B68184647F089FF8046894607F50B5303F110031B686C
S32D0000D7289B0007F5095202F12002126813441E6807F50B5303F110031B689B0007F5095202F1240212681344B5
S32D0000D7501B68184647F06AFF02460B46CDE906230496CDE90289CDE90045114A07F5095303F11C0319680B4842
S32D0000D77815F072FD962011F029F907F50B5303F110031B68013307F50B5202F1100213607FE700BFF0910600A1
S32D0000D7A0F4910600501B0020FC910600D41A00200892060007F5095303F11C031968C04815F0BEFC7823002294
S32D0000D7C8BE49BF4812F060FDBD4812F004FDBD4B07F5095202F118021360BB4B07F5095202F11402136007F50A
S32D0000D7F0095303F11403186848F0A2FD0446B54907F5095303F11803186848F0B5FA0346184648F095FD03467D
S32D0000D8182246AF49AA4812F037FD07F50B5303F12803A3F532731C6807F5095303F11403186848F081FD05463C
S32D0000D840A64907F5095303F11803186848F094FA0346184648F074FD03462A4621469A4812F06AFD07F509530B
S32D0000D86803F11403186848F067FD04469A4907F5095303F11803186848F07AFA0346184648F05AFD03462246C4
S32D0000D89094498D4812F0FCFC07F50B5303F12803A3F532735C6807F5095303F11403186848F046FD05468C49C6
S32D0000D8B807F5095303F11803186848F059FA0346184648F039FD03462A4621467C4812F02FFD844B07F5095283
S32D0000D8E002F1100213607E4B07F5095202F10C02136007F5BD63183B012118460BF064FF322307F5095202F122
S32D0000D90808021360FF216E4812F0ABFC07F5095303F10803186848F0DBFA044607F5095303F10803186848F0B8
S32D0000D930D3FA03460093234607F5095202F10C02126807F5095101F1100109685E4813F029FB07F5A563043B0B
S32D0000D95807F5A5611A465A4812F0A6FD0346002B00F0C28007F5975303F10803A3F55C631B68184648F0E0FC21
S32D0000D980044607F5975303F10803A3F6C4531B68184648F0D5FC054607F5095303F11003186848F0CDFC064639
S32D0000D9A807F5095303F10C03186848F0C5FC014607F5095303F108031B6807F5095202F1080212680192009368
S32D0000D9D00B46324629462046FEF752FD0346002B00F08C8007F5975303F10803A3F55C631B6807F5095202F1CE
S32D0000D9F810021168184648F0B9F903461C4607F5095303F10803186848F062FA03461946204648F069FB034625
S32D0000DA2083F0004207F50B5303F12803A3F532731A6007F5975303F10803A3F6C4531B6807F5095202F10C0283
S32D0000DA481168184648F092F903461C4607F5095303F10803186848F03BFA03461946204648F042FB03461A46FB
S32D0000DA7007F50B5303F12803A3F532735A6007F50B5303F12803A3F53273196807F50B5303F12803A3F532732B
S32D0000DA985A6807F50B5303F12803A3F532739B6807F5BD6018380AF0C7FD07F5BD63183B18460AF0E3FD1DE01A
S32D0000DAC0501B002040920600D41A002000001643000034430000B4424C9206000000D2420000F04258920600E7
S32D0000DAE8000007430000204307F5BD63183B18460AF0C4FD07F53A732C3B1846FEF728FD07F51A73203B184611
S32D0000DB10FEF722FD07F5F473143B1846FEF71CFD07F5B473083B1846FEF716FD07F594733C3B1846FEF710FD0F
S32D0000DB3807F1A803303B1846FEF70AFD07F12803243B1846FEF704FDFFF752B9C44B1B78042B40F0E58307F51B
S32D0000DB60BD63183B18460BF00FF84FF0000307F50A5202F11C021360BC4B07F50A5202F118021360BA4B07F5C6
S32D0000DB880A5202F1140213604FF0000107F50A5303F11C03186848F0EBF80346184648F0CBFB03460022B14946
S32D0000DBB0B14812F06DFB07F5BD63183B18460AF04FFF03461C68AD4907F50A5303F11C03186848F0D1F80346D6
S32D0000DBD8184648F0B1FB034600222146A44812F0A7FBA04907F50A5303F11C03186848F0BFF80346184648F0D8
S32D0000DC009FFB034600229E499B4812F041FB07F5BD63183B18460AF023FF034604331C68984907F50A5303F1CE
S32D0000DC281C03186848F0A4F80346184648F084FB0346002221468E4812F07AFB904907F50A5303F11C03186819
S32D0000DC5048F092F80346184648F072FB034600228A49854812F014FB07F5BD63183B18460AF0F6FE034608333D
S32D0000DC781C68854907F50A5303F11C03186848F077F80346184648F057FB034600222146774812F04DFB7D49C7
S32D0000DCA007F50A5303F11C03186848F065F80346184648F045FB0346002277496E4812F0E7FA07F5AD63184688
S32D0000DCC810F0B8FF03461C46724907F50A5303F11C03186848F04CF80346184648F02CFB034600222146624827
S32D0000DCF012F07EFB6A4B07F50A5202F110021360684B07F50A5202F10C021360664B07F50A5202F1080213600E
S32D0000DD185E4907F50A5303F11803186848F028F80346184648F008FB034600225D49504812F0AAFA07F5B963AD
S32D0000DD40083B184611F0E0FA034607F50A5202F110021168184648F00FF803461C464F4907F50A5303F11803D2
S32D0000DD68186848F005F80346184648F0E5FA0346002221463E4812F0DBFA4B4907F50A5303F11803186847F038
S32D0000DD90F3FF0346184648F0D3FA034600224549354812F075FA07F5B9630C3B184611F0ABFA034607F50A52DC
S32D0000DDB802F10C021168184647F0DAFF03461C463B4907F50A5303F11803186847F0D0FF0346184648F0B0FAAF
S32D0000DDE0034600222146244812F0A6FA334907F50A5303F11803186847F0BEFF0346184648F09EFA03460022FB
S32D0000DE082D491B4812F040FA07F5B963103B184611F076FA034607F50A5202F108021168184647F0A5FF03460C
S32D0000DE301C46244907F50A5303F11803186847F09BFF0346184648F07BFA034600222146094812F071FA07F55C
S32D0000DE58065303F13403184615F02CFC30E000BFE51700200000F0410000BE4260920600D41A002000007041BA
S32D0000DE8068920600000034420000704270920600000096420000B4427C9206000000D242E8B401BDE742523D3C
S32D0000DEA8FD1BA1BC8C920600000002439492060000001143000020439C92060000002F4307F5065202F1340268
S32D0000DED007F5065303F11C039049184633F0E0FA07F5065202F11C0207F5B47008384FF4C84300934FF400435C
S32D0000DEF8002102F03FFE07F5065303F11C03184632F03CFF07F5065303F13403184615F0D3FB07F5B473083B72
S32D0000DF201E21184603F03EF907F5075303F11003184615F0C3FB07F5075202F1100207F5065303F138037649F1
S32D0000DF48184633F0A9FA07F5065202F1380207F5F47014384FF40B0300934FF47F031E2102F008FE07F5065325
S32D0000DF7003F13803184632F005FF07F5075303F11003184615F09CFB07F5F473143B1E21184603F007F907F53B
S32D0000DF98075303F12C03184615F08CFB07F5075202F12C0207F5075303F114035B49184633F072FA07F5075237
S32D0000DFC002F1140207F51A7020388B230093FF23B42102F0D3FD07F5075303F11403184632F0D0FE07F507534D
S32D0000DFE803F12C03184615F067FB07F51A73203B1E21184603F0D2F807F5085303F10803184615F057FB07F5DE
S32D0000E010085202F1080207F5075303F130034249184633F03DFA07F5075202F1300207F53A702C388B23009306
S32D0000E038FF23D22102F09EFD07F5075303F13003184632F09BFE07F5085303F10803184615F032FB07F53A73F3
S32D0000E0602C3B1E21184603F09DF807F5F473143B184602F021FF07F5B473083B184602F01BFF07F51A73203B30
S32D0000E088184602F015FF07F53A732C3B184602F00FFF07F51A73203B184603F05FF80346002B07D007F5AD63B5
S32D0000E0B00C3B4FF00001184611F05EFC07F53A732C3B184603F04EF80346002B06D007F5AD630C3B1549184602
S32D0000E0D811F04EFC07F5B473083B184603F03EF80346002B06D007F5B9630F4918460CF05FFB22E007F5F4730F
S32D0000E100143B184603F02EF80346002B14D007F5B963084918460CF04FFB12E0A4920600B0920600BC920600FC
S32D0000E128C8920600000034430000A0420000A0C207F5B96318460CF0F9FA764B07F50A5202F104021360744B05
S32D0000E15007F50A52136007F5BD63183B012118460BF032FB322307F5095202F13C021360FF216C4812F079F828
S32D0000E17807F5095303F13C03186847F0A9FE044607F5095303F13C03186847F0A1FE03460093234607F50A52C8
S32D0000E1A0126807F50A5101F1040109685D4812F0F9FE07F5A563043B07F5A5611A46594812F076F90346002B4F
S32D0000E1C800F0878007F5975303F10803A3F55C631B68184648F0B0F8044607F5975303F10803A3F6C4531B68D3
S32D0000E1F0184648F0A5F8054607F50A5303F10403186848F09DF8064607F50A53186848F097F8014607F5095357
S32D0000E21803F13C031B6807F5095202F13C021268019200930B46324629462046FEF724F90346002B53D007F5B7
S32D0000E240975303F10803A3F55C631B6807F50A5202F104021168184647F08CFD03461C4607F5095303F13C03CF
S32D0000E268186847F035FE03461946204647F03CFF034683F000431946184647F079FD03461A4607F50B5303F1BE
S32D0000E2902803A3F532731A6007F50B5303F12803A3F53273196807F50B5303F12803A3F532735A6807F50B5375
S32D0000E2B803F12803A3F532739B6807F5BD6018380AF0BAF907F5BD63183B18460AF0D6F905E007F5BD63183BD9
S32D0000E2E018460AF043FB07F53A732C3B1846FEF733F907F51A73203B1846FEF72DF907F5F473143B1846FEF789
S32D0000E30827F907F5B473083B1846FEF721F9FEF76FBD00BF000020430000F042D41A00204FF0000307F50A52D7
S32D0000E33002F138021360C54B07F50A5202F1340213604FF0000107F50A5303F13803186847F012FD03461846E6
S32D0000E35847F0F2FF03460022BB49BC4811F094FF07F5BD63183B18460AF04AFB0446B84907F50A5303F1380389
S32D0000E380186847F0F9FC0346184647F0D9FF034600222146AF4811F0CFFFB04907F50A5303F13803186847F03D
S32D0000E3A8E7FC0346184647F0C7FF03460022AA49A64811F069FF07F5BD63183B18460AF02CFB0446A54907F5E9
S32D0000E3D00A5303F13803186847F0CEFC0346184647F0AEFF0346002221469A4811F0A4FF9D4907F50A5303F1FC
S32D0000E3F83803186847F0BCFC0346184647F09CFF034600229749914811F03EFF07F5BD63183B18460AF010FBA0
S32D0000E4200446934907F50A5303F13803186847F0A3FC0346184647F083FF034600222146844811F079FF4FF014
S32D0000E448000107F50A5303F13403186847F090FC0346184647F070FF0346002283497B4811F012FF07F5BD6369
S32D0000E470183B18460AF09CFA0446774907F50A5303F13403186847F077FC0346184647F057FF0346002221467F
S32D0000E4986E4811F04DFF6F4907F50A5303F13403186847F065FC0346184647F045FF034600226F49654811F00C
S32D0000E4C0E7FE07F5BD63183B18460AF07EFA0446644907F50A5303F13403186847F04CFC0346184647F02CFF87
S32D0000E4E8034600222146594811F022FF5C4907F50A5303F13403186847F03AFC0346184647F01AFF03460022F9
S32D0000E5105A49504811F0BCFE07F5BD63183B18460AF062FA0446524907F50A5303F13403186847F021FC03463E
S32D0000E538184647F001FF034600222146434811F0F7FE4D4907F50A5303F13403186847F00FFC0346184647F013
S32D0000E560EFFE0346002247493A4811F091FE07F5B963043B184610F0C7FE0446424907F50A5303F13403186840
S32D0000E58847F0F6FB0346184647F0D6FE0346002221462E4811F0CCFE314B07F50A5202F130021360374B07F58E
S32D0000E5B00A5202F12C02136007F50A5303F12C03186847F0BDFE04462D4907F50A5303F13003186847F0D0FB9D
S32D0000E5D80346184647F0B0FE034622462A491B4811F052FE07F50B5303F12803A3F532731C6807F50A5303F12A
S32D0000E6002C03186847F09CFE05461F4907F50A5303F13003186847F0AFFB0346184647F08FFE03462A4621464D
S32D0000E6280A4811F085FE07F50A5303F12C03186847F082FE0446154907F50A5303F1300326E000BF0000BE424E
S32D0000E650D4920600D41A0020000070410000F041E09206000000344200007042F09206000000964200930600A7
S32D0000E6780C9306001C9306000000B4422C9306000000D242000034434C9206000000F042186847F06DFB034656
S32D0000E6A0184647F04DFE03462246A349A34811F0EFFD07F50B5303F12803A3F532735C6807F50A5303F12C0301
S32D0000E6C8186847F039FE05469B4907F50A5303F13003186847F04CFB0346184647F02CFE03462A462146934886
S32D0000E6F011F022FE07F5085303F12403184614F0DDFF07F5085202F1240207F5085303F10C038C49184632F00D
S32D0000E718C3FE07F5085303F10C0307F51A7020388B2201924FF400420092854A854902F0D7FA07F5085303F1D8
S32D0000E7400C03184632F01EFB07F5085303F12403184614F0B5FF07F51A73203B1E21184602F020FD07F5095393
S32D0000E768184614F0A7FF07F5095207F5085303F128037549184632F08FFE07F5085303F1280307F53A702C3863
S32D0000E7908B2201924FF6FF7200926E4A6B4902F0A3FA07F5085303F12803184632F0EAFA07F50953184614F044
S32D0000E7B883FF07F53A732C3B1E21184602F0EEFC07F51A73203B184602F072FB07F53A732C3B184602F06CFBC0
S32D0000E7E007F53A732C3B184602F0BCFC0346002B05D0002307F50B5202F12702137007F51A73203B184602F05B
S32D0000E808ADFC0346002B08D0012307F50B5202F127021370474811F0DEFC07F50B5303F127031A7807F5BD6341
S32D0000E830183B114618460AF0C7FF474B07F50A5202F128021360454B07F50A5202F124021360322307F50A5257
S32D0000E85802F120021360FF21364811F002FD07F50A5303F12003186847F032FB044607F50A5303F120031868DE
S32D0000E88047F02AFB03460093234607F50A5202F12402126807F50A5101F128010968274812F080FB07F5A5630B
S32D0000E8A8043B07F5A5611A46224811F0FDFD0346002B00F0BF8007F5975303F10803A3F55C631B68184647F045
S32D0000E8D037FD044607F5975303F10803A3F6C4531B68184647F02CFD054607F50A5303F12803186847F024FD2B
S32D0000E8F8064607F50A5303F12403186847F01CFD014607F50A5303F120031B6807F50A5202F1200212680192AE
S32D0000E92000930B46324629462046FDF7A9FD0346002B00F0898013E058920600D41A0020000007433893060085
S32D0000E9480000704200007A433C9306000000BE42000020430000F04207F5975303F10803A3F55C631B6807F50D
S32D0000E9700A5202F128021168184647F0FBF903461C4607F50A5303F12003186847F0A4FA03461946204647F049
S32D0000E998ABFB034683F0004207F50B5303F12803A3F532731A6007F5975303F10803A3F6C4531B6807F50A520D
S32D0000E9C002F124021168184647F0D4F903461C4607F50A5303F12003186847F07DFA03461946204647F084FB28
S32D0000E9E803461A4607F50B5303F12803A3F532735A6007F50B5303F12803A3F53273196807F50B5303F1280338
S32D0000EA10A3F532735A6807F50B5303F12803A3F532739B6807F5BD60183809F009FE07F5BD63183B184609F0F1
S32D0000EA3825FE05E007F5BD63183B184609F092FF07F53A732C3B1846FDF782FD07F51A73203B1846FDF77CFDC1
S32D0000EA60FEF7CAB9024B00221A70FEF703B900BFE5170020B0B582B000AF78603960386800F044FB0546442056
S32D0000EA8814F048FD03461C462946204604F0B2FB2146786800F050FB78680837BD46B0BD90B585B000AF7860E4
S32D0000EAB07B68184600F053FBF860FB681B68002B0CD0786800F058FB0446F86800F061FB03461B6819462046CA
S32D0000EAD800F065FBFB6800221A607B6818461437BD4690BD80B584B000AFF860B9607A60FB68B9687A681846BE
S32D0000EB0000F079FBFB6818461037BD4680BDB0B582B000AF786039607C68386800F054FB0546386800F028FBC3
S32D0000EB280346184600F059FB03461A4629462046FFF7D8FF7B6818460837BD46B0BD90B585B000AF78607B68B5
S32D0000EB50184600F066FBF860FB681B68002B0CD0786800F06BFB0446F86800F074FB03461B681946204600F0E3
S32D0000EB7878FBFB6800221A607B6818461437BD4690BDB0B582B000AF78603960386800F079FB0546442014F0B3
S32D0000EBA0BDFC03461C462946204603F009FE2146786800F085FB78680837BD46B0BD90B585B000AF78607B68EA
S32D0000EBC8184600F088FBF860FB681B68002B0CD0786800F08DFB0446F86800F096FB03461B681946204600F005
S32D0000EBF09AFBFB6800221A607B6818461437BD4690BD80B584B000AFF860B9607A60FB68B9687A68184600F070
S32D0000EC18AEFBFB6818461037BD4680BDB0B582B000AF786039607C68386800F089FB0546386800F05DFB0346B2
S32D0000EC40184600F08EFB03461A4629462046FFF7D8FF7B6818460837BD46B0BD2DE9F04184B000AFF860B960F9
S32D0000EC687A603B60B86800F00DFB0546786800F094FB0646386800F09AFB80464C2014F049FC03461C46434627
S32D0000EC9032462946204606F09FFD2146F86800F0A4FBF8681037BD46BDE8F08190B585B000AF78607B6818461F
S32D0000ECB800F0A6FBF860FB681B68002B0CD0786800F0ABFB0446F86800F0B4FB03461B681946204600F0B8FB65
S32D0000ECE0FB6800221A607B6818461437BD4690BD80B584B000AFF860B9607A60FB68B9687A68184600F0CCFB4D
S32D0000ED08FB6818461037BD4680BDB0B582B000AF786039607C68386800F0A7FB0546386800F07BFB03461846D0
S32D0000ED3000F0ACFB03461A4629462046FFF7D8FF7B6818460837BD46B0BD2DE9F04184B000AFF860B9607A606E
S32D0000ED583B60B86800F096FA0546786800F01DFB0646386800F0AEFB80464C2014F0D2FB03461C4643463246EB
S32D0000ED802946204605F016FF2146F86800F0B8FBF8681037BD46BDE8F08190B585B000AF78607B68184600F02A
S32D0000EDA8BAFBF860FB681B68002B0CD0786800F0BFFB0446F86800F0C8FB03461B681946204600F0CCFBFB68B1
S32D0000EDD000221A607B6818461437BD4690BD80B584B000AFF860B9607A60FB68B9687A68184600F0E0FBFB6848
S32D0000EDF818461037BD4680BDB0B582B000AF786039607C68386800F0BBFB0546386800F08FFB0346184600F02B
S32D0000EE20C0FB03461A4629462046FFF7D8FF7B6818460837BD46B0BDF0B585B000AFF860B9607A60B86800F0EA
S32D0000EE4821FA0546786800F0A8FA0646482014F061FB03461C4632462946204604F02AFB2146F86800F0C9FB24
S32D0000EE70F8681437BD46F0BD90B585B000AF78607B68184600F0CCFBF860FB681B68002B0CD0786800F0D1FB3F
S32D0000EE980446F86800F0DAFB03461B681946204600F0DEFBFB6800221A607B6818461437BD4690BD80B584B03F
S32D0000EEC000AFF860B9607A60FB68B9687A68184600F0F2FBFB6818461037BD4680BDB0B582B000AF786039608A
S32D0000EEE87C68386800F0CDFB0546386800F0A1FB0346184600F0D2FB03461A4629462046FFF7D8FF7B68184659
S32D0000EF100837BD46B0BDB0B586B000AFF860B9607A60B86800F0B2F90546786800F0EEF803461B783B754820DF
S32D0000EF3814F0F0FA03461C463A7D2946204607F0CBFB2146F86800F0D9FBF8681837BD46B0BD90B585B000AFF6
S32D0000EF6078607B68184600F0DCFBF860FB681B68002B0CD0786800F0E1FB0446F86800F0EAFB03461B68194608
S32D0000EF88204600F0EEFBFB6800221A607B6818461437BD4690BD80B584B000AFF860B9607A60FB68B9687A6878
S32D0000EFB0184600F002FCFB6818461037BD4680BDB0B582B000AF786039607C68386800F0DDFB0546386800F0C1
S32D0000EFD8B1FB0346184600F0E2FB03461A4629462046FFF7D8FF7B6818460837BD46B0BD2DE9F041ACB014AF4A
S32D0000F000F860B9607A603B60B86800F03FF90646786800F0E8FB8046386800F057FA024607F1140311464C22F2
S32D0000F02818464AF00DF9B86F00F0B7F90446502014F070FA03461D461294684607F11803482219464AF0FCF823
S32D0000F0507B6942463146284602F010FD2946F86800F0DBFBF8686037BD46BDE8F08190B585B000AF78607B68B9
S32D0000F078184600F0DDFBF860FB681B68002B0CD0786800F0E2FB0446F86800F0EBFB03461B681946204600F051
S32D0000F0A0EFFBFB6800221A607B6818461437BD4690BD80B584B000AFF860B9607A60FB68B9687A68184600F066
S32D0000F0C803FCFB6818461037BD4680BDB0B582B000AF786039607C68386800F0DEFB0546386800F0B2FB0346FE
S32D0000F0F0184600F0E3FB03461A4629462046FFF7D8FF7B6818460837BD46B0BD80B483B000AF78607B6818465C
S32D0000F1180C37BD4680BC704780B582B000AF786039607B683A681146184600F0E3FB7B6818460837BD4680BD41
S32D0000F14080B582B000AF786039607B6839681846FFF7E6FF7B6818460837BD4680BD80B582B000AF78607B68CC
S32D0000F168184600F0DBFB034618460837BD4680BD80B582B000AF78607B68184600F0DBFB034618460837BD4651
S32D0000F19080BD80B483B000AF78607B6818460C37BD4680BC704780B582B000AF786039603B68002B04D01A6801
S32D0000F1B8183212681846904700BF0837BD4680BD80B582B000AF78607B68184600F0C0FB034618460837BD462F
S32D0000F1E080BD80B483B000AF78607B6818460C37BD4680BC704790B585B000AFF860B9607A60FC687868FFF7AE
S32D0000F208ECFF024607F108031946204600F0B5FBFB6818461437BD4690BD80B582B000AF78607B68184600F0C2
S32D0000F230C1FB034618460837BD4680BD80B582B000AF78607B68184600F0C1FB034618460837BD4680BD80B499
S32D0000F25883B000AF78607B6818460C37BD4680BC704780B582B000AF786039603B68002B04D01A6818321268E5
S32D0000F2801846904700BF0837BD4680BD80B483B000AF78607B6818460C37BD4680BC704780B582B000AF786097
S32D0000F2A839607B683A681146184600F0A6FB7B6818460837BD4680BD80B582B000AF786039607B6839681846AB
S32D0000F2D0FFF7E6FF7B6818460837BD4680BD80B582B000AF78607B68184600F09EFB034618460837BD4680BD97
S32D0000F2F880B582B000AF78607B68184600F09EFB034618460837BD4680BD80B483B000AF78607B6818460C3798
S32D0000F320BD4680BC704780B582B000AF786039603B68002B04D01A68183212681846904700BF0837BD4680BDE7
S32D0000F34880B582B000AF78607B68184600F083FB034618460837BD4680BD80B483B000AF78607B6818460C3762
S32D0000F370BD4680BC704790B585B000AFF860B9607A60FC687868FFF7ECFF024607F108031946204600F078FB6D
S32D0000F398FB6818461437BD4690BD80B483B000AF78607B6818460C37BD4680BC704780B483B000AF78607B68B2
S32D0000F3C018460C37BD4680BC704780B582B000AF786039607B683A681146184600F06DFB7B6818460837BD46EC
S32D0000F3E880BD80B582B000AF786039607B6839681846FFF7E6FF7B6818460837BD4680BD80B582B000AF7860C8
S32D0000F4107B68184600F065FB034618460837BD4680BD80B582B000AF78607B68184600F065FB034618460837B2
S32D0000F438BD4680BD80B483B000AF78607B6818460C37BD4680BC704780B582B000AF786039603B68002B04D0D5
S32D0000F4601A68183212681846904700BF0837BD4680BD80B582B000AF78607B68184600F04AFB0346184608377B
S32D0000F488BD4680BD80B483B000AF78607B6818460C37BD4680BC704790B585B000AFF860B9607A60FC687868F6
S32D0000F4B0FFF7ECFF024607F108031946204600F03FFBFB6818461437BD4690BD80B483B000AF78607B68184688
S32D0000F4D80C37BD4680BC704780B582B000AF786039607B683A681146184600F03EFB7B6818460837BD4680BD23
S32D0000F50080B582B000AF786039607B6839681846FFF7E6FF7B6818460837BD4680BD80B582B000AF78607B6808
S32D0000F528184600F036FB034618460837BD4680BD80B582B000AF78607B68184600F036FB034618460837BD46D7
S32D0000F55080BD80B483B000AF78607B6818460C37BD4680BC704780B582B000AF786039603B68002B04D01A683D
S32D0000F578183212681846904700BF0837BD4680BD80B582B000AF78607B68184600F01BFB034618460837BD4610
S32D0000F5A080BD80B483B000AF78607B6818460C37BD4680BC704790B585B000AFF860B9607A60FC687868FFF7EA
S32D0000F5C8ECFF024607F108031946204600F010FBFB6818461437BD4690BD80B582B000AF786039607B683A68B7
S32D0000F5F01146184600F019FB7B6818460837BD4680BD80B582B000AF786039607B6839681846FFF7E6FF7B684D
S32D0000F61818460837BD4680BD80B582B000AF78607B68184600F011FB034618460837BD4680BD80B582B000AF80
S32D0000F64078607B68184600F011FB034618460837BD4680BD80B483B000AF78607B6818460C37BD4680BC7047F9
S32D0000F66880B582B000AF786039603B68002B04D01A68183212681846904700BF0837BD4680BD80B582B000AF7C
S32D0000F69078607B68184600F0F6FA034618460837BD4680BD80B483B000AF78607B6818460C37BD4680BC7047C5
S32D0000F6B890B585B000AFF860B9607A60FC687868FFF7ECFF024607F108031946204600F0EBFAFB68184614379A
S32D0000F6E0BD4690BD80B582B000AF786039607B683A681146184600F0F4FA7B6818460837BD4680BD80B582B0E6
S32D0000F70800AF786039607B6839681846FFF7E6FF7B6818460837BD4680BD80B582B000AF78607B68184600F017
S32D0000F730ECFA034618460837BD4680BD80B582B000AF78607B68184600F0ECFA034618460837BD4680BD80B440
S32D0000F75883B000AF78607B6818460C37BD4680BC704780B582B000AF786039603B68002B04D01A6818321268E0
S32D0000F7801846904700BF0837BD4680BD80B582B000AF78607B68184600F0D1FA034618460837BD4680BD80B4A4
S32D0000F7A883B000AF78607B6818460C37BD4680BC704790B585B000AFF860B9607A60FC687868FFF7ECFF02461E
S32D0000F7D007F108031946204600F0C6FAFB6818461437BD4690BD80B483B000AF78607B6818460C37BD4680BC86
S32D0000F7F8704780B582B000AF786039607B683A681146184600F0C5FA7B6818460837BD4680BD80B582B000AFE6
S32D0000F820786039607B6839681846FFF7E6FF7B6818460837BD4680BD80B582B000AF78607B68184600F0BDFAF6
S32D0000F848034618460837BD4680BD80B582B000AF78607B68184600F0BDFA034618460837BD4680BD80B483B009
S32D0000F87000AF78607B6818460C37BD4680BC704780B582B000AF786039603B68002B04D01A681832126818469C
S32D0000F898904700BF0837BD4680BD80B582B000AF78607B68184600F0A2FA034618460837BD4680BD80B483B0E5
S32D0000F8C000AF78607B6818460C37BD4680BC704790B585B000AFF860B9607A60FC687868FFF7ECFF024607F140
S32D0000F8E808031946204600F097FAFB6818461437BD4690BD80B582B000AF786039607B68184600F0A2FA786811
S32D0000F910FFF725FC02463B6813607B6818460837BD4680BD80B582B000AF78607B68184600F0A9FA034618462B
S32D0000F9380837BD4680BD80B582B000AF78607B68184600F0A8FA034618460837BD4680BD80B584B000AF78604B
S32D0000F9607868FFF7FCFB03461B68FB607868FFF7F6FB034600221A60FB6818461037BD4680BDB0B584B000AF49
S32D0000F988F860B9607A60FC68B86800F090FA05467868FFF722FC03461A462946204600F090FAFB6818461037C9
S32D0000F9B0BD46B0BD80B582B000AF78607B68184600F09FFA034618460837BD4680BD80B582B000AF78607B680A
S32D0000F9D8184600F09EFA034618460837BD4680BD80B582B000AF78607B68184600F09DFA034618460837BD4656
S32D0000FA0080BD80B582B000AF786039607B68184600F0A5FA7868FFF762FC02463B6813607B6818460837BD462F
S32D0000FA2880BD80B582B000AF78607B68184600F0ACFA034618460837BD4680BD80B582B000AF78607B68184659
S32D0000FA5000F0ABFA034618460837BD4680BD80B584B000AF78607868FFF739FC03461B68FB607868FFF733FCA6
S32D0000FA78034600221A60FB6818461037BD4680BDB0B584B000AFF860B9607A60FC68B86800F00DFA05467868FA
S32D0000FAA0FFF75FFC03461A462946204600F089FAFB6818461037BD46B0BD80B582B000AF786039607B681846B6
S32D0000FAC800F097FA7868FFF79BFC02463B6813607B6818460837BD4680BD80B582B000AF78607B68184600F0E5
S32D0000FAF09EFA034618460837BD4680BD80B582B000AF78607B68184600F09DFA034618460837BD4680BD80B519
S32D0000FB1884B000AF78607868FFF772FC03461B68FB607868FFF76CFC034600221A60FB6818461037BD4680BD2E
S32D0000FB40B0B584B000AFF860B9607A60FC68B86800F0B1F905467868FFF798FC03461A462946204600F07BFA4E
S32D0000FB68FB6818461037BD46B0BD80B582B000AF786039607B68184600F089FA7868FFF7CAFC02463B681360C2
S32D0000FB907B6818460837BD4680BD80B582B000AF78607B68184600F090FA034618460837BD4680BD80B582B051
S32D0000FBB800AF78607B68184600F08FFA034618460837BD4680BD80B584B000AF78607868FFF7A1FC03461B6889
S32D0000FBE0FB607868FFF79BFC034600221A60FB6818461037BD4680BDB0B584B000AFF860B9607A60FC68B868EB
S32D0000FC0800F055F905467868FFF7C7FC03461A462946204600F06DFAFB6818461037BD46B0BD80B582B000AF49
S32D0000FC30786039607B68184600F07BFA7868FFF7EFFC02463B6813607B6818460837BD4680BD80B582B000AF9A
S32D0000FC5878607B68184600F082FA034618460837BD4680BD80B582B000AF78607B68184600F081FA0346184692
S32D0000FC800837BD4680BD80B584B000AF78607868FFF7C6FC03461B68FB607868FFF7C0FC034600221A60FB684E
S32D0000FCA818461037BD4680BDB0B584B000AFF860B9607A60FC68B86800F0F9F805467868FFF7ECFC03461A469F
S32D0000FCD02946204600F05FFAFB6818461037BD46B0BD80B582B000AF786039607B68184600F06DFA7868FFF77B
S32D0000FCF814FD02463B6813607B6818460837BD4680BD80B582B000AF78607B68184600F074FA0346184608373C
S32D0000FD20BD4680BD80B582B000AF78607B68184600F073FA034618460837BD4680BD80B584B000AF78607868F3
S32D0000FD48FFF7EBFC03461B68FB607868FFF7E5FC034600221A60FB6818461037BD4680BDB0B584B000AFF86005
S32D0000FD70B9607A60FC68B86800F09DF805467868FFF711FD03461A462946204600F051FAFB6818461037BD4676
S32D0000FD98B0BD80B582B000AF786039607B68184600F05FFA7868FFF743FD02463B6813607B6818460837BD46C8
S32D0000FDC080BD80B582B000AF78607B68184600F066FA034618460837BD4680BD80B582B000AF78607B68184604
S32D0000FDE800F065FA034618460837BD4680BD80B584B000AF78607868FFF71AFD03461B68FB607868FFF714FD8D
S32D0000FE10034600221A60FB6818461037BD4680BDB0B584B000AFF860B9607A60FC68B86800F041F8054678682C
S32D0000FE38FFF740FD03461A462946204600F043FAFB6818461037BD46B0BD80B582B000AF78607B68184600F027
S32D0000FE6052FA7B6818460837BD4680BD80B582B000AF78607B68184600F055FA034618460837BD4680BD80B59F
S32D0000FE8882B000AF78607868FFF7ECFF034618460837BD4680BD80B582B000AF7860786800F053FA03461846FA
S32D0000FEB00837BD4680BD80B483B000AF78607B6818460C37BD4680BC704790B585B000AFF860B9607A607868E9
S32D0000FED8FFF783F903461946F86800F042FAFC68B868FFF7E4FF03461946204600F04BFAFB6818461437BD46A7
S32D0000FF0090BD80B582B000AF78607868FFF76CFD034618460837BD4680BD80B582B000AF7860786800F044FA37
S32D0000FF28034618460837BD4680BD80B483B000AF78607B6818460C37BD4680BC704780B582B000AF786078684F
S32D0000FF5000F03AFA034618460837BD4680BD80B582B000AF78607B68184600F037FA7B6818460837BD4680BD29
S32D0000FF7880B582B000AF78607B68184600F03AFA034618460837BD4680BD80B582B000AF78607868FFF7ECFF33
S32D0000FFA0034618460837BD4680BD80B582B000AF7860786800F038FA034618460837BD4680BD90B585B000AFCE
S32D0000FFC8F860B9607A607868FFF7C7F903461946F86800F031FAFC68B868FFF768FF03461946204600F0CFF960
S32D0000FFF0FB6818461437BD4690BD80B582B000AF78607B68184600F02DFA7B6818460837BD4680BD80B582B01A
S32D0001001800AF78607B68184600F030FA034618460837BD4680BD80B582B000AF78607868FFF7ECFF034618465B
S32D000100400837BD4680BD80B582B000AF7860786800F02EFA034618460837BD4680BD90B585B000AFF860B9606C
S32D000100687A607868FFF70EFA03461946F86800F027FAFC68B868FFF71AFF03461946204600F081F9FB681846CC
S32D000100901437BD4690BD80B582B000AF78607B68184600F023FA7B6818460837BD4680BD80B582B000AF7860BC
S32D000100B87B68184600F026FA034618460837BD4680BD80B582B000AF78607868FFF7ECFF034618460837BD460A
S32D000100E080BD80B582B000AF7860786800F024FA034618460837BD4680BD90B585B000AFF860B9607A6078685E
S32D00010108FFF74BFA03461946F86800F01DFAFC68B868FFF7CCFE03461946204600F033F9FB6818461437BD4601
S32D0001013090BD80B582B000AF78607B68184600F019FA7B6818460837BD4680BD80B582B000AF78607B68184632
S32D0001015800F01CFA034618460837BD4680BD80B582B000AF78607868FFF7ECFF034618460837BD4680BD80B542
S32D0001018082B000AF7860786800F01AFA034618460837BD4680BD90B585B000AFF860B9607A607868FFF77EFACB
S32D000101A803461946F86800F013FAFC68B868FFF77EFE03461946204600F0E5F8FB6818461437BD4690BD80B5C1
S32D000101D082B000AF78607B68184600F00FFA7B6818460837BD4680BD80B582B000AF78607B68184600F012FA22
S32D000101F8034618460837BD4680BD80B582B000AF78607868FFF7ECFF034618460837BD4680BD80B582B000AFC7
S32D000102207860786800F010FA034618460837BD4680BD90B585B000AFF860B9607A607868FFF7B1FA034619463A
S32D00010248F86800F009FAFC68B868FFF730FE03461946204600F097F8FB6818461437BD4690BD80B582B000AF8D
S32D0001027078607B68184600F005FA7B6818460837BD4680BD80B582B000AF78607B68184600F008FA03461846CF
S32D000102980837BD4680BD80B582B000AF78607868FFF7ECFF034618460837BD4680BD80B582B000AF7860786815
S32D000102C000F006FA034618460837BD4680BD90B585B000AFF860B9607A607868FFF7EEFA03461946F86800F0CF
S32D000102E8FFF9FC68B868FFF7E2FD03461946204600F049F8FB6818461437BD4690BD80B582B000AF786078682D
S32D0001031000F0FCF97B68184600F004FA7B6818460837BD4680BD80B483B000AF78607B6818460C37BD4680BC39
S32D00010338704780B582B000AF7860786800F0FBF9034618460837BD4680BD80B582B000AF78607868FFF7EDFF57
S32D00010360034618460837BD4680BD80B582B000AF786039603868FEF734FF03461946786800F0E7F97B68184660
S32D000103880837BD4680BD80B582B000AF786039603868FFF78CFD03461A687B681A607B6818460837BD4680BD39
S32D000103B080B582B000AF78607868FFF7C4FD034618460837BD4680BD80B483B000AF78607B6818460C37BD46FE
S32D000103D880BC704780B582B000AF7860786800F0C6F97B68184600F0CEF97B6818460837BD4680BD80B483B067
S32D0001040000AF78607B6818460C37BD4680BC704780B582B000AF7860786800F0C5F9034618460837BD4680BD2A
S32D0001042880B582B000AF78607868FFF7EDFF034618460837BD4680BD80B582B000AF786039603868FEF789FF2B
S32D0001045003461946786800F0B1F97B6818460837BD4680BD80B582B000AF7860786800F0B7F97B68184600F0FC
S32D00010478BFF97B6818460837BD4680BD80B483B000AF78607B6818460C37BD4680BC704780B582B000AF786087
S32D000104A0786800F0B6F9034618460837BD4680BD80B582B000AF78607868FFF7EDFF034618460837BD4680BDB2
S32D000104C880B582B000AF786039603868FEF7DAFF03461946786800F0A2F97B6818460837BD4680BD80B582B0D6
S32D000104F000AF7860786800F0A8F97B68184600F0B0F97B6818460837BD4680BD80B483B000AF78607B6818461C
S32D000105180C37BD4680BC704780B582B000AF7860786800F0A7F9034618460837BD4680BD80B582B000AF786009
S32D000105407868FFF7EDFF034618460837BD4680BD80B582B000AF786039603868FFF721F803461946786800F0F6
S32D0001056893F97B6818460837BD4680BD80B582B000AF7860786800F099F97B68184600F0A1F97B68184608377D
S32D00010590BD4680BD80B483B000AF78607B6818460C37BD4680BC704780B582B000AF7860786800F098F90346FC
S32D000105B818460837BD4680BD80B582B000AF78607868FFF7EDFF034618460837BD4680BD80B582B000AF786073
S32D000105E039603868FFF75EF803461946786800F084F97B6818460837BD4680BD80B582B000AF7860786800F0F4
S32D000106088AF97B68184600F092F97B6818460837BD4680BD80B483B000AF78607B6818460C37BD4680BC70475C
S32D0001063080B582B000AF7860786800F089F9034618460837BD4680BD80B582B000AF78607868FFF7EDFF03463C
S32D0001065818460837BD4680BD80B582B000AF786039603868FFF79BF803461946786800F075F97B681846083780
S32D00010680BD4680BD80B582B000AF7860786800F07BF97B68184600F083F97B6818460837BD4680BD80B483B005
S32D000106A800AF78607B6818460C37BD4680BC704780B582B000AF7860786800F07AF9034618460837BD4680BDCB
S32D000106D080B582B000AF78607868FFF7EDFF034618460837BD4680BD80B582B000AF786039603868FFF7E2F82E
S32D000106F803461946786800F066F97B6818460837BD4680BD80B582B000AF7860786800F06CF97B681846083799
S32D00010720BD4680BD80B483B000AF78607B6800221A607B6818460C37BD4680BC704780B483B000AF78607B68B2
S32D0001074818460C37BD4680BC704780B582B000AF786039603868FEF740FD03461946786800F04DF97B68184693
S32D000107700837BD4680BD80B582B000AF7860786800F04CF97B6818460837BD4680BD80B483B000AF78607B6847
S32D0001079800221A607B6818460C37BD4680BC704780B483B000AF78607B6818460C37BD4680BC704780B582B04D
S32D000107C000AF786039603868FEF7CBFD03461946786800F02DF97B6818460837BD4680BD80B582B000AF786041
S32D000107E8786800F02CF97B6818460837BD4680BD80B483B000AF78607B6800221A607B6818460C37BD4680BCFD
S32D00010810704780B483B000AF78607B6818460C37BD4680BC704780B582B000AF786039603868FEF72BFE03460C
S32D000108381946786800F00DF97B6818460837BD4680BD80B582B000AF7860786800F00CF97B6818460837BD4656
S32D0001086080BD80B483B000AF78607B6800221A607B6818460C37BD4680BC704780B483B000AF78607B68184616
S32D000108880C37BD4680BC704780B582B000AF786039603868FEF781FE03461946786800F0EDF87B681846083790
S32D000108B0BD4680BD80B582B000AF7860786800F0ECF87B6818460837BD4680BD80B483B000AF78607B68002284
S32D000108D81A607B6818460C37BD4680BC704780B483B000AF78607B6818460C37BD4680BC704780B582B000AF7F
S32D00010900786039603868FEF7CDFE03461946786800F0CDF87B6818460837BD4680BD80B582B000AF786078682C
S32D0001092800F0CCF87B6818460837BD4680BD80B483B000AF78607B6800221A607B6818460C37BD4680BC704745
S32D0001095080B483B000AF78607B6818460C37BD4680BC704780B582B000AF786039603868FEF719FF0346194634
S32D00010978786800F0ADF87B6818460837BD4680BD80B582B000AF7860786800F0ACF87B6818460837BD4680BDF9
S32D000109A080B483B000AF78607B6800221A607B6818460C37BD4680BC704780B483B000AF78607B6818460C37CF
S32D000109C8BD4680BC704780B582B000AF786039603868FEF76FFF03461946786800F08DF87B6818460837BD4600
S32D000109F080BD80B483B000AF78607B6818460C37BD4680BC704780B483B000AF786039607B6818460C37BD4625
S32D00010A1880BC704780B483B000AF78607B6818460C37BD4680BC704780B483B000AF786039607B6818460C3749
S32D00010A40BD4680BC704780B483B000AF78607B6818460C37BD4680BC704780B483B000AF786039607B68184661
S32D00010A680C37BD4680BC704780B483B000AF78607B6818460C37BD4680BC704780B483B000AF786039607B6854
S32D00010A9018460C37BD4680BC704780B483B000AF78607B6818460C37BD4680BC704780B483B000AF78603960B1
S32D00010AB87B6818460C37BD4680BC704780B483B000AF78607B6818460C37BD4680BC704780B483B000AF78603F
S32D00010AE039607B6818460C37BD4680BC704780B483B000AF78607B6818460C37BD4680BC704780B483B000AF56
S32D00010B08786039607B6818460C37BD4680BC704780B582B000AF786039607B68012B0CD13B684FF6FF72934232
S32D00010B3007D1064812F0A0FF054A0649034812F067FC00BF0837BD4680BD00BFE417002000000020993A020074
S32D00010B5880B500AF4FF6FF710120FFF7D9FF80BD80B400AF024B1846BD4680BC704700BFFFFF7F7F2DE9B04361
S32D00010B8084B000AFF860B9607A603B60FB684FF4A0721A60FB68F0225A60FB686FF07F429A60FB684C4ADA606C
S32D00010BA8FB684C4A1A61FB6800225A61FB684A4A9A62FB68002283F82D20FB685C33184630F0AAF8FB681B6832
S32D00010BD0184644F009FD4FF000024FF0804344F0A7FE02460B4614461D46786830F01EF90346184644F0F8FC06
S32D00010BF84FF000024FF0804344F096FE02460B469046994635480EF02FFF0346184644F0F7FC02460B464046DF
S32D00010C20494644F05BFD02460B462046294644F09DFB02460B461046194645F047F80246FB685A63B86845F0D1
S32D00010C484BF90246FB689A63786830F0EBF8044622480EF009FF034604FB03F3184645F037F90246FB685A6589
S32D00010C701C480EF007FF0346184645F031F90246FB689A65FB685C337968184630F086F8FB6800221A76FB68F6
S32D00010C9801225A76FB68002283F82C20FB68002283F82D203A68FB68DA61BA6AFB681A62FB681B691A46FB68B4
S32D00010CC05A62FB68DA69FB681A63FB6818461037BD46BDE8B08300BF6666660021212100E22B8A00D41A0020E7
S32D00010CE890B585B000AFF860B9607A603B60FB684FF4A0721A60FB68F0225A60FB686FF07F429A60FB682E4A15
S32D00010D10DA60FB682D4A1A61FB6800225A61FB682B4A9A62FB68002283F82D20FB685C3318462FF0F5FFFB68FE
S32D00010D38BA685A63FB687A689A63386830F072F8044622480EF090FE034604FB03F3184645F0BEF80246FB68CF
S32D00010D605A651C480EF08EFE0346184645F0B8F80246FB689A65FB685C333968184630F00DF8FB6800221A7656
S32D00010D88FB6801225A76FB68002283F82C20FB68002283F82D203A6AFB68DA617A6AFB681A62FB681B691A4601
S32D00010DB0FB685A62FB68DA69FB681A63FB6818461437BD4690BD00BF6666660021212100E22B8A00D41A00201A
S32D00010DD8F0B58BB002AF78607B681B6B194633480FF03FFA7B685C6B30480EF03DFE0346184645F071F803461F
S32D00010E001946204644F0B6FF0346184645F098FA05467B689B6B184645F092FA06467B685C6D24480EF024FED0
S32D00010E2803465B00184645F057F803461946204644F09EFF0346184645F07EFA04467B689B6D184645F078FAA8
S32D00010E500346009323463246294616480FF03FFF7B6803F15C0207F108031146184630F0D1FA7B685B6B1846CD
S32D00010E7845F062FA04467B689B6B4FF08141184644F076FF0346184645F056FA034607F10801224605480FF055
S32D00010EA01AFA07F1080318462FF06CFF00BF2437BD46F0BDD41A0020B0B584B000AF78607B685B7E002B00F055
S32D00010EC846810023FB730023BB737B6803F13C017B6840331A4692480FF0E6FA7B68DC6B7B685D6B8E480EF026
S32D00010EF0BFFD0346184644F0F3FF03461946284644F038FF03461946204645F0EFF90346002B44D07B68DC6BEC
S32D00010F187B685A6B7B685B6D1946104644F028FF03461D467E480EF09FFD0346184644F0D3FF03461946284678
S32D00010F4044F01AFF03464FF07E51184644F012FF03461946204645F0BFF90346002B1ED07B681A6C7B689B6B8C
S32D00010F681946104645F0BEF90346002B13D07B681C6C7B689A6B7B689B6D1946104644F0F7FE03461946204638
S32D00010F9045F0A2F90346002B01D0012200E000227B6883F82C207B6803F13C017B6840331A465D480FF07CFA6A
S32D00010FB8034683F00103DBB2002B6ED17B6803F144017B6848331A4655480FF06DFA0346002B62D07B68DC6BA6
S32D00010FE07B685D6B50480EF04DFD0346184644F077FF03461946284644F0BCFE03461946204645F073F903460A
S32D00011008002B27D07B68DC6B7B685A6B7B685B6D1946104644F0ACFE03461D4640480EF023FD0346184644F05A
S32D0001103057FF03461946284644F09EFE03464FF07E51184644F096FE03461946204645F043F90346002B01D014
S32D00011058012300E00023FB737B681A6C7B689B6B1946104645F03EF90346002B13D07B681C6C7B689A6B7B68D4
S32D000110809B6D1946104644F077FE03461946204645F022F90346002B01D0012300E00023BB73FB7B002B19D059
S32D000110A8BB7B002B16D07B685B69002B03D17B6801225A6106E07B685B69012B02D17B6802225A617B681A6AB6
S32D000110D07B681A637B6801221A763CE07B685B69022B03D17B6803225A6106E07B685B69032B02D17B680022E1
S32D000110F85A617B6893F82C30002B13D07B689A6A7B681A637B6893F82D3083F00103DBB2002B0FD07B68012210
S32D0001112083F82D200AE000BFD41A00207B68DA697B681A637B68002283F82D207B6800221A76FFF711FD0246ED
S32D000111487B68DA63FFF70CFD02467B681A647868FFF73EFE00BF1037BD46B0BD80B483B000AF78607B681B7EBE
S32D0001117018460C37BD4680BC704780B485B000AF78600023FB737B685B69012B04D17B6802225A610123FB733C
S32D00011198FB7B18461437BD4680BC704780B582B000AF78603960386844F096FE02467B689A6500BF0837BD46F9
S32D000111C080BD80B584B000AFF860B9607A60B968F86845F081F80346002B01D0BB6809E07968F86845F082F8F0
S32D000111E80346002B01D07B6800E0FB6818461037BD4680BD80B584B000AFF860C7E90023D7E90623D7E900019B
S32D0001121044F0ACF802460B46F968C1E90023FB68D3E90023F968C1E90223F9684FF000024FF00003C1E90423E9
S32D00011238FB684FF00002DA62FB680A4A1A62FB68094A5A62FB68074A9A62F9684FF000024FF00003C1E90C2395
S32D00011260FB6818461037BD4680BD00BFACC5273795BFD633000000002DE9B04F86B000AFF860C7E90023D7E947
S32D000112880E23D7E9000144F06DF802460B46F968C1E90023FB68D3E904ABFB68D3E90001D7E9102344F016FAC0
S32D000112B002460B465046594644F05AF802460B46F968C1E904236AA3D3E90023D7E9100144F076FC0346002B19
S32D000112D804D065A3D3E90023C7E91023FB68D3E900014FF000024FF0000344F083FC0346002B0BD0FB68D3E985
S32D0001130002014FF000024FF0000344F059FC0346002B27D1FB68D3E900014FF000024FF0000344F04DFC0346DA
S32D00011328002B0BD0FB68D3E902014FF000024FF0000344F05FFC0346002B0FD1FB68D3E90023904623F0004994
S32D0001135049A3D3E900234046494644F031FC0346002B06D0F9684FF000024FF00003C1E90423FB68D3E90C0102
S32D00011378D7E9002343F0F6FF02460B46144623F000453BA3D3E900232046294644F028FC0346002B06D0F9685B
S32D000113A04FF000024FF00003C1E904234FF00002334BC7E90423FB68D3E904231046194644F084FC03462F4AC3
S32D000113C82F491846FFF7F9FE0346184644F02AF902460B46F968C1E90423FB68D3E90001FB68D3E9022343F0D3
S32D000113F0BDFF02460B4610461946D7E9102344F097FA02460B46F968C1E90623FB68D3E90023F968C1E90223CD
S32D00011418FB68DB6A184644F005F904460D46FB681B6A184644F0FEF8FB68D3E9002344F051F902460B462046A1
S32D00011440294643F095FF02460B461046194644F03DFC0246FB68DA62F968D7E90023C1E90C23FB68DB6A184682
S32D000114681837BD46BDE8B08FFCA9F1D24D62503F9A9999999999B93F0000494000004842000048C280B485B064
S32D0001149000AFF860B9607A603B60FB68BA681A62FB687A685A62FB683A689A6200BF1437BD4680BC7047000095
S32D000114B880B582B000AF786009480EF08CFE042107480EF093FE022105480EF0B6FE78682FF078FF03461946FB
S32D000114E001480FF04BF9EEE7D41A002080B582B000AF7860084611461A460346FB700B46BB7013467B707B6824
S32D000115082B4A1A607B682B4A5A607B682A4A9A607B682A4ADA607B68294A1A617B681433FA78114618460DF0B2
S32D00011530DBFE7B681533BA78114618460DF0D4FE7B6816337A78114618460DF0CDFE7B6800225A627B68002271
S32D000115589A627B68002283F82C207B68002283F82D207B6801225A637B6800229A637B680022DA637B680022C3
S32D000115801A647B6800225A647B68002283F82E207B6803229A647B684FF000029A617B684FF00002DA617B68C6
S32D000115A84FF000021A627B6818460837BD4680BDD7A3304033335340E8B401BDE742523DFD1BA1BC80B483B0C6
S32D000115D000AF786039607A683B68134018460C37BD4680BC704780B483B000AF786039607A683B68134318469D
S32D000115F80C37BD4680BC704780B483B000AF78607B68DB4318460C37BD4680BC704780B582B000AF786039607E
S32D000116207B681B6839681846FFF7DDFF02467B681A607B6818460837BD4680BD80B582B000AF786039607B6895
S32D000116481B6839681846FFF7BDFF02467B681A607B6818460837BD4680BD90B587B000AFF860B9607A60FB6801
S32D00011670DB687B61FB6803F10C047868FFF7C0FF034619462046FFF7D9FFFB6803F10C047968B868FFF79AFF5D
S32D00011698034619462046FFF7BAFF7B6918461C37BD4690BD80B582B000AF78604FF4827204217868FFF7D1FF91
S32D000116C07B6818460837BD4680BD80B483B000AF78607B6818460C37BD4680BC7047000080B582B000AF7860E5
S32D000116E839607B68012B0CD13B684FF6FF72934207D1064812F0BCF9054A0649034811F083FE00BF0837BD46D7
S32D0001171080BD00BFE817002000000020993A020080B500AF4FF6FF710120FFF7D9FF80BD80B586B002AF7860E1
S32D0001173839603A23FB60386843F074FF02460B467868CDE90023044B3A22044900F062F878681037BD4680BDF0
S32D00011760409306000DFD050090B583B000AF786039600DF06BF90346184644F0ADFB03467968184644F0F6FA4A
S32D000117880346012214461946386844F0A1FD0346002B01D100231C46E3B218460C37BD4690BD000080B582B0E3
S32D000117B000AF7860064A7B681A607B68043318462FF0AEFA7B6818460837BD4680BD00BFC493060080B582B054
S32D000117D800AF7860064A7B681A607B68043318462FF0CCFA7B6818460837BD4680BD00BFC493060080B582B00E
S32D0001180000AF78607868FFF7E5FF1C21786811F083FE7B6818460837BD4680BD08B490B588B000AFF860B960C0
S32D000118287A607B680733DB08DB00ADEB030D6B460733DB08DB00FB6107F130033B61BC683B69FA6A7968F869FA
S32D00011850A047B861BB69FA69D41807F11403184611F02CFF07F114032246F969F86800F03BF807F11403184694
S32D0001187811F022FFF8682037BD46BDE8904001B0704780B584B000AFF860B9607A60BA68002178682FF076FC71
S32D000118A00346184600F03BF803461946F8682FF049FAF8681037BD4680BD80B584B000AFF860B9607A607968BA
S32D000118C8B8682FF0ADFC0346184600F024F803461946F8682FF032FAF8681037BD4680BD90B585B000AFF8609B
S32D000118F0B9607A603B60FC68F8682FF005F903463A68194620462FF083FD7A68B968F86800F00FF8FB681846F0
S32D000119181437BD4690BD80B483B000AF78607B6818460C37BD4680BC704780B584B000AFF860B9607A607A6858
S32D00011940B968F86800F004F800BF1037BD4680BD90B587B000AFF860B9607A603B7023467A68B968F86800F0E8
S32D0001196805F800BF1C37BD4690BD000080B586B000AFF860B9607A603B70B86800F03EF80346002B05D0BA6830
S32D000119907B689A4201D0012300E00023002B02D0174823F073FF7968B86800F03AF803467B617B690F2B10D941
S32D000119B807F1140300221946F8682FF0ABF803461946F8682FF098F87B691946F8682FF099F8F8682FF092F83B
S32D000119E003467A68B96818462FF0E4F87B691946F8682FF08DF800BF1837BD4680BD00BF9093060080B483B04F
S32D00011A0800AF78607B68002B0CBF01230023DBB218460C37BD4680BC7047B0B582B000AF786039607C683B1DF1
S32D00011A30184600F00AF82A463968204600F00FF8034618460837BD46B0BD80B483B000AF786000BF18460C3725
S32D00011A58BD4680BC704780B485B000AFF860B9603A71BA68FB68D31A18461437BD4680BC7047000082B090B5AD
S32D00011A8087B000AFF860B9607A60FB62FB681846FFF78CFE1D4AFB681A60FB68BA68DA61FB687A681A62FB6840
S32D00011AA8BA6F5A62FB6807F12C029A62FB6803F1380407F11403184611F0FCFD07F114031A46114920462FF05D
S32D00011AD0E7FC07F11403184611F0F2FD0CF0B6FF0346184644F0F8F90246FB68DA62FB68002283F83720FB6889
S32D00011AF800221A63FB6818461C37BD46BDE8904002B0704780940600F893060080B582B000AF78600CF096FF01
S32D00011B200346184644F0D8F902467B68DA627B6800221A637B68D869104B4FF04042104906F0B4FF7B68DB6998
S32D00011B48184607F0FDFE7B68DB690121184607F037FE7B68002283F837207B68002283F835207B68002283F81F
S32D00011B70362000BF0837BD4680BD00BF0000B4C2000080C190B5ADF54F7D00AF07F54E73A3F54D73186007F551
S32D00011B984E73A3F54D731B681B6B1A46DE4BD41807F52B73184611F085FD07F52B7207F52573214618462FF0FB
S32D00011BC06FFC07F52B73184611F07AFD07F5257318462FF0FBFB014600230022D1480EF057FB0CF033FF0346A8
S32D00011BE8184644F075F9024607F54E73A3F54D731B68DB6A1946104644F0B8F80346C7F8343307F53273D7F831
S32D00011C1034131846FFF78CFD07F52C7307F53272C1491846FFF731FE07F51F7307F52C71BE4A1846FFF741FEF7
S32D00011C3807F52C7318462FF0A1F807F5327318462FF09CF807F51F7318462FF0BBFB01461E230022B1480EF0B8
S32D00011C6017FB07F54E73A3F54D731B681B6A19683C230022AB480EF043FB07F5D67318462EF0A0FC07F5D67353
S32D00011C880833A94918462DF0E1FE0346A74918462DF014FD04460220FFF713FD0346194620462DF095FD044668
S32D00011CB007F54E73A3F54D731B68DB69184606F0CFFE03461B68194620462DF087FF0346994918462DF0BEFE72
S32D00011CD80346964918462DF0F1FC04460220FFF7F0FC0346194620462DF072FD044607F54E73A3F54D731B6883
S32D00011D00DB69184606F0ACFE034604331B68194620462DF063FF0346874918462DF09AFE0346844918462DF06E
S32D00011D28CDFC04460220FFF7CCFC0346194620462DF04EFD044607F54E73A3F54D731B68DB69184606F088FE23
S32D00011D50034608331B68194620462DF03FFF0346764918462DF076FE07F5387307F5D672114618462EF08EFCFE
S32D00011D7807F538713C23002268480EF0A8FA07F5387318462EF0FAFF07F1DC0318462EF015FC07F1DC03083334
S32D00011DA0674918462DF056FE0346624918462DF089FC04460220FFF788FC0346194620462DF00AFD044607F543
S32D00011DC84E73A3F54D731B68DB69184606F051FE03461B68194620462DF0FCFE0346544918462DF033FE0346E6
S32D00011DF0504918462DF066FC04460220FFF765FC0346194620462DF0E7FC044607F54E73A3F54D731B68DB6957
S32D00011E18184606F02EFE034604331B68194620462DF0D8FE0346424918462DF00FFE03463E4918462DF042FC7B
S32D00011E4004460220FFF741FC0346194620462DF0C3FC044607F54E73A3F54D731B68DB69184606F00AFE03461F
S32D00011E6808331B68194620462DF0B4FE0346314918462DF0EBFD07F53E7307F1DC02114618462EF003FC07F582
S32D00011E903E714B23002223480EF01DFA07F53E7318462EF06FFF07F10C0318462EF08AFB07F10C030833234917
S32D00011EB818462DF0CBFD03461C4918462DF0FEFB04460220FFF7FDFB0346194620462DF07FFC044607F54E738F
S32D00011EE0A3F54D731B68DB69184606F0D2FD03461B68194620462DF071FE03460E4918462DF0A8FD03460B4917
S32D00011F0818462DF0DBFB04460220FFF7DAFB03461946204614E000BF04940600D41A00201C940600289406003D
S32D00011F302C940600AD16010034940600389406003C940600449406002DF046FC044607F54E73A3F54D731B6863
S32D00011F58DB69184606F099FD034604331B68194620462DF037FE0346BA4918462DF06EFD0346B94918462DF01A
S32D00011F80A1FB04460220FFF7A0FB0346194620462DF022FC044607F54E73A3F54D731B68DB69184606F075FD64
S32D00011FA8034608331B68194620462DF013FE0346AA4918462DF04AFD07F5447307F10C02114618462EF062FB29
S32D00011FD007F544715A230022A3480EF07CF907F5447318462EF0CEFE4FF07E53C7F830339E4BC7F82C339E4B17
S32D00011FF8C7F8283307F54E73A3F54D731B681B6B082B00F2008301A252F823F039200100F1200100AB210100A1
S32D00012020912201002F230100C323010029240100C72401007D25010007F54E73A3F54D731B68D8698B4B8C4A41
S32D000120488B4906F056FD07F54E73A3F54D731B68DB698849184607F0F7F807F54E73A3F54D731B68DB69184621
S32D0001207007F0A1FC0346002B0CD107F54E73A3F54D731B68DB6A7E491846FFF76DFB0346002B01D0012300E0B3
S32D000120980023002B00F0C9820CF0D4FC0346184643F016FF024607F54E73A3F54D731B68DA6207F54E73A3F564
S32D000120C04D731B681B6B5A1C07F54E73A3F54D731B681A6307F54E73A3F54D731B68D869644B4FF000024FF095
S32D000120E8000106F0DFFCA0E207F54E73A3F54D731B68D8695D4B614A604906F0FAFC07F54E73A3F54D731B681C
S32D00012110DB695A49184607F09BF807F54E73A3F54D731B68DB69184607F045FC0346002B0CD107F54E73A3F5B9
S32D000121384D731B68DB6A50491846FFF711FB0346002B01D0012300E00023002B00F06F8207F54E73A3F54D736A
S32D000121601B68D8694FF000034FF000024FF0000106F066FA0CF06AFC0346184643F0ACFE024607F54E73A3F5F0
S32D000121884D731B68DA6207F54E73A3F54D731B681B6B5A1C07F54E73A3F54D731B681A6345E207F54E73A3F584
S32D000121B04D731B68D8694FF03F434FF000024FF0000106F03DFA07F54E73A3F54D731B68DB69184606F056FA8D
S32D000121D807F54E73A3F54D731B68DB6A28491846FFF7BEFA0346002B00F0238207F54E73A3F54D731B68D8699C
S32D00012200224B204A1F4906F051FC07F54E73A3F54D731B68D8694FF000034FF000024FF0000106F00DFA0CF098
S32D0001222811FC0346184643F053FE024607F54E73A3F54D731B68DA6207F54E73A3F54D731B681B6B5A1C07F5A3
S32D000122504E73A3F54D731B681A63EEE134940600AD16010038940600D41A00209A993940666626400000B4C2B1
S32D0001227800007041CDCCCC3E0000FA44000080BF0000FA43000034C207F54E73A3F54D731B68D869AD4BAE4A6A
S32D000122A0AE4906F02AFC07F54E73A3F54D731B68DB69AB49184606F0CBFF07F54E73A3F54D731B68DB691846D4
S32D000122C807F075FB0346002B0CD107F54E73A3F54D731B68DB6AA1491846FFF741FA0346002B01D0012300E090
S32D000122F00023002B00F0A3810CF0A8FB0346184643F0EAFD024607F54E73A3F54D731B68DA6207F54E73A3F58C
S32D000123184D731B681B6B5A1C07F54E73A3F54D731B681A6387E107F54E73A3F54D731B685B6A8B4918460DF04E
S32D000123401BFB07F54E73A3F54D731B68D8694FF000034FF03F424FF0000106F071F907F54E73A3F54D731B6845
S32D00012368DB69184606F08AF907F54E73A3F54D731B68DB6A7B491846FFF7F2F90346002B00F05B810CF05EFBB6
S32D000123900346184643F0A0FD024607F54E73A3F54D731B68DA6207F54E73A3F54D731B681B6B5A1C07F54E733A
S32D000123B8A3F54D731B681A633FE107F54E73A3F54D731B685B6A684918460DF0D1FA07F54E73A3F54D731B68B2
S32D000123E0DB6A64491846FFF7BFF90346002B00F02A810CF02BFB0346184643F06DFD024607F54E73A3F54D73FE
S32D000124081B68DA6207F54E73A3F54D731B681B6B5A1C07F54E73A3F54D731B681A630EE107F54E73A3F54D7339
S32D000124301B68D869474B484A484906F05EFB07F54E73A3F54D731B68DB694549184606F0FFFE07F54E73A3F5A5
S32D000124584D731B68DB69184607F0A9FA0346002B0CD107F54E73A3F54D731B68DB6A3B491846FFF775F9034619
S32D00012480002B01D0012300E00023002B00F0DD800CF0DCFA0346184643F01EFD024607F54E73A3F54D731B68EB
S32D000124A8DA6207F54E73A3F54D731B681B6B5A1C07F54E73A3F54D731B681A63C1E007F54E73A3F54D731B68E7
S32D000124D0D8694FF00003224A4FF0000106F0B0F807F54E73A3F54D731B68DB69184607F062FA0346002B0CD132
S32D000124F807F54E73A3F54D731B68DB6A1C491846FFF72EF90346002B01D0012300E00023002B00F098800CF05D
S32D0001252095FA0346184643F0D7FC024607F54E73A3F54D731B68DA6207F54E73A3F54D731B681B6B5A1C07F5A4
S32D000125484E73A3F54D731B681A637CE00000B4C2000080BF0000A0C0CDCCCC3E0000FA4400002043000048440A
S32D00012570000034430080A2450000964307F54E73A3F54D731B685B6A414918460DF0F4F907F54E73A3F54D7341
S32D000125981B68D8694FF000034FF03F424FF0000106F04AF807F54E73A3F54D731B68DB69184606F063F807F54F
S32D000125C04E73A3F54D731B68DB6A32491846FFF7CBF80346002B3CD00CF038FA0346184643F07AFC024607F537
S32D000125E84E73A3F54D731B68DA6207F54E73A3F54D731B681B6B5A1C07F54E73A3F54D731B681A6321E007F546
S32D000126104E73A3F54D731B68DB69184606F0A6F907F54E73A3F54D731B68012283F8372010E000BF0EE000BFDF
S32D000126380CE000BF0AE000BF08E000BF06E000BF04E000BF02E000BF00E000BF07F10C0318462DF063FC07F117
S32D00012660DC0318462DF05EFC07F5D67318462DF059FC07F51F7318462EF084FB07F5257318462EF07FFB00BFB0
S32D0001268807F54F77BD4690BD000002430000484480B483B000AF78607B6893F8373018460C37BD4680BC7047E6
S32D000126B080B483B000AF78607B68012283F8372000BF0C37BD4680BC704780B582B000AF786039603B683833A8
S32D000126D8194678682EF09AFE78680837BD4680BD80B582B000AF7860084A7B681A607B68383318462EF042FBDB
S32D000127007B681846FFF766F87B6818460837BD4680BD00BF8094060080B582B000AF78607868FFF7E1FF502167
S32D00012728786810F0F5FE7B6818460837BD4680BD90B587B000AF786039603B68DB0FFB75FB7D002B02D03B683E
S32D000127505B4200E03B683B610A21386900F0F8FBF860FA7DFB68D41807F10803184610F0A5FF07F108032D227A
S32D00012778214678682EF0D8FA07F10803184610F09BFFFB7D194678682EF09CFB03463A69F968184600F016FCE7
S32D000127A000BF78681C37BD4690BD80B483B000AF7860012318460C37BD4680BC7047000090B585B000AF78601E
S32D000127C839607B681846FEF7EDFF174A7B681A607B683A68DA617B6803F12C0407F10C03184610F067FF07F1DF
S32D000127F00C031A460F4920462EF052FE07F10C03184610F05DFF0CF021F90346184643F063FB02467B681A6269
S32D000128187B68002283F829207B6800225A627B6818461437BD4690BD04960600BC94060080B582B000AF786047
S32D000128407B68D8694FF000034FF000024FF0000106F02CF90CF0FAF80346184643F03CFB02467B681A627B68DE
S32D0001286800225A627B68DB69184607F069F800BF0837BD4680BD000090B5ADF5577D00AF07F55673A3F55573B9
S32D00012890186007F55673A3F555731B6803F12C0107F52B73DF4A184600F0E6FB07F55673A3F555731B685A6A7A
S32D000128B807F5317311461846FFF73AFF07F5257307F5317207F52B71184600F0E4FB07F5317318462EF052FA0D
S32D000128E007F52B7318462EF04DFA07F5257318462EF06CFD014600230022CB480DF0C8FC0CF0A4F80346184654
S32D0001290843F0E6FA024607F55673A3F555731B681B6A1946104643F029FA0346C7F8543307F53D73D7F854139C
S32D000129301846FEF7FDFE07F5377307F53D72BB491846FEF7A2FF07F51F7307F53771B84A1846FEF7B2FF07F5AD
