S01100002E2E2F50726F746575732E73313966
S32D0000C000000000205DC2000011C3000017C300001DC3000023C3000029C3000000000000000000000000000073
S32D0000C028000000002FC3000035C30000000000003BC3000041C30000897E0100957E0100A17E0100AD7E010096
S32D0000C050B97E0100C57E0100D17E0100DD7E0100E97E0100F57E0100017F01000D7F0100197F0100257F010072
S32D0000C078317F01003D7F0100497F0100557F0100617F01006D7F0100797F0100857F0100917F01009D7F010094
S32D0000C0A0A97F0100B57F0100C17F0100CD7F0100D97F0100E57F0100F17F0100FD7F01000980010015800100BA
S32D0000C0C8218001002D8001003980010045800100518001005D8001006980010075800100818001008D800100DA
S32D0000C0F099800100DDF40100A5800100B1800100BD800100C9800100D5800100E1800100ED800100F9800100B6
S32D0000C11805810100118101001D8101002981010035810100418101004D81010059810100658101007181010097
S32D0000C1407D8101008981010095810100A181010061D10100AD810100B9810100C5810100D1810100DD810100F7
S32D0000C168E9810100F5810100018201000D8201001982010025820100318201003D820100498201005582010057
S32D0000C190618201006D8201007982010059CD010021CC0100BDCC01000D7C0100F9CD01008582010091820100A5
S32D0000C1B89D8201005005070000000020C8170000500507000000FF1F00000000C81700200C1D00000000FF1F1E
S32D0000C1E00000000080B489B000AFF860B9607A60BB68FB61FB68BB6100237B617A697B689A420BD2BA69131DFB
S32D0000C208BB61FB69191DF96112681A607B6904337B61EFE700BF2437BD4680BC704780B485B000AF786039609E
S32D0000C2307B68FB600023BB60BA683B689A4208D2FB681A1DFA6000221A60BB680433BB60F2E700BF1437BD46FE
S32D0000C25880BC704780B586B000AF72B6234B4CF220521A80214B4DF628121A80204B4FF4E9721A801F4B7B615F
S32D0000C2807B691F4A934214D27B691A1D7A611B683B617B691A1D7A611B68FB607B691A1D7A611B68BB60BA68E9
S32D0000C2A8F9683869FFF79AFFE6E77B69134A93420ED27B691A1D7A611B68FB607B691A1D7A611B68BB60B9688B
S32D0000C2D0F868FFF7A8FFECE70B4B7B600B4A7B681A6048F077FE62B60BF058FD00F044F9FEE700BF0E20054034
S32D0000C2F800200540BCC10000D4C10000E4C1000008ED00E000C0000080B400AFFEE780B400AFFEE780B400AFF4
S32D0000C320FEE780B400AFFEE780B400AFFEE780B400AFFEE780B400AFFEE780B400AFFEE780B400AFFEE780B426
S32D0000C34800AFFEE7FFFFFFFFFFFFFFFFFFFFFFFFFFFFFFFFFFFFFFFFFFFFFFFFFFFFFFFFFFFFFFFFFFFFFFFF57
S32D0000C370FFFFFFFFFFFFFFFFFFFFFFFFFFFFFFFFFFFFFFFFFFFFFFFFFFFFFFFFFFFFFFFFFFFFFFFFFFFFFFFFC7
S32D0000C398FFFFFFFFFFFFFFFFFFFFFFFFFFFFFFFFFFFFFFFFFFFFFFFFFFFFFFFFFFFFFFFFFFFFFFFFFFFFFFFF9F
S32D0000C3C0FFFFFFFFFFFFFFFFFFFFFFFFFFFFFFFFFFFFFFFFFFFFFFFFFFFFFFFFFFFFFFFFFFFFFFFFFFFFFFFF77
S32D0000C3E8FFFFFFFFFFFFFFFFFFFFFFFFFFFFFFFFFFFFFFFFFFFFFFFFFFFFFFFFFFFFFFFFFFFFFFFFFEFFFFFF50
S32D0000C44010B5054C237833B9044B13B10448AFF300800123237010BDC817002000000000C0F1060008B5034B6B
S32D0000C4681BB103490348AFF3008008BD00000000CC170020C0F106002DE9B0438AB000AFF860B9607A603B60CA
S32D0000C490FA687B68D31A184645F08AFC02460B46C7E90823BA683B68D31A184645F080FC02460B46C7E906238C
S32D0000C4B8D7E90823D7E9080145F0E0FC02460B4614461D463B6C03FB03F3184645F06CFC02460B462046294637
S32D0000C4E045F0FAFD02460B4614461D46D7E90623D7E9060145F0C6FC02460B46904699467B6C03FB03F318467E
S32D0000C50845F052FC02460B464046494645F0E0FD02460B462046294645F0FAFA02460B46C7E9042301231C4635
S32D0000C5304FF00002074BD7E9040145F01FFF0346002B01D100231C46E3B218462837BD46BDE8B0830000F03F0B
S32D0000C55880B582B000AF78607B685C33184630F0E1FF7B6818460837BD4680BD000000002DE9F043ADF50B5DE4
S32D0000C5808DB008AF07F50B5303F11003A3F52E734FF000021A6007F50B5303F11003A3F52E734FF000025A60AF
S32D0000C5A807F50B5303F11003A3F52E734FF000029A60F34B07F50A5202F134021360002307F50A5202F13302BB
S32D0000C5D01370012307F50A5202F132021370032307F50A5202F131021370002307F50A5202F130021370022325
S32D0000C5F807F50A5202F12F021370042307F50A5202F12E02137007F50A5303F132031C7807F50A5303F130035B
S32D0000C6201A7807F50A5303F13303197807F5BA60083807F50A5303F134031B68039307F50A5303F12E031B7842
S32D0000C648029307F50A5303F131031B78019307F50A5303F12F031B780093234609F052FB022307F50A5202F1C3
S32D0000C6702D02137007F50A5303F12D03197807F5BA63103BC14A18460BF00EFE07F5BA63143B0821184610F019
S32D0000C6981FFC07F5BA63183B1521184610F018FC07F5BA631C3B1621184610F011FC07F5B6631721184610F088
S32D0000C6C00BFC152307F50A5202F12C021370152307F50A5202F12B021370152307F50A5202F12A02137007F5B0
S32D0000C6E80A5303F12A031B7807F50A5202F12B02127807F50A5101F12C01097807F5AE600C3804F0CBF907F518
S32D0000C710AE63103B0F2118460FF0ACFF07F5AE631C3B0721184610F0C9FE07F5AE631C3B40F23A31184610F057
S32D0000C738DDFE07F5AE631C3B40F68601184610F0F2FE07F5A663083B184608F00BFB07F50B5303F11003A3F5EC
S32D0000C7602A7207F5BA63083B1946104602F0D2F807F5005202F1280207F5005303F124031146184602F013F9BA
S32D0000C78807F5005202F1240207F5A663083B1146184608F00BFB07F5005303F12403184602F01DF907F5005302
S32D0000C7B003F12803184602F0C7F807F50B5303F11003A3F5287007F5BA63103B07F5AE621C3A07F5BA6108397E
S32D0000C7D802F027F907F5005202F1300207F5005303F12C031146184602F076F907F5005202F12C0207F5A663B2
S32D0000C800083B1146184608F0D5FA07F5005303F12C03184602F0E7F807F5005303F13003184602F02AF907F5C5
S32D0000C8280B5303F11003A3F5267007F5AE630C3B07F5AE621C3A07F5BA61083902F068F907F5005202F1380273
S32D0000C85007F5005303F134031146184602F0B7F907F5005202F1340207F5A663083B1146184608F09FFA07F5E8
S32D0000C878005303F13403184602F0B1F807F5005303F13803184602F06BF907F50B5303F11003A3F5247207F55E
S32D0000C8A0BA63083B1946104602F0ADF907F5015207F5005303F13C031146184602F0F0F907F5005202F13C02DD
S32D0000C8C807F5A663083B1146184608F06FFA07F5005303F13C03184602F081F807F50153184602F0A6F907F55E
S32D0000C8F00B5303F11003A3F5227007F5BA62143A07F5BA63083B194602F0E6F907F5015202F1080207F50153FD
S32D0000C91803F104031146184602F02FFA07F5015202F1040207F5A663083B1146184608F03DFA07F5015303F16E
S32D0000C9400403184602F04FF807F5015303F10803184602F0E3F9002307F50B5202F10F0213700B4B07F50B52FE
S32D0000C96802F1080213604FF0000307F50B5202F1040213604FF0000307F50B5206E000BF0000C040000090401A
S32D0000C9909A99193F136007F5015303F10C03184613F060FA07F5015202F10C0207F5A263083BB249184631F05F
S32D0000C9B847F907F5015303F10C03184613F050FA07F5A263103B184615F06CFA07F5015303F12803184613F02E
S32D0000C9E041FA07F5015202F1280207F5015303F11003A349184631F027F907F5015202F1100207F59260043822
S32D0000CA088B230093FF23002103F090FB07F5015303F11003184630F085FD07F5015303F12803184613F01CFAC1
S32D0000CA3007F59263043B1E21184603F08FFE07F5025303F10403184613F00CFA07F5025202F1040207F501533F
S32D0000CA5803F12C038949184631F0F2F807F5015202F12C0207F5866018388B230093FF23232103F05BFB07F5C4
S32D0000CA80015303F12C03184630F050FD07F5025303F10403184613F0E7F907F58663183B1E21184603F05AFE99
S32D0000CAA807F5025303F12003184613F0D7F907F5025202F1200207F5025303F108037049184631F0BDF807F529
S32D0000CAD0025202F1080207F56C700C388B230093FF23462103F026FB07F5025303F10803184630F01BFD07F50B
S32D0000CAF8025303F12003184613F0B2F907F56C730C3B1E21184603F025FE07F5025303F13C03184613F0A2F943
S32D0000CB2007F5025202F13C0207F5025303F124035649184631F088F807F5025202F1240207F54C708B230093FA
S32D0000CB48FF23692103F0F2FA07F5025303F12403184630F0E7FC07F5025303F13C03184613F07EF907F54C7350
S32D0000CB701E21184603F0F2FD012307F50A5202F12402136007F5BA63083B18460AF0D4FC3F4811F01CF93E4869
S32D0000CB9811F022FD002307F50A5202F13F0213703A4B1B78002B73D107F50A5303F13F031B78002B6CD107F510
S32D0000CBC08663183B184603F053FC07F59263043B184603F04DFC07F56C730C3B184603F047FC07F54C731846D2
S32D0000CBE803F042FC07F58663183B184603F09DFD0346002B08D0254B02221A70012307F50A5202F13F0213702E
S32D0000CC1007F59263043B184603F08BFD0346002B08D01C4B01221A70012307F50A5202F13F02137007F56C737F
S32D0000CC380C3B184603F079FD0346002B08D0134B03221A70012307F50A5202F13F02137007F54C73184603F028
S32D0000CC6068FD0346002B9FD00A4B04221A70012307F50A5202F13F02137095E718590600245906002C59060025
S32D0000CC883859060044590600D41A0020E517002007F50B5303F11003A3F52E73196807F50B5303F11003A3F506
S32D0000CCB02E735A6807F50B5303F11003A3F52E739B6807F5BA60083809F0BAFA264811F07EF8254811F084FC80
S32D0000CCD8002307F50A5202F13E02137007F50A5303F13E031B78002B41F0088607F5BA63083B18460AF003FC3F
S32D0000CD001A4B1B78012B33D10FF098FC0346184645F0B6FC034607F5085202F12C02136007F5BA63083B01210B
S32D0000CD2818460AF045FB07F5A663083B184608F051F807F5A663083B184608F0C1F80346002BCBD0012307F5D8
S32D0000CD500A5202F13E02137007F5BA63083B184609F004FCBEE700BFD41A0020E5170020E34B1B78032B40F043
S32D0000CD783986E24B07F5095202F12002136007F5035303F11803184613F068F807F5035202F1180207F50353F0
S32D0000CDA0D949184630F050FF07F5035307F110000C384FF4C84201924FF47F0200924FF00002D24903F06CFAED
S32D0000CDC807F50353184630F0ADFB07F5035303F11803184613F044F807F110030C3B1E21184603F0B7FC07F13A
S32D0000CDF010030C3B184603F03BFB07F5035303F13403184613F02EF807F5035202F1340207F5035303F11C0351
S32D0000CE18BD49184630F014FF07F5035303F11C0307F1900018384FF4C84201924FF400420092B64AB34903F032
S32D0000CE402FFA07F5035303F11C03184630F06EFB07F5035303F13403184613F005F807F19003183B1E211846F9
S32D0000CE6803F078FC07F19003183B184603F0FCFA07F5045303F11003184612F0EFFF07F5045202F1100207F515
S32D0000CE90035303F13803A049184630F0D5FE07F5035303F1380307F5887024384FF4C84201924FF6FF720092BC
S32D0000CEB8984A944903F0F0F907F5035303F13803184630F02FFB07F5045303F11003184612F0C6FF07F5887312
S32D0000CEE0243B1E21184603F039FC07F58873243B184603F0BDFA854907F5095303F12003186845F00DFB03465F
S32D0000CF081C4607F5045303F12C03184612F0A6FF07F5045202F12C0207F5045303F114037D49184630F08CFE7F
S32D0000CF3007F5045303F1140307F5C87030384FF40B0201924FF47F0200924FF00002214603F0A6F907F5045313
S32D0000CF5803F11403184630F0E5FA07F5045303F12C03184612F07CFF07F5C873303B1E21184603F0EFFB07F5DA
S32D0000CF80C873303B184603F073FA604907F5095303F12003186845F0C3FA03461C4607F5055303F10803184639
S32D0000CFA812F05CFF07F5055202F1080207F5045303F130035949184630F042FE07F5045303F1300307F50470EA
S32D0000CFD03C384FF40B0201924FF4004200924D4A214603F05DF907F5045303F13003184630F09CFA07F505539C
S32D0000CFF803F10803184612F033FF07F504733C3B1E21184603F0A6FB07F504733C3B184603F02AFA3B4907F580
S32D0000D020095303F12003186845F07AFA03461C4607F5055303F12403184612F013FF07F5055202F1240207F552
S32D0000D048055303F10C033649184630F0F9FD07F5055303F10C0307F5147008384FF40B0201924FF6FF7200922A
S32D0000D0702A4A214603F014F907F5055303F10C03184630F053FA07F5055303F12403184612F0EAFE07F514735B
S32D0000D098083B1E21184603F05DFB07F51473083B184603F0E1F907F110030C3B184603F03CFB0346002B35D0FB
S32D0000D0C007F50B5303F10803186844F083FE0AA3D3E9002344F020FD02460B461046194645F0C8F9034607F54E
S32D0000D0E80B5202F1080213601CE000BFAFF300809A9999999999B93FE517002000005C435459060000007041C2
S32D0000D1105C59060000000C426459060000008C426C590600745906007C59060007F5C873303B184603F0FDFAF4
S32D0000D1380346002B17D007F50B5303F10803186844F044FEC8A3D3E9002344F0DFFC02460B461046194645F043
S32D0000D16089F9034607F50B5202F10802136007F19003183B184603F0DCFA0346002B17D007F50B5303F1040358
S32D0000D188186844F023FEBAA3D3E9002344F0C0FC02460B461046194645F068F9034607F50B5202F10402136086
S32D0000D1B007F504733C3B184603F0BBFA0346002B17D007F50B5303F10403186844F002FEA9A3D3E9002344F09E
S32D0000D1D89DFC02460B461046194645F047F9034607F50B5202F10402136007F58873243B184603F09AFA03463B
S32D0000D200002B13D007F50B53186844F0E3FD9AA3D3E9002344F080FC02460B461046194645F028F9034607F54F
S32D0000D2280B52136007F51473083B184603F07DFA0346002B13D007F50B53186844F0C6FD8BA3D3E9002344F011
S32D0000D25061FC02460B461046194645F00BF9034607F50B52136007F5BA60083807F50B531B68009307F50B5397
S32D0000D27803F104031B6807F50B5202F10802126801210AF0E8F807F5BA60083807F50B531B68009307F50B531E
S32D0000D2A003F104031B6807F50B5202F10802126802210AF0D4F807F5BA60083807F50B531B68009307F50B5309
S32D0000D2C803F104031B6807F50B5202F10802126803210AF0C0F8B42364226749674810F0CBFDB423782207F523
S32D0000D2F00B5101F108010968624810F015FEC823642261495F4810F0BBFDC823782207F50B5101F104010968CC
S32D0000D3185A4810F005FEDC2364225A49574810F0ABFDDC23782207F50B510968534810F0F7FD6423002254499C
S32D0000D340504810F09DFD07F5BA63083B18460AF00CF90146642328224A4810F0E5FD782300224C49474810F067
S32D0000D3688BFD07F5BA63083B184609F056F9014678232822414810F0D3FD8C23002244493E4810F079FD07F532
S32D0000D390BA63083B18460AF0F7F801468C232822384810F0C1FD07F50653184612F05AFD07F5065207F5055396
S32D0000D3B803F128033749184630F042FC07F5055202F1280207F534701438334B00936FF07F43002102F0AAFEA3
S32D0000D3E007F5055303F12803184630F09FF807F50653184612F038FD07F53473143B1E21184603F0ABF907F58B
S32D0000D4083473143B184603F02FF807F5BA63083B022118460AF051F807F5095303F11C03186007F5095303F139
S32D0000D4301C0318680AF0C8FB07F5095303F1180318603C23962207F5095101F1180109680C4810F04DFD07F510
S32D0000D4583473143B184603F068F90346002B00F00A811BE0AFF300809A9999999999B93FFCA9F1D24D62503FBD
S32D0000D48084590600D41A0020885906008C5906009059060098590600A0590600A85906006666660007F5095345
S32D0000D4A803F11C0318680AF068FB07F5095303F11403186007F5095303F11C0318680AF073FB07F5095303F1EC
S32D0000D4D01003186007F5095303F11C0318680AF05BFB07F5095303F10C03186007F5095303F11C0318680AF0B0
S32D0000D4F873FB07F5095303F1080318604F4A5049504812F021F907F5095303F10403186007F5BA63083B18465E
S32D0000D52009F024F84A4A07F5095303F104031968464812F069FA002307F50A5202F13802136007F5095303F106
S32D0000D5481C0318680AF054FB024607F50A5303F138031B689A428CBF01230023DBB2002B78D03C23C82207F5C7
S32D0000D5700A5101F138010968364810F0B9FC07F50A5303F138031B689B0007F5095202F11402126813441B6809
S32D0000D598184644F01BFC04460D4607F50A5303F138031B689B0007F5095202F11002126813441B68184644F037
S32D0000D5C009FC8046894607F50A5303F138031B689B0007F5095202F10802126813441E6807F50A5303F13803CA
S32D0000D5E81B689B0007F5095202F10C02126813441B68184644F0EAFB02460B46CDE906230496CDE90289CDE9CB
S32D0000D6100045114A07F5095303F1040319680B4812F0F2F996200EF0CDFF07F50A5303F138031B68013307F57D
S32D0000D6380A5202F1380213607FE700BFB0590600B4590600501B0020BC590600D41A0020C859060007F509534E
S32D0000D66003F104031968BC4812F03EF978230022BA49BB4810F004FCB94810F0A8FBB94B07F509521360B84BAB
S32D0000D68807F5085202F13C02136007F5085303F13C03186845F024FA0446B24907F50953186844F039FF03464B
S32D0000D6B0184645F019FA03462246AD49A84810F0DFFB07F50B5303F11003A3F52E731C6807F5085303F13C038D
S32D0000D6D8186845F005FA0546A44907F50953186844F01AFF0346184645F0FAF903462A462146994810F014FC33
S32D0000D70007F5085303F13C03186845F0EDF90446994907F50953186844F002FF0346184645F0E2F90346224635
S32D0000D72894498D4810F0A8FB07F50B5303F11003A3F52E735C6807F5085303F13C03186845F0CEF905468C49FA
S32D0000D75007F50953186844F0E3FE0346184645F0C3F903462A4621467D4810F0DDFB854B07F5085202F1380216
S32D0000D77813607F4B07F5085202F13402136007F5BA63083B0121184609F012FE322307F5085202F1300213602C
S32D0000D7A0FF216F4810F059FB07F5085303F13003186844F065FF044607F5085303F13003186844F05DFF034679
S32D0000D7C80093234607F5085202F13402126807F5085101F1380109685F4811F0ABF907F5A662103A07F5A663AE
S32D0000D7F00C3B19465A4810F053FC0346002B00F0C38007F5965303F11003A3F6AC531B68184645F069F9044687
S32D0000D81807F5965303F11003A3F55B631B68184645F05EF9054607F5085303F13803186845F056F9064607F516
S32D0000D840085303F13403186845F04EF9014607F5085303F130031B6807F5085202F130021268019200930B4684
S32D0000D868324629462046FEF707FE0346002B00F08D8007F5965303F11003A3F6AC531B6807F5085202F1380250
S32D0000D8901168184644F042FE03461C4607F5085303F13003186844F0EBFE03461946204644F0F2FF034683F06A
S32D0000D8B8004207F50B5303F11003A3F52E731A6007F5965303F11003A3F55B631B6807F5085202F1340211682F
S32D0000D8E0184644F01BFE03461C4607F5085303F13003186844F0C4FE03461946204644F0CBFF03461A4607F51F
S32D0000D9080B5303F11003A3F52E735A6007F50B5303F11003A3F52E73196807F50B5303F11003A3F52E735A6822
S32D0000D93007F50B5303F11003A3F52E739B6807F5BA60083808F07CFC07F5BA63083B184608F098FC1EE000BF63
S32D0000D958501B0020005A0600D41A002000001643000034430000B4420C5A06000000D2420000F042185A0600B8
S32D0000D980000007430000204307F5BA63083B184608F078FC07F53473143B1846FEF7DCFD07F51473083B184664
S32D0000D9A8FEF7D6FD07F504733C3B1846FEF7D0FD07F5C873303B1846FEF7CAFD07F58873243B1846FEF7C4FD59
S32D0000D9D007F19003183B1846FEF7BEFD07F110030C3B1846FEF7B8FDFFF77CB9C34B1B78042B40F0E18307F558
S32D0000D9F8BA63083B184608F0E3FE4FF0000307F50A5202F104021360BB4B07F50A521360BA4B07F5095202F144
S32D0000DA203C0213604FF0000107F50A5303F10403186844F075FD0346184645F055F803460022B149B14810F0E6
S32D0000DA481BFA07F5BA63083B184608F005FE03461C68AD4907F50A5303F10403186844F05BFD0346184645F0E7
S32D0000DA703BF8034600222146A44810F055FAA04907F50A5303F10403186844F049FD0346184645F029F80346CB
S32D0000DA9800229E499B4810F0EFF907F5BA63083B184608F0D9FD034604331C68984907F50A5303F1040318684B
S32D0000DAC044F02EFD0346184645F00EF80346002221468E4810F028FA904907F50A5303F10403186844F01CFD33
S32D0000DAE80346184644F0FCFF034600228A49854810F0C2F907F5BA63083B184608F0ACFD034608331C68854943
S32D0000DB1007F50A5303F10403186844F001FD0346184644F0E1FF034600222146774810F0FBF97D4907F50A5382
S32D0000DB3803F10403186844F0EFFC0346184644F0CFFF0346002277496E4810F095F907F5AE63103B18460EF059
S32D0000DB6065FE03461C46724907F50A5303F10403186844F0D5FC0346184644F0B5FF034600222146614810F0EB
S32D0000DB882BFA6A4B07F5095202F138021360684B07F5095202F134021360664B07F5095202F1300213605E49B1
S32D0000DBB007F50A53186844F0B3FC0346184644F093FF034600225E49504810F059F907F5BA63183B18460FF059
S32D0000DBD88FF9034607F5095202F138021168184644F09AFC03461C464F4907F50A53186844F092FC03461846A4
S32D0000DC0044F072FF034600222146404810F08CF94C4907F50A53186844F082FC0346184644F062FF03460022AB
S32D0000DC284749384810F028F907F5BA631C3B18460FF05EF9034607F5095202F134021168184644F069FC0346F7
S32D0000DC501C463E4907F50A53186844F061FC0346184644F041FF034600222146274810F05BF9374907F50A53CA
S32D0000DC78186844F051FC0346184644F031FF0346002232491F4810F0F7F807F5B66318460FF02EF9034607F558
S32D0000DCA0095202F130021168184644F039FC03461C46294907F50A53186844F031FC0346184644F011FF03460B
S32D0000DCC8002221460F4810F02BF907F5065303F11C03184612F0C2F807F5065202F11C0207F5065303F10403F3
S32D0000DCF01A4918462FF0A8FF32E000BFE51700200000F0410000BE42205A0600D41A002000007041285A06009A
S32D0000DD180000344200007042305A0600000096420000B4423C5A06000000D242E8B401BDE742523DFD1BA1BC20
S32D0000DD404C5A060000000243545A060000001143000020435C5A060000002F43645A060007F5065202F104021A
S32D0000DD6807F5C87030384FF4C84300934FF40043002102F0DBF907F5065303F1040318462FF0D0FB07F50653B6
S32D0000DD9003F11C03184612F067F807F5C873303B1E21184602F0DAFC07F5065303F13803184612F057F807F55D
S32D0000DDB8065202F1380207F5065303F12003764918462FF03DFF07F5065202F1200207F504703C384FF40B0336
S32D0000DDE000934FF47F031E2102F0A4F907F5065303F1200318462FF099FB07F5065303F13803184612F030F866
S32D0000DE0807F504733C3B1E21184602F0A3FC07F5075303F11403184612F020F807F5075202F1140207F5065348
S32D0000DE3003F13C035B4918462FF006FF07F5065202F13C0207F5147008388B230093FF23B42102F06FF907F598
S32D0000DE58065303F13C0318462FF064FB07F5075303F11403184611F0FBFF07F51473083B1E21184602F06EFCBB
S32D0000DE8007F5075303F13003184611F0EBFF07F5075202F1300207F5075303F11803424918462FF0D1FE07F5FC
S32D0000DEA8075202F1180207F5347014388B230093FF23D22102F03AF907F5075303F1180318462FF02FFB07F577
S32D0000DED0075303F13003184611F0C6FF07F53473143B1E21184602F039FC07F504733C3B184602F0BDFA07F5DC
S32D0000DEF8C873303B184602F0B7FA07F51473083B184602F0B1FA07F53473143B184602F0ABFA07F51473083BE7
S32D0000DF20184602F0FBFB0346002B07D007F5AE631C3B4FF0000118460FF016FB07F53473143B184602F0EAFB09
S32D0000DF480346002B06D007F5AE631C3B154918460FF006FB07F5C873303B184602F0DAFB0346002B07D007F533
S32D0000DF70BA63103B0E4918460AF016FA22E007F504733C3B184602F0C9FB0346002B13D007F5BA63103B074951
S32D0000DF9818460AF005FA11E0705A06007C5A0600885A0600000034430000A0420000A0C207F5BA63103B184602
S32D0000DFC00AF0B0F9794B07F5095202F12C021360774B07F5095202F12802136007F5BA63083B0121184609F063
S32D0000DFE8E7F9322307F5095202F124021360FF216E480FF02EFF07F5095303F12403186844F03AFB044607F54F
S32D0000E010095303F12403186844F032FB03460093234607F5095202F12802126807F5095101F12C0109685F48CA
S32D0000E03810F080FD07F5A662103A07F5A6630C3B19465A4810F028F80346002B00F0898007F5965303F1100329
S32D0000E060A3F6AC531B68184644F03EFD044607F5965303F11003A3F55B631B68184644F033FD054607F5095336
S32D0000E08803F12C03186844F02BFD064607F5095303F12803186844F023FD014607F5095303F124031B6807F59B
S32D0000E0B0095202F124021268019200930B46324629462046FEF7DCF90346002B53D007F5965303F11003A3F6AA
S32D0000E0D8AC531B6807F5095202F12C021168184644F018FA03461C4607F5095303F12403186844F0C1FA03462D
S32D0000E1001946204644F0C8FB034683F000431946184644F005FA03461A4607F50B5303F11003A3F52E731A6089
S32D0000E12807F50B5303F11003A3F52E73196807F50B5303F11003A3F52E735A6807F50B5303F11003A3F52E73B8
S32D0000E1509B6807F5BA60083808F072F807F5BA63083B184608F08EF805E007F5BA63083B184608F0FBF907F527
S32D0000E1783473143B1846FEF7EBF907F51473083B1846FEF7E5F907F504733C3B1846FEF7DFF907F5C873303B9E
S32D0000E1A01846FEF7D9F9FEF79DBD00BF000020430000F042D41A00204FF0000307F50A5202F120021360C54B49
S32D0000E1C807F50A5202F11C0213604FF0000107F50A5303F12003186844F09EF90346184644F07EFC0346002292
S32D0000E1F0BB49BC480FF044FE07F5BA63083B184608F002FA0446B84907F50A5303F12003186844F085F90346D4
S32D0000E218184644F065FC034600222146AF480FF07FFEB04907F50A5303F12003186844F073F90346184644F03C
S32D0000E24053FC03460022AA49A6480FF019FE07F5BA63083B184608F0E4F90446A54907F50A5303F12003186848
S32D0000E26844F05AF90346184644F03AFC0346002221469A480FF054FE9D4907F50A5303F12003186844F048F9A0
S32D0000E2900346184644F028FC03460022974991480FF0EEFD07F5BA63083B184608F0C8F90446934907F50A5361
S32D0000E2B803F12003186844F02FF90346184644F00FFC03460022214684480FF029FE4FF0000107F50A5303F10E
S32D0000E2E01C03186844F01CF90346184644F0FCFB0346002283497B480FF0C2FD07F5BA63083B184608F054F99F
S32D0000E3080446774907F50A5303F11C03186844F003F90346184644F0E3FB0346002221466E480FF0FDFD6F49CF
S32D0000E33007F50A5303F11C03186844F0F1F80346184644F0D1FB034600226F4965480FF097FD07F5BA63083B50
S32D0000E358184608F036F90446644907F50A5303F11C03186844F0D8F80346184644F0B8FB03460022214659482A
S32D0000E3800FF0D2FD5C4907F50A5303F11C03186844F0C6F80346184644F0A6FB034600225A4950480FF06CFD94
S32D0000E3A807F5BA63083B184608F01AF90446524907F50A5303F11C03186844F0ADF80346184644F08DFB03462C
S32D0000E3D00022214643480FF0A7FD4D4907F50A5303F11C03186844F09BF80346184644F07BFB034600224749D3
S32D0000E3F83A480FF041FD07F5BA63143B18460EF077FD0446424907F50A5303F11C03186844F082F803461846EA
S32D0000E42044F062FB0346002221462E480FF07CFD314B07F50A5202F118021360374B07F50A5202F114021360D3
S32D0000E44807F50A5303F11403186844F049FB04462D4907F50A5303F11803186844F05CF80346184644F03CFB08
S32D0000E470034622462A491B480FF002FD07F50B5303F11003A3F52E731C6807F50A5303F11403186844F028FBA0
S32D0000E49805461F4907F50A5303F11803186844F03BF80346184644F01BFB03462A4621460A480FF035FD07F5C4
S32D0000E4C00A5303F11403186844F00EFB0446154907F50A5303F1180326E000BF0000BE42945A0600D41A002032
S32D0000E4E8000070410000F041A05A06000000344200007042B05A060000009642C05A0600CC5A0600DC5A06008C
S32D0000E5100000B442EC5A06000000D242000034430C5A06000000F042186843F0F9FF0346184644F0D9FA0346D0
S32D0000E5382246A749A7480FF09FFC07F50B5303F11003A3F52E735C6807F50A5303F11403186844F0C5FA054654
S32D0000E5609F4907F50A5303F11803186843F0D8FF0346184644F0B8FA03462A46214697480FF0D2FC07F5085303
S32D0000E58803F10C03184611F069FC07F5085202F10C0207F5075303F13403904918462FF04FFB07F5075303F1DC
S32D0000E5B0340307F5147008388B2201924FF400420092894A894901F06BFE07F5075303F1340318462EF0AAFF4A
S32D0000E5D807F5085303F10C03184611F041FC07F51473083B1E21184602F0B4F807F5085303F12803184611F049
S32D0000E60031FC07F5085202F1280207F5085303F11003774918462FF017FB07F5085303F1100307F53470143855
S32D0000E6288B2201924FF6FF720092704A6D4901F033FE07F5085303F1100318462EF072FF07F5085303F12803E9
S32D0000E650184611F009FC07F53473143B1E21184602F07CF807F51473083B184601F000FF07F53473143B1846DF
S32D0000E67801F0FAFE07F53473143B184602F04AF80346002B05D0002307F50B5202F10F02137007F51473083BF5
S32D0000E6A0184602F03BF80346002B08D0012307F50B5202F10F02137048480FF088FB07F50B5303F10F031A7875
S32D0000E6C807F5BA63083B1146184608F071FE484B07F50A5202F110021360464B07F50A5202F10C021360322397
S32D0000E6F007F50A5202F108021360FF2137480FF0ACFB07F50A5303F10803186843F0B8FF044607F50A5303F196
S32D0000E7180803186843F0B0FF03460093234607F50A5202F10C02126807F50A5101F110010968284810F0FEF91C
S32D0000E74007F5A662103A07F5A6630C3B194623480FF0A6FC0346002B00F0C08007F5965303F11003A3F6AC537E
S32D0000E7681B68184644F0BCF9044607F5965303F11003A3F55B631B68184644F0B1F9054607F50A5303F11003C3
S32D0000E790186844F0A9F9064607F50A5303F10C03186844F0A1F9014607F50A5303F108031B6807F50A5202F1A2
S32D0000E7B808021268019200930B46324629462046FDF75AFE0346002B00F08A8014E000BF185A0600D41A0020F8
S32D0000E7E000000743F85A06000000704200007A43FC5A06000000BE42000020430000F04207F5965303F110031D
S32D0000E808A3F6AC531B6807F50A5202F110021168184643F07FFE03461C4607F50A5303F10803186843F028FF06
S32D0000E83003461946204644F02FF8034683F0004207F50B5303F11003A3F52E731A6007F5965303F11003A3F5BB
S32D0000E8585B631B6807F50A5202F10C021168184643F058FE03461C4607F50A5303F10803186843F001FF034699
S32D0000E8801946204644F008F803461A4607F50B5303F11003A3F52E735A6007F50B5303F11003A3F52E73196859
S32D0000E8A807F50B5303F11003A3F52E735A6807F50B5303F11003A3F52E739B6807F5BA60083807F0B9FC07F54B
S32D0000E8D0BA63083B184607F0D5FC05E007F5BA63083B184607F042FE07F53473143B1846FDF732FE07F51473C7
S32D0000E8F8083B1846FDF72CFEFEF7F0B9024B00221A70FEF741B900BFE5170020B0B582B000AF7860396038687B
S32D0000E92000F04BFA0546442011F0CCF903461C462946204602F0C0FB2146786800F057FA78680837BD46B0BDDB
S32D0000E94890B585B000AF78607B68184600F05AFAF860FB681B68002B0CD0786800F05FFA0446F86800F068FAB1
S32D0000E97003461B681946204600F06CFAFB6800221A607B6818461437BD4690BD80B584B000AFF860B9607A6054
S32D0000E998FB68B9687A68184600F080FAFB6818461037BD4680BDB0B582B000AF786039607C68386800F05BFA5B
S32D0000E9C00546386800F02FFA0346184600F060FA03461A4629462046FFF7D8FF7B6818460837BD46B0BD90B5B4
S32D0000E9E885B000AF78607B68184600F06DFAF860FB681B68002B0CD0786800F072FA0446F86800F07BFA0346D4
S32D0000EA101B681946204600F07FFAFB6800221A607B6818461437BD4690BD2DE9F04184B000AFF860B9607A60D7
S32D0000EA383B60B86800F0BDF90546786800F079FA0646386800F07FFA80464C2011F036F903461C46434632465E
S32D0000EA602946204604F0F2FC2146F86800F089FAF8681037BD46BDE8F08190B585B000AF78607B68184600F0A5
S32D0000EA888BFAF860FB681B68002B0CD0786800F090FA0446F86800F099FA03461B681946204600F09DFAFB6894
S32D0000EAB000221A607B6818461437BD4690BD80B584B000AFF860B9607A60FB68B9687A68184600F0B1FAFB689B
S32D0000EAD818461037BD4680BDB0B582B000AF786039607C68386800F08CFA0546386800F060FA0346184600F0AE
S32D0000EB0091FA03461A4629462046FFF7D8FF7B6818460837BD46B0BD2DE9F04184B000AFF860B9607A603B6011
S32D0000EB28B86800F046F90546786800F002FA0646386800F093FA80464C2011F0BFF803461C46434632462946EB
S32D0000EB50204603F0A7FE2146F86800F09DFAF8681037BD46BDE8F08190B585B000AF78607B68184600F09FFAC0
S32D0000EB78F860FB681B68002B0CD0786800F0A4FA0446F86800F0ADFA03461B681946204600F0B1FAFB680022CA
S32D0000EBA01A607B6818461437BD4690BD80B584B000AFF860B9607A60FB68B9687A68184600F0C5FAFB6818465A
S32D0000EBC81037BD4680BDB0B582B000AF786039607C68386800F0A0FA0546386800F074FA0346184600F0A5FA54
S32D0000EBF003461A4629462046FFF7D8FF7B6818460837BD46B0BDB0B582B000AF78603960386800F0D2F8054660
S32D0000EC18442011F053F803461C462946204602F065FF2146786800F0B4FA78680837BD46B0BD90B585B000AFAB
S32D0000EC4078607B68184600F0B7FAF860FB681B68002B0CD0786800F0BCFA0446F86800F0C5FA03461B6819469D
S32D0000EC68204600F0C9FAFB6800221A607B6818461437BD4690BD80B584B000AFF860B9607A60FB68B9687A68C1
S32D0000EC90184600F0DDFAFB6818461037BD4680BDB0B582B000AF786039607C68386800F0B8FA0546386800F031
S32D0000ECB88CFA0346184600F0BDFA03461A4629462046FFF7D8FF7B6818460837BD46B0BDB0B586B000AFF8607D
S32D0000ECE0B9607A60B86800F068F80546786800F0C5FA03461B783B75482010F0E3FF03461C463A7D29462046BC
S32D0000ED0805F0F8FA2146F86800F0CEFAF8681837BD46B0BD90B585B000AF78607B68184600F0D1FAF860FB68A0
S32D0000ED301B68002B0CD0786800F0D6FA0446F86800F0DFFA03461B681946204600F0E3FAFB6800221A607B68D8
S32D0000ED5818461437BD4690BD80B584B000AFF860B9607A60FB68B9687A68184600F0F7FAFB6818461037BD4681
S32D0000ED8080BDB0B582B000AF786039607C68386800F0D2FA0546386800F0A6FA0346184600F0D7FA03461A46A5
S32D0000EDA829462046FFF7D8FF7B6818460837BD46B0BD80B483B000AF78607B6818460C37BD4680BC704780B50E
S32D0000EDD082B000AF786039607B683A681146184600F0D7FA7B6818460837BD4680BD80B582B000AF7860396081
S32D0000EDF87B6839681846FFF7E6FF7B6818460837BD4680BD80B582B000AF78607B68184600F0CFFA03461846E1
S32D0000EE200837BD4680BD80B582B000AF78607B68184600F0CFFA034618460837BD4680BD80B483B000AF786049
S32D0000EE487B6818460C37BD4680BC704780B582B000AF786039603B68002B04D01A68183212681846904700BFBF
S32D0000EE700837BD4680BD80B582B000AF78607B68184600F0B4FA034618460837BD4680BD80B483B000AF786014
S32D0000EE987B6818460C37BD4680BC704790B585B000AFF860B9607A60FC687868FFF7ECFF024607F1080319468F
S32D0000EEC0204600F0A9FAFB6818461437BD4690BD80B582B000AF78607B68184600F0B5FA034618460837BD4618
S32D0000EEE880BD80B582B000AF78607B68184600F0B5FA034618460837BD4680BD80B483B000AF78607B6818469C
S32D0000EF100C37BD4680BC704780B582B000AF786039603B68002B04D01A68183212681846904700BF0837BD46F5
S32D0000EF3880BD80B483B000AF78607B6818460C37BD4680BC704780B483B000AF78607B6818460C37BD4680BC55
S32D0000EF60704780B582B000AF786039607B683A681146184600F090FA7B6818460837BD4680BD80B582B000AFBB
S32D0000EF88786039607B6839681846FFF7E6FF7B6818460837BD4680BD80B582B000AF78607B68184600F088FACC
S32D0000EFB0034618460837BD4680BD80B582B000AF78607B68184600F088FA034618460837BD4680BD80B483B0DF
S32D0000EFD800AF78607B6818460C37BD4680BC704780B582B000AF786039603B68002B04D01A681832126818463D
S32D0000F000904700BF0837BD4680BD80B582B000AF78607B68184600F06DFA034618460837BD4680BD80B483B0BA
S32D0000F02800AF78607B6818460C37BD4680BC704790B585B000AFF860B9607A60FC687868FFF7ECFF024607F1E0
S32D0000F05008031946204600F062FAFB6818461437BD4690BD80B483B000AF78607B6818460C37BD4680BC7047B2
S32D0000F07880B582B000AF786039607B683A681146184600F061FA7B6818460837BD4680BD80B582B000AF7860B0
S32D0000F0A039607B6839681846FFF7E6FF7B6818460837BD4680BD80B582B000AF78607B68184600F059FA034671
S32D0000F0C818460837BD4680BD80B582B000AF78607B68184600F059FA034618460837BD4680BD80B483B000AF8F
S32D0000F0F078607B6818460C37BD4680BC704780B582B000AF786039603B68002B04D01A681832126818469047FC
S32D0000F11800BF0837BD4680BD80B582B000AF78607B68184600F03EFA034618460837BD4680BD80B483B000AFF8
S32D0000F14078607B6818460C37BD4680BC704790B585B000AFF860B9607A60FC687868FFF7ECFF024607F108036B
S32D0000F1681946204600F033FAFB6818461437BD4690BD80B582B000AF786039607B683A681146184600F03CFA54
S32D0000F1907B6818460837BD4680BD80B582B000AF786039607B6839681846FFF7E6FF7B6818460837BD4680BD8D
S32D0000F1B880B582B000AF78607B68184600F034FA034618460837BD4680BD80B582B000AF78607B68184600F097
S32D0000F1E034FA034618460837BD4680BD80B483B000AF78607B6818460C37BD4680BC704780B582B000AF786057
S32D0000F20839603B68002B04D01A68183212681846904700BF0837BD4680BD80B582B000AF78607B68184600F0C5
S32D0000F23019FA034618460837BD4680BD80B483B000AF78607B6818460C37BD4680BC704790B585B000AFF8608E
S32D0000F258B9607A60FC687868FFF7ECFF024607F108031946204600F00EFAFB6818461437BD4690BD80B483B0A5
S32D0000F28000AF78607B6818460C37BD4680BC704780B582B000AF786039607B683A681146184600F00DFA7B68C4
S32D0000F2A818460837BD4680BD80B582B000AF786039607B6839681846FFF7E6FF7B6818460837BD4680BD80B522
S32D0000F2D082B000AF78607B68184600F005FA034618460837BD4680BD80B582B000AF78607B68184600F005FAE3
S32D0000F2F8034618460837BD4680BD80B483B000AF78607B6818460C37BD4680BC704780B582B000AF78603960D3
S32D0000F3203B68002B04D01A68183212681846904700BF0837BD4680BD80B582B000AF78607B68184600F0EAF962
S32D0000F348034618460837BD4680BD80B483B000AF78607B6818460C37BD4680BC704790B585B000AFF860B9606F
S32D0000F3707A60FC687868FFF7ECFF024607F108031946204600F0DFF9FB6818461437BD4690BD80B582B000AF26
S32D0000F398786039607B68184600F0EAF97868FFF731FD02463B6813607B6818460837BD4680BD80B582B000AF8A
S32D0000F3C078607B68184600F0F1F9034618460837BD4680BD80B582B000AF78607B68184600F0F0F90346184657
S32D0000F3E80837BD4680BD80B584B000AF78607868FFF708FD03461B68FB607868FFF702FD034600221A60FB6869
S32D0000F41018461037BD4680BDB0B584B000AFF860B9607A60FC68B86800F0D8F905467868FFF72EFD03461A461C
S32D0000F4382946204600F0D8F9FB6818461037BD46B0BD80B582B000AF78607B68184600F0E7F9034618460837B3
S32D0000F460BD4680BD80B582B000AF78607B68184600F0E6F9034618460837BD4680BD80B582B000AF78607B6849
S32D0000F488184600F0E5F9034618460837BD4680BD80B582B000AF786039607B68184600F0EDF97868FFF778FD1B
S32D0000F4B002463B6813607B6818460837BD4680BD80B582B000AF78607B68184600F0F4F9034618460837BD461B
S32D0000F4D880BD80B582B000AF78607B68184600F0F3F9034618460837BD4680BD80B584B000AF78607868FFF7D2
S32D0000F5004FFD03461B68FB607868FFF749FD034600221A60FB6818461037BD4680BDB0B584B000AFF860B96068
S32D0000F5287A60FC68B86800F055F905467868FFF775FD03461A462946204600F0D1F9FB6818461037BD46B0BDD6
S32D0000F55080B582B000AF786039607B68184600F0DFF97868FFF7A7FD02463B6813607B6818460837BD4680BD65
S32D0000F57880B582B000AF78607B68184600F0E6F9034618460837BD4680BD80B582B000AF78607B68184600F022
S32D0000F5A0E5F9034618460837BD4680BD80B584B000AF78607868FFF77EFD03461B68FB607868FFF778FD03463D
S32D0000F5C800221A60FB6818461037BD4680BDB0B584B000AFF860B9607A60FC68B86800F0F9F805467868FFF718
S32D0000F5F0A4FD03461A462946204600F0C3F9FB6818461037BD46B0BD80B582B000AF786039607B68184600F0F2
S32D0000F618D1F97868FFF7CCFD02463B6813607B6818460837BD4680BD80B582B000AF78607B68184600F0D8F94D
S32D0000F640034618460837BD4680BD80B582B000AF78607B68184600F0D7F9034618460837BD4680BD80B584B0F8
S32D0000F66800AF78607868FFF7A3FD03461B68FB607868FFF79DFD034600221A60FB6818461037BD4680BDB0B54E
S32D0000F69084B000AFF860B9607A60FC68B86800F09DF805467868FFF7C9FD03461A462946204600F0B5F9FB68AF
S32D0000F6B818461037BD46B0BD80B582B000AF786039607B68184600F0C3F97868FFF7FBFD02463B6813607B688C
S32D0000F6E018460837BD4680BD80B582B000AF78607B68184600F0CAF9034618460837BD4680BD80B582B000AF01
S32D0000F70878607B68184600F0C9F9034618460837BD4680BD80B584B000AF78607868FFF7D2FD03461B68FB6026
S32D0000F7307868FFF7CCFD034600221A60FB6818461037BD4680BDB0B584B000AFF860B9607A60FC68B86800F0D8
S32D0000F75841F805467868FFF7F8FD03461A462946204600F0A7F9FB6818461037BD46B0BD80B582B000AF7860C0
S32D0000F7807B68184600F0B6F97B6818460837BD4680BD80B582B000AF78607B68184600F0B9F903461846083704
S32D0000F7A8BD4680BD80B582B000AF78607868FFF7ECFF034618460837BD4680BD80B582B000AF7860786800F060
S32D0000F7D0B7F9034618460837BD4680BD80B483B000AF78607B6818460C37BD4680BC704790B585B000AFF8604C
S32D0000F7F8B9607A607868FFF747FB03461946F86800F0A6F9FC68B868FFF7E4FF03461946204600F0AFF9FB68DB
S32D0000F82018461437BD4690BD80B582B000AF78607868FFF724FE034618460837BD4680BD80B582B000AF7860C7
S32D0000F848786800F0A8F9034618460837BD4680BD80B483B000AF78607B6818460C37BD4680BC704780B582B02C
S32D0000F87000AF7860786800F09EF9034618460837BD4680BD80B582B000AF78607B68184600F09BF97B68184662
S32D0000F8980837BD4680BD80B582B000AF78607B68184600F09EF9034618460837BD4680BD80B582B000AF7860F9
S32D0000F8C07868FFF7ECFF034618460837BD4680BD80B582B000AF7860786800F09CF9034618460837BD4680BDBA
S32D0000F8E890B585B000AFF860B9607A607868FFF795FB03461946F86800F095F9FC68B868FFF768FF0346194609
S32D0000F910204600F033F9FB6818461437BD4690BD80B582B000AF78607B68184600F091F97B6818460837BD46BF
S32D0000F93880BD80B582B000AF78607B68184600F094F9034618460837BD4680BD80B582B000AF78607868FFF7CE
S32D0000F960ECFF034618460837BD4680BD80B582B000AF7860786800F092F9034618460837BD4680BD90B585B07F
S32D0000F98800AFF860B9607A607868FFF7D2FB03461946F86800F08BF9FC68B868FFF71AFF03461946204600F0A7
S32D0000F9B0E5F8FB6818461437BD4690BD80B582B000AF78607B68184600F087F97B6818460837BD4680BD80B55C
S32D0000F9D882B000AF78607B68184600F08AF9034618460837BD4680BD80B582B000AF78607868FFF7ECFF034676
S32D0000FA0018460837BD4680BD80B582B000AF7860786800F088F9034618460837BD4680BD90B585B000AFF86015
S32D0000FA28B9607A607868FFF705FC03461946F86800F081F9FC68B868FFF7CCFE03461946204600F097F8FB6840
S32D0000FA5018461437BD4690BD80B582B000AF78607B68184600F07DF97B6818460837BD4680BD80B582B000AF24
S32D0000FA7878607B68184600F080F9034618460837BD4680BD80B582B000AF78607868FFF7ECFF03461846083723
S32D0000FAA0BD4680BD80B582B000AF7860786800F07EF9034618460837BD4680BD90B585B000AFF860B9607A6029
S32D0000FAC87868FFF742FC03461946F86800F077F9FC68B868FFF77EFE03461946204600F049F8FB681846143753
S32D0000FAF0BD4690BD80B582B000AF7860786800F074F97B68184600F07CF97B6818460837BD4680BD80B483B0A0
S32D0000FB1800AF78607B6818460C37BD4680BC704780B582B000AF7860786800F073F9034618460837BD4680BD6E
S32D0000FB4080B582B000AF78607868FFF7EDFF034618460837BD4680BD80B582B000AF786039603868FFF794F917
S32D0000FB6803461946786800F05FF97B6818460837BD4680BD80B582B000AF786039603868FFF728FE03461A68D1
S32D0000FB907B681A607B6818460837BD4680BD80B582B000AF78607868FFF760FE034618460837BD4680BD80B4AE
S32D0000FBB883B000AF78607B6818460C37BD4680BC704780B582B000AF7860786800F03EF97B68184600F046F986
S32D0000FBE07B6818460837BD4680BD80B483B000AF78607B6818460C37BD4680BC704780B582B000AF7860786801
S32D0000FC0800F03DF9034618460837BD4680BD80B582B000AF78607868FFF7EDFF034618460837BD4680BD80B577
S32D0000FC3082B000AF786039603868FFF7F3F903461946786800F029F97B6818460837BD4680BD80B582B000AF62
S32D0000FC587860786800F02FF97B68184600F037F97B6818460837BD4680BD80B483B000AF78607B6818460C371B
S32D0000FC80BD4680BC704780B582B000AF7860786800F02EF9034618460837BD4680BD80B582B000AF7860786887
S32D0000FCA8FFF7EDFF034618460837BD4680BD80B582B000AF786039603868FFF73AFA03461946786800F01AF94A
S32D0000FCD07B6818460837BD4680BD80B582B000AF7860786800F020F97B68184600F028F97B6818460837BD469A
S32D0000FCF880BD80B483B000AF78607B6818460C37BD4680BC704780B582B000AF7860786800F01FF903461846BC
S32D0000FD200837BD4680BD80B582B000AF78607868FFF7EDFF034618460837BD4680BD80B582B000AF78603960D9
S32D0000FD483868FFF777FA03461946786800F00BF97B6818460837BD4680BD80B582B000AF7860786800F011F982
S32D0000FD707B68184600F019F97B6818460837BD4680BD80B483B000AF78607B6818460C37BD4680BC704780B5C5
S32D0000FD9882B000AF7860786800F010F9034618460837BD4680BD80B582B000AF78607868FFF7EDFF034618462E
S32D0000FDC00837BD4680BD80B582B000AF786039603868FFF7BEFA03461946786800F0FCF87B6818460837BD46D2
S32D0000FDE880BD80B582B000AF7860786800F002F97B6818460837BD4680BD80B483B000AF78607B6800221A60CA
S32D0000FE107B6818460C37BD4680BC704780B483B000AF78607B6818460C37BD4680BC704780B582B000AF7860F4
S32D0000FE3839603868FFF728F803461946786800F0E3F87B6818460837BD4680BD80B582B000AF7860786800F07C
S32D0000FE60E2F87B6818460837BD4680BD80B483B000AF78607B6800221A607B6818460C37BD4680BC704780B4BF
S32D0000FE8883B000AF78607B6818460C37BD4680BC704780B582B000AF786039603868FFF7BDF8034619467868BE
S32D0000FEB000F0C3F87B6818460837BD4680BD80B582B000AF7860786800F0C2F87B6818460837BD4680BD80B44D
S32D0000FED883B000AF78607B6800221A607B6818460C37BD4680BC704780B483B000AF78607B6818460C37BD46D4
S32D0000FF0080BC704780B582B000AF786039603868FFF713F903461946786800F0A3F87B6818460837BD4680BDE4
S32D0000FF2880B582B000AF7860786800F0A2F87B6818460837BD4680BD80B483B000AF78607B6800221A607B6843
S32D0000FF5018460C37BD4680BC704780B483B000AF78607B6818460C37BD4680BC704780B582B000AF78603960FD
S32D0000FF783868FFF75FF903461946786800F083F87B6818460837BD4680BD80B582B000AF7860786800F082F882
S32D0000FFA07B6818460837BD4680BD80B483B000AF78607B6800221A607B6818460C37BD4680BC704780B483B025
S32D0000FFC800AF78607B6818460C37BD4680BC704780B582B000AF786039603868FFF7B5F903461946786800F0C7
S32D0000FFF063F87B6818460837BD4680BD80B483B000AF78607B6818460C37BD4680BC704780B483B000AF786072
S32D0001001839607B6818460C37BD4680BC704780B483B000AF78607B6818460C37BD4680BC704780B483B000AF28
S32D00010040786039607B6818460C37BD4680BC704780B483B000AF78607B6818460C37BD4680BC704780B483B0D7
S32D0001006800AF786039607B6818460C37BD4680BC704780B483B000AF78607B6818460C37BD4680BC704780B433
S32D0001009083B000AF786039607B6818460C37BD4680BC704780B483B000AF78607B6818460C37BD4680BC70470C
S32D000100B880B483B000AF786039607B6818460C37BD4680BC7047000080B582B000AF786039607B68012B0CD1A5
S32D000100E03B684FF6FF72934207D1064810F098F8054A064903480FF05FFD00BF0837BD4680BD00BFE4170020B1
S32D00010108000000204102020080B500AF4FF6FF710120FFF7D9FF80BD80B400AF024B1846BD4680BC704700BF5B
S32D00010130FFFF7F7F2DE9B04384B000AFF860B9607A603B60FB684FF4A0721A60FB68F0225A60FB686FF07F42EE
S32D000101589A60FB684C4ADA60FB684C4A1A61FB6800225A61FB684A4A9A62FB68002283F82D20FB685C33184607
S32D000101802DF0A2F9FB681B68184641F001FE4FF000024FF0804341F09FFF02460B4614461D4678682DF016FAAF
S32D000101A80346184641F0F0FD4FF000024FF0804341F08EFF02460B469046994635480DF04BFA0346184641F07D
S32D000101D0EFFD02460B464046494641F053FE02460B462046294641F095FC02460B461046194642F03FF90246B4
S32D000101F8FB685A63B86842F043FA0246FB689A6378682DF0E3F9044622480DF025FA034604FB03F3184642F00A
S32D000102202FFA0246FB685A651C480DF023FA0346184642F029FA0246FB689A65FB685C33796818462DF07EF933
S32D00010248FB6800221A76FB6801225A76FB68002283F82C20FB68002283F82D203A68FB68DA61BA6AFB681A6240
S32D00010270FB681B691A46FB685A62FB68DA69FB681A63FB6818461037BD46BDE8B08300BF66666600212121003C
S32D00010298E22B8A00D41A002090B585B000AFF860B9607A603B60FB684FF4A0721A60FB68F0225A60FB686FF060
S32D000102C07F429A60FB682E4ADA60FB682D4A1A61FB6800225A61FB682B4A9A62FB68002283F82D20FB685C3397
S32D000102E818462DF0EDF8FB68BA685A63FB687A689A6338682DF06AF9044622480DF0ACF9034604FB03F31846F1
S32D0001031042F0B6F90246FB685A651C480DF0AAF90346184642F0B0F90246FB689A65FB685C33396818462DF035
S32D0001033805F9FB6800221A76FB6801225A76FB68002283F82C20FB68002283F82D203A6AFB68DA617A6AFB680B
S32D000103601A62FB681B691A46FB685A62FB68DA69FB681A63FB6818461437BD4690BD00BF666666002121210056
S32D00010388E22B8A00D41A0020F0B58BB002AF78607B681B6B194633480DF05BFD7B685C6B30480DF059F90346E6
S32D000103B0184642F069F903461946204642F0AEF80346184642F090FB05467B689B6B184642F08AFB06467B686A
S32D000103D85C6D24480DF040F903465B00184642F04FF903461946204642F096F80346184642F076FB04467B68CA
S32D000104009B6D184642F070FB0346009323463246294616480EF02FFA7B6803F15C0207F10803114618462DF00F
S32D00010428C9FB7B685B6B184642F05AFB04467B689B6B4FF08141184642F06EF80346184642F04EFB034607F1C6
S32D000104500801224605480DF036FD07F1080318462DF064F800BF2437BD46F0BDD41A0020B0B584B000AF7860BD
S32D000104787B685B7E002B00F046810023FB730023BB737B6803F13C017B6840331A4692480DF002FE7B68DC6B0A
S32D000104A07B685D6B8E480DF0DBF80346184642F0EBF803461946284642F030F803461946204642F0E7FA034646
S32D000104C8002B44D07B68DC6B7B685A6B7B685B6D1946104642F020F803461D467E480DF0BBF80346184642F04F
S32D000104F0CBF803461946284642F012F803464FF07E51184642F00AF803461946204642F0B7FA0346002B1ED08C
S32D000105187B681A6C7B689B6B1946104642F0B6FA0346002B13D07B681C6C7B689A6B7B689B6D1946104641F050
S32D00010540EFFF03461946204642F09AFA0346002B01D0012200E000227B6883F82C207B6803F13C017B6840334C
S32D000105681A465D480DF098FD034683F00103DBB2002B6ED17B6803F144017B6848331A4655480DF089FD0346D3
S32D00010590002B62D07B68DC6B7B685D6B50480DF069F80346184642F06FF803461946284641F0B4FF0346194632
S32D000105B8204642F06BFA0346002B27D07B68DC6B7B685A6B7B685B6D1946104641F0A4FF03461D4640480DF075
S32D000105E03FF80346184642F04FF803461946284641F096FF03464FF07E51184641F08EFF03461946204642F006
S32D000106083BFA0346002B01D0012300E00023FB737B681A6C7B689B6B1946104642F036FA0346002B13D07B6811
S32D000106301C6C7B689A6B7B689B6D1946104641F06FFF03461946204642F01AFA0346002B01D0012300E000232C
S32D00010658BB73FB7B002B19D0BB7B002B16D07B685B69002B03D17B6801225A6106E07B685B69012B02D17B689E
S32D0001068002225A617B681A6A7B681A637B6801221A763CE07B685B69022B03D17B6803225A6106E07B685B69FB
S32D000106A8032B02D17B6800225A617B6893F82C30002B13D07B689A6A7B681A637B6893F82D3083F00103DBB274
S32D000106D0002B0FD07B68012283F82D200AE000BFD41A00207B68DA697B681A637B68002283F82D207B68002214
S32D000106F81A76FFF711FD02467B68DA63FFF70CFD02467B681A647868FFF73EFE00BF1037BD46B0BD80B483B040
S32D0001072000AF78607B681B7E18460C37BD4680BC704780B485B000AF78600023FB737B685B69012B04D17B6804
S32D0001074802225A610123FB73FB7B18461437BD4680BC704780B582B000AF78603960386841F08EFF02467B68EC
S32D000107709A6500BF0837BD4680BD80B584B000AFF860B9607A60B968F86842F079F90346002B01D0BB6809E044
S32D000107987968F86842F07AF90346002B01D07B6800E0FB6818461037BD4680BD80B584B000AFF860C7E90023B9
S32D000107C0D7E90623D7E9000141F0A4F902460B46F968C1E90023FB68D3E90023F968C1E90223F9684FF00002B7
S32D000107E84FF00003C1E90423FB684FF00002DA62FB680A4A1A62FB68094A5A62FB68074A9A62F9684FF00002F8
S32D000108104FF00003C1E90C23FB6818461037BD4680BD00BFACC5273795BFD633000000002DE9B04F86B000AF71
S32D00010838F860C7E90023D7E90E23D7E9000141F065F902460B46F968C1E90023FB68D3E904ABFB68D3E9000170
S32D00010860D7E9102341F00EFB02460B465046594641F052F902460B46F968C1E904236AA3D3E90023D7E910016A
S32D0001088841F06EFD0346002B04D065A3D3E90023C7E91023FB68D3E900014FF000024FF0000341F07BFD0346FE
S32D000108B0002B0BD0FB68D3E902014FF000024FF0000341F051FD0346002B27D1FB68D3E900014FF000024FF0E3
S32D000108D8000341F045FD0346002B0BD0FB68D3E902014FF000024FF0000341F057FD0346002B0FD1FB68D3E98F
S32D000109000023904623F0004949A3D3E900234046494641F029FD0346002B06D0F9684FF000024FF00003C1E964
S32D000109280423FB68D3E90C01D7E9002341F0EEF802460B46144623F000453BA3D3E900232046294641F020FD28
S32D000109500346002B06D0F9684FF000024FF00003C1E904234FF00002334BC7E90423FB68D3E9042310461946E8
S32D0001097841F07CFD03462F4A2F491846FFF7F9FE0346184641F022FA02460B46F968C1E90423FB68D3E9000142
S32D000109A0FB68D3E9022341F0B5F802460B4610461946D7E9102341F08FFB02460B46F968C1E90623FB68D3E91E
S32D000109C80023F968C1E90223FB68DB6A184641F0FDF904460D46FB681B6A184641F0F6F9FB68D3E9002341F00A
S32D000109F049FA02460B462046294641F08DF802460B461046194641F035FD0246FB68DA62F968D7E90023C1E9EB
S32D00010A180C23FB68DB6A18461837BD46BDE8B08FFCA9F1D24D62503F9A9999999999B93F0000494000004842FC
S32D00010A40000048C280B485B000AFF860B9607A603B60FB68BA681A62FB687A685A62FB683A689A6200BF143772
S32D00010A68BD4680BC7047000080B582B000AF786009480DF0A8F9042107480DF0AFF9022105480DF0D2F978685B
S32D00010A902DF070F80346194601480DF04FFCEEE7D41A002080B582B000AF7860084611461A460346FB700B469E
S32D00010AB8BB7013467B707B682B4A1A607B682B4A5A607B682A4A9A607B682A4ADA607B68294A1A617B681433DF
S32D00010AE0FA78114618460CF0F7F97B681533BA78114618460CF0F0F97B6816337A78114618460CF0E9F97B6849
S32D00010B0800225A627B6800229A627B68002283F82C207B68002283F82D207B6801225A637B6800229A637B689E
S32D00010B300022DA637B6800221A647B6800225A647B68002283F82E207B6803229A647B684FF000029A617B681B
S32D00010B584FF00002DA617B684FF000021A627B6818460837BD4680BDD7A3304033335340E8B401BDE742523D9D
S32D00010B80FD1BA1BC80B483B000AF786039607A683B68134018460C37BD4680BC704780B483B000AF7860396054
S32D00010BA87A683B68134318460C37BD4680BC704780B483B000AF78607B68DB4318460C37BD4680BC704780B5F1
S32D00010BD082B000AF786039607B681B6839681846FFF7DDFF02467B681A607B6818460837BD4680BD80B582B0A1
S32D00010BF800AF786039607B681B6839681846FFF7BDFF02467B681A607B6818460837BD4680BD90B587B000AF07
S32D00010C20F860B9607A60FB68DB687B61FB6803F10C047868FFF7C0FF034619462046FFF7D9FFFB6803F10C0499
S32D00010C487968B868FFF79AFF034619462046FFF7BAFF7B6918461C37BD4690BD80B582B000AF78604FF4827226
S32D00010C7004217868FFF7D1FF7B6818460837BD4680BD80B483B000AF78607B6818460C37BD4680BC7047000062
S32D00010C9880B582B000AF786039607B68012B0CD13B684FF6FF72934207D106480FF0B4FA054A064903480EF0D2
S32D00010CC07BFF00BF0837BD4680BD00BFE8170020000000204102020080B500AF4FF6FF710120FFF7D9FF80BD45
S32D00010CE880B586B002AF786039603A23FB60386841F06CF802460B467868CDE90023044B3A22044900F062F8CF
S32D00010D1078681037BD4680BD005B0600CDC4050090B583B000AF786039600BF087FC0346184641F0A5FC03467E
S32D00010D387968184641F0EEFB0346012214461946386841F099FE0346002B01D100231C46E3B218460C37BD46A2
S32D00010D6090BD000080B582B000AF7860064A7B681A607B68043318462CF0A6FB7B6818460837BD4680BD00BFC8
S32D00010D88845B060080B582B000AF7860064A7B681A607B68043318462CF0C4FB7B6818460837BD4680BD00BFEA
S32D00010DB0845B060080B582B000AF78607868FFF7E5FF1C2178680EF07BFF7B6818460837BD4680BD08B490B531
S32D00010DD888B000AFF860B9607A607B680733DB08DB00ADEB030D6B460733DB08DB00FB6107F130033B61BC6847
S32D00010E003B69FA6A7968F869A047B861BB69FA69D41807F1140318460FF024F807F114032246F969F86800F055
S32D00010E283BF807F1140318460FF01AF8F8682037BD46BDE8904001B0704780B584B000AFF860B9607A60BA68CE
S32D00010E50002178682CF06EFD0346184600F03BF803461946F8682CF041FBF8681037BD4680BD80B584B000AFC2
S32D00010E78F860B9607A607968B8682CF0A5FD0346184600F024F803461946F8682CF02AFBF8681037BD4680BD5E
S32D00010EA090B585B000AFF860B9607A603B60FC68F8682CF0FDF903463A68194620462CF07BFE7A68B968F86896
S32D00010EC800F00FF8FB6818461437BD4690BD80B483B000AF78607B6818460C37BD4680BC704780B584B000AF28
S32D00010EF0F860B9607A607A68B968F86800F004F800BF1037BD4680BD90B587B000AFF860B9607A603B70234669
S32D00010F187A68B968F86800F005F800BF1C37BD4690BD000080B586B000AFF860B9607A603B70B86800F03EF8A2
S32D00010F400346002B05D0BA687B689A4201D0012300E00023002B02D0174821F06BF87968B86800F03AF8034624
S32D00010F687B617B690F2B10D907F1140300221946F8682CF0A3F903461946F8682CF090F97B691946F8682CF063
S32D00010F9091F9F8682CF08AF903467A68B96818462CF0DCF97B691946F8682CF085F900BF1837BD4680BD00BFC4
S32D00010FB8505B060080B483B000AF78607B68002B0CBF01230023DBB218460C37BD4680BC7047B0B582B000AFE1
S32D00010FE0786039607C683B1D184600F00AF82A463968204600F00FF8034618460837BD46B0BD80B483B000AF0B
S32D00011008786000BF18460C37BD4680BC704780B485B000AFF860B9603A71BA68FB68D31A18461437BD4680BCFD
S32D00011030704790B587B000AF786039603B68DB0FFB75FB7D002B02D03B685B4200E03B683B610A21386900F0B1
S32D00011058F7FBF860FA7DFB68D41807F1080318460EF0FCFE07F108032D22214678682CF02FFA07F108031846C1
S32D000110800EF0F2FEFB7D194678682CF0F3FA03463A69F968184600F015FC00BF78681C37BD4690BD80B483B03E
S32D000110A800AF7860012318460C37BD4680BC704790B585B000AF786039607B681846FFF74DFE174A7B681A60FD
S32D000110D07B683A68DA617B6803F12C0407F10C0318460EF0BFFE07F10C031A460F4920462CF0AAFD07F10C031B
S32D000110F818460EF0B5FE0BF09DFA0346184641F0BBFA02467B681A627B68002283F829207B6800225A627B6887
S32D0001112018461437BD4690BD005D0600B85B060080B582B000AF78607B68D8694FF000034FF000024FF0000156
S32D0001114805F0B0FA0BF076FA0346184641F094FA02467B681A627B6800225A627B68DB69184606F0E5F900BF88
S32D000111700837BD4680BD000090B5ADF5577D00AF07F55673A3F55573186007F55673A3F555731B6803F12C0101
S32D0001119807F52B73DF4A184600F0E6FB07F55673A3F555731B685A6A07F5317311461846FFF73BFF07F52573B1
S32D000111C007F5317207F52B71184600F0E4FB07F5317318462CF0AAF907F52B7318462CF0A5F907F5257318463B
S32D000111E82CF0C4FC014600230022CB480CF044FE0BF020FA0346184641F03EFA024607F55673A3F555731B680A
S32D000112101B6A1946104641F081F90346C7F8543307F53D73D7F854131846FFF75DFD07F5377307F53D72BB4956
S32D000112381846FFF702FE07F51F7307F53771B84A1846FFF712FE07F5377318462CF06AF907F53D7318462CF0F2
S32D0001126065F907F51F7318462CF084FC01461E230022AB480CF004FE07F5D67318462BF075FD07F5D67308332E
S32D00011288A84918462AF0B6FF0346A74918462AF0E9FD04460220FFF7F0FC0346194620462AF06AFE044607F55E
S32D000112B05673A3F555731B68DB69184605F0D0F903461B68194620462BF05CF80346994918462AF093FF034685
S32D000112D8954918462AF0C6FD04460220FFF7CDFC0346194620462AF047FE044607F55673A3F555731B68DB6900
S32D00011300184605F0ADF9034604331B68194620462BF038F80346874918462AF06FFF0346834918462AF0A2FD87
S32D0001132804460220FFF7A9FC0346194620462AF023FE044607F55673A3F555731B68DB69184605F089F90346F2
S32D0001135008331B68194620462BF014F80346764918462AF04BFF07F5437307F5D672114618462BF063FD07F5D8
S32D0001137843713C23002268480CF0A1FD07F5437318462CF0CFF807F1DC0318462BF0EAFC07F1DC0308336749DC
S32D000113A018462AF02BFF0346614918462AF05EFD04460220FFF765FC0346194620462AF0DFFD044607F55673E0
S32D000113C8A3F555731B68DB69184605F052F903461B68194620462AF0D1FF0346534918462AF008FF0346504970
S32D000113F018462AF03BFD04460220FFF742FC0346194620462AF0BCFD044607F55673A3F555731B68DB69184609
S32D0001141805F02FF9034604331B68194620462AF0ADFF0346414918462AF0E4FE03463E4918462AF017FD044627
S32D000114400220FFF71EFC0346194620462AF098FD044607F55673A3F555731B68DB69184605F00BF9034608337D
S32D000114681B68194620462AF089FF0346304918462AF0C0FE07F5497307F1DC02114618462BF0D8FC07F549718B
S32D000114904B23002222480CF016FD07F5497318462CF044F807F10C0318462BF05FFC07F10C03083322491846D0
S32D000114B82AF0A0FE03461C4918462AF0D3FC04460220FFF7DAFB0346194620462AF054FD044607F55673A3F501
S32D000114E055731B68DB69184605F0D3F803461B68194620462AF046FF03460E4918462AF07DFE03460A491846B3
S32D000115082AF0B0FC04460220FFF7B7FB03461946204613E0C45B0600D41A0020D05B0600DC5B0600E05B0600F7
S32D00011530650C0100E85B0600EC5B0600F05B0600F85B06002AF01CFD044607F55673A3F555731B68DB69184613
S32D0001155805F09BF8034604331B68194620462AF00DFF03469B4918462AF044FE03469A4918462AF077FC0446A6
S32D000115800220FFF77EFB0346194620462AF0F8FC044607F55673A3F555731B68DB69184605F077F80346083313
S32D000115A81B68194620462AF0E9FE03468B4918462AF020FE07F54F7307F10C02114618462BF038FC07F54F7194
S32D000115D05A23002284480CF076FC07F54F7318462BF0A4FF07F55673A3F555731B685B6A002B02D0012B5FD074
S32D000115F8BDE007F55673A3F555731B68D8694FF00003784A4FF0000105F073F807F55673A3F555731B68DB69AE
S32D000116207349184605F0D8FD07F55673A3F555731B68DB69184605F0B1FE0346002B0CD107F55673A3F5557353
S32D000116481B681B6A69491846FFF766FB0346002B01D0012300E00023002B00F09A8007F55673A3F555731B68BB
S32D00011670D8694FF000034FF000024FF0000104F0DFFD0AF0DBFF0346184640F0F9FF024607F55673A3F5557367
S32D000116981B681A6207F55673A3F555731B685B6A5A1C07F55673A3F555731B685A6270E007F55673A3F5557368
S32D000116C01B68D8694FF000034FF000024FF0000105F013F807F55673A3F555731B68DB694349184605F078FD34
S32D000116E807F55673A3F555731B68DB69184605F051FE0346002B0CD107F55673A3F555731B681B6A39491846E7
S32D00011710FFF706FB0346002B01D0012300E00023002B3CD007F55673A3F555731B68D8694FF000034FF00002A4
S32D000117384FF0000104F080FD0AF07CFF0346184640F09AFF024607F55673A3F555731B681A6207F55673A3F523
S32D0001176055731B685B6A5A1C07F55673A3F555731B685A6213E007F55673A3F555731B68DB69184604F0F2FE4F
S32D0001178807F55673A3F555731B68012283F8292002E000BF00E000BF07F10C0318462AF091FF07F1DC0318461F
S32D000117B02AF08CFF07F5D67318462AF087FF07F51F7318462BF0B2FE07F5257318462BF0ADFE00BF07F557772A
S32D000117D8BD4690BDE85B0600650C0100EC5B0600D41A0020000040C09A99193F0000FA4380B483B000AF7860C6
S32D000118007B6893F8293018460C37BD4680BC704780B483B000AF78607B68012283F8292000BF0C37BD4680BC62
S32D00011828704780B582B000AF786039603B682C33194678682CF0BEF978680837BD4680BD80B487B000AF7860EE
S32D00011850396001237B613B6803FB03F33B613A683B6902FB03F3FB603A68FB6802FB03F3BB603B687A689A4295
S32D0001187801D27B691DE07A683B699A4202D27B69013316E07A68FB689A4202D27B6902330FE07A68BB689A426B
S32D000118A002D27B69033308E07A68BB68B2FBF3F37B607B6904337B61DBE718461C37BD4680BC704780B489B003
S32D000118C800AFF860B9607A60BB68013BFB617B68632B25D97A68224BA3FB02135B09642101FB03F3D31A5B00A8
S32D000118F0BB617B681C4AA2FB03235B097B60BB695A1CF968FB690B4418498A5C1A70FB69013BFA68134415492C
S32D00011918BA690A4412781A70FB69023BFB61D6E77B68092B10D97B685B007B617B695A1CFB6801330B498A5C1C
S32D000119401A700A4A7B6913441A78FB681A7005E07B68DBB23033DAB2FB681A7000BF2437BD4680BC704700BFE0
S32D000119681F85EB512C5C060080B584B000AFF860B9607A60B968F8682CF01CF97968F8682CF022F800BFF86837
S32D000119901037BD4680BD90B58BB000AFF860B9607A60002387F8273007F114031846FFF779FB0346002B03D010
S32D000119B8012387F8273024E007F11803B96818462CF0D6F807F11C03796818462CF0D0F807F11C0207F1180323
S32D000119E01146184600F052F803461C4607F11C0318460EF039FA07F1180318460EF034FA002C02D0012387F85A
S32D00011A08273097F82730002B2BD0B8682BF0DCFD044678682BF0D8FD034623443B62B8682BF0D6FD02463B6AD6
S32D00011A30934208D978682BF0CFFD02463B6A934201D8012300E00023002B0ED0BA68002178682BF057FF034662
S32D00011A581846FFF73CFA03461946F8682BF042FD0CE07968B8682BF0A9FF03461846FFF72EFA03461946F868F6
S32D00011A802BF034FDF8682C37BD4690BD80B483B000AF78603960012318460C37BD4680BC7047000080B582B02F
S32D00011AA800AF7860084A7B681A607B682C3318462BF038FD7B681846FFF764F97B6818460837BD4680BD00BFD6
S32D00011AD0005D060080B582B000AF78607868FFF7E1FF442178680EF0EBF87B6818460837BD4680BD90B585B080
S32D00011AF800AF786039607B681846FFF72FF9174A7B681A607B683A68DA617B6803F12C0407F10C0318460EF058
S32D00011B20A1F907F10C031A460F4920462CF08CF807F10C0318460EF097F90AF07FFD0346184640F09DFD024615
S32D00011B487B681A627B68002283F829207B6800225A627B6818461437BD4690BDD45D06003C5D060080B582B06C
S32D00011B7000AF78600AF062FD0346184640F080FD02467B681A627B6800225A627B68D8694FF00003064A0749A4
S32D00011B9804F088FD7B68DB69184605F0C9FC00BF0837BD4680BD00BF000010410000E0C090B5ADF54B7D00AF1A
S32D00011BC007F54A73A3F54973186007F54A73A3F549731B685B6A1A46DF4BD41807F52A7318460EF03FF907F57D
S32D00011BE82A7207F52473214618462CF029F807F52A7318460EF034F907F5247318462BF0B5FF0146002300222F
S32D00011C10D2480CF035F90AF011FD0346184640F02FFD024607F54A73A3F549731B681B6A1946104640F072FCA6
S32D00011C380346C7F8243307F53173D7F824131846FFF74EF807F52B7307F53172C2491846FFF7F3F807F51E73CE
S32D00011C6007F52B71BF4A1846FFF703F907F52B7318462BF05BFC07F5317318462BF056FC07F51E7318462BF089
S32D00011C8875FF01461E230022B2480CF0F5F807F5D47318462BF066F807F5D4730833B04918462AF0A7FA034639
S32D00011CB0AE4918462AF0DAF804460220FEF7E1FF0346194620462AF05BF9044607F54A73A3F549731B68DB69E9
S32D00011CD8184604F0C1FC03461B68194620462AF04DFB0346A04918462AF084FA03469D4918462AF0B7F8044613
S32D00011D000220FEF7BEFF0346194620462AF038F9044607F54A73A3F549731B68DB69184604F09EFC03460433FD
S32D00011D281B68194620462AF029FB03468E4918462AF060FA03468B4918462AF093F804460220FEF79AFF0346B1
S32D00011D50194620462AF014F9044607F54A73A3F549731B68DB69184604F07AFC034608331B68194620462AF0AC
S32D00011D7805FB03467D4918462AF03CFA07F5377307F5D472114618462BF054F807F537713C2300226F480CF0A3
S32D00011DA092F807F5377318462BF0C0FB07F1D80318462AF0DBFF07F1D80308336E4918462AF01CFA034669493D
S32D00011DC818462AF04FF804460220FEF756FF0346194620462AF0D0F8044607F54A73A3F549731B68DB6918460B
S32D00011DF004F043FC03461B68194620462AF0C2FA03465B4918462AF0F9F90346574918462AF02CF804460220E2
S32D00011E18FEF733FF0346194620462AF0ADF8044607F54A73A3F549731B68DB69184604F020FC034604331B6818
S32D00011E40194620462AF09EFA0346494918462AF0D5F90346454918462AF008F804460220FEF70FFF0346194675
S32D00011E6820462AF089F8044607F54A73A3F549731B68DB69184604F0FCFB034608331B68194620462AF07AFA89
S32D00011E900346384918462AF0B1F907F53D7307F1D802114618462AF0C9FF07F53D714B2300222A480CF007F87B
S32D00011EB807F53D7318462BF035FB07F1080318462AF050FF07F1080308332A4918462AF091F903462349184616
S32D00011EE029F0C4FF04460220FEF7CBFE0346194620462AF045F8044607F54A73A3F549731B68DB69184604F0F8
S32D00011F08C4FB03461B68194620462AF037FA0346154918462AF06EF903461249184629F0A1FF04460220FEF76D
S32D00011F30A8FE0346194620462AF022F8044607F54A73A3F549731B68DB69184604F0A1FB0346043314E000BF5B
S32D00011F58505D0600D41A0020705D06007C5D0600805D0600650C0100885D06008C5D0600905D0600985D0600CA
S32D00011F801B68194620462AF0FDF90346AF4918462AF034F90346AE49184629F067FF04460220FEF76EFE0346C1
S32D00011FA81946204629F0E8FF044607F54A73A3F549731B68DB69184604F067FB034608331B68194620462AF08D
S32D00011FD0D9F903469F4918462AF010F907F5437307F10802114618462AF028FF07F543715A23002298480BF08A
S32D00011FF866FF07F5437318462BF094FA07F54A73A3F549731B685B6A092B00F2A48301A252F823F04520010094
S32D00012020F7200100952101008522010023230100D723010077240100292501000B260100A926010007F54A7332
S32D00012048A3F549731B68D8694FF03F434FF000024FF0000104F0F0F807F54A73A3F549731B68DB69184604F00D
S32D0001207009F907F54A73A3F549731B681B6A77491846FEF74DFE0346002B00F07A8307F54A73A3F549731B68DB
S32D00012098D8694FF000034FF000024FF0000104F0CBF807F54A73A3F549731B68D8696A4B6A4A6B4904F0F6FA8C
S32D000120C00AF0BCFA0346184640F0DAFA024607F54A73A3F549731B681A6207F54A73A3F549731B685B6A5A1C77
S32D000120E807F54A73A3F549731B685A6245E307F54A73A3F549731B68D869574B594A5A4904F0F7FA07F54A73FE
S32D00012110A3F549731B68DB695649184604F0B8FE07F54A73A3F549731B68DB69184605F03AFA0346002B0CD132
S32D0001213807F54A73A3F549731B681B6A4C491846FEF7EAFD0346002B01D0012300E00023002B00F014830AF07C
S32D000121606DFA0346184640F08BFA024607F54A73A3F549731B681A6207F54A73A3F549731B685B6A5A1C07F572
S32D000121884A73A3F549731B685A62F8E207F54A73A3F549731B68D8692F4B324A354904F0A8FA07F54A73A3F5D2
S32D000121B049731B68DB692F49184604F069FE07F54A73A3F549731B68DB69184605F0EBF90346002B0CD107F5F4
S32D000121D84A73A3F549731B681B6A27491846FEF79BFD0346002B01D0012300E00023002B00F0C78207F54A73DB
S32D00012200A3F549731B68D869154B184A4FF0000104F04CFA0AF012FA0346184640F030FA024607F54A73A3F5BB
S32D0001222849731B681A6207F54A73A3F549731B685B6A5A1C07F54A73A3F549731B685A629FE200BF885D06008A
S32D00012250650C01008C5D0600D41A002000007A440000B4C2000010410000E0C00000A040000080C0CDCCCC3E08
S32D000122780000FA440000C84100401C4507F54A73A3F549731B68D869BD4BBE4ABE4904F030FA07F54A73A3F5F8
S32D000122A049731B68DB69BB49184604F0F1FD07F54A73A3F549731B68DB69184605F073F90346002B0CD107F568
S32D000122C84A73A3F549731B681B6AB1491846FEF723FD0346002B01D0012300E00023002B00F051820AF0A6F96E
S32D000122F00346184640F0C4F9024607F54A73A3F549731B681A6207F54A73A3F549731B685B6A5A1C07F54A7353
S32D00012318A3F549731B685A6235E207F54A73A3F549731B68D8694FF07C534FF000024FF0000103F081FF07F51D
S32D000123404A73A3F549731B68DB69184603F09AFF07F54A73A3F549731B681B6A8F491846FEF7DEFC0346002B1E
S32D0001236800F0138207F54A73A3F549731B68D8694FF000034FF000024FF0000103F05CFF07F54A73A3F54973D2
S32D000123901B68D8694FF000037C4A7D4904F086F90AF04CF90346184640F06AF9024607F54A73A3F549731B68C8
S32D000123B81A6207F54A73A3F549731B685B6A5A1C07F54A73A3F549731B685A62DDE107F54A73A3F549731B6815
S32D000123E0D869694B6E4A4FF0804104F086F907F54A73A3F549731B68DB696649184604F047FD07F54A73A3F544
S32D0001240849731B68DB69184605F0C9F80346002B0CD107F54A73A3F549731B681B6A5F491846FEF779FC0346EF
S32D00012430002B01D0012300E00023002B00F0AB810AF0FCF80346184640F01AF9024607F54A73A3F549731B6863
S32D000124581A6207F54A73A3F549731B685B6A5A1C07F54A73A3F549731B685A628FE107F54A73A3F549731B68C2
S32D00012480D8694FF03F434FF000024FF0000103F0D7FE07F54A73A3F549731B68DB69184603F0F0FE07F54A7316
S32D000124A8A3F549731B681B6A3D491846FEF734FC0346002B00F06D8107F54A73A3F549731B68D8694FF000033B
S32D000124D04FF000024FF0000103F0B2FE07F54A73A3F549731B68D869274B304A274904F0DDF80AF0A3F80346E5
S32D000124F8184640F0C1F8024607F54A73A3F549731B681A6207F54A73A3F549731B685B6A5A1C07F54A73A3F5FE
S32D0001252049731B685A6238E107F54A73A3F549731B68D869144B1D4A1C4904F0DEF807F54A73A3F549731B6822
S32D00012548DB691249184604F09FFC07F54A73A3F549731B68DB69184605F021F80346002B0CD107F54A73A3F5F6
S32D0001257049731B681B6A0E491846FEF7D1FB0346002B17D0012316E00000B4C20000A040000080BFCDCCCC3E55
S32D000125980000FA4400408344000070420020CB4500007A440000C841000096440023002B00F0F18007F54A73E4
S32D000125C0A3F549731B68D869864B874A4FF0000104F06CF80AF032F80346184640F050F8024607F54A73A3F5BE
S32D000125E849731B681A6207F54A73A3F549731B685B6A5A1C07F54A73A3F549731B685A62C9E007F54A73A3F5F8
S32D0001261049731B68D869734B734A744904F06DF807F54A73A3F549731B68DB697049184604F02EFC07F54A73C8
S32D00012638A3F549731B68DB69184604F0B0FF0346002B0CD107F54A73A3F549731B681B6A66491846FEF760FB94
S32D000126600346002B01D0012300E00023002B00F0988009F0E3FF0346184640F001F8024607F54A73A3F54973AC
S32D000126881B681A6207F54A73A3F549731B685B6A5A1C07F54A73A3F549731B685A627CE007F54A73A3F54973A4
S32D000126B01B68D8694B4B504A504904F01EF807F54A73A3F549731B68DB694949184604F0DFFB07F54A73A3F581
S32D000126D849731B68DB69184604F061FF0346002B0CD107F54A73A3F549731B681B6A42491846FEF711FB034605
S32D00012700002B01D0012300E00023002B4BD009F095FF034618463FF0B3FF024607F54A73A3F549731B681A62D8
S32D0001272807F54A73A3F549731B68D8692B4B4FF000024FF0000103F0B5FF07F54A73A3F549731B685B6A5A1C48
S32D0001275007F54A73A3F549731B685A6223E007F54A73A3F549731B68DB69184603F0FEFE07F54A73A3F54973DD
S32D000127781B68012283F8292012E000BF10E000BF0EE000BF0CE000BF0AE000BF08E000BF06E000BF04E000BF78
S32D000127A002E000BF00E000BF07F10803184629F08DFF07F1D803184629F088FF07F5D473184629F083FF07F5BB
S32D000127C81E7318462AF0AEFE07F5247318462AF0A9FE00BF07F54B77BD4690BD0000B4C20000C841000080BFF0
S32D000127F0CDCCCC3E0000484400000C420000A04000803B4580B483B000AF78607B6893F8293018460C37BD4604
S32D0001281880BC704780B483B000AF78607B68012283F8292000BF0C37BD4680BC704780B582B000AF7860396067
S32D000128403B682C33194678682BF0B8F978680837BD4680BD80B582B000AF7860084A7B681A607B682C331846C0
S32D000128682AF060FE7B681846FEF78CFA7B6818460837BD4680BD00BFD45D060080B582B000AF78607868FFF793
S32D00012890E1FF442178680DF013FA7B6818460837BD4680BD90B587B000AFF860B9607A603B60FB681846FEF763
S32D000128B855FA1A4AFB681A60FB68BA68DA61FB687A681A62FB683A685A62FB6803F1340407F1140318460DF026
S32D000128E0C1FA07F114031A460F4920462BF0ACF907F1140318460DF0B7FA09F09FFE034618463FF0BDFE024697
S32D00012908FB689A62FB68002283F83120FB680022DA62FB6818461C37BD4690BDA05E0600185E060080B582B0E4
S32D0001293000AF786009F082FE034618463FF0A0FE02467B689A627B680022DA627B68D869074B4FF00002074995
