S01100002E2E2F50726F746575732E73313966
S32D0000C000000000205DC2000011C3000017C300001DC3000023C3000029C3000000000000000000000000000073
S32D0000C028000000002FC3000035C30000000000003BC3000041C30000811701008D17010099170100A517010052
S32D0000C050B1170100BD170100C9170100D5170100E1170100ED170100F917010005180100111801001D180100C9
S32D0000C0782918010035180100411801004D1801005918010065180100711801007D1801008918010095180100EA
S32D0000C0A0A1180100AD180100B9180100C5180100D1180100DD180100E9180100F5180100011901000D19010010
S32D0000C0C81919010025190100311901003D1901004919010055190100611901006D190100791901008519010030
S32D0000C0F091190100AD6501009D190100A9190100B5190100C1190100CD190100D9190100E5190100F11901005C
S32D0000C118FD190100091A0100151A0100211A01002D1A0100391A0100451A0100511A01005D1A0100691A0100EE
S32D0000C140751A0100811A01008D1A0100991A0100D9420100A51A0100B11A0100BD1A0100C91A0100D51A0100F5
S32D0000C168E11A0100ED1A0100F91A0100051B0100111B01001D1B0100291B0100351B0100411B01004D1B0100AE
S32D0000C190591B0100651B0100711B0100CD3E0100953D0100313E0100051501006D3F01007D1B0100891B0100A9
S32D0000C1B8951B01002869060000000020C8170000286906000000FF1F00000000C8170020D81A00000000FF1F4E
S32D0000C1E00000000080B489B000AFF860B9607A60BB68FB61FB68BB6100237B617A697B689A420BD2BA69131DFB
S32D0000C208BB61FB69191DF96112681A607B6904337B61EFE700BF2437BD4680BC704780B485B000AF786039609E
S32D0000C2307B68FB600023BB60BA683B689A4208D2FB681A1DFA6000221A60BB680433BB60F2E700BF1437BD46FE
S32D0000C25880BC704780B586B000AF72B6234B4CF220521A80214B4DF628121A80204B4FF4E9721A801F4B7B615F
S32D0000C2807B691F4A934214D27B691A1D7A611B683B617B691A1D7A611B68FB607B691A1D7A611B68BB60BA68E9
S32D0000C2A8F9683869FFF79AFFE6E77B69134A93420ED27B691A1D7A611B68FB607B691A1D7A611B68BB60B9688B
S32D0000C2D0F868FFF7A8FFECE70B4B7B600B4A7B681A603FF067FC62B605F0D4F900F044F9FEE700BF0E200540DD
S32D0000C2F800200540BCC10000D4C10000E4C1000008ED00E000C0000080B400AFFEE780B400AFFEE780B400AFF4
S32D0000C320FEE780B400AFFEE780B400AFFEE780B400AFFEE780B400AFFEE780B400AFFEE780B400AFFEE780B426
S32D0000C34800AFFEE7FFFFFFFFFFFFFFFFFFFFFFFFFFFFFFFFFFFFFFFFFFFFFFFFFFFFFFFFFFFFFFFFFFFFFFFF57
S32D0000C370FFFFFFFFFFFFFFFFFFFFFFFFFFFFFFFFFFFFFFFFFFFFFFFFFFFFFFFFFFFFFFFFFFFFFFFFFFFFFFFFC7
S32D0000C398FFFFFFFFFFFFFFFFFFFFFFFFFFFFFFFFFFFFFFFFFFFFFFFFFFFFFFFFFFFFFFFFFFFFFFFFFFFFFFFF9F
S32D0000C3C0FFFFFFFFFFFFFFFFFFFFFFFFFFFFFFFFFFFFFFFFFFFFFFFFFFFFFFFFFFFFFFFFFFFFFFFFFFFFFFFF77
S32D0000C3E8FFFFFFFFFFFFFFFFFFFFFFFFFFFFFFFFFFFFFFFFFFFFFFFFFFFFFFFFFFFFFFFFFFFFFFFFFEFFFFFF50
S32D0000C44010B5054C237833B9044B13B10448AFF300800123237010BDC8170020000000005056060008B5034B76
S32D0000C4681BB103490348AFF3008008BD00000000CC170020505606002DE9B0438AB000AFF860B9607A603B60D5
S32D0000C490FA687B68D31A18463CF090FA02460B46C7E90823BA683B68D31A18463CF086FA02460B46C7E9062396
S32D0000C4B8D7E90823D7E908013CF0E6FA02460B4614461D463B6C03FB03F318463CF072FA02460B462046294641
S32D0000C4E03CF000FC02460B4614461D46D7E90623D7E906013CF0CCFA02460B46904699467B6C03FB03F3184687
S32D0000C5083CF058FA02460B46404649463CF0E6FB02460B46204629463CF000F902460B46C7E9042301231C4643
S32D0000C5304FF00002074BD7E904013CF025FD0346002B01D100231C46E3B218462837BD46BDE8B0830000F03F10
S32D0000C55880B582B000AF78607B685C33184626F047FF7B6818460837BD4680BD00000000F0B5ADF6AC1D04AF17
S32D0000C58007F69813A3F517734FF000021A6007F69813A3F517734FF000025A6007F69813A3F517734FF0000238
S32D0000C5A89A60D14BC7F88039002387F87F39012387F87E39032387F87D39002387F87C39022387F87B390423F2
S32D0000C5D087F87A3997F87E4997F87C2997F87F1907F59D60D7F88039039397F87A39029397F87D39019397F804
S32D0000C5F87B390093234603F0C1FF022387F8793997F8791907F59C63B84A184605F0C4FA07F2DC43082118468E
S32D0000C62007F014FD07F59B631521184607F00EFD07F2D4431621184607F008FD07F59A631721184607F002FD2E
S32D0000C64807F2C4430721184607F0F0FF07F2C44340F23A31184608F005F807F2C44340F68601184608F01BF842
S32D0000C67007F59363184602F0E3FF07F69813A3F5137007F59C6307F2C44207F59D6101F055FB07F24C7207F5CD
S32D0000C698E9631146184601F0A8FB07F5E96207F593631146184602F0EBFF07F5E963184601F0B7FB07F24C7314
S32D0000C6C0184601F063FB002387F897398A4BC7F890394FF00003C7F88C394FF00003C7F8883907F591631846FA
S32D0000C6E80CF07CFA07F5ED6318460AF053FA07F5ED6207F5EA637F49184627F0A3F907F5EA6207F214408B2311
S32D0000C7100093FF23002101F099FE07F5EA63184626F06AFE07F5ED6318460AF039FA07F214431E21184602F0C2
S32D0000C7389DF907F2847318460AF02CFA07F2847207F26C736C49184627F07CF907F26C7207F568708B2300937D
S32D0000C760FF23232101F072FE07F26C73184626F043FE07F2847318460AF012FA07F568731E21184602F076F92E
S32D0000C78807F5F46318460AF005FA07F5F46207F5F1635A49184627F055F907F5F16207F54B708B230093FF2368
S32D0000C7B0462101F04BFE07F5F163184626F01CFE07F5F46318460AF0EBF907F54B731E21184602F04FF907F2C3
S32D0000C7D8BC7318460AF0DEF907F2BC7207F2A4734749184627F02EF907F2A47207F52E708B230093FF236921DC
S32D0000C80001F024FE07F2A473184626F0F5FD07F2BC7318460AF0C4F907F52E731E21184602F028F90123C7F814
S32D0000C828743907F59D63184604F09AFB354808F086FB344808F038FF002387F88739324B1B78002B62D197F852
S32D0000C8508739002B5ED107F56873184601F094FF07F21443184601F08FFF07F54B73184601F08AFF07F52E738B
S32D0000C878184601F085FF07F56873184602F0E1F80346002B05D0204B02221A70012387F8873907F2144318464C
S32D0000C8A002F0D3F80346002B05D0194B01221A70012387F8873907F54B73184602F0C5F80346002B05D0124B83
S32D0000C8C803221A70012387F8873907F52E73184602F0B7F80346002BB1D00B4B04221A70012387F88739AAE7A5
S32D0000C8F00000C040000090409A99193F04C505000CC5050018C5050024C50500C81A0020E517002007F6981385
S32D0000C918A3F51773196807F69813A3F517735A6807F69813A3F517739B6807F59D6003F06FFF324808F003FB2B
S32D0000C940304808F0B5FE002387F8863997F88639002B41F0E08107F59D63184604F0EDFA294B1B78012B55D1AC
S32D0000C96807F082F8034618463CF076FC0346C7F8283907F59D630121184604F05DFAD223002220491D4808F0DE
S32D0000C99033FBE1230022D7F828191A4808F064FBB42300221A49174808F026FB07F69813A3F5EC7307F59362F8
S32D0000C9B81146184602F0EEFE07F5F861C32300220E4808F038FB07F5F863184626F010FD07F59363184602F0C6
S32D0000C9E067FE07F59363184602F0E7FE0346002BACD0012387F8863907F59D63184604F053F8A3E7C81A002026
S32D0000CA08E517002034C5050044C50500E04B1B78032B40F0C983DF4BC7F8403907F5FE6318460AF0B7F807F5AE
S32D0000CA30FE6207F5FB63DA49184627F007F807F5FB6338464FF4C84201924FF47F0200924FF00002D34901F02B
S32D0000CA58AFFD07F5FB63184626F0CAFC07F5FE6318460AF099F83B461E21184601F0FEFF3B46184601F084FECC
S32D0000CA8007F60C0318460AF089F807F60C0207F2F473C549184626F0D9FF07F2F47307F174004FF4C842019232
S32D0000CAA84FF400420092BF4ABC4901F081FD07F2F473184626F09CFC07F60C0318460AF06BF807F174031E21EB
S32D0000CAD0184601F0CFFF07F17403184601F054FE07F6280318460AF059F807F6280207F50163AF49184626F047
S32D0000CAF8A9FF07F5016307F1E8004FF4C84201924FF6FF720092A94AA44901F051FD07F50163184626F06CFCA5
S32D0000CB2007F6280318460AF03BF807F1E8031E21184601F09FFF07F1E803184601F024FE9849D7F840093CF0AC
S32D0000CB48DBFA03461C4607F6440318460AF022F807F6440207F62C039549184626F072FF07F62C0307F5AE7011
S32D0000CB704FF40B0201924FF47F0200924FF00002214601F019FD07F62C03184626F034FC07F6440318460AF043
S32D0000CB9803F807F5AE731E21184601F067FF07F5AE73184601F0ECFD7C49D7F840093CF0A3FA03461C4607F5C1
S32D0000CBC00663184609F0EAFF07F5066207F648037A49184626F03AFF07F6480307F5E8704FF40B0201924FF4C0
S32D0000CBE8004200926F4A214601F0E2FC07F64803184626F0FDFB07F50663184609F0CCFF07F5E8731E2118462D
S32D0000CC1001F030FF07F5E873184601F0B5FD6149D7F840093CF06CFA03461C4607F67C03184609F0B3FF07F6FD
S32D0000CC387C0207F664036049184626F003FF07F6640307F511704FF40B0201924FF6FF720092564A214601F0C9
S32D0000CC60ABFC07F66403184626F0C6FB07F67C03184609F095FF07F511731E21184601F0F9FE07F5117318461C
S32D0000CC8801F07EFD3B46184601F0DBFE0346002B11D0D7F890093BF09FFE39A3D3E900233BF03CFD02460B462C
S32D0000CCB0104619463CF0CEF90346C7F8903907F5AE73184601F0C1FE0346002B11D0D7F890093BF085FE2CA378
S32D0000CCD8D3E900233BF020FD02460B46104619463CF0B4F90346C7F8903907F17403184601F0A7FE0346002B38
S32D0000CD0011D0D7F88C093BF06BFE21A3D3E900233BF008FD02460B46104619463CF09AF90346C7F88C3907F583
S32D0000CD28E873184601F08DFE0346002B11D0D7F88C093BF051FE14A3D3E900233BF0ECFC02460B46104619467E
S32D0000CD503CF080F90346C7F88C3907F1E803184601F073FE0346002B33D0D7F888093BF037FE07A3D3E90023E0
S32D0000CD783BF0D4FC02460B4620E000BFAFF300809A9999999999B93FFCA9F1D24D62503FE517002000005C4328
S32D0000CDA058C505000000704160C5050000000C4268C5050000008C4270C5050078C5050080C50500104619469F
S32D0000CDC83CF044F90346C7F8883907F51173184601F037FE0346002B11D0D7F888093BF0FBFDCDA3D3E90023E0
S32D0000CDF03BF096FC02460B46104619463CF02AF90346C7F8883907F59D60D7F888390093D7F88C39D7F89029BA
S32D0000CE18012104F05DF807F59D60D7F888390093D7F88C39D7F89029022104F051F807F59D60D7F888390093CD
S32D0000CE40D7F88C39D7F89029032104F045F8B4236422B549B54808F0CFF8B4237822D7F89019B24808F000F968
S32D0000CE68C8236422B049AF4808F0C2F8C8237822D7F88C19AB4808F0F3F8DC236422AB49A84808F0B5F8DC23AD
S32D0000CE907822D7F88819A54808F0E6F864230022A549A24808F0A8F807F59D63184604F072F8014664232822BE
S32D0000CEB89C4808F0D5F8782300229E49994808F097F807F59D63184603F034FE014678232822944808F0C4F85C
S32D0000CEE08C2300229649914808F086F807F59D63184604F05DF801468C2328228B4808F0B3F8904BC7F83C39BD
S32D0000CF088F4BC7F83839D7F838093CF0D9FB04468C49D7F83C093CF0EFF8034618463CF0CFFB0346224688497C
S32D0000CF307E4808F061F807F69813A3F517731C68D7F838093CF0C0FB05468249D7F83C093CF0D6F803461846AC
S32D0000CF583CF0B6FB03462A462146724808F080F8D7F838093CF0ACFB04467949D7F83C093CF0C2F803461846F4
S32D0000CF803CF0A2FB034622467449684808F034F807F69813A3F517735C68D7F838093CF093FB05466E49D7F84F
S32D0000CFA83C093CF0A9F8034618463CF089FB03462A4621465B4808F053F8684BC7F83439634BC7F8303907F53B
S32D0000CFD09D630121184603F033FF3223C7F82C39FF21524807F0F5FFD7F82C093CF038F90446D7F82C093CF095
S32D0000CFF833F9034600932346D7F83029D7F83419484808F0FFFD07F5926207F294431946444808F0C1F803462D
S32D0000D020002B00F0A18007F69813A3F204531B6818463CF049FB044607F69813A3F5A1631B6818463CF040FBEB
S32D0000D0480546D7F834093CF03BFB0646D7F830093CF036FB0146D7F82C39D7F82C29019200930B463246294653
S32D0000D0702046FFF705FA0346002B7AD007F69813A3F204531B68D7F8341918463CF036F803461C46D7F82C09DF
S32D0000D0983CF0E2F80346194620463CF0E9F9034683F0004207F69813A3F517731A6007F69813A3F5A1631B683F
S32D0000D0C0D7F8301918463CF019F803461C46D7F82C093CF0C5F80346194620463CF0CCF903461A4607F69813A7
S32D0000D0E8A3F517735A6007F69813A3F51773196807F69813A3F517735A6807F69813A3F517739B6807F59D60A1
S32D0000D11003F082FB07F59D63184603F095FB28E0FCA9F1D24D62503F88C50500C81A00208CC5050090C50500F2
S32D0000D13894C505009CC50500A4C5050000001643000034430000B442ACC505000000D2420000F042B8C5050093
S32D0000D160000007430000204307F59D63184603F09BFC07F511731846FFF7EEF907F5E8731846FFF7E9F907F5CC
S32D0000D188AE731846FFF7E4F907F1E8031846FFF7DFF907F174031846FFF7DAF93B461846FFF7D6F9FFF7CEBB5F
S32D0000D1B0D34B1B78042B40F0E1824FF00003C7F85439D04BC7F850394FF00001D7F854093BF096FF034618461A
S32D0000D1D83CF076FA03460022C949CA4807F008FF07F59D63184603F0CFFC03461C68C649D7F854093BF080FF36
S32D0000D200034618463CF060FA034600222146BF4807F02AFFBF49D7F854093BF071FF034618463CF051FA0346A4
S32D0000D2280022BB49B74807F0E3FE07F59D63184603F0AAFC034604331C68B649D7F854093BF05AFF034618468E
S32D0000D2503CF03AFA034600222146AC4807F004FFAF49D7F854093BF04BFF034618463CF02BFA03460022AB49A0
S32D0000D278A44807F0BDFE07F59D63184603F084FC034608331C68A649D7F854093BF034FF034618463CF014FABB
S32D0000D2A0034600222146994807F0DEFE9F49D7F854093BF025FF034618463CF005FA034600229B49914807F086
S32D0000D2C897FE07F59B63184606F0CEFE04469749D7F854093BF010FF034618463CF0F0F903460022214687489C
S32D0000D2F007F0BAFE9049D7F854093BF001FF034618463CF0E1F9034600228C497F4807F073FE07F2D4431846A7
S32D0000D31806F0AAFE04468849D7F854093BF0ECFE034618463CF0CCF9034600222146754807F096FE8149D7F8A2
S32D0000D34054093BF0DDFE034618463CF0BDF9034600227D496D4807F04FFE07F59A63184606F086FE04467949CC
S32D0000D368D7F854093BF0C8FE034618463CF0A8F9034600222146634807F072FE07F69803184609F007FC07F633
S32D0000D390980207F508636E49184626F057FB07F5086207F1E8004FF4C84300934FF40043002101F04BF807F5F3
S32D0000D3B80863184626F01CF807F69803184609F0EBFB07F1E8031E21184601F04FFB07F6B403184609F0DEFBE0
S32D0000D3E007F6B40207F69C035A49184626F02EFB07F69C0207F5AE704FF40B0300934FF47F031E2101F022F8E8
S32D0000D40807F69C03184625F0F3FF07F6B403184609F0C2FB07F5AE731E21184601F026FB07F50D63184609F09E
S32D0000D430B5FB07F50D6207F6B8034749184626F005FB07F6B80207F5E8708B230093FF23B42100F0FBFF07F6CD
S32D0000D458B803184625F0CCFF07F50D63184609F09BFB07F5E8731E21184601F0FFFA07F6EC03184609F08EFBAA
S32D0000D48007F6EC0207F6D4033449184626F0DEFA07F6D40207F511708B230093FF23D22100F0D4FF07F6D403B9
S32D0000D4A8184625F0A5FF07F6EC03184609F074FB07F511731E21184601F0D8FA07F5AE73184601F05DF907F1F3
S32D0000D4D0E803184601F058F907F5E873184601F053F907F51173184601F04EF907F5E873184601F09FFA034613
S32D0000D4F8002B38D030E000BFE51700200000BE42C0C50500C81A0020000070410000F041C8C505000000344272
S32D0000D52000007042D0C50500000096420000B442DCC505000000D24200000243E4C5050000001143000020435F
S32D0000D548ECC5050000002F43F4C5050000C605000CC6050018C6050007F2C4434FF00001184607F0B9F807F508
S32D0000D5701173184601F05EFA0346002B05D007F2C4437849184607F0ABF807F1E803184601F050FA0346002B70
S32D0000D59806D007F59C637249184604F07DFB13E007F5AE73184601F041FA0346002B06D007F59C636B4918461E
S32D0000D5C004F06EFB04E007F59C63184604F026FB674BC7F84C39674BC7F8483907F59D630121184603F02CFC0F
S32D0000D5E83223C7F84439FF21614807F0EEFCD7F844093BF031FE0446D7F844093BF02CFE034600932346D7F895
S32D0000D6104829D7F84C19584808F0F8FA07F5926207F294431946544807F0BAFD0346002B7CD007F69813A3F257
S32D0000D63804531B6818463CF043F8044607F69813A3F5A1631B6818463CF03AF80546D7F84C093CF035F8064644
S32D0000D660D7F848093CF030F80146D7F84439D7F84429019200930B46324629462046FEF7FFFE0346002B56D009
S32D0000D68807F69813A3F204531B68D7F84C1918463BF030FD03461C46D7F844093BF0DCFD0346194620463BF06F
S32D0000D6B0E3FE034683F0004207F69813A3F517731A6007F69813A3F5A1631B68D7F8481918463BF013FD034650
S32D0000D6D81C46D7F844093BF0BFFD0346194620463BF0C6FE03461A4607F69813A3F517735A6007F69813A3F555
S32D0000D7001773196807F69813A3F517735A6807F69813A3F517739B6807F59D6003F07CF807F59D63184603F0EA
S32D0000D7288FF804E007F59D63184603F0B9F907F511731846FEF70CFF07F5E8731846FEF707FF07F5AE73184660
S32D0000D750FEF702FF07F1E8031846FEF7FDFEFFF7F5B800BF000034430000A0420000A0C2000020430000F042D2
S32D0000D778C81A00204FF00003C7F87039C84BC7F86C394FF00001D7F870093BF0B5FC034618463BF095FF03464D
S32D0000D7A00022C249C24807F027FC07F59D63184603F0C4F90446BF49D7F870093BF0A0FC034618463BF080FF4E
S32D0000D7C8034600222146B84807F04AFCB849D7F870093BF091FC034618463BF071FF03460022B449B04807F08A
S32D0000D7F003FC07F59D63184603F0ADF90446B049D7F870093BF07CFC034618463BF05CFF034600222146A648FE
S32D0000D81807F026FCA949D7F870093BF06DFC034618463BF04DFF03460022A5499E4807F0DFFB07F59D63184673
S32D0000D84003F097F90446A149D7F870093BF058FC034618463BF038FF034600222146944807F002FC4FF0000150
S32D0000D868D7F86C093BF048FC034618463BF028FF0346002294498C4807F0BAFB07F59D63184603F02DF9044661
S32D0000D8908849D7F86C093BF033FC034618463BF013FF034600222146814807F0DDFB8249D7F86C093BF024FC53
S32D0000D8B8034618463BF004FF0346002283497A4807F096FB07F59D63184603F016F904467949D7F86C093BF015
S32D0000D8E00FFC034618463BF0EFFE0346002221466F4807F0B9FB7349D7F86C093BF000FC034618463BF0E0FE45
S32D0000D908034600227249684807F072FB07F59D63184603F000F904466A49D7F86C093BF0EBFB034618463BF04D
S32D0000D930CBFE0346002221465D4807F095FB6749D7F86C093BF0DCFB034618463BF0BCFE0346002262495648CC
S32D0000D95807F04EFB07F2DC43184606F085FB04465E49D7F86C093BF0C7FB034618463BF0A7FE0346002221460A
S32D0000D9804B4807F071FB4F4BC7F86839564BC7F86439D7F864093BF097FE04464F49D7F868093BF0ADFB034652
S32D0000D9A818463BF08DFE034622464E493E4807F01FFB07F69813A3F517731C68D7F864093BF07EFE0546454954
S32D0000D9D0D7F868093BF094FB034618463BF074FE03462A462146324807F03EFBD7F864093BF06AFE04463E4981
S32D0000D9F8D7F868093BF080FB034618463BF060FE034622463949284807F0F2FA07F69813A3F517735C68D7F808
S32D0000DA2064093BF051FE05463349D7F868093BF067FB034618463BF047FE03462A4621461B4807F011FB07F6C3
S32D0000DA480813184609F0A6F807F6081207F50F632849184625F0F6FF07F50F6307F5E8708B2201924FF40042BB
S32D0000DA700092144A224900F09FFD07F50F63184625F0BAFC07F60813184609F089F807F5E8731E21184600F036
S32D0000DA98EDFF07F62413184609F07CF82EE000BF0000BE4224C60500C81A0020000070410000F04130C60500DA
S32D0000DAC0000034420000704240C605000000964250C605005CC605006CC605000000B4427CC605000000D24263
S32D0000DAE800003443ACC505000000F042B8C505000000074388C6050000007A4307F6241207F60C13844918469B
S32D0000DB1025F09CFF07F60C1307F511708B2201924FF6FF7200927F4A7F4900F045FD07F60C13184625F060FC68
S32D0000DB3807F62413184609F02FF807F511731E21184600F093FF07F5E873184600F018FE07F51173184600F0E5
S32D0000DB6013FE07F51173184600F064FF0346002B02D0002387F8973907F5E873184600F059FF0346002B05D057
S32D0000DB88012387F89739674807F0D9F997F8972907F59D631146184603F04EF9624BC7F86039624BC7F85C3944
S32D0000DBB03223C7F85839FF215C4807F00AFAD7F858093BF04DFB0446D7F858093BF048FB034600932346D7F844
S32D0000DBD85C29D7F86019534808F014F807F5926207F2944319464F4807F0D6FA0346002B7CD007F69813A3F239
S32D0000DC0004531B6818463BF05FFD044607F69813A3F5A1631B6818463BF056FD0546D7F860093BF051FD064602
S32D0000DC28D7F85C093BF04CFD0146D7F85839D7F85829019200930B46324629462046FEF71BFC0346002B56D0C5
S32D0000DC5007F69813A3F204531B68D7F8601918463BF04CFA03461C46D7F858093BF0F8FA0346194620463BF047
S32D0000DC78FFFB034683F0004207F69813A3F517731A6007F69813A3F5A1631B68D7F85C1918463BF02FFA03463C
S32D0000DCA01C46D7F858093BF0DBFA0346194620463BF0E2FB03461A4607F69813A3F517735A6007F69813A3F541
S32D0000DCC81773196807F69813A3F517735A6807F69813A3F517739B6807F59D6002F098FD07F59D63184602F0FE
S32D0000DCF0ABFD04E007F59D63184602F0D5FE07F511731846FEF728FC07F5E8731846FEF723FCFEF71BBE084B7A
S32D0000DD1800221A70FEF78ABD8CC605000000BE4200007A43C81A0020000020430000F042E51700202DE9F041E7
S32D0000DD4084B000AFF860B9607A603B60B86800F08EF80546786800F094F80646386800F09AF880464C2008F017
S32D0000DD6849FE03461C46434632462946204601F0FBF92146F86800F0A4F8F8681037BD46BDE8F08190B585B053
S32D0000DD9000AF78607B68184600F0A6F8F860FB681B68002B0CD0786800F0ABF80446F86800F0B4F803461B6845
S32D0000DDB81946204600F0B8F8FB6800221A607B6818461437BD4690BD80B584B000AFF860B9607A60FB68B96816
S32D0000DDE07A68184600F0CCF8FB6818461037BD4680BDB0B582B000AF786039607C68386800F0A7F80546386824
S32D0000DE0800F07BF80346184600F0ACF803461A4629462046FFF7D8FF7B6818460837BD46B0BD90B585B000AFEA
S32D0000DE3078607B68184600F0B9F8F860FB681B68002B0CD0786800F0BEF80446F86800F0C7F803461B681946BB
S32D0000DE58204600F0CBF8FB6800221A607B6818461437BD4690BD80B483B000AF78607B6818460C37BD4680BCF7
S32D0000DE80704780B483B000AF78607B6818460C37BD4680BC704780B483B000AF78607B6818460C37BD4680BCA4
S32D0000DEA8704780B582B000AF786039607B683A681146184600F0ABF87B6818460837BD4680BD80B582B000AF6B
S32D0000DED0786039607B6839681846FFF7E6FF7B6818460837BD4680BD80B582B000AF78607B68184600F0A3F87C
S32D0000DEF8034618460837BD4680BD80B582B000AF78607B68184600F0A3F8034618460837BD4680BD80B483B08F
S32D0000DF2000AF78607B6818460C37BD4680BC704780B582B000AF786039603B68002B04D01A6818321268184605
S32D0000DF48904700BF0837BD4680BD80B582B000AF78607B68184600F088F8034618460837BD4680BD80B483B06A
S32D0000DF7000AF78607B6818460C37BD4680BC704790B585B000AFF860B9607A60FC687868FFF7ECFF024607F1A9
S32D0000DF9808031946204600F07DF8FB6818461437BD4690BD80B582B000AF78607B68184600F089F80346184683
S32D0000DFC00837BD4680BD80B582B000AF78607B68184600F089F8034618460837BD4680BD80B483B000AF786000
S32D0000DFE87B6818460C37BD4680BC704780B582B000AF786039603B68002B04D01A68183212681846904700BF2E
S32D0000E0100837BD4680BD80B582B000AF786039607B68184600F07AF87868FFF75DFF02463B6813607B68184668
S32D0000E0380837BD4680BD80B582B000AF78607B68184600F081F8034618460837BD4680BD80B582B000AF78608F
S32D0000E0607B68184600F080F8034618460837BD4680BD80B584B000AF78607868FFF734FF03461B68FB607868C3
S32D0000E088FFF72EFF034600221A60FB6818461037BD4680BDB0B584B000AFF860B9607A60FC68B86800F068F8B3
S32D0000E0B005467868FFF75AFF03461A462946204600F068F8FB6818461037BD46B0BD80B582B000AF78607B68B1
S32D0000E0D8184600F077F8034618460837BD4680BD80B582B000AF78607B68184600F076F8034618460837BD46C1
S32D0000E10080BD80B582B000AF78607B68184600F075F8034618460837BD4680BD80B582B000AF78607B681846D3
S32D0000E12800F07EF87B6818460837BD4680BD80B582B000AF78607B68184600F081F8034618460837BD4680BDE5
S32D0000E15080B582B000AF78607868FFF7ECFF034618460837BD4680BD80B582B000AF7860786800F07FF803464E
S32D0000E17818460837BD4680BD80B483B000AF78607B6818460C37BD4680BC704790B585B000AFF860B9607A60C0
S32D0000E1A07868FFF7E3FE03461946F86800F06EF8FC68B868FFF7E4FF03461946204600F077F8FB681846143766
S32D0000E1C8BD4690BD80B582B000AF78607868FFF794FF034618460837BD4680BD80B582B000AF7860786800F09E
S32D0000E1F070F8034618460837BD4680BD80B483B000AF78607B6818460C37BD4680BC704780B582B000AF78601D
S32D0000E218786800F066F8034618460837BD4680BD80B582B000AF7860786800F064F87B68184600F06CF87B68F2
S32D0000E24018460837BD4680BD80B483B000AF78607B6818460C37BD4680BC704780B582B000AF7860786800F0AD
S32D0000E26863F8034618460837BD4680BD80B582B000AF78607868FFF7EDFF034618460837BD4680BD80B582B0CA
S32D0000E29000AF786039603868FFF768FE03461946786800F04FF87B6818460837BD4680BD80B582B000AF7860D7
S32D0000E2B839603868FFF760FF03461A687B681A607B6818460837BD4680BD80B582B000AF78607868FFF798FF67
S32D0000E2E0034618460837BD4680BD80B483B000AF78607B6818460C37BD4680BC704780B582B000AF78607868B4
S32D0000E30800F02EF87B6818460837BD4680BD80B483B000AF78607B6800221A607B6818460C37BD4680BC70472A
S32D0000E33080B483B000AF78607B6818460C37BD4680BC704780B582B000AF786039603868FFF70CFE0346194688
S32D0000E358786800F00FF87B6818460837BD4680BD80B483B000AF78607B6818460C37BD4680BC704780B483B031
S32D0000E38000AF786039607B6818460C37BD4680BC7047000080B582B000AF786039607B68012B0CD13B684FF67A
S32D0000E3A8FF72934207D1064808F0D2FD054A0649034808F099FA00BF0837BD4680BD00BFE41700200000002068
S32D0000E3D0796F010080B500AF4FF6FF710120FFF7D9FF80BD80B483B000AF78607B6823F0004318460C37BD46A6
S32D0000E3F880BC704780B584B000AFF860B9607A60B968F8683BF028F90346002B01D0BB6809E07968F8683BF017
S32D0000E42029F90346002B01D07B6800E0FB6818461037BD4680BD000080B400AF024B1846BD4680BC704700BF19
S32D0000E448FFFF7F7F2DE9B04384B000AFF860B9607A603B60FB684FF4A0721A60FB68F0225A60FB686FF07F42F4
S32D0000E4709A60FB684C4ADA60FB684C4A1A61FB6800225A61FB684A4A9A62FB68002283F82D20FB685C3318460D
S32D0000E49824F0A6FFFB681B6818463AF07BFA4FF000024FF080433AF019FC02460B4614461D46786824F0EEFF01
S32D0000E4C0034618463AF06AFA4FF000024FF080433AF008FC02460B4690469946354806F07BF9034618463AF082
S32D0000E4E869FA02460B46404649463AF0CDFA02460B46204629463AF00FF902460B46104619463AF0A3FD024604
S32D0000E510FB685A63B8683AF0A7FE0246FB689A63786824F0BBFF0446224806F055F9034604FB03F318463AF0BA
S32D0000E53893FE0246FB685A651C4806F053F9034618463AF08DFE0246FB689A65FB685C337968184624F058FF72
S32D0000E560FB6800221A76FB6801225A76FB68002283F82C20FB68002283F82D203A68FB68DA61BA6AFB681A6246
S32D0000E588FB681B691A46FB685A62FB68DA69FB681A63FB6818461037BD46BDE8B08300BF666666002121210042
S32D0000E5B0E22B8A00C81A002090B585B000AFF860B9607A603B60FB684FF4A0721A60FB68F0225A60FB686FF072
S32D0000E5D87F429A60FB682E4ADA60FB682D4A1A61FB6800225A61FB682B4A9A62FB68002283F82D20FB685C339D
S32D0000E600184624F0F1FEFB68BA685A63FB687A689A63386824F042FF0446224806F0DCF8034604FB03F31846F8
S32D0000E6283AF01AFE0246FB685A651C4806F0DAF8034618463AF014FE0246FB689A65FB685C333968184624F05A
S32D0000E650DFFEFB6800221A76FB6801225A76FB68002283F82C20FB68002283F82D203A6AFB68DA617A6AFB6832
S32D0000E6781A62FB681B691A46FB685A62FB68DA69FB681A63FB6818461437BD4690BD00BF66666600212121005C
S32D0000E6A0E22B8A00C81A0020F0B58BB002AF78607B681B6B1946334806F08BFC7B685C6B304806F089F80346A8
S32D0000E6C818463AF0CDFD0346194620463AF012FD034618463AF0F4FF05467B689B6B18463AF0EEFF06467B68EF
S32D0000E6F05C6D244806F070F803465B0018463AF0B3FD0346194620463AF0FAFC034618463AF0DAFF04467B6888
S32D0000E7189B6D18463AF0D4FF03460093234632462946164807F00BF97B6803F15C0207F108031146184625F0E9
S32D0000E7403FF97B685B6B18463AF0BEFF04467B689B6B4FF0814118463AF0D2FC034618463AF0B2FF034607F138
S32D0000E76808012246054806F066FC07F10803184624F03EFE00BF2437BD46F0BDC81A0020B0B584B000AF7860D0
S32D0000E7907B685B7E002B00F046810023FB730023BB737B6803F13C017B6840331A46924806F0F6FC7B68DC6B25
S32D0000E7B87B685D6B8E4806F00BF8034618463AF04FFD0346194628463AF094FC0346194620463AF04BFF034601
S32D0000E7E0002B44D07B68DC6B7B685A6B7B685B6D194610463AF084FC03461D467E4805F0EBFF034618463AF0CE
S32D0000E8082FFD0346194628463AF076FC03464FF07E5118463AF06EFC0346194620463AF01BFF0346002B1ED007
S32D0000E8307B681A6C7B689B6B194610463AF01AFF0346002B13D07B681C6C7B689A6B7B689B6D194610463AF0FC
S32D0000E85853FC0346194620463AF0FEFE0346002B01D0012200E000227B6883F82C207B6803F13C017B68403391
S32D0000E8801A465D4806F08CFC034683F00103DBB2002B6ED17B6803F144017B6848331A46554806F07DFC034601
S32D0000E8A8002B62D07B68DC6B7B685D6B504805F099FF034618463AF0D3FC0346194628463AF018FC034619464F
S32D0000E8D020463AF0CFFE0346002B27D07B68DC6B7B685A6B7B685B6D194610463AF008FC03461D46404805F0C9
S32D0000E8F86FFF034618463AF0B3FC0346194628463AF0FAFB03464FF07E5118463AF0F2FB0346194620463AF0CB
S32D0000E9209FFE0346002B01D0012300E00023FB737B681A6C7B689B6B194610463AF09AFE0346002B13D07B684F
S32D0000E9481C6C7B689A6B7B689B6D194610463AF0D3FB0346194620463AF07EFE0346002B01D0012300E0002379
S32D0000E970BB73FB7B002B19D0BB7B002B16D07B685B69002B03D17B6801225A6106E07B685B69012B02D17B68A4
S32D0000E99802225A617B681A6A7B681A637B6801221A763CE07B685B69022B03D17B6803225A6106E07B685B6901
S32D0000E9C0032B02D17B6800225A617B6893F82C30002B13D07B689A6A7B681A637B6893F82D3083F00103DBB27A
S32D0000E9E8002B0FD07B68012283F82D200AE000BFC81A00207B68DA697B681A637B68002283F82D207B68002226
S32D0000EA101A76FFF711FD02467B68DA63FFF70CFD02467B681A647868FFF73EFE00BF1037BD46B0BD80B483B045
S32D0000EA3800AF78607B681B7E18460C37BD4680BC704780B485B000AF78600023FB737B685B69012B04D17B680A
S32D0000EA6002225A610123FB73FB7B18461437BD4680BC704780B582B000AF7860396038683AF0F2FB02467B6899
S32D0000EA889A6500BF0837BD4680BD000080B584B000AFF860C7E90023D7E90623D7E9000139F03AFE02460B463C
S32D0000EAB0F968C1E90023FB68D3E90023F968C1E90223F9684FF000024FF00003C1E90423FB684FF00002DA6203
S32D0000EAD8FB680A4A1A62FB68094A5A62FB68074A9A62F9684FF000024FF00003C1E90C23FB6818461037BD46F3
S32D0000EB0080BD00BFACC5273795BFD633000000002DE9B04F8CB000AFF861C7E90423D7E91423D7E9040139F0AA
S32D0000EB28FBFD02460B46F969C1E90023FB69D3E90445FB69D3E90001D7E9162339F0A4FF02460B462046294642
S32D0000EB5039F0E8FD02460B46F969C1E90423A6A3D3E90023D7E916013AF004FA0346002B04D0A1A3D3E900232B
S32D0000EB78C7E91623FB69D3E900014FF000024FF000033AF011FA0346002B0BD0FB69D3E902014FF000024FF0BB
S32D0000EBA000033AF0E7F90346002B28D1FB69D3E900014FF000024FF000033AF0DBF90346002B0BD0FB69D3E9BC
S32D0000EBC802014FF000024FF000033AF0EDF90346002B10D1FB69D3E90023BA6023F00043FB6085A3D3E900231F
S32D0000EBF0D7E902013AF0BEF90346002B06D0F9694FF000024FF00003C1E90423FB69D3E90C01D7E9042339F016
S32D0000EC1883FD02460B463A6023F000437B6076A3D3E90023D7E900013AF0B4F90346002B06D0F9694FF000026D
S32D0000EC404FF00003C1E90423FB69D3E90C01D7E9042339F065FD02460B46904623F000494FF00002684B4046AF
S32D0000EC6849463AF097F90346002B03D0FB694FF00002DA624FF00002624BC7E90A23FB69D3E904231046194646
S32D0000EC903AF0E0F903465E4A5E491846FFF7AEFB0346184639F09CFE02460B46F969C1E90423FB69D3E9000167
S32D0000ECB8FB69D3E9022339F02FFD02460B4610461946D7E916233AF009F802460B46F969C1E90623FB69D3E934
S32D0000ECE00023F969C1E90223FB69DB6A184639F077FE04460D46FB691B6A184639F070FEFB69D3E9002339F026
S32D0000ED08C3FE02460B4690469946FB695B6A184639F062FEFB69D3E9042339F0B5FE02460B464046494639F0C4
S32D0000ED30F9FC02460B4690469946FB699B6A184639F04EFEFB69D3E9062339F0A1FE02460B464046494639F04E
S32D0000ED58E5FC02460B462046294639F0DFFC02460B46104619463AF071F90246FB69DA62F969D7E90423C1E97D
S32D0000ED800C23254B7B62FB69DB6A1846FFF72AFB0346214918463AF059FC0346002B11D0FB69D3E900239246C7
S32D0000EDA823F0004B14A3D3E90023504659463AF0FBF80346002B01D0012300E00023002B0ED0FB69DB6A4FF09A
S32D0000EDD0000118463AF058FC0346002B01D00E4A00E00E4AFB69DA62FB69DB6A18463037BD46BDE8B08F00BFAF
S32D0000EDF8FCA9F1D24D62503F9A9999999999B93F0000E03F0000494000004842000048C2CDCCCC3DCDCCCCBDB8
S32D0000EE2080B485B000AFF860B9607A603B60FB68BA681A62FB687A685A62FB683A689A6200BF1437BD4680BC7A
S32D0000EE487047000080B582B000AF786039607B68012B0CD13B684FF6FF72934207D1064808F076F8054A06491A
S32D0000EE70034807F03DFD00BF0837BD4680BD00BFE817002000000020796F010080B500AF4FF6FF710120FFF723
S32D0000EE98D9FF80BD80B586B002AF786039603A23FB60386839F098FD02460B467868CDE90023044B3A2204494A
S32D0000EEC000F040F878681037BD4680BD90C605008D30050080B582B000AF7860064A7B681A607B680433184665
S32D0000EEE824F07EFA7B6818460837BD4680BD00BFFCC6050080B582B000AF7860064A7B681A607B680433184617
S32D0000EF1024F072FA7B6818460837BD4680BD00BFFCC6050080B582B000AF78607868FFF7E5FF1C21786807F051
S32D0000EF385FFD7B6818460837BD4680BD08B490B588B000AFF860B9607A607B680733DB08DB00ADEB030D6B4628
S32D0000EF600733DB08DB00FB6107F130033B61BC683B69FA6A7968F869A047B861BB69FA69D41807F1140318461A
S32D0000EF8807F008FE07F114032246F969F86800F00CF807F11403184607F0FEFDF8682037BD46BDE8904001B0F2
S32D0000EFB0704790B585B000AFF860B9607A603B60FC68F86824F004F903463A681946204624F0F4FC7A68B968E1
S32D0000EFD8F86800F005F8FB6818461437BD4690BD80B584B000AFF860B9607A607A68B968F86800F004F800BFF1
S32D0000F0001037BD4680BD90B587B000AFF860B9607A603B7023467A68B968F86800F004F800BF1C37BD4690BD20
S32D0000F02880B586B000AFF860B9607A603B70B86800F03EF80346002B05D0BA687B689A4201D0012300E0002342
S32D0000F050002B02D0174819F089FE7968B86800F03AF803467B617B690F2B10D907F1140300221946F86824F053
S32D0000F078B5F803461946F86824F0A2F87B691946F86824F0A3F8F86824F09CF803467A68B968184624F0EEF809
S32D0000F0A07B691946F86824F097F800BF1837BD4680BD00BFC8C6050080B483B000AF78607B68002B0CBF012371
S32D0000F0C80023DBB218460C37BD4680BC7047B0B582B000AF786039607C683B1D184600F00AF82A463968204619
S32D0000F0F000F00FF8034618460837BD46B0BD80B483B000AF786000BF18460C37BD4680BC704780B485B000AF49
S32D0000F118F860B9603A71BA68FB68D31A18461437BD4680BC704790B583B000AF7860396004F09AFC03461846D3
S32D0000F1403AF08EF803467968184639F0D7FF034601221446194638683AF082FA0346002B01D100231C46E3B29F
S32D0000F16818460C37BD4690BD90B587B000AFF860B9607A603B60FB681846FFF7A7FE1A4AFB681A60FB68BA6855
S32D0000F190DA61FB683A681A62FB687A685A62FB6803F1340407F11403184607F0F7FC07F114031A460F49204681
S32D0000F1B824F048FC07F11403184607F0EDFC04F053FC034618463AF047F80246FB689A62FB68002283F8312039
S32D0000F1E0FB680022DA62FB6818461C37BD4690BD94C7050030C7050080B582B000AF78607B68D8694FF000032C
S32D0000F2084FF000024FF0000101F0CAFC04F02CFC034618463AF020F802467B689A627B680022DA627B68DB690C
S32D0000F230184601F099FE00BF0837BD4680BD000090B591B000AF78607B68DB6A1A46B64BD41807F13803184679
S32D0000F25807F0A0FC07F1380207F120032146184624F0F0FB07F13803184607F095FC07F12003184624F07EFBC5
S32D0000F280014600230022A94805F0B6FE04F0F0FB0346184639F0E4FF02467B689B6A1946104639F02BFF034627
S32D0000F2A8FB6307F10803F96B1846FFF7F3FD0F2300229D499B4805F09BFE07F10803184624F058FB01461E2334
S32D0000F2D00022964805F090FE2D2300229549934805F08AFE7B68DB69184601F051FC034619683C2300228D4802
S32D0000F2F805F0B6FE7B68DB69184601F045FC0346043319684B230022864805F0A9FE7B68DB69184601F038FCE3
S32D0000F3200346083319685A230022804805F09CFE7B68DB6A042B00F2D58001A252F823F055F30000C5F3000026
S32D0000F34811F400005FF40000A9F400007B685B6A7749184605F0C0F97B68D8694FF03F434FF000024FF00001C8
S32D0000F37001F052FA7B68DB69184601F065FA7B689B6A6E491846FFF7D2FE0346002B00F0B3807B68D8694FF0A0
S32D0000F39800034FF000024FF0000101F039FA04F063FB0346184639F057FF02467B689A627B68DB6A5A1C7B687F
S32D0000F3C0DA6299E07B68D8694FF000035C4A5D4901F022FA7B68DB69184601F035FA7B689B6A56491846FFF72B
S32D0000F3E8A2FE0346002B00F0858004F03DFB0346184639F031FF02467B689A627B68DB6A5A1C7B68DA6275E089
S32D0000F4107B68D8694FF07C534FF000024FF0000101F0FAF97B68DB69184601F00DFA7B689B6A45491846FFF7F0
S32D0000F4387AFE0346002B5FD004F016FB0346184639F00AFF02467B689A627B68DB6A5A1C7B68DA6250E07B68B6
S32D0000F460D8694FF00003374A364901F0D5F97B68DB69184601F0E8F97B689B6A33491846FFF755FE0346002B66
S32D0000F4883CD004F0F1FA0346184639F0E5FE02467B689A627B68DB6A5A1C7B68DA622DE07B681B6A2849184690
S32D0000F4B002F0F6FB7B689B6A24491846FFF737FE0346002B20D004F0D3FA0346184639F0C7FE02467B689A628C
S32D0000F4D87B68DB6A5A1C7B68DA6211E07B68DB69184601F0DDFA7B68012283F8312008E000BF06E000BF04E009
S32D0000F50000BF02E000BF00E000BF07F10803184623F072FF07F12003184623F06DFF00BF4437BD4690BD00BFB8
S32D0000F5283CC70500C81A002050C705005CC70500000034430000C844CDCC4CBE9A99993E0000FA43000048446E
S32D0000F5500000A04280B483B000AF78607B6893F8313018460C37BD4680BC704780B483B000AF78607B68012263
S32D0000F57883F8312000BF0C37BD4680BC704780B582B000AF786039603B6834331946786824F012FA7868083792
S32D0000F5A0BD4680BD80B582B000AF7860084A7B681A607B683433184623F01EFF7B681846FFF79CFC7B68184678
S32D0000F5C80837BD4680BD00BF94C7050080B582B000AF78607868FFF7E1FF4C21786807F007FA7B68184608370E
S32D0000F5F0BD4680BD80B483B000AF786039603B6818460C37BD4680BC704780B582B000AF78607B68184600F0CD
S32D0000F618DBF87B6818460837BD4680BD80B582B000AF78607B681846FFF7EBFF7B6818460837BD4680BD000062
S32D0000F64080B582B000AF78607B680833184623F0CBFE7B6820331846FFF7E4FF7B6800225A607B6808330749BC
S32D0000F668184624F093F87B6800221A707B6800225A707B6818460837BD4680BDC8C7050090B583B000AF7860C6
S32D0000F69039607B6803F12004386800F0A9F803461946204600F0AEF800BF0C37BD4690BD90B58BB000AF78608A
S32D0000F6B87B682033184600F0B2F878627B685B687A6A9A4256D97B6803F120027B685B681946104600F0B2F899
S32D0000F6E038627B6803F10804386A00F0BAF803461A681032126807F108001946904707F108031946204623F0A3
S32D0000F70889FE07F10803184623F072FE386A00F0A4F803461A680832126818469047034683F00103DBB2002B0E
S32D0000F7301BD07B685B7883F00103DBB2002B0AD0386A00F08EF803461A681268184690477B6801225A70386AFD
S32D0000F75800F083F803461A68043212681846904711E07B685B685A1C7B685A607B6800225A7008E07B68012201
S32D0000F7801A707B6808330449184624F003F800BF2C37BD4690BD00BFC8C7050080B582B000AF786039603B680A
S32D0000F7A808331946786824F007F978680837BD4680BD80B483B000AF78607B681B7818460C37BD4680BC70474B
S32D0000F7D080B582B000AF7860786800F04EF87B68184600F056F87B6818460837BD4680BD80B483B000AF7860DA
S32D0000F7F87B6818460C37BD4680BC704780B582B000AF786039603868FFF7EEFF03461946786800F078F800BFB8
S32D0000F8200837BD4680BD80B483B000AF78607B685A687B681B68D31A9B1018460C37BD4680BC704780B483B0AC
S32D0000F84800AF786039607B681A683B689B00134418460C37BD4680BC704780B582B000AF7860786800F07DF8AE
S32D0000F870034618460837BD4680BD80B582B000AF7860786800F07EF87B6818460837BD4680BD80B483B000AF3A
S32D0000F89878607B6800221A607B6800225A607B6800229A607B6818460C37BD4680BC704780B584B000AFF86043
S32D0000F8C0B9607A60BB68002B05D0FB687A68B968184600F061F800BF1037BD4680BD80B483B000AF78607B68E0
S32D0000F8E818460C37BD4680BC704780B584B000AFF860B9607A60B968F86800F058F800BF1037BD4680BDB0B58C
S32D0000F91082B000AF786039607B685A687B689B689A4211D07C687B685D68386800F050F803461A46294620464D
S32D0000F93800F054F87B685B681A1D7B685A600CE0786800F05EF80446386800F03DF803461A462146786800F0EA
S32D0000F9607BF800BF0837BD46B0BD80B582B000AF78607B68184600F02BF9034618460837BD4680BD80B483B0C8
S32D0000F98800AF78607B6818460C37BD4680BC704780B584B000AFF860B9607A607A68B968F86800F01FF900BFC3
S32D0000F9B01037BD4680BD80B582B000AF786039603968786800F022F900BF0837BD4680BD80B483B000AF786063
S32D0000F9D87B6818460C37BD4680BC704780B584B000AFF860B9607A607868FFF7EDFF03461A46B968F86800F048
S32D0000FA003DF900BF1037BD4680BD80B584B000AF78607B681A1D07F10C031146184600F045F9FB681846103760
S32D0000FA28BD4680BD80B582B000AF184600F005F8034618460837BD4680BD80B483B000AF3871012318460C3765
S32D0000FA50BD4680BC70470000B0B58CB000AFF860B9607A60594A0121F86800F02EF9B862FB681B687B62FB687B
S32D0000FA785B683B62F86800F06BF903467B6107F1140207F108031146184600F071F90346FB61FB68B96A18467E
S32D0000FAA000F07FF9B861BB69FB62FC68FB699B00BA69D5187868FFF78BFF03461A4629462046FFF78FFF00233E
S32D0000FAC8FB62FFF7AFFF0346002B27D007F10803184600F08AF903461C68FB681846FFF7FAFE0346BA69214681
S32D0000FAF0786A00F06AF9F862FB6A0433FB6207F10803184600F075F903461C68FB681846FFF7E5FE0346FA6A8D
S32D0000FB18396A204600F055F9F86226E007F10803184600F062F903461C68FB681846FFF7D2FE0346BA69214645
S32D0000FB40786A00F060F9F862FB6A0433FB6207F10803184600F04DF903461C68FB681846FFF7BDFE0346FA6A96
S32D0000FB68396A204600F04BF9F862FFF75BFF034683F00103DBB2002B09D0FB681846FFF7AAFE03461A46396A8C
S32D0000FB90786AFFF7AEFEF868FB689A687B6AD31A9B101A46796AFFF787FEFB68BA691A60FB68FA6A5A60BB6A1D
S32D0000FBB89B00BA691A44FB689A6000BF3037BD46B0BD00BFD0C7050080B582B000AF78607B68184600F039F964
S32D0000FBE003461B6818460837BD4680BD80B584B000AFF860B9607A607B689B001946B86806F0FAFE00BF1037FA
S32D0000FC08BD4680BD80B582B000AF786039607A683B689A420AD0786800F024F90346184600F02AF97B6804330B
S32D0000FC307B60F0E700BF0837BD4680BD80B582B000AF786039607B683A681146184600F032F97B68184608375A
S32D0000FC58BD4680BD80B582B000AF786039607B683A6811461846FFF7E5FF7B6818460837BD4680BD90B585B069
S32D0000FC8000AFF860B9607A607868FFF7A1FE0446BB6819460420FFF7ADFC034621461846FFF7DCFF00BF14376F
S32D0000FCA8BD4690BD80B483B000AF786039603B681A687B681A607B6818460C37BD4680BC704790B587B000AF30
S32D0000FCD0F860B9607A60F86800F007F90446F868FFF7A1FD0346E21ABB689A4234BF01230023DBB2002B02D025
S32D0000FCF8786819F04FF8F868FFF791FD0446F868FFF78DFD03463B6107F1080207F110031146184600F0F6F81B
S32D0000FD2003461B6823447B61F868FFF77CFD02467B69934206D3F86800F0D7F802467B69934204D9F86800F0B0
S32D0000FD48D0F8034600E07B6918461C37BD4690BD80B584B000AF78607A6807F10C0311461846FFF79FFFFB6832
S32D0000FD7018461037BD4680BD90B583B000AF78603960786800F035F803461C68386800F030F803461B68E31A9D
S32D0000FD989B1018460C37BD4690BD80B582B000AF786039603B68002B06D07B683968184600F0BBF8034600E0C8
S32D0000FDC0002318460837BD4680BD90B587B002AFF860B9607A603B608DF800403B687A68B968F86800F0B4F89B
S32D0000FDE8034618461437BD4690BD80B483B000AF78607B6818460C37BD4680BC704790B585B000AFF860B960A9
S32D0000FE107A603B60F86800F0ADF80446B86800F0A9F801463B687A68204600F0B2F8034618461437BD4690BD51
S32D0000FE3880B582B000AF786039603968786800F0B5F800BF0837BD4680BD80B582B000AF78607B68184600F09A
S32D0000FE60B5F8034618460837BD4680BD80B483B000AF78607B6818460C37BD4680BC704780B582B000AF78604B
S32D0000FE887868FDF7CEFF00BF0837BD4680BD80B582B000AF786039607B683A681146184600F0A6F87B681846DD
S32D0000FEB00837BD4680BD90B583B000AF786039607C683B68184600F08DF8034619462046FFF7E1FF3868FEF73A
S32D0000FED869F8034600221A607B6818460C37BD4690BD80B582B000AF78607B68184600F0BCF80346184600F078
S32D0000FF009EF8034618460837BD4680BD80B483B000AF786039607B681A683B681B689A4201D23B6800E07B68F0
S32D0000FF2818460C37BD4680BC704780B582B000AF7860396000223968786800F0A0F8034618460837BD4680BD3C
S32D0000FF5080B584B000AFF860B9607A603B603B687A68B968F86800F0ACF8034618461037BD4680BD80B584B054
S32D0000FF7800AF786007F10C037968184600F0BAF8FB6818461037BD4680BD80B584B000AFF860B9607A603B60A6
S32D0000FFA07A68B968F86800F0BBF8034618461037BD4680BD80B582B000AF786039603868FDF733FF00BF0837B4
S32D0000FFC8BD4680BD80B582B000AF7860786800F0B5F8034618460837BD4680BD80B483B000AF78607B6818460B
S32D0000FFF00C37BD4680BC704790B583B000AF78603960386800F0ABF80346184600F0B1F803461946786800F027
S32D00010018C0F87C683868FEF770F80346184600F0AEF803461946204600F0C9F87B6818460C37BD4690BD80B51B
S32D0001004084B000AF78606FF06043FB60786800F0CBF80346BB6007F1080207F10C031146184600F0CDF80346C6
S32D000100681B6818461037BD4680BD80B483B000AF78607B6818460C37BD4680BC704780B584B000AFF860B96010
S32D000100907A60F86800F0C7F80246BB6893428CBF01230023DBB2002B01D018F03FFEBB689B00184606F0A2FC08
S32D000100B8034618461037BD4680BDB0B584B000AFF860B9607A603B60F86800F0B3F80446B86800F0AFF8054676
S32D000100E0786800F0ABF802463B682946204600F0AFF8034618461037BD46B0BD80B582B000AF786039603B46C1
S32D00010108184600F0C7F803461A687B681A607B6818460837BD4680BD80B586B000AFF860B9607A600123FB75DA
S32D000101307A68B968F86800F0BBF8034618461837BD4680BD80B582B000AF78607B68184600F0DDF803461846C9
S32D000101580837BD4680BD80B483B000AF78607B6818460C37BD4680BC704780B483B000AF78607B6818460C371F
S32D00010180BD4680BC704780B483B000AF78607B6818460C37BD4680BC704780B582B000AF786039603868FEF7D6
S32D000101A833F80346184600F0B8F803461946786800F0BDF87B6818460837BD4680BD80B582B000AF7860396042
S32D000101D03868FFF7D8FF03461A687B681A607B6818460837BD4680BD80B582B000AF7860786800F0ADF80346FF
S32D000101F818460837BD4680BD80B483B000AF786039603B681A687B681B689A4201D23B6800E07B6818460C3733
S32D00010220BD4680BC704780B483B000AF78606FF0604318460C37BD4680BC704780B483B000AF78607B68184603
S32D000102480C37BD4680BC704790B587B000AFF860B9607A603B607B687B61FA68BB689A4213D07869FFF7FEFD68
S32D000102700446F868FFF7FAFD03463A681946204600F072F8FB680433FB607B6904337B61E7E77B6918461C376F
S32D00010298BD4690BD80B483B000AF78607B6818460C37BD4680BC704790B587B000AFF860B9607A607B687B614A
S32D000102C007F1080207F10C031146184600F067F80346002B16D07869FFF7C8FD044607F10C03184600F07BF8FA
S32D000102E803461946204600F081F807F10C03184600F062F87B6904337B61DDE77B6918461C37BD4690BD80B4ED
S32D0001031083B000AF78607B6818460C37BD4680BC704780B483B000AF78607B6818460C37BD4680BC704780B5ED
S32D0001033882B000AF786039603868FFF7EEFF7B6818460837BD4680BD80B582B000AF78607868FFF764FF034691
S32D0001036018460837BD4680BD80B584B000AFF860B9607A60B868FFF73BFA03461A46F9687868FFF72FFBB868B9
S32D00010388FFF770FD034619467868FFF751FD00BF1037BD4680BD80B582B000AF786039603968786800F039F8A8
S32D000103B0034683F00103DBB218460837BD4680BD80B483B000AF78607B681B681A1D7B681A607B6818460C3788
S32D000103D8BD4680BC704780B483B000AF78607B681B6818460C37BD4680BC704790B583B000AF786039603868DD
S32D00010400FFF7E6FA04467B6819460420FFF7F2F8034621461846FFF721FC00BF0C37BD4690BD90B583B000AFCD
S32D0001042878603960786800F00EF80446386800F00AF803469C420CBF01230023DBB218460C37BD4690BD80B497
S32D0001045083B000AF78607B681B6818460C37BD4680BC704780B582B000AF7860786836F06FF803461846083785
S32D00010478BD4680BD80B582B000AF7860786836F095F8034618460837BD4680BD80B582B000AF7860786836F07A
S32D000104A0C1F8034618460837BD4680BD90B583B000AF786039607B681A683B681B681946104638F025FF0346E1
S32D000104C81C467B6804331A683B6804331B681946104638F019FF03461946204638F00CFE034618460C37BD4688
S32D000104F090BD90B583B000AF78607B681A687B681B681946104638F003FF03461C467B6804331A687B68043386
S32D000105181B681946104638F0F7FE03461946204638F0EAFD03461846FFF7B0FF034618460C37BD4690BD80B587
S32D0001054084B000AF786039607868FFF7D2FFF8604FF00001F86839F06FF80346002B02D04FF0000309E07968B7
S32D000105683868FFF79FFF0346F968184638F080FF034618461037BD4680BD000080B582B000AF786008461146C0
S32D000105901A460346FB700B46BB7013467B707868BA78F978FB6900F041FD7B68924AC3F888207B684FF000020D
S32D000105B8C3F88C207B684FF00002C3F890207B6803F198003A7C7978FB6900F02BFD7B68874AC3F820217B68F9
S32D000105E04FF00002C3F824217B684FF00002C3F828217B6803F598703A7E397DFB6900F015FD7B687C4AC3F868
S32D00010608B8217B684FF00002C3F8BC217B684FF00002C3F8C0217B684FF07E52C3F8C4217B684FF00002C3F8FD
S32D00010630C8217B68714A03F5E67392E8030083E803007B686E4A03F5EA7392E8030083E803007B684FF00002D9
S32D00010658C3F8DC217B684FF00002C3F8E0217B684FF00002C3F8E4217B684FF00002C3F8E8217B684FF00002EB
S32D00010680C3F8EC217B684FF00002C3F8F0217B684FF00002C3F8F4217B684FF00002C3F8F8217B684FF0000283
S32D000106A8C3F8FC217B68002283F806227B68012283F807227B68022283F808227B684FF00002C3F80C227B685D
S32D000106D04FF00002C3F810227B684FF00002C3F814227B68474AC3F81C227B684FF07E52C3F820227B68444AEB
S32D000106F8C3F824227B68434AC3F828227B68424AC3F82C227B684FF07E52C3F840227B683E4AC3F844227B6867
S32D000107203B4AC3F848227B68394AC3F84C227B68FA7883F800227B687A7883F802227B683A7D83F804227B68ED
S32D00010748BA7883F801227B683A7C83F803227B683A7E83F805227B68FA69C3F818227B68002283F83C227B6840
S32D00010770002283F83D227B68002283F83E227B684FF00002C3F8E8217B684FF00002C3F8EC217B684FF0000286
S32D00010798C3F8F02178687B68D3F888107B68D3F88C207B68D3F8903000F094FE7B6803F198007B68D3F82011A8
S32D000107C07B68D3F824217B68D3F8283100F086FE7B6803F598707B68D3F8B8117B68D3F8BC217B68D3F8C03118
S32D000107E800F078FE7B6818460837BD4680BD00BF9A99193FECC70500F4C705000000104100004041CDCC4C3F04
S32D00010810CDCCCC3D9A99993E80B485B000AFF860B9607A603B60FB68BA68C3F8DC21FB687A68C3F8E021FB686E
S32D000108383A68C3F8E42100BF1437BD4680BC704790B58DB000AF7860786800F0C1F97B6803F5E2727B6803F592
S32D00010860EE7319461046FFF76AFEF8627B6803F5E6727B6803F5EE7319461046FFF75FFEB8627B6803F5EA72D3
S32D000108887B6803F5EE7319461046FFF754FE78627B68D3F8E4313B627B68D3F8283283F000417B68D3F828320A
S32D000108B01A46386AFDF7A2FDF861F969F86A38F01FFC0346FB62F969B86A38F019FC0346BB62F969786A38F0EB
S32D000108D813FC03467B62F86AFDF780FD0346FB60B86AFDF77BFD03463B61786AFDF776FD03467B6107F1140256
S32D0001090007F110031146184600F05FFB024607F10C031146184600F058FB03461B68BB617B68D3F82032194630
S32D00010928B86938F0ADFE0346002B29D07B68D3F82032B969184638F09BFD03461946F86A38F0E2FC0346FB6249
S32D000109507B68D3F82032B969184638F08DFD03461946B86A38F0D4FC0346BB627B68D3F82032B969184638F076
S32D000109787FFD03461946786A38F0C6FC03467B62BB6983F00043BA691946F86AFDF732FD02467B68C3F80C2245
S32D000109A0BB6983F00043BA691946B86AFDF726FD02467B68C3F81022BB6983F00043BA691946786AFDF71AFD32
S32D000109C802467B68C3F814227B6893F83C32002B34D07C687B68D3F80C227B68D3F824321946104638F090FCAC
S32D000109F003461946204600F0E3FC7B6803F198047B68D3F810227B68D3F824321946104638F07EFC03461946A5
S32D00010A18204600F0D1FC7B6803F598747B68D3F814227B68D3F824321946104638F06CFC03461946204600F07A
S32D00010A40BFFC2AE07C687B68D3F80C321549184638F05EFC03461946204600F07AFB7B6803F198047B68D3F820
S32D00010A6810320E49184638F04FFC03461946204600F06BFB7B6803F598747B68D3F814320649184638F040FCA5
S32D00010A9003461946204600F05CFB00BF3437BD4690BD00BF0000C84280B582B000AF78604FF000034FF000022E
S32D00010AB84FF000017868FFF7ABFE7B68184600F070FB7B689833184600F06BFB7B6803F59873184600F065FBBE
S32D00010AE000BF0837BD4680BD80B582B000AF78607B68184600F078FB034618460837BD4680BD80B582B000AFDB
S32D00010B0878607B689833184600F06AFB034618460837BD4680BD80B582B000AF78607B6803F59873184600F03D
S32D00010B305BFB034618460837BD4680BD80B582B000AF78607B68184600F082FB034618460837BD4680BD80B523
S32D00010B5882B000AF78607B689833184600F074FB034618460837BD4680BD80B582B000AF78607B6803F5987350
S32D00010B80184600F065FB034618460837BD4680BD80B483B000AF78607B6803F5F47318460C37BD4680BC7047AB
S32D00010BA880B485B000AFF860B9607A603B60FB68BA68C3F8E821FB687A68C3F8EC21FB683A68C3F8F02100BF3A
S32D00010BD01437BD4680BC70472DE9B04384B000AF78607B68184600F027FB04467B68D3F8C8311846FFF736FC27
S32D00010BF803461946204638F087FB03461D467B689833184600F014FB04467B68D3F8D0311846FFF723FC0346AA
S32D00010C201946204638F074FB03461946284638F067FA03461D467B6803F59873184600F0FBFA04467B68D3F8DD
S32D00010C48D8311846FFF70AFC03461946204638F05BFB03461946284638F04EFA03461A467B68C3F8E8217B68D5
S32D00010C70184600F0E1FA04467B68D3F8C8311846FFF7FCFB03461946204638F041FB03461D467B6898331846C6
S32D00010C9800F0CEFA04467B68D3F8D0311846FFF7E9FB03461946204638F02EFB03461946284638F021FA034643
S32D00010CC01D467B6803F59873184600F0B5FA04467B68D3F8D8311846FFF7D0FB03461946204638F015FB034610
S32D00010CE81946284638F008FA03461A467B68C3F8EC214FF08043FB607B68184600F098FA0346184637F068FE3E
S32D00010D1004460D467B68D3F8C831184637F060FE45A3D3E9002337F0FBFC02460B461046194635F0B5FB02463D
S32D00010D380B462046294637F0A7FE02460B46904699467B689833184600F072FA0346184637F042FE04460D4639
S32D00010D607B68D3F8D031184637F03AFE32A3D3E9002337F0D5FC02460B461046194635F08FFB02460B46204650
S32D00010D88294637F081FE02460B464046494637F0C5FC02460B46904699467B6803F59873184600F045FA034687
S32D00010DB0184637F015FE04460D467B68D3F8D831184637F00DFE1CA3D3E9002337F0A8FC02460B4610461946E1
S32D00010DD835F062FB02460B462046294637F054FE02460B464046494637F098FC02460B4614461D46F86837F03D
S32D00010E00EFFD02460B462046294637F06BFF02460B461046194638F01DF902467B68C3F8F0217B684FF0000231
S32D00010E28C3F8F02100BF1037BD46BDE8B08300BF182D4454FB21F93F80B582B000AF78600B46FB707B68FA78FF
S32D00010E5083F83C22FB78002B03D0786800F008F802E0786800F01EF800BF0837BD4680BD80B582B000AF786065
S32D00010E787B680121184600F059F97B6898330121184600F053F97B6803F598730121184600F04CF900BF0837A3
S32D00010EA0BD4680BD80B582B000AF78607B680021184600F03FF97B6898330021184600F039F97B6803F5987336
S32D00010EC80021184600F032F900BF0837BD4680BD80B584B000AFF860B9607A603B60BB68032B19D0BB68032B9A
S32D00010EF01FDCBB68012B03D0BB68022B07D018E0F868BB693A68796800F0E8FA11E0FB6803F19800BB693A6818
S32D00010F18796800F0DFFA08E0FB6803F59870BB693A68796800F0D6FA00BF00BF1037BD4680BD80B582B000AF33
S32D00010F4078607B68184600F083F97B689833184600F07EF97B6803F59873184600F078F900BF0837BD4680BDA7
S32D00010F6880B582B000AF78607B68184600F026F97B689833184600F021F97B6803F59873184600F01BF900BFFF
S32D00010F900837BD4680BD80B582B000AF78607B68184600F033F9034618460837BD4680BD80B582B000AF786054
S32D00010FB87B68184600F031F9034618460837BD4680BD80B582B000AF786039607B681A683B681B6819461046C2
S32D00010FE038F034FB0346002B01D03B6800E07B6818460837BD4680BD80B582B000AF7860094803F0A0FF04210D
S32D00011008074803F0A7FF0221054803F0CAFF786822F0B0FC03461946014804F0F3F9EEE7C81A002080B586B0F4
S32D0001103002AFF8607B600B46FB721346BB72FB683A4A5A60FB684FF08342DA60FB681033F97A7A68184600F0DE
S32D00011058A3FDFB681833BA7A1146184602F020FDFB6803F128014FF000024FF00003CDE900234FF000024FF0C7
S32D0001108000030846FDF706FDFB684FF49F72DA66FB68274A1A67FB684FF000025A67FB684FF000029A67FB6840
S32D000110A8FA7A1A70FB687A689A60FB68DB6E184638F0D2F80246FB689A66FB685A7EFB685A76FB6818331846BB
S32D000110D002F0AAFFFB684FF000021A66FB684FF00002DA67FB684FF00002C3F88020FB68022283F88420FB6845
S32D000110F8012283F88520FB684FF000025A6702F0B3FC0346184638F0A7F80246FB689A67FB68002283F8242022
S32D00011120FB6818461037BD4680BD00BF00001041D153FB4080B483B000AF78600B46FB707B68FA7883F88420CB
S32D0001114800BF0C37BD4680BC704780B582B000AF786039604FF00001386838F091FA0346002B04D07B68002219
S32D0001117083F8852003E07B68022283F885204FF00001386838F058FA0346002B03D07B68012283F885207B687C
S32D0001119810333968184600F07FFD00BF0837BD4680BD80B582B000AF78607B681033184600F030FD00BF0837AF
S32D000111C0BD4680BD80B582B000AF78607B681833184602F029FF7B684FF00002C3F8802000BF0837BD4680BD6F
S32D000111E880B582B000AF78607B681833184602F005FF0346184638F033F8034618460837BD4680BD80B483B0E1
S32D0001121000AF78607B681B6E18460C37BD4680BC704780B483B000AF78607B68DB6F18460C37BD4680BC704773
S32D0001123880B483B000AF78607B68D3F8803018460C37BD4680BC704780B58CB000AF78604FF07E53BB624FF040
S32D000112607E537B6202F004FC0346184637F0F8FF03463B627B689B6F1946386A37F03EFF0346FB617B681833EF
S32D00011288184602F0BBFE0346184637F0E9FF0346BB617B685B6F1946B86937F02BFF0346FB627B6893F88530CC
S32D000112B0022B03D1FB6A83F00043FB627B6893F8243083F00103DBB2002B09D07B683A6A9A677B68012283F8C3
S32D000112D824207B68BA695A67F86AFDF77FF803461946B86A38F0CCF90346002B08D0796AF86938F0B1F90346AD
S32D00011300002B01D0012300E00023002B02D07B685B6E4FE04FF00001F86938F0A1F90346002B02D07B685B6E6E
S32D0001132844E04FF00001F86A38F082F90346002B06D07B684FF000025A664FF0000335E07B689B6E1946F86AFB
S32D0001135038F092F803467B617B681B6F1946786937F0D6FF03463B611449F86938F084F80346FB60F968386901
S32D0001137838F07EF80346BB607B68D3F880303969184637F0B9FE03461A467B68C3F880207B68BA695A677B6877
S32D000113A03A6A9A677B68BA685A667B68002283F82420BB6818463037BD4680BD00007A442DE9F04393B004AFCB
S32D000113C8786039607B6893F88430012B59D17B683A681A667868FFF737FF386302F044FB0346184637F038FF2B
S32D000113F00346FB627B689B6F1946F86A37F07EFE03467B634FF00001786B38F029F90346002B01D02D4B7B63A8
S32D000114187B6803F128067B681B6E184637F0DCFA80468946386B37F0D7FA04460D46786B37F0D2FA02460B469D
S32D00011440CDE90223CDE9004542464B463046FDF75FFBB8627B68BA6ADA677B68DB681946B86A38F009F803464F
S32D000114681949184637F050FF03467B62164A1749786AFCF7BFFF7862796A7868FFF765FE1BE007F1200318463C
S32D0001149005F084FB07F1200207F108030E49184622F0D4FA07F108031846FFF7A5FD07F10803184621F0A0FFFD
S32D000114B807F12003184605F06FFB00BF3C37BD46BDE8F0836F12833A0000C8420000C8C234C8050080B584B0A4
S32D000114E000AFF860B9607A603B60FB6803F128003B687A68B968FDF793FC00BF1037BD4680BD000080B500AF76
S32D000115080F4BD3F8A03003F48053002B14BF01230023DBB2002B10D0094BD3F8A030084A23F48053C2F8A03063
S32D00011530064805F06BF9064B1B68054A23F40053136000BF80BD00BF00C00440501B0020C0F00F4080B400AFB9
S32D00011558124B4FF480725A63114B5B69104A43F4005353610E4B1B680D4A43F4005313600A4B0C4A1A630C4BAE
S32D00011580D3F888310A4A43F08063C2F88831084B9B68074A43F08063936000BFBD4680BC704700BF00C00440B3
S32D000115A8C0F00F4003010A0000E100E080B400AF334B00225A70324B98221A70304B9B79DBB203F01003002BEB
S32D000115D014BF01230023DBB2002B00D0F2E72A4B9B79DBB29B08DBB203F00303022B14BF01230023DBB2002B33
S32D000115F800D0F0E7224B18221A71214B00225A71204B03F580531A461F4B53641C4B54225A711B4B9B79DBB22C
S32D0001162003F02003002B0CBF01230023DBB2002B00D0F2E7144B9B79DBB203F04003002B0CBF01230023DBB2E7
S32D00011648002B00D0F2E70E4B1B78DBB20C4A03F03F03DBB213700A4B9B79DBB29B08DBB203F00303032B14BF6B
S32D0001167001230023DBB2002B00D0F0E700231846BD4680BC704700BF00400640007004400000130180B500AF3D
S32D00011698314B03F580539B6B2F4A43F4785302F580529363FFF752FFFFF780FF2B4B58221A602A4B1B684FF43B
S32D000116C07A7202FB03F3284A1360274B1B681A46234B03F580535B6C1B0E03F00F030133B2FBF3F31A46214B21
S32D000116E81A601D4B03F58053DB6B1B4A43F0225302F58052D363184B03F580531B6B164A43F0006302F5805261
S32D000117101363174B4FF480721A61642002F058F8134B5B69124A23F010035361104B00221A600F4B10225A61C6
S32D000117380E4803F091FA02F07FFD02F0DDFD0C4802F0A4F80B4805F0B1F84FF4FA6002F04FF900BF80BD00BF0F
S32D0001176000700440141A0020101A0020181A002000D00340C81A00200C1A0020C01B002080B500AFFAF7DFFDB5
S32D0001178800BF80BD80B500AFFAF7D9FD00BF80BD80B500AFFAF7D3FD00BF80BD80B500AFFAF7CDFD00BF80BD53
S32D000117B080B500AFFAF7C7FD00BF80BD80B500AFFAF7C1FD00BF80BD80B500AFFAF7BBFD00BF80BD80B500AF79
S32D000117D8FAF7B5FD00BF80BD80B500AFFAF7AFFD00BF80BD80B500AFFAF7A9FD00BF80BD80B500AFFAF7A3FDDA
S32D0001180000BF80BD80B500AFFAF79DFD00BF80BD80B500AFFAF797FD00BF80BD80B500AFFAF791FD00BF80BD8E
S32D0001182880B500AFFAF78BFD00BF80BD80B500AFFAF785FD00BF80BD80B500AFFAF77FFD00BF80BD80B500AFB4
S32D00011850FAF779FD00BF80BD80B500AFFAF773FD00BF80BD80B500AFFAF76DFD00BF80BD80B500AFFAF767FD51
S32D0001187800BF80BD80B500AFFAF761FD00BF80BD80B500AFFAF75BFD00BF80BD80B500AFFAF755FD00BF80BDCA
S32D000118A080B500AFFAF74FFD00BF80BD80B500AFFAF749FD00BF80BD80B500AFFAF743FD00BF80BD80B500AFF0
S32D000118C8FAF73DFD00BF80BD80B500AFFAF737FD00BF80BD80B500AFFAF731FD00BF80BD80B500AFFAF72BFDC9
S32D000118F000BF80BD80B500AFFAF725FD00BF80BD80B500AFFAF71FFD00BF80BD80B500AFFAF719FD00BF80BD06
S32D0001191880B500AFFAF713FD00BF80BD80B500AFFAF70DFD00BF80BD80B500AFFAF707FD00BF80BD80B500AF2B
S32D00011940FAF701FD00BF80BD80B500AFFAF7FBFC00BF80BD80B500AFFAF7F5FC00BF80BD80B500AFFAF7EFFC43
S32D0001196800BF80BD80B500AFFAF7E9FC00BF80BD80B500AFFAF7E3FC00BF80BD80B500AFFAF7DDFC00BF80BD44
S32D0001199080B500AFFAF7D7FC00BF80BD80B500AFFAF7D1FC00BF80BD80B500AFFAF7CBFC00BF80BD80B500AF6A
S32D000119B8FAF7C5FC00BF80BD80B500AFFAF7BFFC00BF80BD80B500AFFAF7B9FC00BF80BD80B500AFFAF7B3FCBC
S32D000119E000BF80BD80B500AFFAF7ADFC00BF80BD80B500AFFAF7A7FC00BF80BD80B500AFFAF7A1FC00BF80BD80
S32D00011A0880B500AFFAF79BFC00BF80BD80B500AFFAF795FC00BF80BD80B500AFFAF78FFC00BF80BD80B500AFA5
S32D00011A30FAF789FC00BF80BD80B500AFFAF783FC00BF80BD80B500AFFAF77DFC00BF80BD80B500AFFAF777FC33
S32D00011A5800BF80BD80B500AFFAF771FC00BF80BD80B500AFFAF76BFC00BF80BD80B500AFFAF765FC00BF80BDBB
S32D00011A8080B500AFFAF75FFC00BF80BD80B500AFFAF759FC00BF80BD80B500AFFAF753FC00BF80BD80B500AFE1
S32D00011AA8FAF74DFC00BF80BD80B500AFFAF747FC00BF80BD80B500AFFAF741FC00BF80BD80B500AFFAF73BFCAB
S32D00011AD000BF80BD80B500AFFAF735FC00BF80BD80B500AFFAF72FFC00BF80BD80B500AFFAF729FC00BF80BDF7
S32D00011AF880B500AFFAF723FC00BF80BD80B500AFFAF71DFC00BF80BD80B500AFFAF717FC00BF80BD80B500AF1D
S32D00011B20FAF711FC00BF80BD80B500AFFAF70BFC00BF80BD80B500AFFAF705FC00BF80BD80B500AFFAF7FFFB23
S32D00011B4800BF80BD80B500AFFAF7F9FB00BF80BD80B500AFFAF7F3FB00BF80BD80B500AFFAF7EDFB00BF80BD35
S32D00011B7080B500AFFAF7E7FB00BF80BD80B500AFFAF7E1FB00BF80BD80B500AFFAF7DBFB00BF80BD80B500AF5B
S32D00011B98FAF7D5FB00BF80BD80B584B000AFF8600B467A60FB72FB68FA7A1A71FB6800225A711749786837F040
S32D00011BC063FD0346002B02D0134B7B600AE04FF07E51786837F044FD0346002B02D04FF07E537B60786836F0A0
S32D00011BE8FBFE09A3D3E9002336F04EFF02460B461046194637F02AFA0246FB681A60FB6818461037BD4680BDD1
S32D00011C10ABAAAAAAAAAA20400000404180B582B000AF78607B685B79002B09D07B6800225A717B6819791E2398
S32D00011C380022034801F064FE00BF0837BD4680BD0C1A002080B584B000AF786039603B687F2B02DD7F23FB7374
S32D00011C6008E03B6813F1800F02DA8023FB7301E03B68FB737B685B79FA7B9A4209D07B68FA7B5A717B681979DF
S32D00011C88FA7B1E23034801F03BFE00BF1037BD4680BD00BF0C1A0020B0B584B000AF786039603749386837F0B7
S32D00011CB0CDFC0346002B02D0334B3B6008E03349386837F0E1FC0346002B01D02F4B3B60386836F085FE0446E8
S32D00011CD80D467B681B68184636F07EFE4FF00002294B36F0FBFF02460B462046294636F0CBFE02460B46104603
S32D00011D00194637F0A7F903463B604FF00001386837F0B0FC0346002B10D0386836F060FE17A3D3E9002336F0C0
S32D00011D28B3FE02460B461046194637F047F90346FB6018E0386836F04FFE4FF00002134B36F0A2FE02460B4679
S32D00011D50104619464FF000020D4B36F0C3FF02460B461046194637F02DF90346FB60F9687868FFF76BFF00BF8F
S32D00011D781037BD46B0BD00BF52B81E85EB51F43F0000C8C20000C842000059400000604080B483B000AF03467E
S32D00011DA00A46FB711346BB71BB79002B03D1134B00221A7002E0114B01221A703823FB710E4B1A78FB7913432F
S32D00011DC8FB710D4B9B78DBB20B4A43F01003DBB29370094B9B78DBB2074A43F02003DBB29370054AFB791371EB
S32D00011DF000BF0C37BD4680BC704700BFE91700200060064080B483B000AF01237B607B68312B04DC00BF7B6871
S32D00011E1801337B60F7E700BF0C37BD4680BC704780B582B000AF03460A46FB711346BB71134B1B7800211846A6
S32D00011E40FFF7AAFF00F024F8104AFB79137100F01FF80E4ABB79137100F01AF80B4B9B78DBB20A4A23F02003DD
S32D00011E68DBB29370074B9B78DBB2064A23F01003DBB29370FFF7C2FF00BF0837BD4680BDEA1700200060064007
S32D00011E9080B483B000AF174B1B78002B24D100237B60154BDB78DBB203F00203002B0CBF01230023DBB2002BCD
S32D00011EB80DD07B6842F21072934203DD0B4B01221A7004E07B6801337B6000BFE5E7084BDB78DBB2064A43F0B6
S32D00011EE00203DBB2D37000E000BF0C37BD4680BC704700BFEB1700200060064080B582B000AF0346FB71FB7960
S32D00011F08184600F05FF800BF0837BD4680BD80B582B000AF03460A46FB711346BB7100F035F8FB795B00DBB2AE
S32D00011F301846FFF7E3FFBB791846FFF7DFFF00F037F800BF0837BD4680BD80B500AFFF2000F03CF803461846BB
S32D00011F5880BD80B584B000AF0346FB7100F016F8FB795B005BB243F001035BB2DBB21846FFF7C0FFFFF7E5FFB8
S32D00011F800346FB7300F014F8FB7B18461037BD4680BD000080B400AF044B9B68034A43F48013936000BFBD4623
S32D00011FA880BC704740F00F4080B400AF044B5B68034A43F48013536000BFBD4680BC704740F00F4080B485B03C
S32D00011FD000AF0346FB710023BB73164BDB6A03F00043012B0CBF01230023DBB2002B03D0FB7B0133FB73F0E799
S32D00011FF80E4BDB6A0D4A43F00043D3620B4AFB7953630A4BDB6A03F40033002B0CBF01230023DBB2002B00D012
S32D00012020F3E7044B9B6BBB73BB7B18461437BD4680BC704700C00A4080B582B000AF204B03F580531B6B1E4A1B
S32D0001204843F4805302F5805213631C4B4FF480721A651B4B5B691A4A43F480135361FFF7A3FF164B4FF400724B
S32D000120705A65144B4FF400729A65124B4FF40072DA65124B124A1A60104B124ADA6000237B607B68092B06DC03
S32D00012098FF20FFF72FFF7B6801337B60F5E704A1D1E9000101F0BAFC00BF0837BD4680BD9A9999999999B93F34
S32D000120C00070044000A0044040F00F4000C00A40000C00800500003E90B486B000AFF860B9607A60FB68534A8D
S32D000120E893420AD1524B03F580535B6B504A43F4806302F58052536345E0FB684D4A93420AD14B4B03F5805388
S32D000121105B6B494A43F4006302F58052536336E0FB68474A93420AD1434B03F580535B6B414A43F4805302F5C9
S32D000121388052536327E0FB68404A93420AD13C4B03F580535B6B3A4A43F4005302F58052536318E0FB683A4AC8
S32D0001216093420AD1344B03F580539B6A324A43F4806302F58052936209E02F4B03F580539B6A2D4A43F40063B9
S32D0001218802F580529362FB68DB78DBB223F00C03DAB2FB68DA70FB6800229A70BB684FF47A7203FB02F27B6816
S32D000121B01B0192FBF3F39CB2FB681B78DBB223F01F03FB75230A9BB2DBB203F01F03DAB2FB7D1343DAB2FB6896
S32D000121D81A70E2B2FB685A70BB684FF4FA4203FB02F27B681B0192FBF3F39AB263019BB2D31A9CB2FB689B7AD7
S32D00012200DBB223F01F03FB75E3B203F01F03DAB2FB7D1343DAB2FB689A72FB68DB78DBB243F00C03DAB2FB680A
S32D00012228DA7000BF1837BD4690BC704700A006400070044000B0064000C0064000D0064000A00E4080B483B028
S32D0001225000AF78607B681B79DBB203F02003002B0CBF01230023DBB2002B00D0F2E77B68DB79DBB218460C37BB
S32D00012278BD4680BC704780B483B000AF78600B46FB707B681B79DBB25BB2DB43DBB2DB09DBB2002B00D0F4E794
S32D000122A07B68FA78DA7100BF0C37BD4680BC704780B487B000AFF860B9607A60FB687B617B685A1E7A60002B73
S32D000122C814BF01230023DBB2002B06D07B695A1C7A61BA68D2B21A70EEE700BF1C37BD4680BC704780B584B094
S32D000122F000AF786039607B681B6BFB60FA683B689A4252D07B681B79002B35D07B6858787B6803F1340101234E
S32D00012318FA6801F0F7F80346002B14BF01230023DBB2002B01D001233CE07B6800221A717B685A6A7B681B6A5E
S32D000123401344FA689A4217D27B68DB78FB72FB7A012B11D97B681B6AFA681344FB607B6858787B6803F1340187
S32D000123680123FA6801F0CEF8FB7A013BFB72EAE73B68002B15D07B6858787B6803F1340101233A6800F0DAFF19
S32D000123900346002B14BF01230023DBB2002B01D0012303E07B683A681A63002318461037BD4680BD80B584B08D
S32D000123B800AF786000217868FFF794FF0346FB73FB7B002B40F093807B681B78032B7DD17B685B79002B79D02D
S32D000123E07B6800221A637B6834334FF4007200211846FFF75DFF7B68552283F832227B68AA2283F833227B68F1
S32D00012408522283F834207B68522283F835207B68612283F836207B68412283F837207B68722283F818227B68DD
S32D00012430722283F819227B68412283F81A227B68612283F81B227B681B69DAB27B6883F81C227B681B699BB2D5
S32D000124581B0A9BB2DAB27B6883F81D227B681B691B0CDAB27B6883F81E227B681B691B0EDAB27B6883F81F2247
S32D000124807B68DB68DAB27B6883F820227B68DB689BB21B0A9BB2DAB27B6883F821227B68DB681B0CDAB27B680D
S32D000124A883F822227B68DB681B0EDAB27B6883F823227B6858787B6803F134017B685A69012301F01FF87B6854
S32D000124D000225A717B685B7800220021184601F0E1F80346002B14BF01230023DBB2002B01D00123FB73FB7BB0
S32D000124F818461037BD4680BD80B582B000AF78600B467B807B68002B08D07B681B78002B04D07B68DB887A88F3
S32D000125209A4201D0092311E07B685B78184601F03BF9034603F00103002B14BF01230023DBB2002B01D0032355
S32D0001254800E0002318460837BD4680BD80B586B000AF78607B681A687B689B8819461046FFF7CAFF0346FB75FA
S32D00012570FB7D002B40F0AC807B689B7903F02003002B00F0A5807B689B7903F04003002B1BD07B681B68587877
S32D000125987B6803F128017B689A69012300F0B2FF0346002B14BF01230023DBB2002B01D001238AE07B689B79CD
S32D000125C023F04003DAB27B689A717B681A687B68DB6919461046FFF789FE0346FB75FB7D002B75D17B681B6A54
S32D000125E83B613B690B331A783B690B3342F02002D2B21A707B68DA683B691C33D2B21A707B68DB689BB21B0AB2
S32D000126109AB23B691D33D2B21A707B68DB681A0C3B691E33D2B21A707B68DB681A0E3B691F33D2B21A707B68C9
S32D000126381A693B691A33D2B21A707B681B699BB21B0A9AB23B691B33D2B21A707B681B691A0C3B691433D2B2D0
S32D000126601A707B681B691B0C9BB21B0A9AB23B691533D2B21A700023FB603B691633FA68D2B21A70FB689BB2F0
S32D000126881B0A9AB23B691733D2B21A70FB681A0C3B691833D2B21A70FB681A0E3B691933D2B21A707B689B79B0
S32D000126B023F02003DAB27B689A717B681B6801221A717B681B681846FFF774FE0346FB75FB7D18461837BD462A
S32D000126D880BD80B584B000AF78607868FFF736FF0346FB73FB7B002B02D17B6800221A60FB7B18461037BD46D3
S32D0001270080BD000080B588B000AF7860396080233B610F23FB604FF0FF337B610223FB61FB69B3F5807F23D840
S32D000127280123BB61BB69102B1AD8FB69BA6902FB03F33A6803FB02F27B68D31ABB60BB68002B09DBBB687A69C0
S32D000127509A4205D9BB687B61FB693B61BB69FB60BB690133BB61E1E7FB695B00FB61D7E71D4BDB6A1C4A23F0E7
S32D000127780803D3621A4BDB6A23F47F2323F47F63BB613B695B081B029AB2FB68013B1B01DBB21A43BB691343EB
S32D000127A0114A43F46023D3620F4B5B6A03F00803002B0CBF01230023DBB2002B03D00A2001F01AF9F0E7084B83
S32D000127C8DB6A074A43F00803D362054B1B6B044A43F48013136300BF2037BD4680BD00BF00100B4080B582B09E
S32D000127F000AF786039607B6800221A60414B424ADA62404BDB6A03F08073002B14BF01230023DBB2002B00D044
S32D00012818F3E73A4B0022C3F8C020384B4FF481325A60364B28229A62344B4FF001125A643B689B68334918466C
S32D00012840FFF760FF2F4B5B6A03F00303002B14BF01230023DBB2002B00D0F3E72C4B40F243421A602A4B40F2E6
S32D0001286843425A60284B4FF488629A60264B40F24342DA60244B40F243421A61224B40F243425A61214B03F522
S32D0001289080531B6B1F4A43F4003302F580521363184B4FF6FF721A63164B1B4A5A63154BDB6A144A43F00063FC
S32D000128B8D362124BDB6A03F00063002B14BF01230023DBB2002B00D0F3E70C4B5B6A03F48033002B14BF012335
S32D000128E00023DBB2002B02D07B6801221A60054B1B6B044A43F080031363002318460837BD4680BD00100B40F1
S32D000129080080000160CC050000D0044000700440B3007F0080B400AF064B5A6A40F207331340002B14BF01231B
S32D000129300023DBB21846BD4680BC704700100B4080B485B000AF7860074B1B6B7A681340FB60FB68002B00D162
