S01100002E2E2F50726F746575732E73313966
S32D0000C000000000205DC2000011C3000017C300001DC3000023C3000029C3000000000000000000000000000073
S32D0000C028000000002FC3000035C30000000000003BC3000041C30000D5390100E1390100ED390100F93901007A
S32D0000C050053A0100113A01001D3A0100293A0100353A0100413A01004D3A0100593A0100653A0100713A010026
S32D0000C0787D3A0100893A0100953A0100A13A0100AD3A0100B93A0100C53A0100D13A0100DD3A0100E93A01004E
S32D0000C0A0F53A0100013B01000D3B0100193B0100253B0100313B01003D3B0100493B0100553B0100613B01006D
S32D0000C0C86D3B0100793B0100853B0100913B01009D3B0100A93B0100B53B0100C13B0100CD3B0100D93B010094
S32D0000C0F0E53B01002D8B0100F13B0100FD3B0100093C0100153C0100213C01002D3C0100393C0100453C01008A
S32D0000C118513C01005D3C0100693C0100753C0100813C01008D3C0100993C0100A53C0100B13C0100BD3C010051
S32D0000C140C93C0100D53C0100E13C0100ED3C0100F1670100F93C0100053D0100113D01001D3D0100293D01008E
S32D0000C168353D0100413D01004D3D0100593D0100653D0100713D01007D3D0100893D0100953D0100A13D01000F
S32D0000C190AD3D0100B93D0100C53D0100E5630100AD620100496301005937010085640100D13D0100DD3D0100F1
S32D0000C1B8E93D01009091060000000020C8170000909106000000FF1F00000000C8170020D81A00000000FF1FB8
S32D0000C1E00000000080B489B000AFF860B9607A60BB68FB61FB68BB6100237B617A697B689A420BD2BA69131DFB
S32D0000C208BB61FB69191DF96112681A607B6904337B61EFE700BF2437BD4680BC704780B485B000AF786039609E
S32D0000C2307B68FB600023BB60BA683B689A4208D2FB681A1DFA6000221A60BB680433BB60F2E700BF1437BD46FE
S32D0000C25880BC704780B586B000AF72B6234B4CF220521A80214B4DF628121A80204B4FF4E9721A801F4B7B615F
S32D0000C2807B691F4A934214D27B691A1D7A611B683B617B691A1D7A611B68FB607B691A1D7A611B68BB60BA68E9
S32D0000C2A8F9683869FFF79AFFE6E77B69134A93420ED27B691A1D7A611B68FB607B691A1D7A611B68BB60B9688B
S32D0000C2D0F868FFF7A8FFECE70B4B7B600B4A7B681A6041F0CFFE62B607F0FEFA00F044F9FEE700BF0E20054044
S32D0000C2F800200540BCC10000D4C10000E4C1000008ED00E000C0000080B400AFFEE780B400AFFEE780B400AFF4
S32D0000C320FEE780B400AFFEE780B400AFFEE780B400AFFEE780B400AFFEE780B400AFFEE780B400AFFEE780B426
S32D0000C34800AFFEE7FFFFFFFFFFFFFFFFFFFFFFFFFFFFFFFFFFFFFFFFFFFFFFFFFFFFFFFFFFFFFFFFFFFFFFFF57
S32D0000C370FFFFFFFFFFFFFFFFFFFFFFFFFFFFFFFFFFFFFFFFFFFFFFFFFFFFFFFFFFFFFFFFFFFFFFFFFFFFFFFFC7
S32D0000C398FFFFFFFFFFFFFFFFFFFFFFFFFFFFFFFFFFFFFFFFFFFFFFFFFFFFFFFFFFFFFFFFFFFFFFFFFFFFFFFF9F
S32D0000C3C0FFFFFFFFFFFFFFFFFFFFFFFFFFFFFFFFFFFFFFFFFFFFFFFFFFFFFFFFFFFFFFFFFFFFFFFFFFFFFFFF77
S32D0000C3E8FFFFFFFFFFFFFFFFFFFFFFFFFFFFFFFFFFFFFFFFFFFFFFFFFFFFFFFFFFFFFFFFFFFFFFFFFEFFFFFF50
S32D0000C44010B5054C237833B9044B13B10448AFF300800123237010BDC817002000000000007E060008B5034B9E
S32D0000C4681BB103490348AFF3008008BD00000000CC170020007E06002DE9B0438AB000AFF860B9607A603B60FD
S32D0000C490FA687B68D31A18463EF0F8FC02460B46C7E90823BA683B68D31A18463EF0EEFC02460B46C7E90623BE
S32D0000C4B8D7E90823D7E908013EF04EFD02460B4614461D463B6C03FB03F318463EF0DAFC02460B462046294668
S32D0000C4E03EF068FE02460B4614461D46D7E90623D7E906013EF034FD02460B46904699467B6C03FB03F31846AE
S32D0000C5083EF0C0FC02460B46404649463EF04EFE02460B46204629463EF068FB02460B46C7E9042301231C46FE
S32D0000C5304FF00002074BD7E904013EF08DFF0346002B01D100231C46E3B218462837BD46BDE8B0830000F03FA4
S32D0000C55880B582B000AF78607B685C3318462AF03DF97B6818460837BD4680BD00000000F0B5ADF6B42D04AF0B
S32D0000C58007F52A63A3F51C734FF000021A6007F52A63A3F51C734FF000025A6007F52A63A3F51C734FF0000286
S32D0000C5A89A60EB4BC7F8883A002387F8873A012387F8863A032387F8853A002387F8843A022387F8833A0423A2
S32D0000C5D087F8823A97F8864A97F8842A97F8871A07F5AA60D7F8883A039397F8823A029397F8853A019397F8B8
S32D0000C5F8833A0093234605F061FD022387F8813A97F8811A07F5A963D24A184607F0F0FB07F244530821184605
S32D0000C62009F0A0FF07F5A8631521184609F09AFF07F23C531621184609F094FF07F5A7631721184609F08EFF5C
S32D0000C648152387F8803A152387F87F3A152387F87E3A97F87E3A97F87F2A97F8801A07F2EC4002F05FFF07F55B
S32D0000C6709D630F21184609F043FB07F2DC43072118460AF063FA07F2DC4340F23A3118460AF078FA07F2DC434B
S32D0000C69840F6860118460AF08EFA07F59663184604F04CFD07F52A63A3F5187307F5AA621146184601F0CCFB26
S32D0000C6C007F5046207F63C031146184601F011FC07F63C0207F596631146184604F056FD07F63C03184601F044
S32D0000C6E820FC07F50463184601F0CCFB07F52A63A3F5167007F5A96307F2DC4207F5AA6101F031FC07F648025D
S32D0000C71007F644031146184601F084FC07F6440207F596631146184604F030FD07F64403184601F0FAFB07F6FE
S32D0000C7384803184601F03FFC002387F89F3A864BC7F8983A4FF00003C7F8943A4FF00003C7F8903A07F64C033B
S32D0000C76018460CF0DBFC07F64C0207F592637D4918462AF0C5FB07F64C0318460CF0D0FC07F59263083B18463C
S32D0000C7880EF0ECFC07F6680318460CF0C3FC07F6680207F50563724918462AF0ADFB07F5056207F214408B2318
S32D0000C7B00093FF23002102F04BF907F5056318462AF010F807F6680318460CF0A9FC07F214431E21184602F025
S32D0000C7D84FFC07F6840318460CF09CFC07F6840207F66C035F4918462AF086FB07F66C0207F568708B23009362
S32D0000C800FF23232102F024F907F66C03184629F0E9FF07F6840318460CF082FC07F568731E21184602F028FCE4
S32D0000C82807F50A6318460CF075FC07F50A6207F688034D4918462AF05FFB07F6880207F54B708B230093FF23B5
S32D0000C850462102F0FDF807F68803184629F0C2FF07F50A6318460CF05BFC07F54B731E21184602F001FC07F64F
S32D0000C878BC0318460CF04EFC07F6BC0207F6A4033A4918462AF038FB07F6A40207F52E708B230093FF23692178
S32D0000C8A002F0D6F807F6A403184629F09BFF07F6BC0318460CF034FC07F52E731E21184602F0DAFB0123C7F8CB
S32D0000C8C8783A07F5AA63184606F09EFC28480AF0C2FD27480BF0A8F9002387F88F3A254B1B78002B65D197F807
S32D0000C8F08F3A002B61D107F56873184602F046FA07F21443184602F041FA07F54B73184602F03CFA07F52E73D5
S32D0000C918184602F037FA07F56873184602F093FB0346002B05D0134B02221A70012387F88F3A07F2144318464C
S32D0000C94002F085FB0346002B1AD00C4B01221A70012387F88F3A13E00000C040000090409A99193F04EA050048
S32D0000C96810EA050018EA050024EA050030EA0500C81A0020E517002007F54B73184602F062FB0346002B05D09B
S32D0000C9903C4B03221A70012387F88F3A07F52E73184602F054FB0346002B9CD0354B04221A70012387F88F3A1F
S32D0000C9B895E707F52A63A3F51C73196807F52A63A3F51C735A6807F52A63A3F51C739B6807F5AA6005F03AFD4D
S32D0000C9E029480AF03CFD28480BF022F9002387F88E3A97F88E3A002B41F01B8207F5AA63184606F0EEFB1F4B95
S32D0000CA081B78012B40D109F05BF9034618463EF08BFE0346C7F8283AB4230022194918480AF072FD07F52A636E
S32D0000CA30A3F5F07307F596621146184604F030FC07F50C61C32300220F480AF084FD07F50C63184629F0C6FE2B
S32D0000CA5807F59663184604F0A9FB07F59663184604F029FC0346002BBFD0012387F88E3A07F5AA63184605F08F
S32D0000CA803DFEB6E7E5170020C81A002040EA0500DF4B1B78032B40F0C783DE4BC7F8403A07F50F6318460CF0D4
S32D0000CAA839FB07F50F6207F6D803D94918462AF023FA07F6D80338464FF4C84201924FF47F0200924FF0000263
S32D0000CAD0D24902F073F807F6D803184629F082FE07F50F6318460CF01BFB3B461E21184602F0C2FA3B46184668
S32D0000CAF802F048F907F60C1318460CF00BFB07F60C1207F6F403C44918462AF0F5F907F6F40307F174004FF43C
S32D0000CB20C84201924FF400420092BE4ABB4902F045F807F6F403184629F054FE07F60C1318460CF0EDFA07F1E6
S32D0000CB4874031E21184602F093FA07F17403184602F018F907F6281318460CF0DBFA07F6281207F51163AE4957
S32D0000CB7018462AF0C5F907F5116307F1E8004FF4C84201924FF6FF720092A84AA34902F015F807F5116318463E
S32D0000CB9829F024FE07F6281318460CF0BDFA07F1E8031E21184602F063FA07F1E803184602F0E8F89749D7F85A
S32D0000CBC0400A3EF005FD03461C4607F6441318460CF0A4FA07F6441207F62C13944918462AF08EF907F62C132F
S32D0000CBE807F5AE704FF40B0201924FF47F0200924FF00002214601F0DDFF07F62C13184629F0ECFD07F6441367
S32D0000CC1018460CF085FA07F5AE731E21184602F02BFA07F5AE73184602F0B0F87B49D7F8400A3EF0CDFC03461A
S32D0000CC381C4607F5166318460CF06CFA07F5166207F64813794918462AF056F907F6481307F5E8704FF40B02E6
S32D0000CC6001924FF4004200926E4A214601F0A6FF07F64813184629F0B5FD07F5166318460CF04EFA07F5E87358
S32D0000CC881E21184602F0F4F907F5E873184602F079F86049D7F8400A3EF096FC03461C4607F67C1318460CF0D7
S32D0000CCB035FA07F67C1207F664135F4918462AF01FF907F6641307F511704FF40B0201924FF6FF720092554A35
S32D0000CCD8214601F06FFF07F66413184629F07EFD07F67C1318460CF017FA07F511731E21184602F0BDF907F54A
S32D0000CD001173184602F042F83B46184602F09FF90346002B11D0D7F8980A3EF0C9F838A3D3E900233DF066FF8D
S32D0000CD2802460B46104619463EF0F8FB0346C7F8983A07F5AE73184602F085F90346002B11D0D7F8980A3EF0B5
S32D0000CD50AFF82BA3D3E900233DF04AFF02460B46104619463EF0DEFB0346C7F8983A07F17403184602F06BF999
S32D0000CD780346002B11D0D7F8940A3EF095F820A3D3E900233DF032FF02460B46104619463EF0C4FB0346C7F8CD
S32D0000CDA0943A07F5E873184602F051F90346002B11D0D7F8940A3EF07BF813A3D3E900233DF016FF02460B46D3
S32D0000CDC8104619463EF0AAFB0346C7F8943A07F1E803184602F037F90346002B31D0D7F8900A3EF061F806A36E
S32D0000CDF0D3E900233DF0FEFE02460B461EE000BF9A9999999999B93FFCA9F1D24D62503FE517002000005C43C7
S32D0000CE1854EA0500000070415CEA050000000C4264EA050000008C426CEA050074EA05007CEA05001046194660
S32D0000CE403EF070FB0346C7F8903A07F51173184602F0FDF80346002B11D0D7F8900A3EF027F8CDA3D3E900233A
S32D0000CE683DF0C2FE02460B46104619463EF056FB0346C7F8903A07F5AA60D7F8903A0093D7F8943AD7F8982AB0
S32D0000CE90012106F075F907F5AA60D7F8903A0093D7F8943AD7F8982A022106F069F907F5AA60D7F8903A0093E1
S32D0000CEB8D7F8943AD7F8982A032106F05DF9B4236422B549B5480AF01FFBB4237822D7F8981AB2480AF050FB11
S32D0000CEE0C8236422B049AF480AF012FBC8237822D7F8941AAB480AF043FBDC236422AB49A8480AF005FBDC232D
S32D0000CF087822D7F8901AA5480AF036FB64230022A549A2480AF0F8FA07F5AA63184606F08AF90146642328226B
S32D0000CF309C480AF025FB782300229E4999480AF0E7FA07F5AA63184605F03DFC01467823282294480AF014FBCF
S32D0000CF588C230022964991480AF0D6FA07F5AA63184606F077F901468C2328228B480AF003FB904BC7F83C3A70
S32D0000CF808F4BC7F8383AD7F8380A3EF005FE04468C49D7F83C0A3EF01BFB034618463EF0FBFD0346224688496F
S32D0000CFA87E480AF0B1FA07F52A63A3F51C731C68D7F8380A3EF0ECFD05468249D7F83C0A3EF002FB0346184697
S32D0000CFD03EF0E2FD03462A46214672480AF0D0FAD7F8380A3EF0D8FD04467949D7F83C0A3EF0EEFA0346184696
S32D0000CFF83EF0CEFD03462246744968480AF084FA07F52A63A3F51C735C68D7F8380A3EF0BFFD05466E49D7F83C
S32D0000D0203C0A3EF0D5FA034618463EF0B5FD03462A4621465B480AF0A3FA684BC7F8343A634BC7F8303A07F50B
S32D0000D048AA630121184606F04BF83223C7F82C3AFF2152480AF045FAD7F82C0A3EF064FB0446D7F82C0A3EF078
S32D0000D0705FFB034600932346D7F8302AD7F8341A48480BF083F807F5956207F2AC43194644480AF045FB03465E
S32D0000D098002B00F0A18007F52A63A3F2F4531B6818463EF075FD044607F52A63A3F5BF631B6818463EF06CFD43
S32D0000D0C00546D7F8340A3EF067FD0646D7F8300A3EF062FD0146D7F82C3AD7F82C2A019200930B463246294677
S32D0000D0E82046FFF7C9F90346002B7AD007F52A63A3F2F4531B68D7F8341A18463EF062FA03461C46D7F82C0AA1
S32D0000D1103EF00EFB0346194620463EF015FC034683F0004207F52A63A3F51C731A6007F52A63A3F5BF631B687F
S32D0000D138D7F8301A18463EF045FA03461C46D7F82C0A3EF0F1FA0346194620463EF0F8FB03461A4607F52A63BB
S32D0000D160A3F51C735A6007F52A63A3F51C73196807F52A63A3F51C735A6807F52A63A3F51C739B6807F5AA6064
S32D0000D18805F064F907F5AA63184605F077F928E0FCA9F1D24D62503F84EA0500C81A002088EA05008CEA050046
S32D0000D1B090EA050098EA0500A0EA050000001643000034430000B442A8EA05000000D2420000F042B4EA050076
S32D0000D1D8000007430000204307F5AA63184605F089FA07F511731846FFF7B2F907F5E8731846FFF7ADF907F5D1
S32D0000D200AE731846FFF7A8F907F1E8031846FFF7A3F907F174031846FFF79EF93B461846FFF79AF9FFF7E5BBBF
S32D0000D228CF4B1B78042B40F0338307F5AA63184605F042FB4FF00003C7F8583AC94BC7F8543AC94BC7F8503A2C
S32D0000D2504FF00001D7F8580A3EF0BAF9034618463EF09AFC03460022C249C3480AF050F907F5AA63184605F0D3
S32D0000D278B5FA03461C68BF49D7F8580A3EF0A4F9034618463EF084FC034600222146B8480AF072F9B349D7F8B1
S32D0000D2A0580A3EF095F9034618463EF075FC03460022B349B0480AF02BF907F5AA63184605F090FA0346043319
S32D0000D2C81C68AE49D7F8580A3EF07EF9034618463EF05EFC034600222146A5480AF04CF9A749D7F8580A3EF06B
S32D0000D2F06FF9034618463EF04FFC03460022A3499D480AF005F907F5AA63184605F06AFA034608331C689E49A5
S32D0000D318D7F8580A3EF058F9034618463EF038FC03460022214692480AF026F99749D7F8580A3EF049F903469F
S32D0000D34018463EF029FC0346002293498A480AF0DFF807F59D63184608F0AEFD03461C468E49D7F8580A3EF046
S32D0000D36833F9034618463EF013FC0346002221467F480AF071F98549D7F8540A3EF024F9034618463EF004FC6F
S32D0000D39003460022824978480AF0BAF807F5A863184609F0F1F8034618463DF081FD68A3D3E900233DF01CFC05
S32D0000D3B802460B4614461D467649D7F8540A3EF003F9034618463EF0E3FB034601930023009322462B4666480E
S32D0000D3E00AF02AF96F49D7F8540A3EF0F1F8034618463EF0D1FB034600226B495E480AF087F807F23C53184641
S32D0000D40809F0BEF8034618463DF04EFD50A3D3E900233DF0EBFB02460B4614461D466149D7F8540A3EF0D0F820
S32D0000D430034618463EF0B0FB034601930023009322462B464C480AF0F7F85949D7F8540A3EF0BEF8034618460B
S32D0000D4583EF09EFB03460022544945480AF054F807F5A763184609F08BF8034618463DF01BFD39A3D3E900237D
S32D0000D4803DF0B8FB02460B4614461D464A49D7F8540A3EF09DF8034618463EF07DFB034601930023009322467D
S32D0000D4A82B4633480AF0C4F807F6981318460BF031FE07F6981207F518633E49184629F01BFD07F5186207F1E2
S32D0000D4D0E8004FF4C84300934FF40043002101F0B7FA07F51863184629F07CF907F6981318460BF015FE07F1AD
S32D0000D4F8E8031E21184601F0BBFD07F6B41318460BF008FE07F6B41207F69C132A49184629F0F2FC07F69C12C0
S32D0000D52007F5AE704FF40B0300934FF47F031E2101F08EFA07F69C13184629F053F907F6B41318460BF0ECFDED
S32D0000D54807F5AE733AE000BF894160E5D022CB3F4260E5D022DBB93FD122DBF97E6ABC3FE51700200000F04171
S32D0000D5700000BE42BCEA0500C81A002000007041C4EA05000000344200007042CCEA0500000096420000B442CB
S32D0000D598D8EA05000000D242E8EA050000000243F0EA05000000114300002043F8EA050000002F4300EB05008F
S32D0000D5C00CEB05001E21184601F056FD07F51D6318460BF0A3FD07F51D6207F6B813A649184629F08DFC07F6BC
S32D0000D5E8B81207F5E8708B230093FF23B42101F02BFA07F6B813184629F0F0F807F51D6318460BF089FD07F52B
S32D0000D610E8731E21184601F02FFD07F6EC1318460BF07CFD07F6EC1207F6D4139349184629F066FC07F6D41292
S32D0000D63807F511708B230093FF23D22101F004FA07F6D413184629F0C9F807F6EC1318460BF062FD07F51173B2
S32D0000D6601E21184601F008FD07F5AE73184601F08DFB07F1E803184601F088FB07F5E873184601F083FB07F540
S32D0000D6881173184601F07EFB07F5E873184601F0CFFC0346002B06D007F2DC434FF00001184609F0A5FA07F523
S32D0000D6B01173184601F0C0FC0346002B05D007F2DC436F49184609F097FA07F1E803184601F0B2FC0346002B68
S32D0000D6D806D007F5A9636949184606F009FC13E007F5AE73184601F0A3FC0346002B06D007F5A96362491846E2
S32D0000D70006F0FAFB04E007F5A963184606F0B2FB5E4BC7F84C3A5E4BC7F8483A07F5AA630121184605F0E0FCF1
S32D0000D7283223C7F8443AFF21584809F0DAFED7F8440A3DF0F9FF0446D7F8440A3DF0F4FF034600932346D7F8D3
S32D0000D750482AD7F84C1A4F480AF018FD07F5956207F2AC4319464B4809F0DAFF0346002B66D007F52A63A3F2F7
S32D0000D778F4531B6818463EF00BFA044607F52A63A3F5BF631B6818463EF002FA0546D7F84C0A3EF0FDF90646B0
S32D0000D7A0D7F8480A3EF0F8F90146D7F8443AD7F8442A019200930B46324629462046FEF75FFE0346002B40D0B0
S32D0000D7C807F52A63A3F2F4531B68D7F84C1A18463DF0F8FE03461C46D7F8440A3DF0A4FF0346194620463EF0C1
S32D0000D7F0ABF8034683F00043194618463DF0E8FE03461A4607F52A63A3F51C731A6007F52A63A3F51C73196895
S32D0000D81807F52A63A3F51C735A6807F52A63A3F51C739B6807F5AA6004F010FE07F5AA63184604F023FE04E055
S32D0000D84007F5AA63184604F059FF07F511731846FEF782FE07F5E8731846FEF77DFE07F5AE731846FEF778FEA9
S32D0000D86807F1E8031846FEF773FEFFF7BEB800BF18EB050024EB0500000034430000A0420000A0C20000204386
S32D0000D8900000F042C81A00204FF00003C7F8743AC84BC7F8703A4FF00001D7F8740A3DF08FFE034618463EF0EF
S32D0000D8B86FF903460022C249C24809F025FE07F5AA63184604F060FF0446BF49D7F8740A3DF07AFE0346184699
S32D0000D8E03EF05AF9034600222146B84809F048FEB849D7F8740A3DF06BFE034618463EF04BF903460022B44923
S32D0000D908B04809F001FE07F5AA63184604F049FF0446B049D7F8740A3DF056FE034618463EF036F903460022DE
S32D0000D9302146A64809F024FEA949D7F8740A3DF047FE034618463EF027F903460022A5499E4809F0DDFD07F5A5
S32D0000D958AA63184604F033FF0446A149D7F8740A3DF032FE034618463EF012F9034600222146944809F000FEAD
S32D0000D9804FF00001D7F8700A3DF022FE034618463EF002F90346002294498C4809F0B8FD07F5AA63184604F0AE
S32D0000D9A8C9FE04468849D7F8700A3DF00DFE034618463EF0EDF8034600222146814809F0DBFD8249D7F8700AB4
S32D0000D9D03DF0FEFD034618463EF0DEF80346002283497A4809F094FD07F5AA63184604F0B2FE04467949D7F8ED
S32D0000D9F8700A3DF0E9FD034618463EF0C9F80346002221466F4809F0B7FD7349D7F8700A3DF0DAFD03461846F8
S32D0000DA203EF0BAF8034600227249684809F070FD07F5AA63184604F09CFE04466A49D7F8700A3DF0C5FD034649
S32D0000DA4818463EF0A5F80346002221465D4809F093FD6749D7F8700A3DF0B6FD034618463EF096F803460022E0
S32D0000DA706249564809F04CFD07F24453184608F083FD04465E49D7F8700A3DF0A1FD034618463EF081F80346FB
S32D0000DA98002221464B4809F06FFD4F4BC7F86C3A564BC7F8683AD7F8680A3EF071F804464F49D7F86C0A3DF0B2
S32D0000DAC087FD034618463EF067F8034622464E493E4809F01DFD07F52A63A3F51C731C68D7F8680A3EF058F8AC
S32D0000DAE805464549D7F86C0A3DF06EFD034618463EF04EF803462A462146324809F03CFDD7F8680A3EF044F8C8
S32D0000DB1004463E49D7F86C0A3DF05AFD034618463EF03AF8034622463949284809F0F0FC07F52A63A3F51C730E
S32D0000DB385C68D7F8680A3EF02BF805463349D7F86C0A3DF041FD034618463EF021F803462A4621461B4809F088
S32D0000DB600FFD07F6082318460BF0D8FA07F6082207F51F632849184629F0C2F907F51F6307F5E8708B220192DE
S32D0000DB884FF400420092144A224901F013F807F51F63184628F022FE07F6082318460BF0BBFA07F5E8731E21B3
S32D0000DBB0184601F061FA07F6242318460BF0AEFA2EE000BF0000BE4230EB0500C81A0020000070410000F04187
S32D0000DBD83CEB050000003442000070424CEB0500000096425CEB050068EB050078EB05000000B44288EB05003D
S32D0000DC000000D24200003443A8EA05000000F042B4EA05000000074394EB050000007A4307F6242207F60C2305
S32D0000DC288449184629F068F907F60C2307F511708B2201924FF6FF7200927F4A7F4900F0B9FF07F60C23184635
S32D0000DC5028F0C8FD07F6242318460BF061FA07F511731E21184601F007FA07F5E873184601F08CF807F5117318
S32D0000DC78184601F087F807F51173184601F0D8F90346002B02D0002387F89F3A07F5E873184601F0CDF903469A
S32D0000DCA0002B05D0012387F89F3A674809F0D7FB97F89F2A07F5AA631146184605F014FA624BC7F8643A624B90
S32D0000DCC8C7F8603A3223C7F85C3AFF215C4809F008FCD7F85C0A3DF027FD0446D7F85C0A3DF022FD034600933D
S32D0000DCF02346D7F8602AD7F8641A53480AF046FA07F5956207F2AC4319464F4809F008FD0346002B7CD007F597
S32D0000DD182A63A3F2F4531B6818463DF039FF044607F52A63A3F5BF631B6818463DF030FF0546D7F8640A3DF0AF
S32D0000DD402BFF0646D7F8600A3DF026FF0146D7F85C3AD7F85C2A019200930B46324629462046FEF78DFB034629
S32D0000DD68002B56D007F52A63A3F2F4531B68D7F8641A18463DF026FC03461C46D7F85C0A3DF0D2FC03461946D7
S32D0000DD9020463DF0D9FD034683F0004207F52A63A3F51C731A6007F52A63A3F5BF631B68D7F8601A18463DF03A
S32D0000DDB809FC03461C46D7F85C0A3DF0B5FC0346194620463DF0BCFD03461A4607F52A63A3F51C735A6007F577
S32D0000DDE02A63A3F51C73196807F52A63A3F51C735A6807F52A63A3F51C739B6807F5AA6004F028FB07F5AA6395
S32D0000DE08184604F03BFB04E007F5AA63184604F071FC07F511731846FEF79AFB07F5E8731846FEF795FBFEF721
S32D0000DE30E0BD084B00221A70FEF74CBD98EB05000000BE4200007A43C81A0020000020430000F042E517002032
S32D0000DE58B0B582B000AF78603960386800F0FAF8054644200BF086F803461C462946204601F012FD2146786874
S32D0000DE8000F006F978680837BD46B0BD90B585B000AF78607B68184600F009F9F860FB681B68002B0CD078689D
S32D0000DEA800F00EF90446F86800F017F903461B681946204600F01BF9FB6800221A607B6818461437BD4690BD3B
S32D0000DED080B584B000AFF860B9607A60FB68B9687A68184600F02FF9FB6818461037BD4680BDB0B582B000AF57
S32D0000DEF8786039607C68386800F00AF90546386800F0DEF80346184600F00FF903461A4629462046FFF7D8FF79
S32D0000DF207B6818460837BD46B0BD90B585B000AF78607B68184600F01CF9F860FB681B68002B0CD0786800F087
S32D0000DF4821F90446F86800F02AF903461B681946204600F02EF9FB6800221A607B6818461437BD4690BD2DE93B
S32D0000DF70F04184B000AFF860B9607A603B60B86800F06CF80546786800F028F90646386800F02EF980464C20A4
S32D0000DF980AF0F0FF03461C46434632462946204602F0C6FA2146F86800F038F9F8681037BD46BDE8F08190B552
S32D0000DFC085B000AF78607B68184600F03AF9F860FB681B68002B0CD0786800F03FF90446F86800F048F90346A2
S32D0000DFE81B681946204600F04CF9FB6800221A607B6818461437BD4690BD80B584B000AFF860B9607A60FB68ED
S32D0000E010B9687A68184600F060F9FB6818461037BD4680BDB0B582B000AF786039607C68386800F03BF9054646
S32D0000E038386800F00FF90346184600F040F903461A4629462046FFF7D8FF7B6818460837BD46B0BD80B483B0B0
S32D0000E06000AF78607B6818460C37BD4680BC704780B582B000AF786039607B683A681146184600F040F97B68C4
S32D0000E08818460837BD4680BD80B582B000AF786039607B6839681846FFF7E6FF7B6818460837BD4680BD80B554
S32D0000E0B082B000AF78607B68184600F038F9034618460837BD4680BD80B582B000AF78607B68184600F038F9B1
S32D0000E0D8034618460837BD4680BD80B483B000AF78607B6818460C37BD4680BC704780B582B000AF7860396005
S32D0000E1003B68002B04D01A68183212681846904700BF0837BD4680BD80B582B000AF78607B68184600F01DF961
S32D0000E128034618460837BD4680BD80B483B000AF78607B6818460C37BD4680BC704790B585B000AFF860B960A1
S32D0000E1507A60FC687868FFF7ECFF024607F108031946204600F012F9FB6818461437BD4690BD80B582B000AF25
S32D0000E17878607B68184600F01EF9034618460837BD4680BD80B582B000AF78607B68184600F01EF90346184656
S32D0000E1A00837BD4680BD80B483B000AF78607B6818460C37BD4680BC704780B582B000AF786039603B68002B15
S32D0000E1C804D01A68183212681846904700BF0837BD4680BD80B483B000AF78607B6818460C37BD4680BC704734
S32D0000E1F080B483B000AF78607B6818460C37BD4680BC704780B582B000AF786039607B683A681146184600F0E8
S32D0000E218F9F87B6818460837BD4680BD80B582B000AF786039607B6839681846FFF7E6FF7B6818460837BD4660
S32D0000E24080BD80B582B000AF78607B68184600F0F1F8034618460837BD4680BD80B582B000AF78607B68184616
S32D0000E26800F0F1F8034618460837BD4680BD80B483B000AF78607B6818460C37BD4680BC704780B582B000AF0B
S32D0000E290786039603B68002B04D01A68183212681846904700BF0837BD4680BD80B582B000AF78607B68184665
S32D0000E2B800F0D6F8034618460837BD4680BD80B483B000AF78607B6818460C37BD4680BC704790B585B000AFC3
S32D0000E2E0F860B9607A60FC687868FFF7ECFF024607F108031946204600F0CBF8FB6818461437BD4690BD80B54C
S32D0000E30882B000AF786039607B68184600F0D6F87868FFF7C8FE02463B6813607B6818460837BD4680BD80B5A7
S32D0000E33082B000AF78607B68184600F0DDF8034618460837BD4680BD80B582B000AF78607B68184600F0DCF8E7
S32D0000E358034618460837BD4680BD80B584B000AF78607868FFF79FFE03461B68FB607868FFF799FE034600220F
S32D0000E3801A60FB6818461037BD4680BDB0B584B000AFF860B9607A60FC68B86800F0C4F805467868FFF7C5FE06
S32D0000E3A803461A462946204600F0C4F8FB6818461037BD46B0BD80B582B000AF78607B68184600F0D3F8034672
S32D0000E3D018460837BD4680BD80B582B000AF78607B68184600F0D2F8034618460837BD4680BD80B582B000AF1D
S32D0000E3F878607B68184600F0D1F8034618460837BD4680BD80B582B000AF786039607B68184600F0D9F8786896
S32D0000E420FFF70FFF02463B6813607B6818460837BD4680BD80B582B000AF78607B68184600F0E0F8034618460E
S32D0000E4480837BD4680BD80B582B000AF78607B68184600F0DFF8034618460837BD4680BD80B584B000AF78601B
S32D0000E4707868FFF7E6FE03461B68FB607868FFF7E0FE034600221A60FB6818461037BD4680BDB0B584B000AF74
S32D0000E498F860B9607A60FC68B86800F041F805467868FFF70CFF03461A462946204600F0BDF8FB681846103707
S32D0000E4C0BD46B0BD80B582B000AF78607B68184600F0CCF87B6818460837BD4680BD80B582B000AF78607B684A
S32D0000E4E8184600F0CFF8034618460837BD4680BD80B582B000AF78607868FFF7ECFF034618460837BD4680BDF6
S32D0000E51080B582B000AF7860786800F0CDF8034618460837BD4680BD80B483B000AF78607B6818460C37BD46BF
S32D0000E53880BC704790B585B000AFF860B9607A607868FFF7F2FD03461946F86800F0BCF8FC68B868FFF7E4FF80
S32D0000E56003461946204600F0C5F8FB6818461437BD4690BD80B582B000AF78607868FFF738FF03461846083795
S32D0000E588BD4680BD80B582B000AF7860786800F0BEF8034618460837BD4680BD80B483B000AF78607B6818465C
S32D0000E5B00C37BD4680BC704780B582B000AF7860786800F0B4F8034618460837BD4680BD80B582B000AF786086
S32D0000E5D87B68184600F0B1F87B6818460837BD4680BD80B582B000AF78607B68184600F0B4F8034618460837CA
S32D0000E600BD4680BD80B582B000AF78607868FFF7ECFF034618460837BD4680BD80B582B000AF7860786800F019
S32D0000E628B2F8034618460837BD4680BD90B585B000AFF860B9607A607868FFF740FE03461946F86800F0ABF8D1
S32D0000E650FC68B868FFF768FF03461946204600F049F8FB6818461437BD4690BD80B582B000AF7860786800F062
S32D0000E678A8F87B68184600F0B0F87B6818460837BD4680BD80B483B000AF78607B6818460C37BD4680BC7047D3
S32D0000E6A080B582B000AF7860786800F0A7F8034618460837BD4680BD80B582B000AF78607868FFF7EDFF0346D0
S32D0000E6C818460837BD4680BD80B582B000AF786039603868FFF729FD03461946786800F093F87B681846083781
S32D0000E6F0BD4680BD80B582B000AF786039603868FFF712FF03461A687B681A607B6818460837BD4680BD80B571
S32D0000E71882B000AF78607868FFF74AFF034618460837BD4680BD80B483B000AF78607B6818460C37BD4680BC24
S32D0000E740704780B582B000AF7860786800F072F87B68184600F07AF87B6818460837BD4680BD80B483B000AF53
S32D0000E76878607B6818460C37BD4680BC704780B582B000AF7860786800F071F8034618460837BD4680BD80B5AF
S32D0000E79082B000AF78607868FFF7EDFF034618460837BD4680BD80B582B000AF786039603868FFF788FD0346CF
S32D0000E7B81946786800F05DF87B6818460837BD4680BD80B582B000AF7860786800F063F87B6818460837BD4653
S32D0000E7E080BD80B483B000AF78607B6800221A607B6818460C37BD4680BC704780B483B000AF78607B681846B8
S32D0000E8080C37BD4680BC704780B582B000AF786039603868FFF789FC03461946786800F044F87B6818460837D3
S32D0000E830BD4680BD80B582B000AF7860786800F043F87B6818460837BD4680BD80B483B000AF78607B680022CE
S32D0000E8581A607B6818460C37BD4680BC704780B483B000AF78607B6818460C37BD4680BC704780B582B000AF20
S32D0000E880786039603868FFF71EFD03461946786800F024F87B6818460837BD4680BD80B483B000AF78607B6823
S32D0000E8A818460C37BD4680BC704780B483B000AF786039607B6818460C37BD4680BC704780B483B000AF7860BC
S32D0000E8D07B6818460C37BD4680BC704780B483B000AF786039607B6818460C37BD4680BC7047000080B582B038
S32D0000E8F800AF786039607B68012B0CD13B684FF6FF72934207D106480AF0E2FD054A064903480AF0A9FA00BF74
S32D0000E9200837BD4680BD00BFE417002000000020F994010080B500AF4FF6FF710120FFF7D9FF80BD80B483B096
S32D0000E94800AF78607B6823F0004318460C37BD4680BC704780B584B000AFF860B9607A60B968F8683DF0E0F861
S32D0000E9700346002B01D0BB6809E07968F8683DF0E1F80346002B01D07B6800E0FB6818461037BD4680BD000091
S32D0000E99880B584B000AFF860C7E90023D7E90623D7E900013CF020F902460B46F968C1E90023FB68D3E9002316
S32D0000E9C0F968C1E90223F9684FF000024FF00003C1E90423FB684FF00002DA62FB680A4A1A62FB68094A5A62BF
S32D0000E9E8FB68074A9A62F9684FF000024FF00003C1E90C23FB6818461037BD4680BD00BFACC5273795BFD63361
S32D0000EA1080B485B000AFF860B9607A603B60FB68BA681A62FB687A685A62FB683A689A6200BF1437BD4680BC8E
S32D0000EA387047000080B400AF024B1846BD4680BC704700BFFFFF7F7F2DE9B04384B000AFF860B9607A603B60E8
S32D0000EA60FB684FF4A0721A60FB68F0225A60FB686FF07F429A60FB684C4ADA60FB684C4A1A61FB6800225A61C3
S32D0000EA88FB684A4A9A62FB68002283F82D20FB685C33184627F070FEFB681B6818463CF0E1F94FF000024FF081
S32D0000EAB080433CF07FFB02460B4614461D46786827F0E4FE034618463CF0D0F94FF000024FF080433CF06EFB2C
S32D0000EAD802460B4690469946354808F005F9034618463CF0CFF902460B46404649463CF033FA02460B462046AE
S32D0000EB0029463CF075F802460B46104619463CF009FD0246FB685A63B8683CF00DFE0246FB689A63786827F001
S32D0000EB28B1FE0446224808F0DFF8034604FB03F318463CF0F9FD0246FB685A651C4808F0DDF8034618463CF061
S32D0000EB50F3FD0246FB689A65FB685C337968184627F04CFEFB6800221A76FB6801225A76FB68002283F82C20B4
S32D0000EB78FB68002283F82D203A68FB68DA61BA6AFB681A62FB681B691A46FB685A62FB68DA69FB681A63FB6890
S32D0000EBA018461037BD46BDE8B08300BF6666660021212100E22B8A00C81A002090B585B000AFF860B9607A6066
S32D0000EBC83B60FB684FF4A0721A60FB68F0225A60FB686FF07F429A60FB682E4ADA60FB682D4A1A61FB680022B7
S32D0000EBF05A61FB682B4A9A62FB68002283F82D20FB685C33184627F0BBFDFB68BA685A63FB687A689A633868D8
S32D0000EC1827F038FE0446224808F066F8034604FB03F318463CF080FD0246FB685A651C4808F064F80346184669
S32D0000EC403CF07AFD0246FB689A65FB685C333968184627F0D3FDFB6800221A76FB6801225A76FB68002283F816
S32D0000EC682C20FB68002283F82D203A6AFB68DA617A6AFB681A62FB681B691A46FB685A62FB68DA69FB681A63F4
S32D0000EC90FB6818461437BD4690BD00BF6666660021212100E22B8A00C81A0020F0B58BB002AF78607B681B6B3B
S32D0000ECB81946334808F015FC7B685C6B304808F013F8034618463CF033FD0346194620463CF078FC03461846CE
S32D0000ECE03CF05AFF05467B689B6B18463CF054FF06467B685C6D244807F0FAFF03465B0018463CF019FD03468F
S32D0000ED08194620463CF060FC034618463CF040FF04467B689B6D18463CF03AFF034600932346324629461648FC
S32D0000ED3009F0C9F87B6803F15C0207F108031146184628F097F87B685B6B18463CF024FF04467B689B6B4FF09F
S32D0000ED58814118463CF038FC034618463CF018FF034607F108012246054808F0F0FB07F10803184627F032FD9A
S32D0000ED8000BF2437BD46F0BDC81A0020B0B584B000AF78607B685B7E002B00F046810023FB730023BB737B6816
S32D0000EDA803F13C017B6840331A46924808F0B4FC7B68DC6B7B685D6B8E4807F095FF034618463CF0B5FC0346D1
S32D0000EDD0194628463CF0FAFB0346194620463CF0B1FE0346002B44D07B68DC6B7B685A6B7B685B6D1946104684
S32D0000EDF83CF0EAFB03461D467E4807F075FF034618463CF095FC0346194628463CF0DCFB03464FF07E511846CD
S32D0000EE203CF0D4FB0346194620463CF081FE0346002B1ED07B681A6C7B689B6B194610463CF080FE0346002B89
S32D0000EE4813D07B681C6C7B689A6B7B689B6D194610463CF0B9FB0346194620463CF064FE0346002B01D00122E2
S32D0000EE7000E000227B6883F82C207B6803F13C017B6840331A465D4808F04AFC034683F00103DBB2002B6ED164
S32D0000EE987B6803F144017B6848331A46554808F03BFC0346002B62D07B68DC6B7B685D6B504807F023FF034631
S32D0000EEC018463CF039FC0346194628463CF07EFB0346194620463CF035FE0346002B27D07B68DC6B7B685A6B00
S32D0000EEE87B685B6D194610463CF06EFB03461D46404807F0F9FE034618463CF019FC0346194628463CF060FB60
S32D0000EF1003464FF07E5118463CF058FB0346194620463CF005FE0346002B01D0012300E00023FB737B681A6C1F
S32D0000EF387B689B6B194610463CF000FE0346002B13D07B681C6C7B689A6B7B689B6D194610463CF039FB0346F0
S32D0000EF60194620463CF0E4FD0346002B01D0012300E00023BB73FB7B002B19D0BB7B002B16D07B685B69002B74
S32D0000EF8803D17B6801225A6106E07B685B69012B02D17B6802225A617B681A6A7B681A637B6801221A763CE0FF
S32D0000EFB07B685B69022B03D17B6803225A6106E07B685B69032B02D17B6800225A617B6893F82C30002B13D0A2
S32D0000EFD87B689A6A7B681A637B6893F82D3083F00103DBB2002B0FD07B68012283F82D200AE000BFC81A002072
S32D0000F0007B68DA697B681A637B68002283F82D207B6800221A76FFF711FD02467B68DA63FFF70CFD02467B6864
S32D0000F0281A647868FFF73EFE00BF1037BD46B0BD80B483B000AF78607B681B7E18460C37BD4680BC704780B47F
S32D0000F05085B000AF78600023FB737B685B69012B04D17B6802225A610123FB73FB7B18461437BD4680BC704734
S32D0000F07880B582B000AF7860396038683CF058FB02467B689A6500BF0837BD4680BD000080B584B000AFF860EC
S32D0000F0A0C7E90023D7E90623D7E900013BF0A0FD02460B46F968C1E90023FB68D3E90023F968C1E90223F96863
S32D0000F0C84FF000024FF00003C1E90423FB684FF00002DA62FB680A4A1A62FB68094A5A62FB68074A9A62F96830
S32D0000F0F04FF000024FF00003C1E90C23FB6818461037BD4680BD00BFACC5273795BFD6332DE9B04F8EB002AF5F
S32D0000F1187861C7E902237B69D3E90C23CDE90023D7E90223786900F0AFF9C7E90201D7E91423D7E902013BF07D
S32D0000F14057FD02460B467969C1E900234FF00002AB4BD7E914013CF093F90346002B02D07B69DB6A72E1A2A33A
S32D0000F168D3E90023D7E916013CF068F90346002B04D09DA3D3E90023C7E916237B69D3E90423C7E900237B6968
S32D0000F190D3E90001D7E916233BF0E2FE02460B46D7E900013BF026FD02460B467969C1E904237B69D3E90001FB
S32D0000F1B84FF000024FF000033CF05EF90346002B0BD07B69D3E902014FF000024FF000033CF034F90346002BE1
S32D0000F1E027D17B69D3E900014FF000024FF000033CF028F90346002B0BD07B69D3E902014FF000024FF0000323
S32D0000F2083CF03AF90346002B0FD17B69D3E90023924623F0004B76A3D3E90023504659463CF00CF90346002B5A
S32D0000F23006D079694FF000024FF00003C1E904234FF000026F4BC7E90A237B69D3E90423104619463CF066F9C5
S32D0000F25803466B4A6B491846FFF77CFB034618463BF022FE02460B467969C1E904237B69D3E900017B69D3E98C
S32D0000F28002233BF0B5FC02460B4610461946D7E916233BF08FFF02460B467969C1E906234FF000025A4BC7E97B
S32D0000F2A808237B69D3E90623104619463CF036F90346564A56491846FFF74CFB034618463BF0F2FD02460B46B7
S32D0000F2D07969C1E906237B69D3E900237969C1E902234E4BFB617B69D3E90023904623F00049F8693BF0DCFD98
S32D0000F2F802460B46404649463CF0A0F80346002B02D07B69DB6A9DE07B69DB6A18463BF0CBFD804689467B6997
S32D0000F3201B6A18463BF0C4FD7B69D3E900233BF017FE02460B4692469B467B695B6A18463BF0B6FD7B69D3E916
S32D0000F34804233BF009FE02460B46504659463BF04DFC02460B4692469B467B699B6A18463BF0A2FD7B69D3E9F9
S32D0000F37006233BF0F5FD02460B46504659463BF039FC02460B46404649463BF033FC02460B46104619463CF079
S32D0000F398C5F802467B69DA627969D7E90223C1E90C231D4BBB617B69DB6A1846FFF7C6FA0346194918463CF08C
S32D0000F3C0ADFB0346002B2DD07B69D3E90023144623F0004508A3D3E90023204629463CF04FF80346002B1DD05E
S32D0000F3E801231CE0AFF300807B14AE47E17A843F9A9999999999B93F000034400000494000004842000048C2F3
S32D0000F4100000244000002041000020C19A99193FCDCCCC3D0023002B0ED07B69DB6A4FF0000118463CF090FB51
S32D0000F4380346002B01D0064A00E0064A7B69DA627B69DB6A18463037BD46BDE8B08F00BFCDCCCC3DCDCCCCBD69
S32D0000F46080B485B000AFF860B9607A603B60FB68BA681A62FB687A685A62FB683A689A6200BF1437BD4680BC34
S32D0000F4887047000000000000B0B586B000AFF860C7E9002312A3D3E90023C7E9042310A3D3E90023D7E900016C
S32D0000F4B03BF056FD02460B4614461D460CA3D3E90023D7E90A013BF04BFD02460B46204629463BF08FFB024623
S32D0000F4D80B46104619461837BD46B0BDAFF300809A9999999999E93F989999999999C93F80B582B000AF7860D5
S32D0000F500094807F0ACFF0421074807F0B3FF0221054807F0D6FF786827F088FC03461946014808F033FAEEE72B
S32D0000F528C81A002080B582B000AF7860084611461A460346FB700B46BB7013467B707B682B4A1A607B682B4A22
S32D0000F5505A607B682A4A9A607B682A4ADA607B68294A1A617B681433FA781146184606F0F9FF7B681533BA7884
S32D0000F5781146184606F0F2FF7B6816337A781146184606F0EBFF7B6800225A627B6800229A627B68002283F8D4
S32D0000F5A02C207B68002283F82D207B6801225A637B6800229A637B680022DA637B6800221A647B6800225A64D7
S32D0000F5C87B68002283F82E207B6803229A647B684FF000029A617B684FF00002DA617B684FF000021A627B6840
S32D0000F5F018460837BD4680BD3333F33F33335340871659BE17D9CE3DF853E33D80B483B000AF786039607A68FC
S32D0000F6183B68134018460C37BD4680BC704780B483B000AF786039607A683B68134318460C37BD4680BC70473E
S32D0000F64080B483B000AF78607B68DB4318460C37BD4680BC704780B582B000AF786039607B681B68396818462A
S32D0000F668FFF7DDFF02467B681A607B6818460837BD4680BD80B582B000AF786039607B681B6839681846FFF75B
S32D0000F690BDFF02467B681A607B6818460837BD4680BD90B587B000AFF860B9607A60FB68DB687B61FB6803F1DC
S32D0000F6B80C047868FFF7C0FF034619462046FFF7D9FFFB6803F10C047968B868FFF79AFF034619462046FFF7A8
S32D0000F6E0BAFF7B6918461C37BD4690BD80B582B000AF78604FF4827204217868FFF7D1FF7B6818460837BD46EB
S32D0000F70880BD80B483B000AF78607B6818460C37BD4680BC7047000080B582B000AF786039607B68012B0CD1BB
S32D0000F7303B684FF6FF72934207D1064809F0CCFE054A0649034809F093FB00BF0837BD4680BD00BFE817002008
S32D0000F75800000020F994010080B500AF4FF6FF710120FFF7D9FF80BD90B587B000AF786039603B68DB0FFB7577
S32D0000F780FB7D002B02D03B685B4200E03B683B610A21386900F02AFCF860FA7DFB68D41807F10803184609F02D
S32D0000F7A8B9FC07F108032D222146786826F0ECFF07F10803184609F0AFFCFB7D1946786827F0B0F803463A697D
S32D0000F7D0F968184600F048FC00BF78681C37BD4690BD000080B586B002AF786039603A23FB6038683BF05CFB6F
S32D0000F7F802460B467868CDE90023044B3A22044900F084FC78681037BD4680BD9CEB05008D55050080B483B0E8
S32D0000F82000AF7860012318460C37BD4680BC704780B582B000AF7860064A7B681A607B680433184626F09CFFB4
S32D0000F8487B6818460837BD4680BD00BF0CED050080B582B000AF7860064A7B681A607B680433184626F0BAFF33
S32D0000F8707B6818460837BD4680BD00BF0CED050080B582B000AF78607868FFF7E5FF1C21786809F071FB7B68E0
S32D0000F89818460837BD4680BD90B585B000AF786039607B681846FFF7BFFF174A7B681A607B683A68DA617B6875
S32D0000F8C003F12C0407F10C03184609F027FC07F10C031A460F49204627F012FB07F10C03184609F01DFC06F0BF
S32D0000F8E8EFF9034618463BF01FFF02467B681A627B68002283F829207B6800225A627B6818461437BD4690BD0D
S32D0000F910E8EC0500A0EB050080B582B000AF78607B68DB69184603F073FC7B68D8694FF000034FF000024FF0A5
S32D0000F938000102F077FF06F0C3F9034618463BF0F3FE02467B681A627B6800225A627B68DB69184603F058FC8F
S32D0000F96000BF0837BD4680BD90B5ADF5577D00AF07F55673A3F55573186007F55673A3F555731B6803F12C016B
S32D0000F98807F52B73DF4A184600F0F7FB07F55673A3F555731B685A6A07F5317311461846FFF7E2FE07F5257323
S32D0000F9B007F5317207F52B71184600F0F5FB07F53173184626F00EFF07F52B73184626F009FF07F5257318468B
S32D0000F9D827F028FA014600230022CB4807F094FD06F06EF9034618463BF09EFE024607F55673A3F555731B68E6
S32D0000FA001B6A194610463BF0E1FD0346C7F8543307F53D73D7F854131846FFF7E3FE07F5377307F53D72BB499A
S32D0000FA28184600F038FC07F51F7307F53771B84A184600F048FC07F53773184626F0CEFE07F53D73184626F062
S32D0000FA50C9FE07F51F73184627F0E8F901461E230022AB4807F054FD07F5D673184626F0D9FA07F5D6730833EC
S32D0000FA78A849184625F01AFD0346A749184625F04DFB04460220FFF73CFE03461946204625F0CEFB044607F523
S32D0000FAA05673A3F555731B68DB69184602F09AFE03461B681946204625F0C0FD03469949184625F0F7FC034623
S32D0000FAC89549184625F02AFB04460220FFF719FE03461946204625F0ABFB044607F55673A3F555731B68DB6922
S32D0000FAF0184602F077FE034604331B681946204625F09CFD03468749184625F0D3FC03468349184625F006FBC9
S32D0000FB1804460220FFF7F5FD03461946204625F087FB044607F55673A3F555731B68DB69184602F053FE0346A6
S32D0000FB4008331B681946204625F078FD03467649184625F0AFFC07F5437307F5D6721146184626F0C7FA07F5E6
S32D0000FB6843713C230022684807F0F1FC07F54373184626F033FE07F1DC03184626F04EFA07F1DC0308336749FA
S32D0000FB90184625F08FFC03466149184625F0C2FA04460220FFF7B1FD03461946204625F043FB044607F55673A7
S32D0000FBB8A3F555731B68DB69184602F01BFE03461B681946204625F035FD03465349184625F06CFC0346504915
S32D0000FBE0184625F09FFA04460220FFF78EFD03461946204625F020FB044607F55673A3F555731B68DB6918462C
S32D0000FC0802F0F8FD034604331B681946204625F011FD03464149184625F048FC03463E49184625F07BFA044670
S32D0000FC300220FFF76AFD03461946204625F0FCFA044607F55673A3F555731B68DB69184602F0D4FD0346083333
S32D0000FC581B681946204625F0EDFC03463049184625F024FC07F5497307F1DC021146184626F03CFA07F549719E
S32D0000FC804B230022224807F066FC07F54973184626F0A8FD07F10C03184626F0C3F907F10C03083322491846F0
S32D0000FCA825F004FC03461C49184625F037FA04460220FFF726FD03461946204625F0B8FA044607F55673A3F5C6
S32D0000FCD055731B68DB69184602F09CFD03461B681946204625F0AAFC03460E49184625F0E1FB03460A49184659
S32D0000FCF825F014FA04460220FFF703FD03461946204613E0ACEB0500C81A0020B8EB0500C4EB0500C8EB0500A6
S32D0000FD20EDF60000D0EB0500D4EB0500D8EB0500E0EB050025F080FA044607F55673A3F555731B68DB69184693
S32D0000FD4802F064FD034604331B681946204625F071FC03468949184625F0A8FB03468849184625F0DBF9044614
S32D0000FD700220FFF7CAFC03461946204625F05CFA044607F55673A3F555731B68DB69184602F040FD03460833C7
S32D0000FD981B681946204625F04DFC03467949184625F084FB07F54F7307F10C021146184626F09CF907F54F71BA
S32D0000FDC05A230022724807F0C6FB07F54F73184626F008FD07F55673A3F555731B685B6A002B02D0012B4DD01A
S32D0000FDE899E007F55673A3F555731B68D8694FF00003664A4FF0000102F031FD07F55673A3F555731B68DB694D
S32D0000FE106149184602F0F4FF07F55673A3F555731B68DB69184603F028FA0346002B00F0888007F55673A3F5AF
S32D0000FE3855731B68D8694FF000034FF000024FF0000102F003FB05F03BFF034618463BF06BFC024607F55673E8
S32D0000FE60A3F555731B681A6207F55673A3F555731B685B6A5A1C07F55673A3F555731B685A625EE007F55673CB
S32D0000FE88A3F555731B68D8694FF000034FF000024FF0000102F0E3FC07F55673A3F555731B68DB693A491846C7
S32D0000FEB002F0A6FF07F55673A3F555731B68DB69184603F0DAF90346002B3CD007F55673A3F555731B68D86914
S32D0000FED84FF000034FF000024FF0000102F0B6FA05F0EEFE034618463BF01EFC024607F55673A3F555731B68DA
S32D0000FF001A6207F55673A3F555731B685B6A5A1C07F55673A3F555731B685A6213E007F55673A3F555731B6875
S32D0000FF28DB69184602F0E6FB07F55673A3F555731B68012283F8292002E000BF00E000BF07F10C03184625F0ED
S32D0000FF5019FD07F1DC03184625F014FD07F5D673184625F00FFD07F51F73184626F03AFC07F52573184626F00E
S32D0000FF7835FC00BF07F55777BD4690BDD0EB0500EDF60000D4EB0500C81A0020000040C09A99193F80B483B0F6
S32D0000FFA000AF78607B6893F8293018460C37BD4680BC704780B483B000AF78607B68012283F8292000BF0C3794
S32D0000FFC8BD4680BC704780B582B000AF786039603B682C331946786826F048FF78680837BD4680BD80B487B026
S32D0000FFF000AF7860396001237B613B6803FB03F33B613A683B6902FB03F3FB603A68FB6802FB03F3BB603B6846
S32D000100187A689A4201D27B691DE07A683B699A4202D27B69013316E07A68FB689A4202D27B6902330FE07A6824
S32D00010040BB689A4202D27B69033308E07A68BB68B2FBF3F37B607B6904337B61DBE718461C37BD4680BC7047E9
S32D0001006880B489B000AFF860B9607A60BB68013BFB617B68632B25D97A68224BA3FB02135B09642101FB03F3FB
S32D00010090D31A5B00BB617B681C4AA2FB03235B097B60BB695A1CF968FB690B4418498A5C1A70FB69013BFA6811
S32D000100B813441549BA690A4412781A70FB69023BFB61D6E77B68092B10D97B685B007B617B695A1CFB6801331A
S32D000100E00B498A5C1A700A4A7B6913441A78FB681A7005E07B68DBB23033DAB2FB681A7000BF2437BD4680BC95
S32D00010108704700BF1F85EB5114EC050008B490B588B000AFF860B9607A607B680733DB08DB00ADEB030D6B4606
S32D000101300733DB08DB00FB6107F130033B61BC683B69FA6A7968F869A047B861BB69FA69D41807F11403184637
S32D0001015808F0E0FF07F114032246F969F86800F0C9F807F11403184608F0D6FFF8682037BD46BDE8904001B09D
S32D00010180704780B584B000AFF860B9607A60B968F86826F06FFE7968F86826F075FD00BFF8681037BD4680BDC3
S32D000101A890B58BB000AFF860B9607A60002387F8273007F114031846FFF72CFB0346002B03D0012387F82730EA
S32D000101D024E007F11803B968184626F029FE07F11C037968184626F023FE07F11C0207F118031146184600F0D2
S32D000101F89CF803461C4607F11C03184608F08CFF07F11803184608F087FF002C02D0012387F8273097F82730D4
S32D00010220002B2BD0B86826F02FFB0446786826F02BFB034623443B62B86826F029FB02463B6A934208D9786899
S32D0001024826F022FB02463B6A934201D8012300E00023002B0ED0BA680021786826F0AAFC0346184600F06CF8AF
S32D0001027003461946F86826F095FA0CE07968B86826F0FCFC0346184600F05EF803461946F86826F087FAF868CB
S32D000102982C37BD4690BD80B584B000AFF860B9607A60BA680021786826F09CFC0346184600F046F803461946D3
S32D000102C0F86826F06FFAF8681037BD4680BD80B584B000AFF860B9607A607968B86826F0D3FC0346184600F069
S32D000102E82FF803461946F86826F058FAF8681037BD4680BD90B585B000AFF860B9607A603B60FC68F86826F080
S32D000103102BF903463A681946204626F0A9FD7A68B968F86800F01AF8FB6818461437BD4690BD80B483B000AF57
S32D0001033878603960012318460C37BD4680BC704780B483B000AF78607B6818460C37BD4680BC704780B584B099
S32D0001036000AFF860B9607A607A68B968F86800F004F800BF1037BD4680BD90B587B000AFF860B9607A603B70BE
S32D0001038823467A68B968F86800F004F800BF1C37BD4690BD80B586B000AFF860B9607A603B70B86800F03EF8D6
S32D000103B00346002B05D0BA687B689A4201D0012300E00023002B02D017481AF08FFF7968B86800F03AF803469C
S32D000103D87B617B690F2B10D907F1140300221946F86826F0C7F803461946F86826F0B4F87B691946F86826F0CB
S32D00010400B5F8F86826F0AEF803467A68B968184626F000F97B691946F86826F0A9F800BF1837BD4680BD00BFE4
S32D00010428E8EB050080B483B000AF78607B68002B0CBF01230023DBB218460C37BD4680BC7047B0B582B000AF55
S32D00010450786039607C683B1D184600F00AF82A463968204600F00FF8034618460837BD46B0BD80B483B000AFA6
S32D00010478786000BF18460C37BD4680BC704780B485B000AFF860B9603A71BA68FB68D31A18461437BD4680BC99
S32D000104A07047000080B582B000AF7860084A7B681A607B682C33184626F094F97B681846FFF7CAF97B6818465B
S32D000104C80837BD4680BD00BFE8EC050080B582B000AF78607868FFF7E1FF4421786808F047FD7B681846083749
S32D000104F0BD4680BD90B583B000AF7860396005F0E3FB034618463BF013F90346796818463BF05CF803460122E1
S32D000105181446194638683BF007FB0346002B01D100231C46E3B218460C37BD4690BD000090B587B000AFF8605A
S32D00010540B9607A603B60FB681846FFF771F91A4AFB681A60FB68BA68DA61FB683A681A62FB687A685A62FB68F7
S32D0001056803F1340407F11403184608F0D3FD07F114031A460F49204626F0BEFC07F11403184608F0C9FD05F0E6
S32D000105909BFB034618463BF0CBF80246FB689A62FB68002283F83120FB680022DA62FB6818461C37BD4690BDF4
S32D000105B8DCED05005CED050080B582B000AF78607B68DB69184602F01FFE7B68D8690E4B4FF000024FF0000178
S32D000105E002F024F905F070FB034618463BF0A0F802467B689A627B680022DA627B68DB69184602F005FE00BF72
S32D000106080837BD4680BD00BF000034C290B5ADF5517D00AF07F55073A3F54F73186007F55073A3F54F731B68FE
S32D00010630DA6A07F52B7311461846FFF799F807F5257307F52B72DE491846FFF728FE07F52B73184626F0C6F8E7
S32D0001065807F52573184626F0E5FB014600230022D64806F051FF05F02BFB034618463BF05BF8024607F5507354
S32D00010680A3F54F731B689B6A194610463AF09EFF0346C7F83C3307F53773D7F83C131846FFF7A0F807F5317326
S32D000106A807F53772C6491846FFF7F5FD07F51F7307F53171C34A1846FFF705FE07F53173184626F08BF807F506
S32D000106D03773184626F086F807F51F73184626F0A5FB01461E230022B64806F011FF07F5D673184625F096FCC5
S32D000106F807F5D6730833B449184624F0D7FE0346B249184624F00AFD04460220FEF7F9FF03461946204624F0D7
S32D000107208BFD044607F55073A3F54F731B68DB69184602F057F803461B681946204624F07DFF0346A4491846A4
S32D0001074824F0B4FE0346A149184624F0E7FC04460220FEF7D6FF03461946204624F068FD044607F55073A3F5D6
S32D000107704F731B68DB69184602F034F8034604331B681946204624F059FF03469249184624F090FE03468F49DC
S32D00010798184624F0C3FC04460220FEF7B2FF03461946204624F044FD044607F55073A3F54F731B68DB69184604
S32D000107C002F010F8034608331B681946204624F035FF03468149184624F06CFE07F53D7307F5D6721146184668
S32D000107E825F084FC07F53D713C230022734806F0AEFE07F53D73184625F0F0FF07F1DC03184625F00BFC07F16E
S32D00010810DC0308337249184624F04CFE03466D49184624F07FFC04460220FEF76EFF03461946204624F000FD4F
S32D00010838044607F55073A3F54F731B68DB69184601F0D8FF03461B681946204624F0F2FE03465F49184624F049
S32D0001086029FE03465B49184624F05CFC04460220FEF74BFF03461946204624F0DDFC044607F55073A3F54F7382
S32D000108881B68DB69184601F0B5FF034604331B681946204624F0CEFE03464D49184624F005FE03464949184642
S32D000108B024F038FC04460220FEF727FF03461946204624F0B9FC044607F55073A3F54F731B68DB69184601F0FA
S32D000108D891FF034608331B681946204624F0AAFE03463C49184624F0E1FD07F5437307F1DC021146184625F069
S32D00010900F9FB07F543714B2300222E4806F023FE07F54373184625F065FF07F10C03184625F080FB07F10C0382
S32D0001092808332E49184624F0C1FD03462749184624F0F4FB04460220FEF7E3FE03461946204624F075FC044685
S32D0001095007F55073A3F54F731B68DB69184601F059FF03461B681946204624F067FE03461949184624F09EFD2F
S32D0001097803461649184624F0D1FB04460220FEF7C0FE03461946204624F052FC044607F55073A3F54F731B68F5
S32D000109A0DB69184601F036FF034604331B681946204624F043FE03460749184614E000BF68ED0500C81A00203D
S32D000109C878ED050084ED050088ED0500EDF6000090ED050094ED050098ED0500A0ED050024F064FD0346B449E4
S32D000109F0184624F097FB04460220FEF786FE03461946204624F018FC044607F55073A3F54F731B68DB69184631
S32D00010A1801F0FCFE034608331B681946204624F009FE0346A549184624F040FD07F5497307F10C021146184684
S32D00010A4025F058FB07F549715A2300229E4806F082FD07F54973184625F0C4FE07F55073A3F54F731B68DB6AA1
S32D00010A68072B00F2A68201A252F823F0950A0100610B0100F90B0100DD0C0100770D01002D0E0100C50E010082
S32D00010A90410F010007F55073A3F54F731B685B6A8A49184606F0A8F807F55073A3F54F731B68D8694FF07C53D3
S32D00010AB84FF000024FF0000101F0C8FC07F55073A3F54F731B68DB69184601F0D7FC07F55073A3F54F731B683B
S32D00010AE09B6A7B491846FFF705FD0346002B00F0768207F55073A3F54F731B68D8694FF000034FF000024FF0CD
S32D00010B08000101F08FFE07F55073A3F54F731B68D8694FF000034FF000024FF0000101F095FC05F0CDF803461A
S32D00010B3018463AF0FDFD024607F55073A3F54F731B689A6207F55073A3F54F731B68DB6A5A1C07F55073A3F586
S32D00010B584F731B68DA623EE207F55073A3F54F731B68D8694FF000034FF00002574901F076FE07F55073A3F511
S32D00010B804F731B68DB69184601F0F0FF07F55073A3F54F731B68DB69184602F06EFB0346002B00F01E8207F5E6
S32D00010BA85073A3F54F731B68D8694FF000034FF000024FF0000101F049FC05F081F8034618463AF0B1FD02460F
S32D00010BD007F55073A3F54F731B689A6207F55073A3F54F731B68DB6A5A1C07F55073A3F54F731B68DA62F4E15A
S32D00010BF807F55073A3F54F731B68D8694FF00003334A4FF0404101F02AFE07F55073A3F54F731B68DB6918461B
S32D00010C2001F0A4FF07F55073A3F54F731B68DB69184602F022FB0346002B00F0D48107F55073A3F54F731B686F
S32D00010C48D8694FF000034FF000024FF0000101F0FDFB07F55073A3F54F731B68DC6907F55073A3F54F731B6813
S32D00010C70DB69184601F0B6FD034619684FF000034FF00002204601F0D1FD05F01DF8034618463AF04DFD024630
S32D00010C9807F55073A3F54F731B689A6207F55073A3F54F731B68DB6A5A1C07F55073A3F54F731B68DA6292E1F3
S32D00010CC0EDF6000094ED0500C81A0020000034430000C843000040C00000A0C007F55073A3F54F731B68D869DB
S32D00010CE84FF000034FF07C524FF0404101F0B7FD07F55073A3F54F731B68DB69184601F031FF07F55073A3F573
S32D00010D104F731B68DB69184602F0AFFA0346002B00F0638107F55073A3F54F731B68D8694FF000034FF000028A
S32D00010D384FF0000101F08AFB04F0C2FF034618463AF0F2FC024607F55073A3F54F731B689A6207F55073A3F52B
S32D00010D604F731B68DB6A5A1C07F55073A3F54F731B68DA6239E107F55073A3F54F731B68D8694FF03F434FF095
S32D00010D8800024FF0000101F061FB07F55073A3F54F731B68DB69184601F070FB07F55073A3F54F731B689B6A72
S32D00010DB0A1491846FFF79EFB0346002B00F0178107F55073A3F54F731B68D8694FF000034FF000024FF00001A1
S32D00010DD801F03CFB07F55073A3F54F731B68D869944B4FF07C524FF0404101F01BFD04F067FF034618463AF007
S32D00010E0097FC024607F55073A3F54F731B689A6207F55073A3F54F731B68DB6A5A1C07F55073A3F54F731B685D
S32D00010E28DA62E0E007F55073A3F54F731B68D869814B4FF07C52814901F011FD07F55073A3F54F731B68DB6940
S32D00010E507D49184601F0D4FF07F55073A3F54F731B68DB69184602F008FA0346002B00F0C08007F55073A3F55E
S32D00010E784F731B68D8694FF000034FF000024FF0000101F0E3FA04F01BFF034618463AF04BFC024607F5507307
S32D00010EA0A3F54F731B689A6207F55073A3F54F731B68DB6A5A1C07F55073A3F54F731B68DA6296E007F55073E6
S32D00010EC8A3F54F731B681B6A5E49184603F010F807F55073A3F54F731B689B6A5A491846FFF704FB0346002B8E
S32D00010EF000F0818004F0E8FE034618463AF018FC024607F55073A3F54F731B689A6207F55073A3F54F731B68A7
S32D00010F18DB6A5A1C07F55073A3F54F731B68DA6207F55073A3F54F731B681B6A4FF00001184602F0DDFF5AE050
S32D00010F4007F55073A3F54F731B681B6A4149184602F0D2FF07F55073A3F54F731B689B6A3B491846FFF7C6FA7D
S32D00010F680346002B45D004F0ABFE034618463AF0DBFB024607F55073A3F54F731B689A6207F55073A3F54F7394
S32D00010F901B68DB6A5A1C07F55073A3F54F731B68DA6207F55073A3F54F731B681B6A4FF00001184602F0A0FFCC
S32D00010FB81FE007F55073A3F54F731B68DB69184601F098FB07F55073A3F54F731B68012283F831200EE000BF11
S32D00010FE00CE000BF0AE000BF08E000BF06E000BF04E000BF02E000BF00E000BF07F10C03184624F0BFFC07F133
S32D00011008DC03184624F0BAFC07F5D673184624F0B5FC07F51F73184625F0E0FB07F52573184625F0DBFB00BFD2
S32D0001103007F55177BD4690BD00009B4400001643000016C30000C0C0CDCCCC3E0000A0420080BB440000A0C286
S32D0001105880B483B000AF78607B6893F8313018460C37BD4680BC704780B483B000AF78607B68012283F8312055
S32D0001108000BF0C37BD4680BC704780B582B000AF786039603B6834331946786825F0EAFE78680837BD4680BD1D
S32D000110A880B582B000AF7860084A7B681A607B683433184625F092FB7B681846FEF7C8FB7B6818460837BD46B6
S32D000110D080BD00BFDCED050080B582B000AF78607868FFF7E1FF4C21786807F045FF7B6818460837BD4680BD3B
S32D000110F880B483B000AF786039603B6818460C37BD4680BC704780B582B000AF78607B68184600F0DBF87B6833
S32D0001112018460837BD4680BD80B582B000AF78607B681846FFF7EBFF7B6818460837BD4680BD000080B582B08D
S32D0001114800AF78607B680833184625F015FB7B6820331846FFF7E4FF7B6800225A607B6808330749184625F043
S32D0001117015FD7B6800221A707B6800225A707B6818460837BD4680BD10EE050090B583B000AF786039607B68A2
S32D0001119803F12004386800F0A9F803461946204600F0AEF800BF0C37BD4690BD90B58BB000AF78607B682033AC
S32D000111C0184600F0B2F878627B685B687A6A9A4256D97B6803F120027B685B681946104600F0B2F838627B682E
S32D000111E803F10804386A00F0BAF803461A681032126807F108001946904707F108031946204625F0FDFA07F10B
S32D000112100803184625F0E6FA386A00F0A4F803461A680832126818469047034683F00103DBB2002B1BD07B6829
S32D000112385B7883F00103DBB2002B0AD0386A00F08EF803461A681268184690477B6801225A70386A00F083F83C
S32D0001126003461A68043212681846904711E07B685B685A1C7B685A607B6800225A7008E07B6801221A707B68DB
S32D0001128808330449184625F085FC00BF2C37BD4690BD00BF10EE050080B582B000AF786039603B6808331946C3
S32D000112B0786825F0DFFD78680837BD4680BD80B483B000AF78607B681B7818460C37BD4680BC704780B582B07D
S32D000112D800AF7860786800F04EF87B68184600F056F87B6818460837BD4680BD80B483B000AF78607B681846DC
S32D000113000C37BD4680BC704780B582B000AF786039603868FFF7EEFF03461946786800F078F800BF0837BD4692
S32D0001132880BD80B483B000AF78607B685A687B681B68D31A9B1018460C37BD4680BC704780B483B000AF786043
S32D0001135039607B681A683B689B00134418460C37BD4680BC704780B582B000AF7860786800F07DF8034618466A
S32D000113780837BD4680BD80B582B000AF7860786800F07EF87B6818460837BD4680BD80B483B000AF78607B6802
S32D000113A000221A607B6800225A607B6800229A607B6818460C37BD4680BC704780B584B000AFF860B9607A60E7
S32D000113C8BB68002B05D0FB687A68B968184600F061F800BF1037BD4680BD80B483B000AF78607B6818460C370E
S32D000113F0BD4680BC704780B584B000AFF860B9607A60B968F86800F058F800BF1037BD4680BDB0B582B000AF28
S32D00011418786039607B685A687B689B689A4211D07C687B685D68386800F050F803461A462946204600F054F8CE
S32D000114407B685B681A1D7B685A600CE0786800F05EF80446386800F03DF803461A462146786800F07BF800BFD0
S32D000114680837BD46B0BD80B582B000AF78607B68184600F02BF9034618460837BD4680BD80B483B000AF78604F
S32D000114907B6818460C37BD4680BC704780B584B000AFF860B9607A607A68B968F86800F01FF900BF1037BD46DC
S32D000114B880BD80B582B000AF786039603968786800F022F900BF0837BD4680BD80B483B000AF78607B68184648
S32D000114E00C37BD4680BC704780B584B000AFF860B9607A607868FFF7EDFF03461A46B968F86800F03DF900BF70
S32D000115081037BD4680BD80B584B000AF78607B681A1D07F10C031146184600F045F9FB6818461037BD4680BDF1
S32D0001153080B582B000AF184600F005F8034618460837BD4680BD80B483B000AF3871012318460C37BD4680BC42
S32D0001155870470000B0B58CB000AFF860B9607A60594A0121F86800F02EF9B862FB681B687B62FB685B683B6236
S32D00011580F86800F06BF903467B6107F1140207F108031146184600F071F90346FB61FB68B96A184600F07FF952
S32D000115A8B861BB69FB62FC68FB699B00BA69D5187868FFF78BFF03461A4629462046FFF78FFF0023FB62FFF72F
S32D000115D0AFFF0346002B27D007F10803184600F08AF903461C68FB681846FFF7FAFE0346BA692146786A00F0DE
S32D000115F86AF9F862FB6A0433FB6207F10803184600F075F903461C68FB681846FFF7E5FE0346FA6A396A204632
S32D0001162000F055F9F86226E007F10803184600F062F903461C68FB681846FFF7D2FE0346BA692146786A00F058
S32D0001164860F9F862FB6A0433FB6207F10803184600F04DF903461C68FB681846FFF7BDFE0346FA6A396A20463B
S32D0001167000F04BF9F862FFF75BFF034683F00103DBB2002B09D0FB681846FFF7AAFE03461A46396A786AFFF799
S32D00011698AEFEF868FB689A687B6AD31A9B101A46796AFFF787FEFB68BA691A60FB68FA6A5A60BB6A9B00BA6913
S32D000116C01A44FB689A6000BF3037BD46B0BD00BF18EE050080B582B000AF78607B68184600F039F903461B68C3
S32D000116E818460837BD4680BD80B584B000AFF860B9607A607B689B001946B86807F038FC00BF1037BD4680BD25
S32D0001171080B582B000AF786039607A683B689A420AD0786800F024F90346184600F02AF97B6804337B60F0E775
S32D0001173800BF0837BD4680BD80B582B000AF786039607B683A681146184600F032F97B6818460837BD4680BDA8
S32D0001176080B582B000AF786039607B683A6811461846FFF7E5FF7B6818460837BD4680BD90B585B000AFF8607E
S32D00011788B9607A607868FFF7A1FE0446BB6819460420FFF7ADFC034621461846FFF7DCFF00BF1437BD4690BD02
S32D000117B080B483B000AF786039603B681A687B681A607B6818460C37BD4680BC704790B587B000AFF860B960EB
S32D000117D87A60F86800F007F90446F868FFF7A1FD0346E21ABB689A4234BF01230023DBB2002B02D0786819F089
S32D000118008DFDF868FFF791FD0446F868FFF78DFD03463B6107F1080207F110031146184600F0F6F803461B68D0
S32D0001182823447B61F868FFF77CFD02467B69934206D3F86800F0D7F802467B69934204D9F86800F0D0F8034647
S32D0001185000E07B6918461C37BD4690BD80B584B000AF78607A6807F10C0311461846FFF79FFFFB68184610377A
S32D00011878BD4680BD90B583B000AF78603960786800F035F803461C68386800F030F803461B68E31A9B10184615
S32D000118A00C37BD4690BD80B582B000AF786039603B68002B06D07B683968184600F0BBF8034600E0002318462C
S32D000118C80837BD4680BD90B587B002AFF860B9607A603B608DF800403B687A68B968F86800F0B4F80346184651
S32D000118F01437BD4690BD80B483B000AF78607B6818460C37BD4680BC704790B585B000AFF860B9607A603B60B7
S32D00011918F86800F0ADF80446B86800F0A9F801463B687A68204600F0B2F8034618461437BD4690BD80B582B03B
S32D0001194000AF786039603968786800F0B5F800BF0837BD4680BD80B582B000AF78607B68184600F0B5F80346E7
S32D0001196818460837BD4680BD80B483B000AF78607B6818460C37BD4680BC704780B582B000AF78607868FCF74A
S32D00011990CCFA00BF0837BD4680BD80B582B000AF786039607B683A681146184600F0A6F87B6818460837BD4652
S32D000119B880BD90B583B000AF786039607C683B68184600F08DF8034619462046FFF7E1FF3868FCF7CAFB03464C
S32D000119E000221A607B6818460C37BD4690BD80B582B000AF78607B68184600F0BCF80346184600F09EF803461F
S32D00011A0818460837BD4680BD80B483B000AF786039607B681A683B681B689A4201D23B6800E07B6818460C370A
S32D00011A30BD4680BC704780B582B000AF7860396000223968786800F0A0F8034618460837BD4680BD80B584B050
S32D00011A5800AFF860B9607A603B603B687A68B968F86800F0ACF8034618461037BD4680BD80B584B000AF786012
S32D00011A8007F10C037968184600F0BAF8FB6818461037BD4680BD80B584B000AFF860B9607A603B607A68B96806
S32D00011AA8F86800F0BBF8034618461037BD4680BD80B582B000AF786039603868FCF731FA00BF0837BD4680BD5B
S32D00011AD080B582B000AF7860786800F0B5F8034618460837BD4680BD80B483B000AF78607B6818460C37BD46E1
S32D00011AF880BC704790B583B000AF78603960386800F0ABF80346184600F0B1F803461946786800F0C0F87C68AD
S32D00011B203868FCF766FC0346184600F0AEF803461946204600F0C9F87B6818460C37BD4690BD80B584B000AFB9
S32D00011B4878606FF06043FB60786800F0CBF80346BB6007F1080207F10C031146184600F0CDF803461B681846A5
S32D00011B701037BD4680BD80B483B000AF78607B6818460C37BD4680BC704780B584B000AFF860B9607A60F86894
S32D00011B9800F0C7F80246BB6893428CBF01230023DBB2002B01D019F07DFBBB689B00184607F0E0F90346184600
S32D00011BC01037BD4680BDB0B584B000AFF860B9607A603B60F86800F0B3F80446B86800F0AFF80546786800F02A
S32D00011BE8ABF802463B682946204600F0AFF8034618461037BD46B0BD80B582B000AF786039603B46184600F020
S32D00011C10C7F803461A687B681A607B6818460837BD4680BD80B586B000AFF860B9607A600123FB757A68B96802
S32D00011C38F86800F0BBF8034618461837BD4680BD80B582B000AF78607B68184600F0DDF8034618460837BD4667
S32D00011C6080BD80B483B000AF78607B6818460C37BD4680BC704780B483B000AF78607B6818460C37BD4680BCFF
S32D00011C88704780B483B000AF78607B6818460C37BD4680BC704780B582B000AF786039603868FCF785FC03462A
S32D00011CB0184600F0B8F803461946786800F0BDF87B6818460837BD4680BD80B582B000AF786039603868FFF7FD
S32D00011CD8D8FF03461A687B681A607B6818460837BD4680BD80B582B000AF7860786800F0ADF8034618460837D5
S32D00011D00BD4680BD80B483B000AF786039603B681A687B681B689A4201D23B6800E07B6818460C37BD4680BC6D
S32D00011D28704780B483B000AF78606FF0604318460C37BD4680BC704780B483B000AF78607B6818460C37BD46D9
S32D00011D5080BC704790B587B000AFF860B9607A603B607B687B61FA68BB689A4213D07869FFF7FEFD0446F868E1
S32D00011D78FFF7FAFD03463A681946204600F072F8FB680433FB607B6904337B61E7E77B6918461C37BD4690BDA6
S32D00011DA080B483B000AF78607B6818460C37BD4680BC704790B587B000AFF860B9607A607B687B6107F1080275
S32D00011DC807F10C031146184600F067F80346002B16D07869FFF7C8FD044607F10C03184600F07BF80346194631
S32D00011DF0204600F081F807F10C03184600F062F87B6904337B61DDE77B6918461C37BD4690BD80B483B000AF90
S32D00011E1878607B6818460C37BD4680BC704780B483B000AF78607B6818460C37BD4680BC704780B582B000AFCB
S32D00011E40786039603868FFF7EEFF7B6818460837BD4680BD80B582B000AF78607868FFF764FF034618460837B2
S32D00011E68BD4680BD80B584B000AFF860B9607A60B868FFF73BFA03461A46F9687868FFF72FFBB868FFF770FDD0
S32D00011E90034619467868FFF751FD00BF1037BD4680BD80B582B000AF786039603968786800F039F8034683F02C
S32D00011EB80103DBB218460837BD4680BD80B483B000AF78607B681B681A1D7B681A607B6818460C37BD4680BCE2
S32D00011EE0704780B483B000AF78607B681B6818460C37BD4680BC704790B583B000AF786039603868FFF7E6FA23
S32D00011F0804467B6819460420FFF7F2F8034621461846FFF721FC00BF0C37BD4690BD90B583B000AF786039600F
S32D00011F30786800F00EF80446386800F00AF803469C420CBF01230023DBB218460C37BD4690BD80B483B000AF03
S32D00011F5878607B681B6818460C37BD4680BC704780B582B000AF786039603968786837F05FFD03461846083714
S32D00011F80BD4680BD80B582B000AF7860786837F0E9FC034618460837BD4680BD80B582B000AF7860786837F0FD
S32D00011FA80FFD034618460837BD4680BD80B582B000AF7860786837F03DFD034618460837BD4680BD90B583B00B
S32D00011FD000AF786039607B681A683B681B681946104639F0FDFB03461C467B6804331A683B6804331B6819465E
S32D00011FF8104639F0F1FB03461946204639F0E4FA034618460C37BD4690BD90B583B000AF78607B681A687B68B9
S32D000120201B681946104639F0DBFB03461C467B6804331A687B6804331B681946104639F0CFFB034619462046C0
S32D0001204839F0C2FA03461846FFF7B0FF034618460C37BD4690BD80B584B000AF786039607868FFF7D2FFF86076
S32D000120704FF00001F86839F047FD0346002B02D04FF0000309E079683868FFF79FFF0346F968184639F058FC29
S32D00012098034618461037BD4680BD000080B582B000AF78600449786839F096FB034618460837BD4680BD00BF31
S32D000120C035FA8E3C80B584B002AF7860084611461A460346FB700B46BB7013467B707868BA78F978FB6901F0B5
S32D000120E8EBF87B68C54A903307CA83E807007B6803F1A0003A7C7978FB6901F0DDF87B68BE4A03F5987307CAE7
S32D0001211083E807007B6803F5A0703A7E397DFB6901F0CEF87B68B74A03F5E87307CA83E807007B684FF07E524E
S32D00012138C3F8DC217B684FF00002C3F8E0217B68AF4A03F5F27392E8030083E803007B68AC4A03F5F67392E808
S32D00012160030083E803007B68D3F8E0217B68D3F8DC3119461046FFF7F7FE02467B68C3F8F4217B68D3F8E82123
S32D000121887B68D3F8E43119461046FFF7E9FE02467B68C3F8F8217B68D3F8F0217B68D3F8EC3119461046FFF79F
S32D000121B0DBFE02467B68C3F8FC217B684FF00002C3F800227B684FF00002C3F804227B684FF00002C3F8082215
S32D000121D87B684FF00002C3F80C227B684FF00002C3F810227B684FF00002C3F814227B684FF00002C3F818228C
S32D000122007B684FF00002C3F81C227B684FF00002C3F820227B684FF00002C3F824227B684FF00002C3F8282223
S32D000122287B684FF00002C3F82C227B684FF00002C3F830227B684FF00002C3F834227B684FF00002C3F83822BB
S32D000122507B68002283F842227B68012283F843227B68022283F844227B684FF00002C3F848227B684FF0000240
S32D00012278C3F84C227B684FF00002C3F850227B68614AC3F858227B684FF07E52C3F85C227B685E4AC3F8602207
S32D000122A07B685D4AC3F864227B685C4AC3F868227B684FF00002C3F870227B684FF00002C3F874227B684FF06E
S32D000122C80002C3F878227B684FF07E52C3F880227B684FF07C52C3F884227B684D4AC3F888227B684FF07E521F
S32D000122F0C3F88C227B684FF00002C3F890227B6803F526714FF000024FF00003CDE900234FF000024FF0000374
S32D000123180846FCF73DFB7B683F4AC3F8D0227B684FF00002C3F8D4227B684FF00002C3F8D8227B68FA7883F886
S32D000123403C227B687A7883F83E227B683A7D83F840227B68BA7883F83D227B683A7C83F83F227B683A7E83F86F
S32D0001236841227B68FA69C3F854227B68002283F86C227B68002283F86D227B68002283F86E227B6803F52670CE
S32D000123907B68D3F8D0127B68D3F8D4227B68D3F8D832FCF735FB03F08FFC0346184639F0BFF902467B68C3F823
S32D000123B87C227B684FF00002C3F80C227B684FF00002C3F810227B684FF00002C3F8142278687B68D3F89010F7
S32D000123E07B68D3F894207B68D3F8983001F0A0F97B6803F1A0007B68D3F830117B68D3F834210FE034EE0500ED
S32D0001240840EE050048EE05000000104100004041CDCC4C3FCDCCCC3DCDCC4C3E7B68D3F8383101F081F97B6817
S32D0001243003F5A0707B68D3F8D0117B68D3F8D4217B68D3F8D83101F073F97B6818460837BD4680BD80B485B006
S32D0001245800AFF860B9607A603B60FB68BA68C3F80022FB687A68C3F80422FB683A68C3F8082200BF1437BD4641
S32D0001248080BC704790B58BB000AF7860786800F017FA7B6803F5EE727B6803F5007319461046FFF7DCFD78626B
S32D000124A87B6803F5F2727B6803F5007319461046FFF7D1FD38627B6803F5F6727B6803F5007319461046FFF729
S32D000124D0C6FDF8617B68D3F80832BB617B68D3F8643283F000417B68D3F864321A46B869FCF734FA02467B68B4
S32D000124F8C3F890227B68D3F890321946786A39F063F803467B627B68D3F890321946386A39F05AF803463B621B
S32D000125207B68D3F890321946F86939F051F80346FB61786AFCF706FA0346BB60386AFCF701FA0346FB60F86977
S32D00012548FCF7FCF903463B6107F1100207F10C031146184600F099FE024607F108031146184600F092FE034681
S32D000125701B687B617B68D3F85C321946786939F0EBFA0346002B29D07B68D3F85C327969184639F0D9F9034626
S32D000125981946786A39F020F903467B627B68D3F85C327969184639F0CBF903461946386A39F012F903463B629E
S32D000125C07B68D3F85C327969184639F0BDF903461946F86939F004F90346FB617B6983F000437A691946786AFF
S32D000125E8FCF7B8F902467B68C3F848227B6983F000437A691946386AFCF7ACF902467B68C3F84C227B6983F00F
S32D0001261000437A691946F869FCF7A0F902467B68C3F850227B6893F86C32002B34D07C687B68D3F848227B68B7
S32D00012638D3F860321946104639F0CEF803461946204600F0E3FF7B6803F1A0047B68D3F84C227B68D3F86032BB
S32D000126601946104639F0BCF803461946204600F0D1FF7B6803F5A0747B68D3F850227B68D3F8603219461046E7
S32D0001268839F0AAF803461946204600F0BFFF2AE07C687B68D3F848321549184639F09CF803461946204600F00F
S32D000126B09EFE7B6803F1A0047B68D3F84C320E49184639F08DF803461946204600F08FFE7B6803F5A0747B68F8
S32D000126D8D3F850320649184639F07EF803461946204600F080FE00BF2C37BD4690BD00BF0000C84280B582B01C
S32D0001270000AF78604FF000034FF000024FF000017868FFF79FFE7B68184600F094FE7B68A033184600F08FFE99
S32D000127287B6803F5A073184600F089FE00BF0837BD4680BD80B582B000AF78607B68184600F097FE0346184626
S32D000127500837BD4680BD80B582B000AF78607B68A033184600F089FE034618460837BD4680BD80B582B000AF26
S32D0001277878607B6803F5A073184600F07AFE034618460837BD4680BD80B582B000AF78607B68184600F0A2FEC1
S32D000127A0034618460837BD4680BD80B582B000AF78607B68A033184600F094FE034618460837BD4680BD80B505
S32D000127C882B000AF78607B6803F5A073184600F085FE034618460837BD4680BD80B483B000AF78607B6803F57B
S32D000127F0037318460C37BD4680BC704780B483B000AF78607B6803F5067318460C37BD4680BC704780B483B06D
S32D0001281800AF78607B6803F5007318460C37BD4680BC704780B584B000AFF860B9607A603B60F86800F040F89F
S32D00012840FB68BA68C3F80C22FB687A68C3F81022FB683A68C3F81422F86800F031F800BF1037BD4680BD80B4E0
S32D0001286885B000AFF860B9607A603B60FB68D3F80C22FB68C3F82422FB68D3F81022FB68C3F82822FB68D3F8C1
S32D000128901422FB68C3F82C22FB68BA68C3F81822FB687A68C3F81C22FB683A68C3F8202200BF1437BD4680BC74
S32D000128B8704700000000000090B597B000AF786003F0FEF90346184638F02EFF03463B657B68184600F0F5FD35
S32D000128E0F8647B68A033184600F0EFFDB8647B6803F5A073184600F0E8FD78647B68D3F870321946F86C38F029
S32D0001290861FE03463B647B68D3F874321946B86C38F058FE0346FB637B68D3F878321946786C38F04FFE034604
S32D00012930BB637B68FA6CC3F870227B68BA6CC3F874227B687A6CC3F878227B68D3F8DC31396C184638F044FF23
